0ADAGDSCHED200722160547                                                                                                                                                                                                                                                    
1SMCU1200723091747792913614000000000A02939B0012400000633870000751562200716200723Peoples Postcode Lottery DRTV      030000000000  0305E5668    PPL/PPLU015/030                                                                   000000000                                          CS00C00001              N09174700270+00000C
3SMCU1200723091817793378678000000000A01161B0011100000044700000750977200701200731Open University Branding DRTV      030000000000  0305E5120    HKP/OPEN007/030                                                                   000000000                                          CS00C00001              N09174700270+00000C
3SMCU1200723091847793756977000000000A00226B0006100000489780000752320200701200731British Gas Home Installation DRTV 030000000000  0305E6347    CHI/BGBR692/030                                                                   000000000                                          CS00C00001              N09174700270+00000C
3SMCU1200723091917793756978000000000A00134B0144800000557830000752351200706200724Sunlife GOF                        020000000000  0205E3511    HHP/SLWP203/020                                                                   000000000                                          CS00C00001              N09174700270+00000C
3SMCU1200723091937798756957000000000A07794B0130800000608210000751026200701200731Itch SR                            010000000000  0105E6075    MUD/ITGA003/010                                                                   000000000                                          CS00C00001              N09174700270+00000C
3SMCU1200723091947797940971000000000A08221B0081100000646470000750842200706200731FindMyPast SR                      010000000000  0105E3688    FTB/FMPA003/010                                                                   000000000                                          CS00C00001              N09174700270+00000C
3SMCU1200723091957793756979000000000A00353B0005000000653070000752774200701200731Co-op Over 50s DRTV                030000000000  0305E5928    REP/CPNS240/030                                                                   000000000                                          CS00C00001              N09174700270+00000C
3SMCU1200723092027793691086000000000A00648B0160500000385010000752598200706200726Sensodyne Brand                    020000000000  0205E5729    HOG/GXSE965/020                                                                   000000000                                          CS00C00001              N09174700270+00000C
3SMCU1200723092047792839122000000000A01370B0009000000041800000750391200701200731Sight Savers DRTV                  090000000000  0905B1027    DTV/SSYS003/090                                                                   000000000                                          CS00C00001              N09174700270+00000C
3SMCU1200723093814792914753000000000A02510B0011600000275720000750970200701200731Tombola DRTV                       020000000000  0205E5607    RVE/TBCO045/020                                                                   000000000                                          CS00C00002              N09381400270+00000C
3SMCU1200723093834793687828000000000A01339B0021100000087760000753161200706200726SCA Plenty Kitchen Towel           020000000000  0205E2764    MIF/SCPL280/020                                                                   000000000                                          CS00C00002              N09381400270+00000C
3SMCU1200723093854793687434000000000A00648B0160500000039970000752639200706200726Corsodyl                           020000000000  0205E5864    HOG/GXCO978/020                                                                   000000000                                          CS00C00002              N09381400270+00000C
3SMCU1200723093914793758385000000000A00230B0102200000130090000752916200717200730BT Broadband DRTV                  040000000000  0405E6901    AMV/BZBB298/040                                                                   000000000                                          CS00C00002              N09381400270+00000C
3SMCU1200723093954797931202000000000A01632B0020300000003370000756224200719200731Weight Watchers DRTV               030000000000  0305E6800    WLI/WWOM012/030                                                                   000000000                                          CS00C00002              N09381400270+00000C
3SMCU1200723094024798543305000000000A05622A0562200000632090000750848200701200731Best Fiends Direct SR              030000000000  0305E3392    PGE/BEST006/030                                                                   000000000                                          CS00C00002              N09381400270+00000C
3SMCU1200723094054798771567000000000A02951B0013300000621480000751068200701200731Glasses Direct Shared Reward       010000000000  0105E2848    WPP/GLDI089/010                                                                   000000000                                          CS00C00002              N09381400270+00000C
3SMCU1200723094104797199034000000000A03959B0017800000241460000753813200701200731Neilson Financial Service British S060000000000  0605E3416    SCC/BSVU135/060                                                                   000000000                                          CS00C00002              N09381400270+00000C
3SMCU1200723094204793687435000000000A00648B0160500000594780000752586200706200726Novartis Voltarol Medifacts        020000000000  0205E6513    HOG/GXVO994/020                                                                   000000000                                          CS00C00002              N09381400270+00000C
3SMCU1200723094224793612752000000000A00119B0017600000621030000754465200706200731Asda Brand 2 HFSS (APX)            020000000000  0205E7023    AMV/ASJR281/020                                                                   000000000                                          CS00C00002              N09381400270+00000C
3SMCU1200723095557793686244000000000A00648B0160500000182050000752624200706200726Pirinase Hayfever Relief           010000000000  0105E5842    HOG/GXPI951/010                                                                   000000000                                          CS00E00037              N09555700180+00000E
3SMCU1200723095607798933315000000000A01276B0057000000498400000752076200713200726Vanish Pink Platinum               020000000000  0205E2979    HKX/VAVP003/020                                                                   000000000                                          CS00E00037              N09555700180+00000E
3SMCU1200723095627798933492000000000A00748B0017800000449670000756932200723200731Heinz Summer Sauces                030000000000  0305E7087    HOG/HZSA471/030                                                                   000000000                                          CS00E00037              N09555700180+00000E
3SMCU1200723095657796296990000000000A00134B0144800000557830000752351200706200724Sunlife GOF                        020000000000  0205E3511    HHP/SLWP203/020                                                                   000000000                                          CS00E00037              N09555700180+00000E
3SMCU1200723095717792757759000000000A01370B0009000000041800000750391200701200731Sight Savers DRTV                  090000000000  0905B1027    DTV/SSYS003/090                                                                   000000000                                          CS00E00037              N09555700180+00000E
3SMCU1200723095847793685764000000000A00199B0011400000010860000750706200710200730Boots Opticians                    010000000000  0105E6013    HOG/BOOP368/010                                                                   000000000                                          CS00E00037              N09555700180+00000E
3SMCU1200723101905793695665000000000A00648B0160500000385010000752597200706200726Sensodyne Brand                    020000000000  0205E5729    HOG/GXSE965/020                                                                   000000000                                          CS00C00003              N10190500270+00000C
3SMCU1200723101925795449500000000000A05570B0144800000648160000751811200701200731Clearscore Protect SR              030000000000  0305E3665    MCM/CLEA800/030                                                                   000000000                                          CS00C00003              N10190500270+00000C
3SMCU1200723101955793760232000000000A00549B0011600000003700000753168200701200731Express Gifts                      030000000000  0305E6020    CHF/STUD787/030                                                                   000000000                                          CS00C00003              N10190500270+00000C
3SMCU1200723102025796957544000000000A02010B0085000000089820000758110200708200731Haven Holidays DRTV                030000000000  0305E6344    IRI/HABR069/030                                                                   000000000                                          CS00C00003              N10190500270+00000C
3SMCU1200723102055797941122000000000A08221B0081100000646470000750842200706200731FindMyPast SR                      030000000000  0305E3686    FTB/FMPA001/030                                                                   000000000                                          CS00C00003              N10190500270+00000C
3SMCU1200723102125795046722000000000A01770A0177000000310220000754471200701200731Sky Now TV Entertainment DRTV      030000000000  0305E4023    SKY/AWBS001/030                                                                   000000000                                          CS00C00003              N10190500270+00000C
3SMCU1200723102155796296985000000000A00134B0144800000557830000752351200706200724Sunlife GOF                        020000000000  0205E3511    HHP/SLWP203/020                                                                   000000000                                          CS00C00003              N10190500270+00000C
3SMCU1200723102215797901701000000000A02010B0085000000049290000758579200720200731Warner Leisure Hotels DRTV         030000000000  0305E7097    CTV/WLHH001/030                                                                   000000000                                          CS00C00003              N10190500270+00000C
3SMCU1200723102245795027196000000000A00648B0160500000594780000752587200706200726Novartis Voltarol Medifacts        020000000000  0205E6513    HOG/GXVO994/020                                                                   000000000                                          CS00C00003              N10190500270+00000C
3SMCU1200723102305793998981000000000A01240B0017900000006120000752731200701200731Pantene                            030000000000  0305E4041    GRY/PGPP638/030                                                                   000000000                                          CS00C00003              N10190500270+00000C
3SMCU1200723104501798933549000000000A08151B0170300000654410000753287200701200731Disney Plus Take Disney With You   030000000000  0305E4955    SHT/DPMA064/030                                                                   000000000                                          CS00E00038              N10450100270+00000E
3SMCU1200723104531798933551000000000A01619B0022200000657550000757585200722200731Waitrose Taste Cherry              030000000000  0305E6982    AED/WABR245/030                                                                   000000000                                          CS00E00038              N10450100270+00000E
3SMCU1200723104601798933553000000000A01122B0019100000074450000755108200720200731Nintendo Animal Crossing Gamers    030000000000  0305E7140    PCH/NISW168/030                                                                   000000000                                          CS00E00038              N10450100270+00000E
3SMCU1200723104631798093601000000000A03795B0001200000609340000759420200720200731Staysure DRTV                      040000000000  0405E1397    IRI/SSBR023/040                                                                   000000000                                          CS00E00038              N10450100270+00000E
3SMCU1200723104711798543306000000000A05622A0562200000632090000750848200701200731Best Fiends Direct SR              030000000000  0305D5222    PGE/BEST002/030                                                                   000000000                                          CS00E00038              N10450100270+00000E
3SMCU1200723104741798933552000000000A00299B0116100000561600000753135200706200726Nestle Cereal Partners Reputation  020000000000  0205D4234    MCE/CPGT001/020                                                                   000000000                                          CS00E00038              N10450100270+00000E
3SMCU1200723104801798096959000000000A03959B0017800000241460000753813200701200731Neilson Financial Service British S060000000000  0605E3416    SCC/BSVU135/060                                                                   000000000                                          CS00E00038              N10450100270+00000E
3SMCU1200723104901798933550000000000A01102B0116100000054940000753253200720200731Buxton Water                       030000000000  0305E6570    MIF/NEBU270/030                                                                   000000000                                          CS00E00038              N10450100270+00000E
3SMCU1200723105646793760218000000000A04727B0017600000358880000752566200706200731Royal London Group Over 50 Life Cov060000000000  0605E6235    SCC/RLPV602/060                                                                   000000000                                          CS00E00039              N10564600180+00000E
3SMCU1200723105746796254913000000000A00748B0017800000449670000756932200723200731Heinz Summer Sauces                030000000000  0305E7087    HOG/HZSA471/030                                                                   000000000                                          CS00E00039              N10564600180+00000E
3SMCU1200723105816795046720000000000A01770A0177000000272820000754463200701200731Sky Now TV Movies DRTV             030000000000  0305E5995    SKY/NWCI002/030                                                                   000000000                                          CS00E00039              N10564600180+00000E
3SMCU1200723105846793760221000000000A03848B0085000000308220000751609200706200726Gtech Air Ram                      030000000000  0305E6146    GCH/KNBF005/030                                                                   000000000                                          CS00E00039              N10564600180+00000E
3SMCU1200723105916795790830000000000A01632B0020300000003370000756224200719200731Weight Watchers DRTV               030000000000  0305E6800    WLI/WWOM012/030                                                                   000000000                                          CS00E00039              N10564600180+00000E
3SMCU1200723111614793867032000000000A01145B0114200000340370000753384200701200731O2 Simo DRTV                       020000000000  0205E6808    VCC/TOSI369/020                                                                   000000000                                          CS00C00004              N11161400240+00000C
3SMCU1200723111634795046109000000000A01770A0177000000132360000754682200701200731Sky Broadband DRTV                 030000000000  0305E5021    CKC/SKHD158/030                                                                   000000000                                          CS00C00004              N11161400240+00000C
3SMCU1200723111704796957524000000000A02010B0085000000089820000758110200708200731Haven Holidays DRTV                030000000000  0305E6343    IRI/HABR070/030                                                                   000000000                                          CS00C00004              N11161400240+00000C
3SMCU1200723111734796296981000000000A00134B0144800000557830000752351200706200724Sunlife GOF                        020000000000  0205E3511    HHP/SLWP203/020                                                                   000000000                                          CS00C00004              N11161400240+00000C
3SMCU1200723111754798771568000000000A02951B0013300000621480000751068200701200731Glasses Direct Shared Reward       010000000000  0105E2849    WPP/GLDI087/010                                                                   000000000                                          CS00C00004              N11161400240+00000C
3SMCU1200723111804793957145000000000A00869B0001200000625140000753592200701200731JML Finishing Touch Branding (BAR) 030000000000  0305E5884    JML/JNRC026/030                                                                   000000000                                          CS00C00004              N11161400240+00000C
3SMCU1200723111834792757048000000000A01659B0009000000588710000750393200701200731World Vision Kema                  090000000000  0905U9699    DTV/WVSK002/090                                                                   000000000                                          CS00C00004              N11161400240+00000C
3SMCU1200723112004798431286000000000A08221B0081100000646470000750842200706200731FindMyPast SR                      010000000000  0105E3809    FTB/FMPA005/010                                                                   000000000                                          CS00C00004              N11161400240+00000C
3SMCU1200723113516792914843000000000A02510B0011600000275720000750970200701200731Tombola DRTV                       010000000000  0105E3506    RVE/TBCO042/010                                                                   000000000                                          CS00C00005              N11351600270+00000C
3SMCU1200723113526795086256000000000A02099B0006100000351750000754641200703200730Moonpig Cards DRTV                 020000000000  0205E6471    CLD/MOHE026/020                                                                   000000000                                          CS00C00005              N11351600270+00000C
3SMCU1200723113546797901810000000000A02010B0085000000049290000758579200720200731Warner Leisure Hotels DRTV         030000000000  0305E7097    CTV/WLHH001/030                                                                   000000000                                          CS00C00005              N11351600270+00000C
3SMCU1200723113616793867031000000000A00353B0005000000653070000752774200701200731Co-op Over 50s DRTV                030000000000  0305E5928    REP/CPNS240/030                                                                   000000000                                          CS00C00005              N11351600270+00000C
3SMCU1200723113646793758466000000000A02479B0020300000574310000752675200701200731Legal & General Term Insurance     030000000000  0305E4088    OLI/LGFN740/030                                                                   000000000                                          CS00C00005              N11351600270+00000C
3SMCU1200723113716795086257000000000A05665B0031800000397830000754962200701200731Mister Spex                        010000000000  0105E3174    MSX/GLAS003/010                                                                   000000000                                          CS00C00005              N11351600270+00000C
3SMCU1200723113726798760596000000000A08318A0831800000651130000750776200701200731Step One Clothing                  030000000000  0305E5782    SKY/SOLP003/030                                                                   000000000                                          CS00C00005              N11351600270+00000C
3SMCU1200723113756798093508000000000A03795B0001200000609340000759420200720200731Staysure DRTV                      040000000000  0405E1397    IRI/SSBR023/040                                                                   000000000                                          CS00C00005              N11351600270+00000C
3SMCU1200723113836795046108000000000A01770A0177000000310220000754471200701200731Sky Now TV Entertainment DRTV      030000000000  0305E4023    SKY/AWBS001/030                                                                   000000000                                          CS00C00005              N11351600270+00000C
3SMCU1200723113906795086258000000000A02356B0008500000654480000754900200703200730Crisis Homeless Charity            030000000000  0305E6034    INF/CRIS002/030                                                                   000000000                                          CS00C00005              N11351600270+00000C
3SMCU1200723113936798756960000000000A07794B0130800000608210000751026200701200731Itch SR                            010000000000  0105E6074    MUD/ITPH003/010                                                                   000000000                                          CS00C00005              N11351600270+00000C
3SMCU1200723115518792839209000000000A01659B0009000000588710000750393200701200731World Vision Kema                  090000000000  0905U9699    DTV/WVSK002/090                                                                   000000000                                          CS00E00040              N11551800180+00000E
3SMCU1200723115648796957504000000000A02010B0085000000089820000758110200708200731Haven Holidays DRTV                030000000000  0305E6344    IRI/HABR069/030                                                                   000000000                                          CS00E00040              N11551800180+00000E
3SMCU1200723115718793757085000000000A00134B0144800000557830000752351200706200724Sunlife GOF                        020000000000  0205E3511    HHP/SLWP203/020                                                                   000000000                                          CS00E00040              N11551800180+00000E
3SMCU1200723115738798093418000000000A03795B0001200000609340000759420200720200731Staysure DRTV                      040000000000  0405E1397    IRI/SSBR023/040                                                                   000000000                                          CS00E00040              N11551800180+00000E
3SMCU1200723122004795086260000000000A02181B0020300000602580000754406200701200731WWF Adoptions                      030000000000  0305C9580    DTV/WFRT001/030                                                                   000000000                                          CS00C00006              N12200400270+00000C
3SMCU1200723122034796258852000000000A00748B0017800000449670000756932200723200731Heinz Summer Sauces                030000000000  0305E7087    HOG/HZSA471/030                                                                   000000000                                          CS00C00006              N12200400270+00000C
3SMCU1200723122104793758472000000000A04727B0017600000358880000752566200706200731Royal London Group Over 50 Life Cov060000000000  0605E6236    SCC/RLPT702/060                                                                   000000000                                          CS00C00006              N12200400270+00000C
3SMCU1200723122204796961999000000000A01145B0114200000525000000751918200701200731O2 Handsets                        020000000000  0205E5313    VCC/TOHS366/020                                                                   000000000                                          CS00C00006              N12200400270+00000C
3SMCU1200723122224794466601000000000A00890B0012400000117120000754217200701200731Key Retirement Solutions           030000000000  0305E3070    MCM/KEYR797/030                                                                   000000000                                          CS00C00006              N12200400270+00000C
3SMCU1200723122254798935845000000000A01276B0057000000010950000752077200701200731Vanish Whites Washing Powder       020000000000  0205E3397    HKX/VACW012/020                                                                   000000000                                          CS00C00006              N12200400270+00000C
3SMCU1200723122314795046111000000000A01770A0177000000132360000754682200701200731Sky Broadband DRTV                 030000000000  0305E5021    CKC/SKHD158/030                                                                   000000000                                          CS00C00006              N12200400270+00000C
3SMCU1200723122344795144611000000000A00132B0081100000495320000755125200701200731Aviva Equity Release               030000000000  0305E7226    BCL/AVER002/030                                                                   000000000                                          CS00C00006              N12200400270+00000C
3SMCU1200723122414792914836000000000A02510B0011600000275720000750970200701200731Tombola DRTV                       020000000000  0205E5607    RVE/TBCO045/020                                                                   000000000                                          CS00C00006              N12200400270+00000C
3SMCU1200723124515793867380000000000A00134B0144800000557830000752351200706200724Sunlife GOF                        020000000000  0205E3511    HHP/SLWP203/020                                                                   000000000                                          CS00E00041              N12451500270+00000E
3SMCU1200723124535798935481000000000A04113B0021100000635350000751503200720200731Coty Clairol                       030000000000  0305E7062    SAA/CROL041/030                                                                   000000000                                          CS00E00041              N12451500270+00000E
3SMCU1200723124605793867381000000000A06415B0003700000480240000754547200701200731Pure Cremation                     040000000000  0405D0700    PUC/MOSF001/040                                                                   000000000                                          CS00E00041              N12451500270+00000E
3SMCU1200723124645793760223000000000A03848B0085000000308220000751609200706200726Gtech Air Ram                      030000000000  0305E6146    GCH/KNBF005/030                                                                   000000000                                          CS00E00041              N12451500270+00000E
3SMCU1200723124715793867382000000000A01145B0114200000340370000753384200701200731O2 Simo DRTV                       020000000000  0205E6808    VCC/TOSI369/020                                                                   000000000                                          CS00E00041              N12451500270+00000E
3SMCU1200723124735798934942000000000A01240B0017900000609070000753122200715200731Always Discreet Shero              020000000000  0205E6609    BUR/TALW558/020                                                                   000000000                                          CS00E00041              N12451500270+00000E
3SMCU1200723124755795046721000000000A01770A0177000000272820000754463200701200731Sky Now TV Movies DRTV             030000000000  0305E5995    SKY/NWCI002/030                                                                   000000000                                          CS00E00041              N12451500270+00000E
3SMCU1200723124825798093600000000000A03795B0001200000609340000759420200720200731Staysure DRTV                      040000000000  0405E1397    IRI/SSBR023/040                                                                   000000000                                          CS00E00041              N12451500270+00000E
3SMCU1200723124905794536620000000000A04556B0010400000303940000754367200701200731Wiltshire Farm Foods DRTV          030000000000  0305E3969    OPL/WFFD008/030                                                                   000000000                                          CS00E00041              N12451500270+00000E
3SMCU1200723124935794250819000000000A00353B0005000000656380000752776200715200728Co-op SuperSaver (MNS)             010000000000  0105E4854    LYG/CPBR065/010                                                                   000000000                                          CS00E00041              N12451500270+00000E
3SMCU1200723125658798937201000000000A07554B0001200000588410000755686200701200731Pension Bee                        010000000000  0105E6539    BDU/PBEE012/010                                                                   000000000                                          CS00E00042              N12565800180+00000E
3SMCU1200723125708796253222000000000A01619B0022200000657550000757585200722200731Waitrose Taste Cherry              030000000000  0305E6982    AED/WABR245/030                                                                   000000000                                          CS00E00042              N12565800180+00000E
3SMCU1200723125738792914105000000000A02939B0012400000633870000751562200716200723Peoples Postcode Lottery DRTV      030000000000  0305E5670    PPL/PPLU018/030                                                                   000000000                                          CS00E00042              N12565800180+00000E
3SMCU1200723125808792839402000000000A01659B0009000000588710000750393200701200731World Vision Kema                  090000000000  0905U9699    DTV/WVSK002/090                                                                   000000000                                          CS00E00042              N12565800180+00000E
3SMCU1200723125938793757324000000000A00134B0144800000557830000752351200706200724Sunlife GOF                        020000000000  0205E3511    HHP/SLWP203/020                                                                   000000000                                          CS00E00042              N12565800180+00000E
3SMCU1200723131424797409891000000000A00360B0022200000658160000758007200720200731CCS EU Transition                  030000000000  0305E6737    MLL/COAT001/030                                                                   000000000                                          CS00C00007              N13142400270+00000C
3SMCU1200723131454798933697000000000A01115B0074200000433100000750484200723200725The Sun Superdays                  020000000000  0205E6997    TTB/SUNT351/020                                                                   000000000                                          CS00C00007              N13142400270+00000C
3SMCU1200723131514793759573000000000A04727B0017600000358880000752566200706200731Royal London Group Over 50 Life Cov060000000000  0605E6235    SCC/RLPV602/060                                                                   000000000                                          CS00C00007              N13142400270+00000C
3SMCU1200723131614793867209000000000A06415B0003700000480240000754547200701200731Pure Cremation                     040000000000  0405D0700    PUC/MOSF001/040                                                                   000000000                                          CS00C00007              N13142400270+00000C
3SMCU1200723131654793759575000000000A02510B0011600000275720000750970200701200731Tombola DRTV                       010000000000  0105E3506    RVE/TBCO042/010                                                                   000000000                                          CS00C00007              N13142400270+00000C
3SMCU1200723131704798771569000000000A02951B0013300000621480000751068200701200731Glasses Direct Shared Reward       010000000000  0105E2848    WPP/GLDI089/010                                                                   000000000                                          CS00C00007              N13142400270+00000C
3SMCU1200723131714796961959000000000A01145B0114200000525000000751918200701200731O2 Handsets                        020000000000  0205E5313    VCC/TOHS366/020                                                                   000000000                                          CS00C00007              N13142400270+00000C
3SMCU1200723131734797901822000000000A02010B0085000000049290000758579200720200731Warner Leisure Hotels DRTV         030000000000  0305E7097    CTV/WLHH001/030                                                                   000000000                                          CS00C00007              N13142400270+00000C
3SMCU1200723131804794466626000000000A00890B0012400000117120000754217200701200731Key Retirement Solutions           030000000000  0305E2937    MCM/KEYR796/030                                                                   000000000                                          CS00C00007              N13142400270+00000C
3SMCU1200723131834795025913000000000A00119B0017600000621030000754465200706200731Asda Brand 2 HFSS (APX)            020000000000  0205E7023    AMV/ASJR281/020                                                                   000000000                                          CS00C00007              N13142400270+00000C
3SMCU1200723133415798935024000000000A00353B0005000000656380000752776200715200728Co-op SuperSaver (MNS)             010000000000  0105E4854    LYG/CPBR065/010                                                                   000000000                                          CS00C00008              N13341500270+00000C
3SMCU1200723133425793758905000000000A00134B0144800000557830000752351200706200724Sunlife GOF                        020000000000  0205E3511    HHP/SLWP203/020                                                                   000000000                                          CS00C00008              N13341500270+00000C
3SMCU1200723133445793758908000000000A03848B0085000000308220000751609200706200726Gtech Air Ram                      030000000000  0305E6146    GCH/KNBF005/030                                                                   000000000                                          CS00C00008              N13341500270+00000C
3SMCU1200723133515795046275000000000A01770A0177000000310220000754471200701200731Sky Now TV Entertainment DRTV      030000000000  0305E4023    SKY/AWBS001/030                                                                   000000000                                          CS00C00008              N13341500270+00000C
3SMCU1200723133545796960632000000000A03234B0009000000657370000758362200715200728Disasters Emergency Committee Covid030000000000  0305E6784    DTV/DECV006/030                                                                   000000000                                          CS00C00008              N13341500270+00000C
3SMCU1200723133615792915111000000000A00625B0019100000253880000752316200701200731Galabingo DRTV                     010000000000  0105E5422    TTB/GALA027/010                                                                   000000000                                          CS00C00008              N13341500270+00000C
3SMCU1200723133625795790728000000000A01632B0020300000003370000756224200719200731Weight Watchers DRTV               010000000000  0105E6798    WLI/WWOM014/010                                                                   000000000                                          CS00C00008              N13341500270+00000C
3SMCU1200723133635793957166000000000A00869B0001200000607880000753587200706200731JML Chill Air Max (BAR)            030000000000  0305E6151    JML/CHMX022/030                                                                   000000000                                          CS00C00008              N13341500270+00000C
3SMCU1200723133705796957490000000000A02010B0085000000089820000758110200708200731Haven Holidays DRTV                030000000000  0305E6343    IRI/HABR070/030                                                                   000000000                                          CS00C00008              N13341500270+00000C
3SMCU1200723133735794688776000000000A06415B0003700000480240000754547200701200731Pure Cremation                     040000000000  0405D0700    PUC/MOSF001/040                                                                   000000000                                          CS00C00008              N13341500270+00000C
3SMCU1200723133815795449502000000000A05570B0144800000648160000751811200701200731Clearscore Protect SR              030000000000  0305E3665    MCM/CLEA800/030                                                                   000000000                                          CS00C00008              N13341500270+00000C
3SMCU1200723135632798937190000000000A07554B0001200000588410000755686200701200731Pension Bee                        010000000000  0105D6821    BBU/PBEE008/010                                                                   000000000                                          CS00E00043              N13563200180+00000E
3SMCU1200723135642792839084000000000A00264B0006100000388350000751315200713200731Cancer Research Legacy             060000000000  0605D6939    ATO/CRDG040/060                                                                   000000000                                          CS00E00043              N13563200180+00000E
3SMCU1200723135742798093322000000000A03795B0001200000609340000759420200720200731Staysure DRTV                      040000000000  0405E1397    IRI/SSBR023/040                                                                   000000000                                          CS00E00043              N13563200180+00000E
3SMCU1200723135822798756961000000000A07794B0130800000608210000751026200701200731Itch SR                            010000000000  0105E6075    MUD/ITGA003/010                                                                   000000000                                          CS00E00043              N13563200180+00000E
3SMCU1200723135832793756885000000000A00230B0102200000302570000758920200717200730BT Broadband Sports DRTV           040000000000  0405E7143    AMV/BZBB318/040                                                                   000000000                                          CS00E00043              N13563200180+00000E
3SMCU1200723135912796291410000000000A00134B0144800000557830000752351200706200724Sunlife GOF                        020000000000  0205E3511    HHP/SLWP203/020                                                                   000000000                                          CS00E00043              N13563200180+00000E
3SMCU1200723141912793360930000000000A01471B0011400000648090000750994200723200731Tesco APM (BAR)                    020000000000  0205E7145    BBH/TCPD226/020                                                                   000000000                                          CS00C00009              N14191200270+00000C
3SMCU1200723141932795717261000000000A00230B0102200000211500000755513200715200731BT PlusNet DRTV                    030000000000  0305E6845    KAR/PLUS517/030                                                                   000000000                                          CS00C00009              N14191200270+00000C
3SMCU1200723142002792913127000000000A02939B0012400000633870000751562200716200723Peoples Postcode Lottery DRTV      030000000000  0305E5669    PPL/PPLU016/030                                                                   000000000                                          CS00C00009              N14191200270+00000C
3SMCU1200723142032796957471000000000A02010B0085000000089820000758110200708200731Haven Holidays DRTV                030000000000  0305E6344    IRI/HABR069/030                                                                   000000000                                          CS00C00009              N14191200270+00000C
3SMCU1200723142102798936387000000000A01240B0017900000609070000753122200715200731Always Discreet Shero              020000000000  0205E6609    BUR/TALW558/020                                                                   000000000                                          CS00C00009              N14191200270+00000C
3SMCU1200723142122793756354000000000A00134B0144800000557830000752351200706200724Sunlife GOF                        020000000000  0205E3511    HHP/SLWP203/020                                                                   000000000                                          CS00C00009              N14191200270+00000C
3SMCU1200723142142793756356000000000A06152B0012400000287610000751473200701200731BonPrix                            030000000000  0305E4521    VTN/BPSS066/030                                                                   000000000                                          CS00C00009              N14191200270+00000C
3SMCU1200723142212793378523000000000A01161B0011100000044700000750977200701200731Open University Branding DRTV      030000000000  0305E5119    HKP/OPEN008/030                                                                   000000000                                          CS00C00009              N14191200270+00000C
3SMCU1200723142242794688773000000000A06415B0003700000480240000754547200701200731Pure Cremation                     040000000000  0405D0700    PUC/MOSF001/040                                                                   000000000                                          CS00C00009              N14191200270+00000C
3SMCU1200723142322792913128000000000A02510B0011600000275720000750970200701200731Tombola DRTV                       020000000000  0205E5607    RVE/TBCO045/020                                                                   000000000                                          CS00C00009              N14191200270+00000C
3SMCU1200723144435792839202000000000A01659B0009000000588710000750393200701200731World Vision Kema                  090000000000  0905U9699    DTV/WVSK002/090                                                                   000000000                                          CS00E00044              N14443500270+00000E
3SMCU1200723144605793496980000000000A02939B0012400000633870000753109200716200723Peoples Postcode Lottery DRTV      030000000000  0305E5668    PPL/PPLU015/030                                                                   000000000                                          CS00E00044              N14443500270+00000E
3SMCU1200723144635796957505000000000A02010B0085000000089820000758110200708200731Haven Holidays DRTV                030000000000  0305E6343    IRI/HABR070/030                                                                   000000000                                          CS00E00044              N14443500270+00000E
3SMCU1200723144705793757087000000000A00353B0005000000653070000752774200701200731Co-op Over 50s DRTV                030000000000  0305E5928    REP/CPNS240/030                                                                   000000000                                          CS00E00044              N14443500270+00000E
3SMCU1200723144735797931201000000000A01632B0020300000003370000756224200719200731Weight Watchers DRTV               030000000000  0305E6800    WLI/WWOM012/030                                                                   000000000                                          CS00E00044              N14443500270+00000E
3SMCU1200723144805793757086000000000A04727B0017600000358880000752566200706200731Royal London Group Over 50 Life Cov060000000000  0605E6236    SCC/RLPT702/060                                                                   000000000                                          CS00E00044              N14443500270+00000E
3SMCU1200723150530793757079000000000A00134B0144800000557830000752351200706200724Sunlife GOF                        020000000000  0205E3511    HHP/SLWP203/020                                                                   000000000                                          CS00C00010              N15053000270+00000C
3SMCU1200723150550795790897000000000A01632B0020300000003370000756224200719200731Weight Watchers DRTV               030000000000  0305E6800    WLI/WWOM012/030                                                                   000000000                                          CS00C00010              N15053000270+00000C
3SMCU1200723150620792913793000000000A00625B0019100000253880000752316200701200731Galabingo DRTV                     010000000000  0105E5422    TTB/GALA027/010                                                                   000000000                                          CS00C00010              N15053000270+00000C
3SMCU1200723150630793757081000000000A03848B0085000000308220000751609200706200726Gtech Air Ram                      030000000000  0305E6146    GCH/KNBF005/030                                                                   000000000                                          CS00C00010              N15053000270+00000C
3SMCU1200723150700793757080000000000A00239B0012100000341780000751378200701200731Beagle Street                      030000000000  0305D9052    SCC/BSPS301/030                                                                   000000000                                          CS00C00010              N15053000270+00000C
3SMCU1200723150730796960622000000000A03234B0009000000657370000758362200715200728Disasters Emergency Committee Covid030000000000  0305E6784    DTV/DECV006/030                                                                   000000000                                          CS00C00010              N15053000270+00000C
3SMCU1200723150800798771570000000000A02951B0013300000621480000751068200701200731Glasses Direct Shared Reward       010000000000  0105E2849    WPP/GLDI087/010                                                                   000000000                                          CS00C00010              N15053000270+00000C
3SMCU1200723150810792913794000000000A02939B0012400000633870000751562200716200723Peoples Postcode Lottery DRTV      030000000000  0305E5670    PPL/PPLU018/030                                                                   000000000                                          CS00C00010              N15053000270+00000C
3SMCU1200723150840796961736000000000A01145B0114200000525000000751918200701200731O2 Handsets                        020000000000  0205E5313    VCC/TOHS366/020                                                                   000000000                                          CS00C00010              N15053000270+00000C
3SMCU1200723150900798107850000000000A05570B0144800000648160000751811200701200731Clearscore Protect SR              030000000000  0305E3665    MCM/CLEA800/030                                                                   000000000                                          CS00C00010              N15053000270+00000C
3SMCU1200723150930795281171000000000A01709B0022000000007980000755117200706200731Go Compare DRTV                    020000000000  0205E6212    GOC/DRTV074/020                                                                   000000000                                          CS00C00010              N15053000270+00000C
3SMCU1200723150950798937194000000000A07554B0001200000588410000755686200701200731Pension Bee                        010000000000  0105D6820    BBU/PBEE006/010                                                                   000000000                                          CS00C00010              N15053000270+00000C
3SMCU1200723152427794688768000000000A06415B0003700000480240000754547200701200731Pure Cremation                     040000000000  0405D0700    PUC/MOSF001/040                                                                   000000000                                          CS00C00011              N15242700270+00000C
3SMCU1200723152507792757566000000000A01659B0009000000588710000750393200701200731World Vision Kema                  090000000000  0905U9699    DTV/WVSK002/090                                                                   000000000                                          CS00C00011              N15242700270+00000C
3SMCU1200723152637796957458000000000A02010B0085000000089820000758110200708200731Haven Holidays DRTV                030000000000  0305E6344    IRI/HABR069/030                                                                   000000000                                          CS00C00011              N15242700270+00000C
3SMCU1200723152707798936145000000000A02748B0011400000096970000750902200721200731Thinkbox TV                        030000000000  0305D3950    MUM/TBTF002/030                                                                   000000000                                          CS00C00011              N15242700270+00000C
3SMCU1200723152737793766137000000000A04727B0017600000358880000752566200706200731Royal London Group Over 50 Life Cov060000000000  0605E6235    SCC/RLPV602/060                                                                   000000000                                          CS00C00011              N15242700270+00000C
3SMCU1200723152837795088153000000000A02099B0006100000351750000754641200703200730Moonpig Cards DRTV                 020000000000  0205E6471    CLD/MOHE026/020                                                                   000000000                                          CS00C00011              N15242700270+00000C
3SMCU1200723154524798936378000000000A01240B0017900000006120000752731200701200731Pantene                            030000000000  0305E4041    GRY/PGPP638/030                                                                   000000000                                          CS00E00045              N15452400180+00000E
3SMCU1200723154554794688760000000000A06415B0003700000480240000754547200701200731Pure Cremation                     040000000000  0405D0700    PUC/MOSF001/040                                                                   000000000                                          CS00E00045              N15452400180+00000E
3SMCU1200723154634793768745000000000A00134B0144800000557830000752351200706200724Sunlife GOF                        020000000000  0205E3511    HHP/SLWP203/020                                                                   000000000                                          CS00E00045              N15452400180+00000E
3SMCU1200723154654796957446000000000A02010B0085000000089820000758110200708200731Haven Holidays DRTV                030000000000  0305E6343    IRI/HABR070/030                                                                   000000000                                          CS00E00045              N15452400180+00000E
3SMCU1200723154724795876362000000000A01192B0144800000596650000752530200701200731PDSA Lottery DRTV                  060000000000  0605E5894    DTV/PDWI009/060                                                                   000000000                                          CS00E00045              N15452400180+00000E
3SMCU1200723160649795791800000000000A00973B0021100000276450000753314200706200731Macmillan Cancer Coffee Non HFSS   030000000000  0305E6173    AMV/MACM005/030                                                                   000000000                                          CS00C00012              N16064900270+00000C
3SMCU1200723160719795750906000000000A01734B0170700000643150000751298200701200731Money Supermarket GME              030000000000  0305E4608    WCR/MSMS066/030                                                                   000000000                                          CS00C00012              N16064900270+00000C
3SMCU1200723160749797683379000000000A07718B0009000000623080000754189200701200731Lintbells                          040000000000  0405E5104    DCO/YUMV001/040                                                                   000000000                                          CS00C00012              N16064900270+00000C
3SMCU1200723160829795449562000000000A01145B0114200000525000000751918200701200731O2 Handsets                        020000000000  0205E5313    VCC/TOHS366/020                                                                   000000000                                          CS00C00012              N16064900270+00000C
3SMCU1200723160849795335176000000000A00869B0001200000625140000753592200701200731JML Finishing Touch Branding (BAR) 030000000000  0305E5888    JML/FTRC039/030                                                                   000000000                                          CS00C00012              N16064900270+00000C
3SMCU1200723160919796957437000000000A02010B0085000000089820000758110200708200731Haven Holidays DRTV                030000000000  0305E6344    IRI/HABR069/030                                                                   000000000                                          CS00C00012              N16064900270+00000C
3SMCU1200723160949795790955000000000A01632B0020300000003370000756224200719200731Weight Watchers DRTV               030000000000  0305E6800    WLI/WWOM012/030                                                                   000000000                                          CS00C00012              N16064900270+00000C
3SMCU1200723161019794236846000000000A03959B0017800000237680000753802200701200731Neilson Financial Service Smart Fam060000000000  0605D5468    SCC/SPSU063/060                                                                   000000000                                          CS00C00012              N16064900270+00000C
3SMCU1200723164013795994730000000000A01240B0017900000656640000756585200708200731Head & Shoulders Adults            030000000000  0305E6485    SSC/PGHS493/030                                                                   000000000                                          CS00E00046              N16401300270+00000E
3SMCU1200723164043795144656000000000A00132B0081100000495320000755125200701200731Aviva Equity Release               030000000000  0305E7226    BCL/AVER002/030                                                                   000000000                                          CS00E00046              N16401300270+00000E
3SMCU1200723164113798937073000000000A04319B0010400000532620000754338200701200731Actegy Revitive (BAR)              030000000000  0305C4221    ATG/KNAK444/030                                                                   000000000                                          CS00E00046              N16401300270+00000E
3SMCU1200723164143795044085000000000A01770A0177000000272820000754463200701200731Sky Now TV Movies DRTV             030000000000  0305E5995    SKY/NWCI002/030                                                                   000000000                                          CS00E00046              N16401300270+00000E
3SMCU1200723164213798096963000000000A03959B0017800000241460000753813200701200731Neilson Financial Service British S060000000000  0605E3415    SCC/BSPU135/060                                                                   000000000                                          CS00E00046              N16401300270+00000E
3SMCU1200723164313798756962000000000A07794B0130800000608210000751026200701200731Itch SR                            010000000000  0105E6074    MUD/ITPH003/010                                                                   000000000                                          CS00E00046              N16401300270+00000E
3SMCU1200723164323793378152000000000A01161B0011100000044700000750977200701200731Open University Branding DRTV      030000000000  0305E5120    HKP/OPEN007/030                                                                   000000000                                          CS00E00046              N16401300270+00000E
3SMCU1200723164353798107852000000000A05570B0144800000648160000751811200701200731Clearscore Protect SR              030000000000  0305E3665    MCM/CLEA800/030                                                                   000000000                                          CS00E00046              N16401300270+00000E
3SMCU1200723164423798936453000000000A01240B0017900000609070000753122200715200731Always Discreet Shero              020000000000  0205E6609    BUR/TALW558/020                                                                   000000000                                          CS00E00046              N16401300270+00000E
3SMCU1200723165155793755317000000000A00957B0008500000658920000759283200717200731Liverpool Victoria Multi Product DR030000000000  0305E6668    DES/LVMC013/030                                                                   000000000                                          CS00E00047              N16515500180+00000E
3SMCU1200723165225793755318000000000A00958B0012400000177680000752850200713200726Lloyds Pharmacy                    030000000000  0305E7025    AWN/LLOY002/030                                                                   000000000                                          CS00E00047              N16515500180+00000E
3SMCU1200723165255793755321000000000A00226B0006100000489780000752320200701200731British Gas Home Installation DRTV 030000000000  0305E6347    CHI/BGBR692/030                                                                   000000000                                          CS00E00047              N16515500180+00000E
3SMCU1200723165325798543307000000000A05622A0562200000632090000750848200701200731Best Fiends Direct SR              030000000000  0305E3393    PGE/BEST007/030                                                                   000000000                                          CS00E00047              N16515500180+00000E
3SMCU1200723165355793755316000000000A00230B0102200000130090000752917200717200730BT Broadband DRTV                  030000000000  0305E6920    AMV/BZBB300/030                                                                   000000000                                          CS00E00047              N16515500180+00000E
3SMCU1200723165425793755319000000000A00353B0005000000653070000752774200701200731Co-op Over 50s DRTV                030000000000  0305E5928    REP/CPNS240/030                                                                   000000000                                          CS00E00047              N16515500180+00000E
3SMCU1200723171127798081416000000000A00481B0084000000643200000750891200715200731Dyson Best Bits DRTV               030000000000  0305E6253    GNW/DYSN187/030                                                                   000000000                                          CS00C00013              N17112700180+00000C
3SMCU1200723171157799102741000000000A00524B0012200000651850000751088200720200731Energizer Max                      020000000000  0205E6756    TTB/ENGI003/020                                                                   000000000                                          CS00C00013              N17112700180+00000C
3SMCU1200723171217798771572000000000A02951B0013300000621480000751068200701200731Glasses Direct Shared Reward       010000000000  0105E2848    WPP/GLDI089/010                                                                   000000000                                          CS00C00013              N17112700180+00000C
3SMCU1200723171227798096964000000000A03959B0017800000241460000753813200701200731Neilson Financial Service British S060000000000  0605E3416    SCC/BSVU135/060                                                                   000000000                                          CS00C00013              N17112700180+00000C
3SMCU1200723171327798416672000000000A02748B0011400000096970000750903200721200731Thinkbox TV                        060000000000  0605D3755    MUM/TBTF001/060                                                                   000000000                                          CS00C00013              N17112700180+00000C
3SMCU1200723172753793758412000000000A04727B0017600000358880000752566200706200731Royal London Group Over 50 Life Cov060000000000  0605E6236    SCC/RLPT702/060                                                                   000000000                                          CS00C00014              N17275300180+00000C
3SMCU1200723172853793758414000000000A03848B0085000000308220000751609200706200726Gtech Air Ram                      030000000000  0305E6146    GCH/KNBF005/030                                                                   000000000                                          CS00C00014              N17275300180+00000C
3SMCU1200723172923795045957000000000A01770A0177000000310220000754471200701200731Sky Now TV Entertainment DRTV      030000000000  0305E4023    SKY/AWBS001/030                                                                   000000000                                          CS00C00014              N17275300180+00000C
3SMCU1200723172953796957586000000000A02010B0085000000089820000758110200708200731Haven Holidays DRTV                030000000000  0305E6343    IRI/HABR070/030                                                                   000000000                                          CS00C00014              N17275300180+00000C
3SMCU1200723173023794536449000000000A04556B0010400000303940000754367200701200731Wiltshire Farm Foods DRTV          030000000000  0305E3969    OPL/WFFD008/030                                                                   000000000                                          CS00C00014              N17275300180+00000C
3SMCU1200723174804795334583000000000A00029B0012400000654630000754638200713200731ACDO Dr Beckmann                   020000000000  0205E6616    HSL/DBCS876/020                                                                   000000000                                          CS00E00048              N17480400180+00000E
3SMCU1200723174824794951866000000000A03016B0012400000608180000754760200701200731Music Magpie Store Tech            010000000000  0105E3690    BJL/MMST236/010                                                                   000000000                                          CS00E00048              N17480400180+00000E
3SMCU1200723174834793741686000000000A00648B0160500000039970000752639200706200726Corsodyl                           020000000000  0205E5864    HOG/GXCO978/020                                                                   000000000                                          CS00E00048              N17480400180+00000E
3SMCU1200723174854797901377000000000A04445B0017800000631930000751629200716200729Lidl Price Comparison              020000000000  0205E7184    KAR/LIDL116/020                                                                   000000000                                          CS00E00048              N17480400180+00000E
3SMCU1200723174914794536448000000000A04319B0010400000532620000754338200701200731Actegy Revitive (BAR)              030000000000  0305B0723    ATG/WOCL235/030                                                                   000000000                                          CS00E00048              N17480400180+00000E
3SMCU1200723174944798786318000000000A01122B0019100000646930000751636200720200726Nintendo Switch 51 WW Games        020000000000  0205E7174    PCH/NISW170/020                                                                   000000000                                          CS00E00048              N17480400180+00000E
3SMCU1200723175004795715304000000000A00453B0011400000595190000751523200701200731Direct Line Core                   030000000000  0305E1024    SSC/DLCA042/030                                                                   000000000                                          CS00E00048              N17480400180+00000E
3SMCU1200723175034795039272000000000A00648B0160500000182050000752625200706200726Pirinase Hayfever Relief           010000000000  0105E5842    HOG/GXPI951/010                                                                   000000000                                          CS00E00048              N17480400180+00000E
3SMCU1200723175044793650490000000000A00463B0003700000188440000751995200720200731Dominos Branding                   020000000000  0205E6632    VCC/DOMN203/020                                                                   000000000                                          CS00E00048              N17480400180+00000E
3SMCU1200723181732793691965000000000A01027B0013800000649500000751214200701200726Mercedes Online Showroom           030000000000  0305E4374    SSC/MEBR002/030                                                                   000000000                                          CS00C00015              N18173200240+00000C
3SMCU1200723181802794659023000000000A05318B0122200000447800000751224200701200726Purplebricks GME                   030000000000  0305E6117    SNQ/PUBR145/030                                                                   000000000                                          CS00C00015              N18173200240+00000C
3SMCU1200723181832798091764000000000A03222B0008500000574380000755915200720200731Amazon Brand Truths                030000000000  0305E6357    AMZ/MMME001/030                                                                   000000000                                          CS00C00015              N18173200240+00000C
3SMCU1200723181902797229876000000000A00230B0122100000546610000755409200717200730BT Deals GME                       030000000000  0305E6921    AMV/BZBB306/030                                                                   000000000                                          CS00C00015              N18173200240+00000C
3SMCU1200723181932794772840000000000A04182B0069700000558360000751382200720200731Skippy Peanut Butter               020000000000  0205E7065    BBS/HOSK005/020                                                                   000000000                                          CS00C00015              N18173200240+00000C
3SMCU1200723181952794585334000000000A00910B0102200000640840000754429200720200731L'Oreal Kerastase Blond Absolu     020000000000  0205E6790    TAG/KTGB008/020                                                                   000000000                                          CS00C00015              N18173200240+00000C
3SMCU1200723182012794842678000000000A08066B0022000000424270000754607200711200731Amazon Audible                     030000000000  0305E6446    FOL/AUDI101/030                                                                   000000000                                          CS00C00015              N18173200240+00000C
3SMCU1200723182042795752834000000000A00012B0082100000505500000751510200713200731AA Branding (BAR)                  030000000000  0305E6648    AED/AAAA118/030                                                                   000000000                                          CS00C00015              N18173200240+00000C
3SMCU1200723182112793758781000000000A00198B0013100000171390000750881200713200731Buscopan                           020000000000  0205E1405    YRL/BUSC001/020                                                                   000000000                                          CS00C00015              N18173200240+00000C
3SMCU1200723184025793682319000000000A01091B0021100000032300000753086200704200724Natwest Brand                      030000000000  0305E5452    CHI/RBNW025/030                                                                   000000000                                          CS00E00049              N18402500240+00000E
3SMCU1200723184055799102918000000000A07396B0008500000634710000751905200713200726Sudocrem Brand                     010000000000  0105D6572    MCE/SUDO019/010                                                                   000000000                                          CS00E00049              N18402500240+00000E
3SMCU1200723184105796308999000000000A03338B0011800000167000000757662200711200731Trivago Hotel Comparison Website   015000000000  0155E6700    YIG/TRIV139/015                                                                   000000000                                          CS00E00049              N18402500240+00000E
3SMCU1200723184120798089402000000000A00572B0017800000043180000754965200720200731Fiat 500                           030000000000  0305E6767    SSC/FIAT227/030                                                                   000000000                                          CS00E00049              N18402500240+00000E
3SMCU1200723184150794806913000000000A08240B0014500000647780000753561200704200726TikTok                             030000000000  0305E5784    HOG/TIKT011/030                                                                   000000000                                          CS00E00049              N18402500240+00000E
3SMCU1200723184220794585358000000000A00910B0102200000640840000754429200720200731L'Oreal Kerastase Blond Absolu     020000000000  0205E6790    TAG/KTGB008/020                                                                   000000000                                          CS00E00049              N18402500240+00000E
3SMCU1200723184240796309000000000000A03338B0011800000167000000757662200711200731Trivago Hotel Comparison Website   015000000000  0155E6700    YIG/TRIV139/015                                                                   000000000                                          CS00E00049              N18402500240+00000E
3SMCU1200723184255798429973000000000A03098B0005000000653030000752748200723200731Pandora Jewellery 3 For 2 (NBA)    030000000000  0305E5920    TTB/PAND088/030                                                                   000000000                                          CS00E00049              N18402500240+00000E
3SMCU1200723184325798278363000000000A00360B0022200000658160000758007200720200731CCS EU Transition                  060000000000  0605E6707    MLL/COAT002/060                                                                   000000000                                          CS00E00049              N18402500240+00000E
3SMCU1200723185947793593242000000000A00481B0123500000647720000750894200720200731Dyson Personal Care GME            030000000000  0305E6054    GNW/DYSN185/030                                                                   000000000                                          CS00C00016              N18594700270+00000C
3SMCU1200723190017792945614000000000A00012B0082100000505500000751510200713200731AA Branding (BAR)                  030000000000  0305E6648    AED/AAAA118/030                                                                   000000000                                          CS00C00016              N18594700270+00000C
3SMCU1200723190047793593244000000000A01161B0011100000602140000751008200701200731Open University MCH                030000000000  0305D7344    HKX/OUOU019/030                                                                   000000000                                          CS00C00016              N18594700270+00000C
3SMCU1200723190117798086082000000000A00891B0011100000607830000754551200720200731Kia Niro (NBA)                     030000000000  0305E5727    INN/KIAM042/030                                                                   000000000                                          CS00C00016              N18594700270+00000C
3SMCU1200723190147793727653000000000A00648B0160500000385010000752598200706200726Sensodyne Brand                    020000000000  0205E5729    HOG/GXSE965/020                                                                   000000000                                          CS00C00016              N18594700270+00000C
3SMCU1200723190207798770294000000000A01102B0116100000054940000753253200720200731Buxton Water                       030000000000  0305E6570    MIF/NEBU270/030                                                                   000000000                                          CS00C00016              N18594700270+00000C
3SMCU1200723190237795032045000000000A01770A0177000000648860000754362200703200731Sky Mobile Text 2 Switch           030000000000  0305E3488    WCR/BSKY906/030                                                                   000000000                                          CS00C00016              N18594700270+00000C
3SMCU1200723190307798091770000000000A03222B0008500000574380000755915200720200731Amazon Brand Truths                030000000000  0305E7018    AMZ/MMFA001/030                                                                   000000000                                          CS00C00016              N18594700270+00000C
3SMCU1200723190337794248840000000000A06552B0091200000492630000754031200706200726Xero                               030000000000  0305E6356    XRO/XERO004/030                                                                   000000000                                          CS00C00016              N18594700270+00000C
3SMCU1200723190407794951870000000000A03016B0012400000608180000754760200701200731Music Magpie Store Tech            010000000000  0105E3690    BJL/MMST236/010                                                                   000000000                                          CS00C00016              N18594700270+00000C
3SMCU1200723191944794505025000000000A03222B0008500000592940000754297200720200731Amazon Just Ask Alexa              030000000000  0305E6960    DRG/AMAL015/030                                                                   000000000                                          CS00C00017              N19194400270+00000C
3SMCU1200723192014798935218000000000A00360B0022200000584970000751142200720200731CCS RAF Broad Appeal               010000000000  0105C2925    WCR/RAFR032/010                                                                   000000000                                          CS00C00017              N19194400270+00000C
3SMCU1200723192024796309035000000000A03338B0011800000167000000757662200711200731Trivago Hotel Comparison Website   015000000000  0155E6700    YIG/TRIV139/015                                                                   000000000                                          CS00C00017              N19194400270+00000C
3SMCU1200723192039794806782000000000A08240B0014500000647780000753561200704200726TikTok                             030000000000  0305E5784    HOG/TIKT011/030                                                                   000000000                                          CS00C00017              N19194400270+00000C
3SMCU1200723192109798077942000000000A02556B0082100000569730000752028200713200731Taylors Coffee (BAR)               030000000000  0305C4071    LYG/TAYL006/030                                                                   000000000                                          CS00C00017              N19194400270+00000C
3SMCU1200723192139798739704000000000A00264B0011400000655110000755107200720200731Cancer Research Appeal             030000000000  0305E6851    ANO/CARE258/030                                                                   000000000                                          CS00C00017              N19194400270+00000C
3SMCU1200723192209798077242000000000A00012B0082100000505500000751510200713200731AA Branding (BAR)                  030000000000  0305E6648    AED/AAAA118/030                                                                   000000000                                          CS00C00017              N19194400270+00000C
3SMCU1200723192239794842431000000000A08066B0022000000424270000754607200711200731Amazon Audible                     030000000000  0305E6446    FOL/AUDI101/030                                                                   000000000                                          CS00C00017              N19194400270+00000C
3SMCU1200723192309794585144000000000A00910B0102200000640840000754429200720200731L'Oreal Kerastase Blond Absolu     020000000000  0205E6790    TAG/KTGB008/020                                                                   000000000                                          CS00C00017              N19194400270+00000C
3SMCU1200723192329796309036000000000A03338B0011800000167000000757662200711200731Trivago Hotel Comparison Website   015000000000  0155E6700    YIG/TRIV139/015                                                                   000000000                                          CS00C00017              N19194400270+00000C
3SMCU1200723192344795750969000000000A01734B0170700000643150000751298200701200731Money Supermarket GME              030000000000  0305E4608    WCR/MSMS066/030                                                                   000000000                                          CS00C00017              N19194400270+00000C
3SMCU1200723194011794504933000000000A03222B0008500000592940000754297200720200731Amazon Just Ask Alexa              030000000000  0305E6960    DRG/AMAL015/030                                                                   000000000                                          CS00E00050              N19401100180+00000E
3SMCU1200723194041795008997000000000A00239B0012200000656320000756143200701200731Compare the Market Service Energy  010000000000  0105E6803    VCC/COMP489/010                                                                   000000000                                          CS00E00050              N19401100180+00000E
3SMCU1200723194051796309042000000000A03338B0011800000167000000757662200711200731Trivago Hotel Comparison Website   015000000000  0155E6700    YIG/TRIV139/015                                                                   000000000                                          CS00E00050              N19401100180+00000E
3SMCU1200723194106794842407000000000A08066B0022000000424270000754607200711200731Amazon Audible                     030000000000  0305E6446    FOL/AUDI101/030                                                                   000000000                                          CS00E00050              N19401100180+00000E
3SMCU1200723194136798861619000000000A01115B0074200000433100000760033200723200725The Sun Superdays                  020000000000  0205E6997    TTB/SUNT351/020                                                                   000000000                                          CS00E00050              N19401100180+00000E
3SMCU1200723194156795752501000000000A00012B0082100000505500000751510200713200731AA Branding (BAR)                  030000000000  0305E6648    AED/AAAA118/030                                                                   000000000                                          CS00E00050              N19401100180+00000E
3SMCU1200723194226794585118000000000A00910B0102200000640840000754429200720200731L'Oreal Kerastase Blond Absolu     020000000000  0205E6790    TAG/KTGB008/020                                                                   000000000                                          CS00E00050              N19401100180+00000E
3SMCU1200723194246796309043000000000A03338B0011800000167000000757662200711200731Trivago Hotel Comparison Website   015000000000  0155E6700    YIG/TRIV139/015                                                                   000000000                                          CS00E00050              N19401100180+00000E
3SMCU1200723194301794949998000000000A03016B0012400000608180000754760200701200731Music Magpie Store Tech            010000000000  0105E3690    BJL/MMST236/010                                                                   000000000                                          CS00E00050              N19401100180+00000E
3SMCU1200723200518793366476000000000A01161B0011100000602140000751008200701200731Open University MCH                030000000000  0305D7344    HKX/OUOU019/030                                                                   000000000                                          CS00C00018              N20051800240+00000C
3SMCU1200723200548794951896000000000A03016B0012400000608180000754760200701200731Music Magpie Store Tech            010000000000  0105E3690    BJL/MMST236/010                                                                   000000000                                          CS00C00018              N20051800240+00000C
3SMCU1200723200558796770434000000000A00891B0011100000607830000754551200720200731Kia Niro (NBA)                     030000000000  0305E5727    INN/KIAM042/030                                                                   000000000                                          CS00C00018              N20051800240+00000C
3SMCU1200723200628798077939000000000A02556B0082100000569730000752028200713200731Taylors Coffee (BAR)               030000000000  0305C4071    LYG/TAYL006/030                                                                   000000000                                          CS00C00018              N20051800240+00000C
3SMCU1200723200658795265330000000000A06576B0008500000651340000755164200701200731Deliveroo Restaurants Are Back     010000000000  0105E4574    CME/DLRX015/010                                                                   000000000                                          CS00C00018              N20051800240+00000C
3SMCU1200723200708798430311000000000A00239B0012200000656320000756143200701200731Compare the Market Service Energy  010000000000  0105E6803    VCC/COMP489/010                                                                   000000000                                          CS00C00018              N20051800240+00000C
3SMCU1200723200718795033433000000000A01770A0177000000648870000754366200703200731Sky Mobile Network of Year         010000000000  0105E4245    CKC/SKHD157/010                                                                   000000000                                          CS00C00018              N20051800240+00000C
3SMCU1200723200728793603095000000000A06272B0012100000545040000751364200713200726Harringtons Pet Food (BAR)         020000000000  0205E6621    HOM/HARI373/020                                                                   000000000                                          CS00C00018              N20051800240+00000C
3SMCU1200723200748798739703000000000A00264B0011400000655110000755107200720200731Cancer Research Appeal             030000000000  0305E6851    ANO/CARE258/030                                                                   000000000                                          CS00C00018              N20051800240+00000C
3SMCU1200723200818798429962000000000A03098B0005000000653030000752748200723200731Pandora Jewellery 3 For 2 (NBA)    030000000000  0305E5920    TTB/PAND088/030                                                                   000000000                                          CS00C00018              N20051800240+00000C
3SMCU1200723200848792946604000000000A00012B0082100000505500000751510200713200731AA Branding (BAR)                  030000000000  0305E6648    AED/AAAA118/030                                                                   000000000                                          CS00C00018              N20051800240+00000C
3SMCU1200723203211793616768000000000A00701B0123600000645930000750940200706200731Halifax Brand GME                  030000000000  0305E6279    NCA/HALF001/030                                                                   000000000                                          CS00C00019              N20321100240+00000C
3SMCU1200723203241793616766000000000A00481B0123500000647720000750894200720200731Dyson Personal Care GME            030000000000  0305E6054    GNW/DYSN185/030                                                                   000000000                                          CS00C00019              N20321100240+00000C
3SMCU1200723203311798542986000000000A00453B0011400000524470000757272200720200726Direct Line DL4B Performance       030000000000  0305E3450    SSC/DLBU041/030                                                                   000000000                                          CS00C00019              N20321100240+00000C
3SMCU1200723203341795752453000000000A00012B0082100000505500000751510200713200731AA Branding (BAR)                  030000000000  0305E6648    AED/AAAA118/030                                                                   000000000                                          CS00C00019              N20321100240+00000C
3SMCU1200723203411794950011000000000A03016B0012400000608180000754760200701200731Music Magpie Store Tech            010000000000  0105E3690    BJL/MMST236/010                                                                   000000000                                          CS00C00019              N20321100240+00000C
3SMCU1200723203421793616769000000000A00524B0012200000651850000751088200720200731Energizer Max                      020000000000  0205E6756    TTB/ENGI003/020                                                                   000000000                                          CS00C00019              N20321100240+00000C
3SMCU1200723203441794465550000000000A00572B0017800000043180000755085200720200731Fiat 500                           030000000000  0305E6767    SSC/FIAT227/030                                                                   000000000                                          CS00C00019              N20321100240+00000C
3SMCU1200723203511794504868000000000A03222B0008500000592940000754297200720200731Amazon Just Ask Alexa              030000000000  0305E6960    DRG/AMAL015/030                                                                   000000000                                          CS00C00019              N20321100240+00000C
3SMCU1200723203541793616767000000000A00239B0012200000653330000756146200706200731Compare the Market Distinctiven    030000000000  0305E2888    VCC/COMP465/030                                                                   000000000                                          CS00C00019              N20321100240+00000C
3SMCU1200723205506793767032000000000A01103B0116100000365210000753123200720200731Nestle Purina Gourmet              020000000000  0205E6917    MCE/PRGO010/020                                                                   000000000                                          CS00E00051              N20550600240+00000E
3SMCU1200723205526793767034000000000A00910B0102200000277270000751098200706200731L'Oreal Elvive Colour Protect      020000000000  0205E6312    CWW/LORE080/020                                                                   000000000                                          CS00E00051              N20550600240+00000E
3SMCU1200723205546796015163000000000A01865B0014500000041610000754282200713200731Enterprise Rent-A-Car Brand        030000000000  0305E6561    CNO/TENT010/030                                                                   000000000                                          CS00E00051              N20550600240+00000E
3SMCU1200723205616795043907000000000A01770A0177000000648860000754362200703200731Sky Mobile Text 2 Switch           030000000000  0305E3488    WCR/BSKY906/030                                                                   000000000                                          CS00E00051              N20550600240+00000E
3SMCU1200723205646798861624000000000A01115B0074200000433100000760033200723200725The Sun Superdays                  020000000000  0205E6997    TTB/SUNT351/020                                                                   000000000                                          CS00E00051              N20550600240+00000E
3SMCU1200723205706799102480000000000A00360B0022200000584970000751142200720200731CCS RAF Broad Appeal               010000000000  0105C2926    WCR/RAFR031/010                                                                   000000000                                          CS00E00051              N20550600240+00000E
3SMCU1200723205716798753280000000000A00109B0014500000535110000751092200709200731Argos Brand 2                      030000000000  0305E6272    CHI/ARGO014/030                                                                   000000000                                          CS00E00051              N20550600240+00000E
3SMCU1200723205746795084164000000000A01709B0022000000004550000754596200701200731Go Compare Branding                020000000000  0205E6216    GOC/BRND068/020                                                                   000000000                                          CS00E00051              N20550600240+00000E
3SMCU1200723205806796960310000000000A02556B0082100000569730000751436200713200731Taylors Coffee (BAR)               030000000000  0305C4071    LYG/TAYL006/030                                                                   000000000                                          CS00E00051              N20550600240+00000E
3SMCU1200723205836795084165000000000A00891B0011100000607830000754551200720200731Kia Niro (NBA)                     030000000000  0305E5727    INN/KIAM042/030                                                                   000000000                                          CS00E00051              N20550600240+00000E
3SMCU1200723211555793489478000000000A00285B0019100000037970000752962200701200731Cashcade Foxy Bingo                020000000000  0205E3680    BJL/FOXY060/020                                                                   000000000                                          CS00C00020              N21155500210+00000C
3SMCU1200723211615792902853000000000A04192B003500000059703000075128520070120073121.co.uk Casino (MNE)              030000000000  0305E2580    REP/TTYN223/030                                                                   000000000                                          CS00C00020              N21155500210+00000C
3SMCU1200723211645798077927000000000A02556B0082100000569730000752028200713200731Taylors Coffee (BAR)               030000000000  0305C4071    LYG/TAYL006/030                                                                   000000000                                          CS00C00020              N21155500210+00000C
3SMCU1200723211715798076691000000000A00012B0082100000505500000751510200713200731AA Branding (BAR)                  030000000000  0305E6648    AED/AAAA118/030                                                                   000000000                                          CS00C00020              N21155500210+00000C
3SMCU1200723211745794072565000000000A00299B0116100000561600000753135200706200726Nestle Cereal Partners Reputation  020000000000  0205D4234    MCE/CPGT001/020                                                                   000000000                                          CS00C00020              N21155500210+00000C
3SMCU1200723211805793642087000000000A00463B0003700000188440000751995200720200731Dominos Branding                   020000000000  0205E6632    VCC/DOMN203/020                                                                   000000000                                          CS00C00020              N21155500210+00000C
3SMCU1200723211825794504829000000000A03222B0008500000592940000754297200720200731Amazon Just Ask Alexa              030000000000  0305E6960    DRG/AMAL015/030                                                                   000000000                                          CS00C00020              N21155500210+00000C
3SMCU1200723211855794585096000000000A00910B0102200000640840000754429200720200731L'Oreal Kerastase Blond Absolu     020000000000  0205E6790    TAG/KTGB008/020                                                                   000000000                                          CS00C00020              N21155500210+00000C
3SMCU1200723211915793378990000000000A01650B0122200000381360000751028200720200725Morrisons Offer 3 HFSS GME         010000000000  0105E6663    MIF/MORR821/010                                                                   000000000                                          CS00C00020              N21155500210+00000C
3SMCU1200723213546793633401000000000A01616B0123500000652050000751418200713200726Volvo Hybrid Range GME             020000000000  0205E6303    TAG/VOGB022/020                                                                   000000000                                          CS00C00021              N21354600210+00000C
3SMCU1200723213606798421797000000000A00239B0012200000656320000756143200701200731Compare the Market Service Energy  010000000000  0105E6803    VCC/COMP489/010                                                                   000000000                                          CS00C00021              N21354600210+00000C
3SMCU1200723213616793633400000000000A00481B0123500000647720000750894200720200731Dyson Personal Care GME            030000000000  0305E6054    GNW/DYSN185/030                                                                   000000000                                          CS00C00021              N21354600210+00000C
3SMCU1200723213646798076289000000000A01649B0012200000646610000751102200701200731William Hill Gaming (MNE)          030000000000  0305E3697    PCH/WLLH026/030                                                                   000000000                                          CS00C00021              N21354600210+00000C
3SMCU1200723213716798077260000000000A01471B0011400000648090000750994200723200731Tesco APM (BAR)                    020000000000  0205E7145    BBH/TCPD226/020                                                                   000000000                                          CS00C00021              N21354600210+00000C
3SMCU1200723213736798076687000000000A00012B0082100000505500000751510200713200731AA Branding (BAR)                  030000000000  0305E6648    AED/AAAA118/030                                                                   000000000                                          CS00C00021              N21354600210+00000C
3SMCU1200723213806794504788000000000A03222B0008500000592940000754297200720200731Amazon Just Ask Alexa              030000000000  0305E6960    DRG/AMAL015/030                                                                   000000000                                          CS00C00021              N21354600210+00000C
3SMCU1200723213836793757839000000000A00648B0160500000385010000752598200706200726Sensodyne Brand                    020000000000  0205E5729    HOG/GXSE965/020                                                                   000000000                                          CS00C00021              N21354600210+00000C
3SMCU1200723213856793498172000000000A00285B0019100000637490000752313200701200731Cashcade Foxy Games                020000000000  0205E7127    BJL/FOXY063/020                                                                   000000000                                          CS00C00021              N21354600210+00000C
3SMCU1200723215230798936962000000000A00360B0022200000584970000751142200720200731CCS RAF Broad Appeal               010000000000  0105C2925    WCR/RAFR032/010                                                                   000000000                                          CS00E00052              N21523000180+00000E
3SMCU1200723215240792901455000000000A03790B0019100000057160000752400200701200731Ladbrokes Casino                   030000000000  0305E0611    BBH/LAPR005/030                                                                   000000000                                          CS00E00052              N21523000180+00000E
3SMCU1200723215310793753973000000000A00648B0160500000182050000752625200706200726Pirinase Hayfever Relief           010000000000  0105E5842    HOG/GXPI951/010                                                                   000000000                                          CS00E00052              N21523000180+00000E
3SMCU1200723215320792296604000000000A01523B0142000000644480000750928200720200726Toyota Hybrid GME                  030000000000  0305E7082    TAG/TOGB307/030                                                                   000000000                                          CS00E00052              N21523000180+00000E
3SMCU1200723215350798774281000000000A02578A0257800000657480000759416200720200731ZSL London Zoo (PRO)               060000000000  0605E6975    JWT/ZSLA009/060                                                                   000000000                                          CS00E00052              N21523000180+00000E
3SMCU1200723215450793753972000000000A00648B0160500000039970000752639200706200726Corsodyl                           020000000000  0205E5864    HOG/GXCO978/020                                                                   000000000                                          CS00E00052              N21523000180+00000E
3SMCU1200723215510793489624000000000A00285B0019100000037970000752962200701200731Cashcade Foxy Bingo                020000000000  0205E5150    BJL/FOXY062/020                                                                   000000000                                          CS00E00052              N21523000180+00000E
3SMCU1200723221243793637129000000000A00239B0012200000656320000756143200701200731Compare the Market Service Energy  010000000000  0105E6803    VCC/COMP489/010                                                                   000000000                                          CS00C00022              N22124300240+00000C
3SMCU1200723221253792296109000000000A01616B0123500000652050000751418200713200726Volvo Hybrid Range GME             020000000000  0205E6303    TAG/VOGB022/020                                                                   000000000                                          CS00C00022              N22124300240+00000C
3SMCU1200723221313794259166000000000A00285B0019100000637490000752313200701200731Cashcade Foxy Games                020000000000  0205E7127    BJL/FOXY063/020                                                                   000000000                                          CS00C00022              N22124300240+00000C
3SMCU1200723221333794290529000000000A00648B0160500000594780000752587200706200726Novartis Voltarol Medifacts        020000000000  0205E6513    HOG/GXVO994/020                                                                   000000000                                          CS00C00022              N22124300240+00000C
3SMCU1200723221353797841299000000000A04068B0011400000637540000753964200709200729Sofology (BAR)                     030000000000  0305C8338    ALP/SOOW013/030                                                                   000000000                                          CS00C00022              N22124300240+00000C
3SMCU1200723221423799060292000000000A04717B0013100000640390000751651200706200731KFC Disruptive Value               010000000000  0105E5820    MUM/KFVA269/010                                                                   000000000                                          CS00C00022              N22124300240+00000C
