0ADAGDSCHED210504095735                                                                                                                                                                                                                                                    
3MOR+1210505081500840894078000000000A03675B0010900000557450000817427210502210531WOWCHER All Times                  030000000000  0305C9229    SCC/WOEG004/030                                                                   000000000                                          CS00C0000000017         N08150000240+00000C
3MOR+1210505081530836675685000000000A08991B0130800000684490000815919210501210531Echo Pharmacy SR (NBA)             030000000000  0305W2170    EKS/ECHO001/030                                                                   000000000                                          CS00C0000000017         N08150000240+00000C
3MOR+1210505081600838323458000000000A02010B0085000000049290000816527210501210531Warner Leisure Hotels DRTV         030000000000  0305W2321    CTV/WLHH006/030                                                                   000000000                                          CS00C0000000017         N08150000240+00000C
3MOR+1210505081630837559319000000000A02479B0020300000574310000817550210504210528Legal & General Term Insurance     030000000000  0305E4088    OLI/LGFN740/030                                                                   000000000                                          CS00C0000000017         N08150000240+00000C
3MOR+1210505081700840890268000000000A08184A0818400000670440000815955210501210531Urban Jungle SR (BAR)              030000000000  0305E6643    PCH/URJU004/030                                                                   000000000                                          CS00C0000000017         N08150000240+00000C
3MOR+1210505081730836914970000000000A02181B0020300000602580000817514210501210531WWF Adoptions                      030000000000  0305E7681    DTV/WFGO002/030                                                                   000000000                                          CS00C0000000017         N08150000240+00000C
3MOR+1210505081800837464982000000000A07911B0001200000618410000816365210501210531Symantec Norton 360                020000000000  0205E9948    HHP/NOFA002/020                                                                   000000000                                          CS00C0000000017         N08150000240+00000C
3MOR+1210505081820836526238000000000A08221B0081100000646470000817745210501210531FindMyPast SR                      030000000000  0305W3957    FTB/FMPM003/030                                                                   000000000                                          CS00C0000000017         N08150000240+00000C
3MOR+1210505081850840994933000000000A07045B0017800000681050000819760210501210531Vinted (BAR)                       010000000000  0105W1839    VCM/VINT036/010                                                                   000000000                                          CS00C0000000017         N08150000240+00000C
3MOR+1210505082500837055913000000000A07827B0031800000676260000816535210501210531Go Henry (MNE)                     030000000000  0305V9651    ABF/GHEN019/030                                                                   000000000                                          CS00C0000000018         N08250000240+00000C
3MOR+1210505082530840649047000000000A05659B0019100000681370000814486210501210531Gousto Acquisition Brand           010000000000  0105V7934    MUM/GOGS038/010                                                                   000000000                                          CS00C0000000018         N08250000240+00000C
3MOR+1210505082540836984496000000000A09087A0908700000688750000815904210501210531Verisure International             020000000000  0205W5751    TCS/VERI006/020                                                                   000000000                                          CS00C0000000018         N08250000240+00000C
3MOR+1210505082600840894406000000000A03675B0010900000557450000817429210502210531WOWCHER All Times                  010000000000  0105C9220    SCC/WOEG003/010                                                                   000000000                                          CS00C0000000018         N08250000240+00000C
3MOR+1210505082610837559430000000000A06415B0011100000480240000817790210504210528Pure Cremation                     030000000000  0305W3845    ABF/PCFC001/030                                                                   000000000                                          CS00C0000000018         N08250000240+00000C
3MOR+1210505082640840889783000000000A08184A0818400000670440000815955210501210531Urban Jungle SR (BAR)              030000000000  0305E6643    PCH/URJU004/030                                                                   000000000                                          CS00C0000000018         N08250000240+00000C
3MOR+1210505082710836915078000000000A01564B0005000000648920000817544210501210531UNICEF Paddington Postcards        030000000000  0305V5132    UNE/PPWO214/030                                                                   000000000                                          CS00C0000000018         N08250000240+00000C
3MOR+1210505082740840377003000000000A00481B0013100000643190000816814210503210523Dyson Personal Care                020000000000  0205W5093    GNW/DYSN202/020                                                                   000000000                                          CS00C0000000018         N08250000240+00000C
3MOR+1210505082800837465016000000000A05428B0001200000356960000816174210503210514Totally Money                      030000000000  0305W4865    DVN/TMBR302/030                                                                   000000000                                          CS00C0000000018         N08250000240+00000C
3MOR+1210505082830837559429000000000A05971B0084900000434620000813722210501210509Blinds2Go                          010000000000  0105D9413    EQU/BTGA006/010                                                                   000000000                                          CS00C0000000018         N08250000240+00000C
3MOR+1210505082840840519409000000000A01865B0014500000041610000818082210501210531Enterprise Rent-A-Car Brand        020000000000  0205W5660    PCH/ENTP020/020                                                                   000000000                                          CS00C0000000018         N08250000240+00000C
3MOR+1210505084500840584765000000000A01835B0077800000568490000821898210501210531Bodygym With Marie Osmond (TEB)    180000000000  1805T6325    ZYM/DABG001/180                                                                   000000000                                          TS00C0000000009         N08450000180+00000C
3MOR+1210505090500840200350000000000A00134B0144800000555520000818274210501210530Sunlife Funeral Plan               030000000000  0305V8302    HHP/SLLA505/030                                                                   000000000                                          CS00C0000000019         N09050000300+00000C
3MOR+1210505090530836871428000000000A00891B0011100000643310000817741210503210526Kia Electric (NBA)                 030000000000  0305W4438    INN/KIAM051/030                                                                   000000000                                          CS00C0000000019         N09050000300+00000C
3MOR+1210505090600836914978000000000A01726B0001200000569400000816478210501210531Great Ormond Hospital Research     040000000000  0405W3868    DAA/GOSH024/040                                                                   000000000                                          CS00C0000000019         N09050000300+00000C
3MOR+1210505090640836522219000000000A08221B0081100000646470000817745210501210531FindMyPast SR                      030000000000  0305W3959    FTB/FMPM004/030                                                                   000000000                                          CS00C0000000019         N09050000300+00000C
3MOR+1210505090710840891791000000000A07911B0001200000618410000816365210501210531Symantec Norton 360                030000000000  0305E9949    HHP/NOFA002/030                                                                   000000000                                          CS00C0000000019         N09050000300+00000C
3MOR+1210505090740836647408000000000A08991B0130800000684490000815919210501210531Echo Pharmacy SR (NBA)             010000000000  0105W2172    EKS/ECHO003/010                                                                   000000000                                          CS00C0000000019         N09050000300+00000C
3MOR+1210505090750838323450000000000A00230B0102200000528230000816017210501210512BT Plusnet Broadband DRTV          030000000000  0305W5336    KAR/PLUS545/030                                                                   000000000                                          CS00C0000000019         N09050000300+00000C
3MOR+1210505090820840186942000000000A05665B0031800000397830000815294210501210531Mister Spex                        020000000000  0205E1310    MSX/GLAS002/020                                                                   000000000                                          CS00C0000000019         N09050000300+00000C
3MOR+1210505090840840894081000000000A03675B0010900000557450000817427210502210531WOWCHER All Times                  030000000000  0305C9226    SCC/WOEG005/030                                                                   000000000                                          CS00C0000000019         N09050000300+00000C
3MOR+1210505090910837055911000000000A04141B0031800000537200000816491210501210531Nordic Track                       030000000000  0305V9568    DAA/NRTR003/030                                                                   000000000                                          CS00C0000000019         N09050000300+00000C
3MOR+1210505090940840195905000000000A01583B0021100000006190000818990210501210531Uswitch Insurance DRTV             010000000000  0105W5803    JLN/USWT065/010                                                                   000000000                                          CS00C0000000019         N09050000300+00000C
3MOR+1210505090950836914979000000000A01726B0001200000569400000816478210501210531Great Ormond Hospital Research     010000000000  0105W3869    DAA/GOSH025/010                                                                   000000000                                          CS00C0000000019         N09050000300+00000C
3MOR+1210505095000840584766000000000A01835B0077800000610730000821541210501210531Select Specs 2 (TEB)               030000000000  0305E1517    WAG/SSTE502/030                                                                   000000000                                          TS00E0000000014         N09500000180+00000E
3MOR+1210505095030840584767000000000A01835B0077800000597910000821896210501210531Bioposture Belt (TEB)              120000000000  1205B7916    RVT/BIOP011/120                                                                   000000000                                          TS00E0000000014         N09500000180+00000E
3MOR+1210505095230840586762000000000A01835B0077800000660850000821177210501210531Select Specs Generic (TEB)         030000000000  0305W0257    WAG/SSDA002/030                                                                   000000000                                          TS00E0000000014         N09500000180+00000E
3MOR+1210505102000840639681000000000A04113B0021100000691700000818784210501210518Rimmel Lasting Finish              020000000000  0205W3859    SAA/RIMM892/020                                                                   000000000                                          CS00C0000000020         N10200000360+00000C
3MOR+1210505102020840639682000000000A00870B0019800000119720000817255210503210523J&J Aveeno                         020000000000  0205W5344    HOG/JHAV323/020                                                                   000000000                                          CS00C0000000020         N10200000360+00000C
3MOR+1210505102040837121125000000000A05665B0031800000397830000815294210501210531Mister Spex                        020000000000  0205E1310    MSX/GLAS002/020                                                                   000000000                                          CS00C0000000020         N10200000360+00000C
3MOR+1210505102100840377946000000000A01061B0137500000659990000816336210501210518Morphy Richards DRTV               030000000000  0305W4858    SHZ/MREC005/030                                                                   000000000                                          CS00C0000000020         N10200000360+00000C
3MOR+1210505102130838300639000000000A03356B0001200000228080000818893210503210531Viking River Cruises DRTV          030000000000  0305W4607    ATF/VKRC003/030                                                                   000000000                                          CS00C0000000020         N10200000360+00000C
3MOR+1210505102200837121126000000000A04765B0031800000697790000815316210504210528Everyday Loans DRTV                010000000000  0105E9612    SCC/ELRP001/010                                                                   000000000                                          CS00C0000000020         N10200000360+00000C
3MOR+1210505102210837121122000000000A03675B0010900000203250000817424210502210531WOWCHER                            010000000000  0105C9225    SCC/WOEB013/010                                                                   000000000                                          CS00C0000000020         N10200000360+00000C
3MOR+1210505102220840643290000000000A07556B0017600000588430000818232210501210531Simply Cook                        010000000000  0105V7834    VCC/SICO002/010                                                                   000000000                                          CS00C0000000020         N10200000360+00000C
3MOR+1210505102230838946682000000000A01583B0021100000006190000818990210501210531Uswitch Insurance DRTV             010000000000  0105W5804    JLN/USWT064/010                                                                   000000000                                          CS00C0000000020         N10200000360+00000C
3MOR+1210505102240837121127000000000A08261B0022500000649080000818280210501210531Serenata Flowers (MNE)             030000000000  0305V5437    SCC/SFTS201/030                                                                   000000000                                          CS00C0000000020         N10200000360+00000C
3MOR+1210505102310837121123000000000A07770B0082100000644780000817892210504210527Credit Karma DRTV                  030000000000  030                                                                                            000000000                                          CS00C0000000020         N10200000360+00000C
3MOR+1210505102340836907219000000000A01909B0009000000524630000816058210501210531RSPCA Single Stage                 090000000000  0905D8045    MCP/RSTD402/090                                                                   000000000                                          CS00C0000000020         N10200000360+00000C
3MOR+1210505102510840747920000000000A02010B0085000000049290000816527210501210531Warner Leisure Hotels DRTV         030000000000  0305W2321    CTV/WLHH006/030                                                                   000000000                                          CS00C0000000020         N10200000360+00000C
3MOR+1210505102540840639683000000000A01276B0057000000490090000818776210503210531Dettol Wipes                       020000000000  0205W4763    HOG/RKDT472/020                                                                   000000000                                          CS00C0000000020         N10200000360+00000C
3MOR+1210505104000840890264000000000A08184A0818400000670440000815955210501210531Urban Jungle SR (BAR)              030000000000  0305E6643    PCH/URJU004/030                                                                   000000000                                          CS00C0000000021         N10400000360+00000C
3MOR+1210505104030836914971000000000A06829B0012700000520290000817824210501210531Wood Green                         090000000000  0905D6462    DTV/WGCT002/090                                                                   000000000                                          CS00C0000000021         N10400000360+00000C
3MOR+1210505104200840911101000000000A05570B0144800000648160000815992210503210531Clearscore Protect SR              010000000000  0105W5836    BKB/CLEA783/010                                                                   000000000                                          CS00C0000000021         N10400000360+00000C
3MOR+1210505104210837130912000000000A04381B0022500000286720000817863210501210531Wayfair Furniture                  020000000000  0205V8852    SCC/WSSA001/020                                                                   000000000                                          CS00C0000000021         N10400000360+00000C
3MOR+1210505104230837130913000000000A06806B0022500000518600000817580210501210531Drafty.co.uk                       030000000000  0305V9113    BEM/GACR001/030                                                                   000000000                                          CS00C0000000021         N10400000360+00000C
3MOR+1210505104300837464941000000000A07911B0001200000618410000816365210501210531Symantec Norton 360                020000000000  0205E9948    HHP/NOFA002/020                                                                   000000000                                          CS00C0000000021         N10400000360+00000C
3MOR+1210505104320837285824000000000A02939B0012400000633870000815965210501210512Peoples Postcode Lottery DRTV      030000000000  0305W5694    PPL/PPLC035/030                                                                   000000000                                          CS00C0000000021         N10400000360+00000C
3MOR+1210505104350837505057000000000A06635B0016700000617260000816984210501210531Bought By Many                     040000000000  0405V8458    LSK/MANY009/040                                                                   000000000                                          CS00C0000000021         N10400000360+00000C
3MOR+1210505104430836952923000000000A00134B0144800000557830000817834210504210528Sunlife GOF                        030000000000  0305V8301    HHP/SLWP022/030                                                                   000000000                                          CS00C0000000021         N10400000360+00000C
3MOR+1210505104500836563362000000000A08831B0130800000671800000815951210501210531Trinny London SR                   030000000000  0305V4623    EFR/TRLD003/030                                                                   000000000                                          CS00C0000000021         N10400000360+00000C
3MOR+1210505104530837464942000000000A07985B0001200000626200000818610210503210531Freddies Flowers                   030000000000  0305E4437    ABF/FFIF004/030                                                                   000000000                                          CS00C0000000021         N10400000360+00000C
3MOR+1210505110500836973986000000000A09087A0908700000688750000815904210501210531Verisure International             020000000000  0205W5751    TCS/VERI006/020                                                                   000000000                                          CS00C0000000022         N11050000240+00000C
3MOR+1210505110520840890490000000000A05620B0009000000688600000821895210504210530Breast Cancer Now Lottery          040000000000  0405W2182    HHP/BNPL201/040                                                                   000000000                                          CS00C0000000022         N11050000240+00000C
3MOR+1210505110600836671157000000000A08991B0130800000684490000815919210501210531Echo Pharmacy SR (NBA)             010000000000  0105W2173    SVM/ECHO002/010                                                                   000000000                                          CS00C0000000022         N11050000240+00000C
3MOR+1210505110610838295798000000000A06809B0001200000518830000820967210501210531Fabletics                          030000000000  0305W5064    JUF/FABL051/030                                                                   000000000                                          CS00C0000000022         N11050000240+00000C
3MOR+1210505110640838295795000000000A04201B0082100000549290000816669210501210531HelloFresh DRTV                    010000000000  0105V1231    PCH/HFDM034/010                                                                   000000000                                          CS00C0000000022         N11050000240+00000C
3MOR+1210505110650837110589000000000A03675B0010900000203250000817424210502210531WOWCHER                            010000000000  0105E2111    SCC/WOEB015/010                                                                   000000000                                          CS00C0000000022         N11050000240+00000C
3MOR+1210505110700840199138000000000A01956B0074500000020520000820881210501210531Aquability                         030000000000  0305C2718    BRT/AQUA004/030                                                                   000000000                                          CS00C0000000022         N11050000240+00000C
3MOR+1210505110730840192270000000000A07629B0001200000650820000818876210503210531Parsley Box                        020000000000  0205W5894    GRF/PBCH001/020                                                                   000000000                                          CS00C0000000022         N11050000240+00000C
3MOR+1210505110750838295796000000000A01583B0021100000006190000818990210501210531Uswitch Insurance DRTV             010000000000  0105W5803    JLN/USWT065/010                                                                   000000000                                          CS00C0000000022         N11050000240+00000C
3MOR+1210505110800837110590000000000A05665B0031800000397830000815294210501210531Mister Spex                        020000000000  0205E1310    MSX/GLAS002/020                                                                   000000000                                          CS00C0000000022         N11050000240+00000C
3MOR+1210505110820840377947000000000A01061B0137500000659990000816336210501210518Morphy Richards DRTV               030000000000  0305W4858    SHZ/MREC005/030                                                                   000000000                                          CS00C0000000022         N11050000240+00000C
3MOR+1210505110850839669561000000000A00164B0005000000666810000815624210503210509Beiersdorf Cleanse (MNS)           010000000000  0105V4872    TTB/NIVE046/010                                                                   000000000                                          CS00C0000000022         N11050000240+00000C
3MOR+1210505112500836597987000000000A08268B0012400000651210000821043210503210531SimpliSafe (BAR)                   030000000000  0305W6135    KOA/SIMP110/030                                                                   000000000                                          CS00C0000000023         N11250000240+00000C
3MOR+1210505112530836896253000000000A00134B0144800000557830000817834210504210528Sunlife GOF                        060000000000  0605W3733    HHP/SLGC403/060                                                                   000000000                                          CS00C0000000023         N11250000240+00000C
3MOR+1210505112630836597990000000000A07556B0017600000642860000815938210501210531Simply Cook Shared Reward          010000000000  0105V7834    VCC/SICO002/010                                                                   000000000                                          CS00C0000000023         N11250000240+00000C
3MOR+1210505112640840890259000000000A08184A0818400000670440000815955210501210531Urban Jungle SR (BAR)              030000000000  0305E6643    PCH/URJU004/030                                                                   000000000                                          CS00C0000000023         N11250000240+00000C
3MOR+1210505112710838945976000000000A04859B0014500000629750000814390210503210531Etsy DRTV                          020000000000  0205W6232    SMQ/SPDR009/020                                                                   000000000                                          CS00C0000000023         N11250000240+00000C
3MOR+1210505112730836597988000000000A07358A0735800000623020000815980210501210531Peloton Direct SR                  030000000000  0305W2161    MKN/PEBI024/030                                                                   000000000                                          CS00C0000000023         N11250000240+00000C
3MOR+1210505112800836896252000000000A00084B0144800000604400000816941210501210523Alzheimers Society Cause Donations 060000000000  0605W5390    SCC/ASTC003/060                                                                   000000000                                          CS00C0000000023         N11250000240+00000C
3MOR+1210505114500836620872000000000A08221B0081100000646470000817745210501210531FindMyPast SR                      030000000000  0305W3954    FTB/FMPP001/030                                                                   000000000                                          CS00E0000000001         N11450000240+00000C
3MOR+1210505114530836896299000000000A03488B0009000000688620000817324210501210516RNIB ECLO                          090000000000  0905W2693    GOO/RNEC003/090                                                                   000000000                                          CS00E0000000001         N11450000240+00000C
3MOR+1210505114700840890256000000000A08184A0818400000670440000815955210501210531Urban Jungle SR (BAR)              030000000000  0305E6643    PCH/URJU004/030                                                                   000000000                                          CS00E0000000001         N11450000240+00000C
3MOR+1210505114730836896300000000000A05319B0001200000541270000816210210504210528Promis Life OFP                    060000000000  0605V7560    WAL/GLDP748/060                                                                   000000000                                          CS00E0000000001         N11450000240+00000C
3MOR+1210505114830840897387000000000A00700B0012400000383520000817001210501210516Halfords Brand (BAR)               030000000000  0305W3891    BJL/HALF003/030                                                                   000000000                                          CS00E0000000001         N11450000240+00000C
3MOR+1210505122000836984479000000000A09087A0908700000688750000815904210501210531Verisure International             020000000000  0205W5751    TCS/VERI006/020                                                                   000000000                                          CS00C0000000024         N12200000360+00000C
3MOR+1210505122020837464940000000000A05428B0001200000356960000816174210503210514Totally Money                      030000000000  0305W4865    DVN/TMBR302/030                                                                   000000000                                          CS00C0000000024         N12200000360+00000C
3MOR+1210505122050836915014000000000A05319B0001200000366710000816218210504210528Promis Life                        060000000000  0605V1223    WAL/GLDP743/060                                                                   000000000                                          CS00C0000000024         N12200000360+00000C
3MOR+1210505122150836915013000000000A01629B0012700000123630000817784210501210531WaterAid                           090000000000  0905V3594    ETE/WAZA039/090                                                                   000000000                                          CS00C0000000024         N12200000360+00000C
3MOR+1210505122320837130930000000000A03675B0010900000203250000817424210502210531WOWCHER                            010000000000  0105C9219    SCC/WOEG011/010                                                                   000000000                                          CS00C0000000024         N12200000360+00000C
3MOR+1210505122330837464939000000000A07911B0001200000618410000816365210501210531Symantec Norton 360                010000000000  0105V3214    HHP/NOFA001/010                                                                   000000000                                          CS00C0000000024         N12200000360+00000C
3MOR+1210505122340837559199000000000A05971B0084900000434620000813722210501210509Blinds2Go                          010000000000  0105D9413    EQU/BTGA006/010                                                                   000000000                                          CS00C0000000024         N12200000360+00000C
3MOR+1210505122350837505056000000000A00625B0019100000253880000814492210501210531Galabingo DRTV                     010000000000  0105E3587    TTB/GALA021/010                                                                   000000000                                          CS00C0000000024         N12200000360+00000C
3MOR+1210505122400837559201000000000A01632B0020300000003370000817710210504210531Weight Watchers DRTV               010000000000  0105W4906    WLI/WWBQ030/010                                                                   000000000                                          CS00C0000000024         N12200000360+00000C
3MOR+1210505122410840130710000000000A04729B0006100000319980000821137210503210531Indeed.co.uk DRTV                  030000000000  0305W5970    PCH/INDE005/030                                                                   000000000                                          CS00C0000000024         N12200000360+00000C
3MOR+1210505122440837559198000000000A04859B0014500000629750000814390210503210531Etsy DRTV                          020000000000  0205W6232    SMQ/SPDR009/020                                                                   000000000                                          CS00C0000000024         N12200000360+00000C
3MOR+1210505122500837559200000000000A01061B0137500000659990000816336210501210518Morphy Richards DRTV               030000000000  0305W4858    SHZ/MREC005/030                                                                   000000000                                          CS00C0000000024         N12200000360+00000C
3MOR+1210505122530836952933000000000A00134B0144800000557830000817834210504210528Sunlife GOF                        030000000000  0305W1131    HHP/SLAP001/030                                                                   000000000                                          CS00C0000000024         N12200000360+00000C
3MOR+1210505124000836871423000000000A00891B0011100000643310000817741210503210526Kia Electric (NBA)                 030000000000  0305W4438    INN/KIAM051/030                                                                   000000000                                          CS00C0000000025         N12400000360+00000C
3MOR+1210505124030837086916000000000A04381B0022500000286720000817860210501210531Wayfair Furniture                  030000000000  0305W5807    WFA/WAYF054/030                                                                   000000000                                          CS00C0000000025         N12400000360+00000C
3MOR+1210505124100837069971000000000A06312B0168000000660020000817288210501210531Simba Sleep TV  (NBA)              010000000000  0105W4035    MRB/SIBR013/010                                                                   000000000                                          CS00C0000000025         N12400000360+00000C
3MOR+1210505124110836647559000000000A08991B0130800000684490000815919210501210531Echo Pharmacy SR (NBA)             010000000000  0105W2172    EKS/ECHO003/010                                                                   000000000                                          CS00C0000000025         N12400000360+00000C
3MOR+1210505124120838951738000000000A01583B0021100000459360000818787210501210531Uswitch Brand (BAR)                020000000000  0205W5798    JLN/USWT060/020                                                                   000000000                                          CS00C0000000025         N12400000360+00000C
3MOR+1210505124140840195336000000000A07770B0082100000644780000817892210504210527Credit Karma DRTV                  030000000000  030                                                                                            000000000                                          CS00C0000000025         N12400000360+00000C
3MOR+1210505124210836531656000000000A07358A0735800000623020000815980210501210531Peloton Direct SR                  030000000000  0305W2162    MKN/PEBI030/030                                                                   000000000                                          CS00C0000000025         N12400000360+00000C
3MOR+1210505124240840615302000000000A08268B0012400000651210000821043210503210531SimpliSafe (BAR)                   030000000000  0305W6135    KOA/SIMP110/030                                                                   000000000                                          CS00C0000000025         N12400000360+00000C
3MOR+1210505124310836531658000000000A07556B0017600000642860000815938210501210531Simply Cook Shared Reward          010000000000  0105V7834    VCC/SICO002/010                                                                   000000000                                          CS00C0000000025         N12400000360+00000C
3MOR+1210505124320840618189000000000A07827B0031800000676260000821897210501210516Go Henry (MNE)                     030000000000  0305W1887    ABF/GHEN023/030                                                                   000000000                                          CS00C0000000025         N12400000360+00000C
3MOR+1210505124350837055946000000000A03675B0010900000557450000817429210502210531WOWCHER All Times                  010000000000  0105C9216    SCC/WOEB002/010                                                                   000000000                                          CS00C0000000025         N12400000360+00000C
3MOR+1210505124400836531659000000000A00249B0082100000694860000817714210504210531Butchers Blink Cat Food Shared Rewa030000000000  0305W6220    KOA/BLNK210/030                                                                   000000000                                          CS00C0000000025         N12400000360+00000C
3MOR+1210505124430840195335000000000A06415B0011100000480240000817790210504210528Pure Cremation                     030000000000  0305W3847    PUC/MOSF017/030                                                                   000000000                                          CS00C0000000025         N12400000360+00000C
3MOR+1210505124500840883871000000000A01061B0137500000659990000816336210501210518Morphy Richards DRTV               030000000000  0305W4858    SHZ/MREC005/030                                                                   000000000                                          CS00C0000000025         N12400000360+00000C
3MOR+1210505124530836892563000000000A02181B0020300000582000000817525210501210523WWF Brand                          030000000000  0305W5979    TTB/WWFC004/030                                                                   000000000                                          CS00C0000000025         N12400000360+00000C
3MOR+1210505130500840637487000000000A07045B0017800000681050000819750210501210531Vinted (BAR)                       030000000000  0305W1842    VCM/VINT034/030                                                                   000000000                                          CS00C0000000026         N13050000240+00000C
3MOR+1210505130530836541715000000000A08831B0130800000671800000815951210501210531Trinny London SR                   030000000000  0305V4604    EFR/TRLD001/030                                                                   000000000                                          CS00C0000000026         N13050000240+00000C
3MOR+1210505130600840911103000000000A05570B0144800000648160000815992210503210531Clearscore Protect SR              010000000000  0105W5836    BKB/CLEA783/010                                                                   000000000                                          CS00C0000000026         N13050000240+00000C
3MOR+1210505130610838292242000000000A07629B0001200000650820000818876210503210531Parsley Box                        020000000000  0205W6208    GRF/PBCH002/020                                                                   000000000                                          CS00C0000000026         N13050000240+00000C
3MOR+1210505130630838292243000000000A03356B0001200000228080000818893210503210531Viking River Cruises DRTV          030000000000  0305W4607    ATF/VKRC003/030                                                                   000000000                                          CS00C0000000026         N13050000240+00000C
3MOR+1210505130700836896247000000000A03488B0009000000688620000817324210501210516RNIB ECLO                          090000000000  0905W2692    GOO/RNEC004/090                                                                   000000000                                          CS00C0000000026         N13050000240+00000C
3MOR+1210505130830836541716000000000A08221B0081100000646470000817745210501210531FindMyPast SR                      030000000000  0305W3955    FTB/FMPP002/030                                                                   000000000                                          CS00C0000000026         N13050000240+00000C
3MOR+1210505132500836900617000000000A00134B0144800000557830000817834210504210528Sunlife GOF                        060000000000  0605W1130    HHP/SLAP001/060                                                                   000000000                                          CS00C0000000027         N13250000240+00000C
3MOR+1210505132600837087029000000000A04141B0031800000537200000816491210501210531Nordic Track                       030000000000  0305V9568    DAA/NRTR003/030                                                                   000000000                                          CS00C0000000027         N13250000240+00000C
3MOR+1210505132630836900616000000000A02181B0020300000602580000817514210501210531WWF Adoptions                      030000000000  0305E4014    DTV/WFRP002/030                                                                   000000000                                          CS00C0000000027         N13250000240+00000C
3MOR+1210505132700836973978000000000A09087A0908700000688750000815904210501210531Verisure International             020000000000  0205W5751    TCS/VERI006/020                                                                   000000000                                          CS00C0000000027         N13250000240+00000C
3MOR+1210505132720837069750000000000A03675B0010900000557450000817429210502210531WOWCHER All Times                  010000000000  0105E2109    SCC/WOEB004/010                                                                   000000000                                          CS00C0000000027         N13250000240+00000C
3MOR+1210505132730836900618000000000A05319B0001200000366710000816220210504210528Promis Life                        090000000000  0905E7660    WAL/GLDP722/090                                                                   000000000                                          CS00C0000000027         N13250000240+00000C
3MOR+1210505134500840647367000000000A05659B0019100000681370000814486210501210531Gousto Acquisition Brand           010000000000  0105V7934    MUM/GOGS038/010                                                                   000000000                                          CS00E0000000002         N13450000240+00000C
3MOR+1210505134510837121047000000000A03675B0010900000203250000817424210502210531WOWCHER                            010000000000  0105C9221    SCC/WOEG005/010                                                                   000000000                                          CS00E0000000002         N13450000240+00000C
3MOR+1210505134520837121048000000000A08273B0031800000649680000816088210504210527Dead Happy Life Insurance          010000000000  0105W2636    DAA/DEAD014/010                                                                   000000000                                          CS00E0000000002         N13450000240+00000C
3MOR+1210505134530837121049000000000A05665B0031800000397830000815294210501210531Mister Spex                        020000000000  0205E1310    MSX/GLAS002/020                                                                   000000000                                          CS00E0000000002         N13450000240+00000C
3MOR+1210505134550836907235000000000A01564B0005000000690770000817530210501210531UNICEF BAU DRTV                    060000000000  0605W0588    UNE/OCYN223/060                                                                   000000000                                          CS00E0000000002         N13450000240+00000C
3MOR+1210505134650840374907000000000A02775B0016700000099660000816345210501210531eHarmony Dating Site               010000000000  0105V5298    PCH/EHAR021/010                                                                   000000000                                          CS00E0000000002         N13450000240+00000C
3MOR+1210505134700837121050000000000A07128B0031800000547550000816070210505210520Blind Direct                       030000000000  0305E1139    SDA/BLDR008/030                                                                   000000000                                          CS00E0000000002         N13450000240+00000C
3MOR+1210505134730840585632000000000A00129B0016700000045120000816949210501210531Autotrader                         030000000000  0305V8791    OPL/AUTO017/030                                                                   000000000                                          CS00E0000000002         N13450000240+00000C
3MOR+1210505134800840674942000000000A07770B0082100000644780000817892210504210527Credit Karma DRTV                  030000000000  030                                                                                            000000000                                          CS00E0000000002         N13450000240+00000C
3MOR+1210505134830840668280000000000A07629B0001200000650820000818876210503210531Parsley Box                        020000000000  0205W5894    GRF/PBCH001/020                                                                   000000000                                          CS00E0000000002         N13450000240+00000C
3MOR+1210505134850838946683000000000A04859B0014500000629750000814391210503210531Etsy DRTV                          010000000000  0105W6233    SMQ/SPDR010/010                                                                   000000000                                          CS00E0000000002         N13450000240+00000C
3MOR+1210505142000836910950000000000A00134B0144800000557830000817834210504210528Sunlife GOF                        060000000000  0605V8294    HHP/SLHS304/060                                                                   000000000                                          CS00C0000000028         N14200000360+00000C
3MOR+1210505142100837076824000000000A04381B0022500000286720000817854210501210531Wayfair Furniture                  020000000000  0205V6212    WFA/WAYF049/020                                                                   000000000                                          CS00C0000000028         N14200000360+00000C
3MOR+1210505142120840883965000000000A01061B0137500000659990000816336210501210518Morphy Richards DRTV               030000000000  0305W4858    SHZ/MREC005/030                                                                   000000000                                          CS00C0000000028         N14200000360+00000C
3MOR+1210505142150837076823000000000A04141B0031800000537200000816491210501210531Nordic Track                       030000000000  0305V9568    DAA/NRTR003/030                                                                   000000000                                          CS00C0000000028         N14200000360+00000C
3MOR+1210505142220837071218000000000A03675B0010900000557450000817429210502210531WOWCHER All Times                  010000000000  0105E5748    SCC/WOEB006/010                                                                   000000000                                          CS00C0000000028         N14200000360+00000C
3MOR+1210505142230837270329000000000A00625B0019100000253880000814492210501210531Galabingo DRTV                     010000000000  0105V7557    TTB/GALB059/010                                                                   000000000                                          CS00C0000000028         N14200000360+00000C
3MOR+1210505142240838308628000000000A02745B0012100000096850000816192210504210530First 4 Lawyers                    010000000000  0105E2829    SDE/FLWW765/010                                                                   000000000                                          CS00C0000000028         N14200000360+00000C
3MOR+1210505142250838308626000000000A01583B0021100000006190000818990210501210531Uswitch Insurance DRTV             010000000000  0105W5804    JLN/USWT064/010                                                                   000000000                                          CS00C0000000028         N14200000360+00000C
3MOR+1210505142300838308627000000000A04201B0082100000549290000816669210501210531HelloFresh DRTV                    010000000000  0105W4378    PCH/HFDM041/010                                                                   000000000                                          CS00C0000000028         N14200000360+00000C
3MOR+1210505142310838308629000000000A07128B0031800000547550000816070210505210520Blind Direct                       030000000000  0305E1139    SDA/BLDR008/030                                                                   000000000                                          CS00C0000000028         N14200000360+00000C
3MOR+1210505142340836910949000000000A03488B0009000000688620000817324210501210516RNIB ECLO                          090000000000  0905W2693    GOO/RNEC003/090                                                                   000000000                                          CS00C0000000028         N14200000360+00000C
3MOR+1210505142510837457170000000000A07911B0001200000618410000816365210501210531Symantec Norton 360                030000000000  0305E9949    HHP/NOFA002/030                                                                   000000000                                          CS00C0000000028         N14200000360+00000C
3MOR+1210505142540837076825000000000A07827B0031800000676260000816535210501210531Go Henry (MNE)                     020000000000  0205W0501    ABF/GHEN022/020                                                                   000000000                                          CS00C0000000028         N14200000360+00000C
3MOR+1210505144000836661963000000000A08991B0130800000684490000815919210501210531Echo Pharmacy SR (NBA)             030000000000  0305V9043    SVM/ECHO001/030                                                                   000000000                                          CS00C0000000029         N14400000360+00000C
3MOR+1210505144030836911783000000000A08185B0009000000643490000817311210504210528Fauna & Flora International        090000000000  0905V1789    DTV/FLPP003/090                                                                   000000000                                          CS00C0000000029         N14400000360+00000C
3MOR+1210505144200837494082000000000A00129B0016700000045120000816949210501210531Autotrader                         030000000000  0305V8421    OPL/AUTO015/030                                                                   000000000                                          CS00C0000000029         N14400000360+00000C
3MOR+1210505144230837127407000000000A08273B0031800000649680000816088210504210527Dead Happy Life Insurance          010000000000  0105W2636    DAA/DEAD014/010                                                                   000000000                                          CS00C0000000029         N14400000360+00000C
3MOR+1210505144240836982043000000000A09087A0908700000688750000815904210501210531Verisure International             020000000000  0205W5751    TCS/VERI006/020                                                                   000000000                                          CS00C0000000029         N14400000360+00000C
3MOR+1210505144300837225057000000000A06415B0011100000480240000817977210504210528Pure Cremation                     060000000000  0605W3853    ABF/PCNF001/060                                                                   000000000                                          CS00C0000000029         N14400000360+00000C
3MOR+1210505144400837458582000000000A05428B0001200000356960000816174210503210514Totally Money                      030000000000  0305W4865    DVN/TMBR302/030                                                                   000000000                                          CS00C0000000029         N14400000360+00000C
3MOR+1210505144430837458583000000000A06809B0001200000518850000818573210503210531Just Fab                           030000000000  0305V2042    JUF/JFAB051/030                                                                   000000000                                          CS00C0000000029         N14400000360+00000C
3MOR+1210505144500837494083000000000A06806B0022500000518600000817580210501210531Drafty.co.uk                       030000000000  0305V9113    BEM/GACR001/030                                                                   000000000                                          CS00C0000000029         N14400000360+00000C
3MOR+1210505144530837458584000000000A07985B0001200000626200000818610210503210531Freddies Flowers                   030000000000  0305W4309    DAA/FDFL003/030                                                                   000000000                                          CS00C0000000029         N14400000360+00000C
3MOR+1210505150500840911104000000000A05570B0144800000648160000815992210503210531Clearscore Protect SR              010000000000  0105W5836    BKB/CLEA783/010                                                                   000000000                                          CS00C0000000030         N15050000240+00000C
3MOR+1210505150510836900542000000000A05319B0001200000366710000816227210504210528Promis Life                        090000000000  0905E9987    WAL/GLDP742/090                                                                   000000000                                          CS00C0000000030         N15050000240+00000C
3MOR+1210505150640840891776000000000A07911B0001200000618410000816365210501210531Symantec Norton 360                030000000000  0305E9949    HHP/NOFA002/030                                                                   000000000                                          CS00C0000000030         N15050000240+00000C
3MOR+1210505150710840893375000000000A03675B0010900000203250000817424210502210531WOWCHER                            010000000000  0105E2112    SCC/WOEG008/010                                                                   000000000                                          CS00C0000000030         N15050000240+00000C
3MOR+1210505150720840891397000000000A05620B0009000000688600000821895210504210530Breast Cancer Now Lottery          040000000000  0405W2182    HHP/BNPL201/040                                                                   000000000                                          CS00C0000000030         N15050000240+00000C
3MOR+1210505150800836900541000000000A02479B0020300000449050000817555210504210528Legal & General Over 50s Life Insur060000000000  0605V9556    OLI/LGTB005/060                                                                   000000000                                          CS00C0000000030         N15050000240+00000C
3MOR+1210505152500837459281000000000A01726B0001200000569400000816482210501210531Great Ormond Hospital Research     030000000000  0305W5963    DAA/GOSH033/030                                                                   000000000                                          CS00C0000000031         N15250000240+00000C
3MOR+1210505152530838313538000000000A04201B0082100000549290000816669210501210531HelloFresh DRTV                    030000000000  0305V3467    PCH/HFDM029/030                                                                   000000000                                          CS00C0000000031         N15250000240+00000C
3MOR+1210505152600837225231000000000A06415B0011100000480240000817977210504210528Pure Cremation                     060000000000  0605W3852    ABF/PCFC001/060                                                                   000000000                                          CS00C0000000031         N15250000240+00000C
3MOR+1210505152700840200049000000000A04319B0010400000532620000816418210501210531Actegy Revitive (BAR)              030000000000  0305W1746    ATG/RNMK103/030                                                                   000000000                                          CS00C0000000031         N15250000240+00000C
3MOR+1210505152730840882666000000000A02479B0020300000574310000817550210504210528Legal & General Term Insurance     030000000000  0305E4088    OLI/LGFN740/030                                                                   000000000                                          CS00C0000000031         N15250000240+00000C
3MOR+1210505152800840564050000000000A01956B0074500000020520000820881210501210531Aquability                         030000000000  0305C2718    BRT/AQUA004/030                                                                   000000000                                          CS00C0000000031         N15250000240+00000C
3MOR+1210505152830840195228000000000A07629B0001200000650820000818876210503210531Parsley Box                        020000000000  0205W6208    GRF/PBCH002/020                                                                   000000000                                          CS00C0000000031         N15250000240+00000C
3MOR+1210505152850837459282000000000A01726B0001200000569400000816482210501210531Great Ormond Hospital Research     010000000000  0105W2509    DAA/GOSH021/010                                                                   000000000                                          CS00C0000000031         N15250000240+00000C
3MOR+1210505154500837458600000000000A07985B0001200000626200000818610210503210531Freddies Flowers                   030000000000  0305E4437    ABF/FFIF004/030                                                                   000000000                                          CS00E0000000003         N15450000240+00000C
3MOR+1210505154530836943468000000000A00134B0144800000557830000817834210504210528Sunlife GOF                        060000000000  0605W2495    HHP/SLLA007/060                                                                   000000000                                          CS00E0000000003         N15450000240+00000C
3MOR+1210505154630840748076000000000A02010B0085000000049290000816527210501210531Warner Leisure Hotels DRTV         030000000000  0305W2321    CTV/WLHH006/030                                                                   000000000                                          CS00E0000000003         N15450000240+00000C
3MOR+1210505154700837270600000000000A00625B0019100000253880000814492210501210531Galabingo DRTV                     010000000000  0105V7557    TTB/GALB059/010                                                                   000000000                                          CS00E0000000003         N15450000240+00000C
3MOR+1210505154710837458601000000000A05319B0001200000366710000816224210504210528Promis Life                        040000000000  0405E7664    WAL/GLDP727/040                                                                   000000000                                          CS00E0000000003         N15450000240+00000C
3MOR+1210505154750837494097000000000A00091B0019100000542590000814802210501210531Ancestry Family History            010000000000  0105W6152    ANO/ANCY151/010                                                                   000000000                                          CS00E0000000003         N15450000240+00000C
3MOR+1210505154800840746489000000000A05620B0009000000688600000821895210504210530Breast Cancer Now Lottery          040000000000  0405W2182    HHP/BNPL201/040                                                                   000000000                                          CS00E0000000003         N15450000240+00000C
3MOR+1210505154840840748276000000000A04381B0022500000286720000817863210501210531Wayfair Furniture                  020000000000  0205W5806    WFA/WAYF055/020                                                                   000000000                                          CS00E0000000003         N15450000240+00000C
3MOR+1210505162000836941955000000000A02479B0020300000449050000817555210504210528Legal & General Over 50s Life Insur060000000000  0605V9556    OLI/LGTB005/060                                                                   000000000                                          CS00C0000000032         N16200000360+00000C
3MOR+1210505162100836910929000000000A01629B0012700000123630000817784210501210531WaterAid                           090000000000  0905V1338    ETE/WTHS004/090                                                                   000000000                                          CS00C0000000032         N16200000360+00000C
3MOR+1210505162230837457129000000000A06809B0001200000518850000818573210503210531Just Fab                           030000000000  0305V2042    JUF/JFAB051/030                                                                   000000000                                          CS00C0000000032         N16200000360+00000C
3MOR+1210505162300837126250000000000A03675B0010900000203250000817424210502210531WOWCHER                            010000000000  0105C9220    SCC/WOEG003/010                                                                   000000000                                          CS00C0000000032         N16200000360+00000C
3MOR+1210505162310837457127000000000A07911B0001200000618410000816369210504210528Symantec Norton 360                020000000000  0205E9948    HHP/NOFA002/020                                                                   000000000                                          CS00C0000000032         N16200000360+00000C
3MOR+1210505162330836981206000000000A09087A0908700000688750000815904210501210531Verisure International             020000000000  0205W5751    TCS/VERI006/020                                                                   000000000                                          CS00C0000000032         N16200000360+00000C
3MOR+1210505162350837457128000000000A05428B0001200000356960000816174210503210514Totally Money                      030000000000  0305W4865    DVN/TMBR302/030                                                                   000000000                                          CS00C0000000032         N16200000360+00000C
3MOR+1210505162420837540279000000000A02745B0012100000353570000816175210504210530First 4 Lawyers Medical Neg        030000000000  0305E4703    SDE/FLMN760/030                                                                   000000000                                          CS00C0000000032         N16200000360+00000C
3MOR+1210505162450837224592000000000A06415B0011100000480240000817977210504210528Pure Cremation                     060000000000  0605W3854    ABF/PCMS001/060                                                                   000000000                                          CS00C0000000032         N16200000360+00000C
3MOR+1210505162550837491066000000000A00129B0016700000045120000816949210501210531Autotrader                         010000000000  0105W2656    OPL/AUTO020/010                                                                   000000000                                          CS00C0000000032         N16200000360+00000C
3MOR+1210505164000840903247000000000A01103B0116100000055200000818998210503210509Nestle Bakers Complete Pet Food    020000000000  0205V9638    CWW/PURI002/020                                                                   000000000                                          CS00C0000000033         N16400000360+00000C
3MOR+1210505164020836661958000000000A08991B0130800000684490000815919210501210531Echo Pharmacy SR (NBA)             030000000000  0305W2170    EKS/ECHO001/030                                                                   000000000                                          CS00C0000000033         N16400000360+00000C
3MOR+1210505164050837494130000000000A00091B0019100000542590000814802210501210531Ancestry Family History            010000000000  0105W4161    ANO/ANCY148/010                                                                   000000000                                          CS00C0000000033         N16400000360+00000C
3MOR+1210505164100840620864000000000A03488B0009000000688620000817324210501210516RNIB ECLO                          090000000000  0905W2692    GOO/RNEC004/090                                                                   000000000                                          CS00C0000000033         N16400000360+00000C
3MOR+1210505164230840185733000000000A07358A0735800000623020000815980210501210531Peloton Direct SR                  030000000000  0305W2161    MKN/PEBI024/030                                                                   000000000                                          CS00C0000000033         N16400000360+00000C
3MOR+1210505164300837458640000000000A07985B0001200000626200000818610210503210531Freddies Flowers                   030000000000  0305W4309    DAA/FDFL003/030                                                                   000000000                                          CS00C0000000033         N16400000360+00000C
3MOR+1210505164330837458639000000000A08273B0031800000649680000816088210504210527Dead Happy Life Insurance          010000000000  0105W2636    DAA/DEAD014/010                                                                   000000000                                          CS00C0000000033         N16400000360+00000C
3MOR+1210505164340840893373000000000A03675B0010900000203250000817424210502210531WOWCHER                            010000000000  0105C9220    SCC/WOEG003/010                                                                   000000000                                          CS00C0000000033         N16400000360+00000C
3MOR+1210505164350840600393000000000A00230B0102200000528230000816017210501210512BT Plusnet Broadband DRTV          030000000000  0305W5336    KAR/PLUS545/030                                                                   000000000                                          CS00C0000000033         N16400000360+00000C
3MOR+1210505164420837084638000000000A06312B0168000000660020000817288210501210531Simba Sleep TV  (NBA)              010000000000  0105W4035    MRB/SIBR013/010                                                                   000000000                                          CS00C0000000033         N16400000360+00000C
3MOR+1210505164430837494129000000000A04381B0022500000286720000817863210501210531Wayfair Furniture                  020000000000  0205V8852    SCC/WSSA001/020                                                                   000000000                                          CS00C0000000033         N16400000360+00000C
3MOR+1210505164450837084639000000000A02556B0082100000569730000814569210501210531Taylors Coffee (BAR)               030000000000  0305W4703    LYG/TAYL009/030                                                                   000000000                                          CS00C0000000033         N16400000360+00000C
3MOR+1210505164520837546897000000000A04859B0014500000629750000814391210503210531Etsy DRTV                          010000000000  0105W6233    SMQ/SPDR010/010                                                                   000000000                                          CS00C0000000033         N16400000360+00000C
3MOR+1210505164530839489385000000000A00299B0116100000003230000819005210503210531Nestle Shreddies Cereal            030000000000  0305W0709    MCE/CPSW702/030                                                                   000000000                                          CS00C0000000033         N16400000360+00000C
3MOR+1210505170500840911106000000000A05570B0144800000648160000815992210503210531Clearscore Protect SR              010000000000  0105W5836    BKB/CLEA783/010                                                                   000000000                                          CS00C0000000034         N17050000240+00000C
3MOR+1210505170510840890486000000000A05620B0009000000688600000821895210504210530Breast Cancer Now Lottery          040000000000  040                                                                                            000000000                                          CS00C0000000034         N17050000240+00000C
3MOR+1210505170550837550479000000000A05971B0084900000434620000813722210501210509Blinds2Go                          010000000000  0105D9413    EQU/BTGA006/010                                                                   000000000                                          CS00C0000000034         N17050000240+00000C
3MOR+1210505170600837550478000000000A06415B0011100000480240000817790210504210528Pure Cremation                     030000000000  0305W3848    ABF/PCNF001/030                                                                   000000000                                          CS00C0000000034         N17050000240+00000C
3MOR+1210505170630840890459000000000A08184A0818400000670440000815955210501210531Urban Jungle SR (BAR)              030000000000  0305E6643    PCH/URJU004/030                                                                   000000000                                          CS00C0000000034         N17050000240+00000C
3MOR+1210505170700837128381000000000A03675B0010900000203250000817424210502210531WOWCHER                            010000000000  0105C9216    SCC/WOEB002/010                                                                   000000000                                          CS00C0000000034         N17050000240+00000C
3MOR+1210505170710836944536000000000A02479B0020300000449050000817555210504210528Legal & General Over 50s Life Insur060000000000  0605V9556    OLI/LGTB005/060                                                                   000000000                                          CS00C0000000034         N17050000240+00000C
3MOR+1210505170810837550481000000000A01061B0137500000659990000816336210501210518Morphy Richards DRTV               030000000000  0305W4858    SHZ/MREC005/030                                                                   000000000                                          CS00C0000000034         N17050000240+00000C
3MOR+1210505170840840903235000000000A01102B0116100000691800000819376210501210530Nestle Gold Blend Roastery         020000000000  0205W5030    MIF/NENS275/020                                                                   000000000                                          CS00C0000000034         N17050000240+00000C
3MOR+1210505172500836865949000000000A00600B0013100000566240000816178210501210509Ford Kuga (BAR)                    030000000000  0305W4275    HOG/FMCA079/030                                                                   000000000                                          CS00C0000000035         N17250000240+00000C
3MOR+1210505172530840890462000000000A08184A0818400000670440000815955210501210531Urban Jungle SR (BAR)              030000000000  0305E6643    PCH/URJU004/030                                                                   000000000                                          CS00C0000000035         N17250000240+00000C
3MOR+1210505172600837548969000000000A08846B0098100000682200000820533210501210531FIVERR DRTV                        010000000000  0105V2303    RTN/FIVR004/010                                                                   000000000                                          CS00C0000000035         N17250000240+00000C
3MOR+1210505172610837091094000000000A06312B0168000000660020000817288210501210531Simba Sleep TV  (NBA)              030000000000  0305W4036    MRB/SIBR012/030                                                                   000000000                                          CS00C0000000035         N17250000240+00000C
3MOR+1210505172640837459275000000000A07911B0001200000618410000816369210504210528Symantec Norton 360                020000000000  0205E9948    HHP/NOFA002/020                                                                   000000000                                          CS00C0000000035         N17250000240+00000C
3MOR+1210505172700837459276000000000A05428B0001200000356960000816174210503210514Totally Money                      030000000000  0305W4865    DVN/TMBR302/030                                                                   000000000                                          CS00C0000000035         N17250000240+00000C
3MOR+1210505172730837700376000000000A06635B0016700000617260000816984210501210531Bought By Many                     010000000000  0105V8459    LSK/MANY012/010                                                                   000000000                                          CS00C0000000035         N17250000240+00000C
3MOR+1210505172740840136660000000000A03167B0102200000143220000814738210503210531Zoopla.com Property Market Resource020000000000  0205W5061    LYG/ZPLA047/020                                                                   000000000                                          CS00C0000000035         N17250000240+00000C
3MOR+1210505172800836912204000000000A00689B0144800000625070000817842210504210528Guide Dogs for the Blind Sponsor a 060000000000  0605W4380    AMQ/GDSP067/060                                                                   000000000                                          CS00C0000000035         N17250000240+00000C
3MOR+1210505174500840234652000000000A00239B0122200000588960000817746210501210513Compare the Market Service GME     030000000000  0305V9392    VCC/COMP552/030                                                                   000000000                                          CS00E0000000004         N17450000240+00000C
3MOR+1210505174530840281101000000000A01073B0011400000358870000814951210503210530Muller Light                       020000000000  0205W5673    VCC/MULI431/020                                                                   000000000                                          CS00E0000000004         N17450000240+00000C
3MOR+1210505174550840292396000000000A05401B0122100000688450000815846210503210531Air BNB GME                        030000000000  0305W6014    PCH/ABNB006/030                                                                   000000000                                          CS00E0000000004         N17450000240+00000C
3MOR+1210505174620838312519000000000A00239B0012100000341780000816601210501210530Beagle Street                      030000000000  0305W0919    CLD/BEST006/030                                                                   000000000                                          CS00E0000000004         N17450000240+00000C
3MOR+1210505174650840285317000000000A03310B0011600000163740000813435210503210529Alpecin                            020000000000  0205W5833    DVN/ALBL501/020                                                                   000000000                                          CS00E0000000004         N17450000240+00000C
3MOR+1210505174710840281102000000000A03319B0074200000602320000816977210501210526Talk Talk All Time TV              020000000000  0205W4789    CHI/TALK986/020                                                                   000000000                                          CS00E0000000004         N17450000240+00000C
3MOR+1210505174730839099056000000000A00232B0142000000002300000817042210503210509Britvic Robinsons Branding GME     030000000000  0305W5690    SSC/RRBR005/030                                                                   000000000                                          CS00E0000000004         N17450000240+00000C
3MOR+1210505174800840563008000000000A00942B0014500000303740000815701210503210523LG Electronics OLED TV             030000000000  0305W4469    BDE/LGEV001/030                                                                   000000000                                          CS00E0000000004         N17450000240+00000C
3MOR+1210505174830840279166000000000A00196B0122200000647840000817793210503210523BMW PHEV GME                       030000000000  0305W4690    INF/BMWC274/030                                                                   000000000                                          CS00E0000000004         N17450000240+00000C
3MOR+1210505182000837882650000000000A00993B0011400000017330000814983210501210522Mars Snickers                      020000000000  0205V6136    EGP/SNCR155/020                                                                   000000000                                          CS00C0000000036         N18200000360+00000C
3MOR+1210505182020840287819000000000A00993B0011400000170590000814997210501210522Whiskas Dreamies                   020000000000  0205D7075    AED/MRDR108/020                                                                   000000000                                          CS00C0000000036         N18200000360+00000C
3MOR+1210505182040840292629000000000A00230B0122100000633910000816319210501210531BT Broadband GME                   030000000000  0305V9745    SSC/BTBR121/030                                                                   000000000                                          CS00C0000000036         N18200000360+00000C
3MOR+1210505182110840292630000000000A01523B0142000000595110000816196210503210531Toyota Lexus UX GME                030000000000  0305W3876    TAG/TOGB353/030                                                                   000000000                                          CS00C0000000036         N18200000360+00000C
3MOR+1210505182140840292628000000000A04729B0011400000697170000821250210503210523Indeed.co.uk SMB                   020000000000  0205W6099    PCH/INDE008/020                                                                   000000000                                          CS00C0000000036         N18200000360+00000C
3MOR+1210505182200840292633000000000A07358B0102200000694170000815485210503210523Peloton Training Bike              030000000000  0305W3383    MKN/PEBI029/030                                                                   000000000                                          CS00C0000000036         N18200000360+00000C
3MOR+1210505182230840292634000000000A01635B0012100000053960000816348210501210516Westland Resolva                   020000000000  0205W5378    TBM/WRXP302/020                                                                   000000000                                          CS00C0000000036         N18200000360+00000C
3MOR+1210505182250840292631000000000A01787B0123600000545920000820773210501210531TUI UK Toy GME                     020000000000  0205W5984    BUR/TTUI005/020                                                                   000000000                                          CS00C0000000036         N18200000360+00000C
3MOR+1210505182310840292632000000000A01470B0011400000408670000815349210501210509Tempur                             020000000000  0205W5627    MCE/TEMP094/020                                                                   000000000                                          CS00C0000000036         N18200000360+00000C
3MOR+1210505182330840292638000000000A00362B0012200000657740000817750210503210531Colgate Keep Britain Smiling (BAR) 030000000000  0305W5692    HOG/CLEQ780/030                                                                   000000000                                          CS00C0000000036         N18200000360+00000C
3MOR+1210505182400840292636000000000A00678B0011400000121890000815212210501210531Greenflag Breakdown Branding       030000000000  0305E6679    WCR/GRFL024/030                                                                   000000000                                          CS00C0000000036         N18200000360+00000C
3MOR+1210505182430840292635000000000A00959B0123600000683050000816990210503210531Lloyds Forever Forward GME         030000000000  0305W2696    AED/LLDS114/030                                                                   000000000                                          CS00C0000000036         N18200000360+00000C
3MOR+1210505182500838035094000000000A01770A0177000000508070000818304210501210527Sky Mobile Apple                   030000000000  0305W1802    FOW/SKYM125/030                                                                   000000000                                          CS00C0000000036         N18200000360+00000C
3MOR+1210505182530840292637000000000A00239B0122200000560620000817817210501210506Compare the Market Brand Meals GME 010000000000  0105W0605    VCC/COMP554/010                                                                   000000000                                          CS00C0000000036         N18200000360+00000C
3MOR+1210505182540840704162000000000A01565B0165300000215810000818207210503210531Graze.com                          020000000000  0205W5172    AED/UNGR309/020                                                                   000000000                                          CS00C0000000036         N18200000360+00000C
3MOR+1210505184000840164275000000000A00824B0017800000507260000818690210501210531KP Nuts                            030000000000  0305W4282    SIG/KPNU004/030                                                                   000000000                                          CS00C0000000037         N18400000360+00000C
3MOR+1210505184030837922190000000000A00910B0102200000546720000814742210501210507Garnier Masks                      020000000000  0205W4808    CWW/GARN071/020                                                                   000000000                                          CS00C0000000037         N18400000360+00000C
3MOR+1210505184050840897429000000000A00700B0012400000383520000817001210501210516Halfords Brand (BAR)               030000000000  0305W3891    BJL/HALF003/030                                                                   000000000                                          CS00C0000000037         N18400000360+00000C
3MOR+1210505184120838958599000000000A00254B0005000000428130000818465210503210531Cadbury Dairy Milk (BAR)           030000000000  0305W5762    VCC/CADM119/030                                                                   000000000                                          CS00C0000000037         N18400000360+00000C
3MOR+1210505184150840265020000000000A00239B0122200000588960000817746210501210513Compare the Market Service GME     030000000000  0305V9392    VCC/COMP552/030                                                                   000000000                                          CS00C0000000037         N18400000360+00000C
3MOR+1210505184220840164273000000000A05327B0010400000642560000816401210503210516Hargreaves Lansdown                030000000000  0305W1975    MCZ/HARG004/030                                                                   000000000                                          CS00C0000000037         N18400000360+00000C
3MOR+1210505184250838293388000000000A02010B0085000000049290000816527210501210531Warner Leisure Hotels DRTV         030000000000  0305W2321    CTV/WLHH006/030                                                                   000000000                                          CS00C0000000037         N18400000360+00000C
3MOR+1210505184320840307625000000000A00356B0011400000011180000815277210503210516Coke Zero                          010000000000  0105W5334    HOG/COCA682/010                                                                   000000000                                          CS00C0000000037         N18400000360+00000C
3MOR+1210505184330840697262000000000A05971B0084900000434620000813722210501210509Blinds2Go                          010000000000  0105D9413    EQU/BTGA006/010                                                                   000000000                                          CS00C0000000037         N18400000360+00000C
3MOR+1210505184340840311160000000000A00600B0013100000566240000816178210501210509Ford Kuga (BAR)                    030000000000  0305W4275    HOG/FMCA079/030                                                                   000000000                                          CS00C0000000037         N18400000360+00000C
3MOR+1210505184410840698387000000000A07883B0130300000615200000820532210501210516HiHi                               010000000000  0105W5980    HIH/FLEX001/010                                                                   000000000                                          CS00C0000000037         N18400000360+00000C
3MOR+1210505184420840286807000000000A00199B0011400000189710000815293210501210531Boots Hearing Care                 030000000000  0305W5947    HOG/BOHC420/030                                                                   000000000                                          CS00C0000000037         N18400000360+00000C
3MOR+1210505184450840176362000000000A07556B0017600000588430000818232210501210531Simply Cook                        010000000000  0105V7834    VCC/SICO002/010                                                                   000000000                                          CS00C0000000037         N18400000360+00000C
3MOR+1210505184500840375630000000000A07062B0001200000669670000816276210501210531Sum Up (MNE)                       020000000000  0205V1169    SUP/SUMU003/020                                                                   000000000                                          CS00C0000000037         N18400000360+00000C
3MOR+1210505184520840164274000000000A05847B0014500000422460000816391210501210509Smart Energy                       040000000000  0405W5106    AMV/SEBA187/040                                                                   000000000                                          CS00C0000000037         N18400000360+00000C
3MOR+1210505190500840278688000000000A03310B0011600000163740000813435210503210529Alpecin                            010000000000  0105W5834    DVN/ALBL502/010                                                                   000000000                                          CS00C0000000038         N19050000240+00000C
3MOR+1210505190510837864148000000000A01392B0123500000008340000817081210502210515Slimfast GME                       010000000000  0105V6766    HHN/SFKA072/010                                                                   000000000                                          CS00C0000000038         N19050000240+00000C
3MOR+1210505190520836647369000000000A08991B0130800000684490000815919210501210531Echo Pharmacy SR (NBA)             010000000000  0105W2173    SVM/ECHO002/010                                                                   000000000                                          CS00C0000000038         N19050000240+00000C
3MOR+1210505190530836670012000000000A07556B0017600000642860000815938210501210531Simply Cook Shared Reward          010000000000  0105V7834    VCC/SICO002/010                                                                   000000000                                          CS00C0000000038         N19050000240+00000C
3MOR+1210505190540840680568000000000A04516B0014500000315180000816674210501210528Seat Cupra                         030000000000  0305W5444    AED/SECU096/030                                                                   000000000                                          CS00C0000000038         N19050000240+00000C
3MOR+1210505190610836670013000000000A00249B0082100000694860000817714210504210531Butchers Blink Cat Food Shared Rewa030000000000  0305W6219    KOA/BLNK100/030                                                                   000000000                                          CS00C0000000038         N19050000240+00000C
3MOR+1210505190640838323431000000000A00239B0012100000341780000816601210501210530Beagle Street                      030000000000  0305W0920    CLD/BEST005/030                                                                   000000000                                          CS00C0000000038         N19050000240+00000C
3MOR+1210505190710840702289000000000A05720B0001200000404970000821454210501210530Best of the Best                   030000000000  0305B5722    ABF/BOTB012/030                                                                   000000000                                          CS00C0000000038         N19050000240+00000C
3MOR+1210505190740840603302000000000A00791B0019100000579350000818009210501210531Iceland HFSS                       010000000000  0105W1910    ICF/ILFD088/010                                                                   000000000                                          CS00C0000000038         N19050000240+00000C
3MOR+1210505190750840587725000000000A00481B0013100000643190000816814210503210523Dyson Personal Care                020000000000  0205W5093    GNW/DYSN202/020                                                                   000000000                                          CS00C0000000038         N19050000240+00000C
3MOR+1210505190810838957922000000000A01565B0165300000215810000818207210503210531Graze.com                          020000000000  0205W5172    AED/UNGR309/020                                                                   000000000                                          CS00C0000000038         N19050000240+00000C
3MOR+1210505190830840291877000000000A05401B0122100000688450000815846210503210531Air BNB GME                        030000000000  0305W4732    PCH/ABNB001/030                                                                   000000000                                          CS00C0000000038         N19050000240+00000C
3MOR+1210505192500840207048000000000A00111B0005000000685430000815526210503210523Arla BOB AGL (NBA)                 020000000000  0205W0671    TAG/ARBO012/020                                                                   000000000                                          CS00C0000000039         N19250000240+00000C
3MOR+1210505192520837864264000000000A00866B0012100000327440000816545210503210530Vimto HFSS                         030000000000  0305W5617    QST/VIMT152/030                                                                   000000000                                          CS00C0000000039         N19250000240+00000C
3MOR+1210505192550838958600000000000A00254B0005000000428130000818465210503210531Cadbury Dairy Milk (BAR)           030000000000  0305W5762    VCC/CADM119/030                                                                   000000000                                          CS00C0000000039         N19250000240+00000C
3MOR+1210505192620837899515000000000A01705B0122200000246850000817852210503210531Batiste Dry Shampoo GME            020000000000  0205W6024    CNO/BTNC011/020                                                                   000000000                                          CS00C0000000039         N19250000240+00000C
3MOR+1210505192640840278269000000000A01073B0011400000358870000814951210503210530Muller Light                       020000000000  0205W5673    VCC/MULI431/020                                                                   000000000                                          CS00C0000000039         N19250000240+00000C
3MOR+1210505192700840278270000000000A00639B0123500000505600000816828210503210523Haagen Dazs GME                    020000000000  0205W5760    HOG/GMHD091/020                                                                   000000000                                          CS00C0000000039         N19250000240+00000C
3MOR+1210505192720840298614000000000A07801B0011600000608650000813696210501210531Cinch                              010000000000  0105V9189    IRI/BCBR014/010                                                                   000000000                                          CS00C0000000039         N19250000240+00000C
3MOR+1210505192730840278271000000000A02889B0012100000056180000816372210503210523Foxs Biscuits Master Brand         020000000000  0205W1173    MCM/FOXS980/020                                                                   000000000                                          CS00C0000000039         N19250000240+00000C
3MOR+1210505192750838000270000000000A01328B0014500000688590000816219210501210531Sainsburys PM                      020000000000  0205W6177    WKU/SAUK161/020                                                                   000000000                                          CS00C0000000039         N19250000240+00000C
3MOR+1210505192810840306408000000000A00707B0013100000189060000816132210501210530Haribo Supermix                    030000000000  0305W2426    QST/DNHA140/030                                                                   000000000                                          CS00C0000000039         N19250000240+00000C
3MOR+1210505192840840278268000000000A03319B0074200000602320000816977210501210526Talk Talk All Time TV              020000000000  0205W5125    CHI/TALK988/020                                                                   000000000                                          CS00C0000000039         N19250000240+00000C
3MOR+1210505194500840641423000000000A00870B0019800000119720000817255210503210523J&J Aveeno                         020000000000  0205W5344    HOG/JHAV323/020                                                                   000000000                                          CS00E0000000005         N19450000240+00000C
3MOR+1210505194520840207577000000000A04445B0017800000692010000818715210501210505Lidl Summer Trade Drive            020000000000  0205W5130    KAR/LIDL205/020                                                                   000000000                                          CS00E0000000005         N19450000240+00000C
3MOR+1210505194540840297171000000000A00239B0122200000588960000817828210501210531Compare the Market Service GME     010000000000  0105W2698    VCC/COMP562/010                                                                   000000000                                          CS00E0000000005         N19450000240+00000C
3MOR+1210505194550840290595000000000A00199B0011400000189710000815293210501210531Boots Hearing Care                 010000000000  0105W5946    HOG/BOHC421/010                                                                   000000000                                          CS00E0000000005         N19450000240+00000C
3MOR+1210505194600840279723000000000A00196B0122200000647840000817793210503210523BMW PHEV GME                       030000000000  0305W4690    INF/BMWC274/030                                                                   000000000                                          CS00E0000000005         N19450000240+00000C
3MOR+1210505194630840297172000000000A00230B0122100000633910000816319210501210531BT Broadband GME                   030000000000  0305V9745    SSC/BTBR121/030                                                                   000000000                                          CS00E0000000005         N19450000240+00000C
3MOR+1210505194700840290596000000000A00993B0011400000170590000814997210501210522Whiskas Dreamies                   020000000000  0205D7075    AED/MRDR108/020                                                                   000000000                                          CS00E0000000005         N19450000240+00000C
3MOR+1210505194720840291827000000000A00549B0011600000537170000814833210501210531Express Gifts (BAR)                030000000000  0305W4105    CHF/STUD897/030                                                                   000000000                                          CS00E0000000005         N19450000240+00000C
3MOR+1210505194750840297174000000000A06660B0122200000691650000817856210501210509Peroni GME                         030000000000  0305W3418    TBK/PASS212/030                                                                   000000000                                          CS00E0000000005         N19450000240+00000C
3MOR+1210505194820840297173000000000A06876B0013100000525490000816130210501210531Sage                               010000000000  0105V3444    JWT/SAGE003/010                                                                   000000000                                          CS00E0000000005         N19450000240+00000C
3MOR+1210505194830840278504000000000A00232B0142000000002300000817042210503210509Britvic Robinsons Branding GME     030000000000  0305W5690    SSC/RRBR005/030                                                                   000000000                                          CS00E0000000005         N19450000240+00000C
3MOR+1210505202000840148256000000000A04445B0017800000651540000818713210501210512Lidl Price Comparison (NBA)        020000000000  0205W5714    KAR/LIDL206/020                                                                   000000000                                          CS00C0000000040         N20200000360+00000C
3MOR+1210505202020840150092000000000A07045B0017800000681050000819760210501210531Vinted (BAR)                       010000000000  0105W4541    VCM/VINT012/010                                                                   000000000                                          CS00C0000000040         N20200000360+00000C
3MOR+1210505202030836670059000000000A07556B0017600000642860000815938210501210531Simply Cook Shared Reward          010000000000  0105V7834    VCC/SICO002/010                                                                   000000000                                          CS00C0000000040         N20200000360+00000C
3MOR+1210505202040840622968000000000A04319B0010400000532620000816435210501210531Actegy Revitive (BAR)              030000000000  0305W1745    ATG/RNMC102/030                                                                   000000000                                          CS00C0000000040         N20200000360+00000C
3MOR+1210505202110836670057000000000A07358A0735800000623020000815980210501210531Peloton Direct SR                  030000000000  0305W2162    MKN/PEBI030/030                                                                   000000000                                          CS00C0000000040         N20200000360+00000C
3MOR+1210505202140836722865000000000A08831B0130800000671800000815951210501210531Trinny London SR                   030000000000  0305V4623    EFR/TRLD003/030                                                                   000000000                                          CS00C0000000040         N20200000360+00000C
3MOR+1210505202210840647418000000000A05847B0014500000422460000816391210501210509Smart Energy                       040000000000  0405W5106    AMV/SEBA187/040                                                                   000000000                                          CS00C0000000040         N20200000360+00000C
3MOR+1210505202250840603478000000000A01073B0011400000358870000814951210503210530Muller Light                       020000000000  0205W5673    VCC/MULI431/020                                                                   000000000                                          CS00C0000000040         N20200000360+00000C
3MOR+1210505202310840893041000000000A05327B0010400000642560000816401210503210516Hargreaves Lansdown                030000000000  0305W1975    MCZ/HARG004/030                                                                   000000000                                          CS00C0000000040         N20200000360+00000C
3MOR+1210505202340840642165000000000A01276B0057000000490090000818776210503210531Dettol Wipes                       020000000000  0205W4763    HOG/RKDT472/020                                                                   000000000                                          CS00C0000000040         N20200000360+00000C
3MOR+1210505202400836670060000000000A00249B0082100000694860000817714210504210531Butchers Blink Cat Food Shared Rewa030000000000  0305W6219    KOA/BLNK100/030                                                                   000000000                                          CS00C0000000040         N20200000360+00000C
3MOR+1210505202430836722866000000000A08221B0081100000646470000817745210501210531FindMyPast SR                      030000000000  0305W3957    FTB/FMPM003/030                                                                   000000000                                          CS00C0000000040         N20200000360+00000C
3MOR+1210505202500840642164000000000A00168B0013800000002640000816810210503210531Bendicks Werther's Original        010000000000  0105W5835    BRI/WOMS073/010                                                                   000000000                                          CS00C0000000040         N20200000360+00000C
3MOR+1210505202510836647390000000000A08991B0130800000684490000815919210501210531Echo Pharmacy SR (NBA)             030000000000  0305V9043    SVM/ECHO001/030                                                                   000000000                                          CS00C0000000040         N20200000360+00000C
3MOR+1210505202540840148257000000000A01392B0123500000008340000817087210502210515Slimfast GME                       020000000000  0205V7577    HHN/SFKA073/020                                                                   000000000                                          CS00C0000000040         N20200000360+00000C
