01Spot      DaveIre   030020200703202007061707060504320200703.DCL   05043000000000000000000000000000000000000000000000000000000000000000000000000000000000000000000000000000000000000000000000000000000000000000000000000000000000000000000000000000000000000000000000000000003.5A                          
022020070305043000008141600240CB000000000002CS0007951678500504300000008141600030CAWHSEC046030                                     AMERICAN PICKERS S11                    AMERICAN PICKERS S11                    0003700009122830000100000000000000000000000000FST                                         
022020070305043000008141600240CB000000000002CS0007955673900504300000008144600040BJFWMMH006040                                     AMERICAN PICKERS S11                    AMERICAN PICKERS S11                    0003700009131770000100000000000000000000000000SND                                         
022020070305043000008141600240CB000000000002CS0007941455190504300000008152600030TNTEIRB035030                                     AMERICAN PICKERS S11                    AMERICAN PICKERS S11                    0003700000000000000000000000000000000000000000OTH                                         
022020070305043000008141600240CB000000000002CS0007946600460504300000008155600030KCSPEUG112030                                     AMERICAN PICKERS S11                    AMERICAN PICKERS S11                    0003700009085540000100000000000000000000000000OTH                                         
022020070305043000008141600240CB000000000002CS0007941891270504300000008162600030BNGTHRN348030                                     AMERICAN PICKERS S11                    AMERICAN PICKERS S11                    0003700009081490000100000000000000000000000000OTH                                         
022020070305043000008141600240CB000000000002CS0007955704180504300000008165600040HNBIREL944040                                     AMERICAN PICKERS S11                    AMERICAN PICKERS S11                    0003700009117940000100000000000000000000000000OTH                                         
022020070305043000008141600240CB000000000002CS0007951651550504300000008173600030LKCBARN008030                                     AMERICAN PICKERS S11                    AMERICAN PICKERS S11                    0003700009088370000100000000000000000000000000PEN                                         
022020070305043000008141600240CB000000000002CS0007939370570504300000008180600010ROTTESC360010                                     AMERICAN PICKERS S11                    AMERICAN PICKERS S11                    0003700009088320000100000000000000000000000000LST                                         
022020070305043000008303200240CB000000000003CS0007955837570504300000008303200020TAGNUIE588020                                     AMERICAN PICKERS S11                    AMERICAN PICKERS S11                    0003700009115350000100000000000000000000000000FST                                         
022020070305043000008303200240CB000000000003CS0007941418230504300000008305200030SKYSBNT104030                                     AMERICAN PICKERS S11                    AMERICAN PICKERS S11                    0003700009085170000100000000000000000000000000SND                                         
022020070305043000008303200240CB000000000003CS0007947231710504300000008312200020BONBENE008020                                     AMERICAN PICKERS S11                    AMERICAN PICKERS S11                    0003700009092470000100000000000000000000000000OTH                                         
022020070305043000008303200240CB000000000003CS0007941710930504300000008314200030GRYVFBR661030                                     AMERICAN PICKERS S11                    AMERICAN PICKERS S11                    0003700009083260000100000000000000000000000000OTH                                         
022020070305043000008303200240CB000000000003CS0007946730960504300000008321200010TAGSULZ004010                                     AMERICAN PICKERS S11                    AMERICAN PICKERS S11                    0003700009119970000100000000000000000000000000OTH                                         
022020070305043000008303200240CB000000000003CS0007939370890504300000008322200030IIBLIDL250030                                     AMERICAN PICKERS S11                    AMERICAN PICKERS S11                    0003700009084060000100000000000000000000000000OTH                                         
022020070305043000008303200240CB000000000003CS0007946457840504300000008325200020SLHINTM001020                                     AMERICAN PICKERS S11                    AMERICAN PICKERS S11                    0003700009092480000100000000000000000000000000OTH                                         
022020070305043000008303200240CB000000000003CS0007946368200504300000008331200020BNGENEG321020                                     AMERICAN PICKERS S11                    AMERICAN PICKERS S11                    0003700009064930000100000000000000000000000000OTH                                         
022020070305043000008303200240CB000000000003CS0007955707020504300000008333200030SSCPGFY012030                                     AMERICAN PICKERS S11                    AMERICAN PICKERS S11                    0003700009081300000300000000000000000000000000PEN                                         
022020070305043000008303200240CB000000000003CS0007955707010504300000008340200030MIFPGOB571030                                     AMERICAN PICKERS S11                    AMERICAN PICKERS S11                    0003700009081720000300000000000000000000000000LST                                         
022020070305043000008422800240CB000000000004CS0007945630530504300000008422800030TNTEIRB035030                                     AMERICAN PICKERS S11                    AMERICAN PICKERS S11                    0003700000000000000000000000000000000000000000FST                                         
022020070305043000008422800240CB000000000004CS0007951957950504300000008425800020BURTSPK198020                                     AMERICAN PICKERS S11                    AMERICAN PICKERS S11                    0003700009076190000100000000000000000000000000SND                                         
022020070305043000008422800240CB000000000004CS0007955837380504300000008431800020IIBAVGI091020                                     AMERICAN PICKERS S11                    AMERICAN PICKERS S11                    0003700009085830000100000000000000000000000000OTH                                         
022020070305043000008422800240CB000000000004CS0007955837390504300000008433800020HPSRGAV006020                                     AMERICAN PICKERS S11                    AMERICAN PICKERS S11                    0003700009115250000100000000000000000000000000OTH                                         
022020070305043000008422800240CB000000000004CS0007951698440504300000008435800030CAWHSEC046030                                     AMERICAN PICKERS S11                    AMERICAN PICKERS S11                    0003700009122830000100000000000000000000000000OTH                                         
022020070305043000008422800240CB000000000004CS0007948826350504300000008442800020TAGCGGB683020                                     AMERICAN PICKERS S11                    AMERICAN PICKERS S11                    0003700009115070000100000000000000000000000000OTH                                         
022020070305043000008422800240CB000000000004CS0007951841900504300000008444800030LKCBARN008030                                     AMERICAN PICKERS S11                    AMERICAN PICKERS S11                    0003700009088370000100000000000000000000000000OTH                                         
022020070305043000008422800240CB000000000004CS0007955705170504300000008451800040HNBIREL944040                                     AMERICAN PICKERS S11                    AMERICAN PICKERS S11                    0003700009117940000100000000000000000000000000PEN                                         
022020070305043000008422800240CB000000000004CS0007955694180504300000008455800030ROTESBB002030                                     AMERICAN PICKERS S11                    AMERICAN PICKERS S11                    0003700009133920000100000000000000000000000000LST                                         
022020070305043000009085700300CB000000000005CS0007939370750504300000009085700030IIBLIDL250030                                     STORAGE HUNTERS (3A) (HD)               STORAGE HUNTERS (3A) (HD)               0003700009084060000100000000000000000000000000FST                                         
022020070305043000009085700300CB000000000005CS0007955705240504300000009092700030MIFPGOB571030                                     STORAGE HUNTERS (3A) (HD)               STORAGE HUNTERS (3A) (HD)               0003700009081720000300000000000000000000000000SND                                         
022020070305043000009085700300CB000000000005CS0007955705250504300000009095700030EGPPGFB044030                                     STORAGE HUNTERS (3A) (HD)               STORAGE HUNTERS (3A) (HD)               0003700009081440000300000000000000000000000000OTH                                         
022020070305043000009085700300CB000000000005CS0007951844800504300000009102700030KRODSSS446030                                     STORAGE HUNTERS (3A) (HD)               STORAGE HUNTERS (3A) (HD)               0003700009118860000100000000000000000000000000OTH                                         
022020070305043000009085700300CB000000000005CS0007941418260504300000009105700030SKYSBNT104030                                     STORAGE HUNTERS (3A) (HD)               STORAGE HUNTERS (3A) (HD)               0003700009085170000100000000000000000000000000OTH                                         
022020070305043000009085700300CB000000000005CS0007947231720504300000009112700020BBHWEYB091020                                     STORAGE HUNTERS (3A) (HD)               STORAGE HUNTERS (3A) (HD)               0003700009075490000100000000000000000000000000OTH                                         
022020070305043000009085700300CB000000000005CS0007955705260504300000009114700030SSCPGFY012030                                     STORAGE HUNTERS (3A) (HD)               STORAGE HUNTERS (3A) (HD)               0003700009081300000300000000000000000000000000OTH                                         
022020070305043000009085700300CB000000000005CS0007953514890504300000009121700040BJFWMMH006040                                     STORAGE HUNTERS (3A) (HD)               STORAGE HUNTERS (3A) (HD)               0003700009131770000102000000000000000000000000OTH                                         
022020070305043000009085700300CB000000000005CS0007955797930504300000009125700030KCHFAIR001030                                     STORAGE HUNTERS (3A) (HD)               STORAGE HUNTERS (3A) (HD)               0003700009081310000302000000000000000000000000PEN                                         
022020070305043000009085700300CB000000000005CS0007941710920504300000009132700030GRYVFBR661030                                     STORAGE HUNTERS (3A) (HD)               STORAGE HUNTERS (3A) (HD)               0003700009083260000102000000000000000000000000LST                                         
022020070305043000009254000120EB000000000006CS0007941418410504300000009254000030FOWSKYI158030                                     STORAGE HUNTERS (3A) (HD)               STORAGE HUNTERS (3A) (HD)               0003700009085030000102000000000000000000000000FST                                         
022020070305043000009254000120EB000000000006CS0007941892230504300000009261000030QMPVIRG024030                                     STORAGE HUNTERS (3A) (HD)               STORAGE HUNTERS (3A) (HD)               0003700009092400000102000000000000000000000000SND                                         
022020070305043000009254000120EB000000000006CS0007955699550504300000009264000030ROTESBB002030                                     STORAGE HUNTERS (3A) (HD)               STORAGE HUNTERS (3A) (HD)               0003700009133920000102000000000000000000000000PEN                                         
022020070305043000009254000120EB000000000006CS0007939357720504300000009271000030IIBLIDL250030                                     STORAGE HUNTERS (3A) (HD)               STORAGE HUNTERS (3A) (HD)               0003700009084060000100000000000000000000000000LST                                         
022020070305043000009394300300CB000000000007CS0007939371220504300000009394300010ROTTESC361010                                     STORAGE HUNTERS (3A) (HD)               STORAGE HUNTERS (3A) (HD)               0003700009088320000100000000000000000000000000FST                                         
022020070305043000009394300300CB000000000007CS0007941418520504300000009395300030SKYSBNT104030                                     STORAGE HUNTERS (3A) (HD)               STORAGE HUNTERS (3A) (HD)               0003700009085170000100000000000000000000000000SND                                         
022020070305043000009394300300CB000000000007CS0007955838460504300000009402300020YRLBELB007020                                     STORAGE HUNTERS (3A) (HD)               STORAGE HUNTERS (3A) (HD)               0003700009076940000100000000000000000000000000OTH                                         
022020070305043000009394300300CB000000000007CS0007955834910504300000009404300020CWWGARN035020                                     STORAGE HUNTERS (3A) (HD)               STORAGE HUNTERS (3A) (HD)               0003700009085660000100000000000000000000000000OTH                                         
022020070305043000009394300300CB000000000007CS0007946731130504300000009410300020TAGSULZ003020                                     STORAGE HUNTERS (3A) (HD)               STORAGE HUNTERS (3A) (HD)               0003700009119960000100000000000000000000000000OTH                                         
022020070305043000009394300300CB000000000007CS0007955707180504300000009412300030EGPPGPP118030                                     STORAGE HUNTERS (3A) (HD)               STORAGE HUNTERS (3A) (HD)               0003700009081800000300000000000000000000000000OTH                                         
022020070305043000009394300300CB000000000007CS0007939149640504300000009415300030VSTQTDV015030                                     STORAGE HUNTERS (3A) (HD)               STORAGE HUNTERS (3A) (HD)               0003700000000000000000000000000000000000000000OTH                                         
022020070305043000009394300300CB000000000007CS0007941863660504300000009422300010SLHFELH005010                                     STORAGE HUNTERS (3A) (HD)               STORAGE HUNTERS (3A) (HD)               0003700009051080000100000000000000000000000000OTH                                         
022020070305043000009394300300CB000000000007CS0007946368260504300000009423300020BNGENEG323020                                     STORAGE HUNTERS (3A) (HD)               STORAGE HUNTERS (3A) (HD)               0003700009064930000100000000000000000000000000OTH                                         
022020070305043000009394300300CB000000000007CS0007947369590504300000009425300020CWWGARN038020                                     STORAGE HUNTERS (3A) (HD)               STORAGE HUNTERS (3A) (HD)               0003700009085670000100000000000000000000000000OTH                                         
022020070305043000009394300300CB000000000007CS0007947231750504300000009431300020BONBENE008020                                     STORAGE HUNTERS (3A) (HD)               STORAGE HUNTERS (3A) (HD)               0003700009092470000100000000000000000000000000OTH                                         
022020070305043000009394300300CB000000000007CS0007955706750504300000009433300040HNBIREL944040                                     STORAGE HUNTERS (3A) (HD)               STORAGE HUNTERS (3A) (HD)               0003700009117940000100000000000000000000000000PEN                                         
022020070305043000009394300300CB000000000007CS0007941711160504300000009441300030GRYVFBR661030                                     STORAGE HUNTERS (3A) (HD)               STORAGE HUNTERS (3A) (HD)               0003700009083260000100000000000000000000000000LST                                         
022020070305043000010085500240CB000000000008CS0007951629970504300000010085500030JAVSSEA025030                                     AMERICAN PICKERS S11                    AMERICAN PICKERS S11                    0003700009092430000100000000000000000000000000FST                                         
022020070305043000010085500240CB000000000008CS0007944474290504300000010092500030MCMASSS935030                                     AMERICAN PICKERS S11                    AMERICAN PICKERS S11                    0003700009108210000100000000000000000000000000SND                                         
022020070305043000010085500240CB000000000008CS0007945654640504300000010095500030TNTEIRB035030                                     AMERICAN PICKERS S11                    AMERICAN PICKERS S11                    0003700000000000000000000000000000000000000000OTH                                         
022020070305043000010085500240CB000000000008CS0007951636980504300000010102500030IIBVOLK078030                                     AMERICAN PICKERS S11                    AMERICAN PICKERS S11                    0003700009092510000100000000000000000000000000OTH                                         
022020070305043000010085500240CB000000000008CS0007951678240504300000010105500030CAWHSEC046030                                     AMERICAN PICKERS S11                    AMERICAN PICKERS S11                    0003700009122830000100000000000000000000000000OTH                                         
022020070305043000010085500240CB000000000008CS0007955668920504300000010112500030BNGTHRN348030                                     AMERICAN PICKERS S11                    AMERICAN PICKERS S11                    0003700009081490000100000000000000000000000000OTH                                         
022020070305043000010085500240CB000000000008CS0007953571870504300000010115500040BJFWMMH006040                                     AMERICAN PICKERS S11                    AMERICAN PICKERS S11                    0003700009131770000100000000000000000000000000PEN                                         
022020070305043000010085500240CB000000000008CS0007955714240504300000010123500020BBHWEYB091020                                     AMERICAN PICKERS S11                    AMERICAN PICKERS S11                    0003700009075490000100000000000000000000000000LST                                         
022020070305043000010280200240CB000000000009CS0007947035020504300000010280200030KCHFAIR001030                                     AMERICAN PICKERS S11                    AMERICAN PICKERS S11                    0003700009081310000300000000000000000000000000FST                                         
022020070305043000010280200240CB000000000009CS0007953503880504300000010283200030ROTESBB002030                                     AMERICAN PICKERS S11                    AMERICAN PICKERS S11                    0003700009133920000100000000000000000000000000SND                                         
022020070305043000010280200240CB000000000009CS0007946042290504300000010290200030FOWSKYI158030                                     AMERICAN PICKERS S11                    AMERICAN PICKERS S11                    0003700009085080000100000000000000000000000000OTH                                         
022020070305043000010280200240CB000000000009CS0007955706470504300000010293200030GRYPGPP630030                                     AMERICAN PICKERS S11                    AMERICAN PICKERS S11                    0003700009081950000300000000000000000000000000OTH                                         
022020070305043000010280200240CB000000000009CS0007939509290504300000010300200030IIBLIDL250030                                     AMERICAN PICKERS S11                    AMERICAN PICKERS S11                    0003700009084060000100000000000000000000000000OTH                                         
022020070305043000010280200240CB000000000009CS0007947035010504300000010303200030HOGPGOL472030                                     AMERICAN PICKERS S11                    AMERICAN PICKERS S11                    0003700009081650000300000000000000000000000000OTH                                         
022020070305043000010280200240CB000000000009CS0007947035030504300000010310200030SSCPGFY015030                                     AMERICAN PICKERS S11                    AMERICAN PICKERS S11                    0003700009081250000300000000000000000000000000PEN                                         
022020070305043000010280200240CB000000000009CS0007947034980504300000010313200030MIFPGOB571030                                     AMERICAN PICKERS S11                    AMERICAN PICKERS S11                    0003700009081720000300000000000000000000000000LST                                         
022020070305043000010434300240CB000000000010CS0007939353730504300000010434300030MCMASSS936030                                     AMERICAN PICKERS S11                    AMERICAN PICKERS S11                    0003700009108210000100000000000000000000000000FST                                         
022020070305043000010434300240CB000000000010CS0007955705420504300000010441300030SSCPGFY012030                                     AMERICAN PICKERS S11                    AMERICAN PICKERS S11                    0003700009081300000300000000000000000000000000SND                                         
022020070305043000010434300240CB000000000010CS0007941891420504300000010444300030BNGTHRN348030                                     AMERICAN PICKERS S11                    AMERICAN PICKERS S11                    0003700009081490000100000000000000000000000000OTH                                         
022020070305043000010434300240CB000000000010CS0007955705440504300000010451300030EGPPGPP118030                                     AMERICAN PICKERS S11                    AMERICAN PICKERS S11                    0003700009081800000300000000000000000000000000OTH                                         
022020070305043000010434300240CB000000000010CS0007955705430504300000010454300030EGPPGFB044030                                     AMERICAN PICKERS S11                    AMERICAN PICKERS S11                    0003700009081440000300000000000000000000000000OTH                                         
022020070305043000010434300240CB000000000010CS0007953532190504300000010461300030CAWHSEC046030                                     AMERICAN PICKERS S11                    AMERICAN PICKERS S11                    0003700009122830000100000000000000000000000000OTH                                         
022020070305043000010434300240CB000000000010CS0007955705450504300000010464300030BURTLEN009030                                     AMERICAN PICKERS S11                    AMERICAN PICKERS S11                    0003700009081610000300000000000000000000000000PEN                                         
022020070305043000010434300240CB000000000010CS0007941455280504300000010471300030TNTEIRB035030                                     AMERICAN PICKERS S11                    AMERICAN PICKERS S11                    0003700000000000000000000000000000000000000000LST                                         
022020070305043000011094500240CB000000000011CS0007947034690504300000011094500030GRYPGPP630030                                     AMERICAN PICKERS S11                    AMERICAN PICKERS S11                    0003700009081950000300000000000000000000000000FST                                         
022020070305043000011094500240CB000000000011CS0007955836840504300000011101500020IIBAVGI091020                                     AMERICAN PICKERS S11                    AMERICAN PICKERS S11                    0003700009085830000100000000000000000000000000SND                                         
022020070305043000011094500240CB000000000011CS0007947034730504300000011103500030SSCPGGL007030                                     AMERICAN PICKERS S11                    AMERICAN PICKERS S11                    0003700009081530000300000000000000000000000000OTH                                         
022020070305043000011094500240CB000000000011CS0007947034710504300000011110500030KCHFAIR001030                                     AMERICAN PICKERS S11                    AMERICAN PICKERS S11                    0003700009081310000300000000000000000000000000OTH                                         
022020070305043000011094500240CB000000000011CS0007953513780504300000011113500030ROTESBB002030                                     AMERICAN PICKERS S11                    AMERICAN PICKERS S11                    0003700009133920000100000000000000000000000000OTH                                         
022020070305043000011094500240CB000000000011CS0007955798100504300000011120500030EGPPGPP118030                                     AMERICAN PICKERS S11                    AMERICAN PICKERS S11                    0003700009081800000300000000000000000000000000OTH                                         
022020070305043000011094500240CB000000000011CS0007946042100504300000011123500030FOWSKYI158030                                     AMERICAN PICKERS S11                    AMERICAN PICKERS S11                    0003700009085080000100000000000000000000000000OTH                                         
022020070305043000011094500240CB000000000011CS0007947034740504300000011130500030HOGPGOL472030                                     AMERICAN PICKERS S11                    AMERICAN PICKERS S11                    0003700009081650000300000000000000000000000000PEN                                         
022020070305043000011094500240CB000000000011CS0007955702830504300000011133500010ROTTESC360010                                     AMERICAN PICKERS S11                    AMERICAN PICKERS S11                    0003700009088320000100000000000000000000000000LST                                         
022020070305043000011274100240CB000000000012CS0007941418510504300000011274100030SKYSBNT104030                                     AMERICAN PICKERS S11                    AMERICAN PICKERS S11                    0003700009085170000100000000000000000000000000FST                                         
022020070305043000011274100240CB000000000012CS0007946368250504300000011281100020BNGENEG323020                                     AMERICAN PICKERS S11                    AMERICAN PICKERS S11                    0003700009064930000100000000000000000000000000SND                                         
022020070305043000011274100240CB000000000012CS0007941863640504300000011283100020SLHFELH001020                                     AMERICAN PICKERS S11                    AMERICAN PICKERS S11                    0003700009051080000100000000000000000000000000OTH                                         
022020070305043000011274100240CB000000000012CS0007946458050504300000011285100020SLHINTM001020                                     AMERICAN PICKERS S11                    AMERICAN PICKERS S11                    0003700009092480000100000000000000000000000000OTH                                         
022020070305043000011274100240CB000000000012CS0007939443920504300000011291100030IIBLIDL250030                                     AMERICAN PICKERS S11                    AMERICAN PICKERS S11                    0003700009084060000100000000000000000000000000OTH                                         
022020070305043000011274100240CB000000000012CS0007947369580504300000011294100020CWWGARN037020                                     AMERICAN PICKERS S11                    AMERICAN PICKERS S11                    0003700009085670000100000000000000000000000000OTH                                         
022020070305043000011274100240CB000000000012CS0007946731100504300000011300100010TAGSULZ004010                                     AMERICAN PICKERS S11                    AMERICAN PICKERS S11                    0003700009119970000100000000000000000000000000OTH                                         
022020070305043000011274100240CB000000000012CS0007955706660504300000011301100030MIFPGOB571030                                     AMERICAN PICKERS S11                    AMERICAN PICKERS S11                    0003700009081720000300000000000000000000000000OTH                                         
022020070305043000011274100240CB000000000012CS0007955706670504300000011304100030SSCPGFY012030                                     AMERICAN PICKERS S11                    AMERICAN PICKERS S11                    0003700009081300000300000000000000000000000000PEN                                         
022020070305043000011274100240CB000000000012CS0007941711330504300000011311100030GRYVFBR661030                                     AMERICAN PICKERS S11                    AMERICAN PICKERS S11                    0003700009083260000100000000000000000000000000LST                                         
022020070305043000011401600240CB000000000013CS0007955691150504300000011401600030BNGTHRN348030                                     AMERICAN PICKERS S11                    AMERICAN PICKERS S11                    0003700009081490000100000000000000000000000000FST                                         
022020070305043000011401600240CB000000000013CS0007951643720504300000011404600030TNTEIRB035030                                     AMERICAN PICKERS S11                    AMERICAN PICKERS S11                    0003700000000000000000000000000000000000000000SND                                         
022020070305043000011401600240CB000000000013CS0007948928060504300000011411600030MCMASSS936030                                     AMERICAN PICKERS S11                    AMERICAN PICKERS S11                    0003700009108210000100000000000000000000000000OTH                                         
022020070305043000011401600240CB000000000013CS0007953547380504300000011414600030LKCTROC019030                                     AMERICAN PICKERS S11                    AMERICAN PICKERS S11                    0003700009088380000100000000000000000000000000OTH                                         
022020070305043000011401600240CB000000000013CS0007955798430504300000011421600030KCHFAIR001030                                     AMERICAN PICKERS S11                    AMERICAN PICKERS S11                    0003700009081310000300000000000000000000000000OTH                                         
022020070305043000011401600240CB000000000013CS0007951678300504300000011424600030CAWHSEC046030                                     AMERICAN PICKERS S11                    AMERICAN PICKERS S11                    0003700009122830000100000000000000000000000000OTH                                         
022020070305043000011401600240CB000000000013CS0007951792390504300000011431600040ODDSELE001040                                     AMERICAN PICKERS S11                    AMERICAN PICKERS S11                    0003700009092500000100000000000000000000000000PEN                                         
022020070305043000011401600240CB000000000013CS0007955836940504300000011435600020IIBAVGI091020                                     AMERICAN PICKERS S11                    AMERICAN PICKERS S11                    0003700009085830000100000000000000000000000000LST                                         
022020070305043000012104200300CB000000000014CS0007951743630504300000012104200020HKXAWBT001020                                     MODERN WHEELS OR CLASSIC STEALS (1)     MODERN WHEELS OR CLASSIC STEALS (1)     0003700009114960000100000000000000000000000000FST                                         
022020070305043000012104200300CB000000000014CS0007955704610504300000012110200040HNBIREL944040                                     MODERN WHEELS OR CLASSIC STEALS (1)     MODERN WHEELS OR CLASSIC STEALS (1)     0003700009117940000100000000000000000000000000SND                                         
022020070305043000012104200300CB000000000014CS0007953573770504300000012114200040BBHVMBR036040                                     MODERN WHEELS OR CLASSIC STEALS (1)     MODERN WHEELS OR CLASSIC STEALS (1)     0003700009067460000200000000000000000000000000OTH                                         
022020070305043000012104200300CB000000000014CS0007951823140504300000012122200030LKCBARN008030                                     MODERN WHEELS OR CLASSIC STEALS (1)     MODERN WHEELS OR CLASSIC STEALS (1)     0003700009088370000100000000000000000000000000OTH                                         
022020070305043000012104200300CB000000000014CS0007951823170504300000012125200010MCEJEAT084010                                     MODERN WHEELS OR CLASSIC STEALS (1)     MODERN WHEELS OR CLASSIC STEALS (1)     0003700009077080000100000000000000000000000000OTH                                         
022020070305043000012104200300CB000000000014CS0007955685730504300000012130200020BBHWEYB091020                                     MODERN WHEELS OR CLASSIC STEALS (1)     MODERN WHEELS OR CLASSIC STEALS (1)     0003700009075490000100000000000000000000000000OTH                                         
022020070305043000012104200300CB000000000014CS0007951925680504300000012132200030SSCPGGL007030                                     MODERN WHEELS OR CLASSIC STEALS (1)     MODERN WHEELS OR CLASSIC STEALS (1)     0003700009081530000300000000000000000000000000OTH                                         
022020070305043000012104200300CB000000000014CS0007951899350504300000012135200030IIBVOLK079030                                     MODERN WHEELS OR CLASSIC STEALS (1)     MODERN WHEELS OR CLASSIC STEALS (1)     0003700009092510000100000000000000000000000000OTH                                         
022020070305043000012104200300CB000000000014CS0007953557040504300000012142200030ROTESBB002030                                     MODERN WHEELS OR CLASSIC STEALS (1)     MODERN WHEELS OR CLASSIC STEALS (1)     0003700009133920000100000000000000000000000000OTH                                         
022020070305043000012104200300CB000000000014CS0007948976010504300000012145200030IIBLIDL250030                                     MODERN WHEELS OR CLASSIC STEALS (1)     MODERN WHEELS OR CLASSIC STEALS (1)     0003700009084060000100000000000000000000000000PEN                                         
022020070305043000012104200300CB000000000014CS0007951823150504300000012152200020HPSRGAV006020                                     MODERN WHEELS OR CLASSIC STEALS (1)     MODERN WHEELS OR CLASSIC STEALS (1)     0003700009115250000100000000000000000000000000LST                                         
022020070305043000012263900120EB000000000015CS0007951673630504300000012263900030TNTEIRB035030                                     MODERN WHEELS OR CLASSIC STEALS (1)     MODERN WHEELS OR CLASSIC STEALS (1)     0003700000000000000000000000000000000000000000FST                                         
022020070305043000012263900120EB000000000015CS0007948940210504300000012270900030MCMASSS936030                                     MODERN WHEELS OR CLASSIC STEALS (1)     MODERN WHEELS OR CLASSIC STEALS (1)     0003700009108210000100000000000000000000000000SND                                         
022020070305043000012263900120EB000000000015CS0007955676730504300000012273900030GRYPGPP630030                                     MODERN WHEELS OR CLASSIC STEALS (1)     MODERN WHEELS OR CLASSIC STEALS (1)     0003700009081950000300000000000000000000000000PEN                                         
022020070305043000012263900120EB000000000015CS0007951901860504300000012280900030QMPRENA201030                                     MODERN WHEELS OR CLASSIC STEALS (1)     MODERN WHEELS OR CLASSIC STEALS (1)     0003700009074210000300000000000000000000000000LST                                         
022020070305043000012403800300CB000000000016CS0007955685680504300000012403800020BBHWEYB091020                                     MODERN WHEELS OR CLASSIC STEALS (1)     MODERN WHEELS OR CLASSIC STEALS (1)     0003700009075490000100000000000000000000000000FST                                         
022020070305043000012403800300CB000000000016CS0007955708840504300000012405800030BURTLEN009030                                     MODERN WHEELS OR CLASSIC STEALS (1)     MODERN WHEELS OR CLASSIC STEALS (1)     0003700009081610000300000000000000000000000000SND                                         
022020070305043000012403800300CB000000000016CS0007955696520504300000012412800040BJFWMMH006040                                     MODERN WHEELS OR CLASSIC STEALS (1)     MODERN WHEELS OR CLASSIC STEALS (1)     0003700009131770000100000000000000000000000000OTH                                         
022020070305043000012403800300CB000000000016CS0007955693060504300000012420800030BNGTHRN348030                                     MODERN WHEELS OR CLASSIC STEALS (1)     MODERN WHEELS OR CLASSIC STEALS (1)     0003700009081490000100000000000000000000000000OTH                                         
022020070305043000012403800300CB000000000016CS0007951885750504300000012423800030LKCBARN008030                                     MODERN WHEELS OR CLASSIC STEALS (1)     MODERN WHEELS OR CLASSIC STEALS (1)     0003700009088370000100000000000000000000000000OTH                                         
022020070305043000012403800300CB000000000016CS0007951932250504300000012430800030HOGPGOL472030                                     MODERN WHEELS OR CLASSIC STEALS (1)     MODERN WHEELS OR CLASSIC STEALS (1)     0003700009081650000300000000000000000000000000OTH                                         
022020070305043000012403800300CB000000000016CS0007951890960504300000012433800030IIBVOLK079030                                     MODERN WHEELS OR CLASSIC STEALS (1)     MODERN WHEELS OR CLASSIC STEALS (1)     0003700009092510000100000000000000000000000000OTH                                         
022020070305043000012403800300CB000000000016CS0007953556050504300000012440800030ROTESBB002030                                     MODERN WHEELS OR CLASSIC STEALS (1)     MODERN WHEELS OR CLASSIC STEALS (1)     0003700009133920000100000000000000000000000000OTH                                         
022020070305043000012403800300CB000000000016CS0007955708850504300000012443800030KCHARIE001030                                     MODERN WHEELS OR CLASSIC STEALS (1)     MODERN WHEELS OR CLASSIC STEALS (1)     0003700009081050000300000000000000000000000000PEN                                         
022020070305043000012403800300CB000000000016CS0007948950010504300000012450800030IIBLIDL250030                                     MODERN WHEELS OR CLASSIC STEALS (1)     MODERN WHEELS OR CLASSIC STEALS (1)     0003700009084060000100000000000000000000000000LST                                         
022020070305043000013073200240CB000000000017CS0007951671260504300000013073200030TNTEIRB035030                                     TOP GEAR (22) (HD)                      TOP GEAR (22) (HD)                      0003700000000000000000000000000000000000000000FST                                         
022020070305043000013073200240CB000000000017CS0007948975560504300000013080200030IIBLIDL251030                                     TOP GEAR (22) (HD)                      TOP GEAR (22) (HD)                      0003700009083730000100000000000000000000000000SND                                         
022020070305043000013073200240CB000000000017CS0007955704170504300000013083200030TAGHNIR075030                                     TOP GEAR (22) (HD)                      TOP GEAR (22) (HD)                      0003700009128670000100000000000000000000000000OTH                                         
022020070305043000013073200240CB000000000017CS0007955708050504300000013090200030MIFPGOB571030                                     TOP GEAR (22) (HD)                      TOP GEAR (22) (HD)                      0003700009081720000300000000000000000000000000OTH                                         
022020070305043000013073200240CB000000000017CS0007955708060504300000013093200030KCHFAIR001030                                     TOP GEAR (22) (HD)                      TOP GEAR (22) (HD)                      0003700009081310000300000000000000000000000000OTH                                         
022020070305043000013073200240CB000000000017CS0007951923910504300000013100200030SSCPGGL007030                                     TOP GEAR (22) (HD)                      TOP GEAR (22) (HD)                      0003700009081530000300000000000000000000000000OTH                                         
022020070305043000013073200240CB000000000017CS0007951920480504300000013103200030QMPRENA201030                                     TOP GEAR (22) (HD)                      TOP GEAR (22) (HD)                      0003700009074210000300000000000000000000000000PEN                                         
022020070305043000013073200240CB000000000017CS0007951693890504300000013110200030CAWHSEC046030                                     TOP GEAR (22) (HD)                      TOP GEAR (22) (HD)                      0003700009122830000100000000000000000000000000LST                                         
022020070305043000013225600240CB000000000018CS0007955692310504300000013225600030BNGTHRN348030                                     TOP GEAR (22) (HD)                      TOP GEAR (22) (HD)                      0003700009081490000100000000000000000000000000FST                                         
022020070305043000013225600240CB000000000018CS0007953557250504300000013232600040BJFWMMH006040                                     TOP GEAR (22) (HD)                      TOP GEAR (22) (HD)                      0003700009131770000100000000000000000000000000SND                                         
022020070305043000013225600240CB000000000018CS0007951744100504300000013240600030CNYHMCI128030                                     TOP GEAR (22) (HD)                      TOP GEAR (22) (HD)                      0003700009070830000100000000000000000000000000OTH                                         
022020070305043000013225600240CB000000000018CS0007951824220504300000013243600030LKCBARN008030                                     TOP GEAR (22) (HD)                      TOP GEAR (22) (HD)                      0003700009088370000100000000000000000000000000OTH                                         
022020070305043000013225600240CB000000000018CS0007951824250504300000013250600010MCEJEAT084010                                     TOP GEAR (22) (HD)                      TOP GEAR (22) (HD)                      0003700009077080000100000000000000000000000000OTH                                         
022020070305043000013225600240CB000000000018CS0007955704780504300000013251600030SSCPGFY012030                                     TOP GEAR (22) (HD)                      TOP GEAR (22) (HD)                      0003700009081300000300000000000000000000000000OTH                                         
022020070305043000013225600240CB000000000018CS0007955704650504300000013254600040HNBIREL944040                                     TOP GEAR (22) (HD)                      TOP GEAR (22) (HD)                      0003700009117940000100000000000000000000000000PEN                                         
022020070305043000013225600240CB000000000018CS0007948953140504300000013262600030MCMASSS935030                                     TOP GEAR (22) (HD)                      TOP GEAR (22) (HD)                      0003700009108210000100000000000000000000000000LST                                         
022020070305043000013422500240CB000000000019CS0007939370670504300000013422500010ROTTESC361010                                     TOP GEAR (22) (HD)                      TOP GEAR (22) (HD)                      0003700009088320000100000000000000000000000000FST                                         
022020070305043000013422500240CB000000000019CS0007941423690504300000013423500030SKYSBNT104030                                     TOP GEAR (22) (HD)                      TOP GEAR (22) (HD)                      0003700009085170000100000000000000000000000000SND                                         
022020070305043000013422500240CB000000000019CS0007955704030504300000013430500030EGPPGFB044030                                     TOP GEAR (22) (HD)                      TOP GEAR (22) (HD)                      0003700009081440000300000000000000000000000000OTH                                         
022020070305043000013422500240CB000000000019CS0007941710910504300000013433500030GRYVFBR661030                                     TOP GEAR (22) (HD)                      TOP GEAR (22) (HD)                      0003700009083260000100000000000000000000000000OTH                                         
022020070305043000013422500240CB000000000019CS0007945700740504300000013440500030GRYBKID008030                                     TOP GEAR (22) (HD)                      TOP GEAR (22) (HD)                      0003700009082980000100000000000000000000000000OTH                                         
022020070305043000013422500240CB000000000019CS0007955704020504300000013443500030MIFPGOB571030                                     TOP GEAR (22) (HD)                      TOP GEAR (22) (HD)                      0003700009081720000300000000000000000000000000OTH                                         
022020070305043000013422500240CB000000000019CS0007951805450504300000013450500020KRODSSS447020                                     TOP GEAR (22) (HD)                      TOP GEAR (22) (HD)                      0003700009118870000100000000000000000000000000OTH                                         
022020070305043000013422500240CB000000000019CS0007955797620504300000013452500030KCHFAIR001030                                     TOP GEAR (22) (HD)                      TOP GEAR (22) (HD)                      0003700009081310000300000000000000000000000000PEN                                         
022020070305043000013422500240CB000000000019CS0007955692260504300000013455500030ROTESBB002030                                     TOP GEAR (22) (HD)                      TOP GEAR (22) (HD)                      0003700009133920000100000000000000000000000000LST                                         
022020070305043000014121800240CB000000000020CS0007955690310504300000014121800040BJFWMMH006040                                     WORLD'S MOST DANGEROUS ROADS (3) (HD) *8WORLD'S MOST DANGEROUS ROADS (3) (HD) *80003700009131770000100000000000000000000000000FST                                         
022020070305043000014121800240CB000000000020CS0007955835810504300000014125800020CWWGARN041020                                     WORLD'S MOST DANGEROUS ROADS (3) (HD) *8WORLD'S MOST DANGEROUS ROADS (3) (HD) *80003700009085660000100000000000000000000000000SND                                         
022020070305043000014121800240CB000000000020CS0007951678200504300000014131800030CAWHSEC046030                                     WORLD'S MOST DANGEROUS ROADS (3) (HD) *8WORLD'S MOST DANGEROUS ROADS (3) (HD) *80003700009122830000100000000000000000000000000OTH                                         
022020070305043000014121800240CB000000000020CS0007955834570504300000014134800020CWWGARN038020                                     WORLD'S MOST DANGEROUS ROADS (3) (HD) *8WORLD'S MOST DANGEROUS ROADS (3) (HD) *80003700009085670000100000000000000000000000000OTH                                         
022020070305043000014121800240CB000000000020CS0007955709670504300000014140800030KCHFAIR001030                                     WORLD'S MOST DANGEROUS ROADS (3) (HD) *8WORLD'S MOST DANGEROUS ROADS (3) (HD) *80003700009081310000300000000000000000000000000OTH                                         
022020070305043000014121800240CB000000000020CS0007955700440504300000014143800030FOWSKYI158030                                     WORLD'S MOST DANGEROUS ROADS (3) (HD) *8WORLD'S MOST DANGEROUS ROADS (3) (HD) *80003700009085030000100000000000000000000000000OTH                                         
022020070305043000014121800240CB000000000020CS0007951738280504300000014150800030CNYHMCI128030                                     WORLD'S MOST DANGEROUS ROADS (3) (HD) *8WORLD'S MOST DANGEROUS ROADS (3) (HD) *80003700009070830000100000000000000000000000000PEN                                         
022020070305043000014121800240CB000000000020CS0007955709200504300000014153800040HNBIREL944040                                     WORLD'S MOST DANGEROUS ROADS (3) (HD) *8WORLD'S MOST DANGEROUS ROADS (3) (HD) *80003700009117940000100000000000000000000000000LST                                         
022020070305043000014290700240CB000000000021CS0007941892930504300000014290700030BNGTHRN348030                                     WORLD'S MOST DANGEROUS ROADS (3) (HD) *8WORLD'S MOST DANGEROUS ROADS (3) (HD) *80003700009081490000100000000000000000000000000FST                                         
022020070305043000014290700240CB000000000021CS0007955709760504300000014293700030KCHARIE001030                                     WORLD'S MOST DANGEROUS ROADS (3) (HD) *8WORLD'S MOST DANGEROUS ROADS (3) (HD) *80003700009081050000300000000000000000000000000SND                                         
022020070305043000014290700240CB000000000021CS0007951633390504300000014300700040ODDSELE001040                                     WORLD'S MOST DANGEROUS ROADS (3) (HD) *8WORLD'S MOST DANGEROUS ROADS (3) (HD) *80003700009092500000100000000000000000000000000OTH                                         
022020070305043000014290700240CB000000000021CS0007951778090504300000014304700030JAVSSEA025030                                     WORLD'S MOST DANGEROUS ROADS (3) (HD) *8WORLD'S MOST DANGEROUS ROADS (3) (HD) *80003700009092430000100000000000000000000000000OTH                                         
022020070305043000014290700240CB000000000021CS0007955719140504300000014311700020SCCEMMA401020                                     WORLD'S MOST DANGEROUS ROADS (3) (HD) *8WORLD'S MOST DANGEROUS ROADS (3) (HD) *80003700009083880000100000000000000000000000000OTH                                         
022020070305043000014290700240CB000000000021CS0007955709770504300000014313700030EGPPGFB044030                                     WORLD'S MOST DANGEROUS ROADS (3) (HD) *8WORLD'S MOST DANGEROUS ROADS (3) (HD) *80003700009081440000300000000000000000000000000OTH                                         
022020070305043000014290700240CB000000000021CS0007945609270504300000014320700030TNTEIRB035030                                     WORLD'S MOST DANGEROUS ROADS (3) (HD) *8WORLD'S MOST DANGEROUS ROADS (3) (HD) *80003700000000000000000000000000000000000000000PEN                                         
022020070305043000014290700240CB000000000021CS0007955709750504300000014323700030SSCPGFY012030                                     WORLD'S MOST DANGEROUS ROADS (3) (HD) *8WORLD'S MOST DANGEROUS ROADS (3) (HD) *80003700009081300000300000000000000000000000000LST                                         
022020070305043000014442900240CB000000000022CS0007939369950504300000014442900010ROTTESC360010                                     WORLD'S MOST DANGEROUS ROADS (3) (HD) *8WORLD'S MOST DANGEROUS ROADS (3) (HD) *80003700009088320000100000000000000000000000000FST                                         
022020070305043000014442900240CB000000000022CS0007955706740504300000014443900040HNBIREL944040                                     WORLD'S MOST DANGEROUS ROADS (3) (HD) *8WORLD'S MOST DANGEROUS ROADS (3) (HD) *80003700009117940000100000000000000000000000000SND                                         
022020070305043000014442900240CB000000000022CS0007941890460504300000014451900030QMPVIRG024030                                     WORLD'S MOST DANGEROUS ROADS (3) (HD) *8WORLD'S MOST DANGEROUS ROADS (3) (HD) *80003700009092400000100000000000000000000000000OTH                                         
022020070305043000014442900240CB000000000022CS0007947479540504300000014454900030LKCBARN008030                                     WORLD'S MOST DANGEROUS ROADS (3) (HD) *8WORLD'S MOST DANGEROUS ROADS (3) (HD) *80003700009088370000100000000000000000000000000OTH                                         
022020070305043000014442900240CB000000000022CS0007955709570504300000014461900030MIFPGOB571030                                     WORLD'S MOST DANGEROUS ROADS (3) (HD) *8WORLD'S MOST DANGEROUS ROADS (3) (HD) *80003700009081720000300000000000000000000000000OTH                                         
022020070305043000014442900240CB000000000022CS0007955834690504300000014464900020CWWGARN037020                                     WORLD'S MOST DANGEROUS ROADS (3) (HD) *8WORLD'S MOST DANGEROUS ROADS (3) (HD) *80003700009085670000100000000000000000000000000OTH                                         
022020070305043000014442900240CB000000000022CS0007955682840504300000014470900020BBHWEYB091020                                     WORLD'S MOST DANGEROUS ROADS (3) (HD) *8WORLD'S MOST DANGEROUS ROADS (3) (HD) *80003700009075490000100000000000000000000000000OTH                                         
022020070305043000014442900240CB000000000022CS0007947479530504300000014472900030JMLSSRI002030                                     WORLD'S MOST DANGEROUS ROADS (3) (HD) *8WORLD'S MOST DANGEROUS ROADS (3) (HD) *80003700009097820000200000000000000000000000000PEN                                         
022020070305043000014442900240CB000000000022CS0007941710500504300000014475900030GRYVFBR661030                                     WORLD'S MOST DANGEROUS ROADS (3) (HD) *8WORLD'S MOST DANGEROUS ROADS (3) (HD) *80003700009083260000100000000000000000000000000LST                                         
022020070305043000015102700240CB000000000023CS0007941473690504300000015102700030SKYSBNT104030                                     RICK STEIN FROM VENICE TO ISTANBUL      RICK STEIN FROM VENICE TO ISTANBUL      0003700009085170000100000000000000000000000000FST                                         
022020070305043000015102700240CB000000000023CS0007939351460504300000015105700030IIBLIDL250030                                     RICK STEIN FROM VENICE TO ISTANBUL      RICK STEIN FROM VENICE TO ISTANBUL      0003700009084060000100000000000000000000000000SND                                         
022020070305043000015102700240CB000000000023CS0007955690130504300000015112700030BNGTHRN348030                                     RICK STEIN FROM VENICE TO ISTANBUL      RICK STEIN FROM VENICE TO ISTANBUL      0003700009081490000100000000000000000000000000OTH                                         
022020070305043000015102700240CB000000000023CS0007946601200504300000015115700030QMPRENA203030                                     RICK STEIN FROM VENICE TO ISTANBUL      RICK STEIN FROM VENICE TO ISTANBUL      0003700009092460000100000000000000000000000000OTH                                         
022020070305043000015102700240CB000000000023CS0007955694140504300000015122700030ROTESBB002030                                     RICK STEIN FROM VENICE TO ISTANBUL      RICK STEIN FROM VENICE TO ISTANBUL      0003700009133920000100000000000000000000000000OTH                                         
022020070305043000015102700240CB000000000023CS0007951680540504300000015125700030CAWHSEC046030                                     RICK STEIN FROM VENICE TO ISTANBUL      RICK STEIN FROM VENICE TO ISTANBUL      0003700009122830000100000000000000000000000000OTH                                         
022020070305043000015102700240CB000000000023CS0007953513840504300000015132700040BJFWMMH006040                                     RICK STEIN FROM VENICE TO ISTANBUL      RICK STEIN FROM VENICE TO ISTANBUL      0003700009131770000100000000000000000000000000PEN                                         
022020070305043000015102700240CB000000000023CS0007944012550504300000015140700020BURTSPK198020                                     RICK STEIN FROM VENICE TO ISTANBUL      RICK STEIN FROM VENICE TO ISTANBUL      0003700009076190000100000000000000000000000000LST                                         
022020070305043000015252300240CB000000000024CS0007941711490504300000015252300030GRYVFBR661030                                     RICK STEIN FROM VENICE TO ISTANBUL      RICK STEIN FROM VENICE TO ISTANBUL      0003700009083260000100000000000000000000000000FST                                         
022020070305043000015252300240CB000000000024CS0007955716060504300000015255300020SCCEMMA401020                                     RICK STEIN FROM VENICE TO ISTANBUL      RICK STEIN FROM VENICE TO ISTANBUL      0003700009083880000100000000000000000000000000SND                                         
022020070305043000015252300240CB000000000024CS0007941892150504300000015261300030QMPVIRG024030                                     RICK STEIN FROM VENICE TO ISTANBUL      RICK STEIN FROM VENICE TO ISTANBUL      0003700009092400000100000000000000000000000000OTH                                         
022020070305043000015252300240CB000000000024CS0007946388690504300000015264300030JAVSSEA025030                                     RICK STEIN FROM VENICE TO ISTANBUL      RICK STEIN FROM VENICE TO ISTANBUL      0003700009092430000100000000000000000000000000OTH                                         
022020070305043000015252300240CB000000000024CS0007938607090504300000015271300010MCEJEAT084010                                     RICK STEIN FROM VENICE TO ISTANBUL      RICK STEIN FROM VENICE TO ISTANBUL      0003700009077080000100000000000000000000000000OTH                                         
022020070305043000015252300240CB000000000024CS0007947481360504300000015272300030LKCTROC019030                                     RICK STEIN FROM VENICE TO ISTANBUL      RICK STEIN FROM VENICE TO ISTANBUL      0003700009088380000100000000000000000000000000OTH                                         
022020070305043000015252300240CB000000000024CS0007951623390504300000015275300040ODDSELE001040                                     RICK STEIN FROM VENICE TO ISTANBUL      RICK STEIN FROM VENICE TO ISTANBUL      0003700009092500000100000000000000000000000000OTH                                         
022020070305043000015252300240CB000000000024CS0007955700090504300000015283300030TAGHNIR075030                                     RICK STEIN FROM VENICE TO ISTANBUL      RICK STEIN FROM VENICE TO ISTANBUL      0003700009128670000100000000000000000000000000PEN                                         
022020070305043000015252300240CB000000000024CS0007939371540504300000015290300020ROTTESC356020                                     RICK STEIN FROM VENICE TO ISTANBUL      RICK STEIN FROM VENICE TO ISTANBUL      0003700009088310000100000000000000000000000000LST                                         
022020070305043000015425400240CB000000000025CS0007955681380504300000015425400030SSCPGOB006030                                     RICK STEIN FROM VENICE TO ISTANBUL      RICK STEIN FROM VENICE TO ISTANBUL      0003700009081660000300000000000000000000000000FST                                         
022020070305043000015425400240CB000000000025CS0007953520350504300000015432400020TAGSULZ003020                                     RICK STEIN FROM VENICE TO ISTANBUL      RICK STEIN FROM VENICE TO ISTANBUL      0003700009119960000100000000000000000000000000SND                                         
022020070305043000015425400240CB000000000025CS0007951677460504300000015434400030CAWHSEC046030                                     RICK STEIN FROM VENICE TO ISTANBUL      RICK STEIN FROM VENICE TO ISTANBUL      0003700009122830000100000000000000000000000000OTH                                         
022020070305043000015425400240CB000000000025CS0007951882420504300000015441400030LKCBARN008030                                     RICK STEIN FROM VENICE TO ISTANBUL      RICK STEIN FROM VENICE TO ISTANBUL      0003700009088370000100000000000000000000000000OTH                                         
022020070305043000015425400240CB000000000025CS0007955721510504300000015444400020HKXVACC017020                                     RICK STEIN FROM VENICE TO ISTANBUL      RICK STEIN FROM VENICE TO ISTANBUL      0003700009115410000100000000000000000000000000OTH                                         
022020070305043000015425400240CB000000000025CS0007948972580504300000015450400030IIBLIDL250030                                     RICK STEIN FROM VENICE TO ISTANBUL      RICK STEIN FROM VENICE TO ISTANBUL      0003700009084060000100000000000000000000000000OTH                                         
022020070305043000015425400240CB000000000025CS0007951624210504300000015453400030IIBVOLK079030                                     RICK STEIN FROM VENICE TO ISTANBUL      RICK STEIN FROM VENICE TO ISTANBUL      0003700009092510000100000000000000000000000000OTH                                         
022020070305043000015425400240CB000000000025CS0007955682730504300000015460400020BBHWEYB091020                                     RICK STEIN FROM VENICE TO ISTANBUL      RICK STEIN FROM VENICE TO ISTANBUL      0003700009075490000100000000000000000000000000PEN                                         
022020070305043000015425400240CB000000000025CS0007951647140504300000015462400030TNTEIRB035030                                     RICK STEIN FROM VENICE TO ISTANBUL      RICK STEIN FROM VENICE TO ISTANBUL      0003700000000000000000000000000000000000000000LST                                         
022020070305043000016104600240CB000000000026CS0007955703080504300000016104600030MIFPGOB571030                                     TOP GEAR (22) (HD)                      TOP GEAR (22) (HD)                      0003700009081720000300000000000000000000000000FST                                         
022020070305043000016104600240CB000000000026CS0007951738580504300000016111600020HKXAWBT001020                                     TOP GEAR (22) (HD)                      TOP GEAR (22) (HD)                      0003700009114960000100000000000000000000000000SND                                         
022020070305043000016104600240CB000000000026CS0007951792140504300000016113600030KRODSSS446030                                     TOP GEAR (22) (HD)                      TOP GEAR (22) (HD)                      0003700009118860000100000000000000000000000000OTH                                         
022020070305043000016104600240CB000000000026CS0007955703090504300000016120600030KCHFAIR001030                                     TOP GEAR (22) (HD)                      TOP GEAR (22) (HD)                      0003700009081310000300000000000000000000000000OTH                                         
022020070305043000016104600240CB000000000026CS0007955703100504300000016123600030SSCPGFY012030                                     TOP GEAR (22) (HD)                      TOP GEAR (22) (HD)                      0003700009081300000300000000000000000000000000OTH                                         
022020070305043000016104600240CB000000000026CS0007955703110504300000016130600030BURTLEN009030                                     TOP GEAR (22) (HD)                      TOP GEAR (22) (HD)                      0003700009081610000300000000000000000000000000OTH                                         
022020070305043000016104600240CB000000000026CS0007955834470504300000016133600020CWWGARN038020                                     TOP GEAR (22) (HD)                      TOP GEAR (22) (HD)                      0003700009085670000100000000000000000000000000OTH                                         
022020070305043000016104600240CB000000000026CS0007955835990504300000016135600020HKXFNQT010020                                     TOP GEAR (22) (HD)                      TOP GEAR (22) (HD)                      0003700009115180000100000000000000000000000000PEN                                         
022020070305043000016104600240CB000000000026CS0007951589590504300000016141600030TAGHNIR075030                                     TOP GEAR (22) (HD)                      TOP GEAR (22) (HD)                      0003700009128670000100000000000000000000000000LST                                         
022020070305043000016324300240CB000000000027CS0007955708730504300000016324300040HNBIREL944040                                     TOP GEAR (22) (HD)                      TOP GEAR (22) (HD)                      0003700009117940000100000000000000000000000000FST                                         
022020070305043000016324300240CB000000000027CS0007955699890504300000016332300030FOWSKYI158030                                     TOP GEAR (22) (HD)                      TOP GEAR (22) (HD)                      0003700009085030000100000000000000000000000000SND                                         
022020070305043000016324300240CB000000000027CS0007951513410504300000016335300030CAWHSEC046030                                     TOP GEAR (22) (HD)                      TOP GEAR (22) (HD)                      0003700009122830000100000000000000000000000000OTH                                         
022020070305043000016324300240CB000000000027CS0007951929830504300000016342300030LKCBARN008030                                     TOP GEAR (22) (HD)                      TOP GEAR (22) (HD)                      0003700009088370000100000000000000000000000000OTH                                         
022020070305043000016324300240CB000000000027CS0007955719950504300000016345300020HKXVACC018020                                     TOP GEAR (22) (HD)                      TOP GEAR (22) (HD)                      0003700009115410000100000000000000000000000000OTH                                         
022020070305043000016324300240CB000000000027CS0007953471100504300000016351300030ROTESBB002030                                     TOP GEAR (22) (HD)                      TOP GEAR (22) (HD)                      0003700009133920000100000000000000000000000000OTH                                         
022020070305043000016324300240CB000000000027CS0007951611250504300000016354300030QMPRENA201030                                     TOP GEAR (22) (HD)                      TOP GEAR (22) (HD)                      0003700009074210000300000000000000000000000000PEN                                         
022020070305043000016324300240CB000000000027CS0007948950040504300000016361300030IIBLIDL251030                                     TOP GEAR (22) (HD)                      TOP GEAR (22) (HD)                      0003700009083730000100000000000000000000000000LST                                         
022020070305043000016472700240EB000000000028CS0007946376760504300000016472700010ROTEIRE011010                                     TOP GEAR (22) (HD)                      TOP GEAR (22) (HD)                      0003700009095270000200000000000000000000000000FST                                         
022020070305043000016472700240EB000000000028CS0007955699750504300000016473700030TAGHNIR075030                                     TOP GEAR (22) (HD)                      TOP GEAR (22) (HD)                      0003700009128670000100000000000000000000000000SND                                         
022020070305043000016472700240EB000000000028CS0007946042920504300000016480700030FOWSKYI158030                                     TOP GEAR (22) (HD)                      TOP GEAR (22) (HD)                      0003700009085080000100000000000000000000000000OTH                                         
022020070305043000016472700240EB000000000028CS0007955719360504300000016483700010MCEJEAT084010                                     TOP GEAR (22) (HD)                      TOP GEAR (22) (HD)                      0003700009077080000100000000000000000000000000OTH                                         
022020070305043000016472700240EB000000000028CS0007950039710504300000016484700030VSTQTDV015030                                     TOP GEAR (22) (HD)                      TOP GEAR (22) (HD)                      0003700000000000000000000000000000000000000000OTH                                         
022020070305043000016472700240EB000000000028CS0007953573490504300000016491700040BJFWMMH006040                                     TOP GEAR (22) (HD)                      TOP GEAR (22) (HD)                      0003700009131770000100000000000000000000000000OTH                                         
022020070305043000016472700240EB000000000028CS0007955693220504300000016495700030BNGTHRN348030                                     TOP GEAR (22) (HD)                      TOP GEAR (22) (HD)                      0003700009081490000100000000000000000000000000OTH                                         
022020070305043000016472700240EB000000000028CS0007946600510504300000016502700030IIBVOLK078030                                     TOP GEAR (22) (HD)                      TOP GEAR (22) (HD)                      0003700009092510000100000000000000000000000000PEN                                         
022020070305043000016472700240EB000000000028CS0007945700640504300000016505700030GRYBKID008030                                     TOP GEAR (22) (HD)                      TOP GEAR (22) (HD)                      0003700009082980000100000000000000000000000000LST                                         
022020070305043000017140900240CB000000000029CS0007941422900504300000017140900030SKYSBNT104030                                     TOP GEAR (22) (HD)                      TOP GEAR (22) (HD)                      0003700009085170000100000000000000000000000000FST                                         
022020070305043000017140900240CB000000000029CS0007939475700504300000017143900040CAWSVOB045040                                     TOP GEAR (22) (HD)                      TOP GEAR (22) (HD)                      0003700009085210000200000000000000000000000000SND                                         
022020070305043000017140900240CB000000000029CS0007946459010504300000017151900040QMPAXAN109040                                     TOP GEAR (22) (HD)                      TOP GEAR (22) (HD)                      0003700009060120000100000000000000000000000000OTH                                         
022020070305043000017140900240CB000000000029CS0007946368940504300000017155900020BNGENEG323020                                     TOP GEAR (22) (HD)                      TOP GEAR (22) (HD)                      0003700009064930000100000000000000000000000000OTH                                         
022020070305043000017140900240CB000000000029CS0007944419230504300000017161900010VCCDOMN197010                                     TOP GEAR (22) (HD)                      TOP GEAR (22) (HD)                      0003700009122090000100000000000000000000000000OTH                                         
022020070305043000017140900240CB000000000029CS0007955834390504300000017162900020CWWGARN037020                                     TOP GEAR (22) (HD)                      TOP GEAR (22) (HD)                      0003700009085670000100000000000000000000000000OTH                                         
022020070305043000017140900240CB000000000029CS0007955798600504300000017164900030MCEPRKI007030                                     TOP GEAR (22) (HD)                      TOP GEAR (22) (HD)                      0003700009125150000200000000000000000000000000OTH                                         
022020070305043000017140900240CB000000000029CS0007946732060504300000017171900020TAGSULZ003020                                     TOP GEAR (22) (HD)                      TOP GEAR (22) (HD)                      0003700009119960000100000000000000000000000000OTH                                         
022020070305043000017140900240CB000000000029CS0007939475710504300000017173900020IPCSVFM172020                                     TOP GEAR (22) (HD)                      TOP GEAR (22) (HD)                      0003700009085210000200000000000000000000000000PEN                                         
022020070305043000017140900240CB000000000029CS0007941866100504300000017175900010SLHFELH005010                                     TOP GEAR (22) (HD)                      TOP GEAR (22) (HD)                      0003700009051080000100000000000000000000000000LST                                         
022020070305043000017271800240CB000000000030CS0007951677870504300000017271800030CAWHSEC046030                                     TOP GEAR (22) (HD)                      TOP GEAR (22) (HD)                      0003700009122830000100000000000000000000000000FST                                         
022020070305043000017271800240CB000000000030CS0007955710220504300000017274800030KCHFAIR001030                                     TOP GEAR (22) (HD)                      TOP GEAR (22) (HD)                      0003700009081310000300000000000000000000000000SND                                         
022020070305043000017271800240CB000000000030CS0007946040620504300000017281800030FOWSKYI158030                                     TOP GEAR (22) (HD)                      TOP GEAR (22) (HD)                      0003700009085080000100000000000000000000000000OTH                                         
022020070305043000017271800240CB000000000030CS0007939149560504300000017284800030VSTQTDV015030                                     TOP GEAR (22) (HD)                      TOP GEAR (22) (HD)                      0003700000000000000000000000000000000000000000OTH                                         
022020070305043000017271800240CB000000000030CS0007955710230504300000017291800030BURTLEN009030                                     TOP GEAR (22) (HD)                      TOP GEAR (22) (HD)                      0003700009081610000300000000000000000000000000OTH                                         
022020070305043000017271800240CB000000000030CS0007946608590504300000017294800030IIBVOLK079030                                     TOP GEAR (22) (HD)                      TOP GEAR (22) (HD)                      0003700009092510000100000000000000000000000000OTH                                         
022020070305043000017271800240CB000000000030CS0007955710240504300000017301800030SSCPGFY012030                                     TOP GEAR (22) (HD)                      TOP GEAR (22) (HD)                      0003700009081300000300000000000000000000000000PEN                                         
022020070305043000017271800240CB000000000030CS0007955710210504300000017304800030MIFPGOB571030                                     TOP GEAR (22) (HD)                      TOP GEAR (22) (HD)                      0003700009081720000300000000000000000000000000LST                                         
022020070305043000017422900240CB000000000031CS0007941711200504300000017422900030GRYVFBR661030                                     TOP GEAR (22) (HD)                      TOP GEAR (22) (HD)                      0003700009083260000100000000000000000000000000FST                                         
022020070305043000017422900240CB000000000031CS0007943970490504300000017425900030CWWLORE074030                                     TOP GEAR (22) (HD)                      TOP GEAR (22) (HD)                      0003700009085710000100000000000000000000000000SND                                         
022020070305043000017422900240CB000000000031CS0007946744110504300000017432900020TAGSULZ003020                                     TOP GEAR (22) (HD)                      TOP GEAR (22) (HD)                      0003700009119960000100000000000000000000000000OTH                                         
022020070305043000017422900240CB000000000031CS0007941891850504300000017434900030BNGTHRN348030                                     TOP GEAR (22) (HD)                      TOP GEAR (22) (HD)                      0003700009081490000100000000000000000000000000OTH                                         
022020070305043000017422900240CB000000000031CS0007955694170504300000017441900040BJFWMMH006040                                     TOP GEAR (22) (HD)                      TOP GEAR (22) (HD)                      0003700009131770000100000000000000000000000000OTH                                         
022020070305043000017422900240CB000000000031CS0007951916490504300000017445900030LKCBARN008030                                     TOP GEAR (22) (HD)                      TOP GEAR (22) (HD)                      0003700009088370000100000000000000000000000000OTH                                         
022020070305043000017422900240CB000000000031CS0007946692400504300000017452900030KCSPEUG112030                                     TOP GEAR (22) (HD)                      TOP GEAR (22) (HD)                      0003700009085540000100000000000000000000000000PEN                                         
022020070305043000017422900240CB000000000031CS0007941442160504300000017455900030SKYSBNT104030                                     TOP GEAR (22) (HD)                      TOP GEAR (22) (HD)                      0003700009085170000100000000000000000000000000LST                                         
022020070305043000018145200240CB000000000032CS0007951674100504300000018145200030TNTEIRB035030                                     TASKMASTER (9)                          TASKMASTER (9)                          0003700000000000000000000000000000000000000000FST                                         
022020070305043000018145200240CB000000000032CS0007939537000504300000018152200030IIBLIDL250030                                     TASKMASTER (9)                          TASKMASTER (9)                          0003700009084060000100000000000000000000000000SND                                         
022020070305043000018145200240CB000000000032CS0007951940780504300000018155200030JAVSSEA025030                                     TASKMASTER (9)                          TASKMASTER (9)                          0003700009092430000100000000000000000000000000OTH                                         
022020070305043000018145200240CB000000000032CS0007951747930504300000018162200030ROTFLTE034030                                     TASKMASTER (9)                          TASKMASTER (9)                          0003700009126570000100000000000000000000000000OTH                                         
022020070305043000018145200240CB000000000032CS0007951953380504300000018165200030HOGPGOL472030                                     TASKMASTER (9)                          TASKMASTER (9)                          0003700009081650000300000000000000000000000000OTH                                         
022020070305043000018145200240CB000000000032CS0007951945480504300000018172200030QMPRENA201030                                     TASKMASTER (9)                          TASKMASTER (9)                          0003700009074210000300000000000000000000000000OTH                                         
022020070305043000018145200240CB000000000032CS0007951756580504300000018175200020BBHWEYB091020                                     TASKMASTER (9)                          TASKMASTER (9)                          0003700009075490000100000000000000000000000000PEN                                         
022020070305043000018145200240CB000000000032CS0007955705670504300000018181200040HNBIREL944040                                     TASKMASTER (9)                          TASKMASTER (9)                          0003700009117940000100000000000000000000000000LST                                         
022020070305043000018284300240CB000000000033CS0007951515400504300000018284300030CAWHSEC046030                                     TASKMASTER (9)                          TASKMASTER (9)                          0003700009122830000100000000000000000000000000FST                                         
022020070305043000018284300240CB000000000033CS0007948935950504300000018291300030MCMASSS936030                                     TASKMASTER (9)                          TASKMASTER (9)                          0003700009108210000100000000000000000000000000SND                                         
022020070305043000018284300240CB000000000033CS0007951853650504300000018294300020HPSRGAV006020                                     TASKMASTER (9)                          TASKMASTER (9)                          0003700009115250000100000000000000000000000000OTH                                         
022020070305043000018284300240CB000000000033CS0007951591580504300000018300300030TAGHNIR075030                                     TASKMASTER (9)                          TASKMASTER (9)                          0003700009128670000100000000000000000000000000OTH                                         
022020070305043000018284300240CB000000000033CS0007951692490504300000018303300040BJFWMMH006040                                     TASKMASTER (9)                          TASKMASTER (9)                          0003700009131770000100000000000000000000000000OTH                                         
022020070305043000018284300240CB000000000033CS0007938530040504300000018311300030ROTESBB002030                                     TASKMASTER (9)                          TASKMASTER (9)                          0003700009133920000100000000000000000000000000OTH                                         
022020070305043000018284300240CB000000000033CS0007951853660504300000018314300020TAGNUIE588020                                     TASKMASTER (9)                          TASKMASTER (9)                          0003700009115350000100000000000000000000000000OTH                                         
022020070305043000018284300240CB000000000033CS0007951754090504300000018320300020BONBENE008020                                     TASKMASTER (9)                          TASKMASTER (9)                          0003700009092470000100000000000000000000000000PEN                                         
022020070305043000018284300240CB000000000033CS0007955717330504300000018322300020SCCEMMA401020                                     TASKMASTER (9)                          TASKMASTER (9)                          0003700009083880000100000000000000000000000000LST                                         
022020070305043000018454400240CB000000000034CS0007941892680504300000018454400030BNGTHRN348030                                     TASKMASTER (9)                          TASKMASTER (9)                          0003700009081490000100000000000000000000000000FST                                         
022020070305043000018454400240CB000000000034CS0007943944150504300000018461400030HOGKLML069030                                     TASKMASTER (9)                          TASKMASTER (9)                          0003700009083930000100000000000000000000000000SND                                         
022020070305043000018454400240CB000000000034CS0007938534950504300000018464400030ROTESBB002030                                     TASKMASTER (9)                          TASKMASTER (9)                          0003700009133920000100000000000000000000000000OTH                                         
022020070305043000018454400240CB000000000034CS0007943911560504300000018471400030IIBRSAC144030                                     TASKMASTER (9)                          TASKMASTER (9)                          0003700009114010000100000000000000000000000000OTH                                         
022020070305043000018454400240CB000000000034CS0007943971290504300000018474400020CWWGARN041020                                     TASKMASTER (9)                          TASKMASTER (9)                          0003700009085660000100000000000000000000000000OTH                                         
022020070305043000018454400240CB000000000034CS0007943944170504300000018480400020AEDUNSF291020                                     TASKMASTER (9)                          TASKMASTER (9)                          0003700009099100000100000000000000000000000000OTH                                         
022020070305043000018454400240CB000000000034CS0007941455900504300000018482400030TNTEIRB035030                                     TASKMASTER (9)                          TASKMASTER (9)                          0003700000000000000000000000000000000000000000OTH                                         
022020070305043000018454400240CB000000000034CS0007951604370504300000018485400020SLHINTM001020                                     TASKMASTER (9)                          TASKMASTER (9)                          0003700009092480000100000000000000000000000000PEN                                         
022020070305043000018454400240CB000000000034CS0007939333560504300000018491400030IIBLIDL250030                                     TASKMASTER (9)                          TASKMASTER (9)                          0003700009084060000100000000000000000000000000LST                                         
022020070305043000019190700300CB000000000035CS0007945701450504300000019190700030GRYBKID008030                                     RICHARD OSMAN'S HOUSE OF GAMES (02)     RICHARD OSMAN'S HOUSE OF GAMES (02)     0003700009082980000100000000000000000000000000FST                                         
022020070305043000019190700300CB000000000035CS0007955769900504300000019193700010SCCEMMA401010                                     RICHARD OSMAN'S HOUSE OF GAMES (02)     RICHARD OSMAN'S HOUSE OF GAMES (02)     0003700009083960000100000000000000000000000000SND                                         
022020070305043000019190700300CB000000000035CS0007946601090504300000019194700030QMPRENA201030                                     RICHARD OSMAN'S HOUSE OF GAMES (02)     RICHARD OSMAN'S HOUSE OF GAMES (02)     0003700009074210000300000000000000000000000000OTH                                         
022020070305043000019190700300CB000000000035CS0007948642840504300000019201700030MCEPRKI007030                                     RICHARD OSMAN'S HOUSE OF GAMES (02)     RICHARD OSMAN'S HOUSE OF GAMES (02)     0003700009125150000200000000000000000000000000OTH                                         
022020070305043000019190700300CB000000000035CS0007951678450504300000019204700030CAWHSEC046030                                     RICHARD OSMAN'S HOUSE OF GAMES (02)     RICHARD OSMAN'S HOUSE OF GAMES (02)     0003700009122830000100000000000000000000000000OTH                                         
022020070305043000019190700300CB000000000035CS0007951746610504300000019211700030CNYHMCI128030                                     RICHARD OSMAN'S HOUSE OF GAMES (02)     RICHARD OSMAN'S HOUSE OF GAMES (02)     0003700009070830000100000000000000000000000000OTH                                         
022020070305043000019190700300CB000000000035CS0007948909920504300000019214700010VCCDOMN197010                                     RICHARD OSMAN'S HOUSE OF GAMES (02)     RICHARD OSMAN'S HOUSE OF GAMES (02)     0003700009122090000100000000000000000000000000OTH                                         
022020070305043000019190700300CB000000000035CS0007946043030504300000019215700030FOWSKYI158030                                     RICHARD OSMAN'S HOUSE OF GAMES (02)     RICHARD OSMAN'S HOUSE OF GAMES (02)     0003700009085080000100000000000000000000000000OTH                                         
022020070305043000019190700300CB000000000035CS0007946377560504300000019222700010ROTEIRE011010                                     RICHARD OSMAN'S HOUSE OF GAMES (02)     RICHARD OSMAN'S HOUSE OF GAMES (02)     0003700009095270000200000000000000000000000000OTH                                         
022020070305043000019190700300CB000000000035CS0007946340180504300000019223700030MCENESP713030                                     RICHARD OSMAN'S HOUSE OF GAMES (02)     RICHARD OSMAN'S HOUSE OF GAMES (02)     0003700009088300000200000000000000000000000000OTH                                         
022020070305043000019190700300CB000000000035CS0007951600440504300000019230700030TAGHNIR075030                                     RICHARD OSMAN'S HOUSE OF GAMES (02)     RICHARD OSMAN'S HOUSE OF GAMES (02)     0003700009128670000100000000000000000000000000PEN                                         
022020070305043000019190700300CB000000000035CS0007939431810504300000019233700030MCMASSS936030                                     RICHARD OSMAN'S HOUSE OF GAMES (02)     RICHARD OSMAN'S HOUSE OF GAMES (02)     0003700009108210000100000000000000000000000000LST                                         
022020070305043000019365800120EB000000000036CS0007944054160504300000019365800020BURTSPK198020                                     RICHARD OSMAN'S HOUSE OF GAMES (02)     QI (12)                                 0003700009076190000100000000000000000000000000FST                                         
022020070305043000019365800120EB000000000036CS0007939374620504300000019371800030IIBLIDL250030                                     RICHARD OSMAN'S HOUSE OF GAMES (02)     QI (12)                                 0003700009084060000100000000000000000000000000SND                                         
022020070305043000019365800120EB000000000036CS0007938544280504300000019374800030ROTESBB002030                                     RICHARD OSMAN'S HOUSE OF GAMES (02)     QI (12)                                 0003700009133920000100000000000000000000000000OTH                                         
022020070305043000019365800120EB000000000036CS0007947239590504300000019381800020YRLBELB007020                                     RICHARD OSMAN'S HOUSE OF GAMES (02)     QI (12)                                 0003700009076940000100000000000000000000000000PEN                                         
022020070305043000019365800120EB000000000036CS0007951733590504300000019383800020CWWGARN038020                                     RICHARD OSMAN'S HOUSE OF GAMES (02)     QI (12)                                 0003700009085670000100000000000000000000000000LST                                         
022020070305043000019545700300CB000000000037CS0007955769880504300000019545700010SCCEMMA401010                                     QI (12)                                 QI (12)                                 0003700009083960000100000000000000000000000000FST                                         
022020070305043000019545700300CB000000000037CS0007946340140504300000019550700030MCENESP713030                                     QI (12)                                 QI (12)                                 0003700009088300000200000000000000000000000000SND                                         
022020070305043000019545700300CB000000000037CS0007946376990504300000019553700030ROTEIRE006030                                     QI (12)                                 QI (12)                                 0003700009095270000200000000000000000000000000OTH                                         
022020070305043000019545700300CB000000000037CS0007948642780504300000019560700030MCEPRKI007030                                     QI (12)                                 QI (12)                                 0003700009125150000200000000000000000000000000OTH                                         
022020070305043000019545700300CB000000000037CS0007945701030504300000019563700030GRYBKID008030                                     QI (12)                                 QI (12)                                 0003700009082980000100000000000000000000000000OTH                                         
022020070305043000019545700300CB000000000037CS0007946042560504300000019570700030FOWSKYI158030                                     QI (12)                                 QI (12)                                 0003700009085080000100000000000000000000000000OTH                                         
022020070305043000019545700300CB000000000037CS0007943911400504300000019573700030IIBRSAC144030                                     QI (12)                                 QI (12)                                 0003700009114010000100000000000000000000000000OTH                                         
022020070305043000019545700300CB000000000037CS0007948928950504300000019580700030MCMASSS936030                                     QI (12)                                 QI (12)                                 0003700009108210000100000000000000000000000000OTH                                         
022020070305043000019545700300CB000000000037CS0007946600750504300000019583700030IIBVOLK079030                                     QI (12)                                 QI (12)                                 0003700009092510000100000000000000000000000000OTH                                         
022020070305043000019545700300CB000000000037CS0007951760230504300000019590700020BBHWEYB091020                                     QI (12)                                 QI (12)                                 0003700009075490000100000000000000000000000000PEN                                         
022020070305043000019545700300CB000000000037CS0007955693090504300000019592700030BNGTHRN348030                                     QI (12)                                 QI (12)                                 0003700009081490000100000000000000000000000000LST                                         
022020070305043000020152100210EB000000000038CS0007939418090504300000020152100030MCMASSS935030                                     QI (12)                                 QI (12)                                 0003700009108210000100000000000000000000000000FST                                         
022020070305043000020152100210EB000000000038CS0007946605300504300000020155100030KCSPEUG112030                                     QI (12)                                 QI (12)                                 0003700009085540000100000000000000000000000000SND                                         
022020070305043000020152100210EB000000000038CS0007945643730504300000020162100030TNTEIRB035030                                     QI (12)                                 QI (12)                                 0003700000000000000000000000000000000000000000OTH                                         
022020070305043000020152100210EB000000000038CS0007951763240504300000020165100020SLHINTM001020                                     QI (12)                                 QI (12)                                 0003700009092480000100000000000000000000000000OTH                                         
022020070305043000020152100210EB000000000038CS0007948937140504300000020171100010VCCDOMN197010                                     QI (12)                                 QI (12)                                 0003700009122090000100000000000000000000000000OTH                                         
022020070305043000020152100210EB000000000038CS0007951678430504300000020172100030CAWHSEC046030                                     QI (12)                                 QI (12)                                 0003700009122830000100000000000000000000000000OTH                                         
022020070305043000020152100210EB000000000038CS0007951693150504300000020175100040BJFWMMH006040                                     QI (12)                                 QI (12)                                 0003700009131770000100000000000000000000000000PEN                                         
022020070305043000020152100210EB000000000038CS0007944033410504300000020183100020CWWGARN041020                                     QI (12)                                 QI (12)                                 0003700009085660000100000000000000000000000000LST                                         
022020070305043000020342200300CB000000000039CS0007946624080504300000020342200030QMPRENA203030                                     QI (12)                                 QI (12)                                 0003700009092460000100000000000000000000000000FST                                         
022020070305043000020342200300CB000000000039CS0007955676090504300000020345200030KCHFAIR001030                                     QI (12)                                 QI (12)                                 0003700009081310000300000000000000000000000000SND                                         
022020070305043000020342200300CB000000000039CS0007955770000504300000020352200010SCCEMMA401010                                     QI (12)                                 QI (12)                                 0003700009083960000100000000000000000000000000OTH                                         
022020070305043000020342200300CB000000000039CS0007938485980504300000020353200030ROTESBB002030                                     QI (12)                                 QI (12)                                 0003700009133920000100000000000000000000000000OTH                                         
022020070305043000020342200300CB000000000039CS0007951821080504300000020360200020SSCPGVE004020                                     QI (12)                                 QI (12)                                 0003700009082010000300000000000000000000000000OTH                                         
022020070305043000020342200300CB000000000039CS0007951747330504300000020362200030ROTFLTE034030                                     QI (12)                                 QI (12)                                 0003700009126570000100000000000000000000000000OTH                                         
022020070305043000020342200300CB000000000039CS0007941638150504300000020365200030SKYSBNT104030                                     QI (12)                                 QI (12)                                 0003700009085170000100000000000000000000000000OTH                                         
022020070305043000020342200300CB000000000039CS0007948887640504300000020372200020HOGBACA937020                                     QI (12)                                 QI (12)                                 0003700009084850000100000000000000000000000000OTH                                         
022020070305043000020342200300CB000000000039CS0007948718210504300000020374200030MCEPRKI007030                                     QI (12)                                 QI (12)                                 0003700009125150000200000000000000000000000000OTH                                         
022020070305043000020342200300CB000000000039CS0007943911310504300000020381200030IIBRSAC144030                                     QI (12)                                 QI (12)                                 0003700009114010000100000000000000000000000000OTH                                         
022020070305043000020342200300CB000000000039CS0007951740760504300000020384200020HKXAWBT001020                                     QI (12)                                 QI (12)                                 0003700009114960000100000000000000000000000000PEN                                         
