01Spot      Quest     030020200708202007091904190409620200708.DCL   04096000000000000000000000000000000000000000000000000000000000000000000000000000000000000000000000000000000000000000000000000000000000000000000000000000000000000000000000000000000000000000000000000000003.5A                          
022020070804096000008061600150EB000000000074CS0007960489350409600000008061600030REPBEDS211030                                     HISTORY IN THE MAKING (SEASON 2)        DEADLIEST CATCH (SEASON 10)             0003700009081110000201000000000000000000000000FST                                         
022020070804096000008061600150EB000000000074CS9999999999990409600000008061600030SKYADSMART000                                     HISTORY IN THE MAKING (SEASON 2)        DEADLIEST CATCH (SEASON 10)             0003700000000000000002000000000000000000000000FST                                         
022020070804096000008061600150EB000000000074CS0007960455380409600000008064600020PCHNISW161020                                     HISTORY IN THE MAKING (SEASON 2)        DEADLIEST CATCH (SEASON 10)             0003700009078570000101000000000000000000000000SND                                         
022020070804096000008061600150EB000000000074CS9999999999990409600000008064600020SKYADSMART000                                     HISTORY IN THE MAKING (SEASON 2)        DEADLIEST CATCH (SEASON 10)             0003700000000000000002000000000000000000000000SND                                         
022020070804096000008061600150EB000000000074CS0007958672820409600000008070600010EFRSMCK005010                                     HISTORY IN THE MAKING (SEASON 2)        DEADLIEST CATCH (SEASON 10)             0003700000000000000000000000000000000000000000OTH                                         
022020070804096000008061600150EB000000000074CS0007954026000409600000008071600010MRBSIBR002010                                     HISTORY IN THE MAKING (SEASON 2)        DEADLIEST CATCH (SEASON 10)             0003700009131560000100000000000000000000000000OTH                                         
022020070804096000008061600150EB000000000074CS0007958768130409600000008072600030HCLALLB001030                                     HISTORY IN THE MAKING (SEASON 2)        DEADLIEST CATCH (SEASON 10)             0003700000000000000000000000000000000000000000OTH                                         
022020070804096000008061600150EB000000000074CS0007958389120409600000008075600030CLDPARE001030                                     HISTORY IN THE MAKING (SEASON 2)        DEADLIEST CATCH (SEASON 10)             0003700000000000000000000000000000000000000000PEN                                         
022020070804096000008061600150EB000000000074CS0007952813890409600000008082600020GOCBRND072020                                     HISTORY IN THE MAKING (SEASON 2)        DEADLIEST CATCH (SEASON 10)             0003700009119490000201000000000000000000000000LST                                         
022020070804096000008061600150EB000000000074CS9999999999990409600000008082600020SKYADSMART000                                     HISTORY IN THE MAKING (SEASON 2)        DEADLIEST CATCH (SEASON 10)             0003700000000000000002000000000000000000000000LST                                         
022020070804096000008313800120CB000000000007CS0007935202780409600000008313800020BBHWEYB091020                                     DEADLIEST CATCH (SEASON 10)             DEADLIEST CATCH (SEASON 10)             0003700009021370000201000000000000000000000000FST                                         
022020070804096000008313800120CB000000000007CS9999999999990409600000008313800020SKYADSMART000                                     DEADLIEST CATCH (SEASON 10)             DEADLIEST CATCH (SEASON 10)             0003700000000000000002000000000000000000000000FST                                         
022020070804096000008313800120CB000000000007CS0007960449040409600000008315800010WPPGOUS011010                                     DEADLIEST CATCH (SEASON 10)             DEADLIEST CATCH (SEASON 10)             0003700009127920000201000000000000000000000000SND                                         
022020070804096000008313800120CB000000000007CS9999999999990409600000008315800010SKYADSMART000                                     DEADLIEST CATCH (SEASON 10)             DEADLIEST CATCH (SEASON 10)             0003700000000000000002000000000000000000000000SND                                         
022020070804096000008313800120CB000000000007CS0007936974710409600000008320800030DESLVHO018030                                     DEADLIEST CATCH (SEASON 10)             DEADLIEST CATCH (SEASON 10)             0003700009079950000201000000000000000000000000OTH                                         
022020070804096000008313800120CB000000000007CS9999999999990409600000008320800030SKYADSMART000                                     DEADLIEST CATCH (SEASON 10)             DEADLIEST CATCH (SEASON 10)             0003700000000000000002000000000000000000000000OTH                                         
022020070804096000008313800120CB000000000007CS0007954486990409600000008323800030MCMCLEA800030                                     DEADLIEST CATCH (SEASON 10)             DEADLIEST CATCH (SEASON 10)             0003700000000000000000000000000000000000000000OTH                                         
022020070804096000008313800120CB000000000007CS0007936974690409600000008330800020HOGGXSE965020                                     DEADLIEST CATCH (SEASON 10)             DEADLIEST CATCH (SEASON 10)             0003700009065060000101000000000000000000000000PEN                                         
022020070804096000008313800120CB000000000007CS9999999999990409600000008330800020SKYADSMART000                                     DEADLIEST CATCH (SEASON 10)             DEADLIEST CATCH (SEASON 10)             0003700000000000000002000000000000000000000000PEN                                         
022020070804096000008313800120CB000000000007CS0007935202790409600000008332800010BURTNVA015010                                     DEADLIEST CATCH (SEASON 10)             DEADLIEST CATCH (SEASON 10)             0003700009078670000101000000000000000000000000LST                                         
022020070804096000008313800120CB000000000007CS9999999999990409600000008332800010SKYADSMART000                                     DEADLIEST CATCH (SEASON 10)             DEADLIEST CATCH (SEASON 10)             0003700000000000000002000000000000000000000000LST                                         
022020070804096000008425700150CB000000000008CS0007936773650409600000008425700020MIFSCPL280020                                     DEADLIEST CATCH (SEASON 10)             DEADLIEST CATCH (SEASON 10)             0003700009071000000101000000000000000000000000FST                                         
022020070804096000008425700150CB000000000008CS9999999999990409600000008425700020SKYADSMART000                                     DEADLIEST CATCH (SEASON 10)             DEADLIEST CATCH (SEASON 10)             0003700000000000000002000000000000000000000000FST                                         
022020070804096000008425700150CB000000000008CS0007936773720409600000008431700020MIFNEPU268020                                     DEADLIEST CATCH (SEASON 10)             DEADLIEST CATCH (SEASON 10)             0003700009059410000101000000000000000000000000SND                                         
022020070804096000008425700150CB000000000008CS9999999999990409600000008431700020SKYADSMART000                                     DEADLIEST CATCH (SEASON 10)             DEADLIEST CATCH (SEASON 10)             0003700000000000000002000000000000000000000000SND                                         
022020070804096000008425700150CB000000000008CS0007936773680409600000008433700040HKXVAVP002040                                     DEADLIEST CATCH (SEASON 10)             DEADLIEST CATCH (SEASON 10)             0003700009065170000101000000000000000000000000OTH                                         
022020070804096000008425700150CB000000000008CS9999999999990409600000008433700040SKYADSMART000                                     DEADLIEST CATCH (SEASON 10)             DEADLIEST CATCH (SEASON 10)             0003700000000000000002000000000000000000000000OTH                                         
022020070804096000008425700150CB000000000008CS0007958395750409600000008441700030CLDPARE001030                                     DEADLIEST CATCH (SEASON 10)             DEADLIEST CATCH (SEASON 10)             0003700000000000000000000000000000000000000000OTH                                         
022020070804096000008425700150CB000000000008CS0007954026010409600000008444700010MRBSIBR002010                                     DEADLIEST CATCH (SEASON 10)             DEADLIEST CATCH (SEASON 10)             0003700009131560000101000000000000000000000000PEN                                         
022020070804096000008425700150CB000000000008CS9999999999990409600000008444700010SKYADSMART000                                     DEADLIEST CATCH (SEASON 10)             DEADLIEST CATCH (SEASON 10)             0003700000000000000002000000000000000000000000PEN                                         
022020070804096000008425700150CB000000000008CS0007935202770409600000008445700030SHTDPMA064030                                     DEADLIEST CATCH (SEASON 10)             DEADLIEST CATCH (SEASON 10)             0003700009106010000201000000000000000000000000LST                                         
022020070804096000008425700150CB000000000008CS9999999999990409600000008445700030SKYADSMART000                                     DEADLIEST CATCH (SEASON 10)             DEADLIEST CATCH (SEASON 10)             0003700000000000000002000000000000000000000000LST                                         
022020070804096000008575900120EB000000000075CS0007950861530409600000008575900030JLNAMPR142030                                     DEADLIEST CATCH (SEASON 10)             AUSSIE GOLD HUNTERS                     0003700009115750000101000000000000000000000000FST                                         
022020070804096000008575900120EB000000000075CS9999999999990409600000008575900030SKYADSMART000                                     DEADLIEST CATCH (SEASON 10)             AUSSIE GOLD HUNTERS                     0003700000000000000002000000000000000000000000FST                                         
022020070804096000008575900120EB000000000075CS0007950629310409600000008582900020BBHWEYB091020                                     DEADLIEST CATCH (SEASON 10)             AUSSIE GOLD HUNTERS                     0003700009021370000201000000000000000000000000SND                                         
022020070804096000008575900120EB000000000075CS9999999999990409600000008582900020SKYADSMART000                                     DEADLIEST CATCH (SEASON 10)             AUSSIE GOLD HUNTERS                     0003700000000000000002000000000000000000000000SND                                         
022020070804096000008575900120EB000000000075CS0007952701190409600000008584900030AEDLLDS103030                                     DEADLIEST CATCH (SEASON 10)             AUSSIE GOLD HUNTERS                     0003700009073630000101000000000000000000000000OTH                                         
022020070804096000008575900120EB000000000075CS9999999999990409600000008584900030SKYADSMART000                                     DEADLIEST CATCH (SEASON 10)             AUSSIE GOLD HUNTERS                     0003700000000000000002000000000000000000000000OTH                                         
022020070804096000008575900120EB000000000075CS0007950279010409600000008591900020HOGGXSE965020                                     DEADLIEST CATCH (SEASON 10)             AUSSIE GOLD HUNTERS                     0003700009065060000101000000000000000000000000PEN                                         
022020070804096000008575900120EB000000000075CS9999999999990409600000008591900020SKYADSMART000                                     DEADLIEST CATCH (SEASON 10)             AUSSIE GOLD HUNTERS                     0003700000000000000002000000000000000000000000PEN                                         
022020070804096000008575900120EB000000000075CS0007960449000409600000008593900020PCHNISW161020                                     DEADLIEST CATCH (SEASON 10)             AUSSIE GOLD HUNTERS                     0003700009078570000101000000000000000000000000LST                                         
022020070804096000008575900120EB000000000075CS9999999999990409600000008593900020SKYADSMART000                                     DEADLIEST CATCH (SEASON 10)             AUSSIE GOLD HUNTERS                     0003700000000000000002000000000000000000000000LST                                         
022020070804096000009262100180CB000000000010CS0007935185790409600000009262100030MIFNENS269030                                     AUSSIE GOLD HUNTERS                     AUSSIE GOLD HUNTERS                     0003700009076350000101000000000000000000000000FST                                         
022020070804096000009262100180CB000000000010CS9999999999990409600000009262100030SKYADSMART000                                     AUSSIE GOLD HUNTERS                     AUSSIE GOLD HUNTERS                     0003700000000000000002000000000000000000000000FST                                         
022020070804096000009262100180CB000000000010CS0007935185760409600000009265100030LBEAPTA044030                                     AUSSIE GOLD HUNTERS                     AUSSIE GOLD HUNTERS                     0003700009058810000101000000000000000000000000SND                                         
022020070804096000009262100180CB000000000010CS9999999999990409600000009265100030SKYADSMART000                                     AUSSIE GOLD HUNTERS                     AUSSIE GOLD HUNTERS                     0003700000000000000002000000000000000000000000SND                                         
022020070804096000009262100180CB000000000010CS0007935185770409600000009272100020PCHSANM002020                                     AUSSIE GOLD HUNTERS                     AUSSIE GOLD HUNTERS                     0003700009042380000101000000000000000000000000OTH                                         
022020070804096000009262100180CB000000000010CS9999999999990409600000009272100020SKYADSMART000                                     AUSSIE GOLD HUNTERS                     AUSSIE GOLD HUNTERS                     0003700000000000000002000000000000000000000000OTH                                         
022020070804096000009262100180CB000000000010CS0007953976970409600000009274100020GOCBRND068020                                     AUSSIE GOLD HUNTERS                     AUSSIE GOLD HUNTERS                     0003700009119470000201000000000000000000000000OTH                                         
022020070804096000009262100180CB000000000010CS9999999999990409600000009274100020SKYADSMART000                                     AUSSIE GOLD HUNTERS                     AUSSIE GOLD HUNTERS                     0003700000000000000002000000000000000000000000OTH                                         
022020070804096000009262100180CB000000000010CS0007960449220409600000009280100010BURTSPK195010                                     AUSSIE GOLD HUNTERS                     AUSSIE GOLD HUNTERS                     0003700009033600000101000000000000000000000000OTH                                         
022020070804096000009262100180CB000000000010CS9999999999990409600000009280100010SKYADSMART000                                     AUSSIE GOLD HUNTERS                     AUSSIE GOLD HUNTERS                     0003700000000000000002000000000000000000000000OTH                                         
022020070804096000009262100180CB000000000010CS0007935185780409600000009281100030SHTDPMA064030                                     AUSSIE GOLD HUNTERS                     AUSSIE GOLD HUNTERS                     0003700009106010000201000000000000000000000000OTH                                         
022020070804096000009262100180CB000000000010CS9999999999990409600000009281100030SKYADSMART000                                     AUSSIE GOLD HUNTERS                     AUSSIE GOLD HUNTERS                     0003700000000000000002000000000000000000000000OTH                                         
022020070804096000009262100180CB000000000010CS0007950255670409600000009284100010HOGGXPI951010                                     AUSSIE GOLD HUNTERS                     AUSSIE GOLD HUNTERS                     0003700009065190000101000000000000000000000000PEN                                         
022020070804096000009262100180CB000000000010CS9999999999990409600000009284100010SKYADSMART000                                     AUSSIE GOLD HUNTERS                     AUSSIE GOLD HUNTERS                     0003700000000000000002000000000000000000000000PEN                                         
022020070804096000009262100180CB000000000010CS0007935185730409600000009285100030WCRANCH001030                                     AUSSIE GOLD HUNTERS                     AUSSIE GOLD HUNTERS                     0003700009028270000101000000000000000000000000LST                                         
022020070804096000009262100180CB000000000010CS9999999999990409600000009285100030SKYADSMART000                                     AUSSIE GOLD HUNTERS                     AUSSIE GOLD HUNTERS                     0003700000000000000002000000000000000000000000LST                                         
022020070804096000009405700180CB000000000011CS0007935196980409600000009405700010TTBNIVE007010                                     AUSSIE GOLD HUNTERS                     AUSSIE GOLD HUNTERS                     0003700009090540000101000000000000000000000000FST                                         
022020070804096000009405700180CB000000000011CS9999999999990409600000009405700010SKYADSMART000                                     AUSSIE GOLD HUNTERS                     AUSSIE GOLD HUNTERS                     0003700000000000000002000000000000000000000000FST                                         
022020070804096000009405700180CB000000000011CS0007935196970409600000009410700020BBHWEYB091020                                     AUSSIE GOLD HUNTERS                     AUSSIE GOLD HUNTERS                     0003700009021370000201000000000000000000000000SND                                         
022020070804096000009405700180CB000000000011CS9999999999990409600000009410700020SKYADSMART000                                     AUSSIE GOLD HUNTERS                     AUSSIE GOLD HUNTERS                     0003700000000000000002000000000000000000000000SND                                         
022020070804096000009405700180CB000000000011CS0007959884320409600000009412700030OGYVODF197030                                     AUSSIE GOLD HUNTERS                     AUSSIE GOLD HUNTERS                     0003700009112770000101000000000000000000000000OTH                                         
022020070804096000009405700180CB000000000011CS9999999999990409600000009412700030SKYADSMART000                                     AUSSIE GOLD HUNTERS                     AUSSIE GOLD HUNTERS                     0003700000000000000002000000000000000000000000OTH                                         
022020070804096000009405700180CB000000000011CS0007958395860409600000009415700030CLDPARE001030                                     AUSSIE GOLD HUNTERS                     AUSSIE GOLD HUNTERS                     0003700000000000000000000000000000000000000000OTH                                         
022020070804096000009405700180CB000000000011CS0007957269020409600000009422700020HOGGXCO978020                                     AUSSIE GOLD HUNTERS                     AUSSIE GOLD HUNTERS                     0003700009065130000101000000000000000000000000OTH                                         
022020070804096000009405700180CB000000000011CS9999999999990409600000009422700020SKYADSMART000                                     AUSSIE GOLD HUNTERS                     AUSSIE GOLD HUNTERS                     0003700000000000000002000000000000000000000000OTH                                         
022020070804096000009405700180CB000000000011CS0007936767510409600000009424700020MIFSCPL280020                                     AUSSIE GOLD HUNTERS                     AUSSIE GOLD HUNTERS                     0003700009071000000101000000000000000000000000OTH                                         
022020070804096000009405700180CB000000000011CS9999999999990409600000009424700020SKYADSMART000                                     AUSSIE GOLD HUNTERS                     AUSSIE GOLD HUNTERS                     0003700000000000000002000000000000000000000000OTH                                         
022020070804096000009405700180CB000000000011CS0007959828490409600000009430700030JWTRIBE010030                                     AUSSIE GOLD HUNTERS                     AUSSIE GOLD HUNTERS                     0003700009136470000101000000000000000000000000PEN                                         
022020070804096000009405700180CB000000000011CS9999999999990409600000009430700030SKYADSMART000                                     AUSSIE GOLD HUNTERS                     AUSSIE GOLD HUNTERS                     0003700000000000000002000000000000000000000000PEN                                         
022020070804096000009405700180CB000000000011CS0007936767550409600000009433700020MIFNEPU268020                                     AUSSIE GOLD HUNTERS                     AUSSIE GOLD HUNTERS                     0003700009059410000101000000000000000000000000LST                                         
022020070804096000009405700180CB000000000011CS9999999999990409600000009433700020SKYADSMART000                                     AUSSIE GOLD HUNTERS                     AUSSIE GOLD HUNTERS                     0003700000000000000002000000000000000000000000LST                                         
022020070804096000009560200180EB000000000012CS0007935236250409600000009560200030WCRANCH001030                                     AUSSIE GOLD HUNTERS                     OUTBACK TRUCKERS (SEASON 2)             0003700009028270000101000000000000000000000000FST                                         
022020070804096000009560200180EB000000000012CS9999999999990409600000009560200030SKYADSMART000                                     AUSSIE GOLD HUNTERS                     OUTBACK TRUCKERS (SEASON 2)             0003700000000000000002000000000000000000000000FST                                         
022020070804096000009560200180EB000000000012CS0007935236240409600000009563200010BURTNVA015010                                     AUSSIE GOLD HUNTERS                     OUTBACK TRUCKERS (SEASON 2)             0003700009078670000101000000000000000000000000SND                                         
022020070804096000009560200180EB000000000012CS9999999999990409600000009563200010SKYADSMART000                                     AUSSIE GOLD HUNTERS                     OUTBACK TRUCKERS (SEASON 2)             0003700000000000000002000000000000000000000000SND                                         
022020070804096000009560200180EB000000000012CS0007960451130409600000009564200030PCHNISW162030                                     AUSSIE GOLD HUNTERS                     OUTBACK TRUCKERS (SEASON 2)             0003700009078890000101000000000000000000000000OTH                                         
022020070804096000009560200180EB000000000012CS9999999999990409600000009564200030SKYADSMART000                                     AUSSIE GOLD HUNTERS                     OUTBACK TRUCKERS (SEASON 2)             0003700000000000000002000000000000000000000000OTH                                         
022020070804096000009560200180EB000000000012CS0007953835790409600000009571200030WCRRNAV019030                                     AUSSIE GOLD HUNTERS                     OUTBACK TRUCKERS (SEASON 2)             0003700009063150000101000000000000000000000000OTH                                         
022020070804096000009560200180EB000000000012CS9999999999990409600000009571200030SKYADSMART000                                     AUSSIE GOLD HUNTERS                     OUTBACK TRUCKERS (SEASON 2)             0003700000000000000002000000000000000000000000OTH                                         
022020070804096000009560200180EB000000000012CS0007958661730409600000009574200010MUDITGA003010                                     AUSSIE GOLD HUNTERS                     OUTBACK TRUCKERS (SEASON 2)             0003700009108280000100000000000000000000000000OTH                                         
022020070804096000009560200180EB000000000012CS0007950489900409600000009575200030MTZTPCI001030                                     AUSSIE GOLD HUNTERS                     OUTBACK TRUCKERS (SEASON 2)             0003700009108870000101000000000000000000000000OTH                                         
022020070804096000009560200180EB000000000012CS9999999999990409600000009575200030SKYADSMART000                                     AUSSIE GOLD HUNTERS                     OUTBACK TRUCKERS (SEASON 2)             0003700000000000000002000000000000000000000000OTH                                         
022020070804096000009560200180EB000000000012CS0007960451110409600000009582200030DMSWBSC015030                                     AUSSIE GOLD HUNTERS                     OUTBACK TRUCKERS (SEASON 2)             0003700009137110000201000000000000000000000000PEN                                         
022020070804096000009560200180EB000000000012CS9999999999990409600000009582200030SKYADSMART000                                     AUSSIE GOLD HUNTERS                     OUTBACK TRUCKERS (SEASON 2)             0003700000000000000002000000000000000000000000PEN                                         
022020070804096000009560200180EB000000000012CS0007960451120409600000009585200010SSCKFMT044010                                     AUSSIE GOLD HUNTERS                     OUTBACK TRUCKERS (SEASON 2)             0003700009141410000101000000000000000000000000LST                                         
022020070804096000009560200180EB000000000012CS9999999999990409600000009585200010SKYADSMART000                                     AUSSIE GOLD HUNTERS                     OUTBACK TRUCKERS (SEASON 2)             0003700000000000000002000000000000000000000000LST                                         
022020070804096000010251200180CB000000000014CS0007938708110409600000010251200030AMVMACM005030                                     OUTBACK TRUCKERS (SEASON 2)             OUTBACK TRUCKERS (SEASON 2)             0003700009076710000201000000000000000000000000FST                                         
022020070804096000010251200180CB000000000014CS9999999999990409600000010251200030SKYADSMART000                                     OUTBACK TRUCKERS (SEASON 2)             OUTBACK TRUCKERS (SEASON 2)             0003700000000000000002000000000000000000000000FST                                         
022020070804096000010251200180CB000000000014CS0007960456850409600000010254200010MUMKFVA269010                                     OUTBACK TRUCKERS (SEASON 2)             OUTBACK TRUCKERS (SEASON 2)             0003700009092570000201000000000000000000000000SND                                         
022020070804096000010251200180CB000000000014CS9999999999990409600000010254200010SKYADSMART000                                     OUTBACK TRUCKERS (SEASON 2)             OUTBACK TRUCKERS (SEASON 2)             0003700000000000000002000000000000000000000000SND                                         
022020070804096000010251200180CB000000000014CS0007958345290409600000010255200020CLDMOHE026020                                     OUTBACK TRUCKERS (SEASON 2)             OUTBACK TRUCKERS (SEASON 2)             0003700009120800000101000000000000000000000000OTH                                         
022020070804096000010251200180CB000000000014CS9999999999990409600000010255200020SKYADSMART000                                     OUTBACK TRUCKERS (SEASON 2)             OUTBACK TRUCKERS (SEASON 2)             0003700000000000000002000000000000000000000000OTH                                         
022020070804096000010251200180CB000000000014CS0007957941170409600000010261200030HIHHIHI011030                                     OUTBACK TRUCKERS (SEASON 2)             OUTBACK TRUCKERS (SEASON 2)             0003700009147700000101000000000000000000000000OTH                                         
022020070804096000010251200180CB000000000014CS9999999999990409600000010261200030SKYADSMART000                                     OUTBACK TRUCKERS (SEASON 2)             OUTBACK TRUCKERS (SEASON 2)             0003700000000000000002000000000000000000000000OTH                                         
022020070804096000010251200180CB000000000014CS0007958768140409600000010264200030HCLALLB001030                                     OUTBACK TRUCKERS (SEASON 2)             OUTBACK TRUCKERS (SEASON 2)             0003700000000000000000000000000000000000000000OTH                                         
022020070804096000010251200180CB000000000014CS0007952821090409600000010271200010GOCDRTV078010                                     OUTBACK TRUCKERS (SEASON 2)             OUTBACK TRUCKERS (SEASON 2)             0003700009128830000201000000000000000000000000OTH                                         
022020070804096000010251200180CB000000000014CS9999999999990409600000010271200010SKYADSMART000                                     OUTBACK TRUCKERS (SEASON 2)             OUTBACK TRUCKERS (SEASON 2)             0003700000000000000002000000000000000000000000OTH                                         
022020070804096000010251200180CB000000000014CS0007938708130409600000010272200030PFSLEGA005030                                     OUTBACK TRUCKERS (SEASON 2)             OUTBACK TRUCKERS (SEASON 2)             0003700000000000000001000000000000000000000000PEN                                         
022020070804096000010251200180CB000000000014CS9999999999990409600000010272200030SKYADSMART000                                     OUTBACK TRUCKERS (SEASON 2)             OUTBACK TRUCKERS (SEASON 2)             0003700000000000000002000000000000000000000000PEN                                         
022020070804096000010251200180CB000000000014CS0007942449350409600000010275200020TTBCASU016020                                     OUTBACK TRUCKERS (SEASON 2)             OUTBACK TRUCKERS (SEASON 2)             0003700009027230000501000000000000000000000000LST                                         
022020070804096000010251200180CB000000000014CS9999999999990409600000010275200020SKYADSMART000                                     OUTBACK TRUCKERS (SEASON 2)             OUTBACK TRUCKERS (SEASON 2)             0003700000000000000002000000000000000000000000LST                                         
022020070804096000010434200180CB000000000015CS0007932884930409600000010434200030PCHCCEG002030                                     OUTBACK TRUCKERS (SEASON 2)             OUTBACK TRUCKERS (SEASON 2)             0003700009087950000201000000000000000000000000FST                                         
022020070804096000010434200180CB000000000015CS9999999999990409600000010434200030SKYADSMART000                                     OUTBACK TRUCKERS (SEASON 2)             OUTBACK TRUCKERS (SEASON 2)             0003700000000000000002000000000000000000000000FST                                         
022020070804096000010434200180CB000000000015CS0007929165880409600000010441200030PPLPPLU018030                                     OUTBACK TRUCKERS (SEASON 2)             OUTBACK TRUCKERS (SEASON 2)             0003700009085800000101000000000000000000000000SND                                         
022020070804096000010434200180CB000000000015CS9999999999990409600000010441200030SKYADSMART000                                     OUTBACK TRUCKERS (SEASON 2)             OUTBACK TRUCKERS (SEASON 2)             0003700000000000000002000000000000000000000000SND                                         
022020070804096000010434200180CB000000000015CS0007932884850409600000010444200030MTZTPCI001030                                     OUTBACK TRUCKERS (SEASON 2)             OUTBACK TRUCKERS (SEASON 2)             0003700009108870000101000000000000000000000000OTH                                         
022020070804096000010434200180CB000000000015CS9999999999990409600000010444200030SKYADSMART000                                     OUTBACK TRUCKERS (SEASON 2)             OUTBACK TRUCKERS (SEASON 2)             0003700000000000000002000000000000000000000000OTH                                         
022020070804096000010434200180CB000000000015CS0007932884910409600000010451200030CHIBGBR692030                                     OUTBACK TRUCKERS (SEASON 2)             OUTBACK TRUCKERS (SEASON 2)             0003700009047440000201000000000000000000000000OTH                                         
022020070804096000010434200180CB000000000015CS9999999999990409600000010451200030SKYADSMART000                                     OUTBACK TRUCKERS (SEASON 2)             OUTBACK TRUCKERS (SEASON 2)             0003700000000000000002000000000000000000000000OTH                                         
022020070804096000010434200180CB000000000015CS0007932884880409600000010454200030GCHKNBF005030                                     OUTBACK TRUCKERS (SEASON 2)             OUTBACK TRUCKERS (SEASON 2)             0003700009093760000101000000000000000000000000OTH                                         
022020070804096000010434200180CB000000000015CS9999999999990409600000010454200030SKYADSMART000                                     OUTBACK TRUCKERS (SEASON 2)             OUTBACK TRUCKERS (SEASON 2)             0003700000000000000002000000000000000000000000OTH                                         
022020070804096000010434200180CB000000000015CS0007955765660409600000010461200020CLDMOHE026020                                     OUTBACK TRUCKERS (SEASON 2)             OUTBACK TRUCKERS (SEASON 2)             0003700009120800000101000000000000000000000000PEN                                         
022020070804096000010434200180CB000000000015CS9999999999990409600000010461200020SKYADSMART000                                     OUTBACK TRUCKERS (SEASON 2)             OUTBACK TRUCKERS (SEASON 2)             0003700000000000000002000000000000000000000000PEN                                         
022020070804096000010434200180CB000000000015CS0007960462180409600000010463200010DVNVPCR203010                                     OUTBACK TRUCKERS (SEASON 2)             OUTBACK TRUCKERS (SEASON 2)             0003700009146060000101000000000000000000000000LST                                         
022020070804096000010434200180CB000000000015CS9999999999990409600000010463200010SKYADSMART000                                     OUTBACK TRUCKERS (SEASON 2)             OUTBACK TRUCKERS (SEASON 2)             0003700000000000000002000000000000000000000000LST                                         
022020070804096000010554100180EB000000000016CS0007960458290409600000010554100020TGSITQB032020                                     OUTBACK TRUCKERS (SEASON 2)             WHEELER DEALERS (SEASON 11)             0003700009158180000201000000000000000000000000FST                                         
022020070804096000010554100180EB000000000016CS9999999999990409600000010554100020SKYADSMART000                                     OUTBACK TRUCKERS (SEASON 2)             WHEELER DEALERS (SEASON 11)             0003700000000000000002000000000000000000000000FST                                         
022020070804096000010554100180EB000000000016CS0007958392800409600000010560100030MTZTPCI001030                                     OUTBACK TRUCKERS (SEASON 2)             WHEELER DEALERS (SEASON 11)             0003700009108870000101000000000000000000000000SND                                         
022020070804096000010554100180EB000000000016CS9999999999990409600000010560100030SKYADSMART000                                     OUTBACK TRUCKERS (SEASON 2)             WHEELER DEALERS (SEASON 11)             0003700000000000000002000000000000000000000000SND                                         
022020070804096000010554100180EB000000000016CS0007955846500409600000010563100010RECBTCV001010                                     OUTBACK TRUCKERS (SEASON 2)             WHEELER DEALERS (SEASON 11)             0003700000000000000001000000000000000000000000OTH                                         
022020070804096000010554100180EB000000000016CS9999999999990409600000010563100010SKYADSMART000                                     OUTBACK TRUCKERS (SEASON 2)             WHEELER DEALERS (SEASON 11)             0003700000000000000002000000000000000000000000OTH                                         
022020070804096000010554100180EB000000000016CS0007933188380409600000010564100030PFSLEGA005030                                     OUTBACK TRUCKERS (SEASON 2)             WHEELER DEALERS (SEASON 11)             0003700000000000000001000000000000000000000000OTH                                         
022020070804096000010554100180EB000000000016CS9999999999990409600000010564100030SKYADSMART000                                     OUTBACK TRUCKERS (SEASON 2)             WHEELER DEALERS (SEASON 11)             0003700000000000000002000000000000000000000000OTH                                         
022020070804096000010554100180EB000000000016CS0007938684790409600000010571100030AMVMACM005030                                     OUTBACK TRUCKERS (SEASON 2)             WHEELER DEALERS (SEASON 11)             0003700009076710000201000000000000000000000000OTH                                         
022020070804096000010554100180EB000000000016CS9999999999990409600000010571100030SKYADSMART000                                     OUTBACK TRUCKERS (SEASON 2)             WHEELER DEALERS (SEASON 11)             0003700000000000000002000000000000000000000000OTH                                         
022020070804096000010554100180EB000000000016CS0007937628820409600000010574100030AMVBZBB296030                                     OUTBACK TRUCKERS (SEASON 2)             WHEELER DEALERS (SEASON 11)             0003700009104560000101000000000000000000000000PEN                                         
022020070804096000010554100180EB000000000016CS9999999999990409600000010574100030SKYADSMART000                                     OUTBACK TRUCKERS (SEASON 2)             WHEELER DEALERS (SEASON 11)             0003700000000000000002000000000000000000000000PEN                                         
022020070804096000010554100180EB000000000016CS0007954067020409600000010581100030JLNAMPR142030                                     OUTBACK TRUCKERS (SEASON 2)             WHEELER DEALERS (SEASON 11)             0003700009115750000101000000000000000000000000LST                                         
022020070804096000010554100180EB000000000016CS9999999999990409600000010581100030SKYADSMART000                                     OUTBACK TRUCKERS (SEASON 2)             WHEELER DEALERS (SEASON 11)             0003700000000000000002000000000000000000000000LST                                         
022020070804096000011260900180CB000000000018CS0007938687340409600000011260900060WPNMALE017060                                     WHEELER DEALERS (SEASON 11)             WHEELER DEALERS (SEASON 11)             0003700009076590000301000000000000000000000000FST                                         
022020070804096000011260900180CB000000000018CS9999999999990409600000011260900060SKYADSMART000                                     WHEELER DEALERS (SEASON 11)             WHEELER DEALERS (SEASON 11)             0003700000000000000002000000000000000000000000FST                                         
022020070804096000011260900180CB000000000018CS0007949999920409600000011270900030IRIHABR069030                                     WHEELER DEALERS (SEASON 11)             WHEELER DEALERS (SEASON 11)             0003700009108850000101000000000000000000000000SND                                         
022020070804096000011260900180CB000000000018CS9999999999990409600000011270900030SKYADSMART000                                     WHEELER DEALERS (SEASON 11)             WHEELER DEALERS (SEASON 11)             0003700000000000000002000000000000000000000000SND                                         
022020070804096000011260900180CB000000000018CS0007939706420409600000011273900020TGFILFY007020                                     WHEELER DEALERS (SEASON 11)             WHEELER DEALERS (SEASON 11)             0003700009082390000101000000000000000000000000OTH                                         
022020070804096000011260900180CB000000000018CS9999999999990409600000011273900020SKYADSMART000                                     WHEELER DEALERS (SEASON 11)             WHEELER DEALERS (SEASON 11)             0003700000000000000002000000000000000000000000OTH                                         
022020070804096000011260900180CB000000000018CS0007938687310409600000011275900020AEDWRKC359020                                     WHEELER DEALERS (SEASON 11)             WHEELER DEALERS (SEASON 11)             0003700009101920000101000000000000000000000000OTH                                         
022020070804096000011260900180CB000000000018CS9999999999990409600000011275900020SKYADSMART000                                     WHEELER DEALERS (SEASON 11)             WHEELER DEALERS (SEASON 11)             0003700000000000000002000000000000000000000000OTH                                         
022020070804096000011260900180CB000000000018CS0007938687330409600000011281900020SSCEEBR450020                                     WHEELER DEALERS (SEASON 11)             WHEELER DEALERS (SEASON 11)             0003700009075130000201000000000000000000000000PEN                                         
022020070804096000011260900180CB000000000018CS9999999999990409600000011281900020SKYADSMART000                                     WHEELER DEALERS (SEASON 11)             WHEELER DEALERS (SEASON 11)             0003700000000000000002000000000000000000000000PEN                                         
022020070804096000011260900180CB000000000018CS0007939824190409600000011283900030HHPNOFA001030                                     WHEELER DEALERS (SEASON 11)             WHEELER DEALERS (SEASON 11)             0003700009095050000101000000000000000000000000LST                                         
022020070804096000011260900180CB000000000018CS9999999999990409600000011283900030SKYADSMART000                                     WHEELER DEALERS (SEASON 11)             WHEELER DEALERS (SEASON 11)             0003700000000000000002000000000000000000000000LST                                         
022020070804096000011400500180CB000000000019CS0007938683560409600000011400500030AMVMACM005030                                     WHEELER DEALERS (SEASON 11)             WHEELER DEALERS (SEASON 11)             0003700009076710000201000000000000000000000000FST                                         
022020070804096000011400500180CB000000000019CS9999999999990409600000011400500030SKYADSMART000                                     WHEELER DEALERS (SEASON 11)             WHEELER DEALERS (SEASON 11)             0003700000000000000002000000000000000000000000FST                                         
022020070804096000011400500180CB000000000019CS0007932929430409600000011403500030MTZTPCI001030                                     WHEELER DEALERS (SEASON 11)             WHEELER DEALERS (SEASON 11)             0003700009108870000101000000000000000000000000SND                                         
022020070804096000011400500180CB000000000019CS9999999999990409600000011403500030SKYADSMART000                                     WHEELER DEALERS (SEASON 11)             WHEELER DEALERS (SEASON 11)             0003700000000000000002000000000000000000000000SND                                         
022020070804096000011400500180CB000000000019CS0007950872610409600000011410500020CLDMOHE026020                                     WHEELER DEALERS (SEASON 11)             WHEELER DEALERS (SEASON 11)             0003700009120800000101000000000000000000000000OTH                                         
022020070804096000011400500180CB000000000019CS9999999999990409600000011410500020SKYADSMART000                                     WHEELER DEALERS (SEASON 11)             WHEELER DEALERS (SEASON 11)             0003700000000000000002000000000000000000000000OTH                                         
022020070804096000011400500180CB000000000019CS0007960433320409600000011412500030WPPLAMB002030                                     WHEELER DEALERS (SEASON 11)             WHEELER DEALERS (SEASON 11)             0003700009158540000101000000000000000000000000OTH                                         
022020070804096000011400500180CB000000000019CS9999999999990409600000011412500030SKYADSMART000                                     WHEELER DEALERS (SEASON 11)             WHEELER DEALERS (SEASON 11)             0003700000000000000002000000000000000000000000OTH                                         
022020070804096000011400500180CB000000000019CS0007945368680409600000011415500030OPLWFFD008030                                     WHEELER DEALERS (SEASON 11)             WHEELER DEALERS (SEASON 11)             0003700009118230000201000000000000000000000000PEN                                         
022020070804096000011400500180CB000000000019CS9999999999990409600000011415500030SKYADSMART000                                     WHEELER DEALERS (SEASON 11)             WHEELER DEALERS (SEASON 11)             0003700000000000000002000000000000000000000000PEN                                         
022020070804096000011400500180CB000000000019CS0007937626760409600000011422500040AMVBZBB294040                                     WHEELER DEALERS (SEASON 11)             WHEELER DEALERS (SEASON 11)             0003700009104590000101000000000000000000000000LST                                         
022020070804096000011400500180CB000000000019CS9999999999990409600000011422500040SKYADSMART000                                     WHEELER DEALERS (SEASON 11)             WHEELER DEALERS (SEASON 11)             0003700000000000000002000000000000000000000000LST                                         
022020070804096000011552800180EB000000000020CS0007938691660409600000011552800020VCCTOSI361020                                     WHEELER DEALERS (SEASON 11)             CHASING CLASSIC CARS (SEASON 6)         0003700009029750000301000000000000000000000000FST                                         
022020070804096000011552800180EB000000000020CS9999999999990409600000011552800020SKYADSMART000                                     WHEELER DEALERS (SEASON 11)             CHASING CLASSIC CARS (SEASON 6)         0003700000000000000002000000000000000000000000FST                                         
022020070804096000011552800180EB000000000020CS0007950874700409600000011554800030INFCRIS002030                                     WHEELER DEALERS (SEASON 11)             CHASING CLASSIC CARS (SEASON 6)         0003700009107220000101000000000000000000000000SND                                         
022020070804096000011552800180EB000000000020CS9999999999990409600000011554800030SKYADSMART000                                     WHEELER DEALERS (SEASON 11)             CHASING CLASSIC CARS (SEASON 6)         0003700000000000000002000000000000000000000000SND                                         
022020070804096000011552800180EB000000000020CS0007960437420409600000011561800030WPPLAMB001030                                     WHEELER DEALERS (SEASON 11)             CHASING CLASSIC CARS (SEASON 6)         0003700009158540000101000000000000000000000000OTH                                         
022020070804096000011552800180EB000000000020CS9999999999990409600000011561800030SKYADSMART000                                     WHEELER DEALERS (SEASON 11)             CHASING CLASSIC CARS (SEASON 6)         0003700000000000000002000000000000000000000000OTH                                         
022020070804096000011552800180EB000000000020CS0007938691670409600000011564800010AEDWRKC361010                                     WHEELER DEALERS (SEASON 11)             CHASING CLASSIC CARS (SEASON 6)         0003700009101930000101000000000000000000000000OTH                                         
022020070804096000011552800180EB000000000020CS9999999999990409600000011564800010SKYADSMART000                                     WHEELER DEALERS (SEASON 11)             CHASING CLASSIC CARS (SEASON 6)         0003700000000000000002000000000000000000000000OTH                                         
022020070804096000011552800180EB000000000020CS0007961079610409600000011565800030TAGTOGB299030                                     WHEELER DEALERS (SEASON 11)             CHASING CLASSIC CARS (SEASON 6)         0003700009019060000101000000000000000000000000OTH                                         
022020070804096000011552800180EB000000000020CS9999999999990409600000011565800030SKYADSMART000                                     WHEELER DEALERS (SEASON 11)             CHASING CLASSIC CARS (SEASON 6)         0003700000000000000002000000000000000000000000OTH                                         
022020070804096000011552800180EB000000000020CS0007950476730409600000011572800030SKYAWBS001030                                     WHEELER DEALERS (SEASON 11)             CHASING CLASSIC CARS (SEASON 6)         0003700009102780000101000000000000000000000000PEN                                         
022020070804096000011552800180EB000000000020CS9999999999990409600000011572800030SKYADSMART000                                     WHEELER DEALERS (SEASON 11)             CHASING CLASSIC CARS (SEASON 6)         0003700000000000000002000000000000000000000000PEN                                         
022020070804096000011552800180EB000000000020CS0007957939950409600000011575800030HIHHIHI011030                                     WHEELER DEALERS (SEASON 11)             CHASING CLASSIC CARS (SEASON 6)         0003700009147700000101000000000000000000000000LST                                         
022020070804096000011552800180EB000000000020CS9999999999990409600000011575800030SKYADSMART000                                     WHEELER DEALERS (SEASON 11)             CHASING CLASSIC CARS (SEASON 6)         0003700000000000000002000000000000000000000000LST                                         
022020070804096000012124400240CB000000000021CS0007950653090409600000012124400010TMWDCSC002010                                     CHASING CLASSIC CARS (SEASON 6)         CHASING CLASSIC CARS (SEASON 6)         0003700009087790000101000000000000000000000000FST                                         
022020070804096000012124400240CB000000000021CS9999999999990409600000012124400010SKYADSMART000                                     CHASING CLASSIC CARS (SEASON 6)         CHASING CLASSIC CARS (SEASON 6)         0003700000000000000002000000000000000000000000FST                                         
022020070804096000012124400240CB000000000021CS0007950198370409600000012125400030WCRBSKY906030                                     CHASING CLASSIC CARS (SEASON 6)         CHASING CLASSIC CARS (SEASON 6)         0003700009110450000101000000000000000000000000SND                                         
022020070804096000012124400240CB000000000021CS9999999999990409600000012125400030SKYADSMART000                                     CHASING CLASSIC CARS (SEASON 6)         CHASING CLASSIC CARS (SEASON 6)         0003700000000000000002000000000000000000000000SND                                         
022020070804096000012124400240CB000000000021CS0007950873260409600000012132400020CLDMOHE026020                                     CHASING CLASSIC CARS (SEASON 6)         CHASING CLASSIC CARS (SEASON 6)         0003700009120800000101000000000000000000000000OTH                                         
022020070804096000012124400240CB000000000021CS9999999999990409600000012132400020SKYADSMART000                                     CHASING CLASSIC CARS (SEASON 6)         CHASING CLASSIC CARS (SEASON 6)         0003700000000000000002000000000000000000000000OTH                                         
022020070804096000012124400240CB000000000021CS0007950474950409600000012134400030SKYNWCI002030                                     CHASING CLASSIC CARS (SEASON 6)         CHASING CLASSIC CARS (SEASON 6)         0003700009102960000101000000000000000000000000OTH                                         
022020070804096000012124400240CB000000000021CS9999999999990409600000012134400030SKYADSMART000                                     CHASING CLASSIC CARS (SEASON 6)         CHASING CLASSIC CARS (SEASON 6)         0003700000000000000002000000000000000000000000OTH                                         
022020070804096000012124400240CB000000000021CS0007955027080409600000012141400010BBHTCPD201010                                     CHASING CLASSIC CARS (SEASON 6)         CHASING CLASSIC CARS (SEASON 6)         0003700009089120000101000000000000000000000000OTH                                         
022020070804096000012124400240CB000000000021CS9999999999990409600000012141400010SKYADSMART000                                     CHASING CLASSIC CARS (SEASON 6)         CHASING CLASSIC CARS (SEASON 6)         0003700000000000000002000000000000000000000000OTH                                         
022020070804096000012124400240CB000000000021CS0007951197280409600000012142400030CNSPDRS004030                                     CHASING CLASSIC CARS (SEASON 6)         CHASING CLASSIC CARS (SEASON 6)         0003700009113580000201000000000000000000000000OTH                                         
022020070804096000012124400240CB000000000021CS9999999999990409600000012142400030SKYADSMART000                                     CHASING CLASSIC CARS (SEASON 6)         CHASING CLASSIC CARS (SEASON 6)         0003700000000000000002000000000000000000000000OTH                                         
022020070804096000012124400240CB000000000021CS0007960466110409600000012145400010DVNVPCR204010                                     CHASING CLASSIC CARS (SEASON 6)         CHASING CLASSIC CARS (SEASON 6)         0003700009146060000101000000000000000000000000OTH                                         
022020070804096000012124400240CB000000000021CS9999999999990409600000012145400010SKYADSMART000                                     CHASING CLASSIC CARS (SEASON 6)         CHASING CLASSIC CARS (SEASON 6)         0003700000000000000002000000000000000000000000OTH                                         
022020070804096000012124400240CB000000000021CS0007955425370409600000012150400040PUCMOSF001040                                     CHASING CLASSIC CARS (SEASON 6)         CHASING CLASSIC CARS (SEASON 6)         0003700009083380000201000000000000000000000000OTH                                         
022020070804096000012124400240CB000000000021CS9999999999990409600000012150400040SKYADSMART000                                     CHASING CLASSIC CARS (SEASON 6)         CHASING CLASSIC CARS (SEASON 6)         0003700000000000000002000000000000000000000000OTH                                         
022020070804096000012124400240CB000000000021CS0007932938580409600000012154400030MTZTPCI001030                                     CHASING CLASSIC CARS (SEASON 6)         CHASING CLASSIC CARS (SEASON 6)         0003700009108870000101000000000000000000000000OTH                                         
022020070804096000012124400240CB000000000021CS9999999999990409600000012154400030SKYADSMART000                                     CHASING CLASSIC CARS (SEASON 6)         CHASING CLASSIC CARS (SEASON 6)         0003700000000000000002000000000000000000000000OTH                                         
022020070804096000012124400240CB000000000021CS0007955841940409600000012161400010RECBTCV001010                                     CHASING CLASSIC CARS (SEASON 6)         CHASING CLASSIC CARS (SEASON 6)         0003700000000000000001000000000000000000000000PEN                                         
022020070804096000012124400240CB000000000021CS9999999999990409600000012161400010SKYADSMART000                                     CHASING CLASSIC CARS (SEASON 6)         CHASING CLASSIC CARS (SEASON 6)         0003700000000000000002000000000000000000000000PEN                                         
022020070804096000012124400240CB000000000021CS0007932938570409600000012162400020HHPSLWP203020                                     CHASING CLASSIC CARS (SEASON 6)         CHASING CLASSIC CARS (SEASON 6)         0003700009101200000101000000000000000000000000LST                                         
022020070804096000012124400240CB000000000021CS9999999999990409600000012162400020SKYADSMART000                                     CHASING CLASSIC CARS (SEASON 6)         CHASING CLASSIC CARS (SEASON 6)         0003700000000000000002000000000000000000000000LST                                         
022020070804096000012265400120EB000000000022CS0007936656850409600000012265400030MCEEBAY041030                                     CHASING CLASSIC CARS (SEASON 6)         CHASING CLASSIC CARS (SEASON 6)         0003700009072240000301000000000000000000000000FST                                         
022020070804096000012265400120EB000000000022CS9999999999990409600000012265400030SKYADSMART000                                     CHASING CLASSIC CARS (SEASON 6)         CHASING CLASSIC CARS (SEASON 6)         0003700000000000000002000000000000000000000000FST                                         
022020070804096000012265400120EB000000000022CS0007928864550409600000012272400030AEDCMNL504030                                     CHASING CLASSIC CARS (SEASON 6)         CHASING CLASSIC CARS (SEASON 6)         0003700009082500000201000000000000000000000000SND                                         
022020070804096000012265400120EB000000000022CS9999999999990409600000012272400030SKYADSMART000                                     CHASING CLASSIC CARS (SEASON 6)         CHASING CLASSIC CARS (SEASON 6)         0003700000000000000002000000000000000000000000SND                                         
022020070804096000012265400120EB000000000022CS0007958753780409600000012275400030ISOCAFE004030                                     CHASING CLASSIC CARS (SEASON 6)         CHASING CLASSIC CARS (SEASON 6)         0003700000000000000001000000000000000000000000PEN                                         
022020070804096000012265400120EB000000000022CS9999999999990409600000012275400030SKYADSMART000                                     CHASING CLASSIC CARS (SEASON 6)         CHASING CLASSIC CARS (SEASON 6)         0003700000000000000002000000000000000000000000PEN                                         
022020070804096000012265400120EB000000000022CS0007957940600409600000012282400030HIHHIHI011030                                     CHASING CLASSIC CARS (SEASON 6)         CHASING CLASSIC CARS (SEASON 6)         0003700009147700000101000000000000000000000000LST                                         
022020070804096000012265400120EB000000000022CS9999999999990409600000012282400030SKYADSMART000                                     CHASING CLASSIC CARS (SEASON 6)         CHASING CLASSIC CARS (SEASON 6)         0003700000000000000002000000000000000000000000LST                                         
022020070804096000012423000270CB000000000023CS0007936661750409600000012423000030SSCDLCA042030                                     CHASING CLASSIC CARS (SEASON 6)         CHASING CLASSIC CARS (SEASON 6)         0003700009090350000201000000000000000000000000FST                                         
022020070804096000012423000270CB000000000023CS9999999999990409600000012423000030SKYADSMART000                                     CHASING CLASSIC CARS (SEASON 6)         CHASING CLASSIC CARS (SEASON 6)         0003700000000000000002000000000000000000000000FST                                         
022020070804096000012423000270CB000000000023CS0007935321920409600000012430000010MUMKFVA269010                                     CHASING CLASSIC CARS (SEASON 6)         CHASING CLASSIC CARS (SEASON 6)         0003700009092570000201000000000000000000000000SND                                         
022020070804096000012423000270CB000000000023CS9999999999990409600000012430000010SKYADSMART000                                     CHASING CLASSIC CARS (SEASON 6)         CHASING CLASSIC CARS (SEASON 6)         0003700000000000000002000000000000000000000000SND                                         
022020070804096000012423000270CB000000000023CS0007950643630409600000012431000030IGCEPUK002030                                     CHASING CLASSIC CARS (SEASON 6)         CHASING CLASSIC CARS (SEASON 6)         0003700009125060000101000000000000000000000000OTH                                         
022020070804096000012423000270CB000000000023CS9999999999990409600000012431000030SKYADSMART000                                     CHASING CLASSIC CARS (SEASON 6)         CHASING CLASSIC CARS (SEASON 6)         0003700000000000000002000000000000000000000000OTH                                         
022020070804096000012423000270CB000000000023CS0007936661760409600000012434000030NCAHALF001030                                     CHASING CLASSIC CARS (SEASON 6)         CHASING CLASSIC CARS (SEASON 6)         0003700009079360000101000000000000000000000000OTH                                         
022020070804096000012423000270CB000000000023CS9999999999990409600000012434000030SKYADSMART000                                     CHASING CLASSIC CARS (SEASON 6)         CHASING CLASSIC CARS (SEASON 6)         0003700000000000000002000000000000000000000000OTH                                         
022020070804096000012423000270CB000000000023CS0007952774980409600000012441000020KRODSSS448020                                     CHASING CLASSIC CARS (SEASON 6)         CHASING CLASSIC CARS (SEASON 6)         0003700009128960000201000000000000000000000000OTH                                         
022020070804096000012423000270CB000000000023CS9999999999990409600000012441000020SKYADSMART000                                     CHASING CLASSIC CARS (SEASON 6)         CHASING CLASSIC CARS (SEASON 6)         0003700000000000000002000000000000000000000000OTH                                         
022020070804096000012423000270CB000000000023CS0007950180900409600000012443000010CKCSKHD157010                                     CHASING CLASSIC CARS (SEASON 6)         CHASING CLASSIC CARS (SEASON 6)         0003700009110430000101000000000000000000000000OTH                                         
022020070804096000012423000270CB000000000023CS9999999999990409600000012443000010SKYADSMART000                                     CHASING CLASSIC CARS (SEASON 6)         CHASING CLASSIC CARS (SEASON 6)         0003700000000000000002000000000000000000000000OTH                                         
022020070804096000012423000270CB000000000023CS0007958768150409600000012444000030HCLALLB001030                                     CHASING CLASSIC CARS (SEASON 6)         CHASING CLASSIC CARS (SEASON 6)         0003700000000000000000000000000000000000000000OTH                                         
022020070804096000012423000270CB000000000023CS0007945991290409600000012451000010TTBGALA027010                                     CHASING CLASSIC CARS (SEASON 6)         CHASING CLASSIC CARS (SEASON 6)         0003700009099270000201000000000000000000000000OTH                                         
022020070804096000012423000270CB000000000023CS9999999999990409600000012451000010SKYADSMART000                                     CHASING CLASSIC CARS (SEASON 6)         CHASING CLASSIC CARS (SEASON 6)         0003700000000000000002000000000000000000000000OTH                                         
022020070804096000012423000270CB000000000023CS0007960453060409600000012452000010SSCKFMT044010                                     CHASING CLASSIC CARS (SEASON 6)         CHASING CLASSIC CARS (SEASON 6)         0003700009141390000200000000000000000000000000OTH                                         
022020070804096000012423000270CB000000000023CS0007955766640409600000012453000020CLDMOHE026020                                     CHASING CLASSIC CARS (SEASON 6)         CHASING CLASSIC CARS (SEASON 6)         0003700009120800000101000000000000000000000000OTH                                         
022020070804096000012423000270CB000000000023CS9999999999990409600000012453000020SKYADSMART000                                     CHASING CLASSIC CARS (SEASON 6)         CHASING CLASSIC CARS (SEASON 6)         0003700000000000000002000000000000000000000000OTH                                         
022020070804096000012423000270CB000000000023CS0007939907940409600000012455000030HOGTIKT011030                                     CHASING CLASSIC CARS (SEASON 6)         CHASING CLASSIC CARS (SEASON 6)         0003700009067140000201000000000000000000000000OTH                                         
022020070804096000012423000270CB000000000023CS9999999999990409600000012455000030SKYADSMART000                                     CHASING CLASSIC CARS (SEASON 6)         CHASING CLASSIC CARS (SEASON 6)         0003700000000000000002000000000000000000000000OTH                                         
022020070804096000012423000270CB000000000023CS0007955842010409600000012462000010RECBTCV001010                                     CHASING CLASSIC CARS (SEASON 6)         CHASING CLASSIC CARS (SEASON 6)         0003700000000000000001000000000000000000000000PEN                                         
022020070804096000012423000270CB000000000023CS9999999999990409600000012462000010SKYADSMART000                                     CHASING CLASSIC CARS (SEASON 6)         CHASING CLASSIC CARS (SEASON 6)         0003700000000000000002000000000000000000000000PEN                                         
022020070804096000012423000270CB000000000023CS0007936661740409600000012463000030HKXDETE050030                                     CHASING CLASSIC CARS (SEASON 6)         CHASING CLASSIC CARS (SEASON 6)         0003700009059700000101000000000000000000000000LST                                         
022020070804096000012423000270CB000000000023CS9999999999990409600000012463000030SKYADSMART000                                     CHASING CLASSIC CARS (SEASON 6)         CHASING CLASSIC CARS (SEASON 6)         0003700000000000000002000000000000000000000000LST                                         
022020070804096000012580600090EB000000000024CS0007933429840409600000012580600030OGYVODF197030                                     CHASING CLASSIC CARS (SEASON 6)         SALVAGE HUNTERS: CLASSIC CARS (SEASON 2)0003700009076740000201000000000000000000000000FST                                         
022020070804096000012580600090EB000000000024CS9999999999990409600000012580600030SKYADSMART000                                     CHASING CLASSIC CARS (SEASON 6)         SALVAGE HUNTERS: CLASSIC CARS (SEASON 2)0003700000000000000002000000000000000000000000FST                                         
022020070804096000012580600090EB000000000024CS0007960881540409600000012583600030SCCBSPS301030                                     CHASING CLASSIC CARS (SEASON 6)         SALVAGE HUNTERS: CLASSIC CARS (SEASON 2)0003700009080160000201000000000000000000000000SND                                         
022020070804096000012580600090EB000000000024CS9999999999990409600000012583600030SKYADSMART000                                     CHASING CLASSIC CARS (SEASON 6)         SALVAGE HUNTERS: CLASSIC CARS (SEASON 2)0003700000000000000002000000000000000000000000SND                                         
022020070804096000012580600090EB000000000024CS0007960437440409600000012590600030WPPLAMB002030                                     CHASING CLASSIC CARS (SEASON 6)         SALVAGE HUNTERS: CLASSIC CARS (SEASON 2)0003700009158540000101000000000000000000000000LST                                         
022020070804096000012580600090EB000000000024CS9999999999990409600000012590600030SKYADSMART000                                     CHASING CLASSIC CARS (SEASON 6)         SALVAGE HUNTERS: CLASSIC CARS (SEASON 2)0003700000000000000002000000000000000000000000LST                                         
022020070804096000013104200120CB000000000025CS0007945291100409600000013104200030OGYVODF197030                                     SALVAGE HUNTERS: CLASSIC CARS (SEASON 2)SALVAGE HUNTERS: CLASSIC CARS (SEASON 2)0003700009112770000101000000000000000000000000FST                                         
022020070804096000013104200120CB000000000025CS9999999999990409600000013104200030SKYADSMART000                                     SALVAGE HUNTERS: CLASSIC CARS (SEASON 2)SALVAGE HUNTERS: CLASSIC CARS (SEASON 2)0003700000000000000002000000000000000000000000FST                                         
022020070804096000013104200120CB000000000025CS0007955767970409600000013111200020CLDMOHE026020                                     SALVAGE HUNTERS: CLASSIC CARS (SEASON 2)SALVAGE HUNTERS: CLASSIC CARS (SEASON 2)0003700009120800000101000000000000000000000000SND                                         
022020070804096000013104200120CB000000000025CS9999999999990409600000013111200020SKYADSMART000                                     SALVAGE HUNTERS: CLASSIC CARS (SEASON 2)SALVAGE HUNTERS: CLASSIC CARS (SEASON 2)0003700000000000000002000000000000000000000000SND                                         
022020070804096000013104200120CB000000000025CS0007942415750409600000013113200060SCCRLPV602060                                     SALVAGE HUNTERS: CLASSIC CARS (SEASON 2)SALVAGE HUNTERS: CLASSIC CARS (SEASON 2)0003700009100430000201000000000000000000000000PEN                                         
022020070804096000013104200120CB000000000025CS9999999999990409600000013113200060SKYADSMART000                                     SALVAGE HUNTERS: CLASSIC CARS (SEASON 2)SALVAGE HUNTERS: CLASSIC CARS (SEASON 2)0003700000000000000002000000000000000000000000PEN                                         
022020070804096000013104200120CB000000000025CS0007955847330409600000013123200010RECBTCV001010                                     SALVAGE HUNTERS: CLASSIC CARS (SEASON 2)SALVAGE HUNTERS: CLASSIC CARS (SEASON 2)0003700000000000000001000000000000000000000000LST                                         
022020070804096000013104200120CB000000000025CS9999999999990409600000013123200010SKYADSMART000                                     SALVAGE HUNTERS: CLASSIC CARS (SEASON 2)SALVAGE HUNTERS: CLASSIC CARS (SEASON 2)0003700000000000000002000000000000000000000000LST                                         
022020070804096000013270800210CB000000000026CS0007955768100409600000013270800020CLDMOHE026020                                     SALVAGE HUNTERS: CLASSIC CARS (SEASON 2)SALVAGE HUNTERS: CLASSIC CARS (SEASON 2)0003700009120800000101000000000000000000000000FST                                         
022020070804096000013270800210CB000000000026CS9999999999990409600000013270800020SKYADSMART000                                     SALVAGE HUNTERS: CLASSIC CARS (SEASON 2)SALVAGE HUNTERS: CLASSIC CARS (SEASON 2)0003700000000000000002000000000000000000000000FST                                         
022020070804096000013270800210CB000000000026CS0007944667650409600000013272800060DTVCARC003060                                     SALVAGE HUNTERS: CLASSIC CARS (SEASON 2)SALVAGE HUNTERS: CLASSIC CARS (SEASON 2)0003700009115150000101000000000000000000000000SND                                         
022020070804096000013270800210CB000000000026CS9999999999990409600000013272800060SKYADSMART000                                     SALVAGE HUNTERS: CLASSIC CARS (SEASON 2)SALVAGE HUNTERS: CLASSIC CARS (SEASON 2)0003700000000000000002000000000000000000000000SND                                         
022020070804096000013270800210CB000000000026CS0007945370390409600000013282800030ATGWOCL235030                                     SALVAGE HUNTERS: CLASSIC CARS (SEASON 2)SALVAGE HUNTERS: CLASSIC CARS (SEASON 2)0003700009101800000101000000000000000000000000OTH                                         
022020070804096000013270800210CB000000000026CS9999999999990409600000013282800030SKYADSMART000                                     SALVAGE HUNTERS: CLASSIC CARS (SEASON 2)SALVAGE HUNTERS: CLASSIC CARS (SEASON 2)0003700000000000000002000000000000000000000000OTH                                         
022020070804096000013270800210CB000000000026CS0007942407730409600000013285800030GCHKNBF005030                                     SALVAGE HUNTERS: CLASSIC CARS (SEASON 2)SALVAGE HUNTERS: CLASSIC CARS (SEASON 2)0003700009093760000101000000000000000000000000OTH                                         
022020070804096000013270800210CB000000000026CS9999999999990409600000013285800030SKYADSMART000                                     SALVAGE HUNTERS: CLASSIC CARS (SEASON 2)SALVAGE HUNTERS: CLASSIC CARS (SEASON 2)0003700000000000000002000000000000000000000000OTH                                         
022020070804096000013270800210CB000000000026CS0007942352540409600000013292800030SSCDLHM037030                                     SALVAGE HUNTERS: CLASSIC CARS (SEASON 2)SALVAGE HUNTERS: CLASSIC CARS (SEASON 2)0003700009113050000101000000000000000000000000OTH                                         
022020070804096000013270800210CB000000000026CS9999999999990409600000013292800030SKYADSMART000                                     SALVAGE HUNTERS: CLASSIC CARS (SEASON 2)SALVAGE HUNTERS: CLASSIC CARS (SEASON 2)0003700000000000000002000000000000000000000000OTH                                         
022020070804096000013270800210CB000000000026CS0007955847430409600000013295800010RECBTCV001010                                     SALVAGE HUNTERS: CLASSIC CARS (SEASON 2)SALVAGE HUNTERS: CLASSIC CARS (SEASON 2)0003700000000000000001000000000000000000000000PEN                                         
022020070804096000013270800210CB000000000026CS9999999999990409600000013295800010SKYADSMART000                                     SALVAGE HUNTERS: CLASSIC CARS (SEASON 2)SALVAGE HUNTERS: CLASSIC CARS (SEASON 2)0003700000000000000002000000000000000000000000PEN                                         
022020070804096000013270800210CB000000000026CS0007932966300409600000013300800030HHPSLHS203030                                     SALVAGE HUNTERS: CLASSIC CARS (SEASON 2)SALVAGE HUNTERS: CLASSIC CARS (SEASON 2)0003700009101200000101000000000000000000000000LST                                         
022020070804096000013270800210CB000000000026CS9999999999990409600000013300800030SKYADSMART000                                     SALVAGE HUNTERS: CLASSIC CARS (SEASON 2)SALVAGE HUNTERS: CLASSIC CARS (SEASON 2)0003700000000000000002000000000000000000000000LST                                         
022020070804096000013441900270CB000000000027CS0007938690400409600000013441900020VCCTOSI361020                                     SALVAGE HUNTERS: CLASSIC CARS (SEASON 2)SALVAGE HUNTERS: CLASSIC CARS (SEASON 2)0003700009029750000301000000000000000000000000FST                                         
022020070804096000013441900270CB000000000027CS9999999999990409600000013441900020SKYADSMART000                                     SALVAGE HUNTERS: CLASSIC CARS (SEASON 2)SALVAGE HUNTERS: CLASSIC CARS (SEASON 2)0003700000000000000002000000000000000000000000FST                                         
022020070804096000013441900270CB000000000027CS0007942463120409600000013443900010BBHTCPD201010                                     SALVAGE HUNTERS: CLASSIC CARS (SEASON 2)SALVAGE HUNTERS: CLASSIC CARS (SEASON 2)0003700009089120000101000000000000000000000000SND                                         
022020070804096000013441900270CB000000000027CS9999999999990409600000013443900010SKYADSMART000                                     SALVAGE HUNTERS: CLASSIC CARS (SEASON 2)SALVAGE HUNTERS: CLASSIC CARS (SEASON 2)0003700000000000000002000000000000000000000000SND                                         
022020070804096000013441900270CB000000000027CS0007938690410409600000013444900030PFSLEGA005030                                     SALVAGE HUNTERS: CLASSIC CARS (SEASON 2)SALVAGE HUNTERS: CLASSIC CARS (SEASON 2)0003700000000000000001000000000000000000000000OTH                                         
022020070804096000013441900270CB000000000027CS9999999999990409600000013444900030SKYADSMART000                                     SALVAGE HUNTERS: CLASSIC CARS (SEASON 2)SALVAGE HUNTERS: CLASSIC CARS (SEASON 2)0003700000000000000002000000000000000000000000OTH                                         
022020070804096000013441900270CB000000000027CS0007944667260409600000013451900030MCMKEYR797030                                     SALVAGE HUNTERS: CLASSIC CARS (SEASON 2)SALVAGE HUNTERS: CLASSIC CARS (SEASON 2)0003700009101990000101000000000000000000000000OTH                                         
022020070804096000013441900270CB000000000027CS9999999999990409600000013451900030SKYADSMART000                                     SALVAGE HUNTERS: CLASSIC CARS (SEASON 2)SALVAGE HUNTERS: CLASSIC CARS (SEASON 2)0003700000000000000002000000000000000000000000OTH                                         
022020070804096000013441900270CB000000000027CS0007949999690409600000013454900030IRIHABR070030                                     SALVAGE HUNTERS: CLASSIC CARS (SEASON 2)SALVAGE HUNTERS: CLASSIC CARS (SEASON 2)0003700009108850000101000000000000000000000000OTH                                         
022020070804096000013441900270CB000000000027CS9999999999990409600000013454900030SKYADSMART000                                     SALVAGE HUNTERS: CLASSIC CARS (SEASON 2)SALVAGE HUNTERS: CLASSIC CARS (SEASON 2)0003700000000000000002000000000000000000000000OTH                                         
022020070804096000013441900270CB000000000027CS0007960474700409600000013461900020TGSITQB032020                                     SALVAGE HUNTERS: CLASSIC CARS (SEASON 2)SALVAGE HUNTERS: CLASSIC CARS (SEASON 2)0003700009158180000201000000000000000000000000OTH                                         
022020070804096000013441900270CB000000000027CS9999999999990409600000013461900020SKYADSMART000                                     SALVAGE HUNTERS: CLASSIC CARS (SEASON 2)SALVAGE HUNTERS: CLASSIC CARS (SEASON 2)0003700000000000000002000000000000000000000000OTH                                         
022020070804096000013441900270CB000000000027CS0007953092930409600000013463900010CHFSTUD789010                                     SALVAGE HUNTERS: CLASSIC CARS (SEASON 2)SALVAGE HUNTERS: CLASSIC CARS (SEASON 2)0003700009106330000101000000000000000000000000OTH                                         
022020070804096000013441900270CB000000000027CS9999999999990409600000013463900010SKYADSMART000                                     SALVAGE HUNTERS: CLASSIC CARS (SEASON 2)SALVAGE HUNTERS: CLASSIC CARS (SEASON 2)0003700000000000000002000000000000000000000000OTH                                         
022020070804096000013441900270CB000000000027CS0007942351170409600000013464900030SSCDLCA043030                                     SALVAGE HUNTERS: CLASSIC CARS (SEASON 2)SALVAGE HUNTERS: CLASSIC CARS (SEASON 2)0003700009113170000101000000000000000000000000OTH                                         
022020070804096000013441900270CB000000000027CS9999999999990409600000013464900030SKYADSMART000                                     SALVAGE HUNTERS: CLASSIC CARS (SEASON 2)SALVAGE HUNTERS: CLASSIC CARS (SEASON 2)0003700000000000000002000000000000000000000000OTH                                         
022020070804096000013441900270CB000000000027CS0007957940690409600000013471900030HIHHIHI011030                                     SALVAGE HUNTERS: CLASSIC CARS (SEASON 2)SALVAGE HUNTERS: CLASSIC CARS (SEASON 2)0003700009147700000101000000000000000000000000OTH                                         
022020070804096000013441900270CB000000000027CS9999999999990409600000013471900030SKYADSMART000                                     SALVAGE HUNTERS: CLASSIC CARS (SEASON 2)SALVAGE HUNTERS: CLASSIC CARS (SEASON 2)0003700000000000000002000000000000000000000000OTH                                         
022020070804096000013441900270CB000000000027CS0007960433440409600000013474900030WPPLAMB001030                                     SALVAGE HUNTERS: CLASSIC CARS (SEASON 2)SALVAGE HUNTERS: CLASSIC CARS (SEASON 2)0003700009158540000101000000000000000000000000PEN                                         
022020070804096000013441900270CB000000000027CS9999999999990409600000013474900030SKYADSMART000                                     SALVAGE HUNTERS: CLASSIC CARS (SEASON 2)SALVAGE HUNTERS: CLASSIC CARS (SEASON 2)0003700000000000000002000000000000000000000000PEN                                         
022020070804096000013441900270CB000000000027CS0007938690390409600000013481900030AMVMACM005030                                     SALVAGE HUNTERS: CLASSIC CARS (SEASON 2)SALVAGE HUNTERS: CLASSIC CARS (SEASON 2)0003700009076710000201000000000000000000000000LST                                         
022020070804096000013441900270CB000000000027CS9999999999990409600000013481900030SKYADSMART000                                     SALVAGE HUNTERS: CLASSIC CARS (SEASON 2)SALVAGE HUNTERS: CLASSIC CARS (SEASON 2)0003700000000000000002000000000000000000000000LST                                         
022020070804096000013574400120EB000000000028CS0007958190220409600000013574400030PPLPPLU016030                                     SALVAGE HUNTERS: CLASSIC CARS (SEASON 2)AUSSIE GOLD HUNTERS                     0003700009085800000101000000000000000000000000FST                                         
022020070804096000013574400120EB000000000028CS9999999999990409600000013574400030SKYADSMART000                                     SALVAGE HUNTERS: CLASSIC CARS (SEASON 2)AUSSIE GOLD HUNTERS                     0003700000000000000002000000000000000000000000FST                                         
022020070804096000013574400120EB000000000028CS0007932896880409600000013581400030GCHKNBF005030                                     SALVAGE HUNTERS: CLASSIC CARS (SEASON 2)AUSSIE GOLD HUNTERS                     0003700009093760000101000000000000000000000000SND                                         
022020070804096000013574400120EB000000000028CS9999999999990409600000013581400030SKYADSMART000                                     SALVAGE HUNTERS: CLASSIC CARS (SEASON 2)AUSSIE GOLD HUNTERS                     0003700000000000000002000000000000000000000000SND                                         
022020070804096000013574400120EB000000000028CS0007950469520409600000013584400030CKCSKHD158030                                     SALVAGE HUNTERS: CLASSIC CARS (SEASON 2)AUSSIE GOLD HUNTERS                     0003700008992910000101000000000000000000000000PEN                                         
022020070804096000013574400120EB000000000028CS9999999999990409600000013584400030SKYADSMART000                                     SALVAGE HUNTERS: CLASSIC CARS (SEASON 2)AUSSIE GOLD HUNTERS                     0003700000000000000002000000000000000000000000PEN                                         
022020070804096000013574400120EB000000000028CS0007950469530409600000013591400030MTZTPCI001030                                     SALVAGE HUNTERS: CLASSIC CARS (SEASON 2)AUSSIE GOLD HUNTERS                     0003700009108870000101000000000000000000000000LST                                         
022020070804096000013574400120EB000000000028CS9999999999990409600000013591400030SKYADSMART000                                     SALVAGE HUNTERS: CLASSIC CARS (SEASON 2)AUSSIE GOLD HUNTERS                     0003700000000000000002000000000000000000000000LST                                         
022020070804096000014130600120CB000000000029CS0007957682630409600000014130600060ANOCARE255060                                     AUSSIE GOLD HUNTERS                     AUSSIE GOLD HUNTERS                     0003700009113330000101000000000000000000000000FST                                         
022020070804096000014130600120CB000000000029CS9999999999990409600000014130600060SKYADSMART000                                     AUSSIE GOLD HUNTERS                     AUSSIE GOLD HUNTERS                     0003700000000000000002000000000000000000000000FST                                         
022020070804096000014130600120CB000000000029CS0007958763600409600000014140600030HCLALLB001030                                     AUSSIE GOLD HUNTERS                     AUSSIE GOLD HUNTERS                     0003700000000000000000000000000000000000000000SND                                         
022020070804096000014130600120CB000000000029CS0007933176160409600000014143600030PFSLEGA005030                                     AUSSIE GOLD HUNTERS                     AUSSIE GOLD HUNTERS                     0003700000000000000001000000000000000000000000LST                                         
022020070804096000014130600120CB000000000029CS9999999999990409600000014143600030SKYADSMART000                                     AUSSIE GOLD HUNTERS                     AUSSIE GOLD HUNTERS                     0003700000000000000002000000000000000000000000LST                                         
022020070804096000014251200210CB000000000030CS0007938705820409600000014251200020VCCTOSI361020                                     AUSSIE GOLD HUNTERS                     AUSSIE GOLD HUNTERS                     0003700009029750000301000000000000000000000000FST                                         
022020070804096000014251200210CB000000000030CS9999999999990409600000014251200020SKYADSMART000                                     AUSSIE GOLD HUNTERS                     AUSSIE GOLD HUNTERS                     0003700000000000000002000000000000000000000000FST                                         
022020070804096000014251200210CB000000000030CS0007948504680409600000014253200030BJLMMTR230030                                     AUSSIE GOLD HUNTERS                     AUSSIE GOLD HUNTERS                     0003700009119240000101000000000000000000000000SND                                         
022020070804096000014251200210CB000000000030CS9999999999990409600000014253200030SKYADSMART000                                     AUSSIE GOLD HUNTERS                     AUSSIE GOLD HUNTERS                     0003700000000000000002000000000000000000000000SND                                         
022020070804096000014251200210CB000000000030CS0007944667920409600000014260200030MCMKEYR796030                                     AUSSIE GOLD HUNTERS                     AUSSIE GOLD HUNTERS                     0003700009101990000101000000000000000000000000OTH                                         
022020070804096000014251200210CB000000000030CS9999999999990409600000014260200030SKYADSMART000                                     AUSSIE GOLD HUNTERS                     AUSSIE GOLD HUNTERS                     0003700000000000000002000000000000000000000000OTH                                         
022020070804096000014251200210CB000000000030CS0007942353230409600000014263200030SSCDLHM037030                                     AUSSIE GOLD HUNTERS                     AUSSIE GOLD HUNTERS                     0003700009113050000101000000000000000000000000OTH                                         
022020070804096000014251200210CB000000000030CS9999999999990409600000014263200030SKYADSMART000                                     AUSSIE GOLD HUNTERS                     AUSSIE GOLD HUNTERS                     0003700000000000000002000000000000000000000000OTH                                         
022020070804096000014251200210CB000000000030CS0007950877730409600000014270200020CLDMOHE026020                                     AUSSIE GOLD HUNTERS                     AUSSIE GOLD HUNTERS                     0003700009120800000101000000000000000000000000OTH                                         
022020070804096000014251200210CB000000000030CS9999999999990409600000014270200020SKYADSMART000                                     AUSSIE GOLD HUNTERS                     AUSSIE GOLD HUNTERS                     0003700000000000000002000000000000000000000000OTH                                         
022020070804096000014251200210CB000000000030CS0007960433480409600000014272200030WPPLAMB002030                                     AUSSIE GOLD HUNTERS                     AUSSIE GOLD HUNTERS                     0003700009158540000101000000000000000000000000OTH                                         
022020070804096000014251200210CB000000000030CS9999999999990409600000014272200030SKYADSMART000                                     AUSSIE GOLD HUNTERS                     AUSSIE GOLD HUNTERS                     0003700000000000000002000000000000000000000000OTH                                         
022020070804096000014251200210CB000000000030CS0007951181010409600000014275200030SCCTMGG001030                                     AUSSIE GOLD HUNTERS                     AUSSIE GOLD HUNTERS                     0003700009128350000101000000000000000000000000PEN                                         
022020070804096000014251200210CB000000000030CS9999999999990409600000014275200030SKYADSMART000                                     AUSSIE GOLD HUNTERS                     AUSSIE GOLD HUNTERS                     0003700000000000000002000000000000000000000000PEN                                         
022020070804096000014251200210CB000000000030CS0007932969530409600000014282200020HHPSLWP203020                                     AUSSIE GOLD HUNTERS                     AUSSIE GOLD HUNTERS                     0003700009101200000101000000000000000000000000LST                                         
022020070804096000014251200210CB000000000030CS9999999999990409600000014282200020SKYADSMART000                                     AUSSIE GOLD HUNTERS                     AUSSIE GOLD HUNTERS                     0003700000000000000002000000000000000000000000LST                                         
022020070804096000014402000270CB000000000031CS0007944659430409600000014402000030MCMKEYR796030                                     AUSSIE GOLD HUNTERS                     AUSSIE GOLD HUNTERS                     0003700009101940000101000000000000000000000000FST                                         
022020070804096000014402000270CB000000000031CS9999999999990409600000014402000030SKYADSMART000                                     AUSSIE GOLD HUNTERS                     AUSSIE GOLD HUNTERS                     0003700000000000000002000000000000000000000000FST                                         
022020070804096000014402000270CB000000000031CS0007945333070409600000014405000030JLNAMPR142030                                     AUSSIE GOLD HUNTERS                     AUSSIE GOLD HUNTERS                     0003700009115750000101000000000000000000000000SND                                         
022020070804096000014402000270CB000000000031CS9999999999990409600000014405000030SKYADSMART000                                     AUSSIE GOLD HUNTERS                     AUSSIE GOLD HUNTERS                     0003700000000000000002000000000000000000000000SND                                         
022020070804096000014402000270CB000000000031CS0007936271800409600000014412000020GUSTIDE014020                                     AUSSIE GOLD HUNTERS                     AUSSIE GOLD HUNTERS                     0003700009091150000501000000000000000000000000OTH                                         
022020070804096000014402000270CB000000000031CS9999999999990409600000014412000020SKYADSMART000                                     AUSSIE GOLD HUNTERS                     AUSSIE GOLD HUNTERS                     0003700000000000000002000000000000000000000000OTH                                         
022020070804096000014402000270CB000000000031CS0007945372540409600000014414000030ATGWOCL235030                                     AUSSIE GOLD HUNTERS                     AUSSIE GOLD HUNTERS                     0003700009101800000101000000000000000000000000OTH                                         
022020070804096000014402000270CB000000000031CS9999999999990409600000014414000030SKYADSMART000                                     AUSSIE GOLD HUNTERS                     AUSSIE GOLD HUNTERS                     0003700000000000000002000000000000000000000000OTH                                         
022020070804096000014402000270CB000000000031CS0007948504640409600000014421000030BJLMMTR230030                                     AUSSIE GOLD HUNTERS                     AUSSIE GOLD HUNTERS                     0003700009119240000101000000000000000000000000OTH                                         
022020070804096000014402000270CB000000000031CS9999999999990409600000014421000030SKYADSMART000                                     AUSSIE GOLD HUNTERS                     AUSSIE GOLD HUNTERS                     0003700000000000000002000000000000000000000000OTH                                         
022020070804096000014402000270CB000000000031CS0007949791930409600000014424000010CSJHSPD037010                                     AUSSIE GOLD HUNTERS                     AUSSIE GOLD HUNTERS                     0003700009123130000101000000000000000000000000OTH                                         
022020070804096000014402000270CB000000000031CS9999999999990409600000014424000010SKYADSMART000                                     AUSSIE GOLD HUNTERS                     AUSSIE GOLD HUNTERS                     0003700000000000000002000000000000000000000000OTH                                         
022020070804096000014402000270CB000000000031CS0007957579870409600000014425000030JLNUSWT025030                                     AUSSIE GOLD HUNTERS                     AUSSIE GOLD HUNTERS                     0003700009141340000101000000000000000000000000OTH                                         
022020070804096000014402000270CB000000000031CS9999999999990409600000014425000030SKYADSMART000                                     AUSSIE GOLD HUNTERS                     AUSSIE GOLD HUNTERS                     0003700000000000000002000000000000000000000000OTH                                         
022020070804096000014402000270CB000000000031CS0007950485230409600000014432000030MTZTPCI001030                                     AUSSIE GOLD HUNTERS                     AUSSIE GOLD HUNTERS                     0003700009108870000101000000000000000000000000OTH                                         
022020070804096000014402000270CB000000000031CS9999999999990409600000014432000030SKYADSMART000                                     AUSSIE GOLD HUNTERS                     AUSSIE GOLD HUNTERS                     0003700000000000000002000000000000000000000000OTH                                         
022020070804096000014402000270CB000000000031CS0007955549640409600000014435000030HHPSLPL109030                                     AUSSIE GOLD HUNTERS                     AUSSIE GOLD HUNTERS                     0003700009101200000101000000000000000000000000PEN                                         
022020070804096000014402000270CB000000000031CS9999999999990409600000014435000030SKYADSMART000                                     AUSSIE GOLD HUNTERS                     AUSSIE GOLD HUNTERS                     0003700000000000000002000000000000000000000000PEN                                         
022020070804096000014402000270CB000000000031CS0007942529280409600000014442000030ANOCARE254030                                     AUSSIE GOLD HUNTERS                     AUSSIE GOLD HUNTERS                     0003700009113140000201000000000000000000000000LST                                         
022020070804096000014402000270CB000000000031CS9999999999990409600000014442000030SKYADSMART000                                     AUSSIE GOLD HUNTERS                     AUSSIE GOLD HUNTERS                     0003700000000000000002000000000000000000000000LST                                         
022020070804096000014563900120EB000000000032CS0007932902540409600000014563900030GCHKNBF005030                                     AUSSIE GOLD HUNTERS                     DEADLIEST CATCH (SEASON 10)             0003700009093760000101000000000000000000000000FST                                         
022020070804096000014563900120EB000000000032CS9999999999990409600000014563900030SKYADSMART000                                     AUSSIE GOLD HUNTERS                     DEADLIEST CATCH (SEASON 10)             0003700000000000000002000000000000000000000000FST                                         
022020070804096000014563900120EB000000000032CS0007960437480409600000014570900030WPPLAMB001030                                     AUSSIE GOLD HUNTERS                     DEADLIEST CATCH (SEASON 10)             0003700009158540000101000000000000000000000000SND                                         
022020070804096000014563900120EB000000000032CS9999999999990409600000014570900030SKYADSMART000                                     AUSSIE GOLD HUNTERS                     DEADLIEST CATCH (SEASON 10)             0003700000000000000002000000000000000000000000SND                                         
022020070804096000014563900120EB000000000032CS0007957939700409600000014573900030HIHHIHI011030                                     AUSSIE GOLD HUNTERS                     DEADLIEST CATCH (SEASON 10)             0003700009147700000101000000000000000000000000PEN                                         
022020070804096000014563900120EB000000000032CS9999999999990409600000014573900030SKYADSMART000                                     AUSSIE GOLD HUNTERS                     DEADLIEST CATCH (SEASON 10)             0003700000000000000002000000000000000000000000PEN                                         
022020070804096000014563900120EB000000000032CS0007957579850409600000014580900030JLNUSWT025030                                     AUSSIE GOLD HUNTERS                     DEADLIEST CATCH (SEASON 10)             0003700009141340000101000000000000000000000000LST                                         
022020070804096000014563900120EB000000000032CS9999999999990409600000014580900030SKYADSMART000                                     AUSSIE GOLD HUNTERS                     DEADLIEST CATCH (SEASON 10)             0003700000000000000002000000000000000000000000LST                                         
022020070804096000015132800120CB000000000076CS0007950759560409600000015132800020GOCBRND069020                                     DEADLIEST CATCH (SEASON 10)             DEADLIEST CATCH (SEASON 10)             0003700009119470000201000000000000000000000000FST                                         
