SMCU20200723091700160686669030      PPL/PPLU015/030     0100000000PPL/PPLU015/030Peoples Postcode Lottery 2020071620200723                                        
SMCU20200723091700160686670030      HKP/OPEN007/030     0200000000HKP/OPEN007/030Open University Branding 2020070120200731                                        
SMCU20200723091700160686671030      CHI/BGBR692/030     0300000000CHI/BGBR692/030British Gas Home Installa2020070120200731                                        
SMCU20200723091700160686672020      HHP/SLWP203/020     0400000000HHP/SLWP203/020Sunlife GOF              2020070620200724                                        
SMCU20200723091700160686673010      MUD/ITGA003/010     0500000000MUD/ITGA003/010Itch SR                  2020070120200731                                        
SMCU20200723091700160686674010      FTB/FMPA003/010     0600000000FTB/FMPA003/010FindMyPast SR            2020070620200731                                        
SMCU20200723091700160686675030      REP/CPNS240/030     0700000000REP/CPNS240/030Co-op Over 50s DRTV      2020070120200731                                        
SMCU20200723091700160686676020      HOG/GXSE965/020     0800000000HOG/GXSE965/020Sensodyne Brand          2020070620200726                                        
SMCU20200723091700160686677090      DTV/SSYS003/090     0900000000DTV/SSYS003/090Sight Savers DRTV        2020070120200731                                        
SMCU20200723093800260686678020      RVE/TBCO045/020     0100000000RVE/TBCO045/020Tombola DRTV             2020070120200731                                        
SMCU20200723093800260686679020      MIF/SCPL280/020     0200000000MIF/SCPL280/020SCA Plenty Kitchen Towel 2020070620200726                                        
SMCU20200723093800260686680020      HOG/GXCO978/020     0300000000HOG/GXCO978/020Corsodyl                 2020070620200726                                        
SMCU20200723093800260686681040      AMV/BZBB298/040     0400000000AMV/BZBB298/040BT Broadband DRTV        2020071720200730                                        
SMCU20200723093800260686682030      WLI/WWOM012/030     0500000000WLI/WWOM012/030Weight Watchers DRTV     2020071920200731                                        
SMCU20200723093800260686683030      PGE/BEST006/030     0600000000PGE/BEST006/030Best Fiends Direct SR    2020070120200731                                        
SMCU20200723093800260686684010      WPP/GLDI089/010     0700000000WPP/GLDI089/010Glasses Direct Shared Rew2020070120200731                                        
SMCU20200723093800260686685060      SCC/BSVU135/060     0800000000SCC/BSVU135/060Neilson Financial Service2020070120200731                                        
SMCU20200723093800260686686020      HOG/GXVO994/020     0900000000HOG/GXVO994/020Novartis Voltarol Medifac2020070620200726                                        
SMCU20200723093800260686687020      AMV/ASJR281/020     1000000000AMV/ASJR281/020Asda Brand 2 HFSS (APX)  2020070620200731                                        
SMCU20200723095503760686688010      HOG/GXPI951/010     0100000000HOG/GXPI951/010Pirinase Hayfever Relief 2020070620200726                                        
SMCU20200723095503760686689020      HKX/VAVP003/020     0200000000HKX/VAVP003/020Vanish Pink Platinum     2020071320200726                                        
SMCU20200723095503760686690030      HOG/HZSA471/030     0300000000HOG/HZSA471/030Heinz Summer Sauces      2020072320200731                                        
SMCU20200723095503760686691020      HHP/SLWP203/020     0400000000HHP/SLWP203/020Sunlife GOF              2020070620200724                                        
SMCU20200723095503760686692090      DTV/SSYS003/090     0500000000DTV/SSYS003/090Sight Savers DRTV        2020070120200731                                        
SMCU20200723095503760686693010      HOG/BOOP368/010     0600000000HOG/BOOP368/010Boots Opticians          2020071020200730                                        
SMCU20200723101900360686694020      HOG/GXSE965/020     0100000000HOG/GXSE965/020Sensodyne Brand          2020070620200726                                        
SMCU20200723101900360686695030      MCM/CLEA800/030     0200000000MCM/CLEA800/030Clearscore Protect SR    2020070120200731                                        
SMCU20200723101900360686696030      CHF/STUD787/030     0300000000CHF/STUD787/030Express Gifts            2020070120200731                                        
SMCU20200723101900360686697030      IRI/HABR069/030     0400000000IRI/HABR069/030Haven Holidays DRTV      2020070820200731                                        
SMCU20200723101900360686698030      FTB/FMPA001/030     0500000000FTB/FMPA001/030FindMyPast SR            2020070620200731                                        
SMCU20200723101900360686699030      SKY/AWBS001/030     0600000000SKY/AWBS001/030Sky Now TV Entertainment 2020070120200731                                        
SMCU20200723101900360686700020      HHP/SLWP203/020     0700000000HHP/SLWP203/020Sunlife GOF              2020070620200724                                        
SMCU20200723101900360686701030      CTV/WLHH001/030     0800000000CTV/WLHH001/030Warner Leisure Hotels DRT2020072020200731                                        
SMCU20200723101900360686702020      HOG/GXVO994/020     0900000000HOG/GXVO994/020Novartis Voltarol Medifac2020070620200726                                        
SMCU20200723101900360686703030      GRY/PGPP638/030     1000000000GRY/PGPP638/030Pantene                  2020070120200731                                        
SMCU20200723104503860686704030      SHT/DPMA064/030     0100000000SHT/DPMA064/030Disney Plus Take Disney W2020070120200731                                        
SMCU20200723104503860686705030      AED/WABR245/030     0200000000AED/WABR245/030Waitrose Taste Cherry    2020072220200731                                        
SMCU20200723104503860686706030      PCH/NISW168/030     0300000000PCH/NISW168/030Nintendo Animal Crossing 2020072020200731                                        
SMCU20200723104503860686707040      IRI/SSBR023/040     0400000000IRI/SSBR023/040Staysure DRTV            2020072020200731                                        
SMCU20200723104503860686708030      PGE/BEST002/030     0500000000PGE/BEST002/030Best Fiends Direct SR    2020070120200731                                        
SMCU20200723104503860686709020      MCE/CPGT001/020     0600000000MCE/CPGT001/020Nestle Cereal Partners Re2020070620200726                                        
SMCU20200723104503860686710060      SCC/BSVU135/060     0700000000SCC/BSVU135/060Neilson Financial Service2020070120200731                                        
SMCU20200723104503860686711030      MIF/NEBU270/030     0800000000MIF/NEBU270/030Buxton Water             2020072020200731                                        
SMCU20200723105603960686712060      SCC/RLPV602/060     0100000000SCC/RLPV602/060Royal London Group Over 52020070620200731                                        
SMCU20200723105603960686713030      HOG/HZSA471/030     0200000000HOG/HZSA471/030Heinz Summer Sauces      2020072320200731                                        
SMCU20200723105603960686714030      SKY/NWCI002/030     0300000000SKY/NWCI002/030Sky Now TV Movies DRTV   2020070120200731                                        
SMCU20200723105603960686715030      GCH/KNBF005/030     0400000000GCH/KNBF005/030Gtech Air Ram            2020070620200726                                        
SMCU20200723105603960686716030      WLI/WWOM012/030     0500000000WLI/WWOM012/030Weight Watchers DRTV     2020071920200731                                        
SMCU20200723111600460686717020      VCC/TOSI369/020     0100000000VCC/TOSI369/020O2 Simo DRTV             2020070120200731                                        
SMCU20200723111600460686718030      CKC/SKHD158/030     0200000000CKC/SKHD158/030Sky Broadband DRTV       2020070120200731                                        
SMCU20200723111600460686719030      IRI/HABR070/030     0300000000IRI/HABR070/030Haven Holidays DRTV      2020070820200731                                        
SMCU20200723111600460686720020      HHP/SLWP203/020     0400000000HHP/SLWP203/020Sunlife GOF              2020070620200724                                        
SMCU20200723111600460686721010      WPP/GLDI087/010     0500000000WPP/GLDI087/010Glasses Direct Shared Rew2020070120200731                                        
SMCU20200723111600460686722030      JML/JNRC026/030     0600000000JML/JNRC026/030JML Finishing Touch Brand2020070120200731                                        
SMCU20200723111600460686723090      DTV/WVSK002/090     0700000000DTV/WVSK002/090World Vision Kema        2020070120200731                                        
SMCU20200723111600460686724010      FTB/FMPA005/010     0800000000FTB/FMPA005/010FindMyPast SR            2020070620200731                                        
SMCU20200723113500560686725010      RVE/TBCO042/010     0100000000RVE/TBCO042/010Tombola DRTV             2020070120200731                                        
SMCU20200723113500560686726020      CLD/MOHE026/020     0200000000CLD/MOHE026/020Moonpig Cards DRTV       2020070320200730                                        
SMCU20200723113500560686727030      CTV/WLHH001/030     0300000000CTV/WLHH001/030Warner Leisure Hotels DRT2020072020200731                                        
SMCU20200723113500560686728030      REP/CPNS240/030     0400000000REP/CPNS240/030Co-op Over 50s DRTV      2020070120200731                                        
SMCU20200723113500560686729030      OLI/LGFN740/030     0500000000OLI/LGFN740/030Legal & General Term Insu2020070120200731                                        
SMCU20200723113500560686730010      MSX/GLAS003/010     0600000000MSX/GLAS003/010Mister Spex              2020070120200731                                        
SMCU20200723113500560686731030      SKY/SOLP003/030     0700000000SKY/SOLP003/030Step One Clothing        2020070120200731                                        
SMCU20200723113500560686732040      IRI/SSBR023/040     0800000000IRI/SSBR023/040Staysure DRTV            2020072020200731                                        
SMCU20200723113500560686733030      SKY/AWBS001/030     0900000000SKY/AWBS001/030Sky Now TV Entertainment 2020070120200731                                        
SMCU20200723113500560686734030      INF/CRIS002/030     1000000000INF/CRIS002/030Crisis Homeless Charity  2020070320200730                                        
SMCU20200723113500560686735010      MUD/ITPH003/010     1100000000MUD/ITPH003/010Itch SR                  2020070120200731                                        
SMCU20200723115504060686736090      DTV/WVSK002/090     0100000000DTV/WVSK002/090World Vision Kema        2020070120200731                                        
SMCU20200723115504060686737030      IRI/HABR069/030     0200000000IRI/HABR069/030Haven Holidays DRTV      2020070820200731                                        
SMCU20200723115504060686738020      HHP/SLWP203/020     0300000000HHP/SLWP203/020Sunlife GOF              2020070620200724                                        
SMCU20200723115504060686739040      IRI/SSBR023/040     0400000000IRI/SSBR023/040Staysure DRTV            2020072020200731                                        
SMCU20200723122000660686740030      DTV/WFRT001/030     0100000000DTV/WFRT001/030WWF Adoptions            2020070120200731                                        
SMCU20200723122000660686741030      HOG/HZSA471/030     0200000000HOG/HZSA471/030Heinz Summer Sauces      2020072320200731                                        
SMCU20200723122000660686742060      SCC/RLPT702/060     0300000000SCC/RLPT702/060Royal London Group Over 52020070620200731                                        
SMCU20200723122000660686743020      VCC/TOHS366/020     0400000000VCC/TOHS366/020O2 Handsets              2020070120200731                                        
SMCU20200723122000660686744030      MCM/KEYR797/030     0500000000MCM/KEYR797/030Key Retirement Solutions 2020070120200731                                        
SMCU20200723122000660686745020      HKX/VACW012/020     0600000000HKX/VACW012/020Vanish Whites Washing Pow2020070120200731                                        
SMCU20200723122000660686746030      CKC/SKHD158/030     0700000000CKC/SKHD158/030Sky Broadband DRTV       2020070120200731                                        
SMCU20200723122000660686747030      BCL/AVER002/030     0800000000BCL/AVER002/030Aviva Equity Release     2020070120200731                                        
SMCU20200723122000660686748020      RVE/TBCO045/020     0900000000RVE/TBCO045/020Tombola DRTV             2020070120200731                                        
SMCU20200723124504160686749020      HHP/SLWP203/020     0100000000HHP/SLWP203/020Sunlife GOF              2020070620200724                                        
SMCU20200723124504160686750030      SAA/CROL041/030     0200000000SAA/CROL041/030Coty Clairol             2020072020200731                                        
SMCU20200723124504160686751040      PUC/MOSF001/040     0300000000PUC/MOSF001/040Pure Cremation           2020070120200731                                        
SMCU20200723124504160686752030      GCH/KNBF005/030     0400000000GCH/KNBF005/030Gtech Air Ram            2020070620200726                                        
SMCU20200723124504160686753020      VCC/TOSI369/020     0500000000VCC/TOSI369/020O2 Simo DRTV             2020070120200731                                        
SMCU20200723124504160686754020      BUR/TALW558/020     0600000000BUR/TALW558/020Always Discreet Shero    2020071520200731                                        
SMCU20200723124504160686755030      SKY/NWCI002/030     0700000000SKY/NWCI002/030Sky Now TV Movies DRTV   2020070120200731                                        
SMCU20200723124504160686756040      IRI/SSBR023/040     0800000000IRI/SSBR023/040Staysure DRTV            2020072020200731                                        
SMCU20200723124504160686757030      OPL/WFFD008/030     0900000000OPL/WFFD008/030Wiltshire Farm Foods DRTV2020070120200731                                        
SMCU20200723124504160686758010      LYG/CPBR065/010     1000000000LYG/CPBR065/010Co-op SuperSaver (MNS)   2020071520200728                                        
SMCU20200723125604260686759010      BDU/PBEE012/010     0100000000BDU/PBEE012/010Pension Bee              2020070120200731                                        
SMCU20200723125604260686760030      AED/WABR245/030     0200000000AED/WABR245/030Waitrose Taste Cherry    2020072220200731                                        
SMCU20200723125604260686761030      PPL/PPLU018/030     0300000000PPL/PPLU018/030Peoples Postcode Lottery 2020071620200723                                        
SMCU20200723125604260686762090      DTV/WVSK002/090     0400000000DTV/WVSK002/090World Vision Kema        2020070120200731                                        
SMCU20200723125604260686763020      HHP/SLWP203/020     0500000000HHP/SLWP203/020Sunlife GOF              2020070620200724                                        
SMCU20200723131400760686764030      MLL/COAT001/030     0100000000MLL/COAT001/030CCS EU Transition        2020072020200731                                        
SMCU20200723131400760686765020      TTB/SUNT351/020     0200000000TTB/SUNT351/020The Sun Superdays        2020072320200725                                        
SMCU20200723131400760686766060      SCC/RLPV602/060     0300000000SCC/RLPV602/060Royal London Group Over 52020070620200731                                        
SMCU20200723131400760686767040      PUC/MOSF001/040     0400000000PUC/MOSF001/040Pure Cremation           2020070120200731                                        
SMCU20200723131400760686768010      RVE/TBCO042/010     0500000000RVE/TBCO042/010Tombola DRTV             2020070120200731                                        
SMCU20200723131400760686769010      WPP/GLDI089/010     0600000000WPP/GLDI089/010Glasses Direct Shared Rew2020070120200731                                        
SMCU20200723131400760686770020      VCC/TOHS366/020     0700000000VCC/TOHS366/020O2 Handsets              2020070120200731                                        
SMCU20200723131400760686771030      CTV/WLHH001/030     0800000000CTV/WLHH001/030Warner Leisure Hotels DRT2020072020200731                                        
SMCU20200723131400760686772030      MCM/KEYR796/030     0900000000MCM/KEYR796/030Key Retirement Solutions 2020070120200731                                        
SMCU20200723131400760686773020      AMV/ASJR281/020     1000000000AMV/ASJR281/020Asda Brand 2 HFSS (APX)  2020070620200731                                        
SMCU20200723133400860686774010      LYG/CPBR065/010     0100000000LYG/CPBR065/010Co-op SuperSaver (MNS)   2020071520200728                                        
SMCU20200723133400860686775020      HHP/SLWP203/020     0200000000HHP/SLWP203/020Sunlife GOF              2020070620200724                                        
SMCU20200723133400860686776030      GCH/KNBF005/030     0300000000GCH/KNBF005/030Gtech Air Ram            2020070620200726                                        
SMCU20200723133400860686777030      SKY/AWBS001/030     0400000000SKY/AWBS001/030Sky Now TV Entertainment 2020070120200731                                        
SMCU20200723133400860686778030      DTV/DECV006/030     0500000000DTV/DECV006/030Disasters Emergency Commi2020071520200728                                        
SMCU20200723133400860686779010      TTB/GALA027/010     0600000000TTB/GALA027/010Galabingo DRTV           2020070120200731                                        
SMCU20200723133400860686780010      WLI/WWOM014/010     0700000000WLI/WWOM014/010Weight Watchers DRTV     2020071920200731                                        
SMCU20200723133400860686781030      JML/CHMX022/030     0800000000JML/CHMX022/030JML Chill Air Max (BAR)  2020070620200731                                        
SMCU20200723133400860686782030      IRI/HABR070/030     0900000000IRI/HABR070/030Haven Holidays DRTV      2020070820200731                                        
SMCU20200723133400860686783040      PUC/MOSF001/040     1000000000PUC/MOSF001/040Pure Cremation           2020070120200731                                        
SMCU20200723133400860686784030      MCM/CLEA800/030     1100000000MCM/CLEA800/030Clearscore Protect SR    2020070120200731                                        
SMCU20200723135604360686785010      BBU/PBEE008/010     0100000000BBU/PBEE008/010Pension Bee              2020070120200731                                        
SMCU20200723135604360686786060      ATO/CRDG040/060     0200000000ATO/CRDG040/060Cancer Research Legacy   2020071320200731                                        
SMCU20200723135604360686787040      IRI/SSBR023/040     0300000000IRI/SSBR023/040Staysure DRTV            2020072020200731                                        
SMCU20200723135604360686788010      MUD/ITGA003/010     0400000000MUD/ITGA003/010Itch SR                  2020070120200731                                        
SMCU20200723135604360686789040      AMV/BZBB318/040     0500000000AMV/BZBB318/040BT Broadband Sports DRTV 2020071720200730                                        
SMCU20200723135604360686790020      HHP/SLWP203/020     0600000000HHP/SLWP203/020Sunlife GOF              2020070620200724                                        
SMCU20200723141900960686791020      BBH/TCPD226/020     0100000000BBH/TCPD226/020Tesco APM (BAR)          2020072320200731                                        
SMCU20200723141900960686792030      KAR/PLUS517/030     0200000000KAR/PLUS517/030BT PlusNet DRTV          2020071520200731                                        
SMCU20200723141900960686793030      PPL/PPLU016/030     0300000000PPL/PPLU016/030Peoples Postcode Lottery 2020071620200723                                        
SMCU20200723141900960686794030      IRI/HABR069/030     0400000000IRI/HABR069/030Haven Holidays DRTV      2020070820200731                                        
SMCU20200723141900960686795020      BUR/TALW558/020     0500000000BUR/TALW558/020Always Discreet Shero    2020071520200731                                        
SMCU20200723141900960686796020      HHP/SLWP203/020     0600000000HHP/SLWP203/020Sunlife GOF              2020070620200724                                        
SMCU20200723141900960686797030      VTN/BPSS066/030     0700000000VTN/BPSS066/030BonPrix                  2020070120200731                                        
SMCU20200723141900960686798030      HKP/OPEN008/030     0800000000HKP/OPEN008/030Open University Branding 2020070120200731                                        
SMCU20200723141900960686799040      PUC/MOSF001/040     0900000000PUC/MOSF001/040Pure Cremation           2020070120200731                                        
SMCU20200723141900960686800020      RVE/TBCO045/020     1000000000RVE/TBCO045/020Tombola DRTV             2020070120200731                                        
SMCU20200723144404460686801090      DTV/WVSK002/090     0100000000DTV/WVSK002/090World Vision Kema        2020070120200731                                        
SMCU20200723144404460686802030      PPL/PPLU015/030     0200000000PPL/PPLU015/030Peoples Postcode Lottery 2020071620200723                                        
SMCU20200723144404460686803030      IRI/HABR070/030     0300000000IRI/HABR070/030Haven Holidays DRTV      2020070820200731                                        
SMCU20200723144404460686804030      REP/CPNS240/030     0400000000REP/CPNS240/030Co-op Over 50s DRTV      2020070120200731                                        
SMCU20200723144404460686805030      WLI/WWOM012/030     0500000000WLI/WWOM012/030Weight Watchers DRTV     2020071920200731                                        
SMCU20200723144404460686806060      SCC/RLPT702/060     0600000000SCC/RLPT702/060Royal London Group Over 52020070620200731                                        
SMCU20200723150501060686807020      HHP/SLWP203/020     0100000000HHP/SLWP203/020Sunlife GOF              2020070620200724                                        
SMCU20200723150501060686808030      WLI/WWOM012/030     0200000000WLI/WWOM012/030Weight Watchers DRTV     2020071920200731                                        
SMCU20200723150501060686809010      TTB/GALA027/010     0300000000TTB/GALA027/010Galabingo DRTV           2020070120200731                                        
SMCU20200723150501060686810030      GCH/KNBF005/030     0400000000GCH/KNBF005/030Gtech Air Ram            2020070620200726                                        
SMCU20200723150501060686811030      SCC/BSPS301/030     0500000000SCC/BSPS301/030Beagle Street            2020070120200731                                        
SMCU20200723150501060686812030      DTV/DECV006/030     0600000000DTV/DECV006/030Disasters Emergency Commi2020071520200728                                        
SMCU20200723150501060686813010      WPP/GLDI087/010     0700000000WPP/GLDI087/010Glasses Direct Shared Rew2020070120200731                                        
SMCU20200723150501060686814030      PPL/PPLU018/030     0800000000PPL/PPLU018/030Peoples Postcode Lottery 2020071620200723                                        
SMCU20200723150501060686815020      VCC/TOHS366/020     0900000000VCC/TOHS366/020O2 Handsets              2020070120200731                                        
SMCU20200723150501060686816030      MCM/CLEA800/030     1000000000MCM/CLEA800/030Clearscore Protect SR    2020070120200731                                        
SMCU20200723150501060686817020      GOC/DRTV074/020     1100000000GOC/DRTV074/020Go Compare DRTV          2020070620200731                                        
SMCU20200723150501060686818010      BBU/PBEE006/010     1200000000BBU/PBEE006/010Pension Bee              2020070120200731                                        
SMCU20200723152401160686819040      PUC/MOSF001/040     0100000000PUC/MOSF001/040Pure Cremation           2020070120200731                                        
SMCU20200723152401160686820090      DTV/WVSK002/090     0200000000DTV/WVSK002/090World Vision Kema        2020070120200731                                        
SMCU20200723152401160686821030      IRI/HABR069/030     0300000000IRI/HABR069/030Haven Holidays DRTV      2020070820200731                                        
SMCU20200723152401160686822030      MUM/TBTF002/030     0400000000MUM/TBTF002/030Thinkbox TV              2020072120200731                                        
SMCU20200723152401160686823060      SCC/RLPV602/060     0500000000SCC/RLPV602/060Royal London Group Over 52020070620200731                                        
SMCU20200723152401160686824020      CLD/MOHE026/020     0600000000CLD/MOHE026/020Moonpig Cards DRTV       2020070320200730                                        
SMCU20200723154504560686825030      GRY/PGPP638/030     0100000000GRY/PGPP638/030Pantene                  2020070120200731                                        
SMCU20200723154504560686826040      PUC/MOSF001/040     0200000000PUC/MOSF001/040Pure Cremation           2020070120200731                                        
SMCU20200723154504560686827020      HHP/SLWP203/020     0300000000HHP/SLWP203/020Sunlife GOF              2020070620200724                                        
SMCU20200723154504560686828030      IRI/HABR070/030     0400000000IRI/HABR070/030Haven Holidays DRTV      2020070820200731                                        
SMCU20200723154504560686829060      DTV/PDWI009/060     0500000000DTV/PDWI009/060PDSA Lottery DRTV        2020070120200731                                        
SMCU20200723160601260686830030      AMV/MACM005/030     0100000000AMV/MACM005/030Macmillan Cancer Coffee N2020070620200731                                        
SMCU20200723160601260686831030      WCR/MSMS066/030     0200000000WCR/MSMS066/030Money Supermarket GME    2020070120200731                                        
SMCU20200723160601260686832040      DCO/YUMV001/040     0300000000DCO/YUMV001/040Lintbells                2020070120200731                                        
SMCU20200723160601260686833020      VCC/TOHS366/020     0400000000VCC/TOHS366/020O2 Handsets              2020070120200731                                        
SMCU20200723160601260686834030      JML/FTRC039/030     0500000000JML/FTRC039/030JML Finishing Touch Brand2020070120200731                                        
SMCU20200723160601260686835030      IRI/HABR069/030     0600000000IRI/HABR069/030Haven Holidays DRTV      2020070820200731                                        
SMCU20200723160601260686836030      WLI/WWOM012/030     0700000000WLI/WWOM012/030Weight Watchers DRTV     2020071920200731                                        
SMCU20200723160601260686837060      SCC/SPSU063/060     0800000000SCC/SPSU063/060Neilson Financial Service2020070120200731                                        
SMCU20200723164004660686838030      SSC/PGHS493/030     0100000000SSC/PGHS493/030Head & Shoulders Adults  2020070820200731                                        
SMCU20200723164004660686839030      BCL/AVER002/030     0200000000BCL/AVER002/030Aviva Equity Release     2020070120200731                                        
SMCU20200723164004660686840030      ATG/KNAK444/030     0300000000ATG/KNAK444/030Actegy Revitive (BAR)    2020070120200731                                        
SMCU20200723164004660686841030      SKY/NWCI002/030     0400000000SKY/NWCI002/030Sky Now TV Movies DRTV   2020070120200731                                        
SMCU20200723164004660686842060      SCC/BSPU135/060     0500000000SCC/BSPU135/060Neilson Financial Service2020070120200731                                        
SMCU20200723164004660686843010      MUD/ITPH003/010     0600000000MUD/ITPH003/010Itch SR                  2020070120200731                                        
SMCU20200723164004660686844030      HKP/OPEN007/030     0700000000HKP/OPEN007/030Open University Branding 2020070120200731                                        
SMCU20200723164004660686845030      MCM/CLEA800/030     0800000000MCM/CLEA800/030Clearscore Protect SR    2020070120200731                                        
SMCU20200723164004660686846020      BUR/TALW558/020     0900000000BUR/TALW558/020Always Discreet Shero    2020071520200731                                        
SMCU20200723165104760686847030      DES/LVMC013/030     0100000000DES/LVMC013/030Liverpool Victoria Multi 2020071720200731                                        
SMCU20200723165104760686848030      AWN/LLOY002/030     0200000000AWN/LLOY002/030Lloyds Pharmacy          2020071320200726                                        
SMCU20200723165104760686849030      CHI/BGBR692/030     0300000000CHI/BGBR692/030British Gas Home Installa2020070120200731                                        
SMCU20200723165104760686850030      PGE/BEST007/030     0400000000PGE/BEST007/030Best Fiends Direct SR    2020070120200731                                        
SMCU20200723165104760686851030      AMV/BZBB300/030     0500000000AMV/BZBB300/030BT Broadband DRTV        2020071720200730                                        
SMCU20200723165104760686852030      REP/CPNS240/030     0600000000REP/CPNS240/030Co-op Over 50s DRTV      2020070120200731                                        
SMCU20200723171101360686853030      GNW/DYSN187/030     0100000000GNW/DYSN187/030Dyson Best Bits DRTV     2020071520200731                                        
SMCU20200723171101360686854020      TTB/ENGI003/020     0200000000TTB/ENGI003/020Energizer Max            2020072020200731                                        
SMCU20200723171101360686855010      WPP/GLDI089/010     0300000000WPP/GLDI089/010Glasses Direct Shared Rew2020070120200731                                        
SMCU20200723171101360686856060      SCC/BSVU135/060     0400000000SCC/BSVU135/060Neilson Financial Service2020070120200731                                        
SMCU20200723171101360686857060      MUM/TBTF001/060     0500000000MUM/TBTF001/060Thinkbox TV              2020072120200731                                        
SMCU20200723172701460686858060      SCC/RLPT702/060     0100000000SCC/RLPT702/060Royal London Group Over 52020070620200731                                        
SMCU20200723172701460686859030      GCH/KNBF005/030     0200000000GCH/KNBF005/030Gtech Air Ram            2020070620200726                                        
SMCU20200723172701460686860030      SKY/AWBS001/030     0300000000SKY/AWBS001/030Sky Now TV Entertainment 2020070120200731                                        
SMCU20200723172701460686861030      IRI/HABR070/030     0400000000IRI/HABR070/030Haven Holidays DRTV      2020070820200731                                        
SMCU20200723172701460686862030      OPL/WFFD008/030     0500000000OPL/WFFD008/030Wiltshire Farm Foods DRTV2020070120200731                                        
SMCU20200723174804860686863020      HSL/DBCS876/020     0100000000HSL/DBCS876/020ACDO Dr Beckmann         2020071320200731                                        
SMCU20200723174804860686864010      BJL/MMST236/010     0200000000BJL/MMST236/010Music Magpie Store Tech  2020070120200731                                        
SMCU20200723174804860686865020      HOG/GXCO978/020     0300000000HOG/GXCO978/020Corsodyl                 2020070620200726                                        
SMCU20200723174804860686866020      KAR/LIDL116/020     0400000000KAR/LIDL116/020Lidl Price Comparison    2020071620200729                                        
SMCU20200723174804860686867030      ATG/WOCL235/030     0500000000ATG/WOCL235/030Actegy Revitive (BAR)    2020070120200731                                        
SMCU20200723174804860686868020      PCH/NISW170/020     0600000000PCH/NISW170/020Nintendo Switch 51 WW Gam2020072020200726                                        
SMCU20200723174804860686869030      SSC/DLCA042/030     0700000000SSC/DLCA042/030Direct Line Core         2020070120200731                                        
SMCU20200723174804860686870010      HOG/GXPI951/010     0800000000HOG/GXPI951/010Pirinase Hayfever Relief 2020070620200726                                        
SMCU20200723174804860686871020      VCC/DOMN203/020     0900000000VCC/DOMN203/020Dominos Branding         2020072020200731                                        
SMCU20200723181701560686872030      SSC/MEBR002/030     0100000000SSC/MEBR002/030Mercedes Online Showroom 2020070120200726                                        
SMCU20200723181701560686873030      SNQ/PUBR145/030     0200000000SNQ/PUBR145/030Purplebricks GME         2020070120200726                                        
SMCU20200723181701560686874030      AMZ/MMME001/030     0300000000AMZ/MMME001/030Amazon Brand Truths      2020072020200731                                        
SMCU20200723181701560686875030      AMV/BZBB306/030     0400000000AMV/BZBB306/030BT Deals GME             2020071720200730                                        
SMCU20200723181701560686876020      BBS/HOSK005/020     0500000000BBS/HOSK005/020Skippy Peanut Butter     2020072020200731                                        
SMCU20200723181701560686877020      TAG/KTGB008/020     0600000000TAG/KTGB008/020L'Oreal Kerastase Blond A2020072020200731                                        
SMCU20200723181701560686878030      FOL/AUDI101/030     0700000000FOL/AUDI101/030Amazon Audible           2020071120200731                                        
SMCU20200723181701560686879030      AED/AAAA118/030     0800000000AED/AAAA118/030AA Branding (BAR)        2020071320200731                                        
SMCU20200723181701560686880020      YRL/BUSC001/020     0900000000YRL/BUSC001/020Buscopan                 2020071320200731                                        
SMCU20200723184004960686881030      CHI/RBNW025/030     0100000000CHI/RBNW025/030Natwest Brand            2020070420200724                                        
SMCU20200723184004960686882010      MCE/SUDO019/010     0200000000MCE/SUDO019/010Sudocrem Brand           2020071320200726                                        
SMCU20200723184004960686883015      YIG/TRIV139/015     0300000000YIG/TRIV139/015Trivago Hotel Comparison 2020071120200731                                        
SMCU20200723184004960686884030      SSC/FIAT227/030     0400000000SSC/FIAT227/030Fiat 500                 2020072020200731                                        
SMCU20200723184004960686885030      HOG/TIKT011/030     0500000000HOG/TIKT011/030TikTok                   2020070420200726                                        
SMCU20200723184004960686886020      TAG/KTGB008/020     0600000000TAG/KTGB008/020L'Oreal Kerastase Blond A2020072020200731                                        
SMCU20200723184004960686887015      YIG/TRIV139/015     0700000000YIG/TRIV139/015Trivago Hotel Comparison 2020071120200731                                        
SMCU20200723184004960686888030      TTB/PAND088/030     0800000000TTB/PAND088/030Pandora Jewellery 3 For 22020072320200731                                        
SMCU20200723184004960686889060      MLL/COAT002/060     0900000000MLL/COAT002/060CCS EU Transition        2020072020200731                                        
SMCU20200723185901660686890030      GNW/DYSN185/030     0100000000GNW/DYSN185/030Dyson Personal Care GME  2020072020200731                                        
SMCU20200723185901660686891030      AED/AAAA118/030     0200000000AED/AAAA118/030AA Branding (BAR)        2020071320200731                                        
SMCU20200723185901660686892030      HKX/OUOU019/030     0300000000HKX/OUOU019/030Open University MCH      2020070120200731                                        
SMCU20200723185901660686893030      INN/KIAM042/030     0400000000INN/KIAM042/030Kia Niro (NBA)           2020072020200731                                        
SMCU20200723185901660686894020      HOG/GXSE965/020     0500000000HOG/GXSE965/020Sensodyne Brand          2020070620200726                                        
SMCU20200723185901660686895030      MIF/NEBU270/030     0600000000MIF/NEBU270/030Buxton Water             2020072020200731                                        
SMCU20200723185901660686896030      WCR/BSKY906/030     0700000000WCR/BSKY906/030Sky Mobile Text 2 Switch 2020070320200731                                        
SMCU20200723185901660686897030      AMZ/MMFA001/030     0800000000AMZ/MMFA001/030Amazon Brand Truths      2020072020200731                                        
SMCU20200723185901660686898030      XRO/XERO004/030     0900000000XRO/XERO004/030Xero                     2020070620200726                                        
SMCU20200723185901660686899010      BJL/MMST236/010     1000000000BJL/MMST236/010Music Magpie Store Tech  2020070120200731                                        
SMCU20200723191901760686900030      DRG/AMAL015/030     0100000000DRG/AMAL015/030Amazon Just Ask Alexa    2020072020200731                                        
SMCU20200723191901760686901010      WCR/RAFR032/010     0200000000WCR/RAFR032/010CCS RAF Broad Appeal     2020072020200731                                        
SMCU20200723191901760686902015      YIG/TRIV139/015     0300000000YIG/TRIV139/015Trivago Hotel Comparison 2020071120200731                                        
SMCU20200723191901760686903030      HOG/TIKT011/030     0400000000HOG/TIKT011/030TikTok                   2020070420200726                                        
SMCU20200723191901760686904030      LYG/TAYL006/030     0500000000LYG/TAYL006/030Taylors Coffee (BAR)     2020071320200731                                        
SMCU20200723191901760686905030      ANO/CARE258/030     0600000000ANO/CARE258/030Cancer Research Appeal   2020072020200731                                        
SMCU20200723191901760686906030      AED/AAAA118/030     0700000000AED/AAAA118/030AA Branding (BAR)        2020071320200731                                        
SMCU20200723191901760686907030      FOL/AUDI101/030     0800000000FOL/AUDI101/030Amazon Audible           2020071120200731                                        
SMCU20200723191901760686908020      TAG/KTGB008/020     0900000000TAG/KTGB008/020L'Oreal Kerastase Blond A2020072020200731                                        
SMCU20200723191901760686909015      YIG/TRIV139/015     1000000000YIG/TRIV139/015Trivago Hotel Comparison 2020071120200731                                        
SMCU20200723191901760686910030      WCR/MSMS066/030     1100000000WCR/MSMS066/030Money Supermarket GME    2020070120200731                                        
SMCU20200723194005060686911030      DRG/AMAL015/030     0100000000DRG/AMAL015/030Amazon Just Ask Alexa    2020072020200731                                        
SMCU20200723194005060686912010      VCC/COMP489/010     0200000000VCC/COMP489/010Compare the Market Servic2020070120200731                                        
SMCU20200723194005060686913015      YIG/TRIV139/015     0300000000YIG/TRIV139/015Trivago Hotel Comparison 2020071120200731                                        
SMCU20200723194005060686914030      FOL/AUDI101/030     0400000000FOL/AUDI101/030Amazon Audible           2020071120200731                                        
SMCU20200723194005060686915020      TTB/SUNT351/020     0500000000TTB/SUNT351/020The Sun Superdays        2020072320200725                                        
SMCU20200723194005060686916030      AED/AAAA118/030     0600000000AED/AAAA118/030AA Branding (BAR)        2020071320200731                                        
SMCU20200723194005060686917020      TAG/KTGB008/020     0700000000TAG/KTGB008/020L'Oreal Kerastase Blond A2020072020200731                                        
SMCU20200723194005060686918015      YIG/TRIV139/015     0800000000YIG/TRIV139/015Trivago Hotel Comparison 2020071120200731                                        
SMCU20200723194005060686919010      BJL/MMST236/010     0900000000BJL/MMST236/010Music Magpie Store Tech  2020070120200731                                        
SMCU20200723200501860686920030      HKX/OUOU019/030     0100000000HKX/OUOU019/030Open University MCH      2020070120200731                                        
SMCU20200723200501860686921010      BJL/MMST236/010     0200000000BJL/MMST236/010Music Magpie Store Tech  2020070120200731                                        
SMCU20200723200501860686922030      INN/KIAM042/030     0300000000INN/KIAM042/030Kia Niro (NBA)           2020072020200731                                        
SMCU20200723200501860686923030      LYG/TAYL006/030     0400000000LYG/TAYL006/030Taylors Coffee (BAR)     2020071320200731                                        
SMCU20200723200501860686924010      CME/DLRX015/010     0500000000CME/DLRX015/010Deliveroo Restaurants Are2020070120200731                                        
SMCU20200723200501860686925010      VCC/COMP489/010     0600000000VCC/COMP489/010Compare the Market Servic2020070120200731                                        
SMCU20200723200501860686926010      CKC/SKHD157/010     0700000000CKC/SKHD157/010Sky Mobile Network of Yea2020070320200731                                        
SMCU20200723200501860686927020      HOM/HARI373/020     0800000000HOM/HARI373/020Harringtons Pet Food (BAR2020071320200726                                        
SMCU20200723200501860686928030      ANO/CARE258/030     0900000000ANO/CARE258/030Cancer Research Appeal   2020072020200731                                        
SMCU20200723200501860686929030      TTB/PAND088/030     1000000000TTB/PAND088/030Pandora Jewellery 3 For 22020072320200731                                        
SMCU20200723200501860686930030      AED/AAAA118/030     1100000000AED/AAAA118/030AA Branding (BAR)        2020071320200731                                        
SMCU20200723203201960686931030      NCA/HALF001/030     0100000000NCA/HALF001/030Halifax Brand GME        2020070620200731                                        
SMCU20200723203201960686932030      GNW/DYSN185/030     0200000000GNW/DYSN185/030Dyson Personal Care GME  2020072020200731                                        
SMCU20200723203201960686933030      SSC/DLBU041/030     0300000000SSC/DLBU041/030Direct Line DL4B Performa2020072020200726                                        
SMCU20200723203201960686934030      AED/AAAA118/030     0400000000AED/AAAA118/030AA Branding (BAR)        2020071320200731                                        
SMCU20200723203201960686935010      BJL/MMST236/010     0500000000BJL/MMST236/010Music Magpie Store Tech  2020070120200731                                        
SMCU20200723203201960686936020      TTB/ENGI003/020     0600000000TTB/ENGI003/020Energizer Max            2020072020200731                                        
SMCU20200723203201960686937030      SSC/FIAT227/030     0700000000SSC/FIAT227/030Fiat 500                 2020072020200731                                        
SMCU20200723203201960686938030      DRG/AMAL015/030     0800000000DRG/AMAL015/030Amazon Just Ask Alexa    2020072020200731                                        
SMCU20200723203201960686939030      VCC/COMP465/030     0900000000VCC/COMP465/030Compare the Market Distin2020070620200731                                        
SMCU20200723205505160686940020      MCE/PRGO010/020     0100000000MCE/PRGO010/020Nestle Purina Gourmet    2020072020200731                                        
SMCU20200723205505160686941020      CWW/LORE080/020     0200000000CWW/LORE080/020L'Oreal Elvive Colour Pro2020070620200731                                        
SMCU20200723205505160686942030      CNO/TENT010/030     0300000000CNO/TENT010/030Enterprise Rent-A-Car Bra2020071320200731                                        
SMCU20200723205505160686943030      WCR/BSKY906/030     0400000000WCR/BSKY906/030Sky Mobile Text 2 Switch 2020070320200731                                        
SMCU20200723205505160686944020      TTB/SUNT351/020     0500000000TTB/SUNT351/020The Sun Superdays        2020072320200725                                        
SMCU20200723205505160686945010      WCR/RAFR031/010     0600000000WCR/RAFR031/010CCS RAF Broad Appeal     2020072020200731                                        
SMCU20200723205505160686946030      CHI/ARGO014/030     0700000000CHI/ARGO014/030Argos Brand 2            2020070920200731                                        
SMCU20200723205505160686947020      GOC/BRND068/020     0800000000GOC/BRND068/020Go Compare Branding      2020070120200731                                        
SMCU20200723205505160686948030      LYG/TAYL006/030     0900000000LYG/TAYL006/030Taylors Coffee (BAR)     2020071320200731                                        
SMCU20200723205505160686949030      INN/KIAM042/030     1000000000INN/KIAM042/030Kia Niro (NBA)           2020072020200731                                        
SMCU20200723211502060686950020      BJL/FOXY060/020     0100000000BJL/FOXY060/020Cashcade Foxy Bingo      2020070120200731                                        
SMCU20200723211502060686951030      REP/TTYN223/030     0200000000REP/TTYN223/03021.co.uk Casino (MNE)    2020070120200731                                        
SMCU20200723211502060686952030      LYG/TAYL006/030     0300000000LYG/TAYL006/030Taylors Coffee (BAR)     2020071320200731                                        
SMCU20200723211502060686953030      AED/AAAA118/030     0400000000AED/AAAA118/030AA Branding (BAR)        2020071320200731                                        
SMCU20200723211502060686954020      MCE/CPGT001/020     0500000000MCE/CPGT001/020Nestle Cereal Partners Re2020070620200726                                        
SMCU20200723211502060686955020      VCC/DOMN203/020     0600000000VCC/DOMN203/020Dominos Branding         2020072020200731                                        
SMCU20200723211502060686956030      DRG/AMAL015/030     0700000000DRG/AMAL015/030Amazon Just Ask Alexa    2020072020200731                                        
SMCU20200723211502060686957020      TAG/KTGB008/020     0800000000TAG/KTGB008/020L'Oreal Kerastase Blond A2020072020200731                                        
SMCU20200723211502060686958010      MIF/MORR821/010     0900000000MIF/MORR821/010Morrisons Offer 3 HFSS GM2020072020200725                                        
SMCU20200723213502160686959020      TAG/VOGB022/020     0100000000TAG/VOGB022/020Volvo Hybrid Range GME   2020071320200726                                        
SMCU20200723213502160686960010      VCC/COMP489/010     0200000000VCC/COMP489/010Compare the Market Servic2020070120200731                                        
SMCU20200723213502160686961030      GNW/DYSN185/030     0300000000GNW/DYSN185/030Dyson Personal Care GME  2020072020200731                                        
SMCU20200723213502160686962030      PCH/WLLH026/030     0400000000PCH/WLLH026/030William Hill Gaming (MNE)2020070120200731                                        
SMCU20200723213502160686963020      BBH/TCPD226/020     0500000000BBH/TCPD226/020Tesco APM (BAR)          2020072320200731                                        
SMCU20200723213502160686964030      AED/AAAA118/030     0600000000AED/AAAA118/030AA Branding (BAR)        2020071320200731                                        
SMCU20200723213502160686965030      DRG/AMAL015/030     0700000000DRG/AMAL015/030Amazon Just Ask Alexa    2020072020200731                                        
SMCU20200723213502160686966020      HOG/GXSE965/020     0800000000HOG/GXSE965/020Sensodyne Brand          2020070620200726                                        
SMCU20200723213502160686967020      BJL/FOXY063/020     0900000000BJL/FOXY063/020Cashcade Foxy Games      2020070120200731                                        
SMCU20200723215205260686968010      WCR/RAFR032/010     0100000000WCR/RAFR032/010CCS RAF Broad Appeal     2020072020200731                                        
SMCU20200723215205260686969030      BBH/LAPR005/030     0200000000BBH/LAPR005/030Ladbrokes Casino         2020070120200731                                        
SMCU20200723215205260686970010      HOG/GXPI951/010     0300000000HOG/GXPI951/010Pirinase Hayfever Relief 2020070620200726                                        
SMCU20200723215205260686971030      TAG/TOGB307/030     0400000000TAG/TOGB307/030Toyota Hybrid GME        2020072020200726                                        
SMCU20200723215205260686972060      JWT/ZSLA009/060     0500000000JWT/ZSLA009/060ZSL London Zoo (PRO)     2020072020200731                                        
SMCU20200723215205260686973020      HOG/GXCO978/020     0600000000HOG/GXCO978/020Corsodyl                 2020070620200726                                        
SMCU20200723215205260686974020      BJL/FOXY062/020     0700000000BJL/FOXY062/020Cashcade Foxy Bingo      2020070120200731                                        
SMCU20200723221202260686975010      VCC/COMP489/010     0100000000VCC/COMP489/010Compare the Market Servic2020070120200731                                        
SMCU20200723221202260686976020      TAG/VOGB022/020     0200000000TAG/VOGB022/020Volvo Hybrid Range GME   2020071320200726                                        
SMCU20200723221202260686977020      BJL/FOXY063/020     0300000000BJL/FOXY063/020Cashcade Foxy Games      2020070120200731                                        
SMCU20200723221202260686978020      HOG/GXVO994/020     0400000000HOG/GXVO994/020Novartis Voltarol Medifac2020070620200726                                        
SMCU20200723221202260686979030      ALP/SOOW013/030     0500000000ALP/SOOW013/030Sofology (BAR)           2020070920200729                                        
SMCU20200723221202260686980010      MUM/KFVA269/010     0600000000MUM/KFVA269/010KFC Disruptive Value     2020070620200731                                        
SMCU20200723221202260686981020      AMV/ASJR281/020     0700000000AMV/ASJR281/020Asda Brand 2 HFSS (APX)  2020070620200731                                        
SMCU20200723221202260686982030      DRG/AMAL015/030     0800000000DRG/AMAL015/030Amazon Just Ask Alexa    2020072020200731                                        
SMCU20200723221202260686983030      FOW/SKYV275/030     0900000000FOW/SKYV275/030Sky Bet Vegas Prize Machi2020070120200723                                        
SMCU20200723221202260686984020      HOG/GXSE965/020     1000000000HOG/GXSE965/020Sensodyne Brand          2020070620200726                                        
SMCU20200723221202260686985030      NCA/HALF001/030     1100000000NCA/HALF001/030Halifax Brand GME        2020070620200731                                        
SMCU20200723222602360686986030      JLN/USWT024/030     0100000000JLN/USWT024/030Uswitch Brand (BAR)      2020072020200731                                        
SMCU20200723222602360686987030      AED/AAAA118/030     0200000000AED/AAAA118/030AA Branding (BAR)        2020071320200731                                        
SMCU20200723222602360686988030      LYG/FVTR002/030     0300000000LYG/FVTR002/030Fever Tree (NBA)         2020071620200731                                        
SMCU20200723222602360686989030      INN/KIAM042/030     0400000000INN/KIAM042/030Kia Niro (NBA)           2020072020200731                                        
SMCU20200723222602360686990020      BBH/TCPD226/020     0500000000BBH/TCPD226/020Tesco APM (BAR)          2020072320200731                                        
SMCU20200723222602360686991010      CME/DLRX014/010     0600000000CME/DLRX014/010Deliveroo Restaurants Are2020070120200731                                        
SMCU20200723222602360686992030      GNW/DYSN185/030     0700000000GNW/DYSN185/030Dyson Personal Care GME  2020072020200731                                        
SMCU20200723222602360686993030      WHG/WLLH005/030     0800000000WHG/WLLH005/030William Hill Gaming (MNE)2020070120200731                                        
SMCU20200723222602360686994030      AMZ/MMFA001/030     0900000000AMZ/MMFA001/030Amazon Brand Truths      2020072020200731                                        
SMCU20200723222602360686995030      LYG/TAYL006/030     1000000000LYG/TAYL006/030Taylors Coffee (BAR)     2020071320200731                                        
SMCU20200723225602460686996030      JLN/USWT024/030     0100000000JLN/USWT024/030Uswitch Brand (BAR)      2020072020200731                                        
SMCU20200723225602460686997030      AED/AAAA118/030     0200000000AED/AAAA118/030AA Branding (BAR)        2020071320200731                                        
SMCU20200723225602460686998030      LYG/FVTR002/030     0300000000LYG/FVTR002/030Fever Tree (NBA)         2020071620200731                                        
SMCU20200723225602460686999030      INN/KIAM042/030     0400000000INN/KIAM042/030Kia Niro (NBA)           2020072020200731                                        
SMCU20200723225602460687000020      BBH/TCPD226/020     0500000000BBH/TCPD226/020Tesco APM (BAR)          2020072320200731                                        
SMCU20200723225602460687001010      CME/DLRX019/010     0600000000CME/DLRX019/010Deliveroo Restaurants Are2020070120200731                                        
SMCU20200723225602460687002030      GNW/DYSN185/030     0700000000GNW/DYSN185/030Dyson Personal Care GME  2020072020200731                                        
SMCU20200723225602460687003030      WHG/WLLH005/030     0800000000WHG/WLLH005/030William Hill Gaming (MNE)2020070120200731                                        
SMCU20200723225602460687004030      AMZ/MMME001/030     0900000000AMZ/MMME001/030Amazon Brand Truths      2020072020200731                                        
SMCU20200723225602460687005030      LYG/TAYL006/030     1000000000LYG/TAYL006/030Taylors Coffee (BAR)     2020071320200731                                        
SMCU20200723232202560687006030      JLN/USWT024/030     0100000000JLN/USWT024/030Uswitch Brand (BAR)      2020072020200731                                        
SMCU20200723232202560687007030      LYG/FVTR002/030     0200000000LYG/FVTR002/030Fever Tree (NBA)         2020071620200731                                        
SMCU20200723232202560687008030      PCH/LADS014/030     0300000000PCH/LADS014/030Entertainment Ladbrokes F2020070120200731                                        
SMCU20200723232202560687009030      SSC/FIAT227/030     0400000000SSC/FIAT227/030Fiat 500                 2020072020200731                                        
SMCU20200723232202560687010010      WCR/RAFR031/010     0500000000WCR/RAFR031/010CCS RAF Broad Appeal     2020072020200731                                        
SMCU20200723232202560687011030      LYG/CPFD074/030     0600000000LYG/CPFD074/030Co-op Donate (MNS)       2020071520200731                                        
SMCU20200723232202560687012060      MUM/TBTF001/060     0700000000MUM/TBTF001/060Thinkbox TV              2020072020200731                                        
SMCU20200723232202560687013030      CNS/TTRD033/030     0800000000CNS/TTRD033/03032 Red Online Casino     2020070120200731                                        
SMCU20200723232202560687014020      VCC/EAJT350/020     0900000000VCC/EAJT350/020EasyJet Flights          2020072120200731                                        
SMCU20200723235502660687015020      TTB/GALA020/020     0100000000TTB/GALA020/020Galabingo.co.uk          2020070120200731                                        
SMCU20200723235502660687016020      PCH/LADS013/020     0200000000PCH/LADS013/020Ladbrokes Casino         2020070120200731                                        
SMCU20200723235502660687017060      YRL/VIAG007/060     0300000000YRL/VIAG007/060Pfizer Viagra (BAR)      2020071320200731                                        
SMCU20200723235502660687018030      SSC/PGGL007/030     0400000000SSC/PGGL007/030Gillette Male Shavecare  2020070120200731                                        
SMCU20200723235502660687019090      MCP/AAAM021/090     0500000000MCP/AAAM021/090Action Aid Regular Giving2020070120200731                                        
SMCU20200723235502660687020030      BUC/PGCP003/030     0600000000BUC/PGCP003/030Seven Seas Cod Liver Oil 2020070120200731                                        
SMCU20200723235502660687021020      MCM/ASSS987/020     0700000000MCM/ASSS987/020Aldi Core HFSS 4         2020071820200728                                        
SMCU20200723242905360687022030      BBH/BBPR672/030     0100000000BBH/BBPR672/030Barclays Retail          2020070120200731                                        
SMCU20200723242905360687023060      MLL/COAT002/060     0200000000MLL/COAT002/060CCS EU Transition        2020072020200731                                        
SMCU20200723242905360687024010      MCE/MMPO011/010     0300000000MCE/MMPO011/010OJO Casino               2020070120200731                                        
SMCU20200723242905360687025030      TTB/PAND088/030     0400000000TTB/PAND088/030Pandora Jewellery 3 For 22020072320200731                                        
SMCU20200723242905360687026030      SAA/CROL041/030     0500000000SAA/CROL041/030Coty Clairol             2020072020200731                                        
SMCU20200723242905360687027030      INN/KIAM042/030     0600000000INN/KIAM042/030Kia Niro (NBA)           2020072020200731                                        
SMCU20200723242905360687028030      DRG/AMAL015/030     0700000000DRG/AMAL015/030Amazon Just Ask Alexa    2020072020200731                                        
SMCU20200723242905360687029020      DAA/BABL007/020     0800000000DAA/BABL007/020Babbel                   2020070120200731                                        
SMCU20200723242905360687030030      TTB/GALS010/030     0900000000TTB/GALS010/030Gala Spins               2020070120200731                                        
SMCU20200723244902760687031030      SSC/PGHS493/030     0100000000SSC/PGHS493/030Head & Shoulders Adults  2020070820200731                                        
SMCU20200723244902760687032030      HOG/RKSH466/030     0200000000HOG/RKSH466/030Scholl Aid               2020070620200726                                        
SMCU20200723244902760687033030      SSC/FIAT227/030     0300000000SSC/FIAT227/030Fiat 500                 2020072020200731                                        
SMCU20200723244902760687034030      SHT/DPMA068/030     0400000000SHT/DPMA068/030Disney Plus Take Disney W2020070120200731                                        
SMCU20200723244902760687035030      MUM/TBTF002/030     0500000000MUM/TBTF002/030Thinkbox TV              2020072120200731                                        
SMCU20200723244902760687036030      CNS/TTRD033/030     0600000000CNS/TTRD033/03032 Red Online Casino     2020070120200731                                        
SMCU20200723244902760687037030      WCR/RAFR026/030     0700000000WCR/RAFR026/030CCS RAF Broad Appeal     2020072020200731                                        
SMCU20200723250602860687038030      SKY/SOLP003/030     0100000000SKY/SOLP003/030Step One Clothing        2020070120200731                                        
SMCU20200723250602860687039020      HKX/VAVP003/020     0200000000HKX/VAVP003/020Vanish Pink Platinum     2020071320200726                                        
SMCU20200723250602860687040060      YRL/VIAG007/060     0300000000YRL/VIAG007/060Pfizer Viagra (BAR)      2020071320200731                                        
SMCU20200723250602860687041030      MIF/NEBU270/030     0400000000MIF/NEBU270/030Buxton Water             2020072020200731                                        
SMCU20200723250602860687042030      SHT/DPMA068/030     0500000000SHT/DPMA068/030Disney Plus              2020070120200731                                        
SMCU20200723250602860687043020      MCE/MMPO028/020     0600000000MCE/MMPO028/020OJO Casino               2020070120200731                                        
SMCU20200723250602860687044020      HKX/VACW012/020     0700000000HKX/VACW012/020Vanish Whites Washing Pow2020070120200731                                        
SMCU20200723252705460687045020      TAG/CBGB758/020     0100000000TAG/CBGB758/020Cillit Bang              2020070120200731                                        
SMCU20200723252705460687046020      SAA/RIMM884/020     0200000000SAA/RIMM884/020Rimmel Lash Scandaleyes  2020071520200731                                        
SMCU20200723252705460687047020      WKU/BAUK038/020     0300000000WKU/BAUK038/020Babbel                   2020070120200731                                        
SMCU20200723252705460687048030      CNS/TTRD033/030     0400000000CNS/TTRD033/03032 Red Online Casino     2020070120200731                                        
SMCU20200723252705460687049030      SAA/CROL041/030     0500000000SAA/CROL041/030Coty Clairol             2020072020200731                                        
SMCU20200723252705460687050060      MLL/COAT002/060     0600000000MLL/COAT002/060CCS EU Transition        2020072020200731                                        
SMCU20200723254702960687051030      SSC/PGHS493/030     0100000000SSC/PGHS493/030Head & Shoulders Adults  2020070820200731                                        
SMCU20200723254702960687052020      VCC/EAJT350/020     0200000000VCC/EAJT350/020EasyJet Flights          2020072120200731                                        
SMCU20200723254702960687053030      TTB/PAND088/030     0300000000TTB/PAND088/030Pandora Jewellery 3 For 22020072320200731                                        
SMCU20200723254702960687054030      FOW/SKYB873/030     0400000000FOW/SKYB873/030Entertainment Sky Bet Spo2020070120200731                                        
SMCU20200723254702960687055010      CME/DLRX017/010     0500000000CME/DLRX017/010Deliveroo Restaurants Are2020070120200731                                        
SMCU20200723254702960687056030      SHT/DPMA068/030     0600000000SHT/DPMA068/030Disney Plus Take Disney W2020070120200731                                        
SMCU20200723254702960687057030      SKY/SOLP003/030     0700000000SKY/SOLP003/030Step One Clothing        2020070120200731                                        
SMCU20200723254702960687058030      DRG/AMAL015/030     0800000000DRG/AMAL015/030Amazon Just Ask Alexa    2020072020200731                                        
SMCU20200723254702960687059030      CNS/TTRD033/030     0900000000CNS/TTRD033/03032 Red Online Casino     2020070120200731                                        
SMCU20200723254702960687060030      SSC/FIAT227/030     1000000000SSC/FIAT227/030Fiat 500                 2020072020200731                                        
SMCU20200723260803060687061030      INN/KIAM042/030     0100000000INN/KIAM042/030Kia Niro (NBA)           2020072020200731                                        
SMCU20200723260803060687062020      HKX/VACW012/020     0200000000HKX/VACW012/020Vanish Whites Washing Pow2020070120200731                                        
SMCU20200723260803060687063030      HOG/RKSH466/030     0300000000HOG/RKSH466/030Scholl Aid               2020070620200726                                        
SMCU20200723260803060687064020      TTB/ENGI003/020     0400000000TTB/ENGI003/020Energizer Max            2020072020200731                                        
SMCU20200723260803060687065030      CNS/TTRD033/030     0500000000CNS/TTRD033/03032 Red Online Casino     2020070120200731                                        
SMCU20200723260803060687066020      HKX/VAVP003/020     0600000000HKX/VAVP003/020Vanish Pink Platinum     2020071320200726                                        
SMCU20200723260803060687067060      YRL/VIAG007/060     0700000000YRL/VIAG007/060Pfizer Viagra (BAR)      2020071320200731                                        
SMCU20200723260803060687068030      BBH/BBPR672/030     0800000000BBH/BBPR672/030Barclays Retail          2020070120200731                                        
SMCU20200723263405560687069020      TTB/GALA020/020     0100000000TTB/GALA020/020Galabingo.co.uk          2020070120200731                                        
SMCU20200723263405560687070020      HOG/NOBE618/020     0200000000HOG/NOBE618/020Birds Eye Coated Fish NHF2020070620200731                                        
SMCU20200723263405560687071020      DAA/BABL007/020     0300000000DAA/BABL007/020Babbel                   2020070120200731                                        
SMCU20200723263405560687072030      MCE/SUDO017/030     0400000000MCE/SUDO017/030Sudocrem Brand           2020071320200726                                        
SMCU20200723263405560687073020      TTB/SUNT351/020     0500000000TTB/SUNT351/020The Sun Superdays        2020072320200725                                        
SMCU20200723263405560687074020      PCH/NISW170/020     0600000000PCH/NISW170/020Nintendo Switch 51 WW Gam2020072020200726                                        
SMCU20200723263405560687075030      MUM/TBTF002/030     0700000000MUM/TBTF002/030Thinkbox TV              2020072120200731                                        
SMCU20200723263405560687076020      HOG/NOBE621/020     0800000000HOG/NOBE621/020Birds Eye Pea Protein    2020071320200731                                        
SMCU20200723263405560687077030      REP/LEOV237/030     0900000000REP/LEOV237/030Leo Vegas IPS (MNE)      2020070120200731                                        
SMCU20200723263405560687078030      WCR/RAFR027/030     1000000000WCR/RAFR027/030CCS RAF Broad Appeal     2020072020200731                                        
SMCU20200723265603160687079020      BJL/FOXY063/020     0100000000BJL/FOXY063/020Cashcade Foxy Games      2020070120200731                                        
SMCU20200723265603160687080020      MCM/ASSS987/020     0200000000MCM/ASSS987/020Aldi Core HFSS 4         2020071820200728                                        
SMCU20200723265603160687081030      BUR/TBLD006/030     0300000000BUR/TBLD006/030Bold Washing Powder      2020070120200731                                        
SMCU20200723265603160687082020      BUR/TALW558/020     0400000000BUR/TALW558/020Always Discreet Shero    2020071520200731                                        
SMCU20200723265603160687083030      BUR/TFLA184/030     0500000000BUR/TFLA184/030Flash H                  2020070120200731                                        
SMCU20200723265603160687084030      SAA/CROL041/030     0600000000SAA/CROL041/030Coty Clairol             2020072020200731                                        
SMCU20200723265603160687085030      CNS/TTRD033/030     0700000000CNS/TTRD033/03032 Red Online Casino     2020070120200731                                        
SMCU20200723265603160687086030      EGP/PGFB044/030     0800000000EGP/PGFB044/030Febreze Refresher        2020070120200731                                        
SMCU20200723265603160687087060      MLL/COAT002/060     0900000000MLL/COAT002/060CCS EU Transition        2020072020200731                                        
SMCU20200723273003260687088030      SSC/PGGL007/030     0100000000SSC/PGGL007/030Gillette Male Shavecare  2020070120200731                                        
SMCU20200723273003260687089030      AED/WABR244/030     0200000000AED/WABR244/030Waitrose Taste Wine      2020072220200731                                        
SMCU20200723273003260687090030      SSC/PGHS493/030     0300000000SSC/PGHS493/030Head & Shoulders Adults  2020070820200731                                        
SMCU20200723273003260687091030      VCC/CADM073/030     0400000000VCC/CADM073/030Cadbury Dairy Milk (BAR) 2020070620200726                                        
SMCU20200723273003260687092030      BUC/PGCP003/030     0500000000BUC/PGCP003/030Seven Seas Cod Liver Oil 2020070120200731                                        
SMCU20200723273003260687093030      MIF/NEBU270/030     0600000000MIF/NEBU270/030Buxton Water             2020072020200731                                        
SMCU20200723273003260687094030      SHT/DPMA068/030     0700000000SHT/DPMA068/030Disney Plus Take Disney W2020070120200731                                        
SMCU20200723273003260687095030      REC/PICA003/030     0800000000REC/PICA003/030Pink Casino (MNE)        2020070120200731                                        
SMCU20200723273003260687096030      BUR/TLEN010/030     0900000000BUR/TLEN010/030Lenor Fabric Conditioner 2020070120200731                                        
SMCU20200723275403360687097020      QST/DNHA083/020     0100000000QST/DNHA083/020Haribo Supermix          2020072020200731                                        
SMCU20200723275403360687098020      BBH/TCPD226/020     0200000000BBH/TCPD226/020Tesco APM (BAR)          2020072320200731                                        
SMCU20200723275403360687099020      MCE/CPGT001/020     0300000000MCE/CPGT001/020Nestle Cereal Partners Re2020070620200726                                        
SMCU20200723275403360687100020      TTB/ENGI003/020     0400000000TTB/ENGI003/020Energizer Max            2020072020200731                                        
SMCU20200723275403360687101030      CNS/TTRD033/030     0500000000CNS/TTRD033/03032 Red Online Casino     2020070120200731                                        
SMCU20200723275403360687102020      WKU/BAUK038/020     0600000000WKU/BAUK038/020Babbel                   2020070120200731                                        
SMCU20200723275403360687103020      HOG/NOBE618/020     0700000000HOG/NOBE618/020Birds Eye Coated Fish NHF2020070620200731                                        
SMCU20200723275403360687104020      PCH/NISW170/020     0800000000PCH/NISW170/020Nintendo Switch 51 WW Gam2020072020200726                                        
SMCU20200723275403360687105030      BUR/TFLA184/030     0900000000BUR/TFLA184/030Flash H                  2020070120200731                                        
SMCU20200723275403360687106030      SHT/DPMA064/030     1000000000SHT/DPMA064/030Disney Plus              2020070120200731                                        
SMCU20200723275403360687107020      HOG/NOBE621/020     1100000000HOG/NOBE621/020Birds Eye Pea Protein    2020071320200731                                        
SMCU20200723275403360687108020      TTB/GALA026/020     1200000000TTB/GALA026/020Galabingo.co.uk          2020070120200731                                        
SMCU20200723281605660687109010      WCR/RAFR032/010     0100000000WCR/RAFR032/010CCS RAF Broad Appeal     2020072020200731                                        
SMCU20200723281605660687110060      MUM/TBTF001/060     0200000000MUM/TBTF001/060Thinkbox TV              2020072120200731                                        
SMCU20200723281605660687111030      REP/SLOT238/030     0300000000REP/SLOT238/030Slotboss.co.uk (MNE)     2020070120200731                                        
SMCU20200723281605660687112020      TTB/SUNT351/020     0400000000TTB/SUNT351/020The Sun Superdays        2020072320200725                                        
SMCU20200723283603460687113030      SHT/DPMA064/030     0100000000SHT/DPMA064/030Disney Plus Take Disney W2020070120200731                                        
SMCU20200723283603460687114030      MIF/NEBU270/030     0200000000MIF/NEBU270/030Buxton Water             2020072020200731                                        
SMCU20200723283603460687115030      SKY/SOLP003/030     0300000000SKY/SOLP003/030Step One Clothing        2020070120200731                                        
SMCU20200723283603460687116030      MCE/SUDO015/030     0400000000MCE/SUDO015/030Sudocrem Brand           2020071320200726                                        
SMCU20200723291003560687117030      TTB/GALS010/030     0100000000TTB/GALS010/030Gala Spins               2020070120200731                                        
SMCU20200723291003560687118010      CME/DLRX018/010     0200000000CME/DLRX018/010Deliveroo Restaurants Are2020070120200731                                        
SMCU20200723291003560687119030      GNW/DYSN185/030     0300000000GNW/DYSN185/030Dyson Personal Care GME  2020072020200731                                        
SMCU20200723291003560687120030      SKY/SOLP003/030     0400000000SKY/SOLP003/030Step One Clothing        2020070120200731                                        
SMCU20200723291003560687121020      DAA/BABL007/020     0500000000DAA/BABL007/020Babbel                   2020070120200731                                        
SMCU20200723293303660687122030      GRY/PGPP638/030     0100000000GRY/PGPP638/030Pantene                  2020070120200731                                        
SMCU20200723293303660687123030      SSC/PWER010/030     0200000000SSC/PWER010/030Oral B Power             2020070120200731                                        
SMCU20200723293303660687124030      HOG/PGOL507/030     0300000000HOG/PGOL507/030Olay                     2020070120200731                                        
SMCU20200723293303660687125030      BUR/TBLD006/030     0400000000BUR/TBLD006/030Bold Washing Powder      2020070120200731                                        
SMCU20200723295505760687126030      WCR/RAFR026/030     0100000000WCR/RAFR026/030CCS RAF Broad Appeal     2020072020200731                                        
SMCU20200723295505760687127030      BUR/TFLA185/030     0200000000BUR/TFLA185/030Flash Q                  2020070120200731                                        
SMCU20200723295505760687128030      MUM/TBTF002/030     0300000000MUM/TBTF002/030Thinkbox TV              2020072120200731                                        
SMCU20200723295505760687129030      BUR/TLEN010/030     0400000000BUR/TLEN010/030Lenor Fabric Conditioner 2020070120200731                                        
