01Spot      SkySptRace030020200626202007091806130464120200626.DCL   04997000000000000000000000000000000000000000000000000000000000000000000000000000000000000000000000000000000000000000000000000000000000000000000000000000000000000000000000000000000000000000000000000000003.5A                          
022020062604997000007565500170EB000000000072CS0007951362060499700000007565500030JWTHSBA090030                                     RACING REVIEW JUNE 2020                 RACING REVIEW JUNE 2020                 0003700009033060000200000000000000000000000000FST                                         
022020062604997000007565500170EB000000000072CS0007951361830499700000007572500030WCRCAZZ031030                                     RACING REVIEW JUNE 2020                 RACING REVIEW JUNE 2020                 0003700009075190000300000000000000000000000000SND                                         
022020062604997000007565500170EB000000000072CS0007951363530499700000007575500030TNIOMTC205030                                     RACING REVIEW JUNE 2020                 RACING REVIEW JUNE 2020                 0003700009095910000100000000000000000000000000OTH                                         
022020062604997000007565500170EB000000000072CS0007951364090499700000007582500020HOGGSCO764020                                     RACING REVIEW JUNE 2020                 RACING REVIEW JUNE 2020                 0003700008992380000200000000000000000000000000OTH                                         
022020062604997000007565500170EB000000000072CS0007951361920499700000007584500030SSCDLHM033030                                     RACING REVIEW JUNE 2020                 RACING REVIEW JUNE 2020                 0003700008983660000200000000000000000000000000PEN                                         
022020062604997000007565500170EB000000000072CS0007951361980499700000007591500030EURNFOD008030                                     RACING REVIEW JUNE 2020                 RACING REVIEW JUNE 2020                 0003700009046150000100000000000000000000000000LST                                         
022020062604997000008115500170EB000000000073CS0007951362070499700000008115500030JWTHSBA090030                                     RACING REVIEW JUNE 2020                 RACING REVIEW JUNE 2020                 0003700009033060000200000000000000000000000000FST                                         
022020062604997000008115500170EB000000000073CS0007951361840499700000008122500030WCRCAZZ031030                                     RACING REVIEW JUNE 2020                 RACING REVIEW JUNE 2020                 0003700009075190000300000000000000000000000000SND                                         
022020062604997000008115500170EB000000000073CS0007951363560499700000008125500030TNIOMTC205030                                     RACING REVIEW JUNE 2020                 RACING REVIEW JUNE 2020                 0003700009095910000100000000000000000000000000OTH                                         
022020062604997000008115500170EB000000000073CS0007951364120499700000008132500020HOGGSCO764020                                     RACING REVIEW JUNE 2020                 RACING REVIEW JUNE 2020                 0003700008992380000200000000000000000000000000OTH                                         
022020062604997000008115500170EB000000000073CS0007951361930499700000008134500030SSCDLCA042030                                     RACING REVIEW JUNE 2020                 RACING REVIEW JUNE 2020                 0003700008983660000200000000000000000000000000PEN                                         
022020062604997000008115500170EB000000000073CS0007951361990499700000008141500030EURNFOD008030                                     RACING REVIEW JUNE 2020                 RACING REVIEW JUNE 2020                 0003700009046150000100000000000000000000000000LST                                         
022020062604997000008265500170EB000000000074CS0007951362080499700000008265500030JWTHSBA090030                                     RACING REVIEW JUNE 2020                 RACING REVIEW JUNE 2020                 0003700009033060000200000000000000000000000000FST                                         
022020062604997000008265500170EB000000000074CS0007951361850499700000008272500030WCRCAZZ031030                                     RACING REVIEW JUNE 2020                 RACING REVIEW JUNE 2020                 0003700009075190000300000000000000000000000000SND                                         
022020062604997000008265500170EB000000000074CS0007951363580499700000008275500030TNIOMTC205030                                     RACING REVIEW JUNE 2020                 RACING REVIEW JUNE 2020                 0003700009095910000100000000000000000000000000OTH                                         
022020062604997000008265500170EB000000000074CS0007951364130499700000008282500020HOGGSCO764020                                     RACING REVIEW JUNE 2020                 RACING REVIEW JUNE 2020                 0003700008992380000200000000000000000000000000OTH                                         
022020062604997000008265500170EB000000000074CS0007951361940499700000008284500030SSCDLHM033030                                     RACING REVIEW JUNE 2020                 RACING REVIEW JUNE 2020                 0003700008983660000200000000000000000000000000PEN                                         
022020062604997000008265500170EB000000000074CS0007951362010499700000008291500030EURNFOD008030                                     RACING REVIEW JUNE 2020                 RACING REVIEW JUNE 2020                 0003700009046150000100000000000000000000000000LST                                         
022020062604997000008415500170EB000000000075CS0007951364920499700000008415500030INFRICH012030                                     RACING REVIEW JUNE 2020                 RACING REVIEW JUNE 2020                 0003700009049860000100000000000000000000000000FST                                         
022020062604997000008415500170EB000000000075CS0007951363640499700000008422500030WKUSAUK119030                                     RACING REVIEW JUNE 2020                 RACING REVIEW JUNE 2020                 0003700009037150000200000000000000000000000000SND                                         
022020062604997000008415500170EB000000000075CS0007951364950499700000008425500030CKCAQUA009030                                     RACING REVIEW JUNE 2020                 RACING REVIEW JUNE 2020                 0003700009052560000300000000000000000000000000OTH                                         
022020062604997000008415500170EB000000000075CS0007951364990499700000008432500030WCRRNAV019030                                     RACING REVIEW JUNE 2020                 RACING REVIEW JUNE 2020                 0003700009005190000100000000000000000000000000OTH                                         
022020062604997000008415500170EB000000000075CS0007951364940499700000008435500030MIAAPLE833030                                     RACING REVIEW JUNE 2020                 RACING REVIEW JUNE 2020                 0003700009109220000200000000000000000000000000PEN                                         
022020062604997000008415500170EB000000000075CS0007951364170499700000008442500020CSMDUGC001020                                     RACING REVIEW JUNE 2020                 RACING REVIEW JUNE 2020                 0003700009053850000100000000000000000000000000LST                                         
022020062604997000008565500170EB000000000076CS0007951362090499700000008565500030JWTHSBA090030                                     RACING REVIEW JUNE 2020                 SKY SPORTS NEWS 2020                    0003700009033060000200000000000000000000000000FST                                         
022020062604997000008565500170EB000000000076CS0007951361860499700000008572500030WCRCAZZ031030                                     RACING REVIEW JUNE 2020                 SKY SPORTS NEWS 2020                    0003700009075190000300000000000000000000000000SND                                         
022020062604997000008565500170EB000000000076CS0007951363600499700000008575500030TNIOMTC205030                                     RACING REVIEW JUNE 2020                 SKY SPORTS NEWS 2020                    0003700009095910000100000000000000000000000000OTH                                         
022020062604997000008565500170EB000000000076CS0007951364150499700000008582500020HOGGSCO764020                                     RACING REVIEW JUNE 2020                 SKY SPORTS NEWS 2020                    0003700008992380000200000000000000000000000000OTH                                         
022020062604997000008565500170EB000000000076CS0007951361950499700000008584500030SSCDLCA042030                                     RACING REVIEW JUNE 2020                 SKY SPORTS NEWS 2020                    0003700008983660000200000000000000000000000000PEN                                         
022020062604997000008565500170EB000000000076CS0007951362040499700000008591500030EURNFOD008030                                     RACING REVIEW JUNE 2020                 SKY SPORTS NEWS 2020                    0003700009046150000100000000000000000000000000LST                                         
022020062604997000009404400180CB000000000003CS0007921172040499700000009404400030CLDPARE001030                                     HONG KONG DIRECT 2019/20                HONG KONG DIRECT 2019/20                0003700000000000000000000000000000000000000000FST                                         
022020062604997000009404400180CB000000000003CS0007897137030499700000009411400020SSCEEBR448020                                     HONG KONG DIRECT 2019/20                HONG KONG DIRECT 2019/20                0003700009054680000100000000000000000000000000SND                                         
022020062604997000009404400180CB000000000003CS0007919647530499700000009413400030ROMCOUR766030                                     HONG KONG DIRECT 2019/20                HONG KONG DIRECT 2019/20                0003700009056590000100000000000000000000000000OTH                                         
022020062604997000009404400180CB000000000003CS0007949301540499700000009420400020HOGGSCO764020                                     HONG KONG DIRECT 2019/20                HONG KONG DIRECT 2019/20                0003700008992380000200000000000000000000000000OTH                                         
022020062604997000009404400180CB000000000003CS0007939179820499700000009422400030DRULEAS091030                                     HONG KONG DIRECT 2019/20                HONG KONG DIRECT 2019/20                0003700009095500000100000000000000000000000000OTH                                         
022020062604997000009404400180CB000000000003CS0007901162880499700000009425400030SDEFLMN760030                                     HONG KONG DIRECT 2019/20                HONG KONG DIRECT 2019/20                0003700009054460000100000000000000000000000000PEN                                         
022020062604997000009404400180CB000000000003CS0007946145170499700000009432400020PDGMANO006020                                     HONG KONG DIRECT 2019/20                HONG KONG DIRECT 2019/20                0003700009064070000200000000000000000000000000LST                                         
022020062604997000009564900180EB000000000004CS0007948086800499700000009564900040WCRBSKY912040                                     HONG KONG DIRECT 2019/20                RACING DEBATE 2020                      0003700009049450000100000000000000000000000000FST                                         
022020062604997000009564900180EB000000000004CS0007905480350499700000009572900020FKLRFYR001020                                     HONG KONG DIRECT 2019/20                RACING DEBATE 2020                      0003700000000000000000000000000000000000000000SND                                         
022020062604997000009564900180EB000000000004CS0007890368970499700000009574900030GUSTIDE015030                                     HONG KONG DIRECT 2019/20                RACING DEBATE 2020                      0003700009035090000300000000000000000000000000OTH                                         
022020062604997000009564900180EB000000000004CS0007928113350499700000009581900030CSTTWOF003030                                     HONG KONG DIRECT 2019/20                RACING DEBATE 2020                      0003700000000000000000000000000000000000000000OTH                                         
022020062604997000009564900180EB000000000004CS0007947290470499700000009584900010CKCSKHD157010                                     HONG KONG DIRECT 2019/20                RACING DEBATE 2020                      0003700000000000000000000000000000000000000000OTH                                         
022020062604997000009564900180EB000000000004CS0007881157160499700000009585900030MUDITGA001030                                     HONG KONG DIRECT 2019/20                RACING DEBATE 2020                      0003700009057240000100000000000000000000000000OTH                                         
022020062604997000009564900180EB000000000004CS0007905480360499700000009592900010FKLRFYS001010                                     HONG KONG DIRECT 2019/20                RACING DEBATE 2020                      0003700000000000000000000000000000000000000000PEN                                         
022020062604997000009564900180EB000000000004CS0007942137920499700000009593900010SASCTBS001010                                     HONG KONG DIRECT 2019/20                RACING DEBATE 2020                      0003700009104510000500000000000000000000000000LST                                         
022020062604997000010172000090CB000000000005CS0007890382970499700000010172000030KARCONF116030                                     RACING DEBATE 2020                      RACING DEBATE 2020                      0003700009028420000200000000000000000000000000FST                                         
022020062604997000010172000090CB000000000005CS0007890383010499700000010175000030EURNFOD008030                                     RACING DEBATE 2020                      RACING DEBATE 2020                      0003700009046150000100000000000000000000000000SND                                         
022020062604997000010172000090CB000000000005CS0007938909520499700000010182000030BUGBSAG298030                                     RACING DEBATE 2020                      RACING DEBATE 2020                      0003700009096170000400000000000000000000000000LST                                         
022020062604997000010325400090CB000000000006CS0007890370450499700000010325400030GUSTIDE012030                                     RACING DEBATE 2020                      RACING DEBATE 2020                      0003700009035090000300000000000000000000000000FST                                         
022020062604997000010325400090CB000000000006CS0007890370440499700000010332400030OGYIBMS287030                                     RACING DEBATE 2020                      RACING DEBATE 2020                      0003700009019460000300000000000000000000000000SND                                         
022020062604997000010325400090CB000000000006CS0007890370430499700000010335400030EGWVWGO013030                                     RACING DEBATE 2020                      RACING DEBATE 2020                      0003700009026620000100000000000000000000000000LST                                         
022020062604997000010431700060EB000000000007CS0007938909530499700000010431700030BUGBSAG298030                                     RACING DEBATE 2020                      RACING REVIEW JUNE 2020                 0003700009096170000400000000000000000000000000FST                                         
022020062604997000010431700060EB000000000007CS0007915795500499700000010434700030RTNBMGO001030                                     RACING DEBATE 2020                      RACING REVIEW JUNE 2020                 0003700009074480000300000000000000000000000000LST                                         
022020062604997000010562700170EB000000000008CS0007942142530499700000010562700010CMEDLRX014010                                     RACING REVIEW JUNE 2020                 RACING REVIEW JUNE 2020                 0003700009096100000100000000000000000000000000FST                                         
022020062604997000010562700170EB000000000008CS0007890402630499700000010563700030WCRSANT228030                                     RACING REVIEW JUNE 2020                 RACING REVIEW JUNE 2020                 0003700009053870000100000000000000000000000000SND                                         
022020062604997000010562700170EB000000000008CS0007905480160499700000010570700010FKLRFYD001010                                     RACING REVIEW JUNE 2020                 RACING REVIEW JUNE 2020                 0003700000000000000000000000000000000000000000OTH                                         
022020062604997000010562700170EB000000000008CS0007890402670499700000010571700030SHTDPMA064030                                     RACING REVIEW JUNE 2020                 RACING REVIEW JUNE 2020                 0003700009051910000100000000000000000000000000OTH                                         
022020062604997000010562700170EB000000000008CS0007951369060499700000010574700010WCRCAZZ034010                                     RACING REVIEW JUNE 2020                 RACING REVIEW JUNE 2020                 0003700009075280000300000000000000000000000000OTH                                         
022020062604997000010562700170EB000000000008CS0007905480170499700000010575700010FKLRFYM001010                                     RACING REVIEW JUNE 2020                 RACING REVIEW JUNE 2020                 0003700000000000000000000000000000000000000000OTH                                         
022020062604997000010562700170EB000000000008CS0007938909390499700000010580700030BUGBSAG298030                                     RACING REVIEW JUNE 2020                 RACING REVIEW JUNE 2020                 0003700009096170000400000000000000000000000000OTH                                         
022020062604997000010562700170EB000000000008CS0007905480180499700000010583700010FKLRFYS001010                                     RACING REVIEW JUNE 2020                 RACING REVIEW JUNE 2020                 0003700000000000000000000000000000000000000000PEN                                         
022020062604997000010562700170EB000000000008CS0007946136910499700000010584700030SSCVISA348030                                     RACING REVIEW JUNE 2020                 RACING REVIEW JUNE 2020                 0003700009119270000100000000000000000000000000LST                                         
022020062604997000011112700170EB000000000009CS0007911893090499700000011112700040AMVDNPP321040                                     RACING REVIEW JUNE 2020                 RACING REVIEW JUNE 2020                 0003700009062900000100000000000000000000000000FST                                         
022020062604997000011112700170EB000000000009CS0007942159230499700000011120700030WCRBSKY915030                                     RACING REVIEW JUNE 2020                 RACING REVIEW JUNE 2020                 0003700000000000000000000000000000000000000000SND                                         
022020062604997000011112700170EB000000000009CS0007939180560499700000011123700030DRULEAS091030                                     RACING REVIEW JUNE 2020                 RACING REVIEW JUNE 2020                 0003700009095500000100000000000000000000000000OTH                                         
022020062604997000011112700170EB000000000009CS0007929964640499700000011130700030TNIOMTC205030                                     RACING REVIEW JUNE 2020                 RACING REVIEW JUNE 2020                 0003700009095840000100000000000000000000000000OTH                                         
022020062604997000011112700170EB000000000009CS0007938909170499700000011133700030BUGBSAG298030                                     RACING REVIEW JUNE 2020                 RACING REVIEW JUNE 2020                 0003700009096170000400000000000000000000000000PEN                                         
022020062604997000011112700170EB000000000009CS0007890640200499700000011140700010KARCONF115010                                     RACING REVIEW JUNE 2020                 RACING REVIEW JUNE 2020                 0003700009028530000100000000000000000000000000LST                                         
022020062604997000011262700170EB000000000010CS0007950111720499700000011262700010HOGJJBE271010                                     RACING REVIEW JUNE 2020                 RACING REVIEW JUNE 2020                 0003700008989310000100000000000000000000000000FST                                         
022020062604997000011262700170EB000000000010CS0007939162400499700000011263700060CYLCREM001060                                     RACING REVIEW JUNE 2020                 RACING REVIEW JUNE 2020                 0003700009109420000100000000000000000000000000SND                                         
022020062604997000011262700170EB000000000010CS0007951369080499700000011273700010WCRCAZZ034010                                     RACING REVIEW JUNE 2020                 RACING REVIEW JUNE 2020                 0003700009075280000300000000000000000000000000OTH                                         
022020062604997000011262700170EB000000000010CS0007927024600499700000011274700060WPNFSGT002060                                     RACING REVIEW JUNE 2020                 RACING REVIEW JUNE 2020                 0003700009089540000100000000000000000000000000PEN                                         
022020062604997000011262700170EB000000000010CS0007890726290499700000011284700030MCENESP713030                                     RACING REVIEW JUNE 2020                 RACING REVIEW JUNE 2020                 0003700008984290000200000000000000000000000000LST                                         
022020062604997000011404700180EB000000000011CS0007946140040499700000011404700030CHIRBNW025030                                     RACING REVIEW JUNE 2020                 RACING REVIEW JUNE 2020                 0003700009071110000200000000000000000000000000FST                                         
022020062604997000011404700180EB000000000011CS0007891380130499700000011411700030SDEFLWW764030                                     RACING REVIEW JUNE 2020                 RACING REVIEW JUNE 2020                 0003700009054420000100000000000000000000000000SND                                         
022020062604997000011404700180EB000000000011CS0007939162410499700000011414700060CYLCREM001060                                     RACING REVIEW JUNE 2020                 RACING REVIEW JUNE 2020                 0003700009109420000100000000000000000000000000OTH                                         
022020062604997000011404700180EB000000000011CS0007960668490499700000011424700030SSCBEWA088030                                     RACING REVIEW JUNE 2020                 RACING REVIEW JUNE 2020                 0008300000000000000000000000000000000000000000PEN                                         
022020062604997000011404700180EB000000000011CS0007938909480499700000011431700030BUGBSAG298030                                     RACING REVIEW JUNE 2020                 RACING REVIEW JUNE 2020                 0003700009096170000400000000000000000000000000LST                                         
022020062604997000011551900180EB000000000077CS0007950106390499700000011551900020SNQPUBR141020                                     RACING REVIEW JUNE 2020                 RACEDAY LIVE JUNE 2020                  0003700009080190000100000000000000000000000000FST                                         
022020062604997000011551900180EB000000000077CS0007950106380499700000011553900030BBHPCBR011030                                     RACING REVIEW JUNE 2020                 RACEDAY LIVE JUNE 2020                  0003700000000000000000000000000000000000000000SND                                         
022020062604997000011551900180EB000000000077CS0007950106400499700000011560900030WCRBSKY915030                                     RACING REVIEW JUNE 2020                 RACEDAY LIVE JUNE 2020                  0003700000000000000000000000000000000000000000OTH                                         
022020062604997000011551900180EB000000000077CS0007951361910499700000011563900030SSCDLHM033030                                     RACING REVIEW JUNE 2020                 RACEDAY LIVE JUNE 2020                  0003700008983660000200000000000000000000000000OTH                                         
022020062604997000011551900180EB000000000077CS0007951361820499700000011570900030WCRCAZZ031030                                     RACING REVIEW JUNE 2020                 RACEDAY LIVE JUNE 2020                  0003700009075190000300000000000000000000000000OTH                                         
022020062604997000011551900180EB000000000077CS0007960668480499700000011573900030SSCBEWA137030                                     RACING REVIEW JUNE 2020                 RACEDAY LIVE JUNE 2020                  0008300000000000000000000000000000000000000000PEN                                         
022020062604997000011551900180EB000000000077CS0007950106370499700000011580900010HOGJJBE271010                                     RACING REVIEW JUNE 2020                 RACEDAY LIVE JUNE 2020                  0003700008989310000100000000000000000000000000LST                                         
022020062604997000012091200150CB000000000012CS0007890401040499700000012091200030OLIHOCR498030                                     RACEDAY LIVE JUNE 2020                  RACEDAY LIVE JUNE 2020                  0003700008982090000200000000000000000000000000FST                                         
022020062604997000012091200150CB000000000012CS0007890401060499700000012094200030WCRBSKY906030                                     RACEDAY LIVE JUNE 2020                  RACEDAY LIVE JUNE 2020                  0003700009049760000100000000000000000000000000SND                                         
022020062604997000012091200150CB000000000012CS0007947281830499700000012101200030SSCVISA348030                                     RACEDAY LIVE JUNE 2020                  RACEDAY LIVE JUNE 2020                  0003700009119270000100000000000000000000000000OTH                                         
022020062604997000012091200150CB000000000012CS0007881880440499700000012104200030MUDITPH001030                                     RACEDAY LIVE JUNE 2020                  RACEDAY LIVE JUNE 2020                  0003700009057240000100000000000000000000000000PEN                                         
022020062604997000012091200150CB000000000012CS0007890401050499700000012111200030MCENESP713030                                     RACEDAY LIVE JUNE 2020                  RACEDAY LIVE JUNE 2020                  0003700008984290000200000000000000000000000000LST                                         
022020062604997000012144600030CB000000000080CS0007960789190499700000012144600030FOWSKYB953030                                     RACEDAY LIVE JUNE 2020                  RACEDAY LIVE JUNE 2020                  0008300000000000000000000000000000000000000000FST                                         
022020062604997000012200200150CB000000000013CS0007890387670499700000012200200030EGWVWGO013030                                     RACEDAY LIVE JUNE 2020                  RACEDAY LIVE JUNE 2020                  0003700009026620000100000000000000000000000000FST                                         
022020062604997000012200200150CB000000000013CS0007890387680499700000012203200030OGYIBMS288030                                     RACEDAY LIVE JUNE 2020                  RACEDAY LIVE JUNE 2020                  0003700009019460000300000000000000000000000000SND                                         
022020062604997000012200200150CB000000000013CS0007945013400499700000012210200030BBHPCBR011030                                     RACEDAY LIVE JUNE 2020                  RACEDAY LIVE JUNE 2020                  0003700000000000000000000000000000000000000000OTH                                         
022020062604997000012200200150CB000000000013CS0007921172050499700000012213200030CLDPARE001030                                     RACEDAY LIVE JUNE 2020                  RACEDAY LIVE JUNE 2020                  0003700000000000000000000000000000000000000000OTH                                         
022020062604997000012200200150CB000000000013CS0007890387690499700000012220200020GUSTIDE014020                                     RACEDAY LIVE JUNE 2020                  RACEDAY LIVE JUNE 2020                  0003700009035090000300000000000000000000000000PEN                                         
022020062604997000012200200150CB000000000013CS0007950105750499700000012222200010HOGJJBE271010                                     RACEDAY LIVE JUNE 2020                  RACEDAY LIVE JUNE 2020                  0003700008989310000100000000000000000000000000LST                                         
022020062604997000012405900150CB000000000014CS0007890390130499700000012405900030JWTHSBA090030                                     RACEDAY LIVE JUNE 2020                  RACEDAY LIVE JUNE 2020                  0003700009033020000300000000000000000000000000FST                                         
022020062604997000012405900150CB000000000014CS0007890390140499700000012412900030SHTDPMA064030                                     RACEDAY LIVE JUNE 2020                  RACEDAY LIVE JUNE 2020                  0003700009051910000100000000000000000000000000SND                                         
022020062604997000012405900150CB000000000014CS0007890390150499700000012415900030MCENESP713030                                     RACEDAY LIVE JUNE 2020                  RACEDAY LIVE JUNE 2020                  0003700008984290000200000000000000000000000000OTH                                         
022020062604997000012405900150CB000000000014CS0007951369090499700000012422900010WCRCAZZ034010                                     RACEDAY LIVE JUNE 2020                  RACEDAY LIVE JUNE 2020                  0003700009075280000300000000000000000000000000OTH                                         
022020062604997000012405900150CB000000000014CS0007947281440499700000012423900020PDGMANO006020                                     RACEDAY LIVE JUNE 2020                  RACEDAY LIVE JUNE 2020                  0003700009064070000200000000000000000000000000PEN                                         
022020062604997000012405900150CB000000000014CS0007910783960499700000012425900030MIFRADA527030                                     RACEDAY LIVE JUNE 2020                  RACEDAY LIVE JUNE 2020                  0003700009042210000100000000000000000000000000LST                                         
022020062604997000012444300030CB000000000081CS0007960668470499700000012444300030SSCBEWA137030                                     RACEDAY LIVE JUNE 2020                  RACEDAY LIVE JUNE 2020                  0008300000000000000000000000000000000000000000FST                                         
022020062604997000012501900150CB000000000078CS0007950105580499700000012501900060HTVWWFC002060                                     RACEDAY LIVE JUNE 2020                  RACEDAY LIVE JUNE 2020                  0003700009090610000100000000000000000000000000FST                                         
022020062604997000012501900150CB000000000078CS0007950105600499700000012511900030SHTDPMA064030                                     RACEDAY LIVE JUNE 2020                  RACEDAY LIVE JUNE 2020                  0003700009090860000100000000000000000000000000SND                                         
022020062604997000012501900150CB000000000078CS0007951364080499700000012514900020BHOBHMN037020                                     RACEDAY LIVE JUNE 2020                  RACEDAY LIVE JUNE 2020                  0003700009053350000300000000000000000000000000OTH                                         
022020062604997000012501900150CB000000000078CS0007951361780499700000012520900030WCRCAZZ031030                                     RACEDAY LIVE JUNE 2020                  RACEDAY LIVE JUNE 2020                  0003700009075190000300000000000000000000000000PEN                                         
022020062604997000012501900150CB000000000078CS0007950105590499700000012523900010HOGJJBE271010                                     RACEDAY LIVE JUNE 2020                  RACEDAY LIVE JUNE 2020                  0003700008989310000100000000000000000000000000LST                                         
022020062604997000013122800150CB000000000015CS0007890371370499700000013122800030OGYIBMS287030                                     RACEDAY LIVE JUNE 2020                  RACEDAY LIVE JUNE 2020                  0003700009019460000300000000000000000000000000FST                                         
022020062604997000013122800150CB000000000015CS0007942139010499700000013125800030SASCTBS001030                                     RACEDAY LIVE JUNE 2020                  RACEDAY LIVE JUNE 2020                  0003700009104510000500000000000000000000000000SND                                         
022020062604997000013122800150CB000000000015CS0007947281330499700000013132800030WCRBSKY915030                                     RACEDAY LIVE JUNE 2020                  RACEDAY LIVE JUNE 2020                  0003700000000000000000000000000000000000000000OTH                                         
022020062604997000013122800150CB000000000015CS0007881394290499700000013135800030MUDITGA001030                                     RACEDAY LIVE JUNE 2020                  RACEDAY LIVE JUNE 2020                  0003700009057240000100000000000000000000000000PEN                                         
022020062604997000013122800150CB000000000015CS0007890371380499700000013142800030GUSTIDE015030                                     RACEDAY LIVE JUNE 2020                  RACEDAY LIVE JUNE 2020                  0003700009035090000300000000000000000000000000LST                                         
022020062604997000013191300030CB000000000082CS0007960668460499700000013191300030BBHLAPR128030                                     RACEDAY LIVE JUNE 2020                  RACEDAY LIVE JUNE 2020                  0008300000000000000000000000000000000000000000FST                                         
022020062604997000013280300150CB000000000016CS0007921118760499700000013280300020KARLIDL113020                                     RACEDAY LIVE JUNE 2020                  RACEDAY LIVE JUNE 2020                  0003700009053400000100000000000000000000000000FST                                         
022020062604997000013280300150CB000000000016CS0007890402100499700000013282300010KARCONF115010                                     RACEDAY LIVE JUNE 2020                  RACEDAY LIVE JUNE 2020                  0003700009028530000100000000000000000000000000SND                                         
022020062604997000013280300150CB000000000016CS0007949301590499700000013283300020HOGGSCO764020                                     RACEDAY LIVE JUNE 2020                  RACEDAY LIVE JUNE 2020                  0003700008992380000200000000000000000000000000OTH                                         
022020062604997000013280300150CB000000000016CS0007942108610499700000013285300030MCZHEYC005030                                     RACEDAY LIVE JUNE 2020                  RACEDAY LIVE JUNE 2020                  0003700009107020000100000000000000000000000000OTH                                         
022020062604997000013280300150CB000000000016CS0007927024490499700000013292300060WPNFSGT002060                                     RACEDAY LIVE JUNE 2020                  RACEDAY LIVE JUNE 2020                  0003700009089540000100000000000000000000000000PEN                                         
022020062604997000013280300150CB000000000016CS0007950106320499700000013302300010HOGJJBE271010                                     RACEDAY LIVE JUNE 2020                  RACEDAY LIVE JUNE 2020                  0003700008989310000100000000000000000000000000LST                                         
022020062604997000013423800150CB000000000017CS0007890697150499700000013423800030EGWVWGO013030                                     RACEDAY LIVE JUNE 2020                  RACEDAY LIVE JUNE 2020                  0003700009026620000100000000000000000000000000FST                                         
022020062604997000013423800150CB000000000017CS0007919726970499700000013430800030WCRBSKY915030                                     RACEDAY LIVE JUNE 2020                  RACEDAY LIVE JUNE 2020                  0003700000000000000000000000000000000000000000SND                                         
022020062604997000013423800150CB000000000017CS0007947283880499700000013433800030SSCVISA348030                                     RACEDAY LIVE JUNE 2020                  RACEDAY LIVE JUNE 2020                  0003700009119370000100000000000000000000000000OTH                                         
022020062604997000013423800150CB000000000017CS0007939282910499700000013440800030WLIWWOM001030                                     RACEDAY LIVE JUNE 2020                  RACEDAY LIVE JUNE 2020                  0003700009034780000100000000000000000000000000PEN                                         
022020062604997000013423800150CB000000000017CS0007890749990499700000013443800030INFRICH012030                                     RACEDAY LIVE JUNE 2020                  RACEDAY LIVE JUNE 2020                  0003700009049860000100000000000000000000000000LST                                         
022020062604997000013492800030CB000000000083CS0007960789180499700000013492800030FOWSKYB953030                                     RACEDAY LIVE JUNE 2020                  RACEDAY LIVE JUNE 2020                  0008300000000000000000000000000000000000000000FST                                         
022020062604997000013580900090CB000000000018CS0007890369420499700000013580900030OLIHOCR498030                                     RACEDAY LIVE JUNE 2020                  RACEDAY LIVE JUNE 2020                  0003700008982100000200000000000000000000000000FST                                         
022020062604997000013580900090CB000000000018CS0007928111490499700000013583900030CSTGOBH002030                                     RACEDAY LIVE JUNE 2020                  RACEDAY LIVE JUNE 2020                  0003700000000000000000000000000000000000000000SND                                         
022020062604997000013580900090CB000000000018CS0007919731340499700000013590900030FOWSKYM101030                                     RACEDAY LIVE JUNE 2020                  RACEDAY LIVE JUNE 2020                  0003700009066910000100000000000000000000000000LST                                         
022020062604997000014094300150CB000000000019CS0007935019160499700000014094300030MCEJEAT067030                                     RACEDAY LIVE JUNE 2020                  RACEDAY LIVE JUNE 2020                  0003700009053510000100000000000000000000000000FST                                         
022020062604997000014094300150CB000000000019CS0007919234020499700000014101300060DAAGOSH007060                                     RACEDAY LIVE JUNE 2020                  RACEDAY LIVE JUNE 2020                  0003700009071660000100000000000000000000000000SND                                         
022020062604997000014094300150CB000000000019CS0007922358840499700000014111300030DRULEAS091030                                     RACEDAY LIVE JUNE 2020                  RACEDAY LIVE JUNE 2020                  0003700009095500000100000000000000000000000000OTH                                         
022020062604997000014094300150CB000000000019CS0007890368170499700000014114300020BHOBHMN037020                                     RACEDAY LIVE JUNE 2020                  RACEDAY LIVE JUNE 2020                  0003700009053350000300000000000000000000000000PEN                                         
022020062604997000014094300150CB000000000019CS0007919234040499700000014120300010DAAGOSH009010                                     RACEDAY LIVE JUNE 2020                  RACEDAY LIVE JUNE 2020                  0003700009071660000100000000000000000000000000LST                                         
022020062604997000014251400030CB000000000084CS0007960668450499700000014251400030BBHCASB019030                                     RACEDAY LIVE JUNE 2020                  RACEDAY LIVE JUNE 2020                  0008300000000000000000000000000000000000000000FST                                         
022020062604997000014322400150CB000000000020CS0007915276520499700000014322400030HHPNOFA001030                                     RACEDAY LIVE JUNE 2020                  RACEDAY LIVE JUNE 2020                  0003700009029830000200000000000000000000000000FST                                         
022020062604997000014322400150CB000000000020CS0007890394210499700000014325400030OLIHOCR498030                                     RACEDAY LIVE JUNE 2020                  RACEDAY LIVE JUNE 2020                  0003700008982100000200000000000000000000000000SND                                         
022020062604997000014322400150CB000000000020CS0007960668440499700000014332400030MRPBVGG068030                                     RACEDAY LIVE JUNE 2020                  RACEDAY LIVE JUNE 2020                  0008300000000000000000000000000000000000000000OTH                                         
022020062604997000014322400150CB000000000020CS0007921172060499700000014335400030CLDPARE001030                                     RACEDAY LIVE JUNE 2020                  RACEDAY LIVE JUNE 2020                  0003700000000000000000000000000000000000000000OTH                                         
022020062604997000014322400150CB000000000020CS0007949301620499700000014342400020HOGGSCO764020                                     RACEDAY LIVE JUNE 2020                  RACEDAY LIVE JUNE 2020                  0003700008992380000200000000000000000000000000PEN                                         
022020062604997000014322400150CB000000000020CS0007901143640499700000014344400010JLNUSWT026010                                     RACEDAY LIVE JUNE 2020                  RACEDAY LIVE JUNE 2020                  0003700009050090000300000000000000000000000000LST                                         
022020062604997000014394500150CB000000000021CS0007919731400499700000014394500030SFOLRRE106030                                     RACEDAY LIVE JUNE 2020                  RACEDAY LIVE JUNE 2020                  0003700009044940000100000000000000000000000000FST                                         
022020062604997000014394500150CB000000000021CS0007950113120499700000014401500030WCRBSKY906030                                     RACEDAY LIVE JUNE 2020                  RACEDAY LIVE JUNE 2020                  0003700009049780000100000000000000000000000000SND                                         
022020062604997000014394500150CB000000000021CS0007945204180499700000014404500020PDGMANO006020                                     RACEDAY LIVE JUNE 2020                  RACEDAY LIVE JUNE 2020                  0003700009064070000200000000000000000000000000OTH                                         
022020062604997000014394500150CB000000000021CS0007901140520499700000014410500040AMVBZBB294040                                     RACEDAY LIVE JUNE 2020                  RACEDAY LIVE JUNE 2020                  0003700009049320000100000000000000000000000000PEN                                         
022020062604997000014394500150CB000000000021CS0007920171650499700000014414500030MIFMORR813030                                     RACEDAY LIVE JUNE 2020                  RACEDAY LIVE JUNE 2020                  0003700009078060000100000000000000000000000000LST                                         
022020062604997000014502400150CB000000000022CS0007920495610499700000014502400030WCRBSKY915030                                     RACEDAY LIVE JUNE 2020                  RACEDAY LIVE JUNE 2020                  0003700000000000000000000000000000000000000000FST                                         
022020062604997000014502400150CB000000000022CS0007891450280499700000014505400030WCRMSMS067030                                     RACEDAY LIVE JUNE 2020                  RACEDAY LIVE JUNE 2020                  0003700009048690000500000000000000000000000000SND                                         
022020062604997000014502400150CB000000000022CS0007928087470499700000014512400030CSTGOBH002030                                     RACEDAY LIVE JUNE 2020                  RACEDAY LIVE JUNE 2020                  0003700000000000000000000000000000000000000000OTH                                         
022020062604997000014502400150CB000000000022CS0007949301640499700000014515400020HOGGSCO764020                                     RACEDAY LIVE JUNE 2020                  RACEDAY LIVE JUNE 2020                  0003700008992380000200000000000000000000000000PEN                                         
022020062604997000014502400150CB000000000022CS0007919733120499700000014521400040BURTMDS526040                                     RACEDAY LIVE JUNE 2020                  RACEDAY LIVE JUNE 2020                  0003700009054790000500000000000000000000000000LST                                         
022020062604997000014570000030CB000000000085CS0007960668430499700000014570000030BBHLAPR128030                                     RACEDAY LIVE JUNE 2020                  RACEDAY LIVE JUNE 2020                  0008300000000000000000000000000000000000000000FST                                         
022020062604997000015044500150CB000000000023CS0007897281900499700000015044500030GTBHGBB005030                                     RACEDAY LIVE JUNE 2020                  RACEDAY LIVE JUNE 2020                  0003700008984530000300000000000000000000000000FST                                         
022020062604997000015044500150CB000000000023CS0007896107510499700000015051500020AMVASJR277020                                     RACEDAY LIVE JUNE 2020                  RACEDAY LIVE JUNE 2020                  0003700008983650000200000000000000000000000000SND                                         
022020062604997000015044500150CB000000000023CS0007921714630499700000015053500030HYPNODS004030                                     RACEDAY LIVE JUNE 2020                  RACEDAY LIVE JUNE 2020                  0003700009029830000200000000000000000000000000OTH                                         
022020062604997000015044500150CB000000000023CS0007939283060499700000015060500030WLIWWOM001030                                     RACEDAY LIVE JUNE 2020                  RACEDAY LIVE JUNE 2020                  0003700009034780000100000000000000000000000000PEN                                         
022020062604997000015044500150CB000000000023CS0007901143180499700000015063500040AMVBZBB294040                                     RACEDAY LIVE JUNE 2020                  RACEDAY LIVE JUNE 2020                  0003700009049320000100000000000000000000000000LST                                         
022020062604997000015190300150CB000000000024CS0007919733050499700000015190300040BURTMDS526040                                     RACEDAY LIVE JUNE 2020                  RACEDAY LIVE JUNE 2020                  0003700009054790000500000000000000000000000000FST                                         
022020062604997000015190300150CB000000000024CS0007942098510499700000015194300030MCZHEYC005030                                     RACEDAY LIVE JUNE 2020                  RACEDAY LIVE JUNE 2020                  0003700009107020000100000000000000000000000000SND                                         
022020062604997000015190300150CB000000000024CS0007951361870499700000015201300030SSCDLCA042030                                     RACEDAY LIVE JUNE 2020                  RACEDAY LIVE JUNE 2020                  0003700008983660000200000000000000000000000000OTH                                         
022020062604997000015190300150CB000000000024CS0007946106800499700000015204300030TNIOMTC205030                                     RACEDAY LIVE JUNE 2020                  RACEDAY LIVE JUNE 2020                  0003700009095840000100000000000000000000000000PEN                                         
022020062604997000015190300150CB000000000024CS0007946145270499700000015211300020PDGMANO006020                                     RACEDAY LIVE JUNE 2020                  RACEDAY LIVE JUNE 2020                  0003700009064450000200000000000000000000000000LST                                         
022020062604997000015253000030CB000000000086CS0007960668410499700000015253000030MRPBVGG068030                                     RACEDAY LIVE JUNE 2020                  RACEDAY LIVE JUNE 2020                  0008300000000000000000000000000000000000000000FST                                         
022020062604997000015335800150CB000000000025CS0007891380150499700000015335800030WCRMSMS067030                                     RACEDAY LIVE JUNE 2020                  RACEDAY LIVE JUNE 2020                  0003700009048690000500000000000000000000000000FST                                         
022020062604997000015335800150CB000000000025CS0007919753160499700000015342800030WCRBSKY915030                                     RACEDAY LIVE JUNE 2020                  RACEDAY LIVE JUNE 2020                  0003700000000000000000000000000000000000000000SND                                         
022020062604997000015335800150CB000000000025CS0007960668390499700000015345800030WHGWLLH004030                                     RACEDAY LIVE JUNE 2020                  RACEDAY LIVE JUNE 2020                  0008300000000000000000000000000000000000000000OTH                                         
022020062604997000015335800150CB000000000025CS0007928122520499700000015352800030CSTTWOF003030                                     RACEDAY LIVE JUNE 2020                  RACEDAY LIVE JUNE 2020                  0003700000000000000000000000000000000000000000PEN                                         
022020062604997000015335800150CB000000000025CS0007922358640499700000015355800030DRULEAS091030                                     RACEDAY LIVE JUNE 2020                  RACEDAY LIVE JUNE 2020                  0003700009095500000100000000000000000000000000LST                                         
022020062604997000015512600150CB000000000026CS0007919742440499700000015512600030SFOLRRE106030                                     RACEDAY LIVE JUNE 2020                  RACEDAY LIVE JUNE 2020                  0003700009044940000100000000000000000000000000FST                                         
022020062604997000015512600150CB000000000026CS0007946145800499700000015515600010MCEJEAT078010                                     RACEDAY LIVE JUNE 2020                  RACEDAY LIVE JUNE 2020                  0003700009053510000100000000000000000000000000SND                                         
022020062604997000015512600150CB000000000026CS0007946145810499700000015520600030CHIRBNW025030                                     RACEDAY LIVE JUNE 2020                  RACEDAY LIVE JUNE 2020                  0003700009071110000200000000000000000000000000OTH                                         
022020062604997000015512600150CB000000000026CS0007949301700499700000015523600020HOGGSCO764020                                     RACEDAY LIVE JUNE 2020                  RACEDAY LIVE JUNE 2020                  0003700008992380000200000000000000000000000000OTH                                         
022020062604997000015512600150CB000000000026CS0007921172070499700000015525600030CLDPARE001030                                     RACEDAY LIVE JUNE 2020                  RACEDAY LIVE JUNE 2020                  0003700000000000000000000000000000000000000000PEN                                         
022020062604997000015512600150CB000000000026CS0007911597150499700000015532600030WKUSAUK119030                                     RACEDAY LIVE JUNE 2020                  RACEDAY LIVE JUNE 2020                  0003700009037150000200000000000000000000000000LST                                         
022020062604997000015555900030CB000000000087CS0007960668380499700000015555900030BBHCASB019030                                     RACEDAY LIVE JUNE 2020                  RACEDAY LIVE JUNE 2020                  0008300000000000000000000000000000000000000000FST                                         
022020062604997000016022100150CB000000000027CS0007939162310499700000016022100060CYLCREM001060                                     RACEDAY LIVE JUNE 2020                  RACEDAY LIVE JUNE 2020                  0003700009109420000100000000000000000000000000FST                                         
022020062604997000016022100150CB000000000027CS0007919733300499700000016032100060WCRSANT227060                                     RACEDAY LIVE JUNE 2020                  RACEDAY LIVE JUNE 2020                  0003700009064660000100000000000000000000000000SND                                         
022020062604997000016022100150CB000000000027CS0007899902910499700000016042100030CLDPARE001030                                     RACEDAY LIVE JUNE 2020                  RACEDAY LIVE JUNE 2020                  0003700000000000000000000000000000000000000000LST                                         
022020062604997000016130800150CB000000000028CS0007945200450499700000016130800020PDGMANO006020                                     RACEDAY LIVE JUNE 2020                  RACEDAY LIVE JUNE 2020                  0003700009064070000200000000000000000000000000FST                                         
022020062604997000016130800150CB000000000028CS0007942163920499700000016132800010CMEDLRX015010                                     RACEDAY LIVE JUNE 2020                  RACEDAY LIVE JUNE 2020                  0003700009096100000100000000000000000000000000SND                                         
022020062604997000016130800150CB000000000028CS0007960668370499700000016133800030HOMUNIS370030                                     RACEDAY LIVE JUNE 2020                  RACEDAY LIVE JUNE 2020                  0008300000000000000000000000000000000000000000OTH                                         
022020062604997000016130800150CB000000000028CS0007921172080499700000016140800030CLDPARE001030                                     RACEDAY LIVE JUNE 2020                  RACEDAY LIVE JUNE 2020                  0003700000000000000000000000000000000000000000OTH                                         
022020062604997000016130800150CB000000000028CS0007942098770499700000016143800030MCZHEYC005030                                     RACEDAY LIVE JUNE 2020                  RACEDAY LIVE JUNE 2020                  0003700009107020000100000000000000000000000000PEN                                         
022020062604997000016130800150CB000000000028CS0007920453000499700000016150800030WCRBSKY915030                                     RACEDAY LIVE JUNE 2020                  RACEDAY LIVE JUNE 2020                  0003700000000000000000000000000000000000000000LST                                         
022020062604997000016251700030CB000000000088CS0007960789160499700000016251700030FOWSKYB953030                                     RACEDAY LIVE JUNE 2020                  RACEDAY LIVE JUNE 2020                  0008300000000000000000000000000000000000000000FST                                         
022020062604997000016371700150CB000000000029CS0007920566130499700000016371700030KARCONF116030                                     RACEDAY LIVE JUNE 2020                  RACEDAY LIVE JUNE 2020                  0003700009028420000200000000000000000000000000FST                                         
022020062604997000016371700150CB000000000029CS0007911363820499700000016374700030WKUSAUK119030                                     RACEDAY LIVE JUNE 2020                  RACEDAY LIVE JUNE 2020                  0003700009037150000200000000000000000000000000SND                                         
022020062604997000016371700150CB000000000029CS0007960668360499700000016381700030MRPBVGG068030                                     RACEDAY LIVE JUNE 2020                  RACEDAY LIVE JUNE 2020                  0008300000000000000000000000000000000000000000OTH                                         
022020062604997000016371700150CB000000000029CS0007949301720499700000016384700020HOGGSCO764020                                     RACEDAY LIVE JUNE 2020                  RACEDAY LIVE JUNE 2020                  0003700008992380000200000000000000000000000000OTH                                         
022020062604997000016371700150CB000000000029CS0007921714670499700000016390700030HYPNODS004030                                     RACEDAY LIVE JUNE 2020                  RACEDAY LIVE JUNE 2020                  0003700009029830000200000000000000000000000000PEN                                         
022020062604997000016371700150CB000000000029CS0007942164410499700000016393700010SASCTBS001010                                     RACEDAY LIVE JUNE 2020                  RACEDAY LIVE JUNE 2020                  0003700009104510000500000000000000000000000000LST                                         
022020062604997000016470800150CB000000000030CS0007890402430499700000016470800030OLIHOCR498030                                     RACEDAY LIVE JUNE 2020                  RACEDAY LIVE JUNE 2020                  0003700008982090000200000000000000000000000000FST                                         
022020062604997000016470800150CB000000000030CS0007950106350499700000016473800010HOGJJBE271010                                     RACEDAY LIVE JUNE 2020                  RACEDAY LIVE JUNE 2020                  0003700008989310000100000000000000000000000000SND                                         
022020062604997000016470800150CB000000000030CS0007960668350499700000016474800030HOMUNIS370030                                     RACEDAY LIVE JUNE 2020                  RACEDAY LIVE JUNE 2020                  0008300000000000000000000000000000000000000000OTH                                         
022020062604997000016470800150CB000000000030CS0007945013180499700000016481800030BBHPCBR011030                                     RACEDAY LIVE JUNE 2020                  RACEDAY LIVE JUNE 2020                  0003700000000000000000000000000000000000000000OTH                                         
022020062604997000016470800150CB000000000030CS0007951369110499700000016484800010WCRCAZZ034010                                     RACEDAY LIVE JUNE 2020                  RACEDAY LIVE JUNE 2020                  0003700009075280000300000000000000000000000000OTH                                         
022020062604997000016470800150CB000000000030CS0007938921860499700000016485800010BUGBSAG297010                                     RACEDAY LIVE JUNE 2020                  RACEDAY LIVE JUNE 2020                  0003700009096170000400000000000000000000000000PEN                                         
022020062604997000016470800150CB000000000030CS0007890402440499700000016490800030MCENESP713030                                     RACEDAY LIVE JUNE 2020                  RACEDAY LIVE JUNE 2020                  0003700008984290000200000000000000000000000000LST                                         
022020062604997000016592300030CB000000000089CS0007960668340499700000016592300030DRUHORS083030                                     RACEDAY LIVE JUNE 2020                  RACEDAY LIVE JUNE 2020                  0008300000000000000000000000000000000000000000FST                                         
022020062604997000017115000150CB000000000031CS0007890390730499700000017115000030KARCONF116030                                     RACEDAY LIVE JUNE 2020                  RACEDAY LIVE JUNE 2020                  0003700009028420000200000000000000000000000000FST                                         
022020062604997000017115000150CB000000000031CS0007910783970499700000017122000030MIFRADA527030                                     RACEDAY LIVE JUNE 2020                  RACEDAY LIVE JUNE 2020                  0003700009042210000100000000000000000000000000SND                                         
022020062604997000017115000150CB000000000031CS0007945097260499700000017125000030BBHPCBR011030                                     RACEDAY LIVE JUNE 2020                  RACEDAY LIVE JUNE 2020                  0003700000000000000000000000000000000000000000OTH                                         
022020062604997000017115000150CB000000000031CS0007950106010499700000017132000030WCRBSKY915030                                     RACEDAY LIVE JUNE 2020                  RACEDAY LIVE JUNE 2020                  0003700000000000000000000000000000000000000000PEN                                         
022020062604997000017115000150CB000000000031CS0007890390740499700000017135000030CHIPEAH004030                                     RACEDAY LIVE JUNE 2020                  RACEDAY LIVE JUNE 2020                  0003700009073870000100000000000000000000000000LST                                         
022020062604997000017283000030CB000000000090CS0007960668330499700000017283000030BBHLAPR128030                                     RACEDAY LIVE JUNE 2020                  RACEDAY LIVE JUNE 2020                  0008300000000000000000000000000000000000000000FST                                         
022020062604997000017391300150CB000000000032CS0007890384000499700000017391300030OLIHOCR498030                                     RACEDAY LIVE JUNE 2020                  RACEDAY LIVE JUNE 2020                  0003700008982100000200000000000000000000000000FST                                         
022020062604997000017391300150CB000000000032CS0007890384010499700000017394300030WCRRNAV019030                                     RACEDAY LIVE JUNE 2020                  RACEDAY LIVE JUNE 2020                  0003700009005190000100000000000000000000000000SND                                         
022020062604997000017391300150CB000000000032CS0007945013170499700000017401300030BBHPCBR011030                                     RACEDAY LIVE JUNE 2020                  RACEDAY LIVE JUNE 2020                  0003700000000000000000000000000000000000000000OTH                                         
022020062604997000017391300150CB000000000032CS0007914028580499700000017404300030WCRBSKY906030                                     RACEDAY LIVE JUNE 2020                  RACEDAY LIVE JUNE 2020                  0003700000000000000000000000000000000000000000PEN                                         
022020062604997000017391300150CB000000000032CS0007881605950499700000017411300030MUDITPH001030                                     RACEDAY LIVE JUNE 2020                  RACEDAY LIVE JUNE 2020                  0003700009057240000100000000000000000000000000LST                                         
022020062604997000017453100150CB000000000033CS0007890131810499700000017453100030SSCMEBR002030                                     RACEDAY LIVE JUNE 2020                  RACEDAY LIVE JUNE 2020                  0003700009042070000100000000000000000000000000FST                                         
022020062604997000017453100150CB000000000033CS0007926751810499700000017460100020BURTSPK194020                                     RACEDAY LIVE JUNE 2020                  RACEDAY LIVE JUNE 2020                  0003700009074370000100000000000000000000000000SND                                         
022020062604997000017453100150CB000000000033CS0007928516840499700000017462100010CMEDLRX019010                                     RACEDAY LIVE JUNE 2020                  RACEDAY LIVE JUNE 2020                  0003700009096100000100000000000000000000000000OTH                                         
022020062604997000017453100150CB000000000033CS0007890139270499700000017463100030BROWBAC038030                                     RACEDAY LIVE JUNE 2020                  RACEDAY LIVE JUNE 2020                  0003700009040910000500000000000000000000000000PEN                                         
022020062604997000017453100150CB000000000033CS0007890139260499700000017470100060MCEMICR682060                                     RACEDAY LIVE JUNE 2020                  RACEDAY LIVE JUNE 2020                  0003700008990790000300000000000000000000000000LST                                         
022020062604997000017540900150CB000000000034CS0007890137890499700000017540900010KARKENC012010                                     RACEDAY LIVE JUNE 2020                  RACEDAY LIVE JUNE 2020                  0003700009021550000300000000000000000000000000FST                                         
022020062604997000017540900150CB000000000034CS0007890137870499700000017541900010HOGJJBE271010                                     RACEDAY LIVE JUNE 2020                  RACEDAY LIVE JUNE 2020                  0003700008989310000100000000000000000000000000SND                                         
022020062604997000017540900150CB000000000034CS0007960668320499700000017542900030HOMUNIS370030                                     RACEDAY LIVE JUNE 2020                  RACEDAY LIVE JUNE 2020                  0008300000000000000000000000000000000000000000OTH                                         
022020062604997000017540900150CB000000000034CS0007890137900499700000017545900030JWTHSBA090030                                     RACEDAY LIVE JUNE 2020                  RACEDAY LIVE JUNE 2020                  0003700009033060000200000000000000000000000000OTH                                         
022020062604997000017540900150CB000000000034CS0007890137880499700000017552900030KARCONF116030                                     RACEDAY LIVE JUNE 2020                  RACEDAY LIVE JUNE 2020                  0003700009028420000200000000000000000000000000PEN                                         
022020062604997000017540900150CB000000000034CS0007890136870499700000017555900040AEDSELE081040                                     RACEDAY LIVE JUNE 2020                  RACEDAY LIVE JUNE 2020                  0003700009012460000200000000000000000000000000LST                                         
022020062604997000017595600030CB000000000091CS0007960668310499700000017595600030MRPBVGG068030                                     RACEDAY LIVE JUNE 2020                  RACEDAY LIVE JUNE 2020                  0008300000000000000000000000000000000000000000FST                                         
022020062604997000018111400150CB000000000035CS0007890136780499700000018111400030EGWVWGO013030                                     RACEDAY LIVE JUNE 2020                  RACEDAY LIVE JUNE 2020                  0003700009026620000100000000000000000000000000FST                                         
022020062604997000018111400150CB000000000035CS0007890138260499700000018114400030HKXDETE050030                                     RACEDAY LIVE JUNE 2020                  RACEDAY LIVE JUNE 2020                  0003700009026970000100000000000000000000000000SND                                         
022020062604997000018111400150CB000000000035CS0007890138280499700000018121400030MCENESP713030                                     RACEDAY LIVE JUNE 2020                  RACEDAY LIVE JUNE 2020                  0003700008984290000200000000000000000000000000OTH                                         
022020062604997000018111400150CB000000000035CS0007919700650499700000018124400030SNQPUBR142030                                     RACEDAY LIVE JUNE 2020                  RACEDAY LIVE JUNE 2020                  0003700009080110000100000000000000000000000000PEN                                         
022020062604997000018111400150CB000000000035CS0007890138250499700000018131400030INFRICH012030                                     RACEDAY LIVE JUNE 2020                  RACEDAY LIVE JUNE 2020                  0003700009049860000100000000000000000000000000LST                                         
022020062604997000018255900150CB000000000036CS0007890136480499700000018255900010KARKENC012010                                     RACEDAY LIVE JUNE 2020                  RACEDAY LIVE JUNE 2020                  0003700009021550000300000000000000000000000000FST                                         
022020062604997000018255900150CB000000000036CS0007950105380499700000018260900030WCRBSKY915030                                     RACEDAY LIVE JUNE 2020                  RACEDAY LIVE JUNE 2020                  0003700000000000000000000000000000000000000000SND                                         
022020062604997000018255900150CB000000000036CS0007944881890499700000018263900030SHTDPMA064030                                     RACEDAY LIVE JUNE 2020                  RACEDAY LIVE JUNE 2020                  0003700009029080000100000000000000000000000000OTH                                         
022020062604997000018255900150CB000000000036CS0007943692290499700000018270900030BBHPCBR011030                                     RACEDAY LIVE JUNE 2020                  RACEDAY LIVE JUNE 2020                  0003700000000000000000000000000000000000000000OTH                                         
022020062604997000018255900150CB000000000036CS0007890135970499700000018273900040AEDSELE081040                                     RACEDAY LIVE JUNE 2020                  RACEDAY LIVE JUNE 2020                  0003700009012460000200000000000000000000000000PEN                                         
022020062604997000018255900150CB000000000036CS0007919699690499700000018281900010BJLRNDG046010                                     RACEDAY LIVE JUNE 2020                  RACEDAY LIVE JUNE 2020                  0003700009010640000200000000000000000000000000LST                                         
022020062604997000018303300030CB000000000092CS0007960789140499700000018303300030FOWSKYB953030                                     RACEDAY LIVE JUNE 2020                  RACEDAY LIVE JUNE 2020                  0008300000000000000000000000000000000000000000FST                                         
022020062604997000018535700150CB000000000037CS0007890130910499700000018535700030SSCMEBR002030                                     RACEDAY LIVE JUNE 2020                  RACEDAY LIVE JUNE 2020                  0003700009042070000100000000000000000000000000FST                                         
022020062604997000018535700150CB000000000037CS0007890139430499700000018542700010HOGJJBE271010                                     RACEDAY LIVE JUNE 2020                  RACEDAY LIVE JUNE 2020                  0003700008989310000100000000000000000000000000SND                                         
022020062604997000018535700150CB000000000037CS0007920176310499700000018543700010LYGCPBR067010                                     RACEDAY LIVE JUNE 2020                  RACEDAY LIVE JUNE 2020                  0003700000000000000000000000000000000000000000OTH                                         
022020062604997000018535700150CB000000000037CS0007890139440499700000018544700010KARCONF115010                                     RACEDAY LIVE JUNE 2020                  RACEDAY LIVE JUNE 2020                  0003700009028530000100000000000000000000000000OTH                                         
022020062604997000018535700150CB000000000037CS0007942142550499700000018545700010SASCTBS001010                                     RACEDAY LIVE JUNE 2020                  RACEDAY LIVE JUNE 2020                  0003700009104510000500000000000000000000000000OTH                                         
022020062604997000018535700150CB000000000037CS0007890139450499700000018550700030JWTHSBA090030                                     RACEDAY LIVE JUNE 2020                  RACEDAY LIVE JUNE 2020                  0003700009033060000200000000000000000000000000OTH                                         
022020062604997000018535700150CB000000000037CS0007916956600499700000018553700020VCCDOMN186020                                     RACEDAY LIVE JUNE 2020                  RACEDAY LIVE JUNE 2020                  0003700008983880000300000000000000000000000000PEN                                         
022020062604997000018535700150CB000000000037CS0007928727320499700000018555700030AMVDNDC320030                                     RACEDAY LIVE JUNE 2020                  RACEDAY LIVE JUNE 2020                  0003700009077800000100000000000000000000000000LST                                         
022020062604997000018592500030CB000000000093CS0007960668300499700000018592500030SSCBEWA138030                                     RACEDAY LIVE JUNE 2020                  RACEDAY LIVE JUNE 2020                  0008300000000000000000000000000000000000000000FST                                         
022020062604997000019074800150CB000000000039CS0007890130520499700000019074800030SSCMEBR002030                                     RACEDAY LIVE JUNE 2020                  RACEDAY LIVE JUNE 2020                  0003700009042070000100000000000000000000000000FST                                         
022020062604997000019074800150CB000000000039CS0007890143440499700000019081800030INFRICH012030                                     RACEDAY LIVE JUNE 2020                  RACEDAY LIVE JUNE 2020                  0003700009049860000100000000000000000000000000SND                                         
022020062604997000019074800150CB000000000039CS0007882195820499700000019084800030MUDITGA001030                                     RACEDAY LIVE JUNE 2020                  RACEDAY LIVE JUNE 2020                  0003700009057240000100000000000000000000000000OTH                                         
022020062604997000019074800150CB000000000039CS0007890143450499700000019091800030KARCONF116030                                     RACEDAY LIVE JUNE 2020                  RACEDAY LIVE JUNE 2020                  0003700009028420000200000000000000000000000000PEN                                         
022020062604997000019074800150CB000000000039CS0007890143430499700000019094800030JWTHSBA090030                                     RACEDAY LIVE JUNE 2020                  RACEDAY LIVE JUNE 2020                  0003700009033060000200000000000000000000000000LST                                         
022020062604997000019181700150CB000000000040CS0007927853710499700000019181700030AEDCMLO509030                                     RACEDAY LIVE JUNE 2020                  RACEDAY LIVE JUNE 2020                  0003700009094480000100000000000000000000000000FST                                         
022020062604997000019181700150CB000000000040CS0007890310500499700000019184700010HOGJJBE271010                                     RACEDAY LIVE JUNE 2020                  RACEDAY LIVE JUNE 2020                  0003700008989310000100000000000000000000000000SND                                         
022020062604997000019181700150CB000000000040CS0007890275410499700000019185700020BHOBHMN037020                                     RACEDAY LIVE JUNE 2020                  RACEDAY LIVE JUNE 2020                  0003700009053350000300000000000000000000000000OTH                                         
022020062604997000019181700150CB000000000040CS0007943692450499700000019191700030BBHPCBR011030                                     RACEDAY LIVE JUNE 2020                  RACEDAY LIVE JUNE 2020                  0003700000000000000000000000000000000000000000OTH                                         
022020062604997000019181700150CB000000000040CS0007919695760499700000019194700030MCEJEAT067030                                     RACEDAY LIVE JUNE 2020                  RACEDAY LIVE JUNE 2020                  0003700009053610000100000000000000000000000000PEN                                         
022020062604997000019181700150CB000000000040CS0007890130990499700000019201700030OLIHOCR498030                                     RACEDAY LIVE JUNE 2020                  RACEDAY LIVE JUNE 2020                  0003700008982100000200000000000000000000000000LST                                         
022020062604997000019300600030CB000000000094CS0007960789120499700000019300600030FOWSKYB953030                                     RACEDAY LIVE JUNE 2020                  RACEDAY LIVE JUNE 2020                  0008300000000000000000000000000000000000000000FST                                         
022020062604997000019381000150CB000000000041CS0007911419540499700000019381000030WKUSAUK119030                                     RACEDAY LIVE JUNE 2020                  RACEDAY LIVE JUNE 2020                  0003700009037150000200000000000000000000000000FST                                         
022020062604997000019381000150CB000000000041CS0007890310480499700000019384000030SSCDLHM033030                                     RACEDAY LIVE JUNE 2020                  RACEDAY LIVE JUNE 2020                  0003700008983660000200000000000000000000000000SND                                         
022020062604997000019381000150CB000000000041CS0007890310450499700000019391000030ISOCAFE003030                                     RACEDAY LIVE JUNE 2020                  RACEDAY LIVE JUNE 2020                  0003700000000000000000000000000000000000000000OTH                                         
022020062604997000019381000150CB000000000041CS0007890145740499700000019394000030EGWVWGO013030                                     RACEDAY LIVE JUNE 2020                  RACEDAY LIVE JUNE 2020                  0003700009026620000100000000000000000000000000PEN                                         
022020062604997000019381000150CB000000000041CS0007890310470499700000019401000030SHTDPMA064030                                     RACEDAY LIVE JUNE 2020                  RACEDAY LIVE JUNE 2020                  0003700009029080000100000000000000000000000000LST                                         
022020062604997000019480100150CB000000000042CS0007890140600499700000019480100030SSCMEBR002030                                     RACEDAY LIVE JUNE 2020                  RACEDAY LIVE JUNE 2020                  0003700009041890000100000000000000000000000000FST                                         
022020062604997000019480100150CB000000000042CS0007890277180499700000019483100030OGYIBMS288030                                     RACEDAY LIVE JUNE 2020                  RACEDAY LIVE JUNE 2020                  0003700009019460000300000000000000000000000000SND                                         
022020062604997000019480100150CB000000000042CS0007960668290499700000019490100030HOMUNIS370030                                     RACEDAY LIVE JUNE 2020                  RACEDAY LIVE JUNE 2020                  0008300000000000000000000000000000000000000000PEN                                         
022020062604997000019480100150CB000000000042CS0007890143460499700000019493100060MCEMICR682060                                     RACEDAY LIVE JUNE 2020                  RACEDAY LIVE JUNE 2020                  0003700008990790000300000000000000000000000000LST                                         
022020062604997000019595000030CB000000000095CS0007960789100499700000019595000030FOWSKYB953030                                     RACEDAY LIVE JUNE 2020                  RACEDAY LIVE JUNE 2020                  0008300000000000000000000000000000000000000000FST                                         
022020062604997000020140700150EB000000000043CS0007890141990499700000020140700010KARKENC012010                                     RACEDAY LIVE JUNE 2020                  STATESIDE 2020                          0003700009021550000300000000000000000000000000FST                                         
022020062604997000020140700150EB000000000043CS0007890141950499700000020141700010KARCONF115010                                     RACEDAY LIVE JUNE 2020                  STATESIDE 2020                          0003700009028530000100000000000000000000000000SND                                         
022020062604997000020140700150EB000000000043CS0007939326540499700000020142700030SHTDPMA077030                                     RACEDAY LIVE JUNE 2020                  STATESIDE 2020                          0003700000000000000000000000000000000000000000OTH                                         
022020062604997000020140700150EB000000000043CS0007890141980499700000020145700010HOGJJBE271010                                     RACEDAY LIVE JUNE 2020                  STATESIDE 2020                          0003700008989310000100000000000000000000000000OTH                                         
022020062604997000020140700150EB000000000043CS0007890141940499700000020150700030TAGTOGB299030                                     RACEDAY LIVE JUNE 2020                  STATESIDE 2020                          0003700009018790000100000000000000000000000000OTH                                         
022020062604997000020140700150EB000000000043CS0007890141970499700000020153700030JWTHSBA090030                                     RACEDAY LIVE JUNE 2020                  STATESIDE 2020                          0003700009033060000200000000000000000000000000PEN                                         
022020062604997000020140700150EB000000000043CS0007890141960499700000020160700030MCENESP713030                                     RACEDAY LIVE JUNE 2020                  STATESIDE 2020                          0003700008984290000200000000000000000000000000LST                                         
022020062604997000020220000120CB000000000044CS0007890136240499700000020220000030INFRICH012030                                     STATESIDE 2020                          STATESIDE 2020                          0003700009049860000100000000000000000000000000FST                                         
022020062604997000020220000120CB000000000044CS0007890136250499700000020223000060MCEMICR682060                                     STATESIDE 2020                          STATESIDE 2020                          0003700008990790000300000000000000000000000000SND                                         
022020062604997000020220000120CB000000000044CS0007890136270499700000020233000020TBMVIOT291020                                     STATESIDE 2020                          STATESIDE 2020                          0003700009075400000100000000000000000000000000PEN                                         
022020062604997000020220000120CB000000000044CS0007938921880499700000020235000010BUGBSAG297010                                     STATESIDE 2020                          STATESIDE 2020                          0003700009096170000400000000000000000000000000LST                                         
022020062604997000020320900120CB000000000045CS0007890135830499700000020320900030TAGTOGB299030                                     STATESIDE 2020                          STATESIDE 2020                          0003700009018790000100000000000000000000000000FST                                         
022020062604997000020320900120CB000000000045CS0007890135840499700000020323900030MIFMORR813030                                     STATESIDE 2020                          STATESIDE 2020                          0003700009078060000100000000000000000000000000SND                                         
022020062604997000020320900120CB000000000045CS0007915798790499700000020330900030PDGMANO002030                                     STATESIDE 2020                          STATESIDE 2020                          0003700009064070000200000000000000000000000000PEN                                         
022020062604997000020320900120CB000000000045CS0007890135890499700000020333900030SHTDPMA064030                                     STATESIDE 2020                          STATESIDE 2020                          0003700009029080000100000000000000000000000000LST                                         
022020062604997000020414000120CB000000000046CS0007890134240499700000020414000030MCENESP713030                                     STATESIDE 2020                          STATESIDE 2020                          0003700008984290000200000000000000000000000000FST                                         
022020062604997000020414000120CB000000000046CS0007890134230499700000020421000030MIFRADA527030                                     STATESIDE 2020                          STATESIDE 2020                          0003700009042210000100000000000000000000000000SND                                         
022020062604997000020414000120CB000000000046CS0007938921670499700000020424000010BUGBSAG297010                                     STATESIDE 2020                          STATESIDE 2020                          0003700009096170000400000000000000000000000000OTH                                         
022020062604997000020414000120CB000000000046CS0007951369120499700000020425000010WCRCAZZ034010                                     STATESIDE 2020                          STATESIDE 2020                          0003700009075280000300000000000000000000000000OTH                                         
022020062604997000020414000120CB000000000046CS0007890134270499700000020430000030WCRBSKY906030                                     STATESIDE 2020                          STATESIDE 2020                          0003700009049760000100000000000000000000000000PEN                                         
022020062604997000020414000120CB000000000046CS0007950105630499700000020433000010HOGJJBE271010                                     STATESIDE 2020                          STATESIDE 2020                          0003700008989310000100000000000000000000000000LST                                         
022020062604997000020543100120CB000000000079CS0007950105470499700000020543100030WCRBSKY915030                                     STATESIDE 2020                          STATESIDE 2020                          0003700000000000000000000000000000000000000000FST                                         
022020062604997000020543100120CB000000000079CS0007950105620499700000020550100030SHTDPMA064030                                     STATESIDE 2020                          STATESIDE 2020                          0003700009090860000100000000000000000000000000SND                                         
022020062604997000020543100120CB000000000079CS0007950106270499700000020553100020CSMDUGC001020                                     STATESIDE 2020                          STATESIDE 2020                          0003700000000000000000000000000000000000000000PEN                                         
022020062604997000020543100120CB000000000079CS0007950105480499700000020555100040BURTMDS526040                                     STATESIDE 2020                          STATESIDE 2020                          0003700009054790000500000000000000000000000000LST                                         
022020062604997000021065100120CB000000000047CS0007950105610499700000021065100010HOGJJBE271010                                     STATESIDE 2020                          STATESIDE 2020                          0003700008989310000100000000000000000000000000FST                                         
022020062604997000021065100120CB000000000047CS0007960668280499700000021070100030REPTTYN223030                                     STATESIDE 2020                          STATESIDE 2020                          0003700009087780000100000000000000000000000000SND                                         
022020062604997000021065100120CB000000000047CS0007881394310499700000021073100030MUDITPH001030                                     STATESIDE 2020                          STATESIDE 2020                          0003700009057240000100000000000000000000000000OTH                                         
022020062604997000021065100120CB000000000047CS0007951369150499700000021080100010WCRCAZZ034010                                     STATESIDE 2020                          STATESIDE 2020                          0003700009075280000300000000000000000000000000OTH                                         
022020062604997000021065100120CB000000000047CS0007890133850499700000021081100030TAGTOGB299030                                     STATESIDE 2020                          STATESIDE 2020                          0003700009018790000100000000000000000000000000PEN                                         
022020062604997000021065100120CB000000000047CS0007890133840499700000021084100010KARCONF115010                                     STATESIDE 2020                          STATESIDE 2020                          0003700009028530000100000000000000000000000000LST                                         
022020062604997000021403100120CB000000000048CS0007890260310499700000021403100030HKPOPEN003030                                     STATESIDE 2020                          STATESIDE 2020                          0003700000000000000000000000000000000000000000FST                                         
022020062604997000021403100120CB000000000048CS0007960668270499700000021410100030HOMUNIS370030                                     STATESIDE 2020                          STATESIDE 2020                          0008300000000000000000000000000000000000000000SND                                         
022020062604997000021403100120CB000000000048CS0007890260300499700000021413100020PDGMANO006020                                     STATESIDE 2020                          STATESIDE 2020                          0003700009064450000200000000000000000000000000OTH                                         
022020062604997000021403100120CB000000000048CS0007951369130499700000021415100010WCRCAZZ034010                                     STATESIDE 2020                          STATESIDE 2020                          0003700009075280000300000000000000000000000000PEN                                         
022020062604997000021403100120CB000000000048CS0007890310510499700000021420100030MIFRADA527030                                     STATESIDE 2020                          STATESIDE 2020                          0003700009042210000100000000000000000000000000LST                                         
022020062604997000021435100120CB000000000049CS0007890259550499700000021435100030WCRRNAV019030                                     STATESIDE 2020                          STATESIDE 2020                          0003700009005160000100000000000000000000000000FST                                         
022020062604997000021435100120CB000000000049CS0007942137570499700000021442100030PMCLEGL001030                                     STATESIDE 2020                          STATESIDE 2020                          0003700009073810000200000000000000000000000000SND                                         
022020062604997000021435100120CB000000000049CS0007928743060499700000021445100030WCRBSKY915030                                     STATESIDE 2020                          STATESIDE 2020                          0003700000000000000000000000000000000000000000PEN                                         
022020062604997000021435100120CB000000000049CS0007890259560499700000021452100030SSCDLCA042030                                     STATESIDE 2020                          STATESIDE 2020                          0003700008983660000200000000000000000000000000LST                                         
022020062604997000021494100120CB000000000050CS0007950107560499700000021494100020CSMDUGC001020                                     STATESIDE 2020                          STATESIDE 2020                          0003700000000000000000000000000000000000000000FST                                         
022020062604997000021494100120CB000000000050CS0007911849060499700000021500100040BURTMDS526040                                     STATESIDE 2020                          STATESIDE 2020                          0003700009054790000500000000000000000000000000SND                                         
022020062604997000021494100120CB000000000050CS0007960668260499700000021504100030REPTTYN223030                                     STATESIDE 2020                          STATESIDE 2020                          0003700009087780000100000000000000000000000000PEN                                         
022020062604997000021494100120CB000000000050CS0007890145650499700000021511100030SSCMEBR002030                                     STATESIDE 2020                          STATESIDE 2020                          0003700009041890000100000000000000000000000000LST                                         
022020062604997000021530300120CB000000000051CS0007890131740499700000021530300030OGYIBMS287030                                     STATESIDE 2020                          STATESIDE 2020                          0003700009019460000300000000000000000000000000FST                                         
022020062604997000021530300120CB000000000051CS0007890131730499700000021533300030EGWVWGO013030                                     STATESIDE 2020                          STATESIDE 2020                          0003700009026620000100000000000000000000000000SND                                         
022020062604997000021530300120CB000000000051CS0007881880400499700000021540300030MUDITGA001030                                     STATESIDE 2020                          STATESIDE 2020                          0003700009057240000100000000000000000000000000PEN                                         
022020062604997000021530300120CB000000000051CS0007947281820499700000021543300030SSCVISA348030                                     STATESIDE 2020                          STATESIDE 2020                          0003700009119270000100000000000000000000000000LST                                         
022020062604997000022093000120CB000000000052CS0007910780810499700000022093000040AEDSELE081040                                     STATESIDE 2020                          STATESIDE 2020                          0003700009010910000200000000000000000000000000FST                                         
022020062604997000022093000120CB000000000052CS0007911565710499700000022101000020KARLIDL113020                                     STATESIDE 2020                          STATESIDE 2020                          0003700009053400000100000000000000000000000000SND                                         
022020062604997000022093000120CB000000000052CS0007946145820499700000022103000010BJLRNDD047010                                     STATESIDE 2020                          STATESIDE 2020                          0003700009010640000200000000000000000000000000OTH                                         
022020062604997000022093000120CB000000000052CS0007919735960499700000022104000030WCRBSKY915030                                     STATESIDE 2020                          STATESIDE 2020                          0003700000000000000000000000000000000000000000PEN                                         
022020062604997000022093000120CB000000000052CS0007915863330499700000022111000020VCCDOMN186020                                     STATESIDE 2020                          STATESIDE 2020                          0003700008983880000300000000000000000000000000LST                                         
022020062604997000022232400120CB000000000053CS0007897147010499700000022232400030PPCPSUK225030                                     STATESIDE 2020                          STATESIDE 2020                          0003700009051950000200000000000000000000000000FST                                         
022020062604997000022232400120CB000000000053CS0007919732450499700000022235400020SNQPUBR139020                                     STATESIDE 2020                          STATESIDE 2020                          0003700009080190000100000000000000000000000000SND                                         
022020062604997000022232400120CB000000000053CS0007960668250499700000022241400030REPTTYN223030                                     STATESIDE 2020                          STATESIDE 2020                          0003700009087780000100000000000000000000000000OTH                                         
022020062604997000022232400120CB000000000053CS0007897782030499700000022244400010FKLRFYD001010                                     STATESIDE 2020                          STATESIDE 2020                          0003700000000000000000000000000000000000000000PEN                                         
022020062604997000022232400120CB000000000053CS0007919732440499700000022245400030JWTHSBA090030                                     STATESIDE 2020                          STATESIDE 2020                          0003700009033020000300000000000000000000000000LST                                         
022020062604997000022434800120CB000000000054CS0007911861410499700000022434800020VCCDOMN186020                                     STATESIDE 2020                          STATESIDE 2020                          0003700008983880000300000000000000000000000000FST                                         
022020062604997000022434800120CB000000000054CS0007919745200499700000022440800020CSMDUGC001020                                     STATESIDE 2020                          STATESIDE 2020                          0003700000000000000000000000000000000000000000SND                                         
022020062604997000022434800120CB000000000054CS0007919745210499700000022442800030SFOLRRE106030                                     STATESIDE 2020                          STATESIDE 2020                          0003700009044940000100000000000000000000000000OTH                                         
022020062604997000022434800120CB000000000054CS0007919749910499700000022445800020IMDRBEN514020                                     STATESIDE 2020                          STATESIDE 2020                          0003700009076400000100000000000000000000000000PEN                                         
022020062604997000022434800120CB000000000054CS0007911628790499700000022451800030WKUSAUK119030                                     STATESIDE 2020                          STATESIDE 2020                          0003700009037150000200000000000000000000000000LST                                         
022020062604997000022573800120EB000000000056CS0007919749080499700000022573800020PCHRBEN007020                                     STATESIDE 2020                          SKY SPORTS NEWS 2020                    0003700009076400000100000000000000000000000000FST                                         
022020062604997000022573800120EB000000000056CS0007919755060499700000022575800030SFOLRRE106030                                     STATESIDE 2020                          SKY SPORTS NEWS 2020                    0003700009044930000100000000000000000000000000SND                                         
