01Spot      Quest     030020200708202007091904190409620200708.DCL   05099000000000000000000000000000000000000000000000000000000000000000000000000000000000000000000000000000000000000000000000000000000000000000000000000000000000000000000000000000000000000000000000000000003.5A                          
022020070805099000008061600150EB000000000074CS0007960489350509900000008061600030REPBEDS211030                                     HISTORY IN THE MAKING (SEASON 2)        DEADLIEST CATCH (SEASON 10)             0003700009081110000201000000000000000000000000FST                                         
022020070805099000008061600150EB000000000074CS9999999999990509900000008061600030SKYADSMART000                                     HISTORY IN THE MAKING (SEASON 2)        DEADLIEST CATCH (SEASON 10)             0003700000000000000002000000000000000000000000FST                                         
022020070805099000008061600150EB000000000074CS0007960455380509900000008064600020PCHNISW161020                                     HISTORY IN THE MAKING (SEASON 2)        DEADLIEST CATCH (SEASON 10)             0003700009078570000101000000000000000000000000SND                                         
022020070805099000008061600150EB000000000074CS9999999999990509900000008064600020SKYADSMART000                                     HISTORY IN THE MAKING (SEASON 2)        DEADLIEST CATCH (SEASON 10)             0003700000000000000002000000000000000000000000SND                                         
022020070805099000008061600150EB000000000074CS0007958672820509900000008070600010EFRSMCK005010                                     HISTORY IN THE MAKING (SEASON 2)        DEADLIEST CATCH (SEASON 10)             0003700000000000000000000000000000000000000000OTH                                         
022020070805099000008061600150EB000000000074CS0007954026000509900000008071600010MRBSIBR002010                                     HISTORY IN THE MAKING (SEASON 2)        DEADLIEST CATCH (SEASON 10)             0003700009131560000100000000000000000000000000OTH                                         
022020070805099000008061600150EB000000000074CS0007958768130509900000008072600030HCLALLB001030                                     HISTORY IN THE MAKING (SEASON 2)        DEADLIEST CATCH (SEASON 10)             0003700000000000000000000000000000000000000000OTH                                         
022020070805099000008061600150EB000000000074CS0007958389120509900000008075600030CLDPARE001030                                     HISTORY IN THE MAKING (SEASON 2)        DEADLIEST CATCH (SEASON 10)             0003700000000000000000000000000000000000000000PEN                                         
022020070805099000008061600150EB000000000074CS0007952813890509900000008082600020GOCBRND072020                                     HISTORY IN THE MAKING (SEASON 2)        DEADLIEST CATCH (SEASON 10)             0003700009119490000201000000000000000000000000LST                                         
022020070805099000008061600150EB000000000074CS9999999999990509900000008082600020SKYADSMART000                                     HISTORY IN THE MAKING (SEASON 2)        DEADLIEST CATCH (SEASON 10)             0003700000000000000002000000000000000000000000LST                                         
022020070805099000008313800120CB000000000007CS0007935202780509900000008313800020BBHWEYB091020                                     DEADLIEST CATCH (SEASON 10)             DEADLIEST CATCH (SEASON 10)             0003700009021370000201000000000000000000000000FST                                         
022020070805099000008313800120CB000000000007CS9999999999990509900000008313800020SKYADSMART000                                     DEADLIEST CATCH (SEASON 10)             DEADLIEST CATCH (SEASON 10)             0003700000000000000002000000000000000000000000FST                                         
022020070805099000008313800120CB000000000007CS0007960449040509900000008315800010WPPGOUS011010                                     DEADLIEST CATCH (SEASON 10)             DEADLIEST CATCH (SEASON 10)             0003700009127920000201000000000000000000000000SND                                         
022020070805099000008313800120CB000000000007CS9999999999990509900000008315800010SKYADSMART000                                     DEADLIEST CATCH (SEASON 10)             DEADLIEST CATCH (SEASON 10)             0003700000000000000002000000000000000000000000SND                                         
022020070805099000008313800120CB000000000007CS0007936974710509900000008320800030DESLVHO018030                                     DEADLIEST CATCH (SEASON 10)             DEADLIEST CATCH (SEASON 10)             0003700009079950000201000000000000000000000000OTH                                         
022020070805099000008313800120CB000000000007CS9999999999990509900000008320800030SKYADSMART000                                     DEADLIEST CATCH (SEASON 10)             DEADLIEST CATCH (SEASON 10)             0003700000000000000002000000000000000000000000OTH                                         
022020070805099000008313800120CB000000000007CS0007954486990509900000008323800030MCMCLEA800030                                     DEADLIEST CATCH (SEASON 10)             DEADLIEST CATCH (SEASON 10)             0003700000000000000000000000000000000000000000OTH                                         
022020070805099000008313800120CB000000000007CS0007936974690509900000008330800020HOGGXSE965020                                     DEADLIEST CATCH (SEASON 10)             DEADLIEST CATCH (SEASON 10)             0003700009065060000101000000000000000000000000PEN                                         
022020070805099000008313800120CB000000000007CS9999999999990509900000008330800020SKYADSMART000                                     DEADLIEST CATCH (SEASON 10)             DEADLIEST CATCH (SEASON 10)             0003700000000000000002000000000000000000000000PEN                                         
022020070805099000008313800120CB000000000007CS0007935202790509900000008332800010BURTNVA015010                                     DEADLIEST CATCH (SEASON 10)             DEADLIEST CATCH (SEASON 10)             0003700009078670000101000000000000000000000000LST                                         
022020070805099000008313800120CB000000000007CS9999999999990509900000008332800010SKYADSMART000                                     DEADLIEST CATCH (SEASON 10)             DEADLIEST CATCH (SEASON 10)             0003700000000000000002000000000000000000000000LST                                         
022020070805099000008425700150CB000000000008CS0007936773650509900000008425700020MIFSCPL280020                                     DEADLIEST CATCH (SEASON 10)             DEADLIEST CATCH (SEASON 10)             0003700009071000000101000000000000000000000000FST                                         
022020070805099000008425700150CB000000000008CS9999999999990509900000008425700020SKYADSMART000                                     DEADLIEST CATCH (SEASON 10)             DEADLIEST CATCH (SEASON 10)             0003700000000000000002000000000000000000000000FST                                         
022020070805099000008425700150CB000000000008CS0007936773720509900000008431700020MIFNEPU268020                                     DEADLIEST CATCH (SEASON 10)             DEADLIEST CATCH (SEASON 10)             0003700009059410000101000000000000000000000000SND                                         
022020070805099000008425700150CB000000000008CS9999999999990509900000008431700020SKYADSMART000                                     DEADLIEST CATCH (SEASON 10)             DEADLIEST CATCH (SEASON 10)             0003700000000000000002000000000000000000000000SND                                         
022020070805099000008425700150CB000000000008CS0007936773680509900000008433700040HKXVAVP002040                                     DEADLIEST CATCH (SEASON 10)             DEADLIEST CATCH (SEASON 10)             0003700009065170000101000000000000000000000000OTH                                         
022020070805099000008425700150CB000000000008CS9999999999990509900000008433700040SKYADSMART000                                     DEADLIEST CATCH (SEASON 10)             DEADLIEST CATCH (SEASON 10)             0003700000000000000002000000000000000000000000OTH                                         
022020070805099000008425700150CB000000000008CS0007958395750509900000008441700030CLDPARE001030                                     DEADLIEST CATCH (SEASON 10)             DEADLIEST CATCH (SEASON 10)             0003700000000000000000000000000000000000000000OTH                                         
022020070805099000008425700150CB000000000008CS0007954026010509900000008444700010MRBSIBR002010                                     DEADLIEST CATCH (SEASON 10)             DEADLIEST CATCH (SEASON 10)             0003700009131560000101000000000000000000000000PEN                                         
022020070805099000008425700150CB000000000008CS9999999999990509900000008444700010SKYADSMART000                                     DEADLIEST CATCH (SEASON 10)             DEADLIEST CATCH (SEASON 10)             0003700000000000000002000000000000000000000000PEN                                         
022020070805099000008425700150CB000000000008CS0007935202770509900000008445700030SHTDPMA064030                                     DEADLIEST CATCH (SEASON 10)             DEADLIEST CATCH (SEASON 10)             0003700009106010000201000000000000000000000000LST                                         
022020070805099000008425700150CB000000000008CS9999999999990509900000008445700030SKYADSMART000                                     DEADLIEST CATCH (SEASON 10)             DEADLIEST CATCH (SEASON 10)             0003700000000000000002000000000000000000000000LST                                         
022020070805099000008575900120EB000000000075CS0007950861530509900000008575900030JLNAMPR142030                                     DEADLIEST CATCH (SEASON 10)             AUSSIE GOLD HUNTERS                     0003700009115750000101000000000000000000000000FST                                         
022020070805099000008575900120EB000000000075CS9999999999990509900000008575900030SKYADSMART000                                     DEADLIEST CATCH (SEASON 10)             AUSSIE GOLD HUNTERS                     0003700000000000000002000000000000000000000000FST                                         
022020070805099000008575900120EB000000000075CS0007950629310509900000008582900020BBHWEYB091020                                     DEADLIEST CATCH (SEASON 10)             AUSSIE GOLD HUNTERS                     0003700009021370000201000000000000000000000000SND                                         
022020070805099000008575900120EB000000000075CS9999999999990509900000008582900020SKYADSMART000                                     DEADLIEST CATCH (SEASON 10)             AUSSIE GOLD HUNTERS                     0003700000000000000002000000000000000000000000SND                                         
022020070805099000008575900120EB000000000075CS0007952701190509900000008584900030AEDLLDS103030                                     DEADLIEST CATCH (SEASON 10)             AUSSIE GOLD HUNTERS                     0003700009073630000101000000000000000000000000OTH                                         
022020070805099000008575900120EB000000000075CS9999999999990509900000008584900030SKYADSMART000                                     DEADLIEST CATCH (SEASON 10)             AUSSIE GOLD HUNTERS                     0003700000000000000002000000000000000000000000OTH                                         
022020070805099000008575900120EB000000000075CS0007950279010509900000008591900020HOGGXSE965020                                     DEADLIEST CATCH (SEASON 10)             AUSSIE GOLD HUNTERS                     0003700009065060000101000000000000000000000000PEN                                         
022020070805099000008575900120EB000000000075CS9999999999990509900000008591900020SKYADSMART000                                     DEADLIEST CATCH (SEASON 10)             AUSSIE GOLD HUNTERS                     0003700000000000000002000000000000000000000000PEN                                         
022020070805099000008575900120EB000000000075CS0007960449000509900000008593900020PCHNISW161020                                     DEADLIEST CATCH (SEASON 10)             AUSSIE GOLD HUNTERS                     0003700009078570000101000000000000000000000000LST                                         
022020070805099000008575900120EB000000000075CS9999999999990509900000008593900020SKYADSMART000                                     DEADLIEST CATCH (SEASON 10)             AUSSIE GOLD HUNTERS                     0003700000000000000002000000000000000000000000LST                                         
022020070805099000009262100180CB000000000010CS0007935185790509900000009262100030MIFNENS269030                                     AUSSIE GOLD HUNTERS                     AUSSIE GOLD HUNTERS                     0003700009076350000101000000000000000000000000FST                                         
022020070805099000009262100180CB000000000010CS9999999999990509900000009262100030SKYADSMART000                                     AUSSIE GOLD HUNTERS                     AUSSIE GOLD HUNTERS                     0003700000000000000002000000000000000000000000FST                                         
022020070805099000009262100180CB000000000010CS0007935185760509900000009265100030LBEAPTA044030                                     AUSSIE GOLD HUNTERS                     AUSSIE GOLD HUNTERS                     0003700009058810000101000000000000000000000000SND                                         
022020070805099000009262100180CB000000000010CS9999999999990509900000009265100030SKYADSMART000                                     AUSSIE GOLD HUNTERS                     AUSSIE GOLD HUNTERS                     0003700000000000000002000000000000000000000000SND                                         
022020070805099000009262100180CB000000000010CS0007935185770509900000009272100020PCHSANM002020                                     AUSSIE GOLD HUNTERS                     AUSSIE GOLD HUNTERS                     0003700009042380000101000000000000000000000000OTH                                         
022020070805099000009262100180CB000000000010CS9999999999990509900000009272100020SKYADSMART000                                     AUSSIE GOLD HUNTERS                     AUSSIE GOLD HUNTERS                     0003700000000000000002000000000000000000000000OTH                                         
022020070805099000009262100180CB000000000010CS0007953976970509900000009274100020GOCBRND068020                                     AUSSIE GOLD HUNTERS                     AUSSIE GOLD HUNTERS                     0003700009119470000201000000000000000000000000OTH                                         
022020070805099000009262100180CB000000000010CS9999999999990509900000009274100020SKYADSMART000                                     AUSSIE GOLD HUNTERS                     AUSSIE GOLD HUNTERS                     0003700000000000000002000000000000000000000000OTH                                         
022020070805099000009262100180CB000000000010CS0007960449220509900000009280100010BURTSPK195010                                     AUSSIE GOLD HUNTERS                     AUSSIE GOLD HUNTERS                     0003700009033600000101000000000000000000000000OTH                                         
022020070805099000009262100180CB000000000010CS9999999999990509900000009280100010SKYADSMART000                                     AUSSIE GOLD HUNTERS                     AUSSIE GOLD HUNTERS                     0003700000000000000002000000000000000000000000OTH                                         
022020070805099000009262100180CB000000000010CS0007935185780509900000009281100030SHTDPMA064030                                     AUSSIE GOLD HUNTERS                     AUSSIE GOLD HUNTERS                     0003700009106010000201000000000000000000000000OTH                                         
022020070805099000009262100180CB000000000010CS9999999999990509900000009281100030SKYADSMART000                                     AUSSIE GOLD HUNTERS                     AUSSIE GOLD HUNTERS                     0003700000000000000002000000000000000000000000OTH                                         
022020070805099000009262100180CB000000000010CS0007950255670509900000009284100010HOGGXPI951010                                     AUSSIE GOLD HUNTERS                     AUSSIE GOLD HUNTERS                     0003700009065190000101000000000000000000000000PEN                                         
022020070805099000009262100180CB000000000010CS9999999999990509900000009284100010SKYADSMART000                                     AUSSIE GOLD HUNTERS                     AUSSIE GOLD HUNTERS                     0003700000000000000002000000000000000000000000PEN                                         
022020070805099000009262100180CB000000000010CS0007935185730509900000009285100030WCRANCH001030                                     AUSSIE GOLD HUNTERS                     AUSSIE GOLD HUNTERS                     0003700009028270000101000000000000000000000000LST                                         
022020070805099000009262100180CB000000000010CS9999999999990509900000009285100030SKYADSMART000                                     AUSSIE GOLD HUNTERS                     AUSSIE GOLD HUNTERS                     0003700000000000000002000000000000000000000000LST                                         
022020070805099000009405700180CB000000000011CS0007935196980509900000009405700010TTBNIVE007010                                     AUSSIE GOLD HUNTERS                     AUSSIE GOLD HUNTERS                     0003700009090540000101000000000000000000000000FST                                         
022020070805099000009405700180CB000000000011CS9999999999990509900000009405700010SKYADSMART000                                     AUSSIE GOLD HUNTERS                     AUSSIE GOLD HUNTERS                     0003700000000000000002000000000000000000000000FST                                         
022020070805099000009405700180CB000000000011CS0007935196970509900000009410700020BBHWEYB091020                                     AUSSIE GOLD HUNTERS                     AUSSIE GOLD HUNTERS                     0003700009021370000201000000000000000000000000SND                                         
022020070805099000009405700180CB000000000011CS9999999999990509900000009410700020SKYADSMART000                                     AUSSIE GOLD HUNTERS                     AUSSIE GOLD HUNTERS                     0003700000000000000002000000000000000000000000SND                                         
022020070805099000009405700180CB000000000011CS0007959884320509900000009412700030OGYVODF197030                                     AUSSIE GOLD HUNTERS                     AUSSIE GOLD HUNTERS                     0003700009112770000101000000000000000000000000OTH                                         
022020070805099000009405700180CB000000000011CS9999999999990509900000009412700030SKYADSMART000                                     AUSSIE GOLD HUNTERS                     AUSSIE GOLD HUNTERS                     0003700000000000000002000000000000000000000000OTH                                         
022020070805099000009405700180CB000000000011CS0007958395860509900000009415700030CLDPARE001030                                     AUSSIE GOLD HUNTERS                     AUSSIE GOLD HUNTERS                     0003700000000000000000000000000000000000000000OTH                                         
022020070805099000009405700180CB000000000011CS0007957269020509900000009422700020HOGGXCO978020                                     AUSSIE GOLD HUNTERS                     AUSSIE GOLD HUNTERS                     0003700009065130000101000000000000000000000000OTH                                         
022020070805099000009405700180CB000000000011CS9999999999990509900000009422700020SKYADSMART000                                     AUSSIE GOLD HUNTERS                     AUSSIE GOLD HUNTERS                     0003700000000000000002000000000000000000000000OTH                                         
022020070805099000009405700180CB000000000011CS0007936767510509900000009424700020MIFSCPL280020                                     AUSSIE GOLD HUNTERS                     AUSSIE GOLD HUNTERS                     0003700009071000000101000000000000000000000000OTH                                         
022020070805099000009405700180CB000000000011CS9999999999990509900000009424700020SKYADSMART000                                     AUSSIE GOLD HUNTERS                     AUSSIE GOLD HUNTERS                     0003700000000000000002000000000000000000000000OTH                                         
022020070805099000009405700180CB000000000011CS0007959828490509900000009430700030JWTRIBE010030                                     AUSSIE GOLD HUNTERS                     AUSSIE GOLD HUNTERS                     0003700009136470000101000000000000000000000000PEN                                         
022020070805099000009405700180CB000000000011CS9999999999990509900000009430700030SKYADSMART000                                     AUSSIE GOLD HUNTERS                     AUSSIE GOLD HUNTERS                     0003700000000000000002000000000000000000000000PEN                                         
022020070805099000009405700180CB000000000011CS0007936767550509900000009433700020MIFNEPU268020                                     AUSSIE GOLD HUNTERS                     AUSSIE GOLD HUNTERS                     0003700009059410000101000000000000000000000000LST                                         
022020070805099000009405700180CB000000000011CS9999999999990509900000009433700020SKYADSMART000                                     AUSSIE GOLD HUNTERS                     AUSSIE GOLD HUNTERS                     0003700000000000000002000000000000000000000000LST                                         
022020070805099000009560200180EB000000000012CS0007935236250509900000009560200030WCRANCH001030                                     AUSSIE GOLD HUNTERS                     OUTBACK TRUCKERS (SEASON 2)             0003700009028270000101000000000000000000000000FST                                         
022020070805099000009560200180EB000000000012CS9999999999990509900000009560200030SKYADSMART000                                     AUSSIE GOLD HUNTERS                     OUTBACK TRUCKERS (SEASON 2)             0003700000000000000002000000000000000000000000FST                                         
022020070805099000009560200180EB000000000012CS0007935236240509900000009563200010BURTNVA015010                                     AUSSIE GOLD HUNTERS                     OUTBACK TRUCKERS (SEASON 2)             0003700009078670000101000000000000000000000000SND                                         
022020070805099000009560200180EB000000000012CS9999999999990509900000009563200010SKYADSMART000                                     AUSSIE GOLD HUNTERS                     OUTBACK TRUCKERS (SEASON 2)             0003700000000000000002000000000000000000000000SND                                         
022020070805099000009560200180EB000000000012CS0007960451130509900000009564200030PCHNISW162030                                     AUSSIE GOLD HUNTERS                     OUTBACK TRUCKERS (SEASON 2)             0003700009078890000101000000000000000000000000OTH                                         
022020070805099000009560200180EB000000000012CS9999999999990509900000009564200030SKYADSMART000                                     AUSSIE GOLD HUNTERS                     OUTBACK TRUCKERS (SEASON 2)             0003700000000000000002000000000000000000000000OTH                                         
022020070805099000009560200180EB000000000012CS0007953835790509900000009571200030WCRRNAV019030                                     AUSSIE GOLD HUNTERS                     OUTBACK TRUCKERS (SEASON 2)             0003700009063150000101000000000000000000000000OTH                                         
022020070805099000009560200180EB000000000012CS9999999999990509900000009571200030SKYADSMART000                                     AUSSIE GOLD HUNTERS                     OUTBACK TRUCKERS (SEASON 2)             0003700000000000000002000000000000000000000000OTH                                         
022020070805099000009560200180EB000000000012CS0007958661730509900000009574200010MUDITGA003010                                     AUSSIE GOLD HUNTERS                     OUTBACK TRUCKERS (SEASON 2)             0003700009108280000100000000000000000000000000OTH                                         
022020070805099000009560200180EB000000000012CS0007950489900509900000009575200030MTZTPCI001030                                     AUSSIE GOLD HUNTERS                     OUTBACK TRUCKERS (SEASON 2)             0003700009108870000101000000000000000000000000OTH                                         
022020070805099000009560200180EB000000000012CS9999999999990509900000009575200030SKYADSMART000                                     AUSSIE GOLD HUNTERS                     OUTBACK TRUCKERS (SEASON 2)             0003700000000000000002000000000000000000000000OTH                                         
022020070805099000009560200180EB000000000012CS0007960451110509900000009582200030DMSWBSC015030                                     AUSSIE GOLD HUNTERS                     OUTBACK TRUCKERS (SEASON 2)             0003700009137110000201000000000000000000000000PEN                                         
022020070805099000009560200180EB000000000012CS9999999999990509900000009582200030SKYADSMART000                                     AUSSIE GOLD HUNTERS                     OUTBACK TRUCKERS (SEASON 2)             0003700000000000000002000000000000000000000000PEN                                         
022020070805099000009560200180EB000000000012CS0007960451120509900000009585200010SSCKFMT044010                                     AUSSIE GOLD HUNTERS                     OUTBACK TRUCKERS (SEASON 2)             0003700009141410000101000000000000000000000000LST                                         
022020070805099000009560200180EB000000000012CS9999999999990509900000009585200010SKYADSMART000                                     AUSSIE GOLD HUNTERS                     OUTBACK TRUCKERS (SEASON 2)             0003700000000000000002000000000000000000000000LST                                         
022020070805099000010251200180CB000000000014CS0007938708110509900000010251200030AMVMACM005030                                     OUTBACK TRUCKERS (SEASON 2)             OUTBACK TRUCKERS (SEASON 2)             0003700009076710000201000000000000000000000000FST                                         
022020070805099000010251200180CB000000000014CS9999999999990509900000010251200030SKYADSMART000                                     OUTBACK TRUCKERS (SEASON 2)             OUTBACK TRUCKERS (SEASON 2)             0003700000000000000002000000000000000000000000FST                                         
022020070805099000010251200180CB000000000014CS0007960456850509900000010254200010MUMKFVA269010                                     OUTBACK TRUCKERS (SEASON 2)             OUTBACK TRUCKERS (SEASON 2)             0003700009092570000201000000000000000000000000SND                                         
022020070805099000010251200180CB000000000014CS9999999999990509900000010254200010SKYADSMART000                                     OUTBACK TRUCKERS (SEASON 2)             OUTBACK TRUCKERS (SEASON 2)             0003700000000000000002000000000000000000000000SND                                         
022020070805099000010251200180CB000000000014CS0007958345290509900000010255200020CLDMOHE026020                                     OUTBACK TRUCKERS (SEASON 2)             OUTBACK TRUCKERS (SEASON 2)             0003700009120800000101000000000000000000000000OTH                                         
022020070805099000010251200180CB000000000014CS9999999999990509900000010255200020SKYADSMART000                                     OUTBACK TRUCKERS (SEASON 2)             OUTBACK TRUCKERS (SEASON 2)             0003700000000000000002000000000000000000000000OTH                                         
022020070805099000010251200180CB000000000014CS0007957941170509900000010261200030HIHHIHI011030                                     OUTBACK TRUCKERS (SEASON 2)             OUTBACK TRUCKERS (SEASON 2)             0003700009147700000101000000000000000000000000OTH                                         
022020070805099000010251200180CB000000000014CS9999999999990509900000010261200030SKYADSMART000                                     OUTBACK TRUCKERS (SEASON 2)             OUTBACK TRUCKERS (SEASON 2)             0003700000000000000002000000000000000000000000OTH                                         
022020070805099000010251200180CB000000000014CS0007958768140509900000010264200030HCLALLB001030                                     OUTBACK TRUCKERS (SEASON 2)             OUTBACK TRUCKERS (SEASON 2)             0003700000000000000000000000000000000000000000OTH                                         
022020070805099000010251200180CB000000000014CS0007952821090509900000010271200010GOCDRTV078010                                     OUTBACK TRUCKERS (SEASON 2)             OUTBACK TRUCKERS (SEASON 2)             0003700009128830000201000000000000000000000000OTH                                         
022020070805099000010251200180CB000000000014CS9999999999990509900000010271200010SKYADSMART000                                     OUTBACK TRUCKERS (SEASON 2)             OUTBACK TRUCKERS (SEASON 2)             0003700000000000000002000000000000000000000000OTH                                         
022020070805099000010251200180CB000000000014CS0007938708130509900000010272200030PFSLEGA005030                                     OUTBACK TRUCKERS (SEASON 2)             OUTBACK TRUCKERS (SEASON 2)             0003700000000000000001000000000000000000000000PEN                                         
022020070805099000010251200180CB000000000014CS9999999999990509900000010272200030SKYADSMART000                                     OUTBACK TRUCKERS (SEASON 2)             OUTBACK TRUCKERS (SEASON 2)             0003700000000000000002000000000000000000000000PEN                                         
022020070805099000010251200180CB000000000014CS0007942449350509900000010275200020TTBCASU016020                                     OUTBACK TRUCKERS (SEASON 2)             OUTBACK TRUCKERS (SEASON 2)             0003700009027230000501000000000000000000000000LST                                         
022020070805099000010251200180CB000000000014CS9999999999990509900000010275200020SKYADSMART000                                     OUTBACK TRUCKERS (SEASON 2)             OUTBACK TRUCKERS (SEASON 2)             0003700000000000000002000000000000000000000000LST                                         
022020070805099000010434200180CB000000000015CS0007932884930509900000010434200030PCHCCEG002030                                     OUTBACK TRUCKERS (SEASON 2)             OUTBACK TRUCKERS (SEASON 2)             0003700009087950000201000000000000000000000000FST                                         
022020070805099000010434200180CB000000000015CS9999999999990509900000010434200030SKYADSMART000                                     OUTBACK TRUCKERS (SEASON 2)             OUTBACK TRUCKERS (SEASON 2)             0003700000000000000002000000000000000000000000FST                                         
022020070805099000010434200180CB000000000015CS0007929165880509900000010441200030PPLPPLU018030                                     OUTBACK TRUCKERS (SEASON 2)             OUTBACK TRUCKERS (SEASON 2)             0003700009085800000101000000000000000000000000SND                                         
022020070805099000010434200180CB000000000015CS9999999999990509900000010441200030SKYADSMART000                                     OUTBACK TRUCKERS (SEASON 2)             OUTBACK TRUCKERS (SEASON 2)             0003700000000000000002000000000000000000000000SND                                         
022020070805099000010434200180CB000000000015CS0007932884850509900000010444200030MTZTPCI001030                                     OUTBACK TRUCKERS (SEASON 2)             OUTBACK TRUCKERS (SEASON 2)             0003700009108870000101000000000000000000000000OTH                                         
022020070805099000010434200180CB000000000015CS9999999999990509900000010444200030SKYADSMART000                                     OUTBACK TRUCKERS (SEASON 2)             OUTBACK TRUCKERS (SEASON 2)             0003700000000000000002000000000000000000000000OTH                                         
022020070805099000010434200180CB000000000015CS0007932884910509900000010451200030CHIBGBR692030                                     OUTBACK TRUCKERS (SEASON 2)             OUTBACK TRUCKERS (SEASON 2)             0003700009047440000201000000000000000000000000OTH                                         
022020070805099000010434200180CB000000000015CS9999999999990509900000010451200030SKYADSMART000                                     OUTBACK TRUCKERS (SEASON 2)             OUTBACK TRUCKERS (SEASON 2)             0003700000000000000002000000000000000000000000OTH                                         
022020070805099000010434200180CB000000000015CS0007932884880509900000010454200030GCHKNBF005030                                     OUTBACK TRUCKERS (SEASON 2)             OUTBACK TRUCKERS (SEASON 2)             0003700009093760000101000000000000000000000000OTH                                         
022020070805099000010434200180CB000000000015CS9999999999990509900000010454200030SKYADSMART000                                     OUTBACK TRUCKERS (SEASON 2)             OUTBACK TRUCKERS (SEASON 2)             0003700000000000000002000000000000000000000000OTH                                         
022020070805099000010434200180CB000000000015CS0007955765660509900000010461200020CLDMOHE026020                                     OUTBACK TRUCKERS (SEASON 2)             OUTBACK TRUCKERS (SEASON 2)             0003700009120800000101000000000000000000000000PEN                                         
022020070805099000010434200180CB000000000015CS9999999999990509900000010461200020SKYADSMART000                                     OUTBACK TRUCKERS (SEASON 2)             OUTBACK TRUCKERS (SEASON 2)             0003700000000000000002000000000000000000000000PEN                                         
022020070805099000010434200180CB000000000015CS0007960462180509900000010463200010DVNVPCR203010                                     OUTBACK TRUCKERS (SEASON 2)             OUTBACK TRUCKERS (SEASON 2)             0003700009146060000101000000000000000000000000LST                                         
022020070805099000010434200180CB000000000015CS9999999999990509900000010463200010SKYADSMART000                                     OUTBACK TRUCKERS (SEASON 2)             OUTBACK TRUCKERS (SEASON 2)             0003700000000000000002000000000000000000000000LST                                         
022020070805099000010554100180EB000000000016CS0007960458290509900000010554100020TGSITQB032020                                     OUTBACK TRUCKERS (SEASON 2)             WHEELER DEALERS (SEASON 11)             0003700009158180000201000000000000000000000000FST                                         
022020070805099000010554100180EB000000000016CS9999999999990509900000010554100020SKYADSMART000                                     OUTBACK TRUCKERS (SEASON 2)             WHEELER DEALERS (SEASON 11)             0003700000000000000002000000000000000000000000FST                                         
022020070805099000010554100180EB000000000016CS0007958392800509900000010560100030MTZTPCI001030                                     OUTBACK TRUCKERS (SEASON 2)             WHEELER DEALERS (SEASON 11)             0003700009108870000101000000000000000000000000SND                                         
022020070805099000010554100180EB000000000016CS9999999999990509900000010560100030SKYADSMART000                                     OUTBACK TRUCKERS (SEASON 2)             WHEELER DEALERS (SEASON 11)             0003700000000000000002000000000000000000000000SND                                         
022020070805099000010554100180EB000000000016CS0007955846500509900000010563100010RECBTCV001010                                     OUTBACK TRUCKERS (SEASON 2)             WHEELER DEALERS (SEASON 11)             0003700000000000000001000000000000000000000000OTH                                         
022020070805099000010554100180EB000000000016CS9999999999990509900000010563100010SKYADSMART000                                     OUTBACK TRUCKERS (SEASON 2)             WHEELER DEALERS (SEASON 11)             0003700000000000000002000000000000000000000000OTH                                         
022020070805099000010554100180EB000000000016CS0007933188380509900000010564100030PFSLEGA005030                                     OUTBACK TRUCKERS (SEASON 2)             WHEELER DEALERS (SEASON 11)             0003700000000000000001000000000000000000000000OTH                                         
022020070805099000010554100180EB000000000016CS9999999999990509900000010564100030SKYADSMART000                                     OUTBACK TRUCKERS (SEASON 2)             WHEELER DEALERS (SEASON 11)             0003700000000000000002000000000000000000000000OTH                                         
022020070805099000010554100180EB000000000016CS0007938684790509900000010571100030AMVMACM005030                                     OUTBACK TRUCKERS (SEASON 2)             WHEELER DEALERS (SEASON 11)             0003700009076710000201000000000000000000000000OTH                                         
022020070805099000010554100180EB000000000016CS9999999999990509900000010571100030SKYADSMART000                                     OUTBACK TRUCKERS (SEASON 2)             WHEELER DEALERS (SEASON 11)             0003700000000000000002000000000000000000000000OTH                                         
022020070805099000010554100180EB000000000016CS0007937628820509900000010574100030AMVBZBB296030                                     OUTBACK TRUCKERS (SEASON 2)             WHEELER DEALERS (SEASON 11)             0003700009104560000101000000000000000000000000PEN                                         
022020070805099000010554100180EB000000000016CS9999999999990509900000010574100030SKYADSMART000                                     OUTBACK TRUCKERS (SEASON 2)             WHEELER DEALERS (SEASON 11)             0003700000000000000002000000000000000000000000PEN                                         
022020070805099000010554100180EB000000000016CS0007954067020509900000010581100030JLNAMPR142030                                     OUTBACK TRUCKERS (SEASON 2)             WHEELER DEALERS (SEASON 11)             0003700009115750000101000000000000000000000000LST                                         
022020070805099000010554100180EB000000000016CS9999999999990509900000010581100030SKYADSMART000                                     OUTBACK TRUCKERS (SEASON 2)             WHEELER DEALERS (SEASON 11)             0003700000000000000002000000000000000000000000LST                                         
022020070805099000011260900180CB000000000018CS0007938687340509900000011260900060WPNMALE017060                                     WHEELER DEALERS (SEASON 11)             WHEELER DEALERS (SEASON 11)             0003700009076590000301000000000000000000000000FST                                         
022020070805099000011260900180CB000000000018CS9999999999990509900000011260900060SKYADSMART000                                     WHEELER DEALERS (SEASON 11)             WHEELER DEALERS (SEASON 11)             0003700000000000000002000000000000000000000000FST                                         
022020070805099000011260900180CB000000000018CS0007949999920509900000011270900030IRIHABR069030                                     WHEELER DEALERS (SEASON 11)             WHEELER DEALERS (SEASON 11)             0003700009108850000101000000000000000000000000SND                                         
022020070805099000011260900180CB000000000018CS9999999999990509900000011270900030SKYADSMART000                                     WHEELER DEALERS (SEASON 11)             WHEELER DEALERS (SEASON 11)             0003700000000000000002000000000000000000000000SND                                         
022020070805099000011260900180CB000000000018CS0007939706420509900000011273900020TGFILFY007020                                     WHEELER DEALERS (SEASON 11)             WHEELER DEALERS (SEASON 11)             0003700009082390000101000000000000000000000000OTH                                         
022020070805099000011260900180CB000000000018CS9999999999990509900000011273900020SKYADSMART000                                     WHEELER DEALERS (SEASON 11)             WHEELER DEALERS (SEASON 11)             0003700000000000000002000000000000000000000000OTH                                         
022020070805099000011260900180CB000000000018CS0007938687310509900000011275900020AEDWRKC359020                                     WHEELER DEALERS (SEASON 11)             WHEELER DEALERS (SEASON 11)             0003700009101920000101000000000000000000000000OTH                                         
022020070805099000011260900180CB000000000018CS9999999999990509900000011275900020SKYADSMART000                                     WHEELER DEALERS (SEASON 11)             WHEELER DEALERS (SEASON 11)             0003700000000000000002000000000000000000000000OTH                                         
022020070805099000011260900180CB000000000018CS0007938687330509900000011281900020SSCEEBR450020                                     WHEELER DEALERS (SEASON 11)             WHEELER DEALERS (SEASON 11)             0003700009075130000201000000000000000000000000PEN                                         
022020070805099000011260900180CB000000000018CS9999999999990509900000011281900020SKYADSMART000                                     WHEELER DEALERS (SEASON 11)             WHEELER DEALERS (SEASON 11)             0003700000000000000002000000000000000000000000PEN                                         
022020070805099000011260900180CB000000000018CS0007939824190509900000011283900030HHPNOFA001030                                     WHEELER DEALERS (SEASON 11)             WHEELER DEALERS (SEASON 11)             0003700009095050000101000000000000000000000000LST                                         
022020070805099000011260900180CB000000000018CS9999999999990509900000011283900030SKYADSMART000                                     WHEELER DEALERS (SEASON 11)             WHEELER DEALERS (SEASON 11)             0003700000000000000002000000000000000000000000LST                                         
022020070805099000011400500180CB000000000019CS0007938683560509900000011400500030AMVMACM005030                                     WHEELER DEALERS (SEASON 11)             WHEELER DEALERS (SEASON 11)             0003700009076710000201000000000000000000000000FST                                         
022020070805099000011400500180CB000000000019CS9999999999990509900000011400500030SKYADSMART000                                     WHEELER DEALERS (SEASON 11)             WHEELER DEALERS (SEASON 11)             0003700000000000000002000000000000000000000000FST                                         
022020070805099000011400500180CB000000000019CS0007932929430509900000011403500030MTZTPCI001030                                     WHEELER DEALERS (SEASON 11)             WHEELER DEALERS (SEASON 11)             0003700009108870000101000000000000000000000000SND                                         
022020070805099000011400500180CB000000000019CS9999999999990509900000011403500030SKYADSMART000                                     WHEELER DEALERS (SEASON 11)             WHEELER DEALERS (SEASON 11)             0003700000000000000002000000000000000000000000SND                                         
022020070805099000011400500180CB000000000019CS0007950872610509900000011410500020CLDMOHE026020                                     WHEELER DEALERS (SEASON 11)             WHEELER DEALERS (SEASON 11)             0003700009120800000101000000000000000000000000OTH                                         
022020070805099000011400500180CB000000000019CS9999999999990509900000011410500020SKYADSMART000                                     WHEELER DEALERS (SEASON 11)             WHEELER DEALERS (SEASON 11)             0003700000000000000002000000000000000000000000OTH                                         
022020070805099000011400500180CB000000000019CS0007960433320509900000011412500030WPPLAMB002030                                     WHEELER DEALERS (SEASON 11)             WHEELER DEALERS (SEASON 11)             0003700009158540000101000000000000000000000000OTH                                         
022020070805099000011400500180CB000000000019CS9999999999990509900000011412500030SKYADSMART000                                     WHEELER DEALERS (SEASON 11)             WHEELER DEALERS (SEASON 11)             0003700000000000000002000000000000000000000000OTH                                         
022020070805099000011400500180CB000000000019CS0007945368680509900000011415500030OPLWFFD008030                                     WHEELER DEALERS (SEASON 11)             WHEELER DEALERS (SEASON 11)             0003700009118230000201000000000000000000000000PEN                                         
022020070805099000011400500180CB000000000019CS9999999999990509900000011415500030SKYADSMART000                                     WHEELER DEALERS (SEASON 11)             WHEELER DEALERS (SEASON 11)             0003700000000000000002000000000000000000000000PEN                                         
022020070805099000011400500180CB000000000019CS0007937626760509900000011422500040AMVBZBB294040                                     WHEELER DEALERS (SEASON 11)             WHEELER DEALERS (SEASON 11)             0003700009104590000101000000000000000000000000LST                                         
022020070805099000011400500180CB000000000019CS9999999999990509900000011422500040SKYADSMART000                                     WHEELER DEALERS (SEASON 11)             WHEELER DEALERS (SEASON 11)             0003700000000000000002000000000000000000000000LST                                         
022020070805099000011552800180EB000000000020CS0007938691660509900000011552800020VCCTOSI361020                                     WHEELER DEALERS (SEASON 11)             CHASING CLASSIC CARS (SEASON 6)         0003700009029750000301000000000000000000000000FST                                         
022020070805099000011552800180EB000000000020CS9999999999990509900000011552800020SKYADSMART000                                     WHEELER DEALERS (SEASON 11)             CHASING CLASSIC CARS (SEASON 6)         0003700000000000000002000000000000000000000000FST                                         
022020070805099000011552800180EB000000000020CS0007950874700509900000011554800030INFCRIS002030                                     WHEELER DEALERS (SEASON 11)             CHASING CLASSIC CARS (SEASON 6)         0003700009107220000101000000000000000000000000SND                                         
022020070805099000011552800180EB000000000020CS9999999999990509900000011554800030SKYADSMART000                                     WHEELER DEALERS (SEASON 11)             CHASING CLASSIC CARS (SEASON 6)         0003700000000000000002000000000000000000000000SND                                         
022020070805099000011552800180EB000000000020CS0007960437420509900000011561800030WPPLAMB001030                                     WHEELER DEALERS (SEASON 11)             CHASING CLASSIC CARS (SEASON 6)         0003700009158540000101000000000000000000000000OTH                                         
022020070805099000011552800180EB000000000020CS9999999999990509900000011561800030SKYADSMART000                                     WHEELER DEALERS (SEASON 11)             CHASING CLASSIC CARS (SEASON 6)         0003700000000000000002000000000000000000000000OTH                                         
022020070805099000011552800180EB000000000020CS0007938691670509900000011564800010AEDWRKC361010                                     WHEELER DEALERS (SEASON 11)             CHASING CLASSIC CARS (SEASON 6)         0003700009101930000101000000000000000000000000OTH                                         
022020070805099000011552800180EB000000000020CS9999999999990509900000011564800010SKYADSMART000                                     WHEELER DEALERS (SEASON 11)             CHASING CLASSIC CARS (SEASON 6)         0003700000000000000002000000000000000000000000OTH                                         
022020070805099000011552800180EB000000000020CS0007961079610509900000011565800030TAGTOGB299030                                     WHEELER DEALERS (SEASON 11)             CHASING CLASSIC CARS (SEASON 6)         0003700009019060000101000000000000000000000000OTH                                         
022020070805099000011552800180EB000000000020CS9999999999990509900000011565800030SKYADSMART000                                     WHEELER DEALERS (SEASON 11)             CHASING CLASSIC CARS (SEASON 6)         0003700000000000000002000000000000000000000000OTH                                         
022020070805099000011552800180EB000000000020CS0007950476730509900000011572800030SKYAWBS001030                                     WHEELER DEALERS (SEASON 11)             CHASING CLASSIC CARS (SEASON 6)         0003700009102780000101000000000000000000000000PEN                                         
022020070805099000011552800180EB000000000020CS9999999999990509900000011572800030SKYADSMART000                                     WHEELER DEALERS (SEASON 11)             CHASING CLASSIC CARS (SEASON 6)         0003700000000000000002000000000000000000000000PEN                                         
022020070805099000011552800180EB000000000020CS0007957939950509900000011575800030HIHHIHI011030                                     WHEELER DEALERS (SEASON 11)             CHASING CLASSIC CARS (SEASON 6)         0003700009147700000101000000000000000000000000LST                                         
022020070805099000011552800180EB000000000020CS9999999999990509900000011575800030SKYADSMART000                                     WHEELER DEALERS (SEASON 11)             CHASING CLASSIC CARS (SEASON 6)         0003700000000000000002000000000000000000000000LST                                         
022020070805099000012124400240CB000000000021CS0007950653090509900000012124400010TMWDCSC002010                                     CHASING CLASSIC CARS (SEASON 6)         CHASING CLASSIC CARS (SEASON 6)         0003700009087790000101000000000000000000000000FST                                         
022020070805099000012124400240CB000000000021CS9999999999990509900000012124400010SKYADSMART000                                     CHASING CLASSIC CARS (SEASON 6)         CHASING CLASSIC CARS (SEASON 6)         0003700000000000000002000000000000000000000000FST                                         
022020070805099000012124400240CB000000000021CS0007950198370509900000012125400030WCRBSKY906030                                     CHASING CLASSIC CARS (SEASON 6)         CHASING CLASSIC CARS (SEASON 6)         0003700009110450000101000000000000000000000000SND                                         
022020070805099000012124400240CB000000000021CS9999999999990509900000012125400030SKYADSMART000                                     CHASING CLASSIC CARS (SEASON 6)         CHASING CLASSIC CARS (SEASON 6)         0003700000000000000002000000000000000000000000SND                                         
022020070805099000012124400240CB000000000021CS0007950873260509900000012132400020CLDMOHE026020                                     CHASING CLASSIC CARS (SEASON 6)         CHASING CLASSIC CARS (SEASON 6)         0003700009120800000101000000000000000000000000OTH                                         
022020070805099000012124400240CB000000000021CS9999999999990509900000012132400020SKYADSMART000                                     CHASING CLASSIC CARS (SEASON 6)         CHASING CLASSIC CARS (SEASON 6)         0003700000000000000002000000000000000000000000OTH                                         
022020070805099000012124400240CB000000000021CS0007950474950509900000012134400030SKYNWCI002030                                     CHASING CLASSIC CARS (SEASON 6)         CHASING CLASSIC CARS (SEASON 6)         0003700009102960000101000000000000000000000000OTH                                         
022020070805099000012124400240CB000000000021CS9999999999990509900000012134400030SKYADSMART000                                     CHASING CLASSIC CARS (SEASON 6)         CHASING CLASSIC CARS (SEASON 6)         0003700000000000000002000000000000000000000000OTH                                         
022020070805099000012124400240CB000000000021CS0007955027080509900000012141400010BBHTCPD201010                                     CHASING CLASSIC CARS (SEASON 6)         CHASING CLASSIC CARS (SEASON 6)         0003700009089120000101000000000000000000000000OTH                                         
022020070805099000012124400240CB000000000021CS9999999999990509900000012141400010SKYADSMART000                                     CHASING CLASSIC CARS (SEASON 6)         CHASING CLASSIC CARS (SEASON 6)         0003700000000000000002000000000000000000000000OTH                                         
022020070805099000012124400240CB000000000021CS0007951197280509900000012142400030CNSPDRS004030                                     CHASING CLASSIC CARS (SEASON 6)         CHASING CLASSIC CARS (SEASON 6)         0003700009113580000201000000000000000000000000OTH                                         
022020070805099000012124400240CB000000000021CS9999999999990509900000012142400030SKYADSMART000                                     CHASING CLASSIC CARS (SEASON 6)         CHASING CLASSIC CARS (SEASON 6)         0003700000000000000002000000000000000000000000OTH                                         
022020070805099000012124400240CB000000000021CS0007960466110509900000012145400010DVNVPCR204010                                     CHASING CLASSIC CARS (SEASON 6)         CHASING CLASSIC CARS (SEASON 6)         0003700009146060000101000000000000000000000000OTH                                         
022020070805099000012124400240CB000000000021CS9999999999990509900000012145400010SKYADSMART000                                     CHASING CLASSIC CARS (SEASON 6)         CHASING CLASSIC CARS (SEASON 6)         0003700000000000000002000000000000000000000000OTH                                         
022020070805099000012124400240CB000000000021CS0007955425370509900000012150400040PUCMOSF001040                                     CHASING CLASSIC CARS (SEASON 6)         CHASING CLASSIC CARS (SEASON 6)         0003700009083380000201000000000000000000000000OTH                                         
022020070805099000012124400240CB000000000021CS9999999999990509900000012150400040SKYADSMART000                                     CHASING CLASSIC CARS (SEASON 6)         CHASING CLASSIC CARS (SEASON 6)         0003700000000000000002000000000000000000000000OTH                                         
022020070805099000012124400240CB000000000021CS0007932938580509900000012154400030MTZTPCI001030                                     CHASING CLASSIC CARS (SEASON 6)         CHASING CLASSIC CARS (SEASON 6)         0003700009108870000101000000000000000000000000OTH                                         
022020070805099000012124400240CB000000000021CS9999999999990509900000012154400030SKYADSMART000                                     CHASING CLASSIC CARS (SEASON 6)         CHASING CLASSIC CARS (SEASON 6)         0003700000000000000002000000000000000000000000OTH                                         
022020070805099000012124400240CB000000000021CS0007955841940509900000012161400010RECBTCV001010                                     CHASING CLASSIC CARS (SEASON 6)         CHASING CLASSIC CARS (SEASON 6)         0003700000000000000001000000000000000000000000PEN                                         
022020070805099000012124400240CB000000000021CS9999999999990509900000012161400010SKYADSMART000                                     CHASING CLASSIC CARS (SEASON 6)         CHASING CLASSIC CARS (SEASON 6)         0003700000000000000002000000000000000000000000PEN                                         
022020070805099000012124400240CB000000000021CS0007932938570509900000012162400020HHPSLWP203020                                     CHASING CLASSIC CARS (SEASON 6)         CHASING CLASSIC CARS (SEASON 6)         0003700009101200000101000000000000000000000000LST                                         
022020070805099000012124400240CB000000000021CS9999999999990509900000012162400020SKYADSMART000                                     CHASING CLASSIC CARS (SEASON 6)         CHASING CLASSIC CARS (SEASON 6)         0003700000000000000002000000000000000000000000LST                                         
022020070805099000012265400120EB000000000022CS0007936656850509900000012265400030MCEEBAY041030                                     CHASING CLASSIC CARS (SEASON 6)         CHASING CLASSIC CARS (SEASON 6)         0003700009072240000301000000000000000000000000FST                                         
022020070805099000012265400120EB000000000022CS9999999999990509900000012265400030SKYADSMART000                                     CHASING CLASSIC CARS (SEASON 6)         CHASING CLASSIC CARS (SEASON 6)         0003700000000000000002000000000000000000000000FST                                         
022020070805099000012265400120EB000000000022CS0007928864550509900000012272400030AEDCMNL504030                                     CHASING CLASSIC CARS (SEASON 6)         CHASING CLASSIC CARS (SEASON 6)         0003700009082500000201000000000000000000000000SND                                         
022020070805099000012265400120EB000000000022CS9999999999990509900000012272400030SKYADSMART000                                     CHASING CLASSIC CARS (SEASON 6)         CHASING CLASSIC CARS (SEASON 6)         0003700000000000000002000000000000000000000000SND                                         
022020070805099000012265400120EB000000000022CS0007958753780509900000012275400030ISOCAFE004030                                     CHASING CLASSIC CARS (SEASON 6)         CHASING CLASSIC CARS (SEASON 6)         0003700000000000000001000000000000000000000000PEN                                         
022020070805099000012265400120EB000000000022CS9999999999990509900000012275400030SKYADSMART000                                     CHASING CLASSIC CARS (SEASON 6)         CHASING CLASSIC CARS (SEASON 6)         0003700000000000000002000000000000000000000000PEN                                         
022020070805099000012265400120EB000000000022CS0007957940600509900000012282400030HIHHIHI011030                                     CHASING CLASSIC CARS (SEASON 6)         CHASING CLASSIC CARS (SEASON 6)         0003700009147700000101000000000000000000000000LST                                         
022020070805099000012265400120EB000000000022CS9999999999990509900000012282400030SKYADSMART000                                     CHASING CLASSIC CARS (SEASON 6)         CHASING CLASSIC CARS (SEASON 6)         0003700000000000000002000000000000000000000000LST                                         
022020070805099000012423000270CB000000000023CS0007936661750509900000012423000030SSCDLCA042030                                     CHASING CLASSIC CARS (SEASON 6)         CHASING CLASSIC CARS (SEASON 6)         0003700009090350000201000000000000000000000000FST                                         
022020070805099000012423000270CB000000000023CS9999999999990509900000012423000030SKYADSMART000                                     CHASING CLASSIC CARS (SEASON 6)         CHASING CLASSIC CARS (SEASON 6)         0003700000000000000002000000000000000000000000FST                                         
022020070805099000012423000270CB000000000023CS0007935321920509900000012430000010MUMKFVA269010                                     CHASING CLASSIC CARS (SEASON 6)         CHASING CLASSIC CARS (SEASON 6)         0003700009092570000201000000000000000000000000SND                                         
022020070805099000012423000270CB000000000023CS9999999999990509900000012430000010SKYADSMART000                                     CHASING CLASSIC CARS (SEASON 6)         CHASING CLASSIC CARS (SEASON 6)         0003700000000000000002000000000000000000000000SND                                         
022020070805099000012423000270CB000000000023CS0007950643630509900000012431000030IGCEPUK002030                                     CHASING CLASSIC CARS (SEASON 6)         CHASING CLASSIC CARS (SEASON 6)         0003700009125060000101000000000000000000000000OTH                                         
022020070805099000012423000270CB000000000023CS9999999999990509900000012431000030SKYADSMART000                                     CHASING CLASSIC CARS (SEASON 6)         CHASING CLASSIC CARS (SEASON 6)         0003700000000000000002000000000000000000000000OTH                                         
022020070805099000012423000270CB000000000023CS0007936661760509900000012434000030NCAHALF001030                                     CHASING CLASSIC CARS (SEASON 6)         CHASING CLASSIC CARS (SEASON 6)         0003700009079360000101000000000000000000000000OTH                                         
022020070805099000012423000270CB000000000023CS9999999999990509900000012434000030SKYADSMART000                                     CHASING CLASSIC CARS (SEASON 6)         CHASING CLASSIC CARS (SEASON 6)         0003700000000000000002000000000000000000000000OTH                                         
022020070805099000012423000270CB000000000023CS0007952774980509900000012441000020KRODSSS448020                                     CHASING CLASSIC CARS (SEASON 6)         CHASING CLASSIC CARS (SEASON 6)         0003700009128960000201000000000000000000000000OTH                                         
022020070805099000012423000270CB000000000023CS9999999999990509900000012441000020SKYADSMART000                                     CHASING CLASSIC CARS (SEASON 6)         CHASING CLASSIC CARS (SEASON 6)         0003700000000000000002000000000000000000000000OTH                                         
022020070805099000012423000270CB000000000023CS0007950180900509900000012443000010CKCSKHD157010                                     CHASING CLASSIC CARS (SEASON 6)         CHASING CLASSIC CARS (SEASON 6)         0003700009110430000101000000000000000000000000OTH                                         
022020070805099000012423000270CB000000000023CS9999999999990509900000012443000010SKYADSMART000                                     CHASING CLASSIC CARS (SEASON 6)         CHASING CLASSIC CARS (SEASON 6)         0003700000000000000002000000000000000000000000OTH                                         
022020070805099000012423000270CB000000000023CS0007958768150509900000012444000030HCLALLB001030                                     CHASING CLASSIC CARS (SEASON 6)         CHASING CLASSIC CARS (SEASON 6)         0003700000000000000000000000000000000000000000OTH                                         
022020070805099000012423000270CB000000000023CS0007945991290509900000012451000010TTBGALA027010                                     CHASING CLASSIC CARS (SEASON 6)         CHASING CLASSIC CARS (SEASON 6)         0003700009099270000201000000000000000000000000OTH                                         
022020070805099000012423000270CB000000000023CS9999999999990509900000012451000010SKYADSMART000                                     CHASING CLASSIC CARS (SEASON 6)         CHASING CLASSIC CARS (SEASON 6)         0003700000000000000002000000000000000000000000OTH                                         
022020070805099000012423000270CB000000000023CS0007960453060509900000012452000010SSCKFMT044010                                     CHASING CLASSIC CARS (SEASON 6)         CHASING CLASSIC CARS (SEASON 6)         0003700009141390000200000000000000000000000000OTH                                         
022020070805099000012423000270CB000000000023CS0007955766640509900000012453000020CLDMOHE026020                                     CHASING CLASSIC CARS (SEASON 6)         CHASING CLASSIC CARS (SEASON 6)         0003700009120800000101000000000000000000000000OTH                                         
022020070805099000012423000270CB000000000023CS9999999999990509900000012453000020SKYADSMART000                                     CHASING CLASSIC CARS (SEASON 6)         CHASING CLASSIC CARS (SEASON 6)         0003700000000000000002000000000000000000000000OTH                                         
022020070805099000012423000270CB000000000023CS0007939907940509900000012455000030HOGTIKT011030                                     CHASING CLASSIC CARS (SEASON 6)         CHASING CLASSIC CARS (SEASON 6)         0003700009067140000201000000000000000000000000OTH                                         
022020070805099000012423000270CB000000000023CS9999999999990509900000012455000030SKYADSMART000                                     CHASING CLASSIC CARS (SEASON 6)         CHASING CLASSIC CARS (SEASON 6)         0003700000000000000002000000000000000000000000OTH                                         
022020070805099000012423000270CB000000000023CS0007955842010509900000012462000010RECBTCV001010                                     CHASING CLASSIC CARS (SEASON 6)         CHASING CLASSIC CARS (SEASON 6)         0003700000000000000001000000000000000000000000PEN                                         
022020070805099000012423000270CB000000000023CS9999999999990509900000012462000010SKYADSMART000                                     CHASING CLASSIC CARS (SEASON 6)         CHASING CLASSIC CARS (SEASON 6)         0003700000000000000002000000000000000000000000PEN                                         
022020070805099000012423000270CB000000000023CS0007936661740509900000012463000030HKXDETE050030                                     CHASING CLASSIC CARS (SEASON 6)         CHASING CLASSIC CARS (SEASON 6)         0003700009059700000101000000000000000000000000LST                                         
022020070805099000012423000270CB000000000023CS9999999999990509900000012463000030SKYADSMART000                                     CHASING CLASSIC CARS (SEASON 6)         CHASING CLASSIC CARS (SEASON 6)         0003700000000000000002000000000000000000000000LST                                         
022020070805099000012580600090EB000000000024CS0007933429840509900000012580600030OGYVODF197030                                     CHASING CLASSIC CARS (SEASON 6)         SALVAGE HUNTERS: CLASSIC CARS (SEASON 2)0003700009076740000201000000000000000000000000FST                                         
022020070805099000012580600090EB000000000024CS9999999999990509900000012580600030SKYADSMART000                                     CHASING CLASSIC CARS (SEASON 6)         SALVAGE HUNTERS: CLASSIC CARS (SEASON 2)0003700000000000000002000000000000000000000000FST                                         
022020070805099000012580600090EB000000000024CS0007960881540509900000012583600030SCCBSPS301030                                     CHASING CLASSIC CARS (SEASON 6)         SALVAGE HUNTERS: CLASSIC CARS (SEASON 2)0003700009080160000201000000000000000000000000SND                                         
022020070805099000012580600090EB000000000024CS9999999999990509900000012583600030SKYADSMART000                                     CHASING CLASSIC CARS (SEASON 6)         SALVAGE HUNTERS: CLASSIC CARS (SEASON 2)0003700000000000000002000000000000000000000000SND                                         
022020070805099000012580600090EB000000000024CS0007960437440509900000012590600030WPPLAMB002030                                     CHASING CLASSIC CARS (SEASON 6)         SALVAGE HUNTERS: CLASSIC CARS (SEASON 2)0003700009158540000101000000000000000000000000LST                                         
022020070805099000012580600090EB000000000024CS9999999999990509900000012590600030SKYADSMART000                                     CHASING CLASSIC CARS (SEASON 6)         SALVAGE HUNTERS: CLASSIC CARS (SEASON 2)0003700000000000000002000000000000000000000000LST                                         
022020070805099000013104200120CB000000000025CS0007945291100509900000013104200030OGYVODF197030                                     SALVAGE HUNTERS: CLASSIC CARS (SEASON 2)SALVAGE HUNTERS: CLASSIC CARS (SEASON 2)0003700009112770000101000000000000000000000000FST                                         
022020070805099000013104200120CB000000000025CS9999999999990509900000013104200030SKYADSMART000                                     SALVAGE HUNTERS: CLASSIC CARS (SEASON 2)SALVAGE HUNTERS: CLASSIC CARS (SEASON 2)0003700000000000000002000000000000000000000000FST                                         
022020070805099000013104200120CB000000000025CS0007955767970509900000013111200020CLDMOHE026020                                     SALVAGE HUNTERS: CLASSIC CARS (SEASON 2)SALVAGE HUNTERS: CLASSIC CARS (SEASON 2)0003700009120800000101000000000000000000000000SND                                         
022020070805099000013104200120CB000000000025CS9999999999990509900000013111200020SKYADSMART000                                     SALVAGE HUNTERS: CLASSIC CARS (SEASON 2)SALVAGE HUNTERS: CLASSIC CARS (SEASON 2)0003700000000000000002000000000000000000000000SND                                         
022020070805099000013104200120CB000000000025CS0007942415750509900000013113200060SCCRLPV602060                                     SALVAGE HUNTERS: CLASSIC CARS (SEASON 2)SALVAGE HUNTERS: CLASSIC CARS (SEASON 2)0003700009100430000201000000000000000000000000PEN                                         
022020070805099000013104200120CB000000000025CS9999999999990509900000013113200060SKYADSMART000                                     SALVAGE HUNTERS: CLASSIC CARS (SEASON 2)SALVAGE HUNTERS: CLASSIC CARS (SEASON 2)0003700000000000000002000000000000000000000000PEN                                         
022020070805099000013104200120CB000000000025CS0007955847330509900000013123200010RECBTCV001010                                     SALVAGE HUNTERS: CLASSIC CARS (SEASON 2)SALVAGE HUNTERS: CLASSIC CARS (SEASON 2)0003700000000000000001000000000000000000000000LST                                         
022020070805099000013104200120CB000000000025CS9999999999990509900000013123200010SKYADSMART000                                     SALVAGE HUNTERS: CLASSIC CARS (SEASON 2)SALVAGE HUNTERS: CLASSIC CARS (SEASON 2)0003700000000000000002000000000000000000000000LST                                         
022020070805099000013270800210CB000000000026CS0007955768100509900000013270800020CLDMOHE026020                                     SALVAGE HUNTERS: CLASSIC CARS (SEASON 2)SALVAGE HUNTERS: CLASSIC CARS (SEASON 2)0003700009120800000101000000000000000000000000FST                                         
022020070805099000013270800210CB000000000026CS9999999999990509900000013270800020SKYADSMART000                                     SALVAGE HUNTERS: CLASSIC CARS (SEASON 2)SALVAGE HUNTERS: CLASSIC CARS (SEASON 2)0003700000000000000002000000000000000000000000FST                                         
022020070805099000013270800210CB000000000026CS0007944667650509900000013272800060DTVCARC003060                                     SALVAGE HUNTERS: CLASSIC CARS (SEASON 2)SALVAGE HUNTERS: CLASSIC CARS (SEASON 2)0003700009115150000101000000000000000000000000SND                                         
022020070805099000013270800210CB000000000026CS9999999999990509900000013272800060SKYADSMART000                                     SALVAGE HUNTERS: CLASSIC CARS (SEASON 2)SALVAGE HUNTERS: CLASSIC CARS (SEASON 2)0003700000000000000002000000000000000000000000SND                                         
022020070805099000013270800210CB000000000026CS0007945370390509900000013282800030ATGWOCL235030                                     SALVAGE HUNTERS: CLASSIC CARS (SEASON 2)SALVAGE HUNTERS: CLASSIC CARS (SEASON 2)0003700009101800000101000000000000000000000000OTH                                         
022020070805099000013270800210CB000000000026CS9999999999990509900000013282800030SKYADSMART000                                     SALVAGE HUNTERS: CLASSIC CARS (SEASON 2)SALVAGE HUNTERS: CLASSIC CARS (SEASON 2)0003700000000000000002000000000000000000000000OTH                                         
022020070805099000013270800210CB000000000026CS0007942407730509900000013285800030GCHKNBF005030                                     SALVAGE HUNTERS: CLASSIC CARS (SEASON 2)SALVAGE HUNTERS: CLASSIC CARS (SEASON 2)0003700009093760000101000000000000000000000000OTH                                         
022020070805099000013270800210CB000000000026CS9999999999990509900000013285800030SKYADSMART000                                     SALVAGE HUNTERS: CLASSIC CARS (SEASON 2)SALVAGE HUNTERS: CLASSIC CARS (SEASON 2)0003700000000000000002000000000000000000000000OTH                                         
022020070805099000013270800210CB000000000026CS0007942352540509900000013292800030SSCDLHM037030                                     SALVAGE HUNTERS: CLASSIC CARS (SEASON 2)SALVAGE HUNTERS: CLASSIC CARS (SEASON 2)0003700009113050000101000000000000000000000000OTH                                         
022020070805099000013270800210CB000000000026CS9999999999990509900000013292800030SKYADSMART000                                     SALVAGE HUNTERS: CLASSIC CARS (SEASON 2)SALVAGE HUNTERS: CLASSIC CARS (SEASON 2)0003700000000000000002000000000000000000000000OTH                                         
022020070805099000013270800210CB000000000026CS0007955847430509900000013295800010RECBTCV001010                                     SALVAGE HUNTERS: CLASSIC CARS (SEASON 2)SALVAGE HUNTERS: CLASSIC CARS (SEASON 2)0003700000000000000001000000000000000000000000PEN                                         
022020070805099000013270800210CB000000000026CS9999999999990509900000013295800010SKYADSMART000                                     SALVAGE HUNTERS: CLASSIC CARS (SEASON 2)SALVAGE HUNTERS: CLASSIC CARS (SEASON 2)0003700000000000000002000000000000000000000000PEN                                         
022020070805099000013270800210CB000000000026CS0007932966300509900000013300800030HHPSLHS203030                                     SALVAGE HUNTERS: CLASSIC CARS (SEASON 2)SALVAGE HUNTERS: CLASSIC CARS (SEASON 2)0003700009101200000101000000000000000000000000LST                                         
022020070805099000013270800210CB000000000026CS9999999999990509900000013300800030SKYADSMART000                                     SALVAGE HUNTERS: CLASSIC CARS (SEASON 2)SALVAGE HUNTERS: CLASSIC CARS (SEASON 2)0003700000000000000002000000000000000000000000LST                                         
022020070805099000013441900270CB000000000027CS0007938690400509900000013441900020VCCTOSI361020                                     SALVAGE HUNTERS: CLASSIC CARS (SEASON 2)SALVAGE HUNTERS: CLASSIC CARS (SEASON 2)0003700009029750000301000000000000000000000000FST                                         
022020070805099000013441900270CB000000000027CS9999999999990509900000013441900020SKYADSMART000                                     SALVAGE HUNTERS: CLASSIC CARS (SEASON 2)SALVAGE HUNTERS: CLASSIC CARS (SEASON 2)0003700000000000000002000000000000000000000000FST                                         
022020070805099000013441900270CB000000000027CS0007942463120509900000013443900010BBHTCPD201010                                     SALVAGE HUNTERS: CLASSIC CARS (SEASON 2)SALVAGE HUNTERS: CLASSIC CARS (SEASON 2)0003700009089120000101000000000000000000000000SND                                         
022020070805099000013441900270CB000000000027CS9999999999990509900000013443900010SKYADSMART000                                     SALVAGE HUNTERS: CLASSIC CARS (SEASON 2)SALVAGE HUNTERS: CLASSIC CARS (SEASON 2)0003700000000000000002000000000000000000000000SND                                         
022020070805099000013441900270CB000000000027CS0007938690410509900000013444900030PFSLEGA005030                                     SALVAGE HUNTERS: CLASSIC CARS (SEASON 2)SALVAGE HUNTERS: CLASSIC CARS (SEASON 2)0003700000000000000001000000000000000000000000OTH                                         
022020070805099000013441900270CB000000000027CS9999999999990509900000013444900030SKYADSMART000                                     SALVAGE HUNTERS: CLASSIC CARS (SEASON 2)SALVAGE HUNTERS: CLASSIC CARS (SEASON 2)0003700000000000000002000000000000000000000000OTH                                         
022020070805099000013441900270CB000000000027CS0007944667260509900000013451900030MCMKEYR797030                                     SALVAGE HUNTERS: CLASSIC CARS (SEASON 2)SALVAGE HUNTERS: CLASSIC CARS (SEASON 2)0003700009101990000101000000000000000000000000OTH                                         
022020070805099000013441900270CB000000000027CS9999999999990509900000013451900030SKYADSMART000                                     SALVAGE HUNTERS: CLASSIC CARS (SEASON 2)SALVAGE HUNTERS: CLASSIC CARS (SEASON 2)0003700000000000000002000000000000000000000000OTH                                         
022020070805099000013441900270CB000000000027CS0007949999690509900000013454900030IRIHABR070030                                     SALVAGE HUNTERS: CLASSIC CARS (SEASON 2)SALVAGE HUNTERS: CLASSIC CARS (SEASON 2)0003700009108850000101000000000000000000000000OTH                                         
022020070805099000013441900270CB000000000027CS9999999999990509900000013454900030SKYADSMART000                                     SALVAGE HUNTERS: CLASSIC CARS (SEASON 2)SALVAGE HUNTERS: CLASSIC CARS (SEASON 2)0003700000000000000002000000000000000000000000OTH                                         
022020070805099000013441900270CB000000000027CS0007960474700509900000013461900020TGSITQB032020                                     SALVAGE HUNTERS: CLASSIC CARS (SEASON 2)SALVAGE HUNTERS: CLASSIC CARS (SEASON 2)0003700009158180000201000000000000000000000000OTH                                         
022020070805099000013441900270CB000000000027CS9999999999990509900000013461900020SKYADSMART000                                     SALVAGE HUNTERS: CLASSIC CARS (SEASON 2)SALVAGE HUNTERS: CLASSIC CARS (SEASON 2)0003700000000000000002000000000000000000000000OTH                                         
022020070805099000013441900270CB000000000027CS0007953092930509900000013463900010CHFSTUD789010                                     SALVAGE HUNTERS: CLASSIC CARS (SEASON 2)SALVAGE HUNTERS: CLASSIC CARS (SEASON 2)0003700009106330000101000000000000000000000000OTH                                         
022020070805099000013441900270CB000000000027CS9999999999990509900000013463900010SKYADSMART000                                     SALVAGE HUNTERS: CLASSIC CARS (SEASON 2)SALVAGE HUNTERS: CLASSIC CARS (SEASON 2)0003700000000000000002000000000000000000000000OTH                                         
022020070805099000013441900270CB000000000027CS0007942351170509900000013464900030SSCDLCA043030                                     SALVAGE HUNTERS: CLASSIC CARS (SEASON 2)SALVAGE HUNTERS: CLASSIC CARS (SEASON 2)0003700009113170000101000000000000000000000000OTH                                         
022020070805099000013441900270CB000000000027CS9999999999990509900000013464900030SKYADSMART000                                     SALVAGE HUNTERS: CLASSIC CARS (SEASON 2)SALVAGE HUNTERS: CLASSIC CARS (SEASON 2)0003700000000000000002000000000000000000000000OTH                                         
022020070805099000013441900270CB000000000027CS0007957940690509900000013471900030HIHHIHI011030                                     SALVAGE HUNTERS: CLASSIC CARS (SEASON 2)SALVAGE HUNTERS: CLASSIC CARS (SEASON 2)0003700009147700000101000000000000000000000000OTH                                         
022020070805099000013441900270CB000000000027CS9999999999990509900000013471900030SKYADSMART000                                     SALVAGE HUNTERS: CLASSIC CARS (SEASON 2)SALVAGE HUNTERS: CLASSIC CARS (SEASON 2)0003700000000000000002000000000000000000000000OTH                                         
022020070805099000013441900270CB000000000027CS0007960433440509900000013474900030WPPLAMB001030                                     SALVAGE HUNTERS: CLASSIC CARS (SEASON 2)SALVAGE HUNTERS: CLASSIC CARS (SEASON 2)0003700009158540000101000000000000000000000000PEN                                         
022020070805099000013441900270CB000000000027CS9999999999990509900000013474900030SKYADSMART000                                     SALVAGE HUNTERS: CLASSIC CARS (SEASON 2)SALVAGE HUNTERS: CLASSIC CARS (SEASON 2)0003700000000000000002000000000000000000000000PEN                                         
022020070805099000013441900270CB000000000027CS0007938690390509900000013481900030AMVMACM005030                                     SALVAGE HUNTERS: CLASSIC CARS (SEASON 2)SALVAGE HUNTERS: CLASSIC CARS (SEASON 2)0003700009076710000201000000000000000000000000LST                                         
022020070805099000013441900270CB000000000027CS9999999999990509900000013481900030SKYADSMART000                                     SALVAGE HUNTERS: CLASSIC CARS (SEASON 2)SALVAGE HUNTERS: CLASSIC CARS (SEASON 2)0003700000000000000002000000000000000000000000LST                                         
022020070805099000013574400120EB000000000028CS0007958190220509900000013574400030PPLPPLU016030                                     SALVAGE HUNTERS: CLASSIC CARS (SEASON 2)AUSSIE GOLD HUNTERS                     0003700009085800000101000000000000000000000000FST                                         
022020070805099000013574400120EB000000000028CS9999999999990509900000013574400030SKYADSMART000                                     SALVAGE HUNTERS: CLASSIC CARS (SEASON 2)AUSSIE GOLD HUNTERS                     0003700000000000000002000000000000000000000000FST                                         
022020070805099000013574400120EB000000000028CS0007932896880509900000013581400030GCHKNBF005030                                     SALVAGE HUNTERS: CLASSIC CARS (SEASON 2)AUSSIE GOLD HUNTERS                     0003700009093760000101000000000000000000000000SND                                         
022020070805099000013574400120EB000000000028CS9999999999990509900000013581400030SKYADSMART000                                     SALVAGE HUNTERS: CLASSIC CARS (SEASON 2)AUSSIE GOLD HUNTERS                     0003700000000000000002000000000000000000000000SND                                         
022020070805099000013574400120EB000000000028CS0007950469520509900000013584400030CKCSKHD158030                                     SALVAGE HUNTERS: CLASSIC CARS (SEASON 2)AUSSIE GOLD HUNTERS                     0003700008992910000101000000000000000000000000PEN                                         
022020070805099000013574400120EB000000000028CS9999999999990509900000013584400030SKYADSMART000                                     SALVAGE HUNTERS: CLASSIC CARS (SEASON 2)AUSSIE GOLD HUNTERS                     0003700000000000000002000000000000000000000000PEN                                         
022020070805099000013574400120EB000000000028CS0007950469530509900000013591400030MTZTPCI001030                                     SALVAGE HUNTERS: CLASSIC CARS (SEASON 2)AUSSIE GOLD HUNTERS                     0003700009108870000101000000000000000000000000LST                                         
022020070805099000013574400120EB000000000028CS9999999999990509900000013591400030SKYADSMART000                                     SALVAGE HUNTERS: CLASSIC CARS (SEASON 2)AUSSIE GOLD HUNTERS                     0003700000000000000002000000000000000000000000LST                                         
022020070805099000014130600120CB000000000029CS0007957682630509900000014130600060ANOCARE255060                                     AUSSIE GOLD HUNTERS                     AUSSIE GOLD HUNTERS                     0003700009113330000101000000000000000000000000FST                                         
022020070805099000014130600120CB000000000029CS9999999999990509900000014130600060SKYADSMART000                                     AUSSIE GOLD HUNTERS                     AUSSIE GOLD HUNTERS                     0003700000000000000002000000000000000000000000FST                                         
022020070805099000014130600120CB000000000029CS0007958763600509900000014140600030HCLALLB001030                                     AUSSIE GOLD HUNTERS                     AUSSIE GOLD HUNTERS                     0003700000000000000000000000000000000000000000SND                                         
022020070805099000014130600120CB000000000029CS0007933176160509900000014143600030PFSLEGA005030                                     AUSSIE GOLD HUNTERS                     AUSSIE GOLD HUNTERS                     0003700000000000000001000000000000000000000000LST                                         
022020070805099000014130600120CB000000000029CS9999999999990509900000014143600030SKYADSMART000                                     AUSSIE GOLD HUNTERS                     AUSSIE GOLD HUNTERS                     0003700000000000000002000000000000000000000000LST                                         
022020070805099000014251200210CB000000000030CS0007938705820509900000014251200020VCCTOSI361020                                     AUSSIE GOLD HUNTERS                     AUSSIE GOLD HUNTERS                     0003700009029750000301000000000000000000000000FST                                         
022020070805099000014251200210CB000000000030CS9999999999990509900000014251200020SKYADSMART000                                     AUSSIE GOLD HUNTERS                     AUSSIE GOLD HUNTERS                     0003700000000000000002000000000000000000000000FST                                         
022020070805099000014251200210CB000000000030CS0007948504680509900000014253200030BJLMMTR230030                                     AUSSIE GOLD HUNTERS                     AUSSIE GOLD HUNTERS                     0003700009119240000101000000000000000000000000SND                                         
022020070805099000014251200210CB000000000030CS9999999999990509900000014253200030SKYADSMART000                                     AUSSIE GOLD HUNTERS                     AUSSIE GOLD HUNTERS                     0003700000000000000002000000000000000000000000SND                                         
022020070805099000014251200210CB000000000030CS0007944667920509900000014260200030MCMKEYR796030                                     AUSSIE GOLD HUNTERS                     AUSSIE GOLD HUNTERS                     0003700009101990000101000000000000000000000000OTH                                         
022020070805099000014251200210CB000000000030CS9999999999990509900000014260200030SKYADSMART000                                     AUSSIE GOLD HUNTERS                     AUSSIE GOLD HUNTERS                     0003700000000000000002000000000000000000000000OTH                                         
022020070805099000014251200210CB000000000030CS0007942353230509900000014263200030SSCDLHM037030                                     AUSSIE GOLD HUNTERS                     AUSSIE GOLD HUNTERS                     0003700009113050000101000000000000000000000000OTH                                         
022020070805099000014251200210CB000000000030CS9999999999990509900000014263200030SKYADSMART000                                     AUSSIE GOLD HUNTERS                     AUSSIE GOLD HUNTERS                     0003700000000000000002000000000000000000000000OTH                                         
022020070805099000014251200210CB000000000030CS0007950877730509900000014270200020CLDMOHE026020                                     AUSSIE GOLD HUNTERS                     AUSSIE GOLD HUNTERS                     0003700009120800000101000000000000000000000000OTH                                         
022020070805099000014251200210CB000000000030CS9999999999990509900000014270200020SKYADSMART000                                     AUSSIE GOLD HUNTERS                     AUSSIE GOLD HUNTERS                     0003700000000000000002000000000000000000000000OTH                                         
022020070805099000014251200210CB000000000030CS0007960433480509900000014272200030WPPLAMB002030                                     AUSSIE GOLD HUNTERS                     AUSSIE GOLD HUNTERS                     0003700009158540000101000000000000000000000000OTH                                         
022020070805099000014251200210CB000000000030CS9999999999990509900000014272200030SKYADSMART000                                     AUSSIE GOLD HUNTERS                     AUSSIE GOLD HUNTERS                     0003700000000000000002000000000000000000000000OTH                                         
022020070805099000014251200210CB000000000030CS0007951181010509900000014275200030SCCTMGG001030                                     AUSSIE GOLD HUNTERS                     AUSSIE GOLD HUNTERS                     0003700009128350000101000000000000000000000000PEN                                         
022020070805099000014251200210CB000000000030CS9999999999990509900000014275200030SKYADSMART000                                     AUSSIE GOLD HUNTERS                     AUSSIE GOLD HUNTERS                     0003700000000000000002000000000000000000000000PEN                                         
022020070805099000014251200210CB000000000030CS0007932969530509900000014282200020HHPSLWP203020                                     AUSSIE GOLD HUNTERS                     AUSSIE GOLD HUNTERS                     0003700009101200000101000000000000000000000000LST                                         
022020070805099000014251200210CB000000000030CS9999999999990509900000014282200020SKYADSMART000                                     AUSSIE GOLD HUNTERS                     AUSSIE GOLD HUNTERS                     0003700000000000000002000000000000000000000000LST                                         
022020070805099000014402000270CB000000000031CS0007944659430509900000014402000030MCMKEYR796030                                     AUSSIE GOLD HUNTERS                     AUSSIE GOLD HUNTERS                     0003700009101940000101000000000000000000000000FST                                         
022020070805099000014402000270CB000000000031CS9999999999990509900000014402000030SKYADSMART000                                     AUSSIE GOLD HUNTERS                     AUSSIE GOLD HUNTERS                     0003700000000000000002000000000000000000000000FST                                         
022020070805099000014402000270CB000000000031CS0007945333070509900000014405000030JLNAMPR142030                                     AUSSIE GOLD HUNTERS                     AUSSIE GOLD HUNTERS                     0003700009115750000101000000000000000000000000SND                                         
022020070805099000014402000270CB000000000031CS9999999999990509900000014405000030SKYADSMART000                                     AUSSIE GOLD HUNTERS                     AUSSIE GOLD HUNTERS                     0003700000000000000002000000000000000000000000SND                                         
022020070805099000014402000270CB000000000031CS0007936271800509900000014412000020GUSTIDE014020                                     AUSSIE GOLD HUNTERS                     AUSSIE GOLD HUNTERS                     0003700009091150000501000000000000000000000000OTH                                         
022020070805099000014402000270CB000000000031CS9999999999990509900000014412000020SKYADSMART000                                     AUSSIE GOLD HUNTERS                     AUSSIE GOLD HUNTERS                     0003700000000000000002000000000000000000000000OTH                                         
022020070805099000014402000270CB000000000031CS0007945372540509900000014414000030ATGWOCL235030                                     AUSSIE GOLD HUNTERS                     AUSSIE GOLD HUNTERS                     0003700009101800000101000000000000000000000000OTH                                         
022020070805099000014402000270CB000000000031CS9999999999990509900000014414000030SKYADSMART000                                     AUSSIE GOLD HUNTERS                     AUSSIE GOLD HUNTERS                     0003700000000000000002000000000000000000000000OTH                                         
022020070805099000014402000270CB000000000031CS0007948504640509900000014421000030BJLMMTR230030                                     AUSSIE GOLD HUNTERS                     AUSSIE GOLD HUNTERS                     0003700009119240000101000000000000000000000000OTH                                         
022020070805099000014402000270CB000000000031CS9999999999990509900000014421000030SKYADSMART000                                     AUSSIE GOLD HUNTERS                     AUSSIE GOLD HUNTERS                     0003700000000000000002000000000000000000000000OTH                                         
022020070805099000014402000270CB000000000031CS0007949791930509900000014424000010CSJHSPD037010                                     AUSSIE GOLD HUNTERS                     AUSSIE GOLD HUNTERS                     0003700009123130000101000000000000000000000000OTH                                         
022020070805099000014402000270CB000000000031CS9999999999990509900000014424000010SKYADSMART000                                     AUSSIE GOLD HUNTERS                     AUSSIE GOLD HUNTERS                     0003700000000000000002000000000000000000000000OTH                                         
022020070805099000014402000270CB000000000031CS0007957579870509900000014425000030JLNUSWT025030                                     AUSSIE GOLD HUNTERS                     AUSSIE GOLD HUNTERS                     0003700009141340000101000000000000000000000000OTH                                         
022020070805099000014402000270CB000000000031CS9999999999990509900000014425000030SKYADSMART000                                     AUSSIE GOLD HUNTERS                     AUSSIE GOLD HUNTERS                     0003700000000000000002000000000000000000000000OTH                                         
022020070805099000014402000270CB000000000031CS0007950485230509900000014432000030MTZTPCI001030                                     AUSSIE GOLD HUNTERS                     AUSSIE GOLD HUNTERS                     0003700009108870000101000000000000000000000000OTH                                         
022020070805099000014402000270CB000000000031CS9999999999990509900000014432000030SKYADSMART000                                     AUSSIE GOLD HUNTERS                     AUSSIE GOLD HUNTERS                     0003700000000000000002000000000000000000000000OTH                                         
022020070805099000014402000270CB000000000031CS0007955549640509900000014435000030HHPSLPL109030                                     AUSSIE GOLD HUNTERS                     AUSSIE GOLD HUNTERS                     0003700009101200000101000000000000000000000000PEN                                         
022020070805099000014402000270CB000000000031CS9999999999990509900000014435000030SKYADSMART000                                     AUSSIE GOLD HUNTERS                     AUSSIE GOLD HUNTERS                     0003700000000000000002000000000000000000000000PEN                                         
022020070805099000014402000270CB000000000031CS0007942529280509900000014442000030ANOCARE254030                                     AUSSIE GOLD HUNTERS                     AUSSIE GOLD HUNTERS                     0003700009113140000201000000000000000000000000LST                                         
022020070805099000014402000270CB000000000031CS9999999999990509900000014442000030SKYADSMART000                                     AUSSIE GOLD HUNTERS                     AUSSIE GOLD HUNTERS                     0003700000000000000002000000000000000000000000LST                                         
022020070805099000014563900120EB000000000032CS0007932902540509900000014563900030GCHKNBF005030                                     AUSSIE GOLD HUNTERS                     DEADLIEST CATCH (SEASON 10)             0003700009093760000101000000000000000000000000FST                                         
022020070805099000014563900120EB000000000032CS9999999999990509900000014563900030SKYADSMART000                                     AUSSIE GOLD HUNTERS                     DEADLIEST CATCH (SEASON 10)             0003700000000000000002000000000000000000000000FST                                         
022020070805099000014563900120EB000000000032CS0007960437480509900000014570900030WPPLAMB001030                                     AUSSIE GOLD HUNTERS                     DEADLIEST CATCH (SEASON 10)             0003700009158540000101000000000000000000000000SND                                         
022020070805099000014563900120EB000000000032CS9999999999990509900000014570900030SKYADSMART000                                     AUSSIE GOLD HUNTERS                     DEADLIEST CATCH (SEASON 10)             0003700000000000000002000000000000000000000000SND                                         
022020070805099000014563900120EB000000000032CS0007957939700509900000014573900030HIHHIHI011030                                     AUSSIE GOLD HUNTERS                     DEADLIEST CATCH (SEASON 10)             0003700009147700000101000000000000000000000000PEN                                         
022020070805099000014563900120EB000000000032CS9999999999990509900000014573900030SKYADSMART000                                     AUSSIE GOLD HUNTERS                     DEADLIEST CATCH (SEASON 10)             0003700000000000000002000000000000000000000000PEN                                         
022020070805099000014563900120EB000000000032CS0007957579850509900000014580900030JLNUSWT025030                                     AUSSIE GOLD HUNTERS                     DEADLIEST CATCH (SEASON 10)             0003700009141340000101000000000000000000000000LST                                         
022020070805099000014563900120EB000000000032CS9999999999990509900000014580900030SKYADSMART000                                     AUSSIE GOLD HUNTERS                     DEADLIEST CATCH (SEASON 10)             0003700000000000000002000000000000000000000000LST                                         
022020070805099000015132800120CB000000000076CS0007950759560509900000015132800020GOCBRND069020                                     DEADLIEST CATCH (SEASON 10)             DEADLIEST CATCH (SEASON 10)             0003700009119470000201000000000000000000000000FST                                         
