00SKYPS01   05022021032606
01ATRB17022021
02150000SINGALONG Peppa Pig                                                   000000000SINGALONG Peppa Pig                               0000000000000    0502202131122099N
02150500Peppa Pig                                                             000000000Peppa Pig                                         0000000000000    0502202131122099N
02151500Peppa Pig                                                             000000000Peppa Pig                                         0000000000000    0502202131122099N
02152000Peppa Pig                                                             000000000Peppa Pig                                         0000000000000    0502202131122099N
02153000Peppa Pig                                                             000000000Peppa Pig                                         0000000000000    0502202131122099N
02153500Peppa Pig                                                             000000000Peppa Pig                                         0000000000000    0502202131122099N
02154500Peppa Pig                                                             000000000Peppa Pig                                         0000000000000    0502202131122099N
02155000Peppa Pig                                                             000000000Peppa Pig                                         0000000000000    0502202131122099N
02160000SINGALONG Peppa Pig                                                   000000000SINGALONG Peppa Pig                               0000000000000    0502202131122099N
02160500Peppa Pig                                                             000000000Peppa Pig                                         0000000000000    0502202131122099N
02161500Peppa Pig                                                             000000000Peppa Pig                                         0000000000000    0502202131122099N
02162000Peppa Pig                                                             000000000Peppa Pig                                         0000000000000    0502202131122099N
02163000Peppa Pig                                                             000000000Peppa Pig                                         0000000000000    0502202131122099N
02163500Peppa Pig                                                             000000000Peppa Pig                                         0000000000000    0502202131122099N
02164500Peppa Pig                                                             000000000Peppa Pig                                         0000000000000    0502202131122099N
02165000Peppa Pig                                                             000000000Peppa Pig                                         0000000000000    0502202131122099N
02170000SINGALONG Peppa Pig                                                   000000000SINGALONG Peppa Pig                               0000000000000    0502202131122099N
02170500Peppa Pig                                                             000000000Peppa Pig                                         0000000000000    0502202131122099N
02171500Peppa Pig                                                             000000000Peppa Pig                                         0000000000000    0502202131122099N
02172000Peppa Pig                                                             000000000Peppa Pig                                         0000000000000    0502202131122099N
02173000Peppa Pig                                                             000000000Peppa Pig                                         0000000000000    0502202131122099N
02173500Peppa Pig                                                             000000000Peppa Pig                                         0000000000000    0502202131122099N
02174500Peppa Pig                                                             000000000Peppa Pig                                         0000000000000    0502202131122099N
02175000Peppa Pig                                                             000000000Peppa Pig                                         0000000000000    0502202131122099N
02180000Peppa Pig                                                             000000000Peppa Pig                                         0000000000000    0502202131122099N
02180500Peppa Pig                                                             000000000Peppa Pig                                         0000000000000    0502202131122099N
02181500Peppa Pig                                                             000000000Peppa Pig                                         0000000000000    0502202131122099N
02182000Peppa Pig                                                             000000000Peppa Pig                                         0000000000000    0502202131122099N
02183000Peppa Pig                                                             000000000Peppa Pig                                         0000000000000    0502202131122099N
02183500Peppa Pig                                                             000000000Peppa Pig                                         0000000000000    0502202131122099N
02184500Peppa Pig                                                             000000000Peppa Pig                                         0000000000000    0502202131122099N
02185000Peppa Pig                                                             000000000Peppa Pig                                         0000000000000    0502202131122099N
02190000Peppa Pig                                                             000000000Peppa Pig                                         0000000000000    0502202131122099N
02190500Peppa Pig                                                             000000000Peppa Pig                                         0000000000000    0502202131122099N
02191500Peppa Pig                                                             000000000Peppa Pig                                         0000000000000    0502202131122099N
02192000Peppa Pig                                                             000000000Peppa Pig                                         0000000000000    0502202131122099N
02193000Peppa Pig                                                             000000000Peppa Pig                                         0000000000000    0502202131122099N
02193500Peppa Pig                                                             000000000Peppa Pig                                         0000000000000    0502202131122099N
02194500Peppa Pig                                                             000000000Peppa Pig                                         0000000000000    0502202131122099N
02195000Peppa Pig                                                             000000000Peppa Pig                                         0000000000000    0502202131122099N
02200000Peppa Pig                                                             000000000Peppa Pig                                         0000000000000    0502202131122099N
02200500Peppa Pig                                                             000000000Peppa Pig                                         0000000000000    0502202131122099N
02201500Peppa Pig                                                             000000000Peppa Pig                                         0000000000000    0502202131122099N
02202100Peppa Pig                                                             000000000Peppa Pig                                         0000000000000    0502202131122099N
02203000Peppa Pig                                                             000000000Peppa Pig                                         0000000000000    0502202131122099N
02203500Peppa Pig                                                             000000000Peppa Pig                                         0000000000000    0502202131122099N
02204500Peppa Pig                                                             000000000Peppa Pig                                         0000000000000    0502202131122099N
02205000Peppa Pig                                                             000000000Peppa Pig                                         0000000000000    0502202131122099N
02210000SINGALONG Peppa Pig                                                   000000000SINGALONG Peppa Pig                               0000000000000    0502202131122099N
02210500Peppa Pig                                                             000000000Peppa Pig                                         0000000000000    0502202131122099N
02211500Peppa Pig                                                             000000000Peppa Pig                                         0000000000000    0502202131122099N
02212000Peppa Pig                                                             000000000Peppa Pig                                         0000000000000    0502202131122099N
02213000Peppa Pig                                                             000000000Peppa Pig                                         0000000000000    0502202131122099N
02213500Peppa Pig                                                             000000000Peppa Pig                                         0000000000000    0502202131122099N
02214500Peppa Pig                                                             000000000Peppa Pig                                         0000000000000    0502202131122099N
02215000Peppa Pig                                                             000000000Peppa Pig                                         0000000000000    0502202131122099N
02220000SINGALONG Peppa Pig                                                   000000000SINGALONG Peppa Pig                               0000000000000    0502202131122099N
02220500Peppa Pig                                                             000000000Peppa Pig                                         0000000000000    0502202131122099N
02221500Peppa Pig                                                             000000000Peppa Pig                                         0000000000000    0502202131122099N
02222000Peppa Pig                                                             000000000Peppa Pig                                         0000000000000    0502202131122099N
02223000Peppa Pig                                                             000000000Peppa Pig                                         0000000000000    0502202131122099N
02223500Peppa Pig                                                             000000000Peppa Pig                                         0000000000000    0502202131122099N
02224500Peppa Pig                                                             000000000Peppa Pig                                         0000000000000    0502202131122099N
02225000Peppa Pig                                                             000000000Peppa Pig                                         0000000000000    0502202131122099N
02230000SINGALONG Peppa Pig                                                   000000000SINGALONG Peppa Pig                               0000000000000    0502202131122099N
02230500Peppa Pig                                                             000000000Peppa Pig                                         0000000000000    0502202131122099N
02231500Peppa Pig                                                             000000000Peppa Pig                                         0000000000000    0502202131122099N
02232000Peppa Pig                                                             000000000Peppa Pig                                         0000000000000    0502202131122099N
02233000Peppa Pig                                                             000000000Peppa Pig                                         0000000000000    0502202131122099N
02233500Peppa Pig                                                             000000000Peppa Pig                                         0000000000000    0502202131122099N
02234500Peppa Pig                                                             000000000Peppa Pig                                         0000000000000    0502202131122099N
02235000Peppa Pig                                                             000000000Peppa Pig                                         0000000000000    0502202131122099N
02240000Peppa Pig                                                             000000000Peppa Pig                                         0000000000000    0502202131122099N
02240500Peppa Pig                                                             000000000Peppa Pig                                         0000000000000    0502202131122099N
02241500Peppa Pig                                                             000000000Peppa Pig                                         0000000000000    0502202131122099N
02242000Peppa Pig                                                             000000000Peppa Pig                                         0000000000000    0502202131122099N
02243000Peppa Pig                                                             000000000Peppa Pig                                         0000000000000    0502202131122099N
02243500Peppa Pig                                                             000000000Peppa Pig                                         0000000000000    0502202131122099N
02244500Peppa Pig                                                             000000000Peppa Pig                                         0000000000000    0502202131122099N
02245000Peppa Pig                                                             000000000Peppa Pig                                         0000000000000    0502202131122099N
02250000Peppa Pig                                                             000000000Peppa Pig                                         0000000000000    0502202131122099N
02250500Peppa Pig                                                             000000000Peppa Pig                                         0000000000000    0502202131122099N
02251500Peppa Pig                                                             000000000Peppa Pig                                         0000000000000    0502202131122099N
02252000Peppa Pig                                                             000000000Peppa Pig                                         0000000000000    0502202131122099N
02253000Peppa Pig                                                             000000000Peppa Pig                                         0000000000000    0502202131122099N
02253500Peppa Pig                                                             000000000Peppa Pig                                         0000000000000    0502202131122099N
02254500Peppa Pig                                                             000000000Peppa Pig                                         0000000000000    0502202131122099N
02255000Peppa Pig                                                             000000000Peppa Pig                                         0000000000000    0502202131122099N
02260000Peppa Pig                                                             000000000Peppa Pig                                         0000000000000    0502202131122099N
02260500Peppa Pig                                                             000000000Peppa Pig                                         0000000000000    0502202131122099N
02261500Peppa Pig                                                             000000000Peppa Pig                                         0000000000000    0502202131122099N
02262000Peppa Pig                                                             000000000Peppa Pig                                         0000000000000    0502202131122099N
02263000Peppa Pig                                                             000000000Peppa Pig                                         0000000000000    0502202131122099N
02263500Peppa Pig                                                             000000000Peppa Pig                                         0000000000000    0502202131122099N
02264500Peppa Pig                                                             000000000Peppa Pig                                         0000000000000    0502202131122099N
02265000Peppa Pig                                                             000000000Peppa Pig                                         0000000000000    0502202131122099N
02270000Peppa Pig                                                             000000000Peppa Pig                                         0000000000000    0502202131122099N
02270500Peppa Pig                                                             000000000Peppa Pig                                         0000000000000    0502202131122099N
02271500Peppa Pig                                                             000000000Peppa Pig                                         0000000000000    0502202131122099N
02272000Peppa Pig                                                             000000000Peppa Pig                                         0000000000000    0502202131122099N
02273000Peppa Pig                                                             000000000Peppa Pig                                         0000000000000    0502202131122099N
02273500Peppa Pig                                                             000000000Peppa Pig                                         0000000000000    0502202131122099N
02274500Peppa Pig                                                             000000000Peppa Pig                                         0000000000000    0502202131122099N
02275000Peppa Pig                                                             000000000Peppa Pig                                         0000000000000    0502202131122099N
02280000Peppa Pig                                                             000000000Peppa Pig                                         0000000000000    0502202131122099N
02280500Peppa Pig                                                             000000000Peppa Pig                                         0000000000000    0502202131122099N
02281500Peppa Pig                                                             000000000Peppa Pig                                         0000000000000    0502202131122099N
02282000Peppa Pig                                                             000000000Peppa Pig                                         0000000000000    0502202131122099N
02283000Peppa Pig                                                             000000000Peppa Pig                                         0000000000000    0502202131122099N
02283500Peppa Pig                                                             000000000Peppa Pig                                         0000000000000    0502202131122099N
02284500Peppa Pig                                                             000000000Peppa Pig                                         0000000000000    0502202131122099N
02285000Peppa Pig                                                             000000000Peppa Pig                                         0000000000000    0502202131122099N
02290000Peppa Pig                                                             000000000Peppa Pig                                         0000000000000    0502202131122099N
02290500Peppa Pig                                                             000000000Peppa Pig                                         0000000000000    0502202131122099N
02291500Peppa Pig                                                             000000000Peppa Pig                                         0000000000000    0502202131122099N
02292000Peppa Pig                                                             000000000Peppa Pig                                         0000000000000    0502202131122099N
02293000Peppa Pig                                                             000000000Peppa Pig                                         0000000000000    0502202131122099N
02293500Peppa Pig                                                             000000000Peppa Pig                                         0000000000000    0502202131122099N
02294500Peppa Pig                                                             000000000Peppa Pig                                         0000000000000    0502202131122099N
02295000Peppa Pig                                                             000000000Peppa Pig                                         0000000000000    0502202131122099N
09ATRBATRB17022021000122
01ATRB18022021
02150000SINGALONG Peppa Pig                                                   000000000SINGALONG Peppa Pig                               0000000000000    0502202131122099N
02150500Peppa Pig                                                             000000000Peppa Pig                                         0000000000000    0502202131122099N
02151500Peppa Pig                                                             000000000Peppa Pig                                         0000000000000    0502202131122099N
02152000Peppa Pig                                                             000000000Peppa Pig                                         0000000000000    0502202131122099N
02153000Peppa Pig                                                             000000000Peppa Pig                                         0000000000000    0502202131122099N
02153500Peppa Pig                                                             000000000Peppa Pig                                         0000000000000    0502202131122099N
02154500Peppa Pig                                                             000000000Peppa Pig                                         0000000000000    0502202131122099N
02155000Peppa Pig                                                             000000000Peppa Pig                                         0000000000000    0502202131122099N
02160000SINGALONG Peppa Pig                                                   000000000SINGALONG Peppa Pig                               0000000000000    0502202131122099N
02160500Peppa Pig                                                             000000000Peppa Pig                                         0000000000000    0502202131122099N
02161500Peppa Pig                                                             000000000Peppa Pig                                         0000000000000    0502202131122099N
02162000Peppa Pig                                                             000000000Peppa Pig                                         0000000000000    0502202131122099N
02163000Peppa Pig                                                             000000000Peppa Pig                                         0000000000000    0502202131122099N
02163500Peppa Pig                                                             000000000Peppa Pig                                         0000000000000    0502202131122099N
02164500Peppa Pig                                                             000000000Peppa Pig                                         0000000000000    0502202131122099N
02165000Peppa Pig                                                             000000000Peppa Pig                                         0000000000000    0502202131122099N
02170000SINGALONG Peppa Pig                                                   000000000SINGALONG Peppa Pig                               0000000000000    0502202131122099N
02170500Peppa Pig                                                             000000000Peppa Pig                                         0000000000000    0502202131122099N
02171500Peppa Pig                                                             000000000Peppa Pig                                         0000000000000    0502202131122099N
02172000Peppa Pig                                                             000000000Peppa Pig                                         0000000000000    0502202131122099N
02173000Peppa Pig                                                             000000000Peppa Pig                                         0000000000000    0502202131122099N
02173500Peppa Pig                                                             000000000Peppa Pig                                         0000000000000    0502202131122099N
02174500Peppa Pig                                                             000000000Peppa Pig                                         0000000000000    0502202131122099N
02175000Peppa Pig                                                             000000000Peppa Pig                                         0000000000000    0502202131122099N
02180000Peppa Pig                                                             000000000Peppa Pig                                         0000000000000    0502202131122099N
02180500Peppa Pig                                                             000000000Peppa Pig                                         0000000000000    0502202131122099N
02181500Peppa Pig                                                             000000000Peppa Pig                                         0000000000000    0502202131122099N
02182000Peppa Pig                                                             000000000Peppa Pig                                         0000000000000    0502202131122099N
02183000Peppa Pig                                                             000000000Peppa Pig                                         0000000000000    0502202131122099N
02183500Peppa Pig                                                             000000000Peppa Pig                                         0000000000000    0502202131122099N
02184500Peppa Pig                                                             000000000Peppa Pig                                         0000000000000    0502202131122099N
02185000Peppa Pig                                                             000000000Peppa Pig                                         0000000000000    0502202131122099N
02190000Peppa Pig                                                             000000000Peppa Pig                                         0000000000000    0502202131122099N
02190500Peppa Pig                                                             000000000Peppa Pig                                         0000000000000    0502202131122099N
02191500Peppa Pig                                                             000000000Peppa Pig                                         0000000000000    0502202131122099N
02192000Peppa Pig                                                             000000000Peppa Pig                                         0000000000000    0502202131122099N
02193000Peppa Pig                                                             000000000Peppa Pig                                         0000000000000    0502202131122099N
02193500Peppa Pig                                                             000000000Peppa Pig                                         0000000000000    0502202131122099N
02194500Peppa Pig                                                             000000000Peppa Pig                                         0000000000000    0502202131122099N
02195000Peppa Pig                                                             000000000Peppa Pig                                         0000000000000    0502202131122099N
02200000Peppa Pig                                                             000000000Peppa Pig                                         0000000000000    0502202131122099N
02200500Peppa Pig                                                             000000000Peppa Pig                                         0000000000000    0502202131122099N
02201500Peppa Pig                                                             000000000Peppa Pig                                         0000000000000    0502202131122099N
02202100Peppa Pig                                                             000000000Peppa Pig                                         0000000000000    0502202131122099N
02203000Peppa Pig                                                             000000000Peppa Pig                                         0000000000000    0502202131122099N
02203500Peppa Pig                                                             000000000Peppa Pig                                         0000000000000    0502202131122099N
02204500Peppa Pig                                                             000000000Peppa Pig                                         0000000000000    0502202131122099N
02205000Peppa Pig                                                             000000000Peppa Pig                                         0000000000000    0502202131122099N
02210000SINGALONG Peppa Pig                                                   000000000SINGALONG Peppa Pig                               0000000000000    0502202131122099N
02210500Peppa Pig                                                             000000000Peppa Pig                                         0000000000000    0502202131122099N
02211500Peppa Pig                                                             000000000Peppa Pig                                         0000000000000    0502202131122099N
02212000Peppa Pig                                                             000000000Peppa Pig                                         0000000000000    0502202131122099N
02213000Peppa Pig                                                             000000000Peppa Pig                                         0000000000000    0502202131122099N
02213500Peppa Pig                                                             000000000Peppa Pig                                         0000000000000    0502202131122099N
02214500Peppa Pig                                                             000000000Peppa Pig                                         0000000000000    0502202131122099N
02215000Peppa Pig                                                             000000000Peppa Pig                                         0000000000000    0502202131122099N
02220000SINGALONG Peppa Pig                                                   000000000SINGALONG Peppa Pig                               0000000000000    0502202131122099N
02220500Peppa Pig                                                             000000000Peppa Pig                                         0000000000000    0502202131122099N
02221500Peppa Pig                                                             000000000Peppa Pig                                         0000000000000    0502202131122099N
02222000Peppa Pig                                                             000000000Peppa Pig                                         0000000000000    0502202131122099N
02223000Peppa Pig                                                             000000000Peppa Pig                                         0000000000000    0502202131122099N
02223500Peppa Pig                                                             000000000Peppa Pig                                         0000000000000    0502202131122099N
02224500Peppa Pig                                                             000000000Peppa Pig                                         0000000000000    0502202131122099N
02225000Peppa Pig                                                             000000000Peppa Pig                                         0000000000000    0502202131122099N
02230000SINGALONG Peppa Pig                                                   000000000SINGALONG Peppa Pig                               0000000000000    0502202131122099N
02230500Peppa Pig                                                             000000000Peppa Pig                                         0000000000000    0502202131122099N
02231500Peppa Pig                                                             000000000Peppa Pig                                         0000000000000    0502202131122099N
02232000Peppa Pig                                                             000000000Peppa Pig                                         0000000000000    0502202131122099N
02233000Peppa Pig                                                             000000000Peppa Pig                                         0000000000000    0502202131122099N
02233500Peppa Pig                                                             000000000Peppa Pig                                         0000000000000    0502202131122099N
02234500Peppa Pig                                                             000000000Peppa Pig                                         0000000000000    0502202131122099N
02235000Peppa Pig                                                             000000000Peppa Pig                                         0000000000000    0502202131122099N
02240000Peppa Pig                                                             000000000Peppa Pig                                         0000000000000    0502202131122099N
02240500Peppa Pig                                                             000000000Peppa Pig                                         0000000000000    0502202131122099N
02241500Peppa Pig                                                             000000000Peppa Pig                                         0000000000000    0502202131122099N
02242000Peppa Pig                                                             000000000Peppa Pig                                         0000000000000    0502202131122099N
02243000Peppa Pig                                                             000000000Peppa Pig                                         0000000000000    0502202131122099N
02243500Peppa Pig                                                             000000000Peppa Pig                                         0000000000000    0502202131122099N
02244500Peppa Pig                                                             000000000Peppa Pig                                         0000000000000    0502202131122099N
02245000Peppa Pig                                                             000000000Peppa Pig                                         0000000000000    0502202131122099N
02250000Peppa Pig                                                             000000000Peppa Pig                                         0000000000000    0502202131122099N
02250500Peppa Pig                                                             000000000Peppa Pig                                         0000000000000    0502202131122099N
02251500Peppa Pig                                                             000000000Peppa Pig                                         0000000000000    0502202131122099N
02252000Peppa Pig                                                             000000000Peppa Pig                                         0000000000000    0502202131122099N
02253000Peppa Pig                                                             000000000Peppa Pig                                         0000000000000    0502202131122099N
02253500Peppa Pig                                                             000000000Peppa Pig                                         0000000000000    0502202131122099N
02254500Peppa Pig                                                             000000000Peppa Pig                                         0000000000000    0502202131122099N
02255000Peppa Pig                                                             000000000Peppa Pig                                         0000000000000    0502202131122099N
02260000Peppa Pig                                                             000000000Peppa Pig                                         0000000000000    0502202131122099N
02260500Peppa Pig                                                             000000000Peppa Pig                                         0000000000000    0502202131122099N
02261500Peppa Pig                                                             000000000Peppa Pig                                         0000000000000    0502202131122099N
02262000Peppa Pig                                                             000000000Peppa Pig                                         0000000000000    0502202131122099N
02263000Peppa Pig                                                             000000000Peppa Pig                                         0000000000000    0502202131122099N
02263500Peppa Pig                                                             000000000Peppa Pig                                         0000000000000    0502202131122099N
02264500Peppa Pig                                                             000000000Peppa Pig                                         0000000000000    0502202131122099N
02265000Peppa Pig                                                             000000000Peppa Pig                                         0000000000000    0502202131122099N
02270000Peppa Pig                                                             000000000Peppa Pig                                         0000000000000    0502202131122099N
02270500Peppa Pig                                                             000000000Peppa Pig                                         0000000000000    0502202131122099N
02271500Peppa Pig                                                             000000000Peppa Pig                                         0000000000000    0502202131122099N
02272000Peppa Pig                                                             000000000Peppa Pig                                         0000000000000    0502202131122099N
02273000Peppa Pig                                                             000000000Peppa Pig                                         0000000000000    0502202131122099N
02273500Peppa Pig                                                             000000000Peppa Pig                                         0000000000000    0502202131122099N
02274500Peppa Pig                                                             000000000Peppa Pig                                         0000000000000    0502202131122099N
02275000Peppa Pig                                                             000000000Peppa Pig                                         0000000000000    0502202131122099N
02280000Peppa Pig                                                             000000000Peppa Pig                                         0000000000000    0502202131122099N
02280500Peppa Pig                                                             000000000Peppa Pig                                         0000000000000    0502202131122099N
02281500Peppa Pig                                                             000000000Peppa Pig                                         0000000000000    0502202131122099N
02282000Peppa Pig                                                             000000000Peppa Pig                                         0000000000000    0502202131122099N
02283000Peppa Pig                                                             000000000Peppa Pig                                         0000000000000    0502202131122099N
02283500Peppa Pig                                                             000000000Peppa Pig                                         0000000000000    0502202131122099N
02284500Peppa Pig                                                             000000000Peppa Pig                                         0000000000000    0502202131122099N
02285000Peppa Pig                                                             000000000Peppa Pig                                         0000000000000    0502202131122099N
02290000Peppa Pig                                                             000000000Peppa Pig                                         0000000000000    0502202131122099N
02290500Peppa Pig                                                             000000000Peppa Pig                                         0000000000000    0502202131122099N
02291500Peppa Pig                                                             000000000Peppa Pig                                         0000000000000    0502202131122099N
02292000Peppa Pig                                                             000000000Peppa Pig                                         0000000000000    0502202131122099N
02293000Peppa Pig                                                             000000000Peppa Pig                                         0000000000000    0502202131122099N
02293500Peppa Pig                                                             000000000Peppa Pig                                         0000000000000    0502202131122099N
02294500Peppa Pig                                                             000000000Peppa Pig                                         0000000000000    0502202131122099N
02295000Peppa Pig                                                             000000000Peppa Pig                                         0000000000000    0502202131122099N
09ATRBATRB18022021000122
01ATRB19022021
02150000SINGALONG Peppa Pig                                                   000000000SINGALONG Peppa Pig                               0000000000000    0502202131122099N
02150500Peppa Pig                                                             000000000Peppa Pig                                         0000000000000    0502202131122099N
02151500Peppa Pig                                                             000000000Peppa Pig                                         0000000000000    0502202131122099N
02152000Peppa Pig                                                             000000000Peppa Pig                                         0000000000000    0502202131122099N
02153000Peppa Pig                                                             000000000Peppa Pig                                         0000000000000    0502202131122099N
02153500Peppa Pig                                                             000000000Peppa Pig                                         0000000000000    0502202131122099N
02154500Peppa Pig                                                             000000000Peppa Pig                                         0000000000000    0502202131122099N
02155000Peppa Pig                                                             000000000Peppa Pig                                         0000000000000    0502202131122099N
02160000SINGALONG Peppa Pig                                                   000000000SINGALONG Peppa Pig                               0000000000000    0502202131122099N
02160500Peppa Pig                                                             000000000Peppa Pig                                         0000000000000    0502202131122099N
02161500Peppa Pig                                                             000000000Peppa Pig                                         0000000000000    0502202131122099N
02162000Peppa Pig                                                             000000000Peppa Pig                                         0000000000000    0502202131122099N
02163000Peppa Pig                                                             000000000Peppa Pig                                         0000000000000    0502202131122099N
02163500Peppa Pig                                                             000000000Peppa Pig                                         0000000000000    0502202131122099N
02164500Peppa Pig                                                             000000000Peppa Pig                                         0000000000000    0502202131122099N
02165000Peppa Pig                                                             000000000Peppa Pig                                         0000000000000    0502202131122099N
02170000SINGALONG Peppa Pig                                                   000000000SINGALONG Peppa Pig                               0000000000000    0502202131122099N
02170500Peppa Pig                                                             000000000Peppa Pig                                         0000000000000    0502202131122099N
02171500Peppa Pig                                                             000000000Peppa Pig                                         0000000000000    0502202131122099N
02172000Peppa Pig                                                             000000000Peppa Pig                                         0000000000000    0502202131122099N
02173000Peppa Pig                                                             000000000Peppa Pig                                         0000000000000    0502202131122099N
02173500Peppa Pig                                                             000000000Peppa Pig                                         0000000000000    0502202131122099N
02174500Peppa Pig                                                             000000000Peppa Pig                                         0000000000000    0502202131122099N
02175000Peppa Pig                                                             000000000Peppa Pig                                         0000000000000    0502202131122099N
02180000Peppa Pig                                                             000000000Peppa Pig                                         0000000000000    0502202131122099N
02180500Peppa Pig                                                             000000000Peppa Pig                                         0000000000000    0502202131122099N
02181500Peppa Pig                                                             000000000Peppa Pig                                         0000000000000    0502202131122099N
02182000Peppa Pig                                                             000000000Peppa Pig                                         0000000000000    0502202131122099N
02183000Peppa Pig                                                             000000000Peppa Pig                                         0000000000000    0502202131122099N
02183500Peppa Pig                                                             000000000Peppa Pig                                         0000000000000    0502202131122099N
02184500Peppa Pig                                                             000000000Peppa Pig                                         0000000000000    0502202131122099N
02185000Peppa Pig                                                             000000000Peppa Pig                                         0000000000000    0502202131122099N
02190000Peppa Pig                                                             000000000Peppa Pig                                         0000000000000    0502202131122099N
02190500Peppa Pig                                                             000000000Peppa Pig                                         0000000000000    0502202131122099N
02191500Peppa Pig                                                             000000000Peppa Pig                                         0000000000000    0502202131122099N
02192000Peppa Pig                                                             000000000Peppa Pig                                         0000000000000    0502202131122099N
02193000Peppa Pig                                                             000000000Peppa Pig                                         0000000000000    0502202131122099N
02193500Peppa Pig                                                             000000000Peppa Pig                                         0000000000000    0502202131122099N
02194500Peppa Pig                                                             000000000Peppa Pig                                         0000000000000    0502202131122099N
02195000Peppa Pig                                                             000000000Peppa Pig                                         0000000000000    0502202131122099N
02200000Peppa Pig                                                             000000000Peppa Pig                                         0000000000000    0502202131122099N
02200500Peppa Pig                                                             000000000Peppa Pig                                         0000000000000    0502202131122099N
02201500Peppa Pig                                                             000000000Peppa Pig                                         0000000000000    0502202131122099N
02202100Peppa Pig                                                             000000000Peppa Pig                                         0000000000000    0502202131122099N
02203000Peppa Pig                                                             000000000Peppa Pig                                         0000000000000    0502202131122099N
02203500Peppa Pig                                                             000000000Peppa Pig                                         0000000000000    0502202131122099N
02204500Peppa Pig                                                             000000000Peppa Pig                                         0000000000000    0502202131122099N
02205000Peppa Pig                                                             000000000Peppa Pig                                         0000000000000    0502202131122099N
02210000SINGALONG Peppa Pig                                                   000000000SINGALONG Peppa Pig                               0000000000000    0502202131122099N
02210500Peppa Pig                                                             000000000Peppa Pig                                         0000000000000    0502202131122099N
02211500Peppa Pig                                                             000000000Peppa Pig                                         0000000000000    0502202131122099N
02212000Peppa Pig                                                             000000000Peppa Pig                                         0000000000000    0502202131122099N
02213000Peppa Pig                                                             000000000Peppa Pig                                         0000000000000    0502202131122099N
02213500Peppa Pig                                                             000000000Peppa Pig                                         0000000000000    0502202131122099N
02214500Peppa Pig                                                             000000000Peppa Pig                                         0000000000000    0502202131122099N
02215000Peppa Pig                                                             000000000Peppa Pig                                         0000000000000    0502202131122099N
02220000SINGALONG Peppa Pig                                                   000000000SINGALONG Peppa Pig                               0000000000000    0502202131122099N
02220500Peppa Pig                                                             000000000Peppa Pig                                         0000000000000    0502202131122099N
02221500Peppa Pig                                                             000000000Peppa Pig                                         0000000000000    0502202131122099N
02222000Peppa Pig                                                             000000000Peppa Pig                                         0000000000000    0502202131122099N
02223000Peppa Pig                                                             000000000Peppa Pig                                         0000000000000    0502202131122099N
02223500Peppa Pig                                                             000000000Peppa Pig                                         0000000000000    0502202131122099N
02224500Peppa Pig                                                             000000000Peppa Pig                                         0000000000000    0502202131122099N
02225000Peppa Pig                                                             000000000Peppa Pig                                         0000000000000    0502202131122099N
02230000SINGALONG Peppa Pig                                                   000000000SINGALONG Peppa Pig                               0000000000000    0502202131122099N
02230500Peppa Pig                                                             000000000Peppa Pig                                         0000000000000    0502202131122099N
02231500Peppa Pig                                                             000000000Peppa Pig                                         0000000000000    0502202131122099N
02232000Peppa Pig                                                             000000000Peppa Pig                                         0000000000000    0502202131122099N
02233000Peppa Pig                                                             000000000Peppa Pig                                         0000000000000    0502202131122099N
02233500Peppa Pig                                                             000000000Peppa Pig                                         0000000000000    0502202131122099N
02234500Peppa Pig                                                             000000000Peppa Pig                                         0000000000000    0502202131122099N
02235000Peppa Pig                                                             000000000Peppa Pig                                         0000000000000    0502202131122099N
02240000Peppa Pig                                                             000000000Peppa Pig                                         0000000000000    0502202131122099N
02240500Peppa Pig                                                             000000000Peppa Pig                                         0000000000000    0502202131122099N
02241500Peppa Pig                                                             000000000Peppa Pig                                         0000000000000    0502202131122099N
02242000Peppa Pig                                                             000000000Peppa Pig                                         0000000000000    0502202131122099N
02243000Peppa Pig                                                             000000000Peppa Pig                                         0000000000000    0502202131122099N
02243500Peppa Pig                                                             000000000Peppa Pig                                         0000000000000    0502202131122099N
02244500Peppa Pig                                                             000000000Peppa Pig                                         0000000000000    0502202131122099N
02245000Peppa Pig                                                             000000000Peppa Pig                                         0000000000000    0502202131122099N
02250000Peppa Pig                                                             000000000Peppa Pig                                         0000000000000    0502202131122099N
02250500Peppa Pig                                                             000000000Peppa Pig                                         0000000000000    0502202131122099N
02251500Peppa Pig                                                             000000000Peppa Pig                                         0000000000000    0502202131122099N
02252000Peppa Pig                                                             000000000Peppa Pig                                         0000000000000    0502202131122099N
02253000Peppa Pig                                                             000000000Peppa Pig                                         0000000000000    0502202131122099N
02253500Peppa Pig                                                             000000000Peppa Pig                                         0000000000000    0502202131122099N
02254500Peppa Pig                                                             000000000Peppa Pig                                         0000000000000    0502202131122099N
02255000Peppa Pig                                                             000000000Peppa Pig                                         0000000000000    0502202131122099N
02260000Peppa Pig                                                             000000000Peppa Pig                                         0000000000000    0502202131122099N
02260500Peppa Pig                                                             000000000Peppa Pig                                         0000000000000    0502202131122099N
02261500Peppa Pig                                                             000000000Peppa Pig                                         0000000000000    0502202131122099N
02262000Peppa Pig                                                             000000000Peppa Pig                                         0000000000000    0502202131122099N
02263000Peppa Pig                                                             000000000Peppa Pig                                         0000000000000    0502202131122099N
02263500Peppa Pig                                                             000000000Peppa Pig                                         0000000000000    0502202131122099N
02264500Peppa Pig                                                             000000000Peppa Pig                                         0000000000000    0502202131122099N
02265000Peppa Pig                                                             000000000Peppa Pig                                         0000000000000    0502202131122099N
02270000Peppa Pig                                                             000000000Peppa Pig                                         0000000000000    0502202131122099N
02270500Peppa Pig                                                             000000000Peppa Pig                                         0000000000000    0502202131122099N
02271500Peppa Pig                                                             000000000Peppa Pig                                         0000000000000    0502202131122099N
02272000Peppa Pig                                                             000000000Peppa Pig                                         0000000000000    0502202131122099N
02273000Peppa Pig                                                             000000000Peppa Pig                                         0000000000000    0502202131122099N
02273500Peppa Pig                                                             000000000Peppa Pig                                         0000000000000    0502202131122099N
02274500Peppa Pig                                                             000000000Peppa Pig                                         0000000000000    0502202131122099N
02275000Peppa Pig                                                             000000000Peppa Pig                                         0000000000000    0502202131122099N
02280000Peppa Pig                                                             000000000Peppa Pig                                         0000000000000    0502202131122099N
02280500Peppa Pig                                                             000000000Peppa Pig                                         0000000000000    0502202131122099N
02281500Peppa Pig                                                             000000000Peppa Pig                                         0000000000000    0502202131122099N
02282000Peppa Pig                                                             000000000Peppa Pig                                         0000000000000    0502202131122099N
02283000Peppa Pig                                                             000000000Peppa Pig                                         0000000000000    0502202131122099N
02283500Peppa Pig                                                             000000000Peppa Pig                                         0000000000000    0502202131122099N
02284500Peppa Pig                                                             000000000Peppa Pig                                         0000000000000    0502202131122099N
02285000Peppa Pig                                                             000000000Peppa Pig                                         0000000000000    0502202131122099N
02290000Peppa Pig                                                             000000000Peppa Pig                                         0000000000000    0502202131122099N
02290500Peppa Pig                                                             000000000Peppa Pig                                         0000000000000    0502202131122099N
02291500Peppa Pig                                                             000000000Peppa Pig                                         0000000000000    0502202131122099N
02292000Peppa Pig                                                             000000000Peppa Pig                                         0000000000000    0502202131122099N
02293000Peppa Pig                                                             000000000Peppa Pig                                         0000000000000    0502202131122099N
02293500Peppa Pig                                                             000000000Peppa Pig                                         0000000000000    0502202131122099N
02294500Peppa Pig                                                             000000000Peppa Pig                                         0000000000000    0502202131122099N
02295000Peppa Pig                                                             000000000Peppa Pig                                         0000000000000    0502202131122099N
09ATRBATRB19022021000122
01ATRB20022021
02150000SINGALONG Peppa Pig                                                   000000000SINGALONG Peppa Pig                               0000000000000    0502202131122099N
02150500Peppa Pig                                                             000000000Peppa Pig                                         0000000000000    0502202131122099N
02151500Peppa Pig                                                             000000000Peppa Pig                                         0000000000000    0502202131122099N
02152000Peppa Pig                                                             000000000Peppa Pig                                         0000000000000    0502202131122099N
02153000Peppa Pig                                                             000000000Peppa Pig                                         0000000000000    0502202131122099N
02153500Peppa Pig                                                             000000000Peppa Pig                                         0000000000000    0502202131122099N
02154500Peppa Pig                                                             000000000Peppa Pig                                         0000000000000    0502202131122099N
02155000Peppa Pig                                                             000000000Peppa Pig                                         0000000000000    0502202131122099N
02160000SINGALONG Peppa Pig                                                   000000000SINGALONG Peppa Pig                               0000000000000    0502202131122099N
02160500Peppa Pig                                                             000000000Peppa Pig                                         0000000000000    0502202131122099N
02161500Peppa Pig                                                             000000000Peppa Pig                                         0000000000000    0502202131122099N
02162000Peppa Pig                                                             000000000Peppa Pig                                         0000000000000    0502202131122099N
02163000Peppa Pig                                                             000000000Peppa Pig                                         0000000000000    0502202131122099N
02163500Peppa Pig                                                             000000000Peppa Pig                                         0000000000000    0502202131122099N
02164500Peppa Pig                                                             000000000Peppa Pig                                         0000000000000    0502202131122099N
02165000Peppa Pig                                                             000000000Peppa Pig                                         0000000000000    0502202131122099N
02170000SINGALONG Peppa Pig                                                   000000000SINGALONG Peppa Pig                               0000000000000    0502202131122099N
02170500Peppa Pig                                                             000000000Peppa Pig                                         0000000000000    0502202131122099N
02171500Peppa Pig                                                             000000000Peppa Pig                                         0000000000000    0502202131122099N
02172000Peppa Pig                                                             000000000Peppa Pig                                         0000000000000    0502202131122099N
02173000Peppa Pig                                                             000000000Peppa Pig                                         0000000000000    0502202131122099N
02173500Peppa Pig                                                             000000000Peppa Pig                                         0000000000000    0502202131122099N
02174500Peppa Pig                                                             000000000Peppa Pig                                         0000000000000    0502202131122099N
02175000Peppa Pig                                                             000000000Peppa Pig                                         0000000000000    0502202131122099N
02180000Peppa Pig                                                             000000000Peppa Pig                                         0000000000000    0502202131122099N
02180500Peppa Pig                                                             000000000Peppa Pig                                         0000000000000    0502202131122099N
02181500Peppa Pig                                                             000000000Peppa Pig                                         0000000000000    0502202131122099N
02182000Peppa Pig                                                             000000000Peppa Pig                                         0000000000000    0502202131122099N
02183000Peppa Pig                                                             000000000Peppa Pig                                         0000000000000    0502202131122099N
02183500Peppa Pig                                                             000000000Peppa Pig                                         0000000000000    0502202131122099N
02184500Peppa Pig                                                             000000000Peppa Pig                                         0000000000000    0502202131122099N
02185000Peppa Pig                                                             000000000Peppa Pig                                         0000000000000    0502202131122099N
02190000Peppa Pig                                                             000000000Peppa Pig                                         0000000000000    0502202131122099N
02190500Peppa Pig                                                             000000000Peppa Pig                                         0000000000000    0502202131122099N
02191500Peppa Pig                                                             000000000Peppa Pig                                         0000000000000    0502202131122099N
02192000Peppa Pig                                                             000000000Peppa Pig                                         0000000000000    0502202131122099N
02193000Peppa Pig                                                             000000000Peppa Pig                                         0000000000000    0502202131122099N
02193500Peppa Pig                                                             000000000Peppa Pig                                         0000000000000    0502202131122099N
02194500Peppa Pig                                                             000000000Peppa Pig                                         0000000000000    0502202131122099N
02195000Peppa Pig                                                             000000000Peppa Pig                                         0000000000000    0502202131122099N
02200000Peppa Pig                                                             000000000Peppa Pig                                         0000000000000    0502202131122099N
02200500Peppa Pig                                                             000000000Peppa Pig                                         0000000000000    0502202131122099N
02201500Peppa Pig                                                             000000000Peppa Pig                                         0000000000000    0502202131122099N
02202100Peppa Pig                                                             000000000Peppa Pig                                         0000000000000    0502202131122099N
02203000Peppa Pig                                                             000000000Peppa Pig                                         0000000000000    0502202131122099N
02203500Peppa Pig                                                             000000000Peppa Pig                                         0000000000000    0502202131122099N
02204500Peppa Pig                                                             000000000Peppa Pig                                         0000000000000    0502202131122099N
02205000Peppa Pig                                                             000000000Peppa Pig                                         0000000000000    0502202131122099N
02210000SINGALONG Peppa Pig                                                   000000000SINGALONG Peppa Pig                               0000000000000    0502202131122099N
02210500Peppa Pig                                                             000000000Peppa Pig                                         0000000000000    0502202131122099N
02211500Peppa Pig                                                             000000000Peppa Pig                                         0000000000000    0502202131122099N
02212000Peppa Pig                                                             000000000Peppa Pig                                         0000000000000    0502202131122099N
02213000Peppa Pig                                                             000000000Peppa Pig                                         0000000000000    0502202131122099N
02213500Peppa Pig                                                             000000000Peppa Pig                                         0000000000000    0502202131122099N
02214500Peppa Pig                                                             000000000Peppa Pig                                         0000000000000    0502202131122099N
02215000Peppa Pig                                                             000000000Peppa Pig                                         0000000000000    0502202131122099N
02220000SINGALONG Peppa Pig                                                   000000000SINGALONG Peppa Pig                               0000000000000    0502202131122099N
02220500Peppa Pig                                                             000000000Peppa Pig                                         0000000000000    0502202131122099N
02221500Peppa Pig                                                             000000000Peppa Pig                                         0000000000000    0502202131122099N
02222000Peppa Pig                                                             000000000Peppa Pig                                         0000000000000    0502202131122099N
02223000Peppa Pig                                                             000000000Peppa Pig                                         0000000000000    0502202131122099N
02223500Peppa Pig                                                             000000000Peppa Pig                                         0000000000000    0502202131122099N
02224500Peppa Pig                                                             000000000Peppa Pig                                         0000000000000    0502202131122099N
02225000Peppa Pig                                                             000000000Peppa Pig                                         0000000000000    0502202131122099N
02230000SINGALONG Peppa Pig                                                   000000000SINGALONG Peppa Pig                               0000000000000    0502202131122099N
02230500Peppa Pig                                                             000000000Peppa Pig                                         0000000000000    0502202131122099N
02231500Peppa Pig                                                             000000000Peppa Pig                                         0000000000000    0502202131122099N
02232000Peppa Pig                                                             000000000Peppa Pig                                         0000000000000    0502202131122099N
02233000Peppa Pig                                                             000000000Peppa Pig                                         0000000000000    0502202131122099N
02233500Peppa Pig                                                             000000000Peppa Pig                                         0000000000000    0502202131122099N
02234500Peppa Pig                                                             000000000Peppa Pig                                         0000000000000    0502202131122099N
02235000Peppa Pig                                                             000000000Peppa Pig                                         0000000000000    0502202131122099N
02240000Peppa Pig                                                             000000000Peppa Pig                                         0000000000000    0502202131122099N
02240500Peppa Pig                                                             000000000Peppa Pig                                         0000000000000    0502202131122099N
02241500Peppa Pig                                                             000000000Peppa Pig                                         0000000000000    0502202131122099N
02242000Peppa Pig                                                             000000000Peppa Pig                                         0000000000000    0502202131122099N
02243000Peppa Pig                                                             000000000Peppa Pig                                         0000000000000    0502202131122099N
02243500Peppa Pig                                                             000000000Peppa Pig                                         0000000000000    0502202131122099N
02244500Peppa Pig                                                             000000000Peppa Pig                                         0000000000000    0502202131122099N
02245000Peppa Pig                                                             000000000Peppa Pig                                         0000000000000    0502202131122099N
02250000Peppa Pig                                                             000000000Peppa Pig                                         0000000000000    0502202131122099N
02250500Peppa Pig                                                             000000000Peppa Pig                                         0000000000000    0502202131122099N
02251500Peppa Pig                                                             000000000Peppa Pig                                         0000000000000    0502202131122099N
02252000Peppa Pig                                                             000000000Peppa Pig                                         0000000000000    0502202131122099N
02253000Peppa Pig                                                             000000000Peppa Pig                                         0000000000000    0502202131122099N
02253500Peppa Pig                                                             000000000Peppa Pig                                         0000000000000    0502202131122099N
02254500Peppa Pig                                                             000000000Peppa Pig                                         0000000000000    0502202131122099N
02255000Peppa Pig                                                             000000000Peppa Pig                                         0000000000000    0502202131122099N
02260000Peppa Pig                                                             000000000Peppa Pig                                         0000000000000    0502202131122099N
02260500Peppa Pig                                                             000000000Peppa Pig                                         0000000000000    0502202131122099N
02261500Peppa Pig                                                             000000000Peppa Pig                                         0000000000000    0502202131122099N
02262000Peppa Pig                                                             000000000Peppa Pig                                         0000000000000    0502202131122099N
02263000Peppa Pig                                                             000000000Peppa Pig                                         0000000000000    0502202131122099N
02263500Peppa Pig                                                             000000000Peppa Pig                                         0000000000000    0502202131122099N
02264500Peppa Pig                                                             000000000Peppa Pig                                         0000000000000    0502202131122099N
02265000Peppa Pig                                                             000000000Peppa Pig                                         0000000000000    0502202131122099N
02270000Peppa Pig                                                             000000000Peppa Pig                                         0000000000000    0502202131122099N
02270500Peppa Pig                                                             000000000Peppa Pig                                         0000000000000    0502202131122099N
02271500Peppa Pig                                                             000000000Peppa Pig                                         0000000000000    0502202131122099N
02272000Peppa Pig                                                             000000000Peppa Pig                                         0000000000000    0502202131122099N
02273000Peppa Pig                                                             000000000Peppa Pig                                         0000000000000    0502202131122099N
02273500Peppa Pig                                                             000000000Peppa Pig                                         0000000000000    0502202131122099N
02274500Peppa Pig                                                             000000000Peppa Pig                                         0000000000000    0502202131122099N
02275000Peppa Pig                                                             000000000Peppa Pig                                         0000000000000    0502202131122099N
02280000Peppa Pig                                                             000000000Peppa Pig                                         0000000000000    0502202131122099N
02280500Peppa Pig                                                             000000000Peppa Pig                                         0000000000000    0502202131122099N
02281500Peppa Pig                                                             000000000Peppa Pig                                         0000000000000    0502202131122099N
02282000Peppa Pig                                                             000000000Peppa Pig                                         0000000000000    0502202131122099N
02283000Peppa Pig                                                             000000000Peppa Pig                                         0000000000000    0502202131122099N
02283500Peppa Pig                                                             000000000Peppa Pig                                         0000000000000    0502202131122099N
02284500Peppa Pig                                                             000000000Peppa Pig                                         0000000000000    0502202131122099N
02285000Peppa Pig                                                             000000000Peppa Pig                                         0000000000000    0502202131122099N
02290000Peppa Pig                                                             000000000Peppa Pig                                         0000000000000    0502202131122099N
02290500Peppa Pig                                                             000000000Peppa Pig                                         0000000000000    0502202131122099N
02291500Peppa Pig                                                             000000000Peppa Pig                                         0000000000000    0502202131122099N
02292000Peppa Pig                                                             000000000Peppa Pig                                         0000000000000    0502202131122099N
02293000Peppa Pig                                                             000000000Peppa Pig                                         0000000000000    0502202131122099N
02293500Peppa Pig                                                             000000000Peppa Pig                                         0000000000000    0502202131122099N
02294500Peppa Pig                                                             000000000Peppa Pig                                         0000000000000    0502202131122099N
02295000Peppa Pig                                                             000000000Peppa Pig                                         0000000000000    0502202131122099N
09ATRBATRB20022021000122
01ATRB21022021
02150000SINGALONG Peppa Pig                                                   000000000SINGALONG Peppa Pig                               0000000000000    0502202131122099N
02150500Peppa Pig                                                             000000000Peppa Pig                                         0000000000000    0502202131122099N
02151500Peppa Pig                                                             000000000Peppa Pig                                         0000000000000    0502202131122099N
02152000Peppa Pig                                                             000000000Peppa Pig                                         0000000000000    0502202131122099N
02153000Peppa Pig                                                             000000000Peppa Pig                                         0000000000000    0502202131122099N
02153500Peppa Pig                                                             000000000Peppa Pig                                         0000000000000    0502202131122099N
02154500Peppa Pig                                                             000000000Peppa Pig                                         0000000000000    0502202131122099N
02155000Peppa Pig                                                             000000000Peppa Pig                                         0000000000000    0502202131122099N
02160000SINGALONG Peppa Pig                                                   000000000SINGALONG Peppa Pig                               0000000000000    0502202131122099N
02160500Peppa Pig                                                             000000000Peppa Pig                                         0000000000000    0502202131122099N
02161500Peppa Pig                                                             000000000Peppa Pig                                         0000000000000    0502202131122099N
02162000Peppa Pig                                                             000000000Peppa Pig                                         0000000000000    0502202131122099N
02163000Peppa Pig                                                             000000000Peppa Pig                                         0000000000000    0502202131122099N
02163500Peppa Pig                                                             000000000Peppa Pig                                         0000000000000    0502202131122099N
02164500Peppa Pig                                                             000000000Peppa Pig                                         0000000000000    0502202131122099N
02165000Peppa Pig                                                             000000000Peppa Pig                                         0000000000000    0502202131122099N
02170000SINGALONG Peppa Pig                                                   000000000SINGALONG Peppa Pig                               0000000000000    0502202131122099N
02170500Peppa Pig                                                             000000000Peppa Pig                                         0000000000000    0502202131122099N
02171500Peppa Pig                                                             000000000Peppa Pig                                         0000000000000    0502202131122099N
02172000Peppa Pig                                                             000000000Peppa Pig                                         0000000000000    0502202131122099N
02173000Peppa Pig                                                             000000000Peppa Pig                                         0000000000000    0502202131122099N
02173500Peppa Pig                                                             000000000Peppa Pig                                         0000000000000    0502202131122099N
02174500Peppa Pig                                                             000000000Peppa Pig                                         0000000000000    0502202131122099N
02175000Peppa Pig                                                             000000000Peppa Pig                                         0000000000000    0502202131122099N
02180000Peppa Pig                                                             000000000Peppa Pig                                         0000000000000    0502202131122099N
02180500Peppa Pig                                                             000000000Peppa Pig                                         0000000000000    0502202131122099N
02181500Peppa Pig                                                             000000000Peppa Pig                                         0000000000000    0502202131122099N
02182000Peppa Pig                                                             000000000Peppa Pig                                         0000000000000    0502202131122099N
02183000Peppa Pig                                                             000000000Peppa Pig                                         0000000000000    0502202131122099N
02183500Peppa Pig                                                             000000000Peppa Pig                                         0000000000000    0502202131122099N
02184500Peppa Pig                                                             000000000Peppa Pig                                         0000000000000    0502202131122099N
02185000Peppa Pig                                                             000000000Peppa Pig                                         0000000000000    0502202131122099N
02190000Peppa Pig                                                             000000000Peppa Pig                                         0000000000000    0502202131122099N
02190500Peppa Pig                                                             000000000Peppa Pig                                         0000000000000    0502202131122099N
02191500Peppa Pig                                                             000000000Peppa Pig                                         0000000000000    0502202131122099N
02192000Peppa Pig                                                             000000000Peppa Pig                                         0000000000000    0502202131122099N
02193000Peppa Pig                                                             000000000Peppa Pig                                         0000000000000    0502202131122099N
02193500Peppa Pig                                                             000000000Peppa Pig                                         0000000000000    0502202131122099N
02194500Peppa Pig                                                             000000000Peppa Pig                                         0000000000000    0502202131122099N
02195000Peppa Pig                                                             000000000Peppa Pig                                         0000000000000    0502202131122099N
02200000Peppa Pig                                                             000000000Peppa Pig                                         0000000000000    0502202131122099N
02200500Peppa Pig                                                             000000000Peppa Pig                                         0000000000000    0502202131122099N
02201500Peppa Pig                                                             000000000Peppa Pig                                         0000000000000    0502202131122099N
02202100Peppa Pig                                                             000000000Peppa Pig                                         0000000000000    0502202131122099N
02203000Peppa Pig                                                             000000000Peppa Pig                                         0000000000000    0502202131122099N
02203500Peppa Pig                                                             000000000Peppa Pig                                         0000000000000    0502202131122099N
02204500Peppa Pig                                                             000000000Peppa Pig                                         0000000000000    0502202131122099N
02205000Peppa Pig                                                             000000000Peppa Pig                                         0000000000000    0502202131122099N
02210000SINGALONG Peppa Pig                                                   000000000SINGALONG Peppa Pig                               0000000000000    0502202131122099N
02210500Peppa Pig                                                             000000000Peppa Pig                                         0000000000000    0502202131122099N
02211500Peppa Pig                                                             000000000Peppa Pig                                         0000000000000    0502202131122099N
02212000Peppa Pig                                                             000000000Peppa Pig                                         0000000000000    0502202131122099N
02213000Peppa Pig                                                             000000000Peppa Pig                                         0000000000000    0502202131122099N
02213500Peppa Pig                                                             000000000Peppa Pig                                         0000000000000    0502202131122099N
02214500Peppa Pig                                                             000000000Peppa Pig                                         0000000000000    0502202131122099N
02215000Peppa Pig                                                             000000000Peppa Pig                                         0000000000000    0502202131122099N
02220000SINGALONG Peppa Pig                                                   000000000SINGALONG Peppa Pig                               0000000000000    0502202131122099N
02220500Peppa Pig                                                             000000000Peppa Pig                                         0000000000000    0502202131122099N
02221500Peppa Pig                                                             000000000Peppa Pig                                         0000000000000    0502202131122099N
02222000Peppa Pig                                                             000000000Peppa Pig                                         0000000000000    0502202131122099N
02223000Peppa Pig                                                             000000000Peppa Pig                                         0000000000000    0502202131122099N
02223500Peppa Pig                                                             000000000Peppa Pig                                         0000000000000    0502202131122099N
02224500Peppa Pig                                                             000000000Peppa Pig                                         0000000000000    0502202131122099N
02225000Peppa Pig                                                             000000000Peppa Pig                                         0000000000000    0502202131122099N
02230000SINGALONG Peppa Pig                                                   000000000SINGALONG Peppa Pig                               0000000000000    0502202131122099N
02230500Peppa Pig                                                             000000000Peppa Pig                                         0000000000000    0502202131122099N
02231500Peppa Pig                                                             000000000Peppa Pig                                         0000000000000    0502202131122099N
02232000Peppa Pig                                                             000000000Peppa Pig                                         0000000000000    0502202131122099N
02233000Peppa Pig                                                             000000000Peppa Pig                                         0000000000000    0502202131122099N
02233500Peppa Pig                                                             000000000Peppa Pig                                         0000000000000    0502202131122099N
02234500Peppa Pig                                                             000000000Peppa Pig                                         0000000000000    0502202131122099N
02235000Peppa Pig                                                             000000000Peppa Pig                                         0000000000000    0502202131122099N
02240000Peppa Pig                                                             000000000Peppa Pig                                         0000000000000    0502202131122099N
02240500Peppa Pig                                                             000000000Peppa Pig                                         0000000000000    0502202131122099N
02241500Peppa Pig                                                             000000000Peppa Pig                                         0000000000000    0502202131122099N
02242000Peppa Pig                                                             000000000Peppa Pig                                         0000000000000    0502202131122099N
02243000Peppa Pig                                                             000000000Peppa Pig                                         0000000000000    0502202131122099N
02243500Peppa Pig                                                             000000000Peppa Pig                                         0000000000000    0502202131122099N
02244500Peppa Pig                                                             000000000Peppa Pig                                         0000000000000    0502202131122099N
02245000Peppa Pig                                                             000000000Peppa Pig                                         0000000000000    0502202131122099N
02250000Peppa Pig                                                             000000000Peppa Pig                                         0000000000000    0502202131122099N
02250500Peppa Pig                                                             000000000Peppa Pig                                         0000000000000    0502202131122099N
02251500Peppa Pig                                                             000000000Peppa Pig                                         0000000000000    0502202131122099N
02252000Peppa Pig                                                             000000000Peppa Pig                                         0000000000000    0502202131122099N
02253000Peppa Pig                                                             000000000Peppa Pig                                         0000000000000    0502202131122099N
02253500Peppa Pig                                                             000000000Peppa Pig                                         0000000000000    0502202131122099N
02254500Peppa Pig                                                             000000000Peppa Pig                                         0000000000000    0502202131122099N
02255000Peppa Pig                                                             000000000Peppa Pig                                         0000000000000    0502202131122099N
02260000Peppa Pig                                                             000000000Peppa Pig                                         0000000000000    0502202131122099N
02260500Peppa Pig                                                             000000000Peppa Pig                                         0000000000000    0502202131122099N
02261500Peppa Pig                                                             000000000Peppa Pig                                         0000000000000    0502202131122099N
02262000Peppa Pig                                                             000000000Peppa Pig                                         0000000000000    0502202131122099N
02263000Peppa Pig                                                             000000000Peppa Pig                                         0000000000000    0502202131122099N
02263500Peppa Pig                                                             000000000Peppa Pig                                         0000000000000    0502202131122099N
02264500Peppa Pig                                                             000000000Peppa Pig                                         0000000000000    0502202131122099N
02265000Peppa Pig                                                             000000000Peppa Pig                                         0000000000000    0502202131122099N
02270000Peppa Pig                                                             000000000Peppa Pig                                         0000000000000    0502202131122099N
02270500Peppa Pig                                                             000000000Peppa Pig                                         0000000000000    0502202131122099N
02271500Peppa Pig                                                             000000000Peppa Pig                                         0000000000000    0502202131122099N
02272000Peppa Pig                                                             000000000Peppa Pig                                         0000000000000    0502202131122099N
