01Spot      DaveIre   030020200703202007061707061246320200703.DCL   05043000000000000000000000000000000000000000000000000000000000000000000000000000000000000000000000000000000000000000000000000000000000000000000000000000000000000000000000000000000000000000000000000000003.5A                          
022020070312463000008141600240CB000000000002CS0007951678501246300000008141600030CAWHSEC046030                                     AMERICAN PICKERS S11                    AMERICAN PICKERS S11                    0003700009122830000100000000000000000000000000FST                                         
022020070312463000008141600240CB000000000002CS0007955673901246300000008144600040BJFWMMH006040                                     AMERICAN PICKERS S11                    AMERICAN PICKERS S11                    0003700009131770000100000000000000000000000000SND                                         
022020070312463000008141600240CB000000000002CS0007941455191246300000008152600030TNTEIRB035030                                     AMERICAN PICKERS S11                    AMERICAN PICKERS S11                    0003700000000000000000000000000000000000000000OTH                                         
022020070312463000008141600240CB000000000002CS0007946600461246300000008155600030KCSPEUG112030                                     AMERICAN PICKERS S11                    AMERICAN PICKERS S11                    0003700009085540000100000000000000000000000000OTH                                         
022020070312463000008141600240CB000000000002CS0007941891271246300000008162600030BNGTHRN348030                                     AMERICAN PICKERS S11                    AMERICAN PICKERS S11                    0003700009081490000100000000000000000000000000OTH                                         
022020070312463000008141600240CB000000000002CS0007955704181246300000008165600040HNBIREL944040                                     AMERICAN PICKERS S11                    AMERICAN PICKERS S11                    0003700009117940000100000000000000000000000000OTH                                         
022020070312463000008141600240CB000000000002CS0007951651551246300000008173600030LKCBARN008030                                     AMERICAN PICKERS S11                    AMERICAN PICKERS S11                    0003700009088370000100000000000000000000000000PEN                                         
022020070312463000008141600240CB000000000002CS0007939370571246300000008180600010ROTTESC360010                                     AMERICAN PICKERS S11                    AMERICAN PICKERS S11                    0003700009088320000100000000000000000000000000LST                                         
022020070312463000008303200240CB000000000003CS0007955837571246300000008303200020TAGNUIE588020                                     AMERICAN PICKERS S11                    AMERICAN PICKERS S11                    0003700009115350000100000000000000000000000000FST                                         
022020070312463000008303200240CB000000000003CS0007941418231246300000008305200030SKYSBNT104030                                     AMERICAN PICKERS S11                    AMERICAN PICKERS S11                    0003700009085170000100000000000000000000000000SND                                         
022020070312463000008303200240CB000000000003CS0007947231711246300000008312200020BONBENE008020                                     AMERICAN PICKERS S11                    AMERICAN PICKERS S11                    0003700009092470000100000000000000000000000000OTH                                         
022020070312463000008303200240CB000000000003CS0007941710931246300000008314200030GRYVFBR661030                                     AMERICAN PICKERS S11                    AMERICAN PICKERS S11                    0003700009083260000100000000000000000000000000OTH                                         
022020070312463000008303200240CB000000000003CS0007946730961246300000008321200010TAGSULZ004010                                     AMERICAN PICKERS S11                    AMERICAN PICKERS S11                    0003700009119970000100000000000000000000000000OTH                                         
022020070312463000008303200240CB000000000003CS0007939370891246300000008322200030IIBLIDL250030                                     AMERICAN PICKERS S11                    AMERICAN PICKERS S11                    0003700009084060000100000000000000000000000000OTH                                         
022020070312463000008303200240CB000000000003CS0007946457841246300000008325200020SLHINTM001020                                     AMERICAN PICKERS S11                    AMERICAN PICKERS S11                    0003700009092480000100000000000000000000000000OTH                                         
022020070312463000008303200240CB000000000003CS0007946368201246300000008331200020BNGENEG321020                                     AMERICAN PICKERS S11                    AMERICAN PICKERS S11                    0003700009064930000100000000000000000000000000OTH                                         
022020070312463000008303200240CB000000000003CS0007955707021246300000008333200030SSCPGFY012030                                     AMERICAN PICKERS S11                    AMERICAN PICKERS S11                    0003700009081300000300000000000000000000000000PEN                                         
022020070312463000008303200240CB000000000003CS0007955707011246300000008340200030MIFPGOB571030                                     AMERICAN PICKERS S11                    AMERICAN PICKERS S11                    0003700009081720000300000000000000000000000000LST                                         
022020070312463000008422800240CB000000000004CS0007945630531246300000008422800030TNTEIRB035030                                     AMERICAN PICKERS S11                    AMERICAN PICKERS S11                    0003700000000000000000000000000000000000000000FST                                         
022020070312463000008422800240CB000000000004CS0007951957951246300000008425800020BURTSPK198020                                     AMERICAN PICKERS S11                    AMERICAN PICKERS S11                    0003700009076190000100000000000000000000000000SND                                         
022020070312463000008422800240CB000000000004CS0007955837381246300000008431800020IIBAVGI091020                                     AMERICAN PICKERS S11                    AMERICAN PICKERS S11                    0003700009085830000100000000000000000000000000OTH                                         
022020070312463000008422800240CB000000000004CS0007955837391246300000008433800020HPSRGAV006020                                     AMERICAN PICKERS S11                    AMERICAN PICKERS S11                    0003700009115250000100000000000000000000000000OTH                                         
022020070312463000008422800240CB000000000004CS0007951698441246300000008435800030CAWHSEC046030                                     AMERICAN PICKERS S11                    AMERICAN PICKERS S11                    0003700009122830000100000000000000000000000000OTH                                         
022020070312463000008422800240CB000000000004CS0007948826351246300000008442800020TAGCGGB683020                                     AMERICAN PICKERS S11                    AMERICAN PICKERS S11                    0003700009115070000100000000000000000000000000OTH                                         
022020070312463000008422800240CB000000000004CS0007951841901246300000008444800030LKCBARN008030                                     AMERICAN PICKERS S11                    AMERICAN PICKERS S11                    0003700009088370000100000000000000000000000000OTH                                         
022020070312463000008422800240CB000000000004CS0007955705171246300000008451800040HNBIREL944040                                     AMERICAN PICKERS S11                    AMERICAN PICKERS S11                    0003700009117940000100000000000000000000000000PEN                                         
022020070312463000008422800240CB000000000004CS0007955694181246300000008455800030ROTESBB002030                                     AMERICAN PICKERS S11                    AMERICAN PICKERS S11                    0003700009133920000100000000000000000000000000LST                                         
022020070312463000009085700300CB000000000005CS0007939370751246300000009085700030IIBLIDL250030                                     STORAGE HUNTERS (3A) (HD)               STORAGE HUNTERS (3A) (HD)               0003700009084060000100000000000000000000000000FST                                         
022020070312463000009085700300CB000000000005CS0007955705241246300000009092700030MIFPGOB571030                                     STORAGE HUNTERS (3A) (HD)               STORAGE HUNTERS (3A) (HD)               0003700009081720000300000000000000000000000000SND                                         
022020070312463000009085700300CB000000000005CS0007955705251246300000009095700030EGPPGFB044030                                     STORAGE HUNTERS (3A) (HD)               STORAGE HUNTERS (3A) (HD)               0003700009081440000300000000000000000000000000OTH                                         
022020070312463000009085700300CB000000000005CS0007951844801246300000009102700030KRODSSS446030                                     STORAGE HUNTERS (3A) (HD)               STORAGE HUNTERS (3A) (HD)               0003700009118860000100000000000000000000000000OTH                                         
022020070312463000009085700300CB000000000005CS0007941418261246300000009105700030SKYSBNT104030                                     STORAGE HUNTERS (3A) (HD)               STORAGE HUNTERS (3A) (HD)               0003700009085170000100000000000000000000000000OTH                                         
022020070312463000009085700300CB000000000005CS0007947231721246300000009112700020BBHWEYB091020                                     STORAGE HUNTERS (3A) (HD)               STORAGE HUNTERS (3A) (HD)               0003700009075490000100000000000000000000000000OTH                                         
022020070312463000009085700300CB000000000005CS0007955705261246300000009114700030SSCPGFY012030                                     STORAGE HUNTERS (3A) (HD)               STORAGE HUNTERS (3A) (HD)               0003700009081300000300000000000000000000000000OTH                                         
022020070312463000009085700300CB000000000005CS0007953514891246300000009121700040BJFWMMH006040                                     STORAGE HUNTERS (3A) (HD)               STORAGE HUNTERS (3A) (HD)               0003700009131770000102000000000000000000000000OTH                                         
022020070312463000009085700300CB000000000005CS0007955797931246300000009125700030KCHFAIR001030                                     STORAGE HUNTERS (3A) (HD)               STORAGE HUNTERS (3A) (HD)               0003700009081310000302000000000000000000000000PEN                                         
022020070312463000009085700300CB000000000005CS0007941710921246300000009132700030GRYVFBR661030                                     STORAGE HUNTERS (3A) (HD)               STORAGE HUNTERS (3A) (HD)               0003700009083260000102000000000000000000000000LST                                         
022020070312463000009254000120EB000000000006CS0007941418411246300000009254000030FOWSKYI158030                                     STORAGE HUNTERS (3A) (HD)               STORAGE HUNTERS (3A) (HD)               0003700009085030000102000000000000000000000000FST                                         
022020070312463000009254000120EB000000000006CS0007941892231246300000009261000030QMPVIRG024030                                     STORAGE HUNTERS (3A) (HD)               STORAGE HUNTERS (3A) (HD)               0003700009092400000102000000000000000000000000SND                                         
022020070312463000009254000120EB000000000006CS0007955699551246300000009264000030ROTESBB002030                                     STORAGE HUNTERS (3A) (HD)               STORAGE HUNTERS (3A) (HD)               0003700009133920000102000000000000000000000000PEN                                         
022020070312463000009254000120EB000000000006CS0007939357721246300000009271000030IIBLIDL250030                                     STORAGE HUNTERS (3A) (HD)               STORAGE HUNTERS (3A) (HD)               0003700009084060000100000000000000000000000000LST                                         
022020070312463000009394300300CB000000000007CS0007939371221246300000009394300010ROTTESC361010                                     STORAGE HUNTERS (3A) (HD)               STORAGE HUNTERS (3A) (HD)               0003700009088320000100000000000000000000000000FST                                         
022020070312463000009394300300CB000000000007CS0007941418521246300000009395300030SKYSBNT104030                                     STORAGE HUNTERS (3A) (HD)               STORAGE HUNTERS (3A) (HD)               0003700009085170000100000000000000000000000000SND                                         
022020070312463000009394300300CB000000000007CS0007955838461246300000009402300020YRLBELB007020                                     STORAGE HUNTERS (3A) (HD)               STORAGE HUNTERS (3A) (HD)               0003700009076940000100000000000000000000000000OTH                                         
022020070312463000009394300300CB000000000007CS0007955834911246300000009404300020CWWGARN035020                                     STORAGE HUNTERS (3A) (HD)               STORAGE HUNTERS (3A) (HD)               0003700009085660000100000000000000000000000000OTH                                         
022020070312463000009394300300CB000000000007CS0007946731131246300000009410300020TAGSULZ003020                                     STORAGE HUNTERS (3A) (HD)               STORAGE HUNTERS (3A) (HD)               0003700009119960000100000000000000000000000000OTH                                         
022020070312463000009394300300CB000000000007CS0007955707181246300000009412300030EGPPGPP118030                                     STORAGE HUNTERS (3A) (HD)               STORAGE HUNTERS (3A) (HD)               0003700009081800000300000000000000000000000000OTH                                         
022020070312463000009394300300CB000000000007CS0007939149641246300000009415300030VSTQTDV015030                                     STORAGE HUNTERS (3A) (HD)               STORAGE HUNTERS (3A) (HD)               0003700000000000000000000000000000000000000000OTH                                         
022020070312463000009394300300CB000000000007CS0007941863661246300000009422300010SLHFELH005010                                     STORAGE HUNTERS (3A) (HD)               STORAGE HUNTERS (3A) (HD)               0003700009051080000100000000000000000000000000OTH                                         
022020070312463000009394300300CB000000000007CS0007946368261246300000009423300020BNGENEG323020                                     STORAGE HUNTERS (3A) (HD)               STORAGE HUNTERS (3A) (HD)               0003700009064930000100000000000000000000000000OTH                                         
022020070312463000009394300300CB000000000007CS0007947369591246300000009425300020CWWGARN038020                                     STORAGE HUNTERS (3A) (HD)               STORAGE HUNTERS (3A) (HD)               0003700009085670000100000000000000000000000000OTH                                         
022020070312463000009394300300CB000000000007CS0007947231751246300000009431300020BONBENE008020                                     STORAGE HUNTERS (3A) (HD)               STORAGE HUNTERS (3A) (HD)               0003700009092470000100000000000000000000000000OTH                                         
022020070312463000009394300300CB000000000007CS0007955706751246300000009433300040HNBIREL944040                                     STORAGE HUNTERS (3A) (HD)               STORAGE HUNTERS (3A) (HD)               0003700009117940000100000000000000000000000000PEN                                         
022020070312463000009394300300CB000000000007CS0007941711161246300000009441300030GRYVFBR661030                                     STORAGE HUNTERS (3A) (HD)               STORAGE HUNTERS (3A) (HD)               0003700009083260000100000000000000000000000000LST                                         
022020070312463000010085500240CB000000000008CS0007951629971246300000010085500030JAVSSEA025030                                     AMERICAN PICKERS S11                    AMERICAN PICKERS S11                    0003700009092430000100000000000000000000000000FST                                         
022020070312463000010085500240CB000000000008CS0007944474291246300000010092500030MCMASSS935030                                     AMERICAN PICKERS S11                    AMERICAN PICKERS S11                    0003700009108210000100000000000000000000000000SND                                         
022020070312463000010085500240CB000000000008CS0007945654641246300000010095500030TNTEIRB035030                                     AMERICAN PICKERS S11                    AMERICAN PICKERS S11                    0003700000000000000000000000000000000000000000OTH                                         
022020070312463000010085500240CB000000000008CS0007951636981246300000010102500030IIBVOLK078030                                     AMERICAN PICKERS S11                    AMERICAN PICKERS S11                    0003700009092510000100000000000000000000000000OTH                                         
022020070312463000010085500240CB000000000008CS0007951678241246300000010105500030CAWHSEC046030                                     AMERICAN PICKERS S11                    AMERICAN PICKERS S11                    0003700009122830000100000000000000000000000000OTH                                         
022020070312463000010085500240CB000000000008CS0007955668921246300000010112500030BNGTHRN348030                                     AMERICAN PICKERS S11                    AMERICAN PICKERS S11                    0003700009081490000100000000000000000000000000OTH                                         
022020070312463000010085500240CB000000000008CS0007953571871246300000010115500040BJFWMMH006040                                     AMERICAN PICKERS S11                    AMERICAN PICKERS S11                    0003700009131770000100000000000000000000000000PEN                                         
022020070312463000010085500240CB000000000008CS0007955714241246300000010123500020BBHWEYB091020                                     AMERICAN PICKERS S11                    AMERICAN PICKERS S11                    0003700009075490000100000000000000000000000000LST                                         
022020070312463000010280200240CB000000000009CS0007947035021246300000010280200030KCHFAIR001030                                     AMERICAN PICKERS S11                    AMERICAN PICKERS S11                    0003700009081310000300000000000000000000000000FST                                         
022020070312463000010280200240CB000000000009CS0007953503881246300000010283200030ROTESBB002030                                     AMERICAN PICKERS S11                    AMERICAN PICKERS S11                    0003700009133920000100000000000000000000000000SND                                         
022020070312463000010280200240CB000000000009CS0007946042291246300000010290200030FOWSKYI158030                                     AMERICAN PICKERS S11                    AMERICAN PICKERS S11                    0003700009085080000100000000000000000000000000OTH                                         
022020070312463000010280200240CB000000000009CS0007955706471246300000010293200030GRYPGPP630030                                     AMERICAN PICKERS S11                    AMERICAN PICKERS S11                    0003700009081950000300000000000000000000000000OTH                                         
022020070312463000010280200240CB000000000009CS0007939509291246300000010300200030IIBLIDL250030                                     AMERICAN PICKERS S11                    AMERICAN PICKERS S11                    0003700009084060000100000000000000000000000000OTH                                         
022020070312463000010280200240CB000000000009CS0007947035011246300000010303200030HOGPGOL472030                                     AMERICAN PICKERS S11                    AMERICAN PICKERS S11                    0003700009081650000300000000000000000000000000OTH                                         
022020070312463000010280200240CB000000000009CS0007947035031246300000010310200030SSCPGFY015030                                     AMERICAN PICKERS S11                    AMERICAN PICKERS S11                    0003700009081250000300000000000000000000000000PEN                                         
022020070312463000010280200240CB000000000009CS0007947034981246300000010313200030MIFPGOB571030                                     AMERICAN PICKERS S11                    AMERICAN PICKERS S11                    0003700009081720000300000000000000000000000000LST                                         
022020070312463000010434300240CB000000000010CS0007939353731246300000010434300030MCMASSS936030                                     AMERICAN PICKERS S11                    AMERICAN PICKERS S11                    0003700009108210000100000000000000000000000000FST                                         
022020070312463000010434300240CB000000000010CS0007955705421246300000010441300030SSCPGFY012030                                     AMERICAN PICKERS S11                    AMERICAN PICKERS S11                    0003700009081300000300000000000000000000000000SND                                         
022020070312463000010434300240CB000000000010CS0007941891421246300000010444300030BNGTHRN348030                                     AMERICAN PICKERS S11                    AMERICAN PICKERS S11                    0003700009081490000100000000000000000000000000OTH                                         
022020070312463000010434300240CB000000000010CS0007955705441246300000010451300030EGPPGPP118030                                     AMERICAN PICKERS S11                    AMERICAN PICKERS S11                    0003700009081800000300000000000000000000000000OTH                                         
022020070312463000010434300240CB000000000010CS0007955705431246300000010454300030EGPPGFB044030                                     AMERICAN PICKERS S11                    AMERICAN PICKERS S11                    0003700009081440000300000000000000000000000000OTH                                         
022020070312463000010434300240CB000000000010CS0007953532191246300000010461300030CAWHSEC046030                                     AMERICAN PICKERS S11                    AMERICAN PICKERS S11                    0003700009122830000100000000000000000000000000OTH                                         
022020070312463000010434300240CB000000000010CS0007955705451246300000010464300030BURTLEN009030                                     AMERICAN PICKERS S11                    AMERICAN PICKERS S11                    0003700009081610000300000000000000000000000000PEN                                         
022020070312463000010434300240CB000000000010CS0007941455281246300000010471300030TNTEIRB035030                                     AMERICAN PICKERS S11                    AMERICAN PICKERS S11                    0003700000000000000000000000000000000000000000LST                                         
022020070312463000011094500240CB000000000011CS0007947034691246300000011094500030GRYPGPP630030                                     AMERICAN PICKERS S11                    AMERICAN PICKERS S11                    0003700009081950000300000000000000000000000000FST                                         
022020070312463000011094500240CB000000000011CS0007955836841246300000011101500020IIBAVGI091020                                     AMERICAN PICKERS S11                    AMERICAN PICKERS S11                    0003700009085830000100000000000000000000000000SND                                         
022020070312463000011094500240CB000000000011CS0007947034731246300000011103500030SSCPGGL007030                                     AMERICAN PICKERS S11                    AMERICAN PICKERS S11                    0003700009081530000300000000000000000000000000OTH                                         
022020070312463000011094500240CB000000000011CS0007947034711246300000011110500030KCHFAIR001030                                     AMERICAN PICKERS S11                    AMERICAN PICKERS S11                    0003700009081310000300000000000000000000000000OTH                                         
022020070312463000011094500240CB000000000011CS0007953513781246300000011113500030ROTESBB002030                                     AMERICAN PICKERS S11                    AMERICAN PICKERS S11                    0003700009133920000100000000000000000000000000OTH                                         
022020070312463000011094500240CB000000000011CS0007955798101246300000011120500030EGPPGPP118030                                     AMERICAN PICKERS S11                    AMERICAN PICKERS S11                    0003700009081800000300000000000000000000000000OTH                                         
022020070312463000011094500240CB000000000011CS0007946042101246300000011123500030FOWSKYI158030                                     AMERICAN PICKERS S11                    AMERICAN PICKERS S11                    0003700009085080000100000000000000000000000000OTH                                         
022020070312463000011094500240CB000000000011CS0007947034741246300000011130500030HOGPGOL472030                                     AMERICAN PICKERS S11                    AMERICAN PICKERS S11                    0003700009081650000300000000000000000000000000PEN                                         
022020070312463000011094500240CB000000000011CS0007955702831246300000011133500010ROTTESC360010                                     AMERICAN PICKERS S11                    AMERICAN PICKERS S11                    0003700009088320000100000000000000000000000000LST                                         
022020070312463000011274100240CB000000000012CS0007941418511246300000011274100030SKYSBNT104030                                     AMERICAN PICKERS S11                    AMERICAN PICKERS S11                    0003700009085170000100000000000000000000000000FST                                         
022020070312463000011274100240CB000000000012CS0007946368251246300000011281100020BNGENEG323020                                     AMERICAN PICKERS S11                    AMERICAN PICKERS S11                    0003700009064930000100000000000000000000000000SND                                         
022020070312463000011274100240CB000000000012CS0007941863641246300000011283100020SLHFELH001020                                     AMERICAN PICKERS S11                    AMERICAN PICKERS S11                    0003700009051080000100000000000000000000000000OTH                                         
022020070312463000011274100240CB000000000012CS0007946458051246300000011285100020SLHINTM001020                                     AMERICAN PICKERS S11                    AMERICAN PICKERS S11                    0003700009092480000100000000000000000000000000OTH                                         
022020070312463000011274100240CB000000000012CS0007939443921246300000011291100030IIBLIDL250030                                     AMERICAN PICKERS S11                    AMERICAN PICKERS S11                    0003700009084060000100000000000000000000000000OTH                                         
022020070312463000011274100240CB000000000012CS0007947369581246300000011294100020CWWGARN037020                                     AMERICAN PICKERS S11                    AMERICAN PICKERS S11                    0003700009085670000100000000000000000000000000OTH                                         
022020070312463000011274100240CB000000000012CS0007946731101246300000011300100010TAGSULZ004010                                     AMERICAN PICKERS S11                    AMERICAN PICKERS S11                    0003700009119970000100000000000000000000000000OTH                                         
022020070312463000011274100240CB000000000012CS0007955706661246300000011301100030MIFPGOB571030                                     AMERICAN PICKERS S11                    AMERICAN PICKERS S11                    0003700009081720000300000000000000000000000000OTH                                         
022020070312463000011274100240CB000000000012CS0007955706671246300000011304100030SSCPGFY012030                                     AMERICAN PICKERS S11                    AMERICAN PICKERS S11                    0003700009081300000300000000000000000000000000PEN                                         
022020070312463000011274100240CB000000000012CS0007941711331246300000011311100030GRYVFBR661030                                     AMERICAN PICKERS S11                    AMERICAN PICKERS S11                    0003700009083260000100000000000000000000000000LST                                         
022020070312463000011401600240CB000000000013CS0007955691151246300000011401600030BNGTHRN348030                                     AMERICAN PICKERS S11                    AMERICAN PICKERS S11                    0003700009081490000100000000000000000000000000FST                                         
022020070312463000011401600240CB000000000013CS0007951643721246300000011404600030TNTEIRB035030                                     AMERICAN PICKERS S11                    AMERICAN PICKERS S11                    0003700000000000000000000000000000000000000000SND                                         
022020070312463000011401600240CB000000000013CS0007948928061246300000011411600030MCMASSS936030                                     AMERICAN PICKERS S11                    AMERICAN PICKERS S11                    0003700009108210000100000000000000000000000000OTH                                         
022020070312463000011401600240CB000000000013CS0007953547381246300000011414600030LKCTROC019030                                     AMERICAN PICKERS S11                    AMERICAN PICKERS S11                    0003700009088380000100000000000000000000000000OTH                                         
022020070312463000011401600240CB000000000013CS0007955798431246300000011421600030KCHFAIR001030                                     AMERICAN PICKERS S11                    AMERICAN PICKERS S11                    0003700009081310000300000000000000000000000000OTH                                         
022020070312463000011401600240CB000000000013CS0007951678301246300000011424600030CAWHSEC046030                                     AMERICAN PICKERS S11                    AMERICAN PICKERS S11                    0003700009122830000100000000000000000000000000OTH                                         
022020070312463000011401600240CB000000000013CS0007951792391246300000011431600040ODDSELE001040                                     AMERICAN PICKERS S11                    AMERICAN PICKERS S11                    0003700009092500000100000000000000000000000000PEN                                         
022020070312463000011401600240CB000000000013CS0007955836941246300000011435600020IIBAVGI091020                                     AMERICAN PICKERS S11                    AMERICAN PICKERS S11                    0003700009085830000100000000000000000000000000LST                                         
022020070312463000012104200300CB000000000014CS0007951743631246300000012104200020HKXAWBT001020                                     MODERN WHEELS OR CLASSIC STEALS (1)     MODERN WHEELS OR CLASSIC STEALS (1)     0003700009114960000100000000000000000000000000FST                                         
022020070312463000012104200300CB000000000014CS0007955704611246300000012110200040HNBIREL944040                                     MODERN WHEELS OR CLASSIC STEALS (1)     MODERN WHEELS OR CLASSIC STEALS (1)     0003700009117940000100000000000000000000000000SND                                         
022020070312463000012104200300CB000000000014CS0007953573771246300000012114200040BBHVMBR036040                                     MODERN WHEELS OR CLASSIC STEALS (1)     MODERN WHEELS OR CLASSIC STEALS (1)     0003700009067460000200000000000000000000000000OTH                                         
022020070312463000012104200300CB000000000014CS0007951823141246300000012122200030LKCBARN008030                                     MODERN WHEELS OR CLASSIC STEALS (1)     MODERN WHEELS OR CLASSIC STEALS (1)     0003700009088370000100000000000000000000000000OTH                                         
022020070312463000012104200300CB000000000014CS0007951823171246300000012125200010MCEJEAT084010                                     MODERN WHEELS OR CLASSIC STEALS (1)     MODERN WHEELS OR CLASSIC STEALS (1)     0003700009077080000100000000000000000000000000OTH                                         
022020070312463000012104200300CB000000000014CS0007955685731246300000012130200020BBHWEYB091020                                     MODERN WHEELS OR CLASSIC STEALS (1)     MODERN WHEELS OR CLASSIC STEALS (1)     0003700009075490000100000000000000000000000000OTH                                         
022020070312463000012104200300CB000000000014CS0007951925681246300000012132200030SSCPGGL007030                                     MODERN WHEELS OR CLASSIC STEALS (1)     MODERN WHEELS OR CLASSIC STEALS (1)     0003700009081530000300000000000000000000000000OTH                                         
022020070312463000012104200300CB000000000014CS0007951899351246300000012135200030IIBVOLK079030                                     MODERN WHEELS OR CLASSIC STEALS (1)     MODERN WHEELS OR CLASSIC STEALS (1)     0003700009092510000100000000000000000000000000OTH                                         
022020070312463000012104200300CB000000000014CS0007953557041246300000012142200030ROTESBB002030                                     MODERN WHEELS OR CLASSIC STEALS (1)     MODERN WHEELS OR CLASSIC STEALS (1)     0003700009133920000100000000000000000000000000OTH                                         
022020070312463000012104200300CB000000000014CS0007948976011246300000012145200030IIBLIDL250030                                     MODERN WHEELS OR CLASSIC STEALS (1)     MODERN WHEELS OR CLASSIC STEALS (1)     0003700009084060000100000000000000000000000000PEN                                         
022020070312463000012104200300CB000000000014CS0007951823151246300000012152200020HPSRGAV006020                                     MODERN WHEELS OR CLASSIC STEALS (1)     MODERN WHEELS OR CLASSIC STEALS (1)     0003700009115250000100000000000000000000000000LST                                         
022020070312463000012263900120EB000000000015CS0007951673631246300000012263900030TNTEIRB035030                                     MODERN WHEELS OR CLASSIC STEALS (1)     MODERN WHEELS OR CLASSIC STEALS (1)     0003700000000000000000000000000000000000000000FST                                         
022020070312463000012263900120EB000000000015CS0007948940211246300000012270900030MCMASSS936030                                     MODERN WHEELS OR CLASSIC STEALS (1)     MODERN WHEELS OR CLASSIC STEALS (1)     0003700009108210000100000000000000000000000000SND                                         
022020070312463000012263900120EB000000000015CS0007955676731246300000012273900030GRYPGPP630030                                     MODERN WHEELS OR CLASSIC STEALS (1)     MODERN WHEELS OR CLASSIC STEALS (1)     0003700009081950000300000000000000000000000000PEN                                         
022020070312463000012263900120EB000000000015CS0007951901861246300000012280900030QMPRENA201030                                     MODERN WHEELS OR CLASSIC STEALS (1)     MODERN WHEELS OR CLASSIC STEALS (1)     0003700009074210000300000000000000000000000000LST                                         
022020070312463000012403800300CB000000000016CS0007955685681246300000012403800020BBHWEYB091020                                     MODERN WHEELS OR CLASSIC STEALS (1)     MODERN WHEELS OR CLASSIC STEALS (1)     0003700009075490000100000000000000000000000000FST                                         
022020070312463000012403800300CB000000000016CS0007955708841246300000012405800030BURTLEN009030                                     MODERN WHEELS OR CLASSIC STEALS (1)     MODERN WHEELS OR CLASSIC STEALS (1)     0003700009081610000300000000000000000000000000SND                                         
022020070312463000012403800300CB000000000016CS0007955696521246300000012412800040BJFWMMH006040                                     MODERN WHEELS OR CLASSIC STEALS (1)     MODERN WHEELS OR CLASSIC STEALS (1)     0003700009131770000100000000000000000000000000OTH                                         
022020070312463000012403800300CB000000000016CS0007955693061246300000012420800030BNGTHRN348030                                     MODERN WHEELS OR CLASSIC STEALS (1)     MODERN WHEELS OR CLASSIC STEALS (1)     0003700009081490000100000000000000000000000000OTH                                         
022020070312463000012403800300CB000000000016CS0007951885751246300000012423800030LKCBARN008030                                     MODERN WHEELS OR CLASSIC STEALS (1)     MODERN WHEELS OR CLASSIC STEALS (1)     0003700009088370000100000000000000000000000000OTH                                         
022020070312463000012403800300CB000000000016CS0007951932251246300000012430800030HOGPGOL472030                                     MODERN WHEELS OR CLASSIC STEALS (1)     MODERN WHEELS OR CLASSIC STEALS (1)     0003700009081650000300000000000000000000000000OTH                                         
022020070312463000012403800300CB000000000016CS0007951890961246300000012433800030IIBVOLK079030                                     MODERN WHEELS OR CLASSIC STEALS (1)     MODERN WHEELS OR CLASSIC STEALS (1)     0003700009092510000100000000000000000000000000OTH                                         
022020070312463000012403800300CB000000000016CS0007953556051246300000012440800030ROTESBB002030                                     MODERN WHEELS OR CLASSIC STEALS (1)     MODERN WHEELS OR CLASSIC STEALS (1)     0003700009133920000100000000000000000000000000OTH                                         
022020070312463000012403800300CB000000000016CS0007955708851246300000012443800030KCHARIE001030                                     MODERN WHEELS OR CLASSIC STEALS (1)     MODERN WHEELS OR CLASSIC STEALS (1)     0003700009081050000300000000000000000000000000PEN                                         
022020070312463000012403800300CB000000000016CS0007948950011246300000012450800030IIBLIDL250030                                     MODERN WHEELS OR CLASSIC STEALS (1)     MODERN WHEELS OR CLASSIC STEALS (1)     0003700009084060000100000000000000000000000000LST                                         
022020070312463000013073200240CB000000000017CS0007951671261246300000013073200030TNTEIRB035030                                     TOP GEAR (22) (HD)                      TOP GEAR (22) (HD)                      0003700000000000000000000000000000000000000000FST                                         
022020070312463000013073200240CB000000000017CS0007948975561246300000013080200030IIBLIDL251030                                     TOP GEAR (22) (HD)                      TOP GEAR (22) (HD)                      0003700009083730000100000000000000000000000000SND                                         
022020070312463000013073200240CB000000000017CS0007955704171246300000013083200030TAGHNIR075030                                     TOP GEAR (22) (HD)                      TOP GEAR (22) (HD)                      0003700009128670000100000000000000000000000000OTH                                         
022020070312463000013073200240CB000000000017CS0007955708051246300000013090200030MIFPGOB571030                                     TOP GEAR (22) (HD)                      TOP GEAR (22) (HD)                      0003700009081720000300000000000000000000000000OTH                                         
022020070312463000013073200240CB000000000017CS0007955708061246300000013093200030KCHFAIR001030                                     TOP GEAR (22) (HD)                      TOP GEAR (22) (HD)                      0003700009081310000300000000000000000000000000OTH                                         
022020070312463000013073200240CB000000000017CS0007951923911246300000013100200030SSCPGGL007030                                     TOP GEAR (22) (HD)                      TOP GEAR (22) (HD)                      0003700009081530000300000000000000000000000000OTH                                         
022020070312463000013073200240CB000000000017CS0007951920481246300000013103200030QMPRENA201030                                     TOP GEAR (22) (HD)                      TOP GEAR (22) (HD)                      0003700009074210000300000000000000000000000000PEN                                         
022020070312463000013073200240CB000000000017CS0007951693891246300000013110200030CAWHSEC046030                                     TOP GEAR (22) (HD)                      TOP GEAR (22) (HD)                      0003700009122830000100000000000000000000000000LST                                         
022020070312463000013225600240CB000000000018CS0007955692311246300000013225600030BNGTHRN348030                                     TOP GEAR (22) (HD)                      TOP GEAR (22) (HD)                      0003700009081490000100000000000000000000000000FST                                         
022020070312463000013225600240CB000000000018CS0007953557251246300000013232600040BJFWMMH006040                                     TOP GEAR (22) (HD)                      TOP GEAR (22) (HD)                      0003700009131770000100000000000000000000000000SND                                         
022020070312463000013225600240CB000000000018CS0007951744101246300000013240600030CNYHMCI128030                                     TOP GEAR (22) (HD)                      TOP GEAR (22) (HD)                      0003700009070830000100000000000000000000000000OTH                                         
022020070312463000013225600240CB000000000018CS0007951824221246300000013243600030LKCBARN008030                                     TOP GEAR (22) (HD)                      TOP GEAR (22) (HD)                      0003700009088370000100000000000000000000000000OTH                                         
022020070312463000013225600240CB000000000018CS0007951824251246300000013250600010MCEJEAT084010                                     TOP GEAR (22) (HD)                      TOP GEAR (22) (HD)                      0003700009077080000100000000000000000000000000OTH                                         
022020070312463000013225600240CB000000000018CS0007955704781246300000013251600030SSCPGFY012030                                     TOP GEAR (22) (HD)                      TOP GEAR (22) (HD)                      0003700009081300000300000000000000000000000000OTH                                         
022020070312463000013225600240CB000000000018CS0007955704651246300000013254600040HNBIREL944040                                     TOP GEAR (22) (HD)                      TOP GEAR (22) (HD)                      0003700009117940000100000000000000000000000000PEN                                         
022020070312463000013225600240CB000000000018CS0007948953141246300000013262600030MCMASSS935030                                     TOP GEAR (22) (HD)                      TOP GEAR (22) (HD)                      0003700009108210000100000000000000000000000000LST                                         
022020070312463000013422500240CB000000000019CS0007939370671246300000013422500010ROTTESC361010                                     TOP GEAR (22) (HD)                      TOP GEAR (22) (HD)                      0003700009088320000100000000000000000000000000FST                                         
022020070312463000013422500240CB000000000019CS0007941423691246300000013423500030SKYSBNT104030                                     TOP GEAR (22) (HD)                      TOP GEAR (22) (HD)                      0003700009085170000100000000000000000000000000SND                                         
022020070312463000013422500240CB000000000019CS0007955704031246300000013430500030EGPPGFB044030                                     TOP GEAR (22) (HD)                      TOP GEAR (22) (HD)                      0003700009081440000300000000000000000000000000OTH                                         
022020070312463000013422500240CB000000000019CS0007941710911246300000013433500030GRYVFBR661030                                     TOP GEAR (22) (HD)                      TOP GEAR (22) (HD)                      0003700009083260000100000000000000000000000000OTH                                         
022020070312463000013422500240CB000000000019CS0007945700741246300000013440500030GRYBKID008030                                     TOP GEAR (22) (HD)                      TOP GEAR (22) (HD)                      0003700009082980000100000000000000000000000000OTH                                         
022020070312463000013422500240CB000000000019CS0007955704021246300000013443500030MIFPGOB571030                                     TOP GEAR (22) (HD)                      TOP GEAR (22) (HD)                      0003700009081720000300000000000000000000000000OTH                                         
022020070312463000013422500240CB000000000019CS0007951805451246300000013450500020KRODSSS447020                                     TOP GEAR (22) (HD)                      TOP GEAR (22) (HD)                      0003700009118870000100000000000000000000000000OTH                                         
022020070312463000013422500240CB000000000019CS0007955797621246300000013452500030KCHFAIR001030                                     TOP GEAR (22) (HD)                      TOP GEAR (22) (HD)                      0003700009081310000300000000000000000000000000PEN                                         
022020070312463000013422500240CB000000000019CS0007955692261246300000013455500030ROTESBB002030                                     TOP GEAR (22) (HD)                      TOP GEAR (22) (HD)                      0003700009133920000100000000000000000000000000LST                                         
022020070312463000014121800240CB000000000020CS0007955690311246300000014121800040BJFWMMH006040                                     WORLD'S MOST DANGEROUS ROADS (3) (HD) *8WORLD'S MOST DANGEROUS ROADS (3) (HD) *80003700009131770000100000000000000000000000000FST                                         
022020070312463000014121800240CB000000000020CS0007955835811246300000014125800020CWWGARN041020                                     WORLD'S MOST DANGEROUS ROADS (3) (HD) *8WORLD'S MOST DANGEROUS ROADS (3) (HD) *80003700009085660000100000000000000000000000000SND                                         
022020070312463000014121800240CB000000000020CS0007951678201246300000014131800030CAWHSEC046030                                     WORLD'S MOST DANGEROUS ROADS (3) (HD) *8WORLD'S MOST DANGEROUS ROADS (3) (HD) *80003700009122830000100000000000000000000000000OTH                                         
022020070312463000014121800240CB000000000020CS0007955834571246300000014134800020CWWGARN038020                                     WORLD'S MOST DANGEROUS ROADS (3) (HD) *8WORLD'S MOST DANGEROUS ROADS (3) (HD) *80003700009085670000100000000000000000000000000OTH                                         
022020070312463000014121800240CB000000000020CS0007955709671246300000014140800030KCHFAIR001030                                     WORLD'S MOST DANGEROUS ROADS (3) (HD) *8WORLD'S MOST DANGEROUS ROADS (3) (HD) *80003700009081310000300000000000000000000000000OTH                                         
022020070312463000014121800240CB000000000020CS0007955700441246300000014143800030FOWSKYI158030                                     WORLD'S MOST DANGEROUS ROADS (3) (HD) *8WORLD'S MOST DANGEROUS ROADS (3) (HD) *80003700009085030000100000000000000000000000000OTH                                         
022020070312463000014121800240CB000000000020CS0007951738281246300000014150800030CNYHMCI128030                                     WORLD'S MOST DANGEROUS ROADS (3) (HD) *8WORLD'S MOST DANGEROUS ROADS (3) (HD) *80003700009070830000100000000000000000000000000PEN                                         
022020070312463000014121800240CB000000000020CS0007955709201246300000014153800040HNBIREL944040                                     WORLD'S MOST DANGEROUS ROADS (3) (HD) *8WORLD'S MOST DANGEROUS ROADS (3) (HD) *80003700009117940000100000000000000000000000000LST                                         
022020070312463000014290700240CB000000000021CS0007941892931246300000014290700030BNGTHRN348030                                     WORLD'S MOST DANGEROUS ROADS (3) (HD) *8WORLD'S MOST DANGEROUS ROADS (3) (HD) *80003700009081490000100000000000000000000000000FST                                         
022020070312463000014290700240CB000000000021CS0007955709761246300000014293700030KCHARIE001030                                     WORLD'S MOST DANGEROUS ROADS (3) (HD) *8WORLD'S MOST DANGEROUS ROADS (3) (HD) *80003700009081050000300000000000000000000000000SND                                         
022020070312463000014290700240CB000000000021CS0007951633391246300000014300700040ODDSELE001040                                     WORLD'S MOST DANGEROUS ROADS (3) (HD) *8WORLD'S MOST DANGEROUS ROADS (3) (HD) *80003700009092500000100000000000000000000000000OTH                                         
022020070312463000014290700240CB000000000021CS0007951778091246300000014304700030JAVSSEA025030                                     WORLD'S MOST DANGEROUS ROADS (3) (HD) *8WORLD'S MOST DANGEROUS ROADS (3) (HD) *80003700009092430000100000000000000000000000000OTH                                         
022020070312463000014290700240CB000000000021CS0007955719141246300000014311700020SCCEMMA401020                                     WORLD'S MOST DANGEROUS ROADS (3) (HD) *8WORLD'S MOST DANGEROUS ROADS (3) (HD) *80003700009083880000100000000000000000000000000OTH                                         
022020070312463000014290700240CB000000000021CS0007955709771246300000014313700030EGPPGFB044030                                     WORLD'S MOST DANGEROUS ROADS (3) (HD) *8WORLD'S MOST DANGEROUS ROADS (3) (HD) *80003700009081440000300000000000000000000000000OTH                                         
022020070312463000014290700240CB000000000021CS0007945609271246300000014320700030TNTEIRB035030                                     WORLD'S MOST DANGEROUS ROADS (3) (HD) *8WORLD'S MOST DANGEROUS ROADS (3) (HD) *80003700000000000000000000000000000000000000000PEN                                         
022020070312463000014290700240CB000000000021CS0007955709751246300000014323700030SSCPGFY012030                                     WORLD'S MOST DANGEROUS ROADS (3) (HD) *8WORLD'S MOST DANGEROUS ROADS (3) (HD) *80003700009081300000300000000000000000000000000LST                                         
022020070312463000014442900240CB000000000022CS0007939369951246300000014442900010ROTTESC360010                                     WORLD'S MOST DANGEROUS ROADS (3) (HD) *8WORLD'S MOST DANGEROUS ROADS (3) (HD) *80003700009088320000100000000000000000000000000FST                                         
022020070312463000014442900240CB000000000022CS0007955706741246300000014443900040HNBIREL944040                                     WORLD'S MOST DANGEROUS ROADS (3) (HD) *8WORLD'S MOST DANGEROUS ROADS (3) (HD) *80003700009117940000100000000000000000000000000SND                                         
022020070312463000014442900240CB000000000022CS0007941890461246300000014451900030QMPVIRG024030                                     WORLD'S MOST DANGEROUS ROADS (3) (HD) *8WORLD'S MOST DANGEROUS ROADS (3) (HD) *80003700009092400000100000000000000000000000000OTH                                         
022020070312463000014442900240CB000000000022CS0007947479541246300000014454900030LKCBARN008030                                     WORLD'S MOST DANGEROUS ROADS (3) (HD) *8WORLD'S MOST DANGEROUS ROADS (3) (HD) *80003700009088370000100000000000000000000000000OTH                                         
022020070312463000014442900240CB000000000022CS0007955709571246300000014461900030MIFPGOB571030                                     WORLD'S MOST DANGEROUS ROADS (3) (HD) *8WORLD'S MOST DANGEROUS ROADS (3) (HD) *80003700009081720000300000000000000000000000000OTH                                         
022020070312463000014442900240CB000000000022CS0007955834691246300000014464900020CWWGARN037020                                     WORLD'S MOST DANGEROUS ROADS (3) (HD) *8WORLD'S MOST DANGEROUS ROADS (3) (HD) *80003700009085670000100000000000000000000000000OTH                                         
022020070312463000014442900240CB000000000022CS0007955682841246300000014470900020BBHWEYB091020                                     WORLD'S MOST DANGEROUS ROADS (3) (HD) *8WORLD'S MOST DANGEROUS ROADS (3) (HD) *80003700009075490000100000000000000000000000000OTH                                         
022020070312463000014442900240CB000000000022CS0007947479531246300000014472900030JMLSSRI002030                                     WORLD'S MOST DANGEROUS ROADS (3) (HD) *8WORLD'S MOST DANGEROUS ROADS (3) (HD) *80003700009097820000200000000000000000000000000PEN                                         
022020070312463000014442900240CB000000000022CS0007941710501246300000014475900030GRYVFBR661030                                     WORLD'S MOST DANGEROUS ROADS (3) (HD) *8WORLD'S MOST DANGEROUS ROADS (3) (HD) *80003700009083260000100000000000000000000000000LST                                         
022020070312463000015102700240CB000000000023CS0007941473691246300000015102700030SKYSBNT104030                                     RICK STEIN FROM VENICE TO ISTANBUL      RICK STEIN FROM VENICE TO ISTANBUL      0003700009085170000100000000000000000000000000FST                                         
022020070312463000015102700240CB000000000023CS0007939351461246300000015105700030IIBLIDL250030                                     RICK STEIN FROM VENICE TO ISTANBUL      RICK STEIN FROM VENICE TO ISTANBUL      0003700009084060000100000000000000000000000000SND                                         
022020070312463000015102700240CB000000000023CS0007955690131246300000015112700030BNGTHRN348030                                     RICK STEIN FROM VENICE TO ISTANBUL      RICK STEIN FROM VENICE TO ISTANBUL      0003700009081490000100000000000000000000000000OTH                                         
022020070312463000015102700240CB000000000023CS0007946601201246300000015115700030QMPRENA203030                                     RICK STEIN FROM VENICE TO ISTANBUL      RICK STEIN FROM VENICE TO ISTANBUL      0003700009092460000100000000000000000000000000OTH                                         
022020070312463000015102700240CB000000000023CS0007955694141246300000015122700030ROTESBB002030                                     RICK STEIN FROM VENICE TO ISTANBUL      RICK STEIN FROM VENICE TO ISTANBUL      0003700009133920000100000000000000000000000000OTH                                         
022020070312463000015102700240CB000000000023CS0007951680541246300000015125700030CAWHSEC046030                                     RICK STEIN FROM VENICE TO ISTANBUL      RICK STEIN FROM VENICE TO ISTANBUL      0003700009122830000100000000000000000000000000OTH                                         
022020070312463000015102700240CB000000000023CS0007953513841246300000015132700040BJFWMMH006040                                     RICK STEIN FROM VENICE TO ISTANBUL      RICK STEIN FROM VENICE TO ISTANBUL      0003700009131770000100000000000000000000000000PEN                                         
022020070312463000015102700240CB000000000023CS0007944012551246300000015140700020BURTSPK198020                                     RICK STEIN FROM VENICE TO ISTANBUL      RICK STEIN FROM VENICE TO ISTANBUL      0003700009076190000100000000000000000000000000LST                                         
022020070312463000015252300240CB000000000024CS0007941711491246300000015252300030GRYVFBR661030                                     RICK STEIN FROM VENICE TO ISTANBUL      RICK STEIN FROM VENICE TO ISTANBUL      0003700009083260000100000000000000000000000000FST                                         
022020070312463000015252300240CB000000000024CS0007955716061246300000015255300020SCCEMMA401020                                     RICK STEIN FROM VENICE TO ISTANBUL      RICK STEIN FROM VENICE TO ISTANBUL      0003700009083880000100000000000000000000000000SND                                         
022020070312463000015252300240CB000000000024CS0007941892151246300000015261300030QMPVIRG024030                                     RICK STEIN FROM VENICE TO ISTANBUL      RICK STEIN FROM VENICE TO ISTANBUL      0003700009092400000100000000000000000000000000OTH                                         
022020070312463000015252300240CB000000000024CS0007946388691246300000015264300030JAVSSEA025030                                     RICK STEIN FROM VENICE TO ISTANBUL      RICK STEIN FROM VENICE TO ISTANBUL      0003700009092430000100000000000000000000000000OTH                                         
022020070312463000015252300240CB000000000024CS0007938607091246300000015271300010MCEJEAT084010                                     RICK STEIN FROM VENICE TO ISTANBUL      RICK STEIN FROM VENICE TO ISTANBUL      0003700009077080000100000000000000000000000000OTH                                         
022020070312463000015252300240CB000000000024CS0007947481361246300000015272300030LKCTROC019030                                     RICK STEIN FROM VENICE TO ISTANBUL      RICK STEIN FROM VENICE TO ISTANBUL      0003700009088380000100000000000000000000000000OTH                                         
022020070312463000015252300240CB000000000024CS0007951623391246300000015275300040ODDSELE001040                                     RICK STEIN FROM VENICE TO ISTANBUL      RICK STEIN FROM VENICE TO ISTANBUL      0003700009092500000100000000000000000000000000OTH                                         
022020070312463000015252300240CB000000000024CS0007955700091246300000015283300030TAGHNIR075030                                     RICK STEIN FROM VENICE TO ISTANBUL      RICK STEIN FROM VENICE TO ISTANBUL      0003700009128670000100000000000000000000000000PEN                                         
022020070312463000015252300240CB000000000024CS0007939371541246300000015290300020ROTTESC356020                                     RICK STEIN FROM VENICE TO ISTANBUL      RICK STEIN FROM VENICE TO ISTANBUL      0003700009088310000100000000000000000000000000LST                                         
022020070312463000015425400240CB000000000025CS0007955681381246300000015425400030SSCPGOB006030                                     RICK STEIN FROM VENICE TO ISTANBUL      RICK STEIN FROM VENICE TO ISTANBUL      0003700009081660000300000000000000000000000000FST                                         
022020070312463000015425400240CB000000000025CS0007953520351246300000015432400020TAGSULZ003020                                     RICK STEIN FROM VENICE TO ISTANBUL      RICK STEIN FROM VENICE TO ISTANBUL      0003700009119960000100000000000000000000000000SND                                         
022020070312463000015425400240CB000000000025CS0007951677461246300000015434400030CAWHSEC046030                                     RICK STEIN FROM VENICE TO ISTANBUL      RICK STEIN FROM VENICE TO ISTANBUL      0003700009122830000100000000000000000000000000OTH                                         
022020070312463000015425400240CB000000000025CS0007951882421246300000015441400030LKCBARN008030                                     RICK STEIN FROM VENICE TO ISTANBUL      RICK STEIN FROM VENICE TO ISTANBUL      0003700009088370000100000000000000000000000000OTH                                         
022020070312463000015425400240CB000000000025CS0007955721511246300000015444400020HKXVACC017020                                     RICK STEIN FROM VENICE TO ISTANBUL      RICK STEIN FROM VENICE TO ISTANBUL      0003700009115410000100000000000000000000000000OTH                                         
022020070312463000015425400240CB000000000025CS0007948972581246300000015450400030IIBLIDL250030                                     RICK STEIN FROM VENICE TO ISTANBUL      RICK STEIN FROM VENICE TO ISTANBUL      0003700009084060000100000000000000000000000000OTH                                         
022020070312463000015425400240CB000000000025CS0007951624211246300000015453400030IIBVOLK079030                                     RICK STEIN FROM VENICE TO ISTANBUL      RICK STEIN FROM VENICE TO ISTANBUL      0003700009092510000100000000000000000000000000OTH                                         
022020070312463000015425400240CB000000000025CS0007955682731246300000015460400020BBHWEYB091020                                     RICK STEIN FROM VENICE TO ISTANBUL      RICK STEIN FROM VENICE TO ISTANBUL      0003700009075490000100000000000000000000000000PEN                                         
022020070312463000015425400240CB000000000025CS0007951647141246300000015462400030TNTEIRB035030                                     RICK STEIN FROM VENICE TO ISTANBUL      RICK STEIN FROM VENICE TO ISTANBUL      0003700000000000000000000000000000000000000000LST                                         
022020070312463000016104600240CB000000000026CS0007955703081246300000016104600030MIFPGOB571030                                     TOP GEAR (22) (HD)                      TOP GEAR (22) (HD)                      0003700009081720000300000000000000000000000000FST                                         
022020070312463000016104600240CB000000000026CS0007951738581246300000016111600020HKXAWBT001020                                     TOP GEAR (22) (HD)                      TOP GEAR (22) (HD)                      0003700009114960000100000000000000000000000000SND                                         
022020070312463000016104600240CB000000000026CS0007951792141246300000016113600030KRODSSS446030                                     TOP GEAR (22) (HD)                      TOP GEAR (22) (HD)                      0003700009118860000100000000000000000000000000OTH                                         
022020070312463000016104600240CB000000000026CS0007955703091246300000016120600030KCHFAIR001030                                     TOP GEAR (22) (HD)                      TOP GEAR (22) (HD)                      0003700009081310000300000000000000000000000000OTH                                         
022020070312463000016104600240CB000000000026CS0007955703101246300000016123600030SSCPGFY012030                                     TOP GEAR (22) (HD)                      TOP GEAR (22) (HD)                      0003700009081300000300000000000000000000000000OTH                                         
022020070312463000016104600240CB000000000026CS0007955703111246300000016130600030BURTLEN009030                                     TOP GEAR (22) (HD)                      TOP GEAR (22) (HD)                      0003700009081610000300000000000000000000000000OTH                                         
022020070312463000016104600240CB000000000026CS0007955834471246300000016133600020CWWGARN038020                                     TOP GEAR (22) (HD)                      TOP GEAR (22) (HD)                      0003700009085670000100000000000000000000000000OTH                                         
022020070312463000016104600240CB000000000026CS0007955835991246300000016135600020HKXFNQT010020                                     TOP GEAR (22) (HD)                      TOP GEAR (22) (HD)                      0003700009115180000100000000000000000000000000PEN                                         
022020070312463000016104600240CB000000000026CS0007951589591246300000016141600030TAGHNIR075030                                     TOP GEAR (22) (HD)                      TOP GEAR (22) (HD)                      0003700009128670000100000000000000000000000000LST                                         
022020070312463000016324300240CB000000000027CS0007955708731246300000016324300040HNBIREL944040                                     TOP GEAR (22) (HD)                      TOP GEAR (22) (HD)                      0003700009117940000100000000000000000000000000FST                                         
022020070312463000016324300240CB000000000027CS0007955699891246300000016332300030FOWSKYI158030                                     TOP GEAR (22) (HD)                      TOP GEAR (22) (HD)                      0003700009085030000100000000000000000000000000SND                                         
022020070312463000016324300240CB000000000027CS0007951513411246300000016335300030CAWHSEC046030                                     TOP GEAR (22) (HD)                      TOP GEAR (22) (HD)                      0003700009122830000100000000000000000000000000OTH                                         
022020070312463000016324300240CB000000000027CS0007951929831246300000016342300030LKCBARN008030                                     TOP GEAR (22) (HD)                      TOP GEAR (22) (HD)                      0003700009088370000100000000000000000000000000OTH                                         
022020070312463000016324300240CB000000000027CS0007955719951246300000016345300020HKXVACC018020                                     TOP GEAR (22) (HD)                      TOP GEAR (22) (HD)                      0003700009115410000100000000000000000000000000OTH                                         
022020070312463000016324300240CB000000000027CS0007953471101246300000016351300030ROTESBB002030                                     TOP GEAR (22) (HD)                      TOP GEAR (22) (HD)                      0003700009133920000100000000000000000000000000OTH                                         
022020070312463000016324300240CB000000000027CS0007951611251246300000016354300030QMPRENA201030                                     TOP GEAR (22) (HD)                      TOP GEAR (22) (HD)                      0003700009074210000300000000000000000000000000PEN                                         
022020070312463000016324300240CB000000000027CS0007948950041246300000016361300030IIBLIDL251030                                     TOP GEAR (22) (HD)                      TOP GEAR (22) (HD)                      0003700009083730000100000000000000000000000000LST                                         
022020070312463000016472700240EB000000000028CS0007946376761246300000016472700010ROTEIRE011010                                     TOP GEAR (22) (HD)                      TOP GEAR (22) (HD)                      0003700009095270000200000000000000000000000000FST                                         
022020070312463000016472700240EB000000000028CS0007955699751246300000016473700030TAGHNIR075030                                     TOP GEAR (22) (HD)                      TOP GEAR (22) (HD)                      0003700009128670000100000000000000000000000000SND                                         
022020070312463000016472700240EB000000000028CS0007946042921246300000016480700030FOWSKYI158030                                     TOP GEAR (22) (HD)                      TOP GEAR (22) (HD)                      0003700009085080000100000000000000000000000000OTH                                         
022020070312463000016472700240EB000000000028CS0007955719361246300000016483700010MCEJEAT084010                                     TOP GEAR (22) (HD)                      TOP GEAR (22) (HD)                      0003700009077080000100000000000000000000000000OTH                                         
022020070312463000016472700240EB000000000028CS0007950039711246300000016484700030VSTQTDV015030                                     TOP GEAR (22) (HD)                      TOP GEAR (22) (HD)                      0003700000000000000000000000000000000000000000OTH                                         
022020070312463000016472700240EB000000000028CS0007953573491246300000016491700040BJFWMMH006040                                     TOP GEAR (22) (HD)                      TOP GEAR (22) (HD)                      0003700009131770000100000000000000000000000000OTH                                         
022020070312463000016472700240EB000000000028CS0007955693221246300000016495700030BNGTHRN348030                                     TOP GEAR (22) (HD)                      TOP GEAR (22) (HD)                      0003700009081490000100000000000000000000000000OTH                                         
022020070312463000016472700240EB000000000028CS0007946600511246300000016502700030IIBVOLK078030                                     TOP GEAR (22) (HD)                      TOP GEAR (22) (HD)                      0003700009092510000100000000000000000000000000PEN                                         
022020070312463000016472700240EB000000000028CS0007945700641246300000016505700030GRYBKID008030                                     TOP GEAR (22) (HD)                      TOP GEAR (22) (HD)                      0003700009082980000100000000000000000000000000LST                                         
022020070312463000017140900240CB000000000029CS0007941422901246300000017140900030SKYSBNT104030                                     TOP GEAR (22) (HD)                      TOP GEAR (22) (HD)                      0003700009085170000100000000000000000000000000FST                                         
022020070312463000017140900240CB000000000029CS0007939475701246300000017143900040CAWSVOB045040                                     TOP GEAR (22) (HD)                      TOP GEAR (22) (HD)                      0003700009085210000200000000000000000000000000SND                                         
022020070312463000017140900240CB000000000029CS0007946459011246300000017151900040QMPAXAN109040                                     TOP GEAR (22) (HD)                      TOP GEAR (22) (HD)                      0003700009060120000100000000000000000000000000OTH                                         
022020070312463000017140900240CB000000000029CS0007946368941246300000017155900020BNGENEG323020                                     TOP GEAR (22) (HD)                      TOP GEAR (22) (HD)                      0003700009064930000100000000000000000000000000OTH                                         
022020070312463000017140900240CB000000000029CS0007944419231246300000017161900010VCCDOMN197010                                     TOP GEAR (22) (HD)                      TOP GEAR (22) (HD)                      0003700009122090000100000000000000000000000000OTH                                         
022020070312463000017140900240CB000000000029CS0007955834391246300000017162900020CWWGARN037020                                     TOP GEAR (22) (HD)                      TOP GEAR (22) (HD)                      0003700009085670000100000000000000000000000000OTH                                         
022020070312463000017140900240CB000000000029CS0007955798601246300000017164900030MCEPRKI007030                                     TOP GEAR (22) (HD)                      TOP GEAR (22) (HD)                      0003700009125150000200000000000000000000000000OTH                                         
022020070312463000017140900240CB000000000029CS0007946732061246300000017171900020TAGSULZ003020                                     TOP GEAR (22) (HD)                      TOP GEAR (22) (HD)                      0003700009119960000100000000000000000000000000OTH                                         
022020070312463000017140900240CB000000000029CS0007939475711246300000017173900020IPCSVFM172020                                     TOP GEAR (22) (HD)                      TOP GEAR (22) (HD)                      0003700009085210000200000000000000000000000000PEN                                         
022020070312463000017140900240CB000000000029CS0007941866101246300000017175900010SLHFELH005010                                     TOP GEAR (22) (HD)                      TOP GEAR (22) (HD)                      0003700009051080000100000000000000000000000000LST                                         
022020070312463000017271800240CB000000000030CS0007951677871246300000017271800030CAWHSEC046030                                     TOP GEAR (22) (HD)                      TOP GEAR (22) (HD)                      0003700009122830000100000000000000000000000000FST                                         
022020070312463000017271800240CB000000000030CS0007955710221246300000017274800030KCHFAIR001030                                     TOP GEAR (22) (HD)                      TOP GEAR (22) (HD)                      0003700009081310000300000000000000000000000000SND                                         
022020070312463000017271800240CB000000000030CS0007946040621246300000017281800030FOWSKYI158030                                     TOP GEAR (22) (HD)                      TOP GEAR (22) (HD)                      0003700009085080000100000000000000000000000000OTH                                         
022020070312463000017271800240CB000000000030CS0007939149561246300000017284800030VSTQTDV015030                                     TOP GEAR (22) (HD)                      TOP GEAR (22) (HD)                      0003700000000000000000000000000000000000000000OTH                                         
022020070312463000017271800240CB000000000030CS0007955710231246300000017291800030BURTLEN009030                                     TOP GEAR (22) (HD)                      TOP GEAR (22) (HD)                      0003700009081610000300000000000000000000000000OTH                                         
022020070312463000017271800240CB000000000030CS0007946608591246300000017294800030IIBVOLK079030                                     TOP GEAR (22) (HD)                      TOP GEAR (22) (HD)                      0003700009092510000100000000000000000000000000OTH                                         
022020070312463000017271800240CB000000000030CS0007955710241246300000017301800030SSCPGFY012030                                     TOP GEAR (22) (HD)                      TOP GEAR (22) (HD)                      0003700009081300000300000000000000000000000000PEN                                         
022020070312463000017271800240CB000000000030CS0007955710211246300000017304800030MIFPGOB571030                                     TOP GEAR (22) (HD)                      TOP GEAR (22) (HD)                      0003700009081720000300000000000000000000000000LST                                         
022020070312463000017422900240CB000000000031CS0007941711201246300000017422900030GRYVFBR661030                                     TOP GEAR (22) (HD)                      TOP GEAR (22) (HD)                      0003700009083260000100000000000000000000000000FST                                         
022020070312463000017422900240CB000000000031CS0007943970491246300000017425900030CWWLORE074030                                     TOP GEAR (22) (HD)                      TOP GEAR (22) (HD)                      0003700009085710000100000000000000000000000000SND                                         
022020070312463000017422900240CB000000000031CS0007946744111246300000017432900020TAGSULZ003020                                     TOP GEAR (22) (HD)                      TOP GEAR (22) (HD)                      0003700009119960000100000000000000000000000000OTH                                         
022020070312463000017422900240CB000000000031CS0007941891851246300000017434900030BNGTHRN348030                                     TOP GEAR (22) (HD)                      TOP GEAR (22) (HD)                      0003700009081490000100000000000000000000000000OTH                                         
022020070312463000017422900240CB000000000031CS0007955694171246300000017441900040BJFWMMH006040                                     TOP GEAR (22) (HD)                      TOP GEAR (22) (HD)                      0003700009131770000100000000000000000000000000OTH                                         
022020070312463000017422900240CB000000000031CS0007951916491246300000017445900030LKCBARN008030                                     TOP GEAR (22) (HD)                      TOP GEAR (22) (HD)                      0003700009088370000100000000000000000000000000OTH                                         
022020070312463000017422900240CB000000000031CS0007946692401246300000017452900030KCSPEUG112030                                     TOP GEAR (22) (HD)                      TOP GEAR (22) (HD)                      0003700009085540000100000000000000000000000000PEN                                         
022020070312463000017422900240CB000000000031CS0007941442161246300000017455900030SKYSBNT104030                                     TOP GEAR (22) (HD)                      TOP GEAR (22) (HD)                      0003700009085170000100000000000000000000000000LST                                         
022020070312463000018145200240CB000000000032CS0007951674101246300000018145200030TNTEIRB035030                                     TASKMASTER (9)                          TASKMASTER (9)                          0003700000000000000000000000000000000000000000FST                                         
022020070312463000018145200240CB000000000032CS0007939537001246300000018152200030IIBLIDL250030                                     TASKMASTER (9)                          TASKMASTER (9)                          0003700009084060000100000000000000000000000000SND                                         
022020070312463000018145200240CB000000000032CS0007951940781246300000018155200030JAVSSEA025030                                     TASKMASTER (9)                          TASKMASTER (9)                          0003700009092430000100000000000000000000000000OTH                                         
022020070312463000018145200240CB000000000032CS0007951747931246300000018162200030ROTFLTE034030                                     TASKMASTER (9)                          TASKMASTER (9)                          0003700009126570000100000000000000000000000000OTH                                         
022020070312463000018145200240CB000000000032CS0007951953381246300000018165200030HOGPGOL472030                                     TASKMASTER (9)                          TASKMASTER (9)                          0003700009081650000300000000000000000000000000OTH                                         
022020070312463000018145200240CB000000000032CS0007951945481246300000018172200030QMPRENA201030                                     TASKMASTER (9)                          TASKMASTER (9)                          0003700009074210000300000000000000000000000000OTH                                         
022020070312463000018145200240CB000000000032CS0007951756581246300000018175200020BBHWEYB091020                                     TASKMASTER (9)                          TASKMASTER (9)                          0003700009075490000100000000000000000000000000PEN                                         
022020070312463000018145200240CB000000000032CS0007955705671246300000018181200040HNBIREL944040                                     TASKMASTER (9)                          TASKMASTER (9)                          0003700009117940000100000000000000000000000000LST                                         
022020070312463000018284300240CB000000000033CS0007951515401246300000018284300030CAWHSEC046030                                     TASKMASTER (9)                          TASKMASTER (9)                          0003700009122830000100000000000000000000000000FST                                         
022020070312463000018284300240CB000000000033CS0007948935951246300000018291300030MCMASSS936030                                     TASKMASTER (9)                          TASKMASTER (9)                          0003700009108210000100000000000000000000000000SND                                         
022020070312463000018284300240CB000000000033CS0007951853651246300000018294300020HPSRGAV006020                                     TASKMASTER (9)                          TASKMASTER (9)                          0003700009115250000100000000000000000000000000OTH                                         
022020070312463000018284300240CB000000000033CS0007951591581246300000018300300030TAGHNIR075030                                     TASKMASTER (9)                          TASKMASTER (9)                          0003700009128670000100000000000000000000000000OTH                                         
022020070312463000018284300240CB000000000033CS0007951692491246300000018303300040BJFWMMH006040                                     TASKMASTER (9)                          TASKMASTER (9)                          0003700009131770000100000000000000000000000000OTH                                         
022020070312463000018284300240CB000000000033CS0007938530041246300000018311300030ROTESBB002030                                     TASKMASTER (9)                          TASKMASTER (9)                          0003700009133920000100000000000000000000000000OTH                                         
022020070312463000018284300240CB000000000033CS0007951853661246300000018314300020TAGNUIE588020                                     TASKMASTER (9)                          TASKMASTER (9)                          0003700009115350000100000000000000000000000000OTH                                         
022020070312463000018284300240CB000000000033CS0007951754091246300000018320300020BONBENE008020                                     TASKMASTER (9)                          TASKMASTER (9)                          0003700009092470000100000000000000000000000000PEN                                         
022020070312463000018284300240CB000000000033CS0007955717331246300000018322300020SCCEMMA401020                                     TASKMASTER (9)                          TASKMASTER (9)                          0003700009083880000100000000000000000000000000LST                                         
022020070312463000018454400240CB000000000034CS0007941892681246300000018454400030BNGTHRN348030                                     TASKMASTER (9)                          TASKMASTER (9)                          0003700009081490000100000000000000000000000000FST                                         
022020070312463000018454400240CB000000000034CS0007943944151246300000018461400030HOGKLML069030                                     TASKMASTER (9)                          TASKMASTER (9)                          0003700009083930000100000000000000000000000000SND                                         
022020070312463000018454400240CB000000000034CS0007938534951246300000018464400030ROTESBB002030                                     TASKMASTER (9)                          TASKMASTER (9)                          0003700009133920000100000000000000000000000000OTH                                         
022020070312463000018454400240CB000000000034CS0007943911561246300000018471400030IIBRSAC144030                                     TASKMASTER (9)                          TASKMASTER (9)                          0003700009114010000100000000000000000000000000OTH                                         
022020070312463000018454400240CB000000000034CS0007943971291246300000018474400020CWWGARN041020                                     TASKMASTER (9)                          TASKMASTER (9)                          0003700009085660000100000000000000000000000000OTH                                         
022020070312463000018454400240CB000000000034CS0007943944171246300000018480400020AEDUNSF291020                                     TASKMASTER (9)                          TASKMASTER (9)                          0003700009099100000100000000000000000000000000OTH                                         
022020070312463000018454400240CB000000000034CS0007941455901246300000018482400030TNTEIRB035030                                     TASKMASTER (9)                          TASKMASTER (9)                          0003700000000000000000000000000000000000000000OTH                                         
022020070312463000018454400240CB000000000034CS0007951604371246300000018485400020SLHINTM001020                                     TASKMASTER (9)                          TASKMASTER (9)                          0003700009092480000100000000000000000000000000PEN                                         
022020070312463000018454400240CB000000000034CS0007939333561246300000018491400030IIBLIDL250030                                     TASKMASTER (9)                          TASKMASTER (9)                          0003700009084060000100000000000000000000000000LST                                         
022020070312463000019190700300CB000000000035CS0007945701451246300000019190700030GRYBKID008030                                     RICHARD OSMAN'S HOUSE OF GAMES (02)     RICHARD OSMAN'S HOUSE OF GAMES (02)     0003700009082980000100000000000000000000000000FST                                         
022020070312463000019190700300CB000000000035CS0007955769901246300000019193700010SCCEMMA401010                                     RICHARD OSMAN'S HOUSE OF GAMES (02)     RICHARD OSMAN'S HOUSE OF GAMES (02)     0003700009083960000100000000000000000000000000SND                                         
022020070312463000019190700300CB000000000035CS0007946601091246300000019194700030QMPRENA201030                                     RICHARD OSMAN'S HOUSE OF GAMES (02)     RICHARD OSMAN'S HOUSE OF GAMES (02)     0003700009074210000300000000000000000000000000OTH                                         
022020070312463000019190700300CB000000000035CS0007948642841246300000019201700030MCEPRKI007030                                     RICHARD OSMAN'S HOUSE OF GAMES (02)     RICHARD OSMAN'S HOUSE OF GAMES (02)     0003700009125150000200000000000000000000000000OTH                                         
022020070312463000019190700300CB000000000035CS0007951678451246300000019204700030CAWHSEC046030                                     RICHARD OSMAN'S HOUSE OF GAMES (02)     RICHARD OSMAN'S HOUSE OF GAMES (02)     0003700009122830000100000000000000000000000000OTH                                         
022020070312463000019190700300CB000000000035CS0007951746611246300000019211700030CNYHMCI128030                                     RICHARD OSMAN'S HOUSE OF GAMES (02)     RICHARD OSMAN'S HOUSE OF GAMES (02)     0003700009070830000100000000000000000000000000OTH                                         
022020070312463000019190700300CB000000000035CS0007948909921246300000019214700010VCCDOMN197010                                     RICHARD OSMAN'S HOUSE OF GAMES (02)     RICHARD OSMAN'S HOUSE OF GAMES (02)     0003700009122090000100000000000000000000000000OTH                                         
022020070312463000019190700300CB000000000035CS0007946043031246300000019215700030FOWSKYI158030                                     RICHARD OSMAN'S HOUSE OF GAMES (02)     RICHARD OSMAN'S HOUSE OF GAMES (02)     0003700009085080000100000000000000000000000000OTH                                         
022020070312463000019190700300CB000000000035CS0007946377561246300000019222700010ROTEIRE011010                                     RICHARD OSMAN'S HOUSE OF GAMES (02)     RICHARD OSMAN'S HOUSE OF GAMES (02)     0003700009095270000200000000000000000000000000OTH                                         
022020070312463000019190700300CB000000000035CS0007946340181246300000019223700030MCENESP713030                                     RICHARD OSMAN'S HOUSE OF GAMES (02)     RICHARD OSMAN'S HOUSE OF GAMES (02)     0003700009088300000200000000000000000000000000OTH                                         
022020070312463000019190700300CB000000000035CS0007951600441246300000019230700030TAGHNIR075030                                     RICHARD OSMAN'S HOUSE OF GAMES (02)     RICHARD OSMAN'S HOUSE OF GAMES (02)     0003700009128670000100000000000000000000000000PEN                                         
022020070312463000019190700300CB000000000035CS0007939431811246300000019233700030MCMASSS936030                                     RICHARD OSMAN'S HOUSE OF GAMES (02)     RICHARD OSMAN'S HOUSE OF GAMES (02)     0003700009108210000100000000000000000000000000LST                                         
022020070312463000019365800120EB000000000036CS0007944054161246300000019365800020BURTSPK198020                                     RICHARD OSMAN'S HOUSE OF GAMES (02)     QI (12)                                 0003700009076190000100000000000000000000000000FST                                         
022020070312463000019365800120EB000000000036CS0007939374621246300000019371800030IIBLIDL250030                                     RICHARD OSMAN'S HOUSE OF GAMES (02)     QI (12)                                 0003700009084060000100000000000000000000000000SND                                         
022020070312463000019365800120EB000000000036CS0007938544281246300000019374800030ROTESBB002030                                     RICHARD OSMAN'S HOUSE OF GAMES (02)     QI (12)                                 0003700009133920000100000000000000000000000000OTH                                         
022020070312463000019365800120EB000000000036CS0007947239591246300000019381800020YRLBELB007020                                     RICHARD OSMAN'S HOUSE OF GAMES (02)     QI (12)                                 0003700009076940000100000000000000000000000000PEN                                         
022020070312463000019365800120EB000000000036CS0007951733591246300000019383800020CWWGARN038020                                     RICHARD OSMAN'S HOUSE OF GAMES (02)     QI (12)                                 0003700009085670000100000000000000000000000000LST                                         
022020070312463000019545700300CB000000000037CS0007955769881246300000019545700010SCCEMMA401010                                     QI (12)                                 QI (12)                                 0003700009083960000100000000000000000000000000FST                                         
022020070312463000019545700300CB000000000037CS0007946340141246300000019550700030MCENESP713030                                     QI (12)                                 QI (12)                                 0003700009088300000200000000000000000000000000SND                                         
022020070312463000019545700300CB000000000037CS0007946376991246300000019553700030ROTEIRE006030                                     QI (12)                                 QI (12)                                 0003700009095270000200000000000000000000000000OTH                                         
022020070312463000019545700300CB000000000037CS0007948642781246300000019560700030MCEPRKI007030                                     QI (12)                                 QI (12)                                 0003700009125150000200000000000000000000000000OTH                                         
022020070312463000019545700300CB000000000037CS0007945701031246300000019563700030GRYBKID008030                                     QI (12)                                 QI (12)                                 0003700009082980000100000000000000000000000000OTH                                         
022020070312463000019545700300CB000000000037CS0007946042561246300000019570700030FOWSKYI158030                                     QI (12)                                 QI (12)                                 0003700009085080000100000000000000000000000000OTH                                         
022020070312463000019545700300CB000000000037CS0007943911401246300000019573700030IIBRSAC144030                                     QI (12)                                 QI (12)                                 0003700009114010000100000000000000000000000000OTH                                         
022020070312463000019545700300CB000000000037CS0007948928951246300000019580700030MCMASSS936030                                     QI (12)                                 QI (12)                                 0003700009108210000100000000000000000000000000OTH                                         
022020070312463000019545700300CB000000000037CS0007946600751246300000019583700030IIBVOLK079030                                     QI (12)                                 QI (12)                                 0003700009092510000100000000000000000000000000OTH                                         
022020070312463000019545700300CB000000000037CS0007951760231246300000019590700020BBHWEYB091020                                     QI (12)                                 QI (12)                                 0003700009075490000100000000000000000000000000PEN                                         
022020070312463000019545700300CB000000000037CS0007955693091246300000019592700030BNGTHRN348030                                     QI (12)                                 QI (12)                                 0003700009081490000100000000000000000000000000LST                                         
022020070312463000020152100210EB000000000038CS0007939418091246300000020152100030MCMASSS935030                                     QI (12)                                 QI (12)                                 0003700009108210000100000000000000000000000000FST                                         
022020070312463000020152100210EB000000000038CS0007946605301246300000020155100030KCSPEUG112030                                     QI (12)                                 QI (12)                                 0003700009085540000100000000000000000000000000SND                                         
022020070312463000020152100210EB000000000038CS0007945643731246300000020162100030TNTEIRB035030                                     QI (12)                                 QI (12)                                 0003700000000000000000000000000000000000000000OTH                                         
022020070312463000020152100210EB000000000038CS0007951763241246300000020165100020SLHINTM001020                                     QI (12)                                 QI (12)                                 0003700009092480000100000000000000000000000000OTH                                         
022020070312463000020152100210EB000000000038CS0007948937141246300000020171100010VCCDOMN197010                                     QI (12)                                 QI (12)                                 0003700009122090000100000000000000000000000000OTH                                         
022020070312463000020152100210EB000000000038CS0007951678431246300000020172100030CAWHSEC046030                                     QI (12)                                 QI (12)                                 0003700009122830000100000000000000000000000000OTH                                         
022020070312463000020152100210EB000000000038CS0007951693151246300000020175100040BJFWMMH006040                                     QI (12)                                 QI (12)                                 0003700009131770000100000000000000000000000000PEN                                         
022020070312463000020152100210EB000000000038CS0007944033411246300000020183100020CWWGARN041020                                     QI (12)                                 QI (12)                                 0003700009085660000100000000000000000000000000LST                                         
022020070312463000020342200300CB000000000039CS0007946624081246300000020342200030QMPRENA203030                                     QI (12)                                 QI (12)                                 0003700009092460000100000000000000000000000000FST                                         
022020070312463000020342200300CB000000000039CS0007955676091246300000020345200030KCHFAIR001030                                     QI (12)                                 QI (12)                                 0003700009081310000300000000000000000000000000SND                                         
022020070312463000020342200300CB000000000039CS0007955770001246300000020352200010SCCEMMA401010                                     QI (12)                                 QI (12)                                 0003700009083960000100000000000000000000000000OTH                                         
022020070312463000020342200300CB000000000039CS0007938485981246300000020353200030ROTESBB002030                                     QI (12)                                 QI (12)                                 0003700009133920000100000000000000000000000000OTH                                         
022020070312463000020342200300CB000000000039CS0007951821081246300000020360200020SSCPGVE004020                                     QI (12)                                 QI (12)                                 0003700009082010000300000000000000000000000000OTH                                         
022020070312463000020342200300CB000000000039CS0007951747331246300000020362200030ROTFLTE034030                                     QI (12)                                 QI (12)                                 0003700009126570000100000000000000000000000000OTH                                         
022020070312463000020342200300CB000000000039CS0007941638151246300000020365200030SKYSBNT104030                                     QI (12)                                 QI (12)                                 0003700009085170000100000000000000000000000000OTH                                         
022020070312463000020342200300CB000000000039CS0007948887641246300000020372200020HOGBACA937020                                     QI (12)                                 QI (12)                                 0003700009084850000100000000000000000000000000OTH                                         
022020070312463000020342200300CB000000000039CS0007948718211246300000020374200030MCEPRKI007030                                     QI (12)                                 QI (12)                                 0003700009125150000200000000000000000000000000OTH                                         
022020070312463000020342200300CB000000000039CS0007943911311246300000020381200030IIBRSAC144030                                     QI (12)                                 QI (12)                                 0003700009114010000100000000000000000000000000OTH                                         
022020070312463000020342200300CB000000000039CS0007951740761246300000020384200020HKXAWBT001020                                     QI (12)                                 QI (12)                                 0003700009114960000100000000000000000000000000PEN                                         
