01Spot      FoodNet   030020210218202102191939300409720210218.DCL   04097000000000000000000000000000000000000000000000000000000000000000000000000000000000000000000000000000000000000000000000000000000000000000000000000000000000000000000000000000000000000000000000000000003.5A                          
022021021804097000007133200180CB000000000068CS0008299965100409700000007133200010HYHFARM006010                                     VALERIE'S HOME COOKING (SEASON 7)       VALERIE'S HOME COOKING (SEASON 7)       0003700009588590000100000000000000000000000000FST                                         
022021021804097000007133200180CB000000000068CS0008284373760409700000007134200030VNDNOOM021030                                     VALERIE'S HOME COOKING (SEASON 7)       VALERIE'S HOME COOKING (SEASON 7)       0003700009680700000100000000000000000000000000SND                                         
022021021804097000007133200180CB000000000068CS0008299152870409700000007141200030HCLALLB004030                                     VALERIE'S HOME COOKING (SEASON 7)       VALERIE'S HOME COOKING (SEASON 7)       0003700009510640000100000000000000000000000000OTH                                         
022021021804097000007133200180CB000000000068CS0008299965060409700000007144200030HOMMBWS546030                                     VALERIE'S HOME COOKING (SEASON 7)       VALERIE'S HOME COOKING (SEASON 7)       0003700009502680000100000000000000000000000000OTH                                         
022021021804097000007133200180CB000000000068CS0008299915200409700000007151200020GUUPCCW001020                                     VALERIE'S HOME COOKING (SEASON 7)       VALERIE'S HOME COOKING (SEASON 7)       0003700009504250000100000000000000000000000000OTH                                         
022021021804097000007133200180CB000000000068CS0008262573060409700000007153200030GCHKNBF005030                                     VALERIE'S HOME COOKING (SEASON 7)       VALERIE'S HOME COOKING (SEASON 7)       0003700009644560000100000000000000000000000000PEN                                         
022021021804097000007133200180CB000000000068CS0008298985930409700000007160200030SVMECHO001030                                     VALERIE'S HOME COOKING (SEASON 7)       VALERIE'S HOME COOKING (SEASON 7)       0003700009584760000100000000000000000000000000LST                                         
022021021804097000007262400180EB000000000069CS0008253725060409700000007262400060HCLSAUD005060                                     VALERIE'S HOME COOKING (SEASON 7)       VALERIE'S HOME COOKING (SEASON 7)       0003700000000000000000000000000000000000000000FST                                         
022021021804097000007262400180EB000000000069CS0008255583800409700000007272400030BDUPBEE009030                                     VALERIE'S HOME COOKING (SEASON 7)       VALERIE'S HOME COOKING (SEASON 7)       0003700009601030000300000000000000000000000000SND                                         
022021021804097000007262400180EB000000000069CS0008255792130409700000007275400030ABFBOTB012030                                     VALERIE'S HOME COOKING (SEASON 7)       VALERIE'S HOME COOKING (SEASON 7)       0003700009600260000100000000000000000000000000OTH                                         
022021021804097000007262400180EB000000000069CS0008255583790409700000007282400030IFNPETV001030                                     VALERIE'S HOME COOKING (SEASON 7)       VALERIE'S HOME COOKING (SEASON 7)       0003700009625880000100000000000000000000000000PEN                                         
022021021804097000007262400180EB000000000069CS0008292937670409700000007285400030CTVWLHH004030                                     VALERIE'S HOME COOKING (SEASON 7)       VALERIE'S HOME COOKING (SEASON 7)       0003700009685050000100000000000000000000000000LST                                         
022021021804097000007433000180CB000000000070CS0008298985980409700000007433000030SVMECHO001030                                     VALERIE'S HOME COOKING (SEASON 7)       VALERIE'S HOME COOKING (SEASON 7)       0003700009584760000100000000000000000000000000FST                                         
022021021804097000007433000180CB000000000070CS0008284407940409700000007440000030NOONOOM003030                                     VALERIE'S HOME COOKING (SEASON 7)       VALERIE'S HOME COOKING (SEASON 7)       0003700009680700000100000000000000000000000000SND                                         
022021021804097000007433000180CB000000000070CS0008266282220409700000007443000030GCHKNBF005030                                     VALERIE'S HOME COOKING (SEASON 7)       VALERIE'S HOME COOKING (SEASON 7)       0003700009644560000100000000000000000000000000OTH                                         
022021021804097000007433000180CB000000000070CS0008253725090409700000007450000010HCLSAUD007010                                     VALERIE'S HOME COOKING (SEASON 7)       VALERIE'S HOME COOKING (SEASON 7)       0003700000000000000000000000000000000000000000OTH                                         
022021021804097000007433000180CB000000000070CS0008299966560409700000007451000010HYHFARM006010                                     VALERIE'S HOME COOKING (SEASON 7)       VALERIE'S HOME COOKING (SEASON 7)       0003700009588590000100000000000000000000000000OTH                                         
022021021804097000007433000180CB000000000070CS0008255583840409700000007452000010PACNVPN008010                                     VALERIE'S HOME COOKING (SEASON 7)       VALERIE'S HOME COOKING (SEASON 7)       0003700009577650000200000000000000000000000000OTH                                         
022021021804097000007433000180CB000000000070CS0008292908760409700000007453000030HHPOFWD007030                                     VALERIE'S HOME COOKING (SEASON 7)       VALERIE'S HOME COOKING (SEASON 7)       0003700009648310000300000000000000000000000000PEN                                         
022021021804097000007433000180CB000000000070CS0008300063390409700000007460000030MUDITMI001030                                     VALERIE'S HOME COOKING (SEASON 7)       VALERIE'S HOME COOKING (SEASON 7)       0003700009637520000100000000000000000000000000LST                                         
022021021804097000007564500180EB000000000071CS0008255489170409700000007564500030ITPWWDT002030                                     VALERIE'S HOME COOKING (SEASON 7)       GIADA ENTERTAINS (SEASON 2)             0003700009580670000100000000000000000000000000FST                                         
022021021804097000007564500180EB000000000071CS0008299645320409700000007571500030HHPOFWD007030                                     VALERIE'S HOME COOKING (SEASON 7)       GIADA ENTERTAINS (SEASON 2)             0003700009648310000300000000000000000000000000SND                                         
022021021804097000007564500180EB000000000071CS0008255583770409700000007574500030RTNFIVR001030                                     VALERIE'S HOME COOKING (SEASON 7)       GIADA ENTERTAINS (SEASON 2)             0003700009644380000100000000000000000000000000OTH                                         
022021021804097000007564500180EB000000000071CS0008299909800409700000007581500030HYHOLIO003030                                     VALERIE'S HOME COOKING (SEASON 7)       GIADA ENTERTAINS (SEASON 2)             0003700000000000000000000000000000000000000000OTH                                         
022021021804097000007564500180EB000000000071CS0008255583780409700000007584500030IFNPETV001030                                     VALERIE'S HOME COOKING (SEASON 7)       GIADA ENTERTAINS (SEASON 2)             0003700009625880000100000000000000000000000000PEN                                         
022021021804097000007564500180EB000000000071CS0008255583760409700000007591500030SCCWOEG003030                                     VALERIE'S HOME COOKING (SEASON 7)       GIADA ENTERTAINS (SEASON 2)             0003700009625950000200000000000000000000000000LST                                         
022021021804097000008112800180CB000000000002CS0008300063370409700000008112800030MUDITDE001030                                     GIADA ENTERTAINS (SEASON 2)             GIADA ENTERTAINS (SEASON 2)             0003700009637520000100000000000000000000000000FST                                         
022021021804097000008112800180CB000000000002CS0008262573040409700000008115800030BDUPBEE017030                                     GIADA ENTERTAINS (SEASON 2)             GIADA ENTERTAINS (SEASON 2)             0003700009601030000300000000000000000000000000SND                                         
022021021804097000008112800180CB000000000002CS0008224306600409700000008122800030HCLSAUD006030                                     GIADA ENTERTAINS (SEASON 2)             GIADA ENTERTAINS (SEASON 2)             0003700000000000000000000000000000000000000000OTH                                         
022021021804097000008112800180CB000000000002CS0008224350740409700000008125800030PFSLEGA006030                                     GIADA ENTERTAINS (SEASON 2)             GIADA ENTERTAINS (SEASON 2)             0003700009536420000200000000000000000000000000OTH                                         
022021021804097000008112800180CB000000000002CS0008298976330409700000008132800030SVMECHO001030                                     GIADA ENTERTAINS (SEASON 2)             GIADA ENTERTAINS (SEASON 2)             0003700009584760000100000000000000000000000000PEN                                         
022021021804097000008112800180CB000000000002CS0008292765930409700000008135800030AEDLLDS112030                                     GIADA ENTERTAINS (SEASON 2)             GIADA ENTERTAINS (SEASON 2)             0003700009540480000100000000000000000000000000LST                                         
022021021804097000008262300180EB000000000003CS0008299965070409700000008262300030HOMMBWS546030                                     GIADA ENTERTAINS (SEASON 2)             GIADA ENTERTAINS (SEASON 3)             0003700009502680000100000000000000000000000000FST                                         
022021021804097000008262300180EB000000000003CS0008232013790409700000008265300030GUSTIDE018030                                     GIADA ENTERTAINS (SEASON 2)             GIADA ENTERTAINS (SEASON 3)             0003700009614460000300000000000000000000000000SND                                         
022021021804097000008262300180EB000000000003CS0008265673010409700000008272300030WLCAVSD001030                                     GIADA ENTERTAINS (SEASON 2)             GIADA ENTERTAINS (SEASON 3)             0003700009651210000200000000000000000000000000OTH                                         
022021021804097000008262300180EB000000000003CS0008231424530409700000008275300030PPLPPLC027030                                     GIADA ENTERTAINS (SEASON 2)             GIADA ENTERTAINS (SEASON 3)             0003700009570110000100000000000000000000000000PEN                                         
022021021804097000008262300180EB000000000003CS0008262001770409700000008282300060HKXCNCN008060                                     GIADA ENTERTAINS (SEASON 2)             GIADA ENTERTAINS (SEASON 3)             0003700009536690000300000000000000000000000000LST                                         
022021021804097000008422200180CB000000000004CS0008290583420409700000008422200030MUDITMI001030                                     GIADA ENTERTAINS (SEASON 3)             GIADA ENTERTAINS (SEASON 3)             0003700009637520000100000000000000000000000000FST                                         
022021021804097000008422200180CB000000000004CS0008276772740409700000008425200030TTBPRNE024030                                     GIADA ENTERTAINS (SEASON 3)             GIADA ENTERTAINS (SEASON 3)             0003700009515700000100000000000000000000000000SND                                         
022021021804097000008422200180CB000000000004CS0008234892800409700000008432200020VCCTOSI409020                                     GIADA ENTERTAINS (SEASON 3)             GIADA ENTERTAINS (SEASON 3)             0003700009600440000200000000000000000000000000OTH                                         
022021021804097000008422200180CB000000000004CS0008229000200409700000008434200010BKBCLEA777010                                     GIADA ENTERTAINS (SEASON 3)             GIADA ENTERTAINS (SEASON 3)             0003700009582930000100000000000000000000000000OTH                                         
022021021804097000008422200180CB000000000004CS0008298985990409700000008435200030SVMECHO001030                                     GIADA ENTERTAINS (SEASON 3)             GIADA ENTERTAINS (SEASON 3)             0003700009584760000100000000000000000000000000OTH                                         
022021021804097000008422200180CB000000000004CS0008229075620409700000008442200020GUUPCWD001020                                     GIADA ENTERTAINS (SEASON 3)             GIADA ENTERTAINS (SEASON 3)             0003700009504250000100000000000000000000000000OTH                                         
022021021804097000008422200180CB000000000004CS0008299540400409700000008444200030HHPOFWD007030                                     GIADA ENTERTAINS (SEASON 3)             GIADA ENTERTAINS (SEASON 3)             0003700009648310000300000000000000000000000000PEN                                         
022021021804097000008422200180CB000000000004CS0008299966570409700000008451200010HYHFARM006010                                     GIADA ENTERTAINS (SEASON 3)             GIADA ENTERTAINS (SEASON 3)             0003700009588590000100000000000000000000000000LST                                         
022021021804097000008553800180EB000000000005CS0008299966580409700000008553800010HYHFARM006010                                     GIADA ENTERTAINS (SEASON 3)             GIADA ENTERTAINS (SEASON 3)             0003700009588590000100000000000000000000000000FST                                         
022021021804097000008553800180EB000000000005CS0008283995870409700000008554800020AMQEVBD030020                                     GIADA ENTERTAINS (SEASON 3)             GIADA ENTERTAINS (SEASON 3)             0003700009588350000100000000000000000000000000SND                                         
022021021804097000008553800180EB000000000005CS0008234788200409700000008560800010BDUPBEE011010                                     GIADA ENTERTAINS (SEASON 3)             GIADA ENTERTAINS (SEASON 3)             0003700009601030000300000000000000000000000000OTH                                         
022021021804097000008553800180EB000000000005CS0008231593730409700000008561800030PPLPPLC028030                                     GIADA ENTERTAINS (SEASON 3)             GIADA ENTERTAINS (SEASON 3)             0003700009570110000100000000000000000000000000OTH                                         
022021021804097000008553800180EB000000000005CS0008234788210409700000008564800010WLIWWFI023010                                     GIADA ENTERTAINS (SEASON 3)             GIADA ENTERTAINS (SEASON 3)             0003700009580670000100000000000000000000000000OTH                                         
022021021804097000008553800180EB000000000005CS0008234436010409700000008565800040PUCMOSF024040                                     GIADA ENTERTAINS (SEASON 3)             GIADA ENTERTAINS (SEASON 3)             0003700009596820000300000000000000000000000000OTH                                         
022021021804097000008553800180EB000000000005CS0008232667430409700000008573800030SCCBADO101030                                     GIADA ENTERTAINS (SEASON 3)             GIADA ENTERTAINS (SEASON 3)             0003700009582560000200000000000000000000000000PEN                                         
022021021804097000008553800180EB000000000005CS0008284373970409700000008580800030CLDBEST006030                                     GIADA ENTERTAINS (SEASON 3)             GIADA ENTERTAINS (SEASON 3)             0003700009600310000300000000000000000000000000LST                                         
022021021804097000009130500180CB000000000006CS0008298986010409700000009130500030SVMECHO001030                                     GIADA ENTERTAINS (SEASON 3)             GIADA ENTERTAINS (SEASON 3)             0003700009584760000100000000000000000000000000FST                                         
022021021804097000009130500180CB000000000006CS0008259756020409700000009133500030HCLSAUD006030                                     GIADA ENTERTAINS (SEASON 3)             GIADA ENTERTAINS (SEASON 3)             0003700000000000000000000000000000000000000000SND                                         
022021021804097000009130500180CB000000000006CS0008232253630409700000009140500010WPPEMMA014010                                     GIADA ENTERTAINS (SEASON 3)             GIADA ENTERTAINS (SEASON 3)             0003700009604070000100000000000000000000000000OTH                                         
022021021804097000009130500180CB000000000006CS0008232253680409700000009141500010PACNVPN007010                                     GIADA ENTERTAINS (SEASON 3)             GIADA ENTERTAINS (SEASON 3)             0003700009577650000200000000000000000000000000OTH                                         
022021021804097000009130500180CB000000000006CS0008299909670409700000009142500030HYHOLIO003030                                     GIADA ENTERTAINS (SEASON 3)             GIADA ENTERTAINS (SEASON 3)             0003700000000000000000000000000000000000000000OTH                                         
022021021804097000009130500180CB000000000006CS0008231436020409700000009145500010TTBGALA021010                                     GIADA ENTERTAINS (SEASON 3)             GIADA ENTERTAINS (SEASON 3)             0003700009573620000100000000000000000000000000OTH                                         
022021021804097000009130500180CB000000000006CS0008232253690409700000009150500030DAADEAD001030                                     GIADA ENTERTAINS (SEASON 3)             GIADA ENTERTAINS (SEASON 3)             0003700009582770000300000000000000000000000000PEN                                         
022021021804097000009130500180CB000000000006CS0008300063350409700000009153500030MUDITDE001030                                     GIADA ENTERTAINS (SEASON 3)             GIADA ENTERTAINS (SEASON 3)             0003700009637520000100000000000000000000000000LST                                         
022021021804097000009253000180EB000000000007CS0008229015810409700000009253000010BKBCLEA777010                                     GIADA ENTERTAINS (SEASON 3)             GIADA ENTERTAINS (SEASON 3)             0003700009582930000100000000000000000000000000FST                                         
022021021804097000009253000180EB000000000007CS0008231591120409700000009254000030PPLPPLC029030                                     GIADA ENTERTAINS (SEASON 3)             GIADA ENTERTAINS (SEASON 3)             0003700009570110000100000000000000000000000000SND                                         
022021021804097000009253000180EB000000000007CS0008232253930409700000009261000030LSKMANY010030                                     GIADA ENTERTAINS (SEASON 3)             GIADA ENTERTAINS (SEASON 3)             0003700009578290000300000000000000000000000000OTH                                         
022021021804097000009253000180EB000000000007CS0008248267340409700000009264000030PCHSALE003030                                     GIADA ENTERTAINS (SEASON 3)             GIADA ENTERTAINS (SEASON 3)             0003700009637600000100000000000000000000000000OTH                                         
022021021804097000009253000180EB000000000007CS0008234427790409700000009271000030SCCRLFA004030                                     GIADA ENTERTAINS (SEASON 3)             GIADA ENTERTAINS (SEASON 3)             0003700009586260000100000000000000000000000000OTH                                         
022021021804097000009253000180EB000000000007CS0008232253920409700000009274000030MCEDEXC011030                                     GIADA ENTERTAINS (SEASON 3)             GIADA ENTERTAINS (SEASON 3)             0003700009596200000200000000000000000000000000PEN                                         
022021021804097000009253000180EB000000000007CS0008231435970409700000009281000020AEDAVGI087020                                     GIADA ENTERTAINS (SEASON 3)             GIADA ENTERTAINS (SEASON 3)             0003700009539070000200000000000000000000000000LST                                         
022021021804097000009410400180CB000000000008CS0008299966590409700000009410400010HYHFARM006010                                     GIADA ENTERTAINS (SEASON 3)             GIADA ENTERTAINS (SEASON 3)             0003700009588590000100000000000000000000000000FST                                         
022021021804097000009410400180CB000000000008CS0008276772460409700000009411400030TTBPRNE024030                                     GIADA ENTERTAINS (SEASON 3)             GIADA ENTERTAINS (SEASON 3)             0003700009518470000100000000000000000000000000SND                                         
022021021804097000009410400180CB000000000008CS0008296948060409700000009414400030HHPNOFA002030                                     GIADA ENTERTAINS (SEASON 3)             GIADA ENTERTAINS (SEASON 3)             0003700009600400000300000000000000000000000000OTH                                         
022021021804097000009410400180CB000000000008CS0008231453170409700000009421400010TTBGALB059010                                     GIADA ENTERTAINS (SEASON 3)             GIADA ENTERTAINS (SEASON 3)             0003700009573620000100000000000000000000000000OTH                                         
022021021804097000009410400180CB000000000008CS0008232303960409700000009422400010SONDETE001010                                     GIADA ENTERTAINS (SEASON 3)             GIADA ENTERTAINS (SEASON 3)             0003700000000000000000000000000000000000000000OTH                                         
022021021804097000009410400180CB000000000008CS0008299546630409700000009423400030HHPOFWD007030                                     GIADA ENTERTAINS (SEASON 3)             GIADA ENTERTAINS (SEASON 3)             0003700009648310000300000000000000000000000000OTH                                         
022021021804097000009410400180CB000000000008CS0008232303970409700000009430400030SCCWSSA001030                                     GIADA ENTERTAINS (SEASON 3)             GIADA ENTERTAINS (SEASON 3)             0003700009602230000100000000000000000000000000PEN                                         
022021021804097000009410400180CB000000000008CS0008247071330409700000009433400030IFNPETV001030                                     GIADA ENTERTAINS (SEASON 3)             GIADA ENTERTAINS (SEASON 3)             0003700009625880000100000000000000000000000000LST                                         
022021021804097000009554000180EB000000000009CS0008299915730409700000009554000010SVMOLIO001010                                     GIADA ENTERTAINS (SEASON 3)             FARMHOUSE RULES                         0003700000000000000000000000000000000000000000FST                                         
022021021804097000009554000180EB000000000009CS0008231453140409700000009555000020AEDAVGI087020                                     GIADA ENTERTAINS (SEASON 3)             FARMHOUSE RULES                         0003700009539070000200000000000000000000000000SND                                         
022021021804097000009554000180EB000000000009CS0008229024720409700000009561000030BKBCLEA776030                                     GIADA ENTERTAINS (SEASON 3)             FARMHOUSE RULES                         0003700009582930000100000000000000000000000000OTH                                         
022021021804097000009554000180EB000000000009CS0008299915210409700000009564000020GUUPCLL003020                                     GIADA ENTERTAINS (SEASON 3)             FARMHOUSE RULES                         0003700009504250000100000000000000000000000000OTH                                         
022021021804097000009554000180EB000000000009CS0008299035140409700000009570000030SVMECHO001030                                     GIADA ENTERTAINS (SEASON 3)             FARMHOUSE RULES                         0003700009584760000100000000000000000000000000OTH                                         
022021021804097000009554000180EB000000000009CS0008300059400409700000009573000010PCHTAIL002010                                     GIADA ENTERTAINS (SEASON 3)             FARMHOUSE RULES                         0003700009588010000100000000000000000000000000PEN                                         
022021021804097000009554000180EB000000000009CS0008234439430409700000009574000060SCCRLRS201060                                     GIADA ENTERTAINS (SEASON 3)             FARMHOUSE RULES                         0003700009586510000100000000000000000000000000LST                                         
022021021804097000010140100180CB000000000010CS0008234943970409700000010140100040WALGLDP727040                                     FARMHOUSE RULES                         FARMHOUSE RULES                         0003700009612160000100000000000000000000000000FST                                         
022021021804097000010140100180CB000000000010CS0008234943960409700000010144100030BROHARR028030                                     FARMHOUSE RULES                         FARMHOUSE RULES                         0003700009575040000100000000000000000000000000SND                                         
022021021804097000010140100180CB000000000010CS0008234943980409700000010151100010CHFSTUD883010                                     FARMHOUSE RULES                         FARMHOUSE RULES                         0003700009562330000100000000000000000000000000OTH                                         
022021021804097000010140100180CB000000000010CS0008299965080409700000010152100030HOMMBWS546030                                     FARMHOUSE RULES                         FARMHOUSE RULES                         0003700009502680000100000000000000000000000000OTH                                         
022021021804097000010140100180CB000000000010CS0008298897700409700000010155100030ARMSNUK033030                                     FARMHOUSE RULES                         FARMHOUSE RULES                         0003700009626820000100000000000000000000000000OTH                                         
022021021804097000010140100180CB000000000010CS0008299152880409700000010162100030HCLALLB003030                                     FARMHOUSE RULES                         FARMHOUSE RULES                         0003700009510640000100000000000000000000000000PEN                                         
022021021804097000010140100180CB000000000010CS0008299966600409700000010165100010HYHFARM006010                                     FARMHOUSE RULES                         FARMHOUSE RULES                         0003700009588590000100000000000000000000000000LST                                         
022021021804097000010261200180EB000000000011CS0008229014360409700000010261200030BKBCLEA776030                                     FARMHOUSE RULES                         FARMHOUSE RULES                         0003700009582930000100000000000000000000000000FST                                         
022021021804097000010261200180EB000000000011CS0008234470980409700000010264200040PUCMOSF001040                                     FARMHOUSE RULES                         FARMHOUSE RULES                         0003700009596820000300000000000000000000000000SND                                         
022021021804097000010261200180EB000000000011CS0008232369400409700000010272200020WPPEMMA013020                                     FARMHOUSE RULES                         FARMHOUSE RULES                         0003700009603750000100000000000000000000000000OTH                                         
022021021804097000010261200180EB000000000011CS0008232369410409700000010274200010SONDETE001010                                     FARMHOUSE RULES                         FARMHOUSE RULES                         0003700000000000000000000000000000000000000000OTH                                         
022021021804097000010261200180EB000000000011CS0008231473830409700000010275200020AEDAVGI087020                                     FARMHOUSE RULES                         FARMHOUSE RULES                         0003700009539070000200000000000000000000000000PEN                                         
022021021804097000010261200180EB000000000011CS0008234470990409700000010281200060SCCRLTH801060                                     FARMHOUSE RULES                         FARMHOUSE RULES                         0003700009586510000100000000000000000000000000LST                                         
022021021804097000010430500180CB000000000012CS0008234996780409700000010430500090WALGLDP739090                                     FARMHOUSE RULES                         FARMHOUSE RULES                         0003700009612140000100000000000000000000000000FST                                         
022021021804097000010430500180CB000000000012CS0008255591560409700000010443500030JUFFABL049030                                     FARMHOUSE RULES                         FARMHOUSE RULES                         0003700009620230000100000000000000000000000000SND                                         
022021021804097000010430500180CB000000000012CS0008299966610409700000010450500010HYHFARM006010                                     FARMHOUSE RULES                         FARMHOUSE RULES                         0003700009588590000100000000000000000000000000OTH                                         
022021021804097000010430500180CB000000000012CS0008234996790409700000010451500020PCHHFDM037020                                     FARMHOUSE RULES                         FARMHOUSE RULES                         0003700009587150000100000000000000000000000000PEN                                         
022021021804097000010430500180CB000000000012CS0008234996800409700000010453500030HHPNOFA002030                                     FARMHOUSE RULES                         FARMHOUSE RULES                         0003700009601010000100000000000000000000000000LST                                         
022021021804097000010554900180EB000000000013CS0008234499810409700000010554900040PUCMOSF024040                                     FARMHOUSE RULES                         GREAT BRITISH BAKE-OFF (SEASON 7)       0003700009596820000300000000000000000000000000FST                                         
022021021804097000010554900180EB000000000013CS0008234267060409700000010562900030AEDUNRD302030                                     FARMHOUSE RULES                         GREAT BRITISH BAKE-OFF (SEASON 7)       0003700009587750000100000000000000000000000000SND                                         
022021021804097000010554900180EB000000000013CS0008299915220409700000010565900020GUUPCLJ003020                                     FARMHOUSE RULES                         GREAT BRITISH BAKE-OFF (SEASON 7)       0003700009504250000100000000000000000000000000OTH                                         
022021021804097000010554900180EB000000000013CS0008247125050409700000010571900010SCCWOEB002010                                     FARMHOUSE RULES                         GREAT BRITISH BAKE-OFF (SEASON 7)       0003700009626160000200000000000000000000000000OTH                                         
022021021804097000010554900180EB000000000013CS0008255488780409700000010572900030CLDCCEG003030                                     FARMHOUSE RULES                         GREAT BRITISH BAKE-OFF (SEASON 7)       0003700009688760000100000000000000000000000000OTH                                         
022021021804097000010554900180EB000000000013CS0008300059390409700000010575900010PCHTAIL002010                                     FARMHOUSE RULES                         GREAT BRITISH BAKE-OFF (SEASON 7)       0003700009588010000100000000000000000000000000OTH                                         
022021021804097000010554900180EB000000000013CS0008265791790409700000010580900030BDUPBEE010030                                     FARMHOUSE RULES                         GREAT BRITISH BAKE-OFF (SEASON 7)       0003700009601030000300000000000000000000000000PEN                                         
022021021804097000010554900180EB000000000013CS0008299911940409700000010583900010SVMOLIO001010                                     FARMHOUSE RULES                         GREAT BRITISH BAKE-OFF (SEASON 7)       0003700000000000000000000000000000000000000000LST                                         
022021021804097000011091900210CB000000000014CS0008235362160409700000011091900030SCCSFTS201030                                     GREAT BRITISH BAKE-OFF (SEASON 7)       GREAT BRITISH BAKE-OFF (SEASON 7)       0003700009616300000100000000000000000000000000FST                                         
022021021804097000011091900210CB000000000014CS0008229024680409700000011094900030BKBCLEA776030                                     GREAT BRITISH BAKE-OFF (SEASON 7)       GREAT BRITISH BAKE-OFF (SEASON 7)       0003700009582930000100000000000000000000000000SND                                         
022021021804097000011091900210CB000000000014CS0008247126020409700000011101900020SSCEEBR529020                                     GREAT BRITISH BAKE-OFF (SEASON 7)       GREAT BRITISH BAKE-OFF (SEASON 7)       0003700009617300000300000000000000000000000000OTH                                         
022021021804097000011091900210CB000000000014CS0008247126010409700000011103900020MSXGLAS002020                                     GREAT BRITISH BAKE-OFF (SEASON 7)       GREAT BRITISH BAKE-OFF (SEASON 7)       0003700009621790000100000000000000000000000000OTH                                         
022021021804097000011091900210CB000000000014CS0008229066190409700000011105900010FTBFMPA005010                                     GREAT BRITISH BAKE-OFF (SEASON 7)       GREAT BRITISH BAKE-OFF (SEASON 7)       0003700009559790000100000000000000000000000000OTH                                         
022021021804097000011091900210CB000000000014CS0008264494830409700000011110900030BCLAVER003030                                     GREAT BRITISH BAKE-OFF (SEASON 7)       GREAT BRITISH BAKE-OFF (SEASON 7)       0003700009637110000200000000000000000000000000OTH                                         
022021021804097000011091900210CB000000000014CS0008299035210409700000011113900030SVMECHO001030                                     GREAT BRITISH BAKE-OFF (SEASON 7)       GREAT BRITISH BAKE-OFF (SEASON 7)       0003700009584760000100000000000000000000000000OTH                                         
022021021804097000011091900210CB000000000014CS0008253233530409700000011120900030DAATALK002030                                     GREAT BRITISH BAKE-OFF (SEASON 7)       GREAT BRITISH BAKE-OFF (SEASON 7)       0003700009617480000200000000000000000000000000PEN                                         
022021021804097000011091900210CB000000000014CS0008299960650409700000011123900010SVMOLIO001010                                     GREAT BRITISH BAKE-OFF (SEASON 7)       GREAT BRITISH BAKE-OFF (SEASON 7)       0003700000000000000000000000000000000000000000LST                                         
022021021804097000011231900240CB000000000015CS0008235008760409700000011231900060WALGLDP748060                                     GREAT BRITISH BAKE-OFF (SEASON 7)       GREAT BRITISH BAKE-OFF (SEASON 7)       0003700009605760000200000000000000000000000000FST                                         
022021021804097000011231900240CB000000000015CS0008253099180409700000011241900030ABFFFIF004030                                     GREAT BRITISH BAKE-OFF (SEASON 7)       GREAT BRITISH BAKE-OFF (SEASON 7)       0003700009624390000100000000000000000000000000SND                                         
022021021804097000011231900240CB000000000015CS0008235008740409700000011244900030KARPLUS534030                                     GREAT BRITISH BAKE-OFF (SEASON 7)       GREAT BRITISH BAKE-OFF (SEASON 7)       0003700009542640000200000000000000000000000000OTH                                         
022021021804097000011231900240CB000000000015CS0008299152890409700000011251900030HCLALLB004030                                     GREAT BRITISH BAKE-OFF (SEASON 7)       GREAT BRITISH BAKE-OFF (SEASON 7)       0003700009510640000100000000000000000000000000OTH                                         
022021021804097000011231900240CB000000000015CS0008235008770409700000011254900030CKCNOWT024030                                     GREAT BRITISH BAKE-OFF (SEASON 7)       GREAT BRITISH BAKE-OFF (SEASON 7)       0003700009545670000100000000000000000000000000OTH                                         
022021021804097000011231900240CB000000000015CS0008253231100409700000011261900030DAATALK002030                                     GREAT BRITISH BAKE-OFF (SEASON 7)       GREAT BRITISH BAKE-OFF (SEASON 7)       0003700009617480000200000000000000000000000000PEN                                         
022021021804097000011231900240CB000000000015CS0008247127000409700000011264900030IFNPETV001030                                     GREAT BRITISH BAKE-OFF (SEASON 7)       GREAT BRITISH BAKE-OFF (SEASON 7)       0003700009625880000100000000000000000000000000LST                                         
022021021804097000011374400270CB000000000016CS0008234489890409700000011374400040PUCMOSF001040                                     GREAT BRITISH BAKE-OFF (SEASON 7)       GREAT BRITISH BAKE-OFF (SEASON 7)       0003700009596820000300000000000000000000000000FST                                         
022021021804097000011374400270CB000000000016CS0008234489900409700000011382400060SCCRLRS201060                                     GREAT BRITISH BAKE-OFF (SEASON 7)       GREAT BRITISH BAKE-OFF (SEASON 7)       0003700009586510000100000000000000000000000000SND                                         
022021021804097000011374400270CB000000000016CS0008232407610409700000011392400010WPPEMMA014010                                     GREAT BRITISH BAKE-OFF (SEASON 7)       GREAT BRITISH BAKE-OFF (SEASON 7)       0003700009604070000100000000000000000000000000OTH                                         
022021021804097000011374400270CB000000000016CS0008247116370409700000011393400020SSCEEBR529020                                     GREAT BRITISH BAKE-OFF (SEASON 7)       GREAT BRITISH BAKE-OFF (SEASON 7)       0003700009617300000300000000000000000000000000OTH                                         
022021021804097000011374400270CB000000000016CS0008253098940409700000011395400030ABFFFIF004030                                     GREAT BRITISH BAKE-OFF (SEASON 7)       GREAT BRITISH BAKE-OFF (SEASON 7)       0003700009624390000100000000000000000000000000OTH                                         
022021021804097000011374400270CB000000000016CS0008234957660409700000011402400020WNPFDET001020                                     GREAT BRITISH BAKE-OFF (SEASON 7)       GREAT BRITISH BAKE-OFF (SEASON 7)       0003700009536180000500000000000000000000000000OTH                                         
022021021804097000011374400270CB000000000016CS0008254720350409700000011404400030JMLHBRC008030                                     GREAT BRITISH BAKE-OFF (SEASON 7)       GREAT BRITISH BAKE-OFF (SEASON 7)       0003700009629920000100000000000000000000000000OTH                                         
022021021804097000011374400270CB000000000016CS0008253229900409700000011411400030DAATALK002030                                     GREAT BRITISH BAKE-OFF (SEASON 7)       GREAT BRITISH BAKE-OFF (SEASON 7)       0003700009617480000200000000000000000000000000PEN                                         
022021021804097000011374400270CB000000000016CS0008299913200409700000011414400030HYHOLIO003030                                     GREAT BRITISH BAKE-OFF (SEASON 7)       GREAT BRITISH BAKE-OFF (SEASON 7)       0003700000000000000000000000000000000000000000LST                                         
022021021804097000012123000180CB000000000018CS0008224352110409700000012123000060NCAHALF019060                                     JAMIE'S SUMMER FOOD RAVE UP             JAMIE'S SUMMER FOOD RAVE UP             0003700009541260000100000000000000000000000000FST                                         
022021021804097000012123000180CB000000000018CS0008234973000409700000012133000060WALGLDP743060                                     JAMIE'S SUMMER FOOD RAVE UP             JAMIE'S SUMMER FOOD RAVE UP             0003700009612720000200000000000000000000000000SND                                         
022021021804097000012123000180CB000000000018CS0008299540100409700000012143000030HHPOFWD007030                                     JAMIE'S SUMMER FOOD RAVE UP             JAMIE'S SUMMER FOOD RAVE UP             0003700009648310000300000000000000000000000000PEN                                         
022021021804097000012123000180CB000000000018CS0008299035260409700000012150000030SVMECHO001030                                     JAMIE'S SUMMER FOOD RAVE UP             JAMIE'S SUMMER FOOD RAVE UP             0003700009584760000100000000000000000000000000LST                                         
022021021804097000012263300180EB000000000019CS0008288529170409700000012263300010SVMOLIO001010                                     JAMIE'S SUMMER FOOD RAVE UP             JAMIE'S SUMMER FOOD RAVE UP             0003700000000000000000000000000000000000000000FST                                         
022021021804097000012263300180EB000000000019CS0008254726800409700000012264300030JMLHBRC007030                                     JAMIE'S SUMMER FOOD RAVE UP             JAMIE'S SUMMER FOOD RAVE UP             0003700009629920000100000000000000000000000000SND                                         
022021021804097000012263300180EB000000000019CS0008234981280409700000012271300030DESLVMC021030                                     JAMIE'S SUMMER FOOD RAVE UP             JAMIE'S SUMMER FOOD RAVE UP             0003700009551050000100000000000000000000000000OTH                                         
022021021804097000012263300180EB000000000019CS0008234981240409700000012274300030SSCBTDG036030                                     JAMIE'S SUMMER FOOD RAVE UP             JAMIE'S SUMMER FOOD RAVE UP             0003700009611060000100000000000000000000000000OTH                                         
022021021804097000012263300180EB000000000019CS0008288526370409700000012281300010HHPNOFA001010                                     JAMIE'S SUMMER FOOD RAVE UP             JAMIE'S SUMMER FOOD RAVE UP             0003700009601010000100000000000000000000000000OTH                                         
022021021804097000012263300180EB000000000019CS0008255692190409700000012282300030HHPSLAP001030                                     JAMIE'S SUMMER FOOD RAVE UP             JAMIE'S SUMMER FOOD RAVE UP             0003700009617520000100000000000000000000000000OTH                                         
022021021804097000012263300180EB000000000019CS0008265426440409700000012285300030ABFCGIQ003030                                     JAMIE'S SUMMER FOOD RAVE UP             JAMIE'S SUMMER FOOD RAVE UP             0003700009598680000300000000000000000000000000PEN                                         
022021021804097000012263300180EB000000000019CS0008290583280409700000012292300010MUDITDE002010                                     JAMIE'S SUMMER FOOD RAVE UP             JAMIE'S SUMMER FOOD RAVE UP             0003700009637520000100000000000000000000000000LST                                         
022021021804097000012445500180CB000000000020CS0008261892750409700000012445500030DAATALK002030                                     JAMIE'S SUMMER FOOD RAVE UP             JAMIE'S SUMMER FOOD RAVE UP             0003700009617480000200000000000000000000000000FST                                         
022021021804097000012445500180CB000000000020CS0008262662760409700000012452500040HHPNFOD003040                                     JAMIE'S SUMMER FOOD RAVE UP             JAMIE'S SUMMER FOOD RAVE UP             0003700009615770000200000000000000000000000000SND                                         
022021021804097000012445500180CB000000000020CS0008259690840409700000012460500020WPPEMMA013020                                     JAMIE'S SUMMER FOOD RAVE UP             JAMIE'S SUMMER FOOD RAVE UP             0003700009642120000100000000000000000000000000OTH                                         
022021021804097000012445500180CB000000000020CS0008299035320409700000012462500030SVMECHO001030                                     JAMIE'S SUMMER FOOD RAVE UP             JAMIE'S SUMMER FOOD RAVE UP             0003700009584760000100000000000000000000000000OTH                                         
022021021804097000012445500180CB000000000020CS0008259894360409700000012465500020WHLSTAR010020                                     JAMIE'S SUMMER FOOD RAVE UP             JAMIE'S SUMMER FOOD RAVE UP             0003700000000000000000000000000000000000000000OTH                                         
022021021804097000012445500180CB000000000020CS0008266206900409700000012471500030HHPOFWD007030                                     JAMIE'S SUMMER FOOD RAVE UP             JAMIE'S SUMMER FOOD RAVE UP             0003700009648310000300000000000000000000000000PEN                                         
022021021804097000012445500180CB000000000020CS0008276668650409700000012474500010IRISUSS004010                                     JAMIE'S SUMMER FOOD RAVE UP             JAMIE'S SUMMER FOOD RAVE UP             0003700009595410000100000000000000000000000000LST                                         
022021021804097000012562600180EB000000000072CS0008284599700409700000012562600030WKUSAUK148030                                     JAMIE'S SUMMER FOOD RAVE UP             JAMIE'S MINISTRY OF FOOD (SEASON 100)   0003700009588990000100000000000000000000000000FST                                         
022021021804097000012562600180EB000000000072CS0008253233950409700000012565600030DAATALK002030                                     JAMIE'S SUMMER FOOD RAVE UP             JAMIE'S MINISTRY OF FOOD (SEASON 100)   0003700009617480000200000000000000000000000000SND                                         
022021021804097000012562600180EB000000000072CS0008255761690409700000012572600030HHPSLGC502030                                     JAMIE'S SUMMER FOOD RAVE UP             JAMIE'S MINISTRY OF FOOD (SEASON 100)   0003700009617520000100000000000000000000000000OTH                                         
022021021804097000012562600180EB000000000072CS0008254726700409700000012575600030JMLHBRC007030                                     JAMIE'S SUMMER FOOD RAVE UP             JAMIE'S MINISTRY OF FOOD (SEASON 100)   0003700009629920000100000000000000000000000000OTH                                         
022021021804097000012562600180EB000000000072CS0008253725620409700000012582600010HCLSAUD007010                                     JAMIE'S SUMMER FOOD RAVE UP             JAMIE'S MINISTRY OF FOOD (SEASON 100)   0003700000000000000000000000000000000000000000OTH                                         
022021021804097000012562600180EB000000000072CS0008255697760409700000012583600010SCCWOEB006010                                     JAMIE'S SUMMER FOOD RAVE UP             JAMIE'S MINISTRY OF FOOD (SEASON 100)   0003700009626160000200000000000000000000000000OTH                                         
022021021804097000012562600180EB000000000072CS0008253100540409700000012584600030ABFFFIF004030                                     JAMIE'S SUMMER FOOD RAVE UP             JAMIE'S MINISTRY OF FOOD (SEASON 100)   0003700009624390000100000000000000000000000000PEN                                         
022021021804097000012562600180EB000000000072CS0008293793170409700000012591600010FOLCMFI003010                                     JAMIE'S SUMMER FOOD RAVE UP             JAMIE'S MINISTRY OF FOOD (SEASON 100)   0003700009579390000100000000000000000000000000LST                                         
022021021804097000013170700240CB000000000021CS0008299915650409700000013170700010SVMOLIO001010                                     JAMIE'S MINISTRY OF FOOD (SEASON 100)   JAMIE'S MINISTRY OF FOOD (SEASON 100)   0003700000000000000000000000000000000000000000FST                                         
022021021804097000013170700240CB000000000021CS0008261890650409700000013171700030DAATALK002030                                     JAMIE'S MINISTRY OF FOOD (SEASON 100)   JAMIE'S MINISTRY OF FOOD (SEASON 100)   0003700009617480000200000000000000000000000000SND                                         
022021021804097000013170700240CB000000000021CS0008231781560409700000013174700030VCMVINT031030                                     JAMIE'S MINISTRY OF FOOD (SEASON 100)   JAMIE'S MINISTRY OF FOOD (SEASON 100)   0003700009585010000100000000000000000000000000OTH                                         
022021021804097000013170700240CB000000000021CS0008266232410409700000013181700030PFSLEGA006030                                     JAMIE'S MINISTRY OF FOOD (SEASON 100)   JAMIE'S MINISTRY OF FOOD (SEASON 100)   0003700009536420000200000000000000000000000000OTH                                         
022021021804097000013170700240CB000000000021CS0008259894020409700000013184700020WHLSTAR010020                                     JAMIE'S MINISTRY OF FOOD (SEASON 100)   JAMIE'S MINISTRY OF FOOD (SEASON 100)   0003700000000000000000000000000000000000000000OTH                                         
022021021804097000013170700240CB000000000021CS0008299915230409700000013190700020GUUPCCW001020                                     JAMIE'S MINISTRY OF FOOD (SEASON 100)   JAMIE'S MINISTRY OF FOOD (SEASON 100)   0003700009504250000100000000000000000000000000OTH                                         
022021021804097000013170700240CB000000000021CS0008299470700409700000013192700030EFRTRLD001030                                     JAMIE'S MINISTRY OF FOOD (SEASON 100)   JAMIE'S MINISTRY OF FOOD (SEASON 100)   0003700009637610000100000000000000000000000000OTH                                         
022021021804097000013170700240CB000000000021CS0008259690560409700000013195700020WPPEMMA013020                                     JAMIE'S MINISTRY OF FOOD (SEASON 100)   JAMIE'S MINISTRY OF FOOD (SEASON 100)   0003700009642120000100000000000000000000000000OTH                                         
022021021804097000013170700240CB000000000021CS0008296941890409700000013201700030CLDCCEG003030                                     JAMIE'S MINISTRY OF FOOD (SEASON 100)   JAMIE'S MINISTRY OF FOOD (SEASON 100)   0003700009637960000300000000000000000000000000PEN                                         
022021021804097000013170700240CB000000000021CS0008297215510409700000013204700020TTBPRNE027020                                     JAMIE'S MINISTRY OF FOOD (SEASON 100)   JAMIE'S MINISTRY OF FOOD (SEASON 100)   0003700009511970000200000000000000000000000000LST                                         
022021021804097000013365200240CB000000000023CS0008260185640409700000013365200030QSTYOSF118030                                     JAMIE'S MINISTRY OF FOOD (SEASON 100)   JAMIE'S MINISTRY OF FOOD (SEASON 100)   0003700009581010000100000000000000000000000000FST                                         
022021021804097000013365200240CB000000000023CS0008229079790409700000013372200030FTBFMPA002030                                     JAMIE'S MINISTRY OF FOOD (SEASON 100)   JAMIE'S MINISTRY OF FOOD (SEASON 100)   0003700009559790000100000000000000000000000000SND                                         
022021021804097000013365200240CB000000000023CS0008255710610409700000013375200030CLDCCEG003030                                     JAMIE'S MINISTRY OF FOOD (SEASON 100)   JAMIE'S MINISTRY OF FOOD (SEASON 100)   0003700009637960000300000000000000000000000000OTH                                         
022021021804097000013365200240CB000000000023CS0008264494760409700000013382200030BCLAVER003030                                     JAMIE'S MINISTRY OF FOOD (SEASON 100)   JAMIE'S MINISTRY OF FOOD (SEASON 100)   0003700009637110000200000000000000000000000000OTH                                         
022021021804097000013365200240CB000000000023CS0008255588600409700000013385200010WPPEMMA014010                                     JAMIE'S MINISTRY OF FOOD (SEASON 100)   JAMIE'S MINISTRY OF FOOD (SEASON 100)   0003700009642250000100000000000000000000000000OTH                                         
022021021804097000013365200240CB000000000023CS0008296971640409700000013390200030MCEDEXC011030                                     JAMIE'S MINISTRY OF FOOD (SEASON 100)   JAMIE'S MINISTRY OF FOOD (SEASON 100)   0003700009596200000200000000000000000000000000OTH                                         
022021021804097000013365200240CB000000000023CS0008231755340409700000013393200020VCMVINT038020                                     JAMIE'S MINISTRY OF FOOD (SEASON 100)   JAMIE'S MINISTRY OF FOOD (SEASON 100)   0003700009585010000100000000000000000000000000OTH                                         
022021021804097000013365200240CB000000000023CS0008259756460409700000013395200030HCLSAUD006030                                     JAMIE'S MINISTRY OF FOOD (SEASON 100)   JAMIE'S MINISTRY OF FOOD (SEASON 100)   0003700000000000000000000000000000000000000000PEN                                         
022021021804097000013365200240CB000000000023CS0008264355620409700000013402200030PCHMICH003030                                     JAMIE'S MINISTRY OF FOOD (SEASON 100)   JAMIE'S MINISTRY OF FOOD (SEASON 100)   0003700009617760000300000000000000000000000000LST                                         
022021021804097000013554000240EB000000000024CS0008276974540409700000013554000020HOGGXCO978020                                     JAMIE'S MINISTRY OF FOOD (SEASON 100)   JAMES MARTIN'S MEDITERRANEAN            0003700009536770000100000000000000000000000000FST                                         
022021021804097000013554000240EB000000000024CS0008228994340409700000013560000030BKBCLEA776030                                     JAMIE'S MINISTRY OF FOOD (SEASON 100)   JAMES MARTIN'S MEDITERRANEAN            0003700009582930000100000000000000000000000000SND                                         
022021021804097000013554000240EB000000000024CS0008235004420409700000013563000030SCCSFTS201030                                     JAMIE'S MINISTRY OF FOOD (SEASON 100)   JAMES MARTIN'S MEDITERRANEAN            0003700009616300000100000000000000000000000000OTH                                         
022021021804097000013554000240EB000000000024CS0008265791220409700000013570000030BDUPBEE009030                                     JAMIE'S MINISTRY OF FOOD (SEASON 100)   JAMES MARTIN'S MEDITERRANEAN            0003700009601030000300000000000000000000000000OTH                                         
022021021804097000013554000240EB000000000024CS0008262576280409700000013573000020JUFFABL049020                                     JAMIE'S MINISTRY OF FOOD (SEASON 100)   JAMES MARTIN'S MEDITERRANEAN            0003700009620230000100000000000000000000000000OTH                                         
022021021804097000013554000240EB000000000024CS0008288526330409700000013575000010HHPNOFA001010                                     JAMIE'S MINISTRY OF FOOD (SEASON 100)   JAMES MARTIN'S MEDITERRANEAN            0003700009601010000100000000000000000000000000OTH                                         
022021021804097000013554000240EB000000000024CS0008247126070409700000013580000020MSXGLAS002020                                     JAMIE'S MINISTRY OF FOOD (SEASON 100)   JAMES MARTIN'S MEDITERRANEAN            0003700009621790000100000000000000000000000000OTH                                         
022021021804097000013554000240EB000000000024CS0008292765620409700000013582000020GUSTIDE019020                                     JAMIE'S MINISTRY OF FOOD (SEASON 100)   JAMES MARTIN'S MEDITERRANEAN            0003700009614460000300000000000000000000000000OTH                                         
022021021804097000013554000240EB000000000024CS0008261888290409700000013584000030DAATALK002030                                     JAMIE'S MINISTRY OF FOOD (SEASON 100)   JAMES MARTIN'S MEDITERRANEAN            0003700009617480000200000000000000000000000000PEN                                         
022021021804097000013554000240EB000000000024CS0008299150880409700000013591000030ABFZLNW117030                                     JAMIE'S MINISTRY OF FOOD (SEASON 100)   JAMES MARTIN'S MEDITERRANEAN            0003700009637640000300000000000000000000000000LST                                         
022021021804097000014143200180CB000000000025CS0008260185130409700000014143200030QSTYOSF125030                                     JAMES MARTIN'S MEDITERRANEAN            JAMES MARTIN'S MEDITERRANEAN            0003700009581010000100000000000000000000000000FST                                         
022021021804097000014143200180CB000000000025CS0008262576420409700000014150200010SRQJAPL013010                                     JAMES MARTIN'S MEDITERRANEAN            JAMES MARTIN'S MEDITERRANEAN            0003700009625990000300000000000000000000000000SND                                         
022021021804097000014143200180CB000000000025CS0008265791140409700000014151200030BDUPBEE017030                                     JAMES MARTIN'S MEDITERRANEAN            JAMES MARTIN'S MEDITERRANEAN            0003700009601030000300000000000000000000000000OTH                                         
022021021804097000014143200180CB000000000025CS0008235010720409700000014154200020HHPNOFA002020                                     JAMES MARTIN'S MEDITERRANEAN            JAMES MARTIN'S MEDITERRANEAN            0003700009601010000100000000000000000000000000OTH                                         
022021021804097000014143200180CB000000000025CS0008235588750409700000014160200010SONDETE001010                                     JAMES MARTIN'S MEDITERRANEAN            JAMES MARTIN'S MEDITERRANEAN            0003700000000000000000000000000000000000000000OTH                                         
022021021804097000014143200180CB000000000025CS0008235621320409700000014161200010JLNUSWT019010                                     JAMES MARTIN'S MEDITERRANEAN            JAMES MARTIN'S MEDITERRANEAN            0003700009583350000100000000000000000000000000OTH                                         
022021021804097000014143200180CB000000000025CS0008255588390409700000014162200020WPPEMMA013020                                     JAMES MARTIN'S MEDITERRANEAN            JAMES MARTIN'S MEDITERRANEAN            0003700009642120000100000000000000000000000000OTH                                         
022021021804097000014143200180CB000000000025CS0008235010710409700000014164200020PCHHFDM031020                                     JAMES MARTIN'S MEDITERRANEAN            JAMES MARTIN'S MEDITERRANEAN            0003700009587150000100000000000000000000000000PEN                                         
022021021804097000014143200180CB000000000025CS0008297174350409700000014170200030ATOHECA010030                                     JAMES MARTIN'S MEDITERRANEAN            JAMES MARTIN'S MEDITERRANEAN            0003700009519800000200000000000000000000000000LST                                         
022021021804097000014263200180EB000000000026CS0008228984890409700000014263200010BKBCLEA777010                                     JAMES MARTIN'S MEDITERRANEAN            JAMES MARTIN'S MEDITERRANEAN            0003700009582930000100000000000000000000000000FST                                         
022021021804097000014263200180EB000000000026CS0008233852090409700000014264200020MCZPLAY003020                                     JAMES MARTIN'S MEDITERRANEAN            JAMES MARTIN'S MEDITERRANEAN            0003700009612990000100000000000000000000000000SND                                         
022021021804097000014263200180EB000000000026CS0008288573050409700000014270200030HHPNOFA002030                                     JAMES MARTIN'S MEDITERRANEAN            JAMES MARTIN'S MEDITERRANEAN            0003700009601010000100000000000000000000000000OTH                                         
022021021804097000014263200180EB000000000026CS0008262577640409700000014273200020SSCEEBR529020                                     JAMES MARTIN'S MEDITERRANEAN            JAMES MARTIN'S MEDITERRANEAN            0003700009617300000300000000000000000000000000OTH                                         
022021021804097000014263200180EB000000000026CS0008255492410409700000014275200010WLIWWFR022010                                     JAMES MARTIN'S MEDITERRANEAN            JAMES MARTIN'S MEDITERRANEAN            0003700009580670000100000000000000000000000000OTH                                         
022021021804097000014263200180EB000000000026CS0008255492400409700000014280200030CLDCCEG003030                                     JAMES MARTIN'S MEDITERRANEAN            JAMES MARTIN'S MEDITERRANEAN            0003700009637960000300000000000000000000000000OTH                                         
022021021804097000014263200180EB000000000026CS0008236533260409700000014283200030OPLWFFR014030                                     JAMES MARTIN'S MEDITERRANEAN            JAMES MARTIN'S MEDITERRANEAN            0003700009617620000200000000000000000000000000PEN                                         
022021021804097000014263200180EB000000000026CS0008255589740409700000014290200030HHPSLLA505030                                     JAMES MARTIN'S MEDITERRANEAN            JAMES MARTIN'S MEDITERRANEAN            0003700009618350000100000000000000000000000000LST                                         
022021021804097000014440600180CB000000000027CS0008231228710409700000014440600010IRINCTR014010                                     JAMES MARTIN'S MEDITERRANEAN            JAMES MARTIN'S MEDITERRANEAN            0003700009589630000200000000000000000000000000FST                                         
022021021804097000014440600180CB000000000027CS0008299712480409700000014441600010YRLALPR009010                                     JAMES MARTIN'S MEDITERRANEAN            JAMES MARTIN'S MEDITERRANEAN            0003700009542960000100000000000000000000000000SND                                         
022021021804097000014440600180CB000000000027CS0008298595290409700000014442600010SCCWOEG003010                                     JAMES MARTIN'S MEDITERRANEAN            JAMES MARTIN'S MEDITERRANEAN            0003700009626160000200000000000000000000000000OTH                                         
022021021804097000014440600180CB000000000027CS0008290015760409700000014443600030SCCRLFA001030                                     JAMES MARTIN'S MEDITERRANEAN            JAMES MARTIN'S MEDITERRANEAN            0003700009586260000100000000000000000000000000OTH                                         
022021021804097000014440600180CB000000000027CS0008299155080409700000014450600010JLNUSWT054010                                     JAMES MARTIN'S MEDITERRANEAN            JAMES MARTIN'S MEDITERRANEAN            0003700009583350000100000000000000000000000000OTH                                         
022021021804097000014440600180CB000000000027CS0008298894060409700000014451600010CLDNOOM016010                                     JAMES MARTIN'S MEDITERRANEAN            JAMES MARTIN'S MEDITERRANEAN            0003700009583710000200000000000000000000000000OTH                                         
022021021804097000014440600180CB000000000027CS0008236382100409700000014452600010PCHTAIL002010                                     JAMES MARTIN'S MEDITERRANEAN            JAMES MARTIN'S MEDITERRANEAN            0003700009588010000100000000000000000000000000OTH                                         
022021021804097000014440600180CB000000000027CS0008293717040409700000014453600010DAADEAD011010                                     JAMES MARTIN'S MEDITERRANEAN            JAMES MARTIN'S MEDITERRANEAN            0003700009582770000300000000000000000000000000OTH                                         
022021021804097000014440600180CB000000000027CS0008299043600409700000014454600020TAGVVGB007020                                     JAMES MARTIN'S MEDITERRANEAN            JAMES MARTIN'S MEDITERRANEAN            0003700009539430000300000000000000000000000000OTH                                         
022021021804097000014440600180CB000000000027CS0008298913440409700000014460600030ATOHECA010030                                     JAMES MARTIN'S MEDITERRANEAN            JAMES MARTIN'S MEDITERRANEAN            0003700009519800000200000000000000000000000000PEN                                         
022021021804097000014440600180CB000000000027CS0008247042540409700000014463600030SSCPGFY022030                                     JAMES MARTIN'S MEDITERRANEAN            JAMES MARTIN'S MEDITERRANEAN            0003700000000000000000000000000000000000000000LST                                         
022021021804097000014564200180EB000000000028CS0008232049930409700000014564200030GUSTIDE018030                                     JAMES MARTIN'S MEDITERRANEAN            JAMES MARTIN'S MEDITERRANEAN            0003700009614460000300000000000000000000000000FST                                         
022021021804097000014564200180EB000000000028CS0008255023730409700000014571200010BBHTCPD398010                                     JAMES MARTIN'S MEDITERRANEAN            JAMES MARTIN'S MEDITERRANEAN            0003700009585560000100000000000000000000000000SND                                         
022021021804097000014564200180EB000000000028CS0008255590460409700000014572200030JUFFABL049030                                     JAMES MARTIN'S MEDITERRANEAN            JAMES MARTIN'S MEDITERRANEAN            0003700009620230000100000000000000000000000000OTH                                         
022021021804097000014564200180EB000000000028CS0008234977990409700000014575200020HHPNOFA002020                                     JAMES MARTIN'S MEDITERRANEAN            JAMES MARTIN'S MEDITERRANEAN            0003700009601010000100000000000000000000000000OTH                                         
022021021804097000014564200180EB000000000028CS0008255492700409700000014581200010WLIWWFI023010                                     JAMES MARTIN'S MEDITERRANEAN            JAMES MARTIN'S MEDITERRANEAN            0003700009580670000100000000000000000000000000OTH                                         
022021021804097000014564200180EB000000000028CS0008266225630409700000014582200010TTBGALB059010                                     JAMES MARTIN'S MEDITERRANEAN            JAMES MARTIN'S MEDITERRANEAN            0003700009573620000100000000000000000000000000OTH                                         
022021021804097000014564200180EB000000000028CS0008224316800409700000014583200010HCLSAUD007010                                     JAMES MARTIN'S MEDITERRANEAN            JAMES MARTIN'S MEDITERRANEAN            0003700000000000000000000000000000000000000000OTH                                         
022021021804097000014564200180EB000000000028CS0008290380910409700000014584200030MCZVAIL100030                                     JAMES MARTIN'S MEDITERRANEAN            JAMES MARTIN'S MEDITERRANEAN            0003700009561600000400000000000000000000000000PEN                                         
022021021804097000014564200180EB000000000028CS0008235585280409700000014591200030BDUPBEE010030                                     JAMES MARTIN'S MEDITERRANEAN            JAMES MARTIN'S MEDITERRANEAN            0003700009601030000300000000000000000000000000LST                                         
022021021804097000015133000180CB000000000029CS0008234950450409700000015133000090SCCSHVU138090                                     JAMES MARTIN'S MEDITERRANEAN            JAMES MARTIN'S MEDITERRANEAN            0003700009578780000200000000000000000000000000FST                                         
022021021804097000015133000180CB000000000029CS0008234950470409700000015150000030GRFPBDI602030                                     JAMES MARTIN'S MEDITERRANEAN            JAMES MARTIN'S MEDITERRANEAN            0003700009600920000400000000000000000000000000SND                                         
022021021804097000015133000180CB000000000029CS0008234950460409700000015153000030SSCEEBR519030                                     JAMES MARTIN'S MEDITERRANEAN            JAMES MARTIN'S MEDITERRANEAN            0003700009542600000400000000000000000000000000PEN                                         
022021021804097000015133000180CB000000000029CS0008290015850409700000015160000030SCCRLFA004030                                     JAMES MARTIN'S MEDITERRANEAN            JAMES MARTIN'S MEDITERRANEAN            0003700009586260000100000000000000000000000000LST                                         
022021021804097000015263900180EB000000000030CS0008261889210409700000015263900030DAATALK002030                                     JAMES MARTIN'S MEDITERRANEAN            JAMES MARTIN'S MEDITERRANEAN            0003700009617480000200000000000000000000000000FST                                         
022021021804097000015263900180EB000000000030CS0008254555640409700000015270900030RECCGCP001030                                     JAMES MARTIN'S MEDITERRANEAN            JAMES MARTIN'S MEDITERRANEAN            0003700009622220000100000000000000000000000000SND                                         
022021021804097000015263900180EB000000000030CS0008255589180409700000015273900020SSCEEBR529020                                     JAMES MARTIN'S MEDITERRANEAN            JAMES MARTIN'S MEDITERRANEAN            0003700009617300000300000000000000000000000000OTH                                         
022021021804097000015263900180EB000000000030CS0008224316460409700000015275900010HCLSAUD007010                                     JAMES MARTIN'S MEDITERRANEAN            JAMES MARTIN'S MEDITERRANEAN            0003700000000000000000000000000000000000000000OTH                                         
022021021804097000015263900180EB000000000030CS0008234913400409700000015280900010HHPNOFA001010                                     JAMES MARTIN'S MEDITERRANEAN            JAMES MARTIN'S MEDITERRANEAN            0003700009601010000100000000000000000000000000OTH                                         
022021021804097000015263900180EB000000000030CS0008234913410409700000015281900010PCHTAIL002010                                     JAMES MARTIN'S MEDITERRANEAN            JAMES MARTIN'S MEDITERRANEAN            0003700009588010000100000000000000000000000000OTH                                         
022021021804097000015263900180EB000000000030CS0008262577130409700000015282900010SRQJAPL014010                                     JAMES MARTIN'S MEDITERRANEAN            JAMES MARTIN'S MEDITERRANEAN            0003700009625990000300000000000000000000000000OTH                                         
022021021804097000015263900180EB000000000030CS0008299283790409700000015283900030BCLAVER003030                                     JAMES MARTIN'S MEDITERRANEAN            JAMES MARTIN'S MEDITERRANEAN            0003700009637110000200000000000000000000000000PEN                                         
022021021804097000015263900180EB000000000030CS0008224155870409700000015290900030DVWHEYC001030                                     JAMES MARTIN'S MEDITERRANEAN            JAMES MARTIN'S MEDITERRANEAN            0003700000000000000000000000000000000000000000LST                                         
022021021804097000015443500180CB000000000031CS0008224142100409700000015443500010IRISUSS004010                                     JAMES MARTIN'S MEDITERRANEAN            JAMES MARTIN'S MEDITERRANEAN            0003700009595410000100000000000000000000000000FST                                         
022021021804097000015443500180CB000000000031CS0008300423530409700000015444500030BCLAVER003030                                     JAMES MARTIN'S MEDITERRANEAN            JAMES MARTIN'S MEDITERRANEAN            0003700009637110000200000000000000000000000000SND                                         
022021021804097000015443500180CB000000000031CS0008300062220409700000015451500010PCHTAIL002010                                     JAMES MARTIN'S MEDITERRANEAN            JAMES MARTIN'S MEDITERRANEAN            0003700009588010000100000000000000000000000000OTH                                         
022021021804097000015443500180CB000000000031CS0008298595130409700000015452500010SCCWOEB015010                                     JAMES MARTIN'S MEDITERRANEAN            JAMES MARTIN'S MEDITERRANEAN            0003700009626160000200000000000000000000000000OTH                                         
022021021804097000015443500180CB000000000031CS0008295330860409700000015453500030MCZVAIL100030                                     JAMES MARTIN'S MEDITERRANEAN            JAMES MARTIN'S MEDITERRANEAN            0003700009561600000400000000000000000000000000PEN                                         
022021021804097000015443500180CB000000000031CS0008234913460409700000015460500090WALGLDP747090                                     JAMES MARTIN'S MEDITERRANEAN            JAMES MARTIN'S MEDITERRANEAN            0003700009610470000200000000000000000000000000LST                                         
022021021804097000015564900180EB000000000032CS0008224314400409700000015564900030HCLSAUD006030                                     JAMES MARTIN'S MEDITERRANEAN            BAREFOOT CONTESSA: BACK TO BASICS (SEASO0003700000000000000000000000000000000000000000FST                                         
022021021804097000015564900180EB000000000032CS0008299713210409700000015571900020KARCONF122020                                     JAMES MARTIN'S MEDITERRANEAN            BAREFOOT CONTESSA: BACK TO BASICS (SEASO0003700009540780000200000000000000000000000000SND                                         
022021021804097000015564900180EB000000000032CS0008261887560409700000015573900030DAATALK002030                                     JAMES MARTIN'S MEDITERRANEAN            BAREFOOT CONTESSA: BACK TO BASICS (SEASO0003700009617480000200000000000000000000000000OTH                                         
022021021804097000015564900180EB000000000032CS0008265795190409700000015580900010WLCAVSD003010                                     JAMES MARTIN'S MEDITERRANEAN            BAREFOOT CONTESSA: BACK TO BASICS (SEASO0003700009651210000200000000000000000000000000OTH                                         
022021021804097000015564900180EB000000000032CS0008294315080409700000015581900030OPLWFFR014030                                     JAMES MARTIN'S MEDITERRANEAN            BAREFOOT CONTESSA: BACK TO BASICS (SEASO0003700009617620000200000000000000000000000000OTH                                         
022021021804097000015564900180EB000000000032CS0008232007900409700000015584900030GUSTIDE018030                                     JAMES MARTIN'S MEDITERRANEAN            BAREFOOT CONTESSA: BACK TO BASICS (SEASO0003700009614460000300000000000000000000000000PEN                                         
022021021804097000015564900180EB000000000032CS0008276984660409700000015591900030DESLVMC020030                                     JAMES MARTIN'S MEDITERRANEAN            BAREFOOT CONTESSA: BACK TO BASICS (SEASO0003700009550860000100000000000000000000000000LST                                         
022021021804097000016124700180CB000000000033CS0008231456230409700000016124700030BTAPPTV468030                                     BAREFOOT CONTESSA: BACK TO BASICS (SEASOBAREFOOT CONTESSA: BACK TO BASICS (SEASO0003700009651010000100000000000000000000000000FST                                         
022021021804097000016124700180CB000000000033CS0008234442370409700000016131700060SCCRLTH801060                                     BAREFOOT CONTESSA: BACK TO BASICS (SEASOBAREFOOT CONTESSA: BACK TO BASICS (SEASO0003700009586510000100000000000000000000000000SND                                         
022021021804097000016124700180CB000000000033CS0008233868560409700000016141700030ABFBOTB012030                                     BAREFOOT CONTESSA: BACK TO BASICS (SEASOBAREFOOT CONTESSA: BACK TO BASICS (SEASO0003700009600260000100000000000000000000000000OTH                                         
022021021804097000016124700180CB000000000033CS0008290015720409700000016144700030SCCRLFA001030                                     BAREFOOT CONTESSA: BACK TO BASICS (SEASOBAREFOOT CONTESSA: BACK TO BASICS (SEASO0003700009586260000100000000000000000000000000PEN                                         
022021021804097000016124700180CB000000000033CS0008224142820409700000016151700030INNHYUN134030                                     BAREFOOT CONTESSA: BACK TO BASICS (SEASOBAREFOOT CONTESSA: BACK TO BASICS (SEASO0003700009543250000200000000000000000000000000LST                                         
022021021804097000016255100180EB000000000034CS0008234820700409700000016255100030OLILGFN740030                                     BAREFOOT CONTESSA: BACK TO BASICS (SEASOMIDWEST CLASSICS                        0003700009543630000100000000000000000000000000FST                                         
022021021804097000016255100180EB000000000034CS0008248381890409700000016262100030SIPRMCD001030                                     BAREFOOT CONTESSA: BACK TO BASICS (SEASOMIDWEST CLASSICS                        0003700009618480000100000000000000000000000000SND                                         
022021021804097000016255100180EB000000000034CS0008262663920409700000016265100030BFEBBPN003030                                     BAREFOOT CONTESSA: BACK TO BASICS (SEASOMIDWEST CLASSICS                        0003700009640640000100000000000000000000000000OTH                                         
022021021804097000016255100180EB000000000034CS0008262649950409700000016272100010IRIHABR075010                                     BAREFOOT CONTESSA: BACK TO BASICS (SEASOMIDWEST CLASSICS                        0003700009538890000200000000000000000000000000OTH                                         
022021021804097000016255100180EB000000000034CS0008234820690409700000016273100020HHPNOFA002020                                     BAREFOOT CONTESSA: BACK TO BASICS (SEASOMIDWEST CLASSICS                        0003700009600400000300000000000000000000000000OTH                                         
022021021804097000016255100180EB000000000034CS0008265790800409700000016275100030BDUPBEE009030                                     BAREFOOT CONTESSA: BACK TO BASICS (SEASOMIDWEST CLASSICS                        0003700009601030000300000000000000000000000000PEN                                         
022021021804097000016255100180EB000000000034CS0008224280830409700000016282100030MCZVAUX135030                                     BAREFOOT CONTESSA: BACK TO BASICS (SEASOMIDWEST CLASSICS                        0003700009541240000200000000000000000000000000LST                                         
022021021804097000016425200180CB000000000035CS0008268084900409700000016425200090MCZVAXV016090                                     MIDWEST CLASSICS                        MIDWEST CLASSICS                        0003700009643700000200000000000000000000000000FST                                         
022021021804097000016425200180CB000000000035CS0008231489270409700000016442200030PPLPPLC027030                                     MIDWEST CLASSICS                        MIDWEST CLASSICS                        0003700009570110000100000000000000000000000000SND                                         
022021021804097000016425200180CB000000000035CS0008234977910409700000016445200010PCHHFDM033010                                     MIDWEST CLASSICS                        MIDWEST CLASSICS                        0003700009587150000100000000000000000000000000OTH                                         
022021021804097000016425200180CB000000000035CS0008229033180409700000016450200010BKBCLEA777010                                     MIDWEST CLASSICS                        MIDWEST CLASSICS                        0003700009582930000100000000000000000000000000OTH                                         
022021021804097000016425200180CB000000000035CS0008300062320409700000016451200010PCHTAIL002010                                     MIDWEST CLASSICS                        MIDWEST CLASSICS                        0003700009588010000100000000000000000000000000OTH                                         
022021021804097000016425200180CB000000000035CS0008224316440409700000016452200010HCLSAUD007010                                     MIDWEST CLASSICS                        MIDWEST CLASSICS                        0003700000000000000000000000000000000000000000PEN                                         
022021021804097000016425200180CB000000000035CS0008300425560409700000016453200020AEDAVGI087020                                     MIDWEST CLASSICS                        MIDWEST CLASSICS                        0003700009539070000200000000000000000000000000LST                                         
022021021804097000016552500180EB000000000036CS0008231225560409700000016552500030BBHTCPD397030                                     MIDWEST CLASSICS                        PIONEER WOMAN (SEASON 23), THE          0003700009585160000100000000000000000000000000FST                                         
022021021804097000016552500180EB000000000036CS0008299685750409700000016555500030JMLCLLP009030                                     MIDWEST CLASSICS                        PIONEER WOMAN (SEASON 23), THE          0003700009614620000200000000000000000000000000SND                                         
022021021804097000016552500180EB000000000036CS0008300043210409700000016562500030PCHTAIL001030                                     MIDWEST CLASSICS                        PIONEER WOMAN (SEASON 23), THE          0003700009588010000100000000000000000000000000OTH                                         
022021021804097000016552500180EB000000000036CS0008265696940409700000016565500010HCLSAUD007010                                     MIDWEST CLASSICS                        PIONEER WOMAN (SEASON 23), THE          0003700000000000000000000000000000000000000000OTH                                         
022021021804097000016552500180EB000000000036CS0008299715730409700000016570500010SDEFLWW765010                                     MIDWEST CLASSICS                        PIONEER WOMAN (SEASON 23), THE          0003700009559690000100000000000000000000000000OTH                                         
022021021804097000016552500180EB000000000036CS0008288572770409700000016571500030HHPNOFA002030                                     MIDWEST CLASSICS                        PIONEER WOMAN (SEASON 23), THE          0003700009601010000100000000000000000000000000OTH                                         
022021021804097000016552500180EB000000000036CS0008299283730409700000016574500030BCLAVER003030                                     MIDWEST CLASSICS                        PIONEER WOMAN (SEASON 23), THE          0003700009637110000200000000000000000000000000PEN                                         
022021021804097000016552500180EB000000000036CS0008255593530409700000016581500010WPPEMMA014010                                     MIDWEST CLASSICS                        PIONEER WOMAN (SEASON 23), THE          0003700009642250000100000000000000000000000000LST                                         
022021021804097000017113300180CB000000000037CS0008299283710409700000017113300030BCLAVER003030                                     PIONEER WOMAN (SEASON 23), THE          PIONEER WOMAN (SEASON 23), THE          0003700009637110000200000000000000000000000000FST                                         
022021021804097000017113300180CB000000000037CS0008234255590409700000017120300030AEDUNBT298030                                     PIONEER WOMAN (SEASON 23), THE          PIONEER WOMAN (SEASON 23), THE          0003700009581680000100000000000000000000000000SND                                         
022021021804097000017113300180CB000000000037CS0008300043150409700000017123300030PCHTAIL001030                                     PIONEER WOMAN (SEASON 23), THE          PIONEER WOMAN (SEASON 23), THE          0003700009588010000100000000000000000000000000OTH                                         
022021021804097000017113300180CB000000000037CS0008296917780409700000017130300010KROFILB009010                                     PIONEER WOMAN (SEASON 23), THE          PIONEER WOMAN (SEASON 23), THE          0003700009682500000100000000000000000000000000OTH                                         
022021021804097000017113300180CB000000000037CS0008297189740409700000017131300030HOGPOLI029030                                     PIONEER WOMAN (SEASON 23), THE          PIONEER WOMAN (SEASON 23), THE          0003700009517360000100000000000000000000000000OTH                                         
022021021804097000017113300180CB000000000037CS0008228985030409700000017134300030BKBCLEA776030                                     PIONEER WOMAN (SEASON 23), THE          PIONEER WOMAN (SEASON 23), THE          0003700009582930000100000000000000000000000000PEN                                         
022021021804097000017113300180CB000000000037CS0008234255600409700000017141300020AEDUNSF258020                                     PIONEER WOMAN (SEASON 23), THE          PIONEER WOMAN (SEASON 23), THE          0003700009583450000200000000000000000000000000LST                                         
022021021804097000017252900180EB000000000038CS0008290249250409700000017252900020INFJJLT007020                                     PIONEER WOMAN (SEASON 23), THE          PIONEER WOMAN (SEASON 23), THE          0003700009542680000100000000000000000000000000FST                                         
022021021804097000017252900180EB000000000038CS0008293088040409700000017254900010ICFOLDJ077010                                     PIONEER WOMAN (SEASON 23), THE          PIONEER WOMAN (SEASON 23), THE          0003700009676900000100000000000000000000000000SND                                         
022021021804097000017252900180EB000000000038CS0008234234400409700000017255900010MLLKNCM299010                                     PIONEER WOMAN (SEASON 23), THE          PIONEER WOMAN (SEASON 23), THE          0003700009583990000100000000000000000000000000OTH                                         
022021021804097000017252900180EB000000000038CS0008288567300409700000017260900010SUPSUMU004010                                     PIONEER WOMAN (SEASON 23), THE          PIONEER WOMAN (SEASON 23), THE          0003700009595480000300000000000000000000000000OTH                                         
022021021804097000017252900180EB000000000038CS0008288555970409700000017261900030HHPNOFA002030                                     PIONEER WOMAN (SEASON 23), THE          PIONEER WOMAN (SEASON 23), THE          0003700009601010000100000000000000000000000000OTH                                         
022021021804097000017252900180EB000000000038CS0008300424290409700000017264900030BNWCHEC001030                                     PIONEER WOMAN (SEASON 23), THE          PIONEER WOMAN (SEASON 23), THE          0003700009620450000200000000000000000000000000OTH                                         
022021021804097000017252900180EB000000000038CS0008292116110409700000017271900010KROFILB006010                                     PIONEER WOMAN (SEASON 23), THE          PIONEER WOMAN (SEASON 23), THE          0003700009682500000100000000000000000000000000OTH                                         
022021021804097000017252900180EB000000000038CS0008299665550409700000017272900010PACSPDR011010                                     PIONEER WOMAN (SEASON 23), THE          PIONEER WOMAN (SEASON 23), THE          0003700009669390000200000000000000000000000000OTH                                         
022021021804097000017252900180EB000000000038CS0008292008610409700000017273900030BDUPBEE017030                                     PIONEER WOMAN (SEASON 23), THE          PIONEER WOMAN (SEASON 23), THE          0003700009601030000300000000000000000000000000PEN                                         
022021021804097000017252900180EB000000000038CS0008299662850409700000017280900020BURTMDS711020                                     PIONEER WOMAN (SEASON 23), THE          PIONEER WOMAN (SEASON 23), THE          0003700009586370000300000000000000000000000000LST                                         
022021021804097000017424400180CB000000000039CS0008234206440409700000017424400020BURTMDS711020                                     PIONEER WOMAN (SEASON 23), THE          PIONEER WOMAN (SEASON 23), THE          0003700009586370000300000000000000000000000000FST                                         
022021021804097000017424400180CB000000000039CS0008234222070409700000017430400030AEDUNBT298030                                     PIONEER WOMAN (SEASON 23), THE          PIONEER WOMAN (SEASON 23), THE          0003700009581680000100000000000000000000000000SND                                         
022021021804097000017424400180CB000000000039CS0008271748080409700000017433400010MIFYPPF180010                                     PIONEER WOMAN (SEASON 23), THE          PIONEER WOMAN (SEASON 23), THE          0003700009539010000100000000000000000000000000OTH                                         
022021021804097000017424400180CB000000000039CS0008299658730409700000017434400020WPPEMMA013020                                     PIONEER WOMAN (SEASON 23), THE          PIONEER WOMAN (SEASON 23), THE          0003700009642360000100000000000000000000000000OTH                                         
022021021804097000017424400180CB000000000039CS0008231123970409700000017440400010BBHTCPD430010                                     PIONEER WOMAN (SEASON 23), THE          PIONEER WOMAN (SEASON 23), THE          0003700009574080000100000000000000000000000000OTH                                         
022021021804097000017424400180CB000000000039CS0008293079520409700000017441400030OLICMOG001030                                     PIONEER WOMAN (SEASON 23), THE          PIONEER WOMAN (SEASON 23), THE          0003700009547050000200000000000000000000000000OTH                                         
022021021804097000017424400180CB000000000039CS0008299693500409700000017444400020OGYVODF224020                                     PIONEER WOMAN (SEASON 23), THE          PIONEER WOMAN (SEASON 23), THE          0003700009571780000200000000000000000000000000OTH                                         
022021021804097000017424400180CB000000000039CS0008292689580409700000017450400030TAGMGGB101030                                     PIONEER WOMAN (SEASON 23), THE          PIONEER WOMAN (SEASON 23), THE          0003700009587620000100000000000000000000000000PEN                                         
022021021804097000017424400180CB000000000039CS0008292689590409700000017453400010MLLLBHW024010                                     PIONEER WOMAN (SEASON 23), THE          PIONEER WOMAN (SEASON 23), THE          0003700000000000000000000000000000000000000000LST                                         
022021021804097000017553100180EB000000000040CS0008231134980409700000017553100030WKUSAUK148030                                     PIONEER WOMAN (SEASON 23), THE          HAIRY BIKERS' FOOD TOUR OF BRITAIN, THE 0003700009589050000100000000000000000000000000FST                                         
022021021804097000017553100180EB000000000040CS0008234170050409700000017560100020BURTMDS715020                                     PIONEER WOMAN (SEASON 23), THE          HAIRY BIKERS' FOOD TOUR OF BRITAIN, THE 0003700009585950000100000000000000000000000000SND                                         
022021021804097000017553100180EB000000000040CS0008231770530409700000017562100030VCMVINT025030                                     PIONEER WOMAN (SEASON 23), THE          HAIRY BIKERS' FOOD TOUR OF BRITAIN, THE 0003700009585010000100000000000000000000000000OTH                                         
022021021804097000017553100180EB000000000040CS0008238462950409700000017565100010VCCMULI421010                                     PIONEER WOMAN (SEASON 23), THE          HAIRY BIKERS' FOOD TOUR OF BRITAIN, THE 0003700009539410000100000000000000000000000000OTH                                         
022021021804097000017553100180EB000000000040CS0008232044420409700000017570100030VCCGODA033030                                     PIONEER WOMAN (SEASON 23), THE          HAIRY BIKERS' FOOD TOUR OF BRITAIN, THE 0003700009537010000100000000000000000000000000OTH                                         
022021021804097000017553100180EB000000000040CS0008240073840409700000017573100030AEDQUBR001030                                     PIONEER WOMAN (SEASON 23), THE          HAIRY BIKERS' FOOD TOUR OF BRITAIN, THE 0003700009532370000200000000000000000000000000PEN                                         
022021021804097000017553100180EB000000000040CS0008258998860409700000017580100030GOCBRND088030                                     PIONEER WOMAN (SEASON 23), THE          HAIRY BIKERS' FOOD TOUR OF BRITAIN, THE 0003700009589280000100000000000000000000000000LST                                         
022021021804097000018084900210CB000000000041CS0008299663080409700000018084900020BURTMDS711020                                     HAIRY BIKERS' FOOD TOUR OF BRITAIN, THE HAIRY BIKERS' FOOD TOUR OF BRITAIN, THE 0003700009586370000300000000000000000000000000FST                                         
022021021804097000018084900210CB000000000041CS0008231133640409700000018090900010IRINCTR014010                                     HAIRY BIKERS' FOOD TOUR OF BRITAIN, THE HAIRY BIKERS' FOOD TOUR OF BRITAIN, THE 0003700009589630000200000000000000000000000000SND                                         
022021021804097000018084900210CB000000000041CS0008234172250409700000018091900010MLLKNCM300010                                     HAIRY BIKERS' FOOD TOUR OF BRITAIN, THE HAIRY BIKERS' FOOD TOUR OF BRITAIN, THE 0003700009583990000100000000000000000000000000OTH                                         
022021021804097000018084900210CB000000000041CS0008234172240409700000018092900030AEDUNBT298030                                     HAIRY BIKERS' FOOD TOUR OF BRITAIN, THE HAIRY BIKERS' FOOD TOUR OF BRITAIN, THE 0003700009581680000100000000000000000000000000OTH                                         
022021021804097000018084900210CB000000000041CS0008234172260409700000018095900030TAGMGGB101030                                     HAIRY BIKERS' FOOD TOUR OF BRITAIN, THE HAIRY BIKERS' FOOD TOUR OF BRITAIN, THE 0003700009587620000100000000000000000000000000OTH                                         
022021021804097000018084900210CB000000000041CS0008232025370409700000018102900020WPPEMMA013020                                     HAIRY BIKERS' FOOD TOUR OF BRITAIN, THE HAIRY BIKERS' FOOD TOUR OF BRITAIN, THE 0003700009604700000100000000000000000000000000OTH                                         
022021021804097000018084900210CB000000000041CS0008234300200409700000018104900030AEDUNRD302030                                     HAIRY BIKERS' FOOD TOUR OF BRITAIN, THE HAIRY BIKERS' FOOD TOUR OF BRITAIN, THE 0003700009587750000100000000000000000000000000OTH                                         
022021021804097000018084900210CB000000000041CS0008300428330409700000018111900010YRLALPR009010                                     HAIRY BIKERS' FOOD TOUR OF BRITAIN, THE HAIRY BIKERS' FOOD TOUR OF BRITAIN, THE 0003700009542940000200000000000000000000000000OTH                                         
022021021804097000018084900210CB000000000041CS0008293071080409700000018112900030BLLDBTA001030                                     HAIRY BIKERS' FOOD TOUR OF BRITAIN, THE HAIRY BIKERS' FOOD TOUR OF BRITAIN, THE 0003700009667210000100000000000000000000000000PEN                                         
022021021804097000018084900210CB000000000041CS0008292686980409700000018115900020PCHPGTP001020                                     HAIRY BIKERS' FOOD TOUR OF BRITAIN, THE HAIRY BIKERS' FOOD TOUR OF BRITAIN, THE 0003700009587690000100000000000000000000000000LST                                         
022021021804097000018215800240CB000000000042CS0008231056860409700000018215800030WKUSAUK148030                                     HAIRY BIKERS' FOOD TOUR OF BRITAIN, THE HAIRY BIKERS' FOOD TOUR OF BRITAIN, THE 0003700009589070000100000000000000000000000000FST                                         
022021021804097000018215800240CB000000000042CS0008248244190409700000018222800030TAGMGGB101030                                     HAIRY BIKERS' FOOD TOUR OF BRITAIN, THE HAIRY BIKERS' FOOD TOUR OF BRITAIN, THE 0003700009587620000100000000000000000000000000SND                                         
022021021804097000018215800240CB000000000042CS0008264451510409700000018225800060HKXCNCN008060                                     HAIRY BIKERS' FOOD TOUR OF BRITAIN, THE HAIRY BIKERS' FOOD TOUR OF BRITAIN, THE 0003700009536690000300000000000000000000000000OTH                                         
022021021804097000018215800240CB000000000042CS0008259760470409700000018235800010MCEPRBT178010                                     HAIRY BIKERS' FOOD TOUR OF BRITAIN, THE HAIRY BIKERS' FOOD TOUR OF BRITAIN, THE 0003700009575990000100000000000000000000000000OTH                                         
022021021804097000018215800240CB000000000042CS0008258946870409700000018240800010MCLDOJV004010                                     HAIRY BIKERS' FOOD TOUR OF BRITAIN, THE HAIRY BIKERS' FOOD TOUR OF BRITAIN, THE 0003700000000000000000000000000000000000000000OTH                                         
022021021804097000018215800240CB000000000042CS0008260132760409700000018241800010QSTYOSF130010                                     HAIRY BIKERS' FOOD TOUR OF BRITAIN, THE HAIRY BIKERS' FOOD TOUR OF BRITAIN, THE 0003700009581010000100000000000000000000000000OTH                                         
022021021804097000018215800240CB000000000042CS0008293073430409700000018242800020WCRKPMC016020                                     HAIRY BIKERS' FOOD TOUR OF BRITAIN, THE HAIRY BIKERS' FOOD TOUR OF BRITAIN, THE 0003700009595440000200000000000000000000000000OTH                                         
022021021804097000018215800240CB000000000042CS0008299693630409700000018244800020OGYVODF224020                                     HAIRY BIKERS' FOOD TOUR OF BRITAIN, THE HAIRY BIKERS' FOOD TOUR OF BRITAIN, THE 0003700009571780000200000000000000000000000000OTH                                         
