0ADAGDSCHED200904085601                                                                                                                                                                                                                                                    
3STGD1200906061213805401776000000000A01240B0017900000656640000764102200901200930Head & Shoulders Adults            030000000000  0305E7891    SSC/PGHS497/030                                                                   000000000                                          CS00BREAK0612           N06121300360+00000C
3STGD1200906061243805402014000000000A00199B0123600000538480000761856200901200914Boots Hearing Care GME             010000000000  0105E9207    HOG/BOHC370/010                                                                   000000000                                          CS00BREAK0612           N06121300360+00000C
3STGD1200906061253805402096000000000A01240B0017900000005650000763932200901200921Bold Washing Powder                030000000000  0305E8012    BUR/TBLD007/030                                                                   000000000                                          CS00BREAK0612           N06121300360+00000C
3STGD1200906061323805402100000000000A01240B0017900000010270000764606200901200921Fixodent Toothpaste                030000000000  0305B3195    SSC/PGFD043/030                                                                   000000000                                          CS00BREAK0612           N06121300360+00000C
3STGD1200906061353805401778000000000A00895B0013100000058820000769560200901200930Huggies Pull Ups                   030000000000  0305E8149    RML/HPUC002/030                                                                   000000000                                          CS00BREAK0612           N06121300360+00000C
3STGD1200906061423805402097000000000A01240B0017900000616030000764081200901200930Flash QCS                          030000000000  0305E5824    BUR/TFLA185/030                                                                   000000000                                          CS00BREAK0612           N06121300360+00000C
3STGD1200906061453805402013000000000A00887B0001200000050680000761607200901200913Kerrygold Softer Butter            030000000000  0305E8434    MCM/KERR794/030                                                                   000000000                                          CS00BREAK0612           N06121300360+00000C
3STGD1200906061523805402099000000000A01240B0017900000299840000764211200901200930Olay                               030000000000  0305E6734    HOG/PGOL506/030                                                                   000000000                                          CS00BREAK0612           N06121300360+00000C
3STGD1200906061553805402105000000000A00648B0160500000594780000762223200901200930Novartis Voltarol Medifacts        020000000000  0205E6244    HOG/GXVO976/020                                                                   000000000                                          CS00BREAK0612           N06121300360+00000C
3STGD1200906061613805401779000000000A07554B0001200000588410000761977200905200927Pension Bee                        010000000000  0105D6821    BBU/PBEE008/010                                                                   000000000                                          CS00BREAK0612           N06121300360+00000C
3STGD1200906061623805401777000000000A02181B0020300000602580000762886200901200930WWF Adoptions                      030000000000  0305E4014    DTV/WFRP002/030                                                                   000000000                                          CS00BREAK0612           N06121300360+00000C
3STGD1200906061653805402098000000000A01240B0017900000192050000764060200901200930Febreze Refresher                  030000000000  0305E8074    EGP/PGFB055/030                                                                   000000000                                          CS00BREAK0612           N06121300360+00000C
3STGD1200906061723805402066000000000A00068B0010500000310910000761799200903200907Aldi Stores Super 6 HFSS           020000000000  0205E9592    MCM/ADSS040/020                                                                   000000000                                          CS00BREAK0612           N06121300360+00000C
3STGD1200906061743805402108000000000A01240B0017900000005820000764183200901200930Fairy Washing Up Liquid            030000000000  0305E7159    SSC/PGFY016/030                                                                   000000000                                          CS00BREAK0612           N06121300360+00000C
3STGD1200906064224805401889000000000A01619B0022200000659420000759729200902200915Waitrose Taste Dairy               030000000000  0305E9664    AED/WABR250/030                                                                   000000000                                          CS00BREAK0642           N06422400360+00000C
3STGD1200906064254805401891000000000A03319B0142000000606700000762362200906200926Talk Talk All Time TV GME          030000000000  0305E9157    CHI/TALK940/030                                                                   000000000                                          CS00BREAK0642           N06422400360+00000C
3STGD1200906064324805401898000000000A00938B0165300000598720000764632200901200930Comfort Megatron                   020000000000  0205E1589    OGY/LECO502/020                                                                   000000000                                          CS00BREAK0642           N06422400360+00000C
3STGD1200906064344805401892000000000A01684B0005000000658180000762470200901200927Kelloggs Rice Krispies AGL (NBA)   020000000000  0205E8365    BUR/TRKS091/020                                                                   000000000                                          CS00BREAK0642           N06422400360+00000C
3STGD1200906064404805401894000000000A03441B0012200000491020000762073200901200927XLS Medical (NBA)                  020000000000  0205E8410    OGP/XLSM062/020                                                                   000000000                                          CS00BREAK0642           N06422400360+00000C
3STGD1200906064424805401933000000000A01240B0017900000536900000764284200901200930Fairy Non Bio Safety               030000000000  0305D8014    KCH/FAIR001/030                                                                   000000000                                          CS00BREAK0642           N06422400360+00000C
3STGD1200906064454805401897000000000A00938B0165300000008350000762794200901200920Sure For Women Deodorant           020000000000  0205E8334    REC/SUST003/020                                                                   000000000                                          CS00BREAK0642           N06422400360+00000C
3STGD1200906064514805401932000000000A01240B0017900000545630000764130200901200930Head & Shoulders Supreme           030000000000  0305E3718    HOG/PGHS493/030                                                                   000000000                                          CS00BREAK0642           N06422400360+00000C
3STGD1200906064544805401896000000000A05340B0123600000500560000761929200901200930Ribena GME                         020000000000  0205B6965    JWT/RIBE011/020                                                                   000000000                                          CS00BREAK0642           N06422400360+00000C
3STGD1200906064604805401895000000000A00264B0123600000661460000761884200901200913Cancer Research Race For Life GME  030000000000  0305E8369    ANO/CARE268/030                                                                   000000000                                          CS00BREAK0642           N06422400360+00000C
3STGD1200906064634805401934000000000A01240B0017900000005790000764104200901200930Fairy ADW                          030000000000  0305E8578    SSC/PGFY019/030                                                                   000000000                                          CS00BREAK0642           N06422400360+00000C
3STGD1200906064704805401893000000000A01122B0019100000622820000761306200901200913Nintendo Switch Ring Fit Adventure 030000000000  0305E9194    PCH/NISW179/030                                                                   000000000                                          CS00BREAK0642           N06422400360+00000C
3STGD1200906064734805401935000000000A01240B0017900000435060000764542200901200930Febreze Plug                       030000000000  0305E9239    EGP/PGFB054/030                                                                   000000000                                          CS00BREAK0642           N06422400360+00000C
3STGD1200906064804805401890000000000A01621B0013800000658460000760777200901200930Walkers Restaurant                 020000000000  0205E7805    AMV/WKTA672/020                                                                   000000000                                          CS00BREAK0642           N06422400360+00000C
3STGD1200906071237805401945000000000A04629B0014500000656480000761374200901200917Confused Rewards                   010000000000  0105E7303    KAR/CONF119/010                                                                   000000000                                          CS00BREAK0712           N07123700360+00000C
3STGD1200906071247803843665000000000A04113B0021100000635350000764521200902200930Coty Clairol                       020000000000  0205E9537    TTB/CLAI001/020                                                                   000000000                                          CS00BREAK0712           N07123700360+00000C
3STGD1200906071307803861101000000000A01240B0017900000008710000764288200901200930Seven Seas Cod Liver Oil           030000000000  0305E1780    BUC/PGCP003/030                                                                   000000000                                          CS00BREAK0712           N07123700360+00000C
3STGD1200906071337803807190000000000A05720B0001200000404970000761495200902200930Best of the Best                   030000000000  0305B5722    ABF/BOTB012/030                                                                   000000000                                          CS00BREAK0712           N07123700360+00000C
3STGD1200906071407803849293000000000A00938B0165300000662090000763364200906200930Persil Gaia                        030000000000  0305E9861    TAG/DGGB062/030                                                                   000000000                                          CS00BREAK0712           N07123700360+00000C
3STGD1200906071437803809386000000000A08042B0031800000638170000762328200901200930Noom Daytime                       030000000000  0305D1889    DAA/NOOM002/030                                                                   000000000                                          CS00BREAK0712           N07123700360+00000C
3STGD1200906071507804649556000000000A01621B0013800000660530000760788200901200906Walkers Giant Bags                 020000000000  0205E8981    TTB/PEWA001/020                                                                   000000000                                          CS00BREAK0712           N07123700360+00000C
3STGD1200906071527804650501000000000A01240B0017900000609080000763766200901200930Always Discreet Pads               030000000000  0305E6118    BUR/TALW560/030                                                                   000000000                                          CS00BREAK0712           N07123700360+00000C
3STGD1200906071557803849292000000000A00119B0017600000623980000763187200904200916Asda Brand 1 (APX)                 040000000000  0405E9672    AMV/ASAP283/040                                                                   000000000                                          CS00BREAK0712           N07123700360+00000C
3STGD1200906071637803861102000000000A01240B0017900000189310000764260200901200930Oral B Toothpaste                  030000000000  0305C1838    SSC/PGOB001/030                                                                   000000000                                          CS00BREAK0712           N07123700360+00000C
3STGD1200906071707803807191000000000A02181B0020300000602590000762882200901200930WWF Memberships                    030000000000  0305E3721    DTV/WFMB002/030                                                                   000000000                                          CS00BREAK0712           N07123700360+00000C
3STGD1200906071737805083489000000000A08221B0081100000646470000760799200901200930FindMyPast SR                      010000000000  0105E3688    FTB/FMPA003/010                                                                   000000000                                          CS00BREAK0712           N07123700360+00000C
3STGD1200906071747803861100000000000A01240B0017900000638530000764467200901200930Febreze Merlion                    030000000000  0305D9277    EGP/PGFB052/030                                                                   000000000                                          CS00BREAK0712           N07123700360+00000C
3STGD1200906071817803843664000000000A01276B0057000000018310000762849200901200930Optrex Eye Cleanser                020000000000  0205D8999    HKX/OPAM003/020                                                                   000000000                                          CS00BREAK0712           N07123700360+00000C
3STGD1200906074209802371181000000000A00782B0021100000653380000764307200901200920Three Recharge                     030000000000  0305E7616    WKU/THUK179/030                                                                   000000000                                          CS00BREAK0742           N07420900360+00000C
3STGD1200906074239801050143000000000A00230B0122100000564370000761753200901200911BT Sport GME                       060000000000  0605E9453    SSC/BTBR098/060                                                                   000000000                                          CS00BREAK0742           N07420900360+00000C
3STGD1200906074339802371183000000000A01709B0022000000004550000761501200901200930Go Compare Branding                020000000000  0205E6216    GOC/BRND068/020                                                                   000000000                                          CS00BREAK0742           N07420900360+00000C
3STGD1200906074359802373696000000000A00938B0165300000008360000764486200901200930Surf                               010000000000  0105E3654    TAG/SFGB034/010                                                                   000000000                                          CS00BREAK0742           N07420900360+00000C
3STGD1200906074409804231307000000000A01240B0017900000006120000766072200901200930Pantene                            030000000000  0305E7629    GRY/PGPP639/030                                                                   000000000                                          CS00BREAK0742           N07420900360+00000C
3STGD1200906074439804617887000000000A02181B0020300000602580000762886200901200930WWF Adoptions                      030000000000  0305C3329    DTV/WFJR001/030                                                                   000000000                                          CS00BREAK0742           N07420900360+00000C
3STGD1200906074509802374629000000000A00910B0102200000004780000762949200901200927L'Oreal Revitalift                 030000000000  0305E8880    CWW/LORE092/030                                                                   000000000                                          CS00BREAK0742           N07420900360+00000C
3STGD1200906074539801050144000000000A03529B0074500000185160000762682200901200930Quooker Taps                       060000000000  0605D0974    BRT/QUOD001/060                                                                   000000000                                          CS00BREAK0742           N07420900360+00000C
3STGD1200906074639801049840000000000A08069B0036500000632910000763629200901200918My Pillow                          060000000000  0605E8340    HAS/MYPE007/060                                                                   000000000                                          CS00BREAK0742           N07420900360+00000C
3STGD1200906074739802371182000000000A00230B0122100000633910000761762200904200930BT Broadband GME                   030000000000  0305E9824    SSC/BTBR106/030                                                                   000000000                                          CS00BREAK0742           N07420900360+00000C
3STGD1200906083146801050356000000000A00230B0122100000564370000761768200901200911BT Sport GME                       060000000000  0605E9453    SSC/BTBR098/060                                                                   000000000                                          CS00BREAK0831           N08314600360+00000C
3STGD1200906083246802314617000000000A00890B0012400000117120000762658200901200906Key Retirement Solutions           030000000000  0305E8873    MCM/KEYR855/030                                                                   000000000                                          CS00BREAK0831           N08314600360+00000C
3STGD1200906083316801052339000000000A03529B0074500000185160000762682200901200930Quooker Taps                       060000000000  0605D0974    BRT/QUOD001/060                                                                   000000000                                          CS00BREAK0831           N08314600360+00000C
3STGD1200906083416802314616000000000A08042B0031800000638170000762328200901200930Noom Daytime                       030000000000  0305E4579    CLD/NOBW001/030                                                                   000000000                                          CS00BREAK0831           N08314600360+00000C
3STGD1200906083446802314620000000000A07303B0016700000561680000765313200901200913NordVPN                            010000000000  0105E9360    PAC/NVPN001/010                                                                   000000000                                          CS00BREAK0831           N08314600360+00000C
3STGD1200906083456804420741000000000A06312B0168000000660020000766333200901200930Simba Sleep TV  (NBA)              010000000000  0105E4050    MRB/SIBR002/010                                                                   000000000                                          CS00BREAK0831           N08314600360+00000C
3STGD1200906083506802314621000000000A05720B0001200000404970000761495200902200930Best of the Best                   030000000000  0305B5722    ABF/BOTB012/030                                                                   000000000                                          CS00BREAK0831           N08314600360+00000C
3STGD1200906083536802314618000000000A02775B0016700000099660000762213200901200930eHarmony Dating Site               010000000000  0105E4554    PCH/EHAR005/010                                                                   000000000                                          CS00BREAK0831           N08314600360+00000C
3STGD1200906083546802314615000000000A08606B0010400000657980000758631200901200906Glucose Monitoring System          030000000000  0305E7760    MCE/DEXC003/030                                                                   000000000                                          CS00BREAK0831           N08314600360+00000C
3STGD1200906083616801045003000000000A08069B0036500000632910000763629200901200918My Pillow                          060000000000  0605E8340    HAS/MYPE007/060                                                                   000000000                                          CS00BREAK0831           N08314600360+00000C
3STGD1200906083716802314619000000000A00239B0012100000341780000762642200901200930Beagle Street                      030000000000  0305D9052    SCC/BSPS301/030                                                                   000000000                                          CS00BREAK0831           N08314600360+00000C
3STGD1200906085018805401918000000000A01621B0013800000658460000760777200901200930Walkers Restaurant                 020000000000  0205E7805    AMV/WKTA672/020                                                                   000000000                                          CS00BREAK0850           N08501800360+00000C
3STGD1200906085038805401792000000000A01615B0014500000490120000761182200901200925VW Skoda                           030000000000  0305E7952    BUR/TSKO029/030                                                                   000000000                                          CS00BREAK0850           N08501800360+00000C
3STGD1200906085108805401920000000000A01684B0005000000658180000762470200901200927Kelloggs Rice Krispies AGL (NBA)   020000000000  0205E8365    BUR/TRKS091/020                                                                   000000000                                          CS00BREAK0850           N08501800360+00000C
3STGD1200906085128805401925000000000A00938B0165300000008350000762794200901200920Sure For Women Deodorant           020000000000  0205E8334    REC/SUST003/020                                                                   000000000                                          CS00BREAK0850           N08501800360+00000C
3STGD1200906085148805402027000000000A01953B0011100000102360000762742200901200927Dreams Beds                        030000000000  0305E6617    REP/BEDS213/030                                                                   000000000                                          CS00BREAK0850           N08501800360+00000C
3STGD1200906085218805401926000000000A00938B0165300000598720000764632200901200930Comfort Megatron                   020000000000  0205E1589    OGY/LECO502/020                                                                   000000000                                          CS00BREAK0850           N08501800360+00000C
3STGD1200906085238805401922000000000A03441B0012200000491020000762073200901200927XLS Medical (NBA)                  020000000000  0205E8410    OGP/XLSM062/020                                                                   000000000                                          CS00BREAK0850           N08501800360+00000C
3STGD1200906085258805401924000000000A05340B0123600000500560000761929200901200930Ribena GME                         020000000000  0205B6965    JWT/RIBE011/020                                                                   000000000                                          CS00BREAK0850           N08501800360+00000C
3STGD1200906085318805401923000000000A00264B0123600000661460000761884200901200913Cancer Research Race For Life GME  030000000000  0305E8369    ANO/CARE268/030                                                                   000000000                                          CS00BREAK0850           N08501800360+00000C
3STGD1200906085348805402025000000000A01240B0017900000005790000764083200901200930Fairy ADW                          030000000000  0305E8578    SSC/PGFY019/030                                                                   000000000                                          CS00BREAK0850           N08501800360+00000C
3STGD1200906085418805401921000000000A01122B0019100000622820000761306200901200913Nintendo Switch Ring Fit Adventure 030000000000  0305E9194    PCH/NISW179/030                                                                   000000000                                          CS00BREAK0850           N08501800360+00000C
3STGD1200906085448805401919000000000A03319B0142000000606700000762362200906200926Talk Talk All Time TV GME          030000000000  0305E9772    CHI/TALK943/030                                                                   000000000                                          CS00BREAK0850           N08501800360+00000C
3STGD1200906085518805402026000000000A01240B0017900000609070000763957200901200915Always Discreet Shero              020000000000  0205E7594    BUR/TALW569/020                                                                   000000000                                          CS00BREAK0850           N08501800360+00000C
3STGD1200906085538805401927000000000A01565B0165300000636650000765034200901200930Marmite Mind Control PBC           010000000000  0105D8561    AED/UNMM283/010                                                                   000000000                                          CS00BREAK0850           N08501800360+00000C
3STGD1200906085548805401917000000000A01619B0022200000659420000759729200902200915Waitrose Taste Dairy               030000000000  0305E9664    AED/WABR250/030                                                                   000000000                                          CS00BREAK0850           N08501800360+00000C
3STGD1200906093244803840827000000000A00119B0017600000623980000763187200904200916Asda Brand 1 (APX)                 040000000000  0405E9672    AMV/ASAP283/040                                                                   000000000                                          CS00BREAK0932           N09324400310+00000C
3STGD1200906093324805401824000000000A01240B0017900000545630000764122200901200930Head & Shoulders Supreme           030000000000  0305E4366    HOG/PGOL498/030                                                                   000000000                                          CS00BREAK0932           N09324400310+00000C
3STGD1200906093354803801335000000000A04377B0016700000316110000762262200901200930Inno Games Forge of Empires DRTV   030000000000  0305E9388    PCH/FORG002/030                                                                   000000000                                          CS00BREAK0932           N09324400310+00000C
3STGD1200906093424803801336000000000A01629B0012700000123630000763352200901200930WaterAid                           090000000000  0905E9833    ETE/WANA101/090                                                                   000000000                                          CS00BREAK0932           N09324400310+00000C
3STGD1200906093554803807223000000000A05720B0001200000404970000761495200902200930Best of the Best                   030000000000  0305B5722    ABF/BOTB012/030                                                                   000000000                                          CS00BREAK0932           N09324400310+00000C
3STGD1200906093624803809419000000000A04492B0084000000622190000765791200901200930Cotswolds Furniture DRTV           030000000000  0305C6826    PCH/CCEG002/030                                                                   000000000                                          CS00BREAK0932           N09324400310+00000C
3STGD1200906093654803801334000000000A08606B0010400000657980000758631200901200906Glucose Monitoring System          030000000000  0305E7760    MCE/DEXC003/030                                                                   000000000                                          CS00BREAK0932           N09324400310+00000C
3STGD1200906093724803840828000000000A00938B0165300000662090000763364200906200930Persil Gaia                        030000000000  0305E9861    TAG/DGGB062/030                                                                   000000000                                          CS00BREAK0932           N09324400310+00000C
3STGD1200906100809802314602000000000A01145B0114200000525000000762770200901200930O2 Handsets                        020000000000  0205E5313    VCC/TOHS366/020                                                                   000000000                                          CS00BREAK1008           N10080900310+00000C
3STGD1200906100829804752548000000000A04159B0013800000596330000767578200901200906NFU Mutual Home Insurance          030000000000  0305E5101    HHP/NFHM010/030                                                                   000000000                                          CS00BREAK1008           N10080900310+00000C
3STGD1200906100859805053339000000000A07556B0017600000642860000761819200901200930Simply Cook Shared Reward          010000000000  0105E1917    EFR/SMCK005/010                                                                   000000000                                          CS00BREAK1008           N10080900310+00000C
3STGD1200906100909805075860000000000A00547B0014500000542360000761340200901200930Experian Brand                     020000000000  0205D0179    BBH/EXBR061/020                                                                   000000000                                          CS00BREAK1008           N10080900310+00000C
3STGD1200906100929802314597000000000A03675B0010900000203250000762971200901200930WOWCHER                            030000000000  0305C9229    SCC/WOEG004/030                                                                   000000000                                          CS00BREAK1008           N10080900310+00000C
3STGD1200906100959802314600000000000A04329B0019100000607950000762749200905200928Touchnote DRTV                     020000000000  0205E7314    MSA/TNBR013/020                                                                   000000000                                          CS00BREAK1008           N10080900310+00000C
3STGD1200906101019802314605000000000A00869B0001200000240110000763301200901200930JML Finishing Touch (BAR)          030000000000  0305E8744    JML/FTRC041/030                                                                   000000000                                          CS00BREAK1008           N10080900310+00000C
3STGD1200906101049802314601000000000A00742B0011600000003750000760951200905200930Hillarys Blinds DRTV               030000000000  0305E9533    RBR/HISS136/030                                                                   000000000                                          CS00BREAK1008           N10080900310+00000C
3STGD1200906101119802314596000000000A07744B0090300000605100000761480200901200930Skinny Sprinkles                   030000000000  0305D0559    TVY/SSOF003/030                                                                   000000000                                          CS00BREAK1008           N10080900310+00000C
3STGD1200906101149802314599000000000A04455B0142600000294680000762390200901200930Ziffit.com                         010000000000  0105U9297    BMO/ZIFF001/010                                                                   000000000                                          CS00BREAK1008           N10080900310+00000C
3STGD1200906101159802314598000000000A00239B0012100000341780000762625200901200930Beagle Street                      030000000000  0305D9052    SCC/BSPS301/030                                                                   000000000                                          CS00BREAK1008           N10080900310+00000C
3STGD1200906101229802314603000000000A08042B0031800000638170000762328200901200930Noom Daytime                       030000000000  0305D9662    VND/NOOM005/030                                                                   000000000                                          CS00BREAK1008           N10080900310+00000C
3STGD1200906101259802314604000000000A00134B0144800000557830000763875200905200927Sunlife GOF                        020000000000  0205E9075    HHP/SLWP204/020                                                                   000000000                                          CS00BREAK1008           N10080900310+00000C
3STGD1200906102325805401858000000000A00149B0013800000564000000763471200901200930Barclays Retail                    030000000000  0305E7869    BBH/BBPR673/030                                                                   000000000                                          CS00BREAK1023           N10232500300+00000C
3STGD1200906102355805401859000000000A04159B0013800000587810000768617200901200906NFU Mutual Motor Insurance         030000000000  0305E8620    HHP/NFWU202/030                                                                   000000000                                          CS00BREAK1023           N10232500300+00000C
3STGD1200906102425805401862000000000A05035B0001200000636910000766565200901200930Euro Pro Simba 2                   030000000000  0305E4053    EUR/SHCA006/030                                                                   000000000                                          CS00BREAK1023           N10232500300+00000C
3STGD1200906102455805401864000000000A01770A0177000000662210000763541200904200924Sky Ents I Hate Suzie              030000000000  0305E8596    SKY/IHSA603/030                                                                   000000000                                          CS00BREAK1023           N10232500300+00000C
3STGD1200906102525805401866000000000A03441B0012200000509500000762071200901200920Omega Tiger Balm (NBA)             020000000000  0205D9857    OGP/TIGR004/020                                                                   000000000                                          CS00BREAK1023           N10232500300+00000C
3STGD1200906102545805401868000000000A08066B0022000000661210000761631200903200917Amazon Audible Originals           030000000000  0305E9690    SAS/AUAP002/030                                                                   000000000                                          CS00BREAK1023           N10232500300+00000C
3STGD1200906102615805401867000000000A04629B0014500000656480000761374200901200917Confused Rewards                   010000000000  0105E7303    KAR/CONF119/010                                                                   000000000                                          CS00BREAK1023           N10232500300+00000C
3STGD1200906102625805401865000000000A05318B0122200000447800000762101200901200927Purplebricks GME                   030000000000  0305E6117    SNQ/PUBR145/030                                                                   000000000                                          CS00BREAK1023           N10232500300+00000C
3STGD1200906102655805401863000000000A00766B0020300000608690000762763200901200906Honda (NBA)                        030000000000  0305E4775    OLI/HOCR498/030                                                                   000000000                                          CS00BREAK1023           N10232500300+00000C
3STGD1200906102725805401860000000000A05035B0001200000639860000766574200901200930Euro Pro Anti Hair Wrap            030000000000  0305D8030    EUR/SHAH004/030                                                                   000000000                                          CS00BREAK1023           N10232500300+00000C
3STGD1200906102755805401861000000000A03319B0142000000606700000762457200906200926Talk Talk All Time TV GME          030000000000  0305E9771    CHI/TALK946/030                                                                   000000000                                          CS00BREAK1023           N10232500300+00000C
3STGD1200906110012805401851000000000A01240B0017900000545630000764139200901200930Head & Shoulders Supreme           030000000000  0305E3718    HOG/PGHS493/030                                                                   000000000                                          CS00BREAK1100           N11001200150+00000C
3STGD1200906110042805401853000000000A01240B0017900000616030000764081200901200930Flash QCS                          030000000000  0305E5824    BUR/TFLA185/030                                                                   000000000                                          CS00BREAK1100           N11001200150+00000C
3STGD1200906110112805401854000000000A01240B0017900000192050000764060200901200930Febreze Refresher                  030000000000  0305E8074    EGP/PGFB055/030                                                                   000000000                                          CS00BREAK1100           N11001200150+00000C
3STGD1200906110142805401855000000000A01240B0017900000299840000764211200901200930Olay                               030000000000  0305E6734    HOG/PGOL506/030                                                                   000000000                                          CS00BREAK1100           N11001200150+00000C
3STGD1200906110212805401852000000000A01240B0017900000005650000763932200901200921Bold Washing Powder                030000000000  0305E8012    BUR/TBLD007/030                                                                   000000000                                          CS00BREAK1100           N11001200150+00000C
3STGD1200906111315804751962000000000A00068B0010500000534880000761740200901200930Aldi Core HFSS 1                   020000000000  0205E9676    MCM/ADSS043/020                                                                   000000000                                          CS00BREAK1113           N11131500070+00000C
3STGD1200906111335804752441000000000A00199B0123600000538480000761856200901200914Boots Hearing Care GME             010000000000  0105E9207    HOG/BOHC370/010                                                                   000000000                                          CS00BREAK1113           N11131500070+00000C
3STGD1200906111345805402064000000000A03675B0010900000203250000763095200901200930WOWCHER                            010000000000  0105E2112    SCC/WOEG008/010                                                                   000000000                                          CS00BREAK1113           N11131500070+00000C
3STGD1200906111355803801121000000000A00134B0144800000555520000764838200901200930Sunlife Funeral Plan               030000000000  0305E9276    HHP/SLLA502/030                                                                   000000000                                          CS00BREAK1113           N11131500070+00000C
3STGD1200906112800805401772000000000A01735B0014500000650300000762754200901200913Warner Brothers Tenet Film         010000000000  0105E9186    DMS/WBTE112/010                                                                   000000000                                          CS00BREAK1128           N11280000010+00000C
3STGD1200906113927805074133000000000A01565B0165300000636650000765034200901200930Marmite Mind Control PBC           010000000000  0105D8561    AED/UNMM283/010                                                                   000000000                                          CS00BREAK1139           N11392700070+00000C
3STGD1200906113937802048423000000000A00119B0017600000623980000763187200904200916Asda Brand 1 (APX)                 040000000000  0405E9672    AMV/ASAP283/040                                                                   000000000                                          CS00BREAK1139           N11392700070+00000C
3STGD1200906114017801889079000000000A01684B0005000000590040000762467200901200927Kelloggs Special K AGL (NBA)       020000000000  0205E9179    BUR/TSPK199/020                                                                   000000000                                          CS00BREAK1139           N11392700070+00000C
3STGD1200906115524803870701000000000A04113B0021100000635350000764521200902200930Coty Clairol                       020000000000  0205E9537    TTB/CLAI001/020                                                                   000000000                                          CS00BREAK1155           N11552400100+00000C
3STGD1200906115544805401136000000000A00938B0165300000598720000764632200901200930Comfort Megatron                   020000000000  0205E1589    OGY/LECO502/020                                                                   000000000                                          CS00BREAK1155           N11552400100+00000C
3STGD1200906115604803876130000000000A01621B0013800000660530000760788200901200906Walkers Giant Bags                 020000000000  0205E8981    TTB/PEWA001/020                                                                   000000000                                          CS00BREAK1155           N11552400100+00000C
3STGD1200906115624803876128000000000A00870B0019800000119720000763645200901200913J&J Aveeno                         020000000000  0205D8170    HOG/JHAV256/020                                                                   000000000                                          CS00BREAK1155           N11552400100+00000C
3STGD1200906115644804688072000000000A01706B0021100000008510000764454200901200930Birds Eye Fish Fingers NHFSS       020000000000  0205E7831    HOG/NOCF624/020                                                                   000000000                                          CS00BREAK1155           N11552400100+00000C
3STGD1200906121139805401129000000000A04445B0017800000520380000762321200901200909Lidl Baby (NBA)                    020000000000  0205E8625    KAR/LIDL118/020                                                                   000000000                                          CS00BREAK1211           N12113900090+00000C
3STGD1200906121159805401128000000000A00938B0165300000662090000763364200906200930Persil Gaia                        030000000000  0305E9861    TAG/DGGB062/030                                                                   000000000                                          CS00BREAK1211           N12113900090+00000C
3STGD1200906121229805401131000000000A00264B0123600000661460000761884200901200913Cancer Research Race For Life GME  030000000000  0305E8369    ANO/CARE268/030                                                                   000000000                                          CS00BREAK1211           N12113900090+00000C
3STGD1200906121259805401130000000000A03004B0019800000318190000767736200901200930Just Eat                           010000000000  0105E9604    MCE/JEAT099/010                                                                   000000000                                          CS00BREAK1211           N12113900090+00000C
3STGD1200906122209805401132000000000A00119B0017600000623980000763187200904200916Asda Brand 1 (APX)                 040000000000  0405E9672    AMV/ASAP283/040                                                                   000000000                                          CS00BREAK1222           N12220900120+00000C
3STGD1200906122249805401133000000000A03319B0142000000606700000762362200906200926Talk Talk All Time TV GME          030000000000  0305E9157    CHI/TALK940/030                                                                   000000000                                          CS00BREAK1222           N12220900120+00000C
3STGD1200906122319805401135000000000A01122B0019100000622820000761306200901200913Nintendo Switch Ring Fit Adventure 030000000000  0305E9194    PCH/NISW179/030                                                                   000000000                                          CS00BREAK1222           N12220900120+00000C
3STGD1200906122349805401134000000000A03441B0012200000491020000762073200901200927XLS Medical (NBA)                  020000000000  0205E8410    OGP/XLSM062/020                                                                   000000000                                          CS00BREAK1222           N12220900120+00000C
3STGD1200906123640805401145000000000A00689B0144800000529790000761499200901200920Guide Dogs For The Blind Brand     030000000000  0305E9193    KAR/DOGS007/030                                                                   000000000                                          CS00BREAK1236           N12364000120+00000C
3STGD1200906123710805401146000000000A00938B0165300000008350000762794200901200920Sure For Women Deodorant           020000000000  0205E8334    REC/SUST003/020                                                                   000000000                                          CS00BREAK1236           N12364000120+00000C
3STGD1200906123730805401147000000000A01565B0165300000636650000765034200901200930Marmite Mind Control PBC           010000000000  0105D8561    AED/UNMM283/010                                                                   000000000                                          CS00BREAK1236           N12364000120+00000C
3STGD1200906123740805401148000000000A01684B0005000000632940000762513200901200930Kelloggs Multibrand AGL (NBA)      030000000000  0305E8418    BUR/TPOP244/030                                                                   000000000                                          CS00BREAK1236           N12364000120+00000C
3STGD1200906123810805401144000000000A01619B0022200000659420000759729200902200915Waitrose Taste Dairy               030000000000  0305E9664    AED/WABR250/030                                                                   000000000                                          CS00BREAK1236           N12364000120+00000C
3STGD1200906125612803812079000000000A00910B0102200000644240000764874200901200907L'Oreal Brow Tattoo                020000000000  0205E8433    CWW/MAYB016/020                                                                   000000000                                          CS00BREAK1256           N12561200120+00000C
3STGD1200906125632802495203000000000A00910B0102200000004780000762949200901200927L'Oreal Revitalift                 030000000000  0305E8880    CWW/LORE092/030                                                                   000000000                                          CS00BREAK1256           N12561200120+00000C
3STGD1200906125702803679809000000000A07827B0031800000610450000761464200901200930Go Henry                           030000000000  0305E2025    ABF/GHEN010/030                                                                   000000000                                          CS00BREAK1256           N12561200120+00000C
3STGD1200906125732804467510000000000A03601B0016700000195850000767927200901200907Boohoo.com                         010000000000  0105E8655    BHO/BOOH182/010                                                                   000000000                                          CS00BREAK1256           N12561200120+00000C
3STGD1200906125742803814298000000000A00782B0021100000653380000764585200901200920Three Recharge                     030000000000  0305E7616    WKU/THUK179/030                                                                   000000000                                          CS00BREAK1256           N12561200120+00000C
3STGD1200906131407804362822000000000A07884B0142900000615250000765165200901200906Smile Direct Club (NBA)            030000000000  0305E6649    SMC/SDUK007/030                                                                   000000000                                          CS00BREAK1314           N13140700050+00000C
3STGD1200906131437805400396000000000A00938B0165300000656860000762765200901200920Simple Sephora                     020000000000  0205E6592    TAG/PLGB058/020                                                                   000000000                                          CS00BREAK1314           N13140700050+00000C
3STGD1200906133017805401045000000000A01632B0020300000003370000767524200906200912Weight Watchers DRTV               010000000000  0105E9802    WLI/WWOM017/010                                                                   000000000                                          CS00BREAK1330           N13301700020+00000C
3STGD1200906133027802494120000000000A03004B0019800000318190000764560200901200930Just Eat                           010000000000  0105E9392    MCE/JEAT095/010                                                                   000000000                                          CS00BREAK1330           N13301700020+00000C
3STGD1200906134304805400295000000000A01240B0017900000609080000763766200901200930Always Discreet Pads               030000000000  0305E6118    BUR/TALW560/030                                                                   000000000                                          CS00BREAK1343           N13430400120+00000C
3STGD1200906134334805400297000000000A01240B0017900000299840000764211200901200930Olay                               030000000000  0305E6734    HOG/PGOL506/030                                                                   000000000                                          CS00BREAK1343           N13430400120+00000C
3STGD1200906134404805400298000000000A01240B0017900000005650000763932200901200921Bold Washing Powder                030000000000  0305E8012    BUR/TBLD007/030                                                                   000000000                                          CS00BREAK1343           N13430400120+00000C
3STGD1200906134434805400296000000000A01240B0017900000189310000764283200901200930Oral B Toothpaste                  030000000000  0305C1838    SSC/PGOB001/030                                                                   000000000                                          CS00BREAK1343           N13430400120+00000C
3STGD1200906135504805400287000000000A00938B0165300000656860000762765200901200920Simple Sephora                     020000000000  0205E6592    TAG/PLGB058/020                                                                   000000000                                          CS00BREAK1355           N13550400120+00000C
3STGD1200906135524805400320000000000A01735B0014500000650300000762754200901200913Warner Brothers Tenet Film         010000000000  0105E9184    DMS/WBTE103/010                                                                   000000000                                          CS00BREAK1355           N13550400120+00000C
3STGD1200906135534805401044000000000A04492B0084000000622190000765791200901200930Cotswolds Furniture DRTV           030000000000  0305C6826    PCH/CCEG002/030                                                                   000000000                                          CS00BREAK1355           N13550400120+00000C
3STGD1200906135604805400289000000000A01240B0017900000005940000764449200901200930Lenor Fabric Conditioner           030000000000  0305E6806    BUR/TLEN010/030                                                                   000000000                                          CS00BREAK1355           N13550400120+00000C
3STGD1200906135634805400288000000000A01240B0017900000006070000764228200901200930Oral B Power                       030000000000  0305E7578    SSC/PWER011/030                                                                   000000000                                          CS00BREAK1355           N13550400120+00000C
3STGD1200906140703805400321000000000A03004B0019800000318190000764560200901200930Just Eat                           010000000000  0105E9604    MCE/JEAT099/010                                                                   000000000                                          CS00BREAK1407           N14070300040+00000C
3STGD1200906140713805401046000000000A01632B0020300000003370000767524200906200912Weight Watchers DRTV               030000000000  0305E9803    WLI/WWOM016/030                                                                   000000000                                          CS00BREAK1407           N14070300040+00000C
3STGD1200906142212801834732000000000A01005B0013800000640470000764502200902200930McDonalds Saver OMNET              010000000000  0105E9535    BUR/TMDS522/010                                                                   000000000                                          CS00BREAK1422           N14221200070+00000C
3STGD1200906142222804288759000000000A02818B0012700000102690000763536200901200930The Brooke Charity                 060000000000  0605E3334    TNA/BRKE004/060                                                                   000000000                                          CS00BREAK1422           N14221200070+00000C
3STGD1200906143506804621283000000000A00356B0011400000033330000761878200901200913Coke                               030000000000  0305E7876    HOG/COCA532/030                                                                   000000000                                          CS00BREAK1435           N14350600120+00000C
3STGD1200906143536801475912000000000A08069B0036500000632910000763629200901200918My Pillow                          060000000000  0605E8340    HAS/MYPE007/060                                                                   000000000                                          CS00BREAK1435           N14350600120+00000C
3STGD1200906143636802494237000000000A01240B0017900000401210000764174200901200930Herbal Essences                    030000000000  0305E7976    GRY/PGHE002/030                                                                   000000000                                          CS00BREAK1435           N14350600120+00000C
3STGD1200906145005805400291000000000A01240B0017900000638530000764494200901200930Febreze Merlion                    030000000000  0305D9277    EGP/PGFB052/030                                                                   000000000                                          CS00BREAK1450           N14500500120+00000C
3STGD1200906145035805400293000000000A01240B0017900000609070000763983200901200915Always Discreet Shero              020000000000  0205E7594    BUR/TALW569/020                                                                   000000000                                          CS00BREAK1450           N14500500120+00000C
3STGD1200906145055805400294000000000A01240B0017900000008710000764308200901200930Seven Seas Cod Liver Oil           030000000000  0305E1780    BUC/PGCP003/030                                                                   000000000                                          CS00BREAK1450           N14500500120+00000C
3STGD1200906145125805400292000000000A01240B0017900000656070000765958200901200930Ariel Hygiene                      020000000000  0205E9812    BUR/TARE063/020                                                                   000000000                                          CS00BREAK1450           N14500500120+00000C
3STGD1200906145145805400290000000000A00938B0165300000656860000762765200901200920Simple Sephora                     020000000000  0205E6592    TAG/PLGB058/020                                                                   000000000                                          CS00BREAK1450           N14500500120+00000C
3STGD1200906153222805401560000000000A00938B0165300000662090000768875200906200930Persil Gaia                        030000000000  0305E9861    TAG/DGGB062/030                                                                   000000000                                          CS00BREAK1532           N15322200140+00000E
3STGD1200906153252805401223000000000A00134B0144800000557830000763875200905200927Sunlife GOF                        020000000000  0205E9286    HHP/SLHS301/020                                                                   000000000                                          CS00BREAK1532           N15322200140+00000E
3STGD1200906153312803790111000000000A01629B0012700000123630000763352200901200930WaterAid                           090000000000  0905E9832    ETE/WAYD040/090                                                                   000000000                                          CS00BREAK1532           N15322200140+00000E
3STGD1200906154744805401229000000000A00134B0144800000555520000764838200901200930Sunlife Funeral Plan               030000000000  0305E9276    HHP/SLLA502/030                                                                   000000000                                          CS00BREAK1547           N15474400120+00000C
3STGD1200906154814805401227000000000A02181B0020300000602580000762886200901200930WWF Adoptions                      030000000000  0305E7681    DTV/WFGO002/030                                                                   000000000                                          CS00BREAK1547           N15474400120+00000C
3STGD1200906154844805401226000000000A04492B0084000000622190000765791200901200930Cotswolds Furniture DRTV           030000000000  0305C6826    PCH/CCEG002/030                                                                   000000000                                          CS00BREAK1547           N15474400120+00000C
3STGD1200906154914805401228000000000A06893B0001200000663280000767705200901200930My Tutor                           030000000000  0305E8430    ABF/MTHS001/030                                                                   000000000                                          CS00BREAK1547           N15474400120+00000C
3STGD1200906160433805400375000000000A00648B0160500000594780000762223200901200930Novartis Voltarol Medifacts        020000000000  0205E6244    HOG/GXVO976/020                                                                   000000000                                          CS00BREAK1604           N16043300100+00000E
3STGD1200906160453804134684000000000A07844B0008100000615990000762989200901200920Tide Business Banking              030000000000  0305E3706    GUS/TIDE012/030                                                                   000000000                                          CS00BREAK1604           N16043300100+00000E
3STGD1200906160523803850431000000000A00648B0160500000385010000762504200901200930Sensodyne Brand                    020000000000  0205E5729    HOG/GXSE965/020                                                                   000000000                                          CS00BREAK1604           N16043300100+00000E
3STGD1200906160543805400427000000000A01615B0014500000490120000761177200901200925VW Skoda                           030000000000  0305E7952    BUR/TSKO029/030                                                                   000000000                                          CS00BREAK1604           N16043300100+00000E
3STGD1200906162435805073486000000000A03004B0019800000318190000767729200901200930Just Eat                           010000000000  0105E9392    MCE/JEAT095/010                                                                   000000000                                          CS00BREAK1624           N16243500130+00000C
3STGD1200906162445801168395000000000A02939B0012400000638890000762748200901200916Peoples Postcode Lottery Brand AGL 030000000000  0305E8573    PPL/PPLU026/030                                                                   000000000                                          CS00BREAK1624           N16243500130+00000C
3STGD1200906162515800628765000000000A07358A0735800000623020000761422200901200930Peloton Direct SR                  030000000000  0305D9950    PCH/DHPE019/030                                                                   000000000                                          CS00BREAK1624           N16243500130+00000C
3STGD1200906162545800628769000000000A07556B0017600000642860000761819200901200930Simply Cook Shared Reward          010000000000  0105E1917    EFR/SMCK005/010                                                                   000000000                                          CS00BREAK1624           N16243500130+00000C
3STGD1200906162555800628767000000000A08268B0001400000649550000761836200901200930Simplisafe SR                      030000000000  0305E4480    BJL/SMPS208/030                                                                   000000000                                          CS00BREAK1624           N16243500130+00000C
3STGD1200906162625804746632000000000A00648B0160500000039970000762475200901200930Corsodyl                           020000000000  0205E5864    HOG/GXCO978/020                                                                   000000000                                          CS00BREAK1624           N16243500130+00000C
3STGD1200906164203805400376000000000A00748B0017800000449670000767892200901200906Heinz Summer Sauces                030000000000  0305E7087    HOG/HZSA471/030                                                                   000000000                                          CS00BREAK1642           N16420300180+00000E
3STGD1200906164233805400693000000000A00938B0165300000662090000768875200906200930Persil Gaia                        030000000000  0305E9861    TAG/DGGB062/030                                                                   000000000                                          CS00BREAK1642           N16420300180+00000E
3STGD1200906164303805400377000000000A00648B0160500000658050000762517200901200930Centrum Vitamin                    020000000000  0205E8898    EGW/CNBC017/020                                                                   000000000                                          CS00BREAK1642           N16420300180+00000E
3STGD1200906164323805401222000000000A02181B0020300000602580000762886200901200930WWF Adoptions                      030000000000  0305R1729    DTV/WFGF003/030                                                                   000000000                                          CS00BREAK1642           N16420300180+00000E
3STGD1200906164353805400868000000000A04629B0014500000656480000761374200901200917Confused Rewards                   010000000000  0105E7303    KAR/CONF119/010                                                                   000000000                                          CS00BREAK1642           N16420300180+00000E
3STGD1200906164403805400428000000000A01615B0014500000635910000761191200904200924VW Touareg                         030000000000  0305D9479    AED/VWTR440/030                                                                   000000000                                          CS00BREAK1642           N16420300180+00000E
3STGD1200906164433805400378000000000A01328B0014500000004050000761252200901200915Sainsburys                         030000000000  0305E8878    WKU/SAUK123/030                                                                   000000000                                          CS00BREAK1642           N16420300180+00000E
3STGD1200906171457801480461000000000A02099B0011600000351750000762231200901200930Moonpig Cards DRTV                 020000000000  0205E8891    CLD/MOHE027/020                                                                   000000000                                          CS00BREAK1714           N17145700340+00000C
3STGD1200906171517801179372000000000A02939B0012400000633870000762798200901200916Peoples Postcode Lottery DRTV      030000000000  0305E8573    PPL/PPLU026/030                                                                   000000000                                          CS00BREAK1714           N17145700340+00000C
3STGD1200906171547801480466000000000A00239B0012100000341780000762638200901200930Beagle Street                      030000000000  0305D9052    SCC/BSPS301/030                                                                   000000000                                          CS00BREAK1714           N17145700340+00000C
3STGD1200906171617801480459000000000A03319B0084400000545810000761637200906200926Talk Talk DRTV                     030000000000  0305E9175    CHI/TALK941/030                                                                   000000000                                          CS00BREAK1714           N17145700340+00000C
3STGD1200906171647801480467000000000A07303B0016700000561680000765313200901200913NordVPN                            010000000000  0105E9361    PAC/NVPN002/010                                                                   000000000                                          CS00BREAK1714           N17145700340+00000C
3STGD1200906171657801480465000000000A00549B0011600000003700000760917200901200930Express Gifts                      010000000000  0105E7492    CHF/STUD796/010                                                                   000000000                                          CS00BREAK1714           N17145700340+00000C
3STGD1200906171707803789929000000000A08606B0010400000657980000758631200901200906Glucose Monitoring System          030000000000  0305E7760    MCE/DEXC003/030                                                                   000000000                                          CS00BREAK1714           N17145700340+00000C
3STGD1200906171737803675458000000000A07827B0031800000610450000761464200901200930Go Henry                           030000000000  0305E2025    ABF/GHEN010/030                                                                   000000000                                          CS00BREAK1714           N17145700340+00000C
3STGD1200906171807804329651000000000A06893B0001200000663280000767705200901200930My Tutor                           030000000000  0305E8430    ABF/MTHS001/030                                                                   000000000                                          CS00BREAK1714           N17145700340+00000C
3STGD1200906171837803584188000000000A05893B0082100000610410000765980200901200930Bloom and Wild (NBA)               020000000000  0205C8246    WPP/BWLD005/020                                                                   000000000                                          CS00BREAK1714           N17145700340+00000C
3STGD1200906171857801480460000000000A01770A0177000000132360000763880200904200930Sky Broadband DRTV                 030000000000  0305E9506    FOW/SKBR248/030                                                                   000000000                                          CS00BREAK1714           N17145700340+00000C
3STGD1200906171927803802481000000000A07554B0001200000588410000761977200905200927Pension Bee                        010000000000  0105E6539    BDU/PBEE012/010                                                                   000000000                                          CS00BREAK1714           N17145700340+00000C
3STGD1200906171937801480468000000000A08042B0031800000638170000762328200901200930Noom Daytime                       030000000000  0305E7118    VND/NOOM021/030                                                                   000000000                                          CS00BREAK1714           N17145700340+00000C
3STGD1200906172007803807804000000000A04492B0084000000622190000765791200901200930Cotswolds Furniture DRTV           030000000000  0305C6826    PCH/CCEG002/030                                                                   000000000                                          CS00BREAK1714           N17145700340+00000C
3STGD1200906174833802372018000000000A01240B0017900000010270000764554200901200921Fixodent Toothpaste                030000000000  0305B3195    SSC/PGFD043/030                                                                   000000000                                          CS00BREAK1748           N17483300280+00000C
3STGD1200906174903804559340000000000A08096B0144800000634570000763748200901200913Allplants Veganuary (NBA)          010000000000  0105E8644    TSV/ALLR002/010                                                                   000000000                                          CS00BREAK1748           N17483300280+00000C
3STGD1200906174913802372019000000000A01240B0017900000435060000764511200901200930Febreze Plug                       030000000000  0305E9239    EGP/PGFB054/030                                                                   000000000                                          CS00BREAK1748           N17483300280+00000C
3STGD1200906174943802372021000000000A01240B0017900000008710000764288200901200930Seven Seas Cod Liver Oil           030000000000  0305E1780    BUC/PGCP003/030                                                                   000000000                                          CS00BREAK1748           N17483300280+00000C
3STGD1200906175013802088638000000000A00895B0013100000058820000769560200901200930Huggies Pull Ups                   030000000000  0305E8149    RML/HPUC002/030                                                                   000000000                                          CS00BREAK1748           N17483300280+00000C
3STGD1200906175043802372020000000000A01240B0017900000299840000764179200901200930Olay                               030000000000  0305E6734    HOG/PGOL506/030                                                                   000000000                                          CS00BREAK1748           N17483300280+00000C
3STGD1200906175113802372022000000000A01240B0017900000005940000764437200901200930Lenor Fabric Conditioner           030000000000  0305E6806    BUR/TLEN010/030                                                                   000000000                                          CS00BREAK1748           N17483300280+00000C
3STGD1200906175143802372023000000000A01240B0017900000006070000764218200901200930Oral B Power                       030000000000  0305E7578    SSC/PWER011/030                                                                   000000000                                          CS00BREAK1748           N17483300280+00000C
3STGD1200906175213802372024000000000A01240B0017900000005820000764127200901200930Fairy Washing Up Liquid            030000000000  0305E7159    SSC/PGFY016/030                                                                   000000000                                          CS00BREAK1748           N17483300280+00000C
3STGD1200906175243802093923000000000A01240B0017900000401210000764167200901200930Herbal Essences                    030000000000  0305E7976    GRY/PGHE002/030                                                                   000000000                                          CS00BREAK1748           N17483300280+00000C
3STGD1200906181630803837659000000000A01565B0165300000636650000765034200901200930Marmite Mind Control PBC           010000000000  0105D8561    AED/UNMM283/010                                                                   000000000                                          CS00BREAK1816           N18163000340+00000C
3STGD1200906181640804409159000000000A04629B0014500000656480000761374200901200917Confused Rewards                   010000000000  0105E7303    KAR/CONF119/010                                                                   000000000                                          CS00BREAK1816           N18163000340+00000C
3STGD1200906181650803837658000000000A00938B0165300000008350000762794200901200920Sure For Women Deodorant           020000000000  0205E8334    REC/SUST003/020                                                                   000000000                                          CS00BREAK1816           N18163000340+00000C
3STGD1200906181710803851635000000000A04377B0016700000316110000762264200901200930Inno Games Forge of Empires DRTV   030000000000  0305T6501    IMD/FOEB396/030                                                                   000000000                                          CS00BREAK1816           N18163000340+00000C
3STGD1200906181740803837660000000000A03441B0012200000491020000762073200901200927XLS Medical (NBA)                  020000000000  0205E8410    OGP/XLSM062/020                                                                   000000000                                          CS00BREAK1816           N18163000340+00000C
3STGD1200906181800803837663000000000A00938B0165300000662090000763364200906200930Persil Gaia                        030000000000  0305E9861    TAG/DGGB062/030                                                                   000000000                                          CS00BREAK1816           N18163000340+00000C
3STGD1200906181830803859319000000000A07884B0142900000615250000765165200901200906Smile Direct Club (NBA)            030000000000  0305E8023    TAG/SDUK032/030                                                                   000000000                                          CS00BREAK1816           N18163000340+00000C
3STGD1200906181900803837662000000000A05340B0123600000500560000761929200901200930Ribena GME                         020000000000  0205B6965    JWT/RIBE011/020                                                                   000000000                                          CS00BREAK1816           N18163000340+00000C
3STGD1200906181920804751980000000000A01616B0013100000546270000762733200901200920Volvo XC40                         020000000000  0205E8385    TAG/VOGB024/020                                                                   000000000                                          CS00BREAK1816           N18163000340+00000C
3STGD1200906181940804619471000000000A00938B0165300000598720000764632200901200930Comfort Megatron                   020000000000  0205E1589    OGY/LECO502/020                                                                   000000000                                          CS00BREAK1816           N18163000340+00000C
3STGD1200906182000803837661000000000A03319B0142000000606700000762362200906200926Talk Talk All Time TV GME          030000000000  0305E9772    CHI/TALK943/030                                                                   000000000                                          CS00BREAK1816           N18163000340+00000C
3STGD1200906182030803837657000000000A01115B0074200000454180000762867200903200906The Sun Sea Life                   020000000000  0205E9244    TTB/SUNT356/020                                                                   000000000                                          CS00BREAK1816           N18163000340+00000C
3STGD1200906182050803860019000000000A01240B0017900000609080000763766200901200930Always Discreet Pads               030000000000  0305E6118    BUR/TALW560/030                                                                   000000000                                          CS00BREAK1816           N18163000340+00000C
3STGD1200906182120805054382000000000A07556B0017600000642860000761819200901200930Simply Cook Shared Reward          030000000000  0305B5684    EFR/SMCK003/030                                                                   000000000                                          CS00BREAK1816           N18163000340+00000C
3STGD1200906182150803835372000000000A00938B0165300000656860000762765200901200920Simple Sephora                     020000000000  0205E6592    TAG/PLGB058/020                                                                   000000000                                          CS00BREAK1816           N18163000340+00000C
3STGD1200906184650803848335000000000A04092B0102200000276720000761783200901200930Everything Everywhere Network      030000000000  0305E8212    SSC/EEBR467/030                                                                   000000000                                          CS00BREAK1846           N18465000330+00000C
3STGD1200906184720803848336000000000A03004B0019800000318190000764560200901200930Just Eat                           030000000000  0305E6111    MCE/JEAT082/030                                                                   000000000                                          CS00BREAK1846           N18465000330+00000C
3STGD1200906184750805401948000000000A00199B0123600000538480000761856200901200914Boots Hearing Care GME             010000000000  0105E9207    HOG/BOHC370/010                                                                   000000000                                          CS00BREAK1846           N18465000330+00000C
3STGD1200906184800803854886000000000A01240B0017900000006120000766071200901200930Pantene                            030000000000  0305E7629    GRY/PGPP639/030                                                                   000000000                                          CS00BREAK1846           N18465000330+00000C
3STGD1200906184830803859894000000000A03653B0022200000200580000762184200901200930Intuit Quickbooks Brand            020000000000  0205D7729    TGS/ITQB021/020                                                                   000000000                                          CS00BREAK1846           N18465000330+00000C
3STGD1200906184850803884472000000000A00895B0013100000058820000769560200901200930Huggies Pull Ups                   030000000000  0305E8149    RML/HPUC002/030                                                                   000000000                                          CS00BREAK1846           N18465000330+00000C
3STGD1200906184920803861163000000000A00648B0160500000385010000762504200901200930Sensodyne Brand                    020000000000  0205E5729    HOG/GXSE965/020                                                                   000000000                                          CS00BREAK1846           N18465000330+00000C
3STGD1200906184940803859893000000000A03529B0074500000185160000762682200901200930Quooker Taps                       060000000000  0605D0974    BRT/QUOD001/060                                                                   000000000                                          CS00BREAK1846           N18465000330+00000C
3STGD1200906185040803853342000000000A00360B0022200000660130000765250200901200906CCS PHE Better Health              060000000000  0605E7331    NSA/PHBH348/060                                                                   000000000                                          CS00BREAK1846           N18465000330+00000C
3STGD1200906185140803860906000000000A00068B0010500000310910000761799200903200907Aldi Stores Super 6 HFSS           020000000000  0205E9592    MCM/ADSS040/020                                                                   000000000                                          CS00BREAK1846           N18465000330+00000C
3STGD1200906185200803847007000000000A00910B0102200000546720000762950200902200921Garnier Masks                      020000000000  0205E8884    CWW/GARN049/020                                                                   000000000                                          CS00BREAK1846           N18465000330+00000C
3STGD1200906192230805400551000000000A01240B0017900000545630000764139200901200930Head & Shoulders Supreme           030000000000  0305E4366    HOG/PGOL498/030                                                                   000000000                                          CS00BREAK1922           N19223000340+00000C
3STGD1200906192300805400891000000000A00068B0010500000534880000761740200901200930Aldi Core HFSS 1                   030000000000  0305E9677    MCM/ADSS044/030                                                                   000000000                                          CS00BREAK1922           N19223000340+00000C
3STGD1200906192330805400553000000000A01240B0017900000005940000764449200901200930Lenor Fabric Conditioner           030000000000  0305E6806    BUR/TLEN010/030                                                                   000000000                                          CS00BREAK1922           N19223000340+00000C
3STGD1200906192400805400555000000000A01240B0017900000189310000764283200901200930Oral B Toothpaste                  030000000000  0305C1838    SSC/PGOB001/030                                                                   000000000                                          CS00BREAK1922           N19223000340+00000C
3STGD1200906192430805400826000000000A03675B0010900000557450000766280200901200930WOWCHER All Times                  010000000000  0105E2111    SCC/WOEB015/010                                                                   000000000                                          CS00BREAK1922           N19223000340+00000C
3STGD1200906192440805401644000000000A01735B0014500000650300000762754200901200913Warner Brothers Tenet Film         010000000000  0105E9307    DMS/WBTE118/010                                                                   000000000                                          CS00BREAK1922           N19223000340+00000C
3STGD1200906192450805400558000000000A01240B0017900000609070000763983200901200915Always Discreet Shero              020000000000  0205E7594    BUR/TALW569/020                                                                   000000000                                          CS00BREAK1922           N19223000340+00000C
3STGD1200906192510805400556000000000A01240B0017900000299840000764211200901200930Olay                               030000000000  0305E6734    HOG/PGOL506/030                                                                   000000000                                          CS00BREAK1922           N19223000340+00000C
3STGD1200906192540805400554000000000A01240B0017900000192050000764060200901200930Febreze Refresher                  030000000000  0305E8074    EGP/PGFB055/030                                                                   000000000                                          CS00BREAK1922           N19223000340+00000C
3STGD1200906192610805401643000000000A00490B0123600000480590000765839200901200930Ebay GME                           030000000000  0305E9661    MCE/EBAY042/030                                                                   000000000                                          CS00BREAK1922           N19223000340+00000C
3STGD1200906192640805400557000000000A01240B0017900000008710000764308200901200930Seven Seas Cod Liver Oil           030000000000  0305E1780    BUC/PGCP003/030                                                                   000000000                                          CS00BREAK1922           N19223000340+00000C
3STGD1200906192710805401994000000000A07850B0014500000612310000761265200901200913HeyCar                             040000000000  0405E8377    ATO/HECA002/040                                                                   000000000                                          CS00BREAK1922           N19223000340+00000C
3STGD1200906192750805400552000000000A01240B0017900000656070000765958200901200930Ariel Hygiene                      020000000000  0205E9812    BUR/TARE063/020                                                                   000000000                                          CS00BREAK1922           N19223000340+00000C
3STGD1200906193858804417936000000000A04629B0014500000656480000761374200901200917Confused Rewards                   010000000000  0105E7303    KAR/CONF119/010                                                                   000000000                                          CS00BREAK1938           N19385800340+00000C
3STGD1200906193908802066360000000000A00938B0165300000656860000762765200901200920Simple Sephora                     020000000000  0205E6592    TAG/PLGB058/020                                                                   000000000                                          CS00BREAK1938           N19385800340+00000C
3STGD1200906193928802121034000000000A01240B0017900000435060000764511200901200930Febreze Plug                       030000000000  0305E9239    EGP/PGFB054/030                                                                   000000000                                          CS00BREAK1938           N19385800340+00000C
3STGD1200906193958802343213000000000A00986B0008500000299460000763943200901200930Quorn Range Non-HFSS               020000000000  0205E8540    SIP/NUGG035/020                                                                   000000000                                          CS00BREAK1938           N19385800340+00000C
3STGD1200906194018802134072000000000A01240B0017900000658680000764086200901200930Flash HCS                          030000000000  0305E5686    BUR/TFLA184/030                                                                   000000000                                          CS00BREAK1938           N19385800340+00000C
3STGD1200906194048802343214000000000A03004B0019800000318190000764560200901200930Just Eat                           030000000000  0305E6111    MCE/JEAT082/030                                                                   000000000                                          CS00BREAK1938           N19385800340+00000C
3STGD1200906194118802121035000000000A01240B0017900000006070000764218200901200930Oral B Power                       030000000000  0305E7578    SSC/PWER011/030                                                                   000000000                                          CS00BREAK1938           N19385800340+00000C
3STGD1200906194148802066361000000000A01240B0017900000401210000764174200901200930Herbal Essences                    030000000000  0305E7976    GRY/PGHE002/030                                                                   000000000                                          CS00BREAK1938           N19385800340+00000C
3STGD1200906194218804269138000000000A04201B0082100000266430000761067200901200913HelloFresh.co.uk                   030000000000  0305E9496    PCH/HFDM025/030                                                                   000000000                                          CS00BREAK1938           N19385800340+00000C
3STGD1200906194248802134073000000000A01240B0017900000005820000764127200901200930Fairy Washing Up Liquid            030000000000  0305E7159    SSC/PGFY016/030                                                                   000000000                                          CS00BREAK1938           N19385800340+00000C
3STGD1200906194318802343216000000000A01240B0017900000609080000763756200901200930Always Discreet Pads               030000000000  0305E6118    BUR/TALW560/030                                                                   000000000                                          CS00BREAK1938           N19385800340+00000C
3STGD1200906194348802134074000000000A01240B0017900000005790000764083200901200930Fairy ADW                          030000000000  0305E8578    SSC/PGFY019/030                                                                   000000000                                          CS00BREAK1938           N19385800340+00000C
3STGD1200906194418801884121000000000A00068B0010500000310910000761799200903200907Aldi Stores Super 6 HFSS           020000000000  0205E9592    MCM/ADSS040/020                                                                   000000000                                          CS00BREAK1938           N19385800340+00000C
3STGD1200906201230805400350000000000A01240B0017900000616030000764081200901200930Flash QCS                          030000000000  0305E5824    BUR/TFLA185/030                                                                   000000000                                          CS00BREAK2012           N20123000090+00000C
3STGD1200906201300805400351000000000A01240B0017900000536900000764293200901200930Fairy Non Bio Safety               030000000000  0305D8014    KCH/FAIR001/030                                                                   000000000                                          CS00BREAK2012           N20123000090+00000C
3STGD1200906201330805400349000000000A01240B0017900000656640000764118200901200930Head & Shoulders Adults            030000000000  0305E7891    SSC/PGHS497/030                                                                   000000000                                          CS00BREAK2012           N20123000090+00000C
3STGD1200906202541801585833000000000A01240B0017900000664320000764267200901200921Ariel TM                           030000000000  0305E1317    BUR/TARE059/030                                                                   000000000                                          CS00BREAK2025           N20254100160+00000C
3STGD1200906202611801895531000000000A00068B0010500000310910000761799200903200907Aldi Stores Super 6 HFSS           020000000000  0205E9592    MCM/ADSS040/020                                                                   000000000                                          CS00BREAK2025           N20254100160+00000C
3STGD1200906202631803579373000000000A03675B0010900000557450000766279200901200930WOWCHER All Times                  030000000000  0305C9226    SCC/WOEG005/030                                                                   000000000                                          CS00BREAK2025           N20254100160+00000C
3STGD1200906202701805073527000000000A01735B0014500000650300000762754200901200913Warner Brothers Tenet Film         010000000000  0105E9185    DMS/WBTE113/010                                                                   000000000                                          CS00BREAK2025           N20254100160+00000C
3STGD1200906202711804441065000000000A04092B0102200000276720000761783200901200930Everything Everywhere Network      030000000000  0305E8212    SSC/EEBR467/030                                                                   000000000                                          CS00BREAK2025           N20254100160+00000C
3STGD1200906202741803891352000000000A00109B0014500000070910000761668200901200912Argos Brand                        010000000000  0105E8619    CHI/ARGO025/010                                                                   000000000                                          CS00BREAK2025           N20254100160+00000C
3STGD1200906202751801585834000000000A01240B0017900000005820000764216200901200930Fairy Washing Up Liquid            030000000000  0305E7159    SSC/PGFY016/030                                                                   000000000                                          CS00BREAK2025           N20254100160+00000C
3STGD1200906203918803875739000000000A01240B0017900000006120000766072200901200930Pantene                            030000000000  0305E7629    GRY/PGPP639/030                                                                   000000000                                          CS00BREAK2039           N20391800160+00000C
3STGD1200906203948803870488000000000A03004B0019800000318190000764560200901200930Just Eat                           030000000000  0305E6111    MCE/JEAT082/030                                                                   000000000                                          CS00BREAK2039           N20391800160+00000C
3STGD1200906204018803875741000000000A01240B0017900000006070000764228200901200930Oral B Power                       030000000000  0305E7578    SSC/PWER011/030                                                                   000000000                                          CS00BREAK2039           N20391800160+00000C
3STGD1200906204048805400342000000000A00938B0165300000656860000762765200901200920Simple Sephora                     020000000000  0205E6592    TAG/PLGB058/020                                                                   000000000                                          CS00BREAK2039           N20391800160+00000C
3STGD1200906204108804386755000000000A00986B0008500000299460000763943200901200930Quorn Range Non-HFSS               020000000000  0205E8540    SIP/NUGG035/020                                                                   000000000                                          CS00BREAK2039           N20391800160+00000C
3STGD1200906204128803875742000000000A01240B0017900000189310000764283200901200930Oral B Toothpaste                  030000000000  0305C1838    SSC/PGOB001/030                                                                   000000000                                          CS00BREAK2039           N20391800160+00000C
3STGD1200906205250805400343000000000A01240B0017900000658680000764096200901200930Flash HCS                          030000000000  0305E5686    BUR/TFLA184/030                                                                   000000000                                          CS00BREAK2052           N20525000160+00000E
3STGD1200906205320805400348000000000A01240B0017900000010270000764606200901200921Fixodent Toothpaste                030000000000  0305B3195    SSC/PGFD043/030                                                                   000000000                                          CS00BREAK2052           N20525000160+00000E
3STGD1200906205350805400345000000000A01240B0017900000656070000765958200901200930Ariel Hygiene                      020000000000  0205E9812    BUR/TARE063/020                                                                   000000000                                          CS00BREAK2052           N20525000160+00000E
3STGD1200906205410805400347000000000A01240B0017900000609070000763983200901200915Always Discreet Shero              020000000000  0205E7594    BUR/TALW569/020                                                                   000000000                                          CS00BREAK2052           N20525000160+00000E
3STGD1200906205430805400346000000000A01240B0017900000192050000764060200901200930Febreze Refresher                  030000000000  0305E8074    EGP/PGFB055/030                                                                   000000000                                          CS00BREAK2052           N20525000160+00000E
3STGD1200906205500805400344000000000A01240B0017900000545630000764139200901200930Head & Shoulders Supreme           030000000000  0305E3718    HOG/PGHS493/030                                                                   000000000                                          CS00BREAK2052           N20525000160+00000E
3STGD1200906212525801889076000000000A00905B0005000000428150000762522200901200927Kraft Belvita (BAR)                020000000000  0205E8461    LBE/BEVI007/020                                                                   000000000                                          CS00BREAK2125           N21252500350+00000C
3STGD1200906212545804220151000000000A00938B0165300000008360000764486200901200930Surf                               010000000000  0105E3653    TAG/SFGB035/010                                                                   000000000                                          CS00BREAK2125           N21252500350+00000C
3STGD1200906212555801889078000000000A01684B0005000000590040000762467200901200927Kelloggs Special K AGL (NBA)       020000000000  0205E9179    BUR/TSPK199/020                                                                   000000000                                          CS00BREAK2125           N21252500350+00000C
3STGD1200906212615805401137000000000A01122B0019100000622820000761306200901200913Nintendo Switch Ring Fit Adventure 030000000000  0305E9194    PCH/NISW179/030                                                                   000000000                                          CS00BREAK2125           N21252500350+00000C
3STGD1200906212645805401138000000000A00353B0005000000602680000762495200901200908Co-op Food (MNS)                   010000000000  0105E8807    LYG/CPFD076/010                                                                   000000000                                          CS00BREAK2125           N21252500350+00000C
3STGD1200906212655805401143000000000A00264B0123600000661460000761884200901200913Cancer Research Race For Life GME  030000000000  0305E8369    ANO/CARE268/030                                                                   000000000                                          CS00BREAK2125           N21252500350+00000C
3STGD1200906212725803574421000000000A07899B0001200000636370000766397200901200913Arden University                   030000000000  0305E6387    ABF/AUYC002/030                                                                   000000000                                          CS00BREAK2125           N21252500350+00000C
3STGD1200906212755805401274000000000A05318B0122200000447800000762101200901200927Purplebricks GME                   030000000000  0305E6116    SNQ/PUBR146/030                                                                   000000000                                          CS00BREAK2125           N21252500350+00000C
3STGD1200906212825805401139000000000A01621B0013800000660530000760788200901200906Walkers Giant Bags                 020000000000  0205E8981    TTB/PEWA001/020                                                                   000000000                                          CS00BREAK2125           N21252500350+00000C
3STGD1200906212845801918013000000000A01770A0177000000610550000763944200903200917Sky Sports SOS                     030000000000  0305E9863    SKY/SSBR999/030                                                                   000000000                                          CS00BREAK2125           N21252500350+00000C
3STGD1200906212915805401140000000000A03319B0142000000606700000762362200906200926Talk Talk All Time TV GME          030000000000  0305E9771    CHI/TALK946/030                                                                   000000000                                          CS00BREAK2125           N21252500350+00000C
3STGD1200906212945805401164000000000A00199B0123600000538480000761856200901200914Boots Hearing Care GME             010000000000  0105E9207    HOG/BOHC370/010                                                                   000000000                                          CS00BREAK2125           N21252500350+00000C
3STGD1200906212955805401142000000000A00938B0165300000598720000764632200901200930Comfort Megatron                   020000000000  0205E1589    OGY/LECO502/020                                                                   000000000                                          CS00BREAK2125           N21252500350+00000C
3STGD1200906213015805401141000000000A01565B0165300000636650000765034200901200930Marmite Mind Control PBC           010000000000  0105D8561    AED/UNMM283/010                                                                   000000000                                          CS00BREAK2125           N21252500350+00000C
3STGD1200906213025801918012000000000A00800B0020300000579870000762761200901200906IKEA Room For Celebration (MNS)    020000000000  0205E8652    MUM/IKFO855/020                                                                   000000000                                          CS00BREAK2125           N21252500350+00000C
3STGD1200906213045800580721000000000A01523B0142000000595110000762632200901200930Toyota Lexus UX GME                030000000000  0305E7035    TAG/TOGB305/030                                                                   000000000                                          CS00BREAK2125           N21252500350+00000C
3STGD1200906221334805401331000000000A00938B0165300000662090000763364200906200930Persil Gaia                        030000000000  0305E9861    TAG/DGGB062/030                                                                   000000000                                          CS00BREAK2213           N22133400340+00000C
3STGD1200906221404805401329000000000A03004B0019800000318190000767736200901200930Just Eat                           030000000000  0305E6111    MCE/JEAT082/030                                                                   000000000                                          CS00BREAK2213           N22133400340+00000C
3STGD1200906221434805401528000000000A01240B0017900000189310000764274200901200930Oral B Toothpaste                  030000000000  0305C1838    SSC/PGOB001/030                                                                   000000000                                          CS00BREAK2213           N22133400340+00000C
