00SKYPS01   05022021032606
01ATRB17022021
02150000SINGALONG Peppa Pig                                                   0000000000000000000000 
02150500Peppa Pig                                                             0000000000000000000000 
02151500Peppa Pig                                                             0000000000000000000000 
02152000Peppa Pig                                                             0000000000000000000000 
02153000Peppa Pig                                                             0000000000000000000000 
02153500Peppa Pig                                                             0000000000000000000000 
02154500Peppa Pig                                                             0000000000000000000000 
02155000Peppa Pig                                                             0000000000000000000000 
02160000SINGALONG Peppa Pig                                                   0000000000000000000000 
02160500Peppa Pig                                                             0000000000000000000000 
02161500Peppa Pig                                                             0000000000000000000000 
02162000Peppa Pig                                                             0000000000000000000000 
02163000Peppa Pig                                                             0000000000000000000000 
02163500Peppa Pig                                                             0000000000000000000000 
02164500Peppa Pig                                                             0000000000000000000000 
02165000Peppa Pig                                                             0000000000000000000000 
02170000SINGALONG Peppa Pig                                                   0000000000000000000000 
02170500Peppa Pig                                                             0000000000000000000000 
02171500Peppa Pig                                                             0000000000000000000000 
02172000Peppa Pig                                                             0000000000000000000000 
02173000Peppa Pig                                                             0000000000000000000000 
02173500Peppa Pig                                                             0000000000000000000000 
02174500Peppa Pig                                                             0000000000000000000000 
02175000Peppa Pig                                                             0000000000000000000000 
02180000Peppa Pig                                                             0000000000000000000000 
02180500Peppa Pig                                                             0000000000000000000000 
02181500Peppa Pig                                                             0000000000000000000000 
02182000Peppa Pig                                                             0000000000000000000000 
02183000Peppa Pig                                                             0000000000000000000000 
02183500Peppa Pig                                                             0000000000000000000000 
02184500Peppa Pig                                                             0000000000000000000000 
02185000Peppa Pig                                                             0000000000000000000000 
02190000Peppa Pig                                                             0000000000000000000000 
02190500Peppa Pig                                                             0000000000000000000000 
02191500Peppa Pig                                                             0000000000000000000000 
02192000Peppa Pig                                                             0000000000000000000000 
02193000Peppa Pig                                                             0000000000000000000000 
02193500Peppa Pig                                                             0000000000000000000000 
02194500Peppa Pig                                                             0000000000000000000000 
02195000Peppa Pig                                                             0000000000000000000000 
02200000Peppa Pig                                                             0000000000000000000000 
02200500Peppa Pig                                                             0000000000000000000000 
02201500Peppa Pig                                                             0000000000000000000000 
02202100Peppa Pig                                                             0000000000000000000000 
02203000Peppa Pig                                                             0000000000000000000000 
02203500Peppa Pig                                                             0000000000000000000000 
02204500Peppa Pig                                                             0000000000000000000000 
02205000Peppa Pig                                                             0000000000000000000000 
02210000SINGALONG Peppa Pig                                                   0000000000000000000000 
02210500Peppa Pig                                                             0000000000000000000000 
02211500Peppa Pig                                                             0000000000000000000000 
02212000Peppa Pig                                                             0000000000000000000000 
02213000Peppa Pig                                                             0000000000000000000000 
02213500Peppa Pig                                                             0000000000000000000000 
02214500Peppa Pig                                                             0000000000000000000000 
02215000Peppa Pig                                                             0000000000000000000000 
02220000SINGALONG Peppa Pig                                                   0000000000000000000000 
02220500Peppa Pig                                                             0000000000000000000000 
02221500Peppa Pig                                                             0000000000000000000000 
02222000Peppa Pig                                                             0000000000000000000000 
02223000Peppa Pig                                                             0000000000000000000000 
02223500Peppa Pig                                                             0000000000000000000000 
02224500Peppa Pig                                                             0000000000000000000000 
02225000Peppa Pig                                                             0000000000000000000000 
02230000SINGALONG Peppa Pig                                                   0000000000000000000000 
02230500Peppa Pig                                                             0000000000000000000000 
02231500Peppa Pig                                                             0000000000000000000000 
02232000Peppa Pig                                                             0000000000000000000000 
02233000Peppa Pig                                                             0000000000000000000000 
02233500Peppa Pig                                                             0000000000000000000000 
02234500Peppa Pig                                                             0000000000000000000000 
02235000Peppa Pig                                                             0000000000000000000000 
02240000Peppa Pig                                                             0000000000000000000000 
02240500Peppa Pig                                                             0000000000000000000000 
02241500Peppa Pig                                                             0000000000000000000000 
02242000Peppa Pig                                                             0000000000000000000000 
02243000Peppa Pig                                                             0000000000000000000000 
02243500Peppa Pig                                                             0000000000000000000000 
02244500Peppa Pig                                                             0000000000000000000000 
02245000Peppa Pig                                                             0000000000000000000000 
02250000Peppa Pig                                                             0000000000000000000000 
02250500Peppa Pig                                                             0000000000000000000000 
02251500Peppa Pig                                                             0000000000000000000000 
02252000Peppa Pig                                                             0000000000000000000000 
02253000Peppa Pig                                                             0000000000000000000000 
02253500Peppa Pig                                                             0000000000000000000000 
02254500Peppa Pig                                                             0000000000000000000000 
02255000Peppa Pig                                                             0000000000000000000000 
02260000Peppa Pig                                                             0000000000000000000000 
02260500Peppa Pig                                                             0000000000000000000000 
02261500Peppa Pig                                                             0000000000000000000000 
02262000Peppa Pig                                                             0000000000000000000000 
02263000Peppa Pig                                                             0000000000000000000000 
02263500Peppa Pig                                                             0000000000000000000000 
02264500Peppa Pig                                                             0000000000000000000000 
02265000Peppa Pig                                                             0000000000000000000000 
02270000Peppa Pig                                                             0000000000000000000000 
02270500Peppa Pig                                                             0000000000000000000000 
02271500Peppa Pig                                                             0000000000000000000000 
02272000Peppa Pig                                                             0000000000000000000000 
02273000Peppa Pig                                                             0000000000000000000000 
02273500Peppa Pig                                                             0000000000000000000000 
02274500Peppa Pig                                                             0000000000000000000000 
02275000Peppa Pig                                                             0000000000000000000000 
02280000Peppa Pig                                                             0000000000000000000000 
02280500Peppa Pig                                                             0000000000000000000000 
02281500Peppa Pig                                                             0000000000000000000000 
02282000Peppa Pig                                                             0000000000000000000000 
02283000Peppa Pig                                                             0000000000000000000000 
02283500Peppa Pig                                                             0000000000000000000000 
02284500Peppa Pig                                                             0000000000000000000000 
02285000Peppa Pig                                                             0000000000000000000000 
02290000Peppa Pig                                                             0000000000000000000000 
02290500Peppa Pig                                                             0000000000000000000000 
02291500Peppa Pig                                                             0000000000000000000000 
02292000Peppa Pig                                                             0000000000000000000000 
02293000Peppa Pig                                                             0000000000000000000000 
02293500Peppa Pig                                                             0000000000000000000000 
02294500Peppa Pig                                                             0000000000000000000000 
02295000Peppa Pig                                                             0000000000000000000000 
09ATRBATRB17022021000122
01ATRB18022021
02150000SINGALONG Peppa Pig                                                   0000000000000000000000 
02150500Peppa Pig                                                             0000000000000000000000 
02151500Peppa Pig                                                             0000000000000000000000 
02152000Peppa Pig                                                             0000000000000000000000 
02153000Peppa Pig                                                             0000000000000000000000 
02153500Peppa Pig                                                             0000000000000000000000 
02154500Peppa Pig                                                             0000000000000000000000 
02155000Peppa Pig                                                             0000000000000000000000 
02160000SINGALONG Peppa Pig                                                   0000000000000000000000 
02160500Peppa Pig                                                             0000000000000000000000 
02161500Peppa Pig                                                             0000000000000000000000 
02162000Peppa Pig                                                             0000000000000000000000 
02163000Peppa Pig                                                             0000000000000000000000 
02163500Peppa Pig                                                             0000000000000000000000 
02164500Peppa Pig                                                             0000000000000000000000 
02165000Peppa Pig                                                             0000000000000000000000 
02170000SINGALONG Peppa Pig                                                   0000000000000000000000 
02170500Peppa Pig                                                             0000000000000000000000 
02171500Peppa Pig                                                             0000000000000000000000 
02172000Peppa Pig                                                             0000000000000000000000 
02173000Peppa Pig                                                             0000000000000000000000 
02173500Peppa Pig                                                             0000000000000000000000 
02174500Peppa Pig                                                             0000000000000000000000 
02175000Peppa Pig                                                             0000000000000000000000 
02180000Peppa Pig                                                             0000000000000000000000 
02180500Peppa Pig                                                             0000000000000000000000 
02181500Peppa Pig                                                             0000000000000000000000 
02182000Peppa Pig                                                             0000000000000000000000 
02183000Peppa Pig                                                             0000000000000000000000 
02183500Peppa Pig                                                             0000000000000000000000 
02184500Peppa Pig                                                             0000000000000000000000 
02185000Peppa Pig                                                             0000000000000000000000 
02190000Peppa Pig                                                             0000000000000000000000 
02190500Peppa Pig                                                             0000000000000000000000 
02191500Peppa Pig                                                             0000000000000000000000 
02192000Peppa Pig                                                             0000000000000000000000 
02193000Peppa Pig                                                             0000000000000000000000 
02193500Peppa Pig                                                             0000000000000000000000 
02194500Peppa Pig                                                             0000000000000000000000 
02195000Peppa Pig                                                             0000000000000000000000 
02200000Peppa Pig                                                             0000000000000000000000 
02200500Peppa Pig                                                             0000000000000000000000 
02201500Peppa Pig                                                             0000000000000000000000 
02202100Peppa Pig                                                             0000000000000000000000 
02203000Peppa Pig                                                             0000000000000000000000 
02203500Peppa Pig                                                             0000000000000000000000 
02204500Peppa Pig                                                             0000000000000000000000 
02205000Peppa Pig                                                             0000000000000000000000 
02210000SINGALONG Peppa Pig                                                   0000000000000000000000 
02210500Peppa Pig                                                             0000000000000000000000 
02211500Peppa Pig                                                             0000000000000000000000 
02212000Peppa Pig                                                             0000000000000000000000 
02213000Peppa Pig                                                             0000000000000000000000 
02213500Peppa Pig                                                             0000000000000000000000 
02214500Peppa Pig                                                             0000000000000000000000 
02215000Peppa Pig                                                             0000000000000000000000 
02220000SINGALONG Peppa Pig                                                   0000000000000000000000 
02220500Peppa Pig                                                             0000000000000000000000 
02221500Peppa Pig                                                             0000000000000000000000 
02222000Peppa Pig                                                             0000000000000000000000 
02223000Peppa Pig                                                             0000000000000000000000 
02223500Peppa Pig                                                             0000000000000000000000 
02224500Peppa Pig                                                             0000000000000000000000 
02225000Peppa Pig                                                             0000000000000000000000 
02230000SINGALONG Peppa Pig                                                   0000000000000000000000 
02230500Peppa Pig                                                             0000000000000000000000 
02231500Peppa Pig                                                             0000000000000000000000 
02232000Peppa Pig                                                             0000000000000000000000 
02233000Peppa Pig                                                             0000000000000000000000 
02233500Peppa Pig                                                             0000000000000000000000 
02234500Peppa Pig                                                             0000000000000000000000 
02235000Peppa Pig                                                             0000000000000000000000 
02240000Peppa Pig                                                             0000000000000000000000 
02240500Peppa Pig                                                             0000000000000000000000 
02241500Peppa Pig                                                             0000000000000000000000 
02242000Peppa Pig                                                             0000000000000000000000 
02243000Peppa Pig                                                             0000000000000000000000 
02243500Peppa Pig                                                             0000000000000000000000 
02244500Peppa Pig                                                             0000000000000000000000 
02245000Peppa Pig                                                             0000000000000000000000 
02250000Peppa Pig                                                             0000000000000000000000 
02250500Peppa Pig                                                             0000000000000000000000 
02251500Peppa Pig                                                             0000000000000000000000 
02252000Peppa Pig                                                             0000000000000000000000 
02253000Peppa Pig                                                             0000000000000000000000 
02253500Peppa Pig                                                             0000000000000000000000 
02254500Peppa Pig                                                             0000000000000000000000 
02255000Peppa Pig                                                             0000000000000000000000 
02260000Peppa Pig                                                             0000000000000000000000 
02260500Peppa Pig                                                             0000000000000000000000 
02261500Peppa Pig                                                             0000000000000000000000 
02262000Peppa Pig                                                             0000000000000000000000 
02263000Peppa Pig                                                             0000000000000000000000 
02263500Peppa Pig                                                             0000000000000000000000 
02264500Peppa Pig                                                             0000000000000000000000 
02265000Peppa Pig                                                             0000000000000000000000 
02270000Peppa Pig                                                             0000000000000000000000 
02270500Peppa Pig                                                             0000000000000000000000 
02271500Peppa Pig                                                             0000000000000000000000 
02272000Peppa Pig                                                             0000000000000000000000 
02273000Peppa Pig                                                             0000000000000000000000 
02273500Peppa Pig                                                             0000000000000000000000 
02274500Peppa Pig                                                             0000000000000000000000 
02275000Peppa Pig                                                             0000000000000000000000 
02280000Peppa Pig                                                             0000000000000000000000 
02280500Peppa Pig                                                             0000000000000000000000 
02281500Peppa Pig                                                             0000000000000000000000 
02282000Peppa Pig                                                             0000000000000000000000 
02283000Peppa Pig                                                             0000000000000000000000 
02283500Peppa Pig                                                             0000000000000000000000 
02284500Peppa Pig                                                             0000000000000000000000 
02285000Peppa Pig                                                             0000000000000000000000 
02290000Peppa Pig                                                             0000000000000000000000 
02290500Peppa Pig                                                             0000000000000000000000 
02291500Peppa Pig                                                             0000000000000000000000 
02292000Peppa Pig                                                             0000000000000000000000 
02293000Peppa Pig                                                             0000000000000000000000 
02293500Peppa Pig                                                             0000000000000000000000 
02294500Peppa Pig                                                             0000000000000000000000 
02295000Peppa Pig                                                             0000000000000000000000 
09ATRBATRB18022021000122
01ATRB19022021
02150000SINGALONG Peppa Pig                                                   0000000000000000000000 
02150500Peppa Pig                                                             0000000000000000000000 
02151500Peppa Pig                                                             0000000000000000000000 
02152000Peppa Pig                                                             0000000000000000000000 
02153000Peppa Pig                                                             0000000000000000000000 
02153500Peppa Pig                                                             0000000000000000000000 
02154500Peppa Pig                                                             0000000000000000000000 
02155000Peppa Pig                                                             0000000000000000000000 
02160000SINGALONG Peppa Pig                                                   0000000000000000000000 
02160500Peppa Pig                                                             0000000000000000000000 
02161500Peppa Pig                                                             0000000000000000000000 
02162000Peppa Pig                                                             0000000000000000000000 
02163000Peppa Pig                                                             0000000000000000000000 
02163500Peppa Pig                                                             0000000000000000000000 
02164500Peppa Pig                                                             0000000000000000000000 
02165000Peppa Pig                                                             0000000000000000000000 
02170000SINGALONG Peppa Pig                                                   0000000000000000000000 
02170500Peppa Pig                                                             0000000000000000000000 
02171500Peppa Pig                                                             0000000000000000000000 
02172000Peppa Pig                                                             0000000000000000000000 
02173000Peppa Pig                                                             0000000000000000000000 
02173500Peppa Pig                                                             0000000000000000000000 
02174500Peppa Pig                                                             0000000000000000000000 
02175000Peppa Pig                                                             0000000000000000000000 
02180000Peppa Pig                                                             0000000000000000000000 
02180500Peppa Pig                                                             0000000000000000000000 
02181500Peppa Pig                                                             0000000000000000000000 
02182000Peppa Pig                                                             0000000000000000000000 
02183000Peppa Pig                                                             0000000000000000000000 
02183500Peppa Pig                                                             0000000000000000000000 
02184500Peppa Pig                                                             0000000000000000000000 
02185000Peppa Pig                                                             0000000000000000000000 
02190000Peppa Pig                                                             0000000000000000000000 
02190500Peppa Pig                                                             0000000000000000000000 
02191500Peppa Pig                                                             0000000000000000000000 
02192000Peppa Pig                                                             0000000000000000000000 
02193000Peppa Pig                                                             0000000000000000000000 
02193500Peppa Pig                                                             0000000000000000000000 
02194500Peppa Pig                                                             0000000000000000000000 
02195000Peppa Pig                                                             0000000000000000000000 
02200000Peppa Pig                                                             0000000000000000000000 
02200500Peppa Pig                                                             0000000000000000000000 
02201500Peppa Pig                                                             0000000000000000000000 
02202100Peppa Pig                                                             0000000000000000000000 
02203000Peppa Pig                                                             0000000000000000000000 
02203500Peppa Pig                                                             0000000000000000000000 
02204500Peppa Pig                                                             0000000000000000000000 
02205000Peppa Pig                                                             0000000000000000000000 
02210000SINGALONG Peppa Pig                                                   0000000000000000000000 
02210500Peppa Pig                                                             0000000000000000000000 
02211500Peppa Pig                                                             0000000000000000000000 
02212000Peppa Pig                                                             0000000000000000000000 
02213000Peppa Pig                                                             0000000000000000000000 
02213500Peppa Pig                                                             0000000000000000000000 
02214500Peppa Pig                                                             0000000000000000000000 
02215000Peppa Pig                                                             0000000000000000000000 
02220000SINGALONG Peppa Pig                                                   0000000000000000000000 
02220500Peppa Pig                                                             0000000000000000000000 
02221500Peppa Pig                                                             0000000000000000000000 
02222000Peppa Pig                                                             0000000000000000000000 
02223000Peppa Pig                                                             0000000000000000000000 
02223500Peppa Pig                                                             0000000000000000000000 
02224500Peppa Pig                                                             0000000000000000000000 
02225000Peppa Pig                                                             0000000000000000000000 
02230000SINGALONG Peppa Pig                                                   0000000000000000000000 
02230500Peppa Pig                                                             0000000000000000000000 
02231500Peppa Pig                                                             0000000000000000000000 
02232000Peppa Pig                                                             0000000000000000000000 
02233000Peppa Pig                                                             0000000000000000000000 
02233500Peppa Pig                                                             0000000000000000000000 
02234500Peppa Pig                                                             0000000000000000000000 
02235000Peppa Pig                                                             0000000000000000000000 
02240000Peppa Pig                                                             0000000000000000000000 
02240500Peppa Pig                                                             0000000000000000000000 
02241500Peppa Pig                                                             0000000000000000000000 
02242000Peppa Pig                                                             0000000000000000000000 
02243000Peppa Pig                                                             0000000000000000000000 
02243500Peppa Pig                                                             0000000000000000000000 
02244500Peppa Pig                                                             0000000000000000000000 
02245000Peppa Pig                                                             0000000000000000000000 
02250000Peppa Pig                                                             0000000000000000000000 
02250500Peppa Pig                                                             0000000000000000000000 
02251500Peppa Pig                                                             0000000000000000000000 
02252000Peppa Pig                                                             0000000000000000000000 
02253000Peppa Pig                                                             0000000000000000000000 
02253500Peppa Pig                                                             0000000000000000000000 
02254500Peppa Pig                                                             0000000000000000000000 
02255000Peppa Pig                                                             0000000000000000000000 
02260000Peppa Pig                                                             0000000000000000000000 
02260500Peppa Pig                                                             0000000000000000000000 
02261500Peppa Pig                                                             0000000000000000000000 
02262000Peppa Pig                                                             0000000000000000000000 
02263000Peppa Pig                                                             0000000000000000000000 
02263500Peppa Pig                                                             0000000000000000000000 
02264500Peppa Pig                                                             0000000000000000000000 
02265000Peppa Pig                                                             0000000000000000000000 
02270000Peppa Pig                                                             0000000000000000000000 
02270500Peppa Pig                                                             0000000000000000000000 
02271500Peppa Pig                                                             0000000000000000000000 
02272000Peppa Pig                                                             0000000000000000000000 
02273000Peppa Pig                                                             0000000000000000000000 
02273500Peppa Pig                                                             0000000000000000000000 
02274500Peppa Pig                                                             0000000000000000000000 
02275000Peppa Pig                                                             0000000000000000000000 
02280000Peppa Pig                                                             0000000000000000000000 
02280500Peppa Pig                                                             0000000000000000000000 
02281500Peppa Pig                                                             0000000000000000000000 
02282000Peppa Pig                                                             0000000000000000000000 
02283000Peppa Pig                                                             0000000000000000000000 
02283500Peppa Pig                                                             0000000000000000000000 
02284500Peppa Pig                                                             0000000000000000000000 
02285000Peppa Pig                                                             0000000000000000000000 
02290000Peppa Pig                                                             0000000000000000000000 
02290500Peppa Pig                                                             0000000000000000000000 
02291500Peppa Pig                                                             0000000000000000000000 
02292000Peppa Pig                                                             0000000000000000000000 
02293000Peppa Pig                                                             0000000000000000000000 
02293500Peppa Pig                                                             0000000000000000000000 
02294500Peppa Pig                                                             0000000000000000000000 
02295000Peppa Pig                                                             0000000000000000000000 
09ATRBATRB19022021000122
01ATRB20022021
02150000SINGALONG Peppa Pig                                                   0000000000000000000000 
02150500Peppa Pig                                                             0000000000000000000000 
02151500Peppa Pig                                                             0000000000000000000000 
02152000Peppa Pig                                                             0000000000000000000000 
02153000Peppa Pig                                                             0000000000000000000000 
02153500Peppa Pig                                                             0000000000000000000000 
02154500Peppa Pig                                                             0000000000000000000000 
02155000Peppa Pig                                                             0000000000000000000000 
02160000SINGALONG Peppa Pig                                                   0000000000000000000000 
02160500Peppa Pig                                                             0000000000000000000000 
02161500Peppa Pig                                                             0000000000000000000000 
02162000Peppa Pig                                                             0000000000000000000000 
02163000Peppa Pig                                                             0000000000000000000000 
02163500Peppa Pig                                                             0000000000000000000000 
02164500Peppa Pig                                                             0000000000000000000000 
02165000Peppa Pig                                                             0000000000000000000000 
02170000SINGALONG Peppa Pig                                                   0000000000000000000000 
02170500Peppa Pig                                                             0000000000000000000000 
02171500Peppa Pig                                                             0000000000000000000000 
02172000Peppa Pig                                                             0000000000000000000000 
02173000Peppa Pig                                                             0000000000000000000000 
02173500Peppa Pig                                                             0000000000000000000000 
02174500Peppa Pig                                                             0000000000000000000000 
02175000Peppa Pig                                                             0000000000000000000000 
02180000Peppa Pig                                                             0000000000000000000000 
02180500Peppa Pig                                                             0000000000000000000000 
02181500Peppa Pig                                                             0000000000000000000000 
02182000Peppa Pig                                                             0000000000000000000000 
02183000Peppa Pig                                                             0000000000000000000000 
02183500Peppa Pig                                                             0000000000000000000000 
02184500Peppa Pig                                                             0000000000000000000000 
02185000Peppa Pig                                                             0000000000000000000000 
02190000Peppa Pig                                                             0000000000000000000000 
02190500Peppa Pig                                                             0000000000000000000000 
02191500Peppa Pig                                                             0000000000000000000000 
02192000Peppa Pig                                                             0000000000000000000000 
02193000Peppa Pig                                                             0000000000000000000000 
02193500Peppa Pig                                                             0000000000000000000000 
02194500Peppa Pig                                                             0000000000000000000000 
02195000Peppa Pig                                                             0000000000000000000000 
02200000Peppa Pig                                                             0000000000000000000000 
02200500Peppa Pig                                                             0000000000000000000000 
02201500Peppa Pig                                                             0000000000000000000000 
02202100Peppa Pig                                                             0000000000000000000000 
02203000Peppa Pig                                                             0000000000000000000000 
02203500Peppa Pig                                                             0000000000000000000000 
02204500Peppa Pig                                                             0000000000000000000000 
02205000Peppa Pig                                                             0000000000000000000000 
02210000SINGALONG Peppa Pig                                                   0000000000000000000000 
02210500Peppa Pig                                                             0000000000000000000000 
02211500Peppa Pig                                                             0000000000000000000000 
02212000Peppa Pig                                                             0000000000000000000000 
02213000Peppa Pig                                                             0000000000000000000000 
02213500Peppa Pig                                                             0000000000000000000000 
02214500Peppa Pig                                                             0000000000000000000000 
02215000Peppa Pig                                                             0000000000000000000000 
02220000SINGALONG Peppa Pig                                                   0000000000000000000000 
02220500Peppa Pig                                                             0000000000000000000000 
02221500Peppa Pig                                                             0000000000000000000000 
02222000Peppa Pig                                                             0000000000000000000000 
02223000Peppa Pig                                                             0000000000000000000000 
02223500Peppa Pig                                                             0000000000000000000000 
02224500Peppa Pig                                                             0000000000000000000000 
02225000Peppa Pig                                                             0000000000000000000000 
02230000SINGALONG Peppa Pig                                                   0000000000000000000000 
02230500Peppa Pig                                                             0000000000000000000000 
02231500Peppa Pig                                                             0000000000000000000000 
02232000Peppa Pig                                                             0000000000000000000000 
02233000Peppa Pig                                                             0000000000000000000000 
02233500Peppa Pig                                                             0000000000000000000000 
02234500Peppa Pig                                                             0000000000000000000000 
02235000Peppa Pig                                                             0000000000000000000000 
02240000Peppa Pig                                                             0000000000000000000000 
02240500Peppa Pig                                                             0000000000000000000000 
02241500Peppa Pig                                                             0000000000000000000000 
02242000Peppa Pig                                                             0000000000000000000000 
02243000Peppa Pig                                                             0000000000000000000000 
02243500Peppa Pig                                                             0000000000000000000000 
02244500Peppa Pig                                                             0000000000000000000000 
02245000Peppa Pig                                                             0000000000000000000000 
02250000Peppa Pig                                                             0000000000000000000000 
02250500Peppa Pig                                                             0000000000000000000000 
02251500Peppa Pig                                                             0000000000000000000000 
02252000Peppa Pig                                                             0000000000000000000000 
02253000Peppa Pig                                                             0000000000000000000000 
02253500Peppa Pig                                                             0000000000000000000000 
02254500Peppa Pig                                                             0000000000000000000000 
02255000Peppa Pig                                                             0000000000000000000000 
02260000Peppa Pig                                                             0000000000000000000000 
02260500Peppa Pig                                                             0000000000000000000000 
02261500Peppa Pig                                                             0000000000000000000000 
02262000Peppa Pig                                                             0000000000000000000000 
02263000Peppa Pig                                                             0000000000000000000000 
02263500Peppa Pig                                                             0000000000000000000000 
02264500Peppa Pig                                                             0000000000000000000000 
02265000Peppa Pig                                                             0000000000000000000000 
02270000Peppa Pig                                                             0000000000000000000000 
02270500Peppa Pig                                                             0000000000000000000000 
02271500Peppa Pig                                                             0000000000000000000000 
02272000Peppa Pig                                                             0000000000000000000000 
02273000Peppa Pig                                                             0000000000000000000000 
02273500Peppa Pig                                                             0000000000000000000000 
02274500Peppa Pig                                                             0000000000000000000000 
02275000Peppa Pig                                                             0000000000000000000000 
02280000Peppa Pig                                                             0000000000000000000000 
02280500Peppa Pig                                                             0000000000000000000000 
02281500Peppa Pig                                                             0000000000000000000000 
02282000Peppa Pig                                                             0000000000000000000000 
02283000Peppa Pig                                                             0000000000000000000000 
02283500Peppa Pig                                                             0000000000000000000000 
02284500Peppa Pig                                                             0000000000000000000000 
02285000Peppa Pig                                                             0000000000000000000000 
02290000Peppa Pig                                                             0000000000000000000000 
02290500Peppa Pig                                                             0000000000000000000000 
02291500Peppa Pig                                                             0000000000000000000000 
02292000Peppa Pig                                                             0000000000000000000000 
02293000Peppa Pig                                                             0000000000000000000000 
02293500Peppa Pig                                                             0000000000000000000000 
02294500Peppa Pig                                                             0000000000000000000000 
02295000Peppa Pig                                                             0000000000000000000000 
09ATRBATRB20022021000122
01ATRB21022021
02150000SINGALONG Peppa Pig                                                   0000000000000000000000 
02150500Peppa Pig                                                             0000000000000000000000 
02151500Peppa Pig                                                             0000000000000000000000 
02152000Peppa Pig                                                             0000000000000000000000 
02153000Peppa Pig                                                             0000000000000000000000 
02153500Peppa Pig                                                             0000000000000000000000 
02154500Peppa Pig                                                             0000000000000000000000 
02155000Peppa Pig                                                             0000000000000000000000 
02160000SINGALONG Peppa Pig                                                   0000000000000000000000 
02160500Peppa Pig                                                             0000000000000000000000 
02161500Peppa Pig                                                             0000000000000000000000 
02162000Peppa Pig                                                             0000000000000000000000 
02163000Peppa Pig                                                             0000000000000000000000 
02163500Peppa Pig                                                             0000000000000000000000 
02164500Peppa Pig                                                             0000000000000000000000 
02165000Peppa Pig                                                             0000000000000000000000 
02170000SINGALONG Peppa Pig                                                   0000000000000000000000 
02170500Peppa Pig                                                             0000000000000000000000 
02171500Peppa Pig                                                             0000000000000000000000 
02172000Peppa Pig                                                             0000000000000000000000 
02173000Peppa Pig                                                             0000000000000000000000 
02173500Peppa Pig                                                             0000000000000000000000 
02174500Peppa Pig                                                             0000000000000000000000 
02175000Peppa Pig                                                             0000000000000000000000 
02180000Peppa Pig                                                             0000000000000000000000 
02180500Peppa Pig                                                             0000000000000000000000 
02181500Peppa Pig                                                             0000000000000000000000 
02182000Peppa Pig                                                             0000000000000000000000 
02183000Peppa Pig                                                             0000000000000000000000 
02183500Peppa Pig                                                             0000000000000000000000 
02184500Peppa Pig                                                             0000000000000000000000 
02185000Peppa Pig                                                             0000000000000000000000 
02190000Peppa Pig                                                             0000000000000000000000 
02190500Peppa Pig                                                             0000000000000000000000 
02191500Peppa Pig                                                             0000000000000000000000 
02192000Peppa Pig                                                             0000000000000000000000 
02193000Peppa Pig                                                             0000000000000000000000 
02193500Peppa Pig                                                             0000000000000000000000 
02194500Peppa Pig                                                             0000000000000000000000 
02195000Peppa Pig                                                             0000000000000000000000 
02200000Peppa Pig                                                             0000000000000000000000 
02200500Peppa Pig                                                             0000000000000000000000 
02201500Peppa Pig                                                             0000000000000000000000 
02202100Peppa Pig                                                             0000000000000000000000 
02203000Peppa Pig                                                             0000000000000000000000 
02203500Peppa Pig                                                             0000000000000000000000 
02204500Peppa Pig                                                             0000000000000000000000 
02205000Peppa Pig                                                             0000000000000000000000 
02210000SINGALONG Peppa Pig                                                   0000000000000000000000 
02210500Peppa Pig                                                             0000000000000000000000 
02211500Peppa Pig                                                             0000000000000000000000 
02212000Peppa Pig                                                             0000000000000000000000 
02213000Peppa Pig                                                             0000000000000000000000 
02213500Peppa Pig                                                             0000000000000000000000 
02214500Peppa Pig                                                             0000000000000000000000 
02215000Peppa Pig                                                             0000000000000000000000 
02220000SINGALONG Peppa Pig                                                   0000000000000000000000 
02220500Peppa Pig                                                             0000000000000000000000 
02221500Peppa Pig                                                             0000000000000000000000 
02222000Peppa Pig                                                             0000000000000000000000 
02223000Peppa Pig                                                             0000000000000000000000 
02223500Peppa Pig                                                             0000000000000000000000 
02224500Peppa Pig                                                             0000000000000000000000 
02225000Peppa Pig                                                             0000000000000000000000 
02230000SINGALONG Peppa Pig                                                   0000000000000000000000 
02230500Peppa Pig                                                             0000000000000000000000 
02231500Peppa Pig                                                             0000000000000000000000 
02232000Peppa Pig                                                             0000000000000000000000 
02233000Peppa Pig                                                             0000000000000000000000 
02233500Peppa Pig                                                             0000000000000000000000 
02234500Peppa Pig                                                             0000000000000000000000 
02235000Peppa Pig                                                             0000000000000000000000 
02240000Peppa Pig                                                             0000000000000000000000 
02240500Peppa Pig                                                             0000000000000000000000 
02241500Peppa Pig                                                             0000000000000000000000 
02242000Peppa Pig                                                             0000000000000000000000 
02243000Peppa Pig                                                             0000000000000000000000 
02243500Peppa Pig                                                             0000000000000000000000 
02244500Peppa Pig                                                             0000000000000000000000 
02245000Peppa Pig                                                             0000000000000000000000 
02250000Peppa Pig                                                             0000000000000000000000 
02250500Peppa Pig                                                             0000000000000000000000 
02251500Peppa Pig                                                             0000000000000000000000 
02252000Peppa Pig                                                             0000000000000000000000 
02253000Peppa Pig                                                             0000000000000000000000 
02253500Peppa Pig                                                             0000000000000000000000 
02254500Peppa Pig                                                             0000000000000000000000 
02255000Peppa Pig                                                             0000000000000000000000 
02260000Peppa Pig                                                             0000000000000000000000 
02260500Peppa Pig                                                             0000000000000000000000 
02261500Peppa Pig                                                             0000000000000000000000 
02262000Peppa Pig                                                             0000000000000000000000 
02263000Peppa Pig                                                             0000000000000000000000 
02263500Peppa Pig                                                             0000000000000000000000 
02264500Peppa Pig                                                             0000000000000000000000 
02265000Peppa Pig                                                             0000000000000000000000 
02270000Peppa Pig                                                             0000000000000000000000 
02270500Peppa Pig                                                             0000000000000000000000 
02271500Peppa Pig                                                             0000000000000000000000 
02272000Peppa Pig                                                             0000000000000000000000 
02273000Peppa Pig                                                             0000000000000000000000 
02273500Peppa Pig                                                             0000000000000000000000 
02274500Peppa Pig                                                             0000000000000000000000 
02275000Peppa Pig                                                             0000000000000000000000 
02280000Peppa Pig                                                             0000000000000000000000 
02280500Peppa Pig                                                             0000000000000000000000 
02281500Peppa Pig                                                             0000000000000000000000 
02282000Peppa Pig                                                             0000000000000000000000 
02283000Peppa Pig                                                             0000000000000000000000 
02283500Peppa Pig                                                             0000000000000000000000 
02284500Peppa Pig                                                             0000000000000000000000 
02285000Peppa Pig                                                             0000000000000000000000 
02290000Peppa Pig                                                             0000000000000000000000 
02290500Peppa Pig                                                             0000000000000000000000 
02291500Peppa Pig                                                             0000000000000000000000 
02292000Peppa Pig                                                             0000000000000000000000 
02293000Peppa Pig                                                             0000000000000000000000 
02293500Peppa Pig                                                             0000000000000000000000 
02294500Peppa Pig                                                             0000000000000000000000 
02295000Peppa Pig                                                             0000000000000000000000 
09ATRBATRB21022021000122
01ATRB22022021
02150000SINGALONG Peppa Pig                                                   0000000000000000000000 
02150500Peppa Pig                                                             0000000000000000000000 
02151500Peppa Pig                                                             0000000000000000000000 
02152000Peppa Pig                                                             0000000000000000000000 
02153000Peppa Pig                                                             0000000000000000000000 
02153500Peppa Pig                                                             0000000000000000000000 
02154500Peppa Pig                                                             0000000000000000000000 
02155000Peppa Pig                                                             0000000000000000000000 
02160000SINGALONG Peppa Pig                                                   0000000000000000000000 
02160500Peppa Pig                                                             0000000000000000000000 
02161500Peppa Pig                                                             0000000000000000000000 
02162000Peppa Pig                                                             0000000000000000000000 
02163000Peppa Pig                                                             0000000000000000000000 
02163500Peppa Pig                                                             0000000000000000000000 
02164500Peppa Pig                                                             0000000000000000000000 
02165000Peppa Pig                                                             0000000000000000000000 
02170000SINGALONG Peppa Pig                                                   0000000000000000000000 
02170500Peppa Pig                                                             0000000000000000000000 
02171500Peppa Pig                                                             0000000000000000000000 
02172000Peppa Pig                                                             0000000000000000000000 
02173000Peppa Pig                                                             0000000000000000000000 
02173500Peppa Pig                                                             0000000000000000000000 
02174500Peppa Pig                                                             0000000000000000000000 
02175000Peppa Pig                                                             0000000000000000000000 
02180000Peppa Pig                                                             0000000000000000000000 
02180500Peppa Pig                                                             0000000000000000000000 
02181500Peppa Pig                                                             0000000000000000000000 
02182000Peppa Pig                                                             0000000000000000000000 
02183000Peppa Pig                                                             0000000000000000000000 
02183500Peppa Pig                                                             0000000000000000000000 
02184500Peppa Pig                                                             0000000000000000000000 
02185000Peppa Pig                                                             0000000000000000000000 
02190000Peppa Pig                                                             0000000000000000000000 
02190500Peppa Pig                                                             0000000000000000000000 
02191500Peppa Pig                                                             0000000000000000000000 
02192000Peppa Pig                                                             0000000000000000000000 
02193000Peppa Pig                                                             0000000000000000000000 
02193500Peppa Pig                                                             0000000000000000000000 
02194500Peppa Pig                                                             0000000000000000000000 
02195000Peppa Pig                                                             0000000000000000000000 
02200000Peppa Pig                                                             0000000000000000000000 
02200500Peppa Pig                                                             0000000000000000000000 
02201500Peppa Pig                                                             0000000000000000000000 
02202100Peppa Pig                                                             0000000000000000000000 
02203000Peppa Pig                                                             0000000000000000000000 
02203500Peppa Pig                                                             0000000000000000000000 
02204500Peppa Pig                                                             0000000000000000000000 
02205000Peppa Pig                                                             0000000000000000000000 
02210000SINGALONG Peppa Pig                                                   0000000000000000000000 
02210500Peppa Pig                                                             0000000000000000000000 
02211500Peppa Pig                                                             0000000000000000000000 
02212000Peppa Pig                                                             0000000000000000000000 
02213000Peppa Pig                                                             0000000000000000000000 
02213500Peppa Pig                                                             0000000000000000000000 
02214500Peppa Pig                                                             0000000000000000000000 
02215000Peppa Pig                                                             0000000000000000000000 
02220000SINGALONG Peppa Pig                                                   0000000000000000000000 
02220500Peppa Pig                                                             0000000000000000000000 
02221500Peppa Pig                                                             0000000000000000000000 
02222000Peppa Pig                                                             0000000000000000000000 
02223000Peppa Pig                                                             0000000000000000000000 
02223500Peppa Pig                                                             0000000000000000000000 
02224500Peppa Pig                                                             0000000000000000000000 
02225000Peppa Pig                                                             0000000000000000000000 
02230000SINGALONG Peppa Pig                                                   0000000000000000000000 
02230500Peppa Pig                                                             0000000000000000000000 
02231500Peppa Pig                                                             0000000000000000000000 
02232000Peppa Pig                                                             0000000000000000000000 
02233000Peppa Pig                                                             0000000000000000000000 
02233500Peppa Pig                                                             0000000000000000000000 
02234500Peppa Pig                                                             0000000000000000000000 
02235000Peppa Pig                                                             0000000000000000000000 
02240000Peppa Pig                                                             0000000000000000000000 
02240500Peppa Pig                                                             0000000000000000000000 
02241500Peppa Pig                                                             0000000000000000000000 
02242000Peppa Pig                                                             0000000000000000000000 
02243000Peppa Pig                                                             0000000000000000000000 
02243500Peppa Pig                                                             0000000000000000000000 
02244500Peppa Pig                                                             0000000000000000000000 
02245000Peppa Pig                                                             0000000000000000000000 
02250000Peppa Pig                                                             0000000000000000000000 
02250500Peppa Pig                                                             0000000000000000000000 
02251500Peppa Pig                                                             0000000000000000000000 
02252000Peppa Pig                                                             0000000000000000000000 
02253000Peppa Pig                                                             0000000000000000000000 
02253500Peppa Pig                                                             0000000000000000000000 
02254500Peppa Pig                                                             0000000000000000000000 
02255000Peppa Pig                                                             0000000000000000000000 
02260000Peppa Pig                                                             0000000000000000000000 
02260500Peppa Pig                                                             0000000000000000000000 
02261500Peppa Pig                                                             0000000000000000000000 
02262000Peppa Pig                                                             0000000000000000000000 
02263000Peppa Pig                                                             0000000000000000000000 
02263500Peppa Pig                                                             0000000000000000000000 
02264500Peppa Pig                                                             0000000000000000000000 
02265000Peppa Pig                                                             0000000000000000000000 
02270000Peppa Pig                                                             0000000000000000000000 
02270500Peppa Pig                                                             0000000000000000000000 
02271500Peppa Pig                                                             0000000000000000000000 
02272000Peppa Pig                                                             0000000000000000000000 
02273000Peppa Pig                                                             0000000000000000000000 
02273500Peppa Pig                                                             0000000000000000000000 
02274500Peppa Pig                                                             0000000000000000000000 
02275000Peppa Pig                                                             0000000000000000000000 
02280000Peppa Pig                                                             0000000000000000000000 
02280500Peppa Pig                                                             0000000000000000000000 
02281500Peppa Pig                                                             0000000000000000000000 
02282000Peppa Pig                                                             0000000000000000000000 
02283000Peppa Pig                                                             0000000000000000000000 
02283500Peppa Pig                                                             0000000000000000000000 
02284500Peppa Pig                                                             0000000000000000000000 
02285000Peppa Pig                                                             0000000000000000000000 
02290000Peppa Pig                                                             0000000000000000000000 
02290500Peppa Pig                                                             0000000000000000000000 
02291500Peppa Pig                                                             0000000000000000000000 
02292000Peppa Pig                                                             0000000000000000000000 
02293000Peppa Pig                                                             0000000000000000000000 
02293500Peppa Pig                                                             0000000000000000000000 
02294500Peppa Pig                                                             0000000000000000000000 
02295000Peppa Pig                                                             0000000000000000000000 
09ATRBATRB22022021000122
01ATRB23022021
02150000SINGALONG Peppa Pig                                                   0000000000000000000000 
02150500Peppa Pig                                                             0000000000000000000000 
02151500Peppa Pig                                                             0000000000000000000000 
02152000Peppa Pig                                                             0000000000000000000000 
02153000Peppa Pig                                                             0000000000000000000000 
02153500Peppa Pig                                                             0000000000000000000000 
02154500Peppa Pig                                                             0000000000000000000000 
02155000Peppa Pig                                                             0000000000000000000000 
02160000SINGALONG Peppa Pig                                                   0000000000000000000000 
02160500Peppa Pig                                                             0000000000000000000000 
02161500Peppa Pig                                                             0000000000000000000000 
02162000Peppa Pig                                                             0000000000000000000000 
02163000Peppa Pig                                                             0000000000000000000000 
02163500Peppa Pig                                                             0000000000000000000000 
02164500Peppa Pig                                                             0000000000000000000000 
02165000Peppa Pig                                                             0000000000000000000000 
02170000SINGALONG Peppa Pig                                                   0000000000000000000000 
02170500Peppa Pig                                                             0000000000000000000000 
02171500Peppa Pig                                                             0000000000000000000000 
02172000Peppa Pig                                                             0000000000000000000000 
02173000Peppa Pig                                                             0000000000000000000000 
02173500Peppa Pig                                                             0000000000000000000000 
02174500Peppa Pig                                                             0000000000000000000000 
02175000Peppa Pig                                                             0000000000000000000000 
02180000Peppa Pig                                                             0000000000000000000000 
02180500Peppa Pig                                                             0000000000000000000000 
02181500Peppa Pig                                                             0000000000000000000000 
02182000Peppa Pig                                                             0000000000000000000000 
02183000Peppa Pig                                                             0000000000000000000000 
02183500Peppa Pig                                                             0000000000000000000000 
02184500Peppa Pig                                                             0000000000000000000000 
02185000Peppa Pig                                                             0000000000000000000000 
02190000Peppa Pig                                                             0000000000000000000000 
02190500Peppa Pig                                                             0000000000000000000000 
02191500Peppa Pig                                                             0000000000000000000000 
02192000Peppa Pig                                                             0000000000000000000000 
02193000Peppa Pig                                                             0000000000000000000000 
02193500Peppa Pig                                                             0000000000000000000000 
02194500Peppa Pig                                                             0000000000000000000000 
02195000Peppa Pig                                                             0000000000000000000000 
02200000Peppa Pig                                                             0000000000000000000000 
02200500Peppa Pig                                                             0000000000000000000000 
02201500Peppa Pig                                                             0000000000000000000000 
02202100Peppa Pig                                                             0000000000000000000000 
02203000Peppa Pig                                                             0000000000000000000000 
02203500Peppa Pig                                                             0000000000000000000000 
02204500Peppa Pig                                                             0000000000000000000000 
02205000Peppa Pig                                                             0000000000000000000000 
02210000SINGALONG Peppa Pig                                                   0000000000000000000000 
02210500Peppa Pig                                                             0000000000000000000000 
02211500Peppa Pig                                                             0000000000000000000000 
02212000Peppa Pig                                                             0000000000000000000000 
02213000Peppa Pig                                                             0000000000000000000000 
02213500Peppa Pig                                                             0000000000000000000000 
02214500Peppa Pig                                                             0000000000000000000000 
02215000Peppa Pig                                                             0000000000000000000000 
02220000SINGALONG Peppa Pig                                                   0000000000000000000000 
02220500Peppa Pig                                                             0000000000000000000000 
02221500Peppa Pig                                                             0000000000000000000000 
02222000Peppa Pig                                                             0000000000000000000000 
02223000Peppa Pig                                                             0000000000000000000000 
02223500Peppa Pig                                                             0000000000000000000000 
02224500Peppa Pig                                                             0000000000000000000000 
02225000Peppa Pig                                                             0000000000000000000000 
02230000SINGALONG Peppa Pig                                                   0000000000000000000000 
02230500Peppa Pig                                                             0000000000000000000000 
02231500Peppa Pig                                                             0000000000000000000000 
02232000Peppa Pig                                                             0000000000000000000000 
02233000Peppa Pig                                                             0000000000000000000000 
02233500Peppa Pig                                                             0000000000000000000000 
02234500Peppa Pig                                                             0000000000000000000000 
02235000Peppa Pig                                                             0000000000000000000000 
02240000Peppa Pig                                                             0000000000000000000000 
02240500Peppa Pig                                                             0000000000000000000000 
02241500Peppa Pig                                                             0000000000000000000000 
02242000Peppa Pig                                                             0000000000000000000000 
02243000Peppa Pig                                                             0000000000000000000000 
02243500Peppa Pig                                                             0000000000000000000000 
02244500Peppa Pig                                                             0000000000000000000000 
02245000Peppa Pig                                                             0000000000000000000000 
02250000Peppa Pig                                                             0000000000000000000000 
02250500Peppa Pig                                                             0000000000000000000000 
02251500Peppa Pig                                                             0000000000000000000000 
02252000Peppa Pig                                                             0000000000000000000000 
02253000Peppa Pig                                                             0000000000000000000000 
02253500Peppa Pig                                                             0000000000000000000000 
02254500Peppa Pig                                                             0000000000000000000000 
02255000Peppa Pig                                                             0000000000000000000000 
02260000Peppa Pig                                                             0000000000000000000000 
02260500Peppa Pig                                                             0000000000000000000000 
02261500Peppa Pig                                                             0000000000000000000000 
02262000Peppa Pig                                                             0000000000000000000000 
02263000Peppa Pig                                                             0000000000000000000000 
02263500Peppa Pig                                                             0000000000000000000000 
02264500Peppa Pig                                                             0000000000000000000000 
02265000Peppa Pig                                                             0000000000000000000000 
02270000Peppa Pig                                                             0000000000000000000000 
02270500Peppa Pig                                                             0000000000000000000000 
02271500Peppa Pig                                                             0000000000000000000000 
02272000Peppa Pig                                                             0000000000000000000000 
02273000Peppa Pig                                                             0000000000000000000000 
02273500Peppa Pig                                                             0000000000000000000000 
02274500Peppa Pig                                                             0000000000000000000000 
02275000Peppa Pig                                                             0000000000000000000000 
02280000Peppa Pig                                                             0000000000000000000000 
02280500Peppa Pig                                                             0000000000000000000000 
02281500Peppa Pig                                                             0000000000000000000000 
02282000Peppa Pig                                                             0000000000000000000000 
02283000Peppa Pig                                                             0000000000000000000000 
02283500Peppa Pig                                                             0000000000000000000000 
02284500Peppa Pig                                                             0000000000000000000000 
02285000Peppa Pig                                                             0000000000000000000000 
02290000Peppa Pig                                                             0000000000000000000000 
02290500Peppa Pig                                                             0000000000000000000000 
02291500Peppa Pig                                                             0000000000000000000000 
02292000Peppa Pig                                                             0000000000000000000000 
02293000Peppa Pig                                                             0000000000000000000000 
02293500Peppa Pig                                                             0000000000000000000000 
02294500Peppa Pig                                                             0000000000000000000000 
02295000Peppa Pig                                                             0000000000000000000000 
09ATRBATRB23022021000122
01GEON17022021
02150000SINGALONG Peppa Pig                                                   0000000000000000000000 
02150500Peppa Pig                                                             0000000000000000000000 
02151500Peppa Pig                                                             0000000000000000000000 
02152000Peppa Pig                                                             0000000000000000000000 
02153000Peppa Pig                                                             0000000000000000000000 
02153500Peppa Pig                                                             0000000000000000000000 
02154500Peppa Pig                                                             0000000000000000000000 
02155000Peppa Pig                                                             0000000000000000000000 
02160000SINGALONG Peppa Pig                                                   0000000000000000000000 
02160500Peppa Pig                                                             0000000000000000000000 
02161500Peppa Pig                                                             0000000000000000000000 
02162000Peppa Pig                                                             0000000000000000000000 
02163000Peppa Pig                                                             0000000000000000000000 
02163500Peppa Pig                                                             0000000000000000000000 
02164500Peppa Pig                                                             0000000000000000000000 
02165000Peppa Pig                                                             0000000000000000000000 
02170000SINGALONG Peppa Pig                                                   0000000000000000000000 
02170500Peppa Pig                                                             0000000000000000000000 
02171500Peppa Pig                                                             0000000000000000000000 
02172000Peppa Pig                                                             0000000000000000000000 
02173000Peppa Pig                                                             0000000000000000000000 
02173500Peppa Pig                                                             0000000000000000000000 
02174500Peppa Pig                                                             0000000000000000000000 
02175000Peppa Pig                                                             0000000000000000000000 
02180000Peppa Pig                                                             0000000000000000000000 
02180500Peppa Pig                                                             0000000000000000000000 
02181500Peppa Pig                                                             0000000000000000000000 
02182000Peppa Pig                                                             0000000000000000000000 
02183000Peppa Pig                                                             0000000000000000000000 
02183500Peppa Pig                                                             0000000000000000000000 
02184500Peppa Pig                                                             0000000000000000000000 
02185000Peppa Pig                                                             0000000000000000000000 
02190000Peppa Pig                                                             0000000000000000000000 
02190500Peppa Pig                                                             0000000000000000000000 
02191500Peppa Pig                                                             0000000000000000000000 
02192000Peppa Pig                                                             0000000000000000000000 
02193000Peppa Pig                                                             0000000000000000000000 
02193500Peppa Pig                                                             0000000000000000000000 
02194500Peppa Pig                                                             0000000000000000000000 
02195000Peppa Pig                                                             0000000000000000000000 
02200000Peppa Pig                                                             0000000000000000000000 
02200500Peppa Pig                                                             0000000000000000000000 
02201500Peppa Pig                                                             0000000000000000000000 
02202100Peppa Pig                                                             0000000000000000000000 
02203000Peppa Pig                                                             0000000000000000000000 
02203500Peppa Pig                                                             0000000000000000000000 
02204500Peppa Pig                                                             0000000000000000000000 
02205000Peppa Pig                                                             0000000000000000000000 
02210000SINGALONG Peppa Pig                                                   0000000000000000000000 
02210500Peppa Pig                                                             0000000000000000000000 
02211500Peppa Pig                                                             0000000000000000000000 
02212000Peppa Pig                                                             0000000000000000000000 
02213000Peppa Pig                                                             0000000000000000000000 
02213500Peppa Pig                                                             0000000000000000000000 
02214500Peppa Pig                                                             0000000000000000000000 
02215000Peppa Pig                                                             0000000000000000000000 
02220000SINGALONG Peppa Pig                                                   0000000000000000000000 
02220500Peppa Pig                                                             0000000000000000000000 
02221500Peppa Pig                                                             0000000000000000000000 
02222000Peppa Pig                                                             0000000000000000000000 
02223000Peppa Pig                                                             0000000000000000000000 
02223500Peppa Pig                                                             0000000000000000000000 
02224500Peppa Pig                                                             0000000000000000000000 
02225000Peppa Pig                                                             0000000000000000000000 
02230000SINGALONG Peppa Pig                                                   0000000000000000000000 
02230500Peppa Pig                                                             0000000000000000000000 
02231500Peppa Pig                                                             0000000000000000000000 
02232000Peppa Pig                                                             0000000000000000000000 
02233000Peppa Pig                                                             0000000000000000000000 
02233500Peppa Pig                                                             0000000000000000000000 
02234500Peppa Pig                                                             0000000000000000000000 
02235000Peppa Pig                                                             0000000000000000000000 
02240000Peppa Pig                                                             0000000000000000000000 
02240500Peppa Pig                                                             0000000000000000000000 
02241500Peppa Pig                                                             0000000000000000000000 
02242000Peppa Pig                                                             0000000000000000000000 
02243000Peppa Pig                                                             0000000000000000000000 
02243500Peppa Pig                                                             0000000000000000000000 
02244500Peppa Pig                                                             0000000000000000000000 
02245000Peppa Pig                                                             0000000000000000000000 
02250000Peppa Pig                                                             0000000000000000000000 
02250500Peppa Pig                                                             0000000000000000000000 
02251500Peppa Pig                                                             0000000000000000000000 
02252000Peppa Pig                                                             0000000000000000000000 
02253000Peppa Pig                                                             0000000000000000000000 
02253500Peppa Pig                                                             0000000000000000000000 
02254500Peppa Pig                                                             0000000000000000000000 
02255000Peppa Pig                                                             0000000000000000000000 
02260000Peppa Pig                                                             0000000000000000000000 
02260500Peppa Pig                                                             0000000000000000000000 
02261500Peppa Pig                                                             0000000000000000000000 
02262000Peppa Pig                                                             0000000000000000000000 
02263000Peppa Pig                                                             0000000000000000000000 
02263500Peppa Pig                                                             0000000000000000000000 
02264500Peppa Pig                                                             0000000000000000000000 
02265000Peppa Pig                                                             0000000000000000000000 
02270000Peppa Pig                                                             0000000000000000000000 
02270500Peppa Pig                                                             0000000000000000000000 
02271500Peppa Pig                                                             0000000000000000000000 
02272000Peppa Pig                                                             0000000000000000000000 
02273000Peppa Pig                                                             0000000000000000000000 
02273500Peppa Pig                                                             0000000000000000000000 
02274500Peppa Pig                                                             0000000000000000000000 
02275000Peppa Pig                                                             0000000000000000000000 
02280000Peppa Pig                                                             0000000000000000000000 
02280500Peppa Pig                                                             0000000000000000000000 
02281500Peppa Pig                                                             0000000000000000000000 
02282000Peppa Pig                                                             0000000000000000000000 
02283000Peppa Pig                                                             0000000000000000000000 
02283500Peppa Pig                                                             0000000000000000000000 
02284500Peppa Pig                                                             0000000000000000000000 
02285000Peppa Pig                                                             0000000000000000000000 
02290000Peppa Pig                                                             0000000000000000000000 
02290500Peppa Pig                                                             0000000000000000000000 
02291500Peppa Pig                                                             0000000000000000000000 
02292000Peppa Pig                                                             0000000000000000000000 
02293000Peppa Pig                                                             0000000000000000000000 
02293500Peppa Pig                                                             0000000000000000000000 
02294500Peppa Pig                                                             0000000000000000000000 
02295000Peppa Pig                                                             0000000000000000000000 
09GEONGEON17022021000122
01GEON18022021
02150000SINGALONG Peppa Pig                                                   0000000000000000000000 
02150500Peppa Pig                                                             0000000000000000000000 
02151500Peppa Pig                                                             0000000000000000000000 
02152000Peppa Pig                                                             0000000000000000000000 
02153000Peppa Pig                                                             0000000000000000000000 
02153500Peppa Pig                                                             0000000000000000000000 
02154500Peppa Pig                                                             0000000000000000000000 
02155000Peppa Pig                                                             0000000000000000000000 
02160000SINGALONG Peppa Pig                                                   0000000000000000000000 
02160500Peppa Pig                                                             0000000000000000000000 
02161500Peppa Pig                                                             0000000000000000000000 
02162000Peppa Pig                                                             0000000000000000000000 
02163000Peppa Pig                                                             0000000000000000000000 
02163500Peppa Pig                                                             0000000000000000000000 
02164500Peppa Pig                                                             0000000000000000000000 
02165000Peppa Pig                                                             0000000000000000000000 
