1INDAY1 sky1205202112052021002001002
210052021HPS/LORJ016/010000DOUWE EGBERTS L'OR                 HAVAS MEDIA         JACOBS DOUWE EGBERTSJACOBS DOUWE EGBERTS0000045HAVAS MEDIA         HAVAS MEDIA                                               
210052021OCG/AUTO481/020000AUTOGLASS BRANDING                 SPARK FOUNDRY       AUTOGLASS           AUTOGLASS           0000042SPARK FOUNDRY       SPARK FOUNDRY                                             
210052021MCE/MICR694/020000MICROSOFT TEAMS                    CARAT LIMITED       MICROSOFT           MICROSOFT           0000014CARAT LIMITED       CARAT LIMITED                                             
210052021BRO/WBAC048/030000WEBUYANYCAR.COM 2                  MEDIACOM NORTH LIMITCC AUTOMOTIVE GROUP CC AUTOMOTIVE GROUP 0000029BROTHERS AND SI(CRE)MEDIACOM NORTH LIMIT                                      
210052021WWY/SKYB010/030000ENTERTAINMENT SKY BET SPORTS       SKY BET             SKY BET             SKY BET             0000008SKY BET             SKY BET                                                   
210052021DRU/SBUK071/030000BTTA BET365 POST 21                REPUBLIC OF MEDIA LIBET365 GROUP        BET365 GROUP        0000004DRUMMOND CENTRA(CRE)REPUBLIC OF MEDIA LI                                      
210052021SMQ/SPBR006/010000ETSY                               PHD MEDIA LIMITED   ETSY INC            ETSY INC            0000012PHD MEDIA LIMITED   PHD MEDIA LIMITED                                         
210052021MCP/AABR033/090000ACTION AID CHARITY REGULAR GIVING DHAVAS MEDIA         ACTION AID          ACTION AID          0000001HAVAS MEDIA         HAVAS MEDIA                                               
210052021JUF/JFAB051/030000JUST FAB                           ALL RESPONSE MEDIA LTECHSTYLE           TECHSTYLE           0000046ALL RESPONSE MEDIA LALL RESPONSE MEDIA L                                      
210052021BKB/CLEA782/030000CLEARSCORE PROTECT SR              MEDIALAB GROUP      CLEAR SCORE TECHNOLOCLEAR SCORE TECHNOLO0000277MEDIALAB GROUP      MEDIALAB GROUP                                            
210052021ABF/TMNJ004/030000THINKING MONEY CREDIT CARD         ALL RESPONSE NORTH  THINK MONEY         THINK MONEY         0000152ALL RESPONSE NORTH  ALL RESPONSE NORTH                                        
210052021OGY/VODF237/030000VODAFONE BROADBAND (BAR)           CARAT LIMITED       VODAFONE GROUP      VODAFONE GROUP      0000032CARAT LIMITED       ASTUS UK LIMITED                                          
210052021VCM/VINT049/020000VINTED (BAR)                       STARCOM WORLDWIDE LIVINTED SAS          VINTED SAS          0000003STARCOM WORLDWIDE LIASTUS UK LIMITED                                          
210052021AMV/MCMM989/020004MARS M&MS (IRE)                    MEDIACOM DUBLIN     MARS IRELAND        MARS IRELAND        0000108MEDIACOM DUBLIN     MEDIACOM DUBLIN                                           
210052021PCH/HFDM042/020000HELLOFRESH DRTV                    GOODSTUFF MEDIA     GROCERY DELIVERY E-SGROCERY DELIVERY E-S0000008GOODSTUFF MEDIA     GOODSTUFF MEDIA                                           
210052021WKU/QBUK015/020000INTUIT QUICKBOOKS OM               OMD GROUP LTD (MGM) INTUIT              INTUIT              0000010OMD GROUP LTD (MGM) OMD GROUP LTD (MGM)                                       
210052021HST/SSPP02/1800000HIGH STREET TV SUMO SLICER DIRECT (HIGH STREET TV      HIGH STREET TV      HIGH STREET TV      0000001HIGH STREET TV      HIGH STREET TV                                            
210052021MOR/MELO064/020004MGA LOL SURPRISE OMG REMIX PETS (IRGENERATION MEDI(IRE)MGA ENTERTAINMENT   MGA ENTERTAINMENT   0000110GENERATION MEDI(IRE)GENERATION MEDI(IRE)                                      
210052021ANO/POKE025/030000CASINO BY POKERSTARS               PHD NORTH MEDIA(BUY)POKERSTARS          POKERSTARS          0000036PHD NORTH MEDIA(BUY)PHD MEDIA LIMITED                                         
210052021DTV/WDPL004/060000WHALE AND DOLPHIN CONSERVATION SOCIJOHN AYLING & ASSOCIWHALE & DOLPHIN CONSWHALE & DOLPHIN CONS0000001JOHN AYLING & ASSOCIJOHN AYLING & ASSOCI                                      
210052021RVT/OYPG601/060000OYO 2 (TEB)                        MARK BROWN MEDIA LIMSKY (TELESHOP)      SKY (TELESHOP)      0000005MARK BROWN MEDIA LIMMARK BROWN MEDIA LIM                                      
210052021RVT/OETS201/120000DORMEO ESSEN TOPPER (TES)          ACCURATE MARKETING  DORMEO UK           DORMEO UK           0000002ACCURATE MARKETING  ACCURATE MARKETING                                        
210052021WPN/CWNS032/060000CHILDREN WITH CANCER PREMIUM SMS   KITE FACTORY        CHILDREN WITH CANCERCHILDREN WITH CANCER0000004KITE FACTORY        KITE FACTORY                                              
210052021DRG/AMAL115/030000AMAZON JUST ASK ALEXA              INITIATIVE MEDIA LONAMAZON.CO.UK        AMAZON.CO.UK        0000191LUCKY GENERALS (CRE)INITIATIVE MEDIA LON                                      
210052021SHT/DPMA319/030000DISNEY PLUS STAR SUSTAIN           PUBLICIS IMAGI (BUY)DISNEY+             DISNEY+             0000111PUBLICIS IMAGI (BUY)ZENITHOPTIMEDIA LTD                                       
210052021MUM/KFCC883/010000KFC CRAVEABLE CORE TRILOGY         MINDSHARE MEDIA UK LKENTUCKY FRIED CHICKKENTUCKY FRIED CHICK0000087MINDSHARE MEDIA UK LMINDSHARE MEDIA UK L                                      
210052021COR/NLWG023/010004NATIONAL LOTTERY LOTTO APP (IRE)   STARCOM IRELAND     NATIONAL LOTTERY IRENATIONAL LOTTERY IRE0000113STARCOM IRELAND     STARCOM IRELAND                                           
210052021REC/MAKI001/030000MAKITA GARDEN TOOLS                RECIPE ADVERTISING LMAKITA UK           MAKITA UK           0000001RECIPE ADVERTISING LRECIPE ADVERTISING L                                      
210052021BUR/TMDS767/010004MCDONALDS BACON CLUBHOUSE (IRE)    MEDIAWORKS IRELAND  MCDONALDS           MCDONALDS           0000024MEDIAWORKS IRELAND  MEDIAWORKS IRELAND                                        
210052021AED/MRDR108/020000WHISKAS DREAMIES                   MEDIACOM HOLDINGS LIMASTERFOODS         MARS INCORPORATED   0000063ADAM & EVE GROU(CRE)MEDIACOM HOLDINGS LI                                      
210052021BUR/TPOP246/020000KELLOGGS COCO POPS (NBA)           CARAT LIMITED       KELLOGG MARKETING & KELLOGG MARKETING & 0000024CARAT LIMITED       ASTUS UK LIMITED                                          
210052021JWT/HADR002/030000HASTINGS DIRECT (BAR)              SPECIALIST WORKS    HASTINGS INSURANCE SHASTINGS INSURANCE S0000046SPECIALIST WORKS    ORION TRADING EMEA L                                      
210052021MCP/RSCC004/090000RSPCA SINGLE STAGE                 JOHN AYLING & ASSOCIROYAL SOC PREVENTIONROYAL SOC PREVENTION0000005JOHN AYLING & ASSOCIJOHN AYLING & ASSOCI                                      
210052021HOG/GLSE705/020004SENSODYNE TOOTHPASTE BRAND (IRE)   MEDIAWORKS IRELAND  GSK CONSUMER HEALTH GSK CONSUMER HEALTH 0000046MEDIAWORKS IRELAND  MEDIAWORKS IRELAND                                        
210052021HME/SYKE026/020000SYKES COTTAGES (NBA)               MEDIA AGENCY GROUP  SYKES COTTAGES LTD  SYKES COTTAGES LTD  0000008MEDIA AGENCY GROUP  MERCURY MEDIA GROUP                                       
210052021BNG/ENEG338/020004ENERGIA CONSUMER 1 (IRE)           VIZEUM IRELAND      ENERGIA             ENERGIA             0000136VIZEUM IRELAND      VIZEUM IRELAND                                            
210052021MCZ/PLAY003/020000OJO BINGO                          ALL RESPONSE MEDIA LPLAY OJO            PLAY OJO            0000005MCCANN ERICKSON(CRE)ALL RESPONSE MEDIA L                                      
210052021EGP/PGPP133/030000PAMPERS BABY DRY                   STARCOM WW (P&G)    PROCTER & GAMBLE UK PROCTER & GAMBLE UK 0000009SAATCHI & SAATC(CRE)STARCOM WW (P&G)                                          
210052021EFR/TRLD003/030000TRINNY LONDON SR                   JEBRI               TRINNY LONDON LIMITETRINNY LONDON LIMITE0000058JEBRI               JEBRI                                                     
210052021SCC/SLAN001/030000STILTZ                             GUERILLASCOPE LIMITESTILTZ HOME LIFTS   STILTZ HOME LIFTS   0000002SPACE CITY (CRE)    GUERILLASCOPE LIMITE                                      
210052021HPS/LORJ014/020000DOUWE EGBERTS L'OR                 HAVAS MEDIA         JACOBS DOUWE EGBERTSJACOBS DOUWE EGBERTS0000050HAVAS MEDIA         HAVAS MEDIA                                               
210052021BNG/APTM012/030004APTAMIL FOLLOW ON MILK (IRE)       MINDSHARE MEDIA IRE DANONE BABY         DANONE S.A.         0000276MINDSHARE MEDIA IRE MINDSHARE MEDIA IRE                                       
210052021HCR/APEA016/030000APPEAL ULTRA BLINDS                MOSTLY MEDIA LIMITEDAPPEAL GROUP LTD    APPEAL GROUP LTD    0000033MOSTLY MEDIA LIMITEDMOSTLY MEDIA LIMITED                                      
210052021WAL/GLDP747/090000PROMIS LIFE OFP                    ALL RESPONSE MEDIA LPROMIS LIFE         PROMIS LIFE         0000046WALKER COMMUNICATIONHAVAS EDGE                                                
210052021TAG/FNGB794/020000FINISH ADDITIVES WASHING UP LIQUID ZENITHOPTI RECK(BUY)RECKITT BENCKISER   RECKITT BENCKISER   0000127ZENITHOPTIMEDIA(CRE)ZENITHOPTIMEDIA LTD                                       
210052021WPN/PLDM031/060000PLAN UK SPONSORSHIP                JOHN AYLING & ASSOCIPLAN INTERNATIONAL  PLAN INTERNATIONAL  0000001JOHN AYLING & ASSOCIJOHN AYLING & ASSOCI                                      
210052021AMV/MACM008/030000MACMILLAN CANCER SUPPORT WHATEVER IZENITHOPTIMEDIA LTD MACMILLAN CANCER RELMACMILLAN CANCER REL0000087ZENITHOPTIMEDIA LTD ASTUS UK LIMITED                                          
210052021DTV/WGCT002/090000WOOD GREEN                         KITE FACTORY        WOOD GREEN          WOOD GREEN          0000001KITE FACTORY        KITE FACTORY                                              
210052021SCC/ASTC006/060000ALZHEIMERS SOCIETY CAUSE DONATIONS MEDIALAB GROUP      ALZHEIMERS SOC UK   ALZHEIMERS SOC UK   0000006MEDIALAB GROUP      MEDIALAB GROUP                                            
210052021MCP/CAWR002/030000CHRISTIAN AID                      GOODSTUFF MEDIA     CHRISTIAN AID       CHRISTIAN AID       0000006GOODSTUFF MEDIA     GOODSTUFF MEDIA                                           
210052021BSP/PEST001/020000PANINI EURO STICKER COLLECTION     GENERATION MEDIA LIMPANINI UK           PANINI UK           0000081GENERATION MEDIA LIMGENERATION MEDIA LIM                                      
210052021OLI/CMMW002/0300043M COMMAND STRIPS (IRE)            MEDIACOM DUBLIN     3M IRELAND LTD      3M IRELAND LTD      0000018MEDIACOM DUBLIN     MEDIACOM DUBLIN                                           
210052021MUD/ITPH003/010000ITCH SR                            JEBRI               MY ITCHY DOG        MY ITCHY DOG        0000065JEBRI               JEBRI                                                     
210052021SHT/DPMA320/030000DISNEY+ (FOX)                      FOX INTER(SALES HSE)FOX INTER(SALES HSE)FOX INTER(SALES HSE)0000015FOX INTER(SALES HSE)FOX INTER(SALES HSE)                                      
210052021SSC/MEBR012/030000MERCEDES EQA                       OMD GROUP LIMITED   MERCEDES BENZ       MERCEDES BENZ       0000024OMD GROUP LIMITED   OMD GROUP LIMITED                                         
210052021SCC/WOEG008/010000WOWCHER                            MEDIA CAMPAIGN LIMITWOWCHER             WOWCHER             0000020MEDIA CAMPAIGN LIMITMEDIA CAMPAIGN LIMIT                                      
210052021HST/DSKL08/1800000HIGH STREET TV DISK LIGHTS DIRECT (HIGH STREET TV      HIGH STREET TV      HIGH STREET TV      0000001HIGH STREET TV      HIGH STREET TV                                            
210052021HHP/SLGC403/060000SUNLIFE GOF                        MEDIALAB GROUP      SUNLIFE             SUNLIFE             0000011HAPPY HOUR PROD(CRE)MEDIALAB GROUP                                            
210052021SCC/SFTS201/030000SERENATA FLOWERS (MNE)             MCCUTCHEON NORVEIL CSERENATA FLOWERS    SERENATA FLOWERS    0000025MCCUTCHEON NORVEIL CMCCUTCHEON NORVEIL C                                      
210052021COL/MSHH965/020000CHARACTER OPTIONS MASHEMS          BLM AZURE (BUY)     CHARACTER OPTIONS   CHARACTER OPTIONS   0000003BLM AZURE (BUY)     ARENA MEDIA                                               
210052021SSC/PGPM352/030000PAMPERS NEW CAMPAIGN               STARCOM WW (P&G)    PROCTER & GAMBLE UK PROCTER & GAMBLE UK 0000002STARCOM WW (P&G)    STARCOM WW (P&G)                                          
210052021AMV/MACM018/060000MACMILLAN CANCER SUPPORT LEGACY    ZENITHOPTIMEDIA LTD MACMILLAN CANCER RELMACMILLAN CANCER REL0000003ZENITHOPTIMEDIA LTD ZENITHOPTIMEDIA LTD                                       
210052021SIG/OCAD003/030000OCADO NHFSS                        HEARTS & SCIENCE LIMOCADO               OCADO               0000034HEARTS & SCIENCE LIMHEARTS & SCIENCE LIM                                      
210052021CCE/SSGF004/030000SAMSUNG FOLDABLES                  STARCOM WORLDWIDE LISAMSUNG ELECTRONICS SAMSUNG ELECTRONICS 0000110BBH (CRE)           STARCOM WORLDWIDE LI                                      
210052021VCC/DOMN208/010000DOMINOS FOOTBALL                   HAVAS MEDIA         DOMINOS PIZZA GROUP DOMINOS PIZZA GROUP 0000004HAVAS MEDIA         HAVAS MEDIA                                               
210052021MCE/RBDT016/020000DETTOL LAUNDRY                     ZENITHOPTI RECK(BUY)RECKITT BENCKISER   RECKITT BENCKISER   0000092HOGARTH WORLDWI(CRE)ZENITHOPTIMEDIA LTD                                       
210052021QST/VIMT152/030000VIMTO HFSS                         WAVEMAKER MANCHESTERJN NICHOLS VIMTO    JN NICHOLS VIMTO    0000063WAVEMAKER MANCHESTERWAVEMAKER MANCHESTER                                      
210052021PCH/CRAL013/030000CORAL CASINO MONEY                 THE7STARS UK LIMITEDGALA CORAL GROUP LIMGALA CORAL GROUP LIM0000019ALPHA CENTURY (CRE) THE7STARS UK LIMITED                                      
210052021HST/CUBP09/1800000HIGH STREET TV CUBII (TES)         HIGH STREET TV      HIGH STREET TV      HIGH STREET TV      0000001HIGH STREET TV      HIGH STREET TV                                            
210052021HOG/CLEQ741/010004COLGATE EQUITY (IRE)               WAVEMAKER IRELAND   COLGATE PALMOLIVE   COLGATE PALMOLIVE   0000041WAVEMAKER IRELAND   WAVEMAKER IRELAND                                         
210052021TSS/YTNL001/020000YELLOW TAIL WINE                   THE7STARS UK LIMITEDCASELLA FAMILY BRANDCASELLA FAMILY BRAND0000017THE7STARS UK LIMITEDTHE7STARS UK LIMITED                                      
210052021MOE/MANS006/030000MANSCAPED                          MOSTLY MEDIA LIMITEDMANSCAPED INC       MANSCAPED INC       0000007MOSTLY MEDIA LIMITEDMOSTLY MEDIA LIMITED                                      
210052021OLI/LGFN740/030000LEGAL & GENERAL TERM INSURANCE     VIZEUM UK LIMITED   LEGAL & GENERAL GRP LEGAL & GENERAL GRP 0000159VIZEUM UK LIMITED   VIZEUM UK LIMITED                                         
210052021HOG/MABA199/020004MATTEL BARBIE COLOUR CHANGE (IRE)  MEDIA BRANDS IR(BUY)MATTEL              MATTEL              0000142MEDIA BRANDS IR(BUY)UNIVERSAL MCCANN DUB                                      
210052021SAS/VIWU002/030000VIVID IMAGINATIONS PHLAT/WUBBLE    GENERATION MEDIA LIMVIVID IMAGINATIONS  VIVID IMAGINATIONS  0000033GENERATION MEDIA LIMGENERATION MEDIA LIM                                      
210052021MKN/PEBI023/030000PELOTON TRAINING BIKE              ESSENCE MEDIA       PELOTON INTERACTIVE PELOTON INTERACTIVE 0000048ESSENCE MEDIA       ESSENCE MEDIA                                             
210052021PCH/CARW003/010000CARWOW.COM GME                     GME MINDSHARE (BUY) CARWOW              CARWOW              0000087GME MINDSHARE (BUY) GROUPM ENTERTAINMENT                                      
210052021TOF/IMOL002/030000SKY INTERNET MATTERS V2 (HIS)      A&E TELE (SALES HSE)A&E TELE (SALES HSE)A&E TELE (SALES HSE)0000014A&E TELE (SALES HSE)A&E TELE (SALES HSE)                                      
210052021BRV/LOVE002/020000LOVEHONEY                          KITE FACTORY        LOVEHONEY LTD       LOVEHONEY LTD       0000032KITE FACTORY        KITE FACTORY                                              
210052021AMX/VANG003/030000VANGUARD INVESTMENTS               THE7STARS UK LIMITEDVANGUARD ASSET MANAGVANGUARD ASSET MANAG0000023THE7STARS UK LIMITEDTHE7STARS UK LIMITED                                      
210052021VCC/DOMN229/030004DOMINOS BIG DEAL (IRE)             HAVAS MEDIA IRELAND DOMINOS PIZZA GROUP DOMINOS PIZZA GROUP 0000015HAVAS MEDIA IRELAND HAVAS MEDIA IRELAND                                       
210052021SFM/GTLG804/030000GOLFNOW.COM                        SKY (PROMO)         GOLFNOW.COM         GOLFNOW.COM         0000006SKY (PROMO)         SKY (PROMO)                                               
210052021DIS/HYEP002/120000HYUNDAI (DNE)                      DISCOVERY(SALES HSE)DISCOVERY(SALES HSE)DISCOVERY(SALES HSE)0000001DISCOVERY(SALES HSE)DISCOVERY(SALES HSE)                                      
210052021CKC/NOWT040/030000NOW TV                             MEDIACOM HOLDINGS LISKY                 SKY                 0000018SKY                 SKY                                                       
210052021VCC/WIKI041/010000WICKES KITCHEN AGL (NBA)           CARAT LIMITED       WICKES              WICKES              0000060CARAT LIMITED       AGL UK INVESTMENTS                                        
210052021BUC/PGAL001/030000ALWAYS DISCREET PANTS              STARCOM WW (P&G)    PROCTER & GAMBLE UK PROCTER & GAMBLE UK 0000016STARCOM WW (P&G)    STARCOM WW (P&G)                                          
210052021DAA/POLL004/030000POLLY LIFE INSURANCE               ALL RESPONSE NORTH  CANDID WEB ASSETS   CANDID WEB ASSETS   0000003ALL RESPONSE NORTH  ALL RESPONSE NORTH                                        
210052021ICF/OLDL108/010000ICELAND HFSS                       THE7STARS UK LIMITEDICELAND FROZEN FOODSICELAND FROZEN FOODS0000036MEDIA SAGES LIMITED THE7STARS UK LIMITED                                      
210052021SCC/SPSU141/090000NEILSON FINANCIAL SERVICE SMART FAMSTARCOM WORLDWIDE LINEILSON FINANCIAL   NEILSON FINANCIAL   0000001STARCOM WORLDWIDE LISTARCOM WORLDWIDE LI                                      
210052021ABF/PCMS001/060000PURE CREMATION                     HAVAS MEDIA         PURE CREMATION      PURE CREMATION      0000030HAVAS MEDIA         HAVAS MEDIA                                               
210052021HOG/BOOK589/020000BOOKING.COM BRAND                  MINDSHARE MEDIA UK LBOOKING.COM         BOOKING.COM         0000166WIEDEN & KENNED(CRE)MINDSHARE MEDIA UK L                                      
210052021SNQ/PUBR159/030000PURPLEBRICKS DRTV                  WAVEMAKER           NEW BROOM LIMITED   NEW BROOM LIMITED   0000035SNAP MEDIA SERVICES WAVEMAKER                                                 
210052021RTN/SCLS025/010000SELECT CAR LEASING (NBA)           MEDIA AGENCY GROUP  SELECT CAR LEASING  SELECT CAR LEASING  0000004MEDIA AGENCY GROUP  MERCURY MEDIA GROUP                                       
210052021BUR/TLEN011/030000LENOR REGIME                       STARCOM WW (P&G)    PROCTER & GAMBLE UK PROCTER & GAMBLE UK 0000009GREY LONDON LTD(CRE)STARCOM WW (P&G)                                          
210052021SCC/SMPT028/090000NEILSON FINANCIAL SERVICE SMART FAMSTARCOM WORLDWIDE LINEILSON FINANCIAL   NEILSON FINANCIAL   0000001STARCOM WORLDWIDE LISTARCOM WORLDWIDE LI                                      
210052021WFA/WAYF055/020000WAYFAIR FURNITURE                  MCCUTCHEON NORVEIL CWAYFAIR STORES LTD  WAYFAIR STORES LTD  0000029THE GATE FILMS (CRE)MCCUTCHEON NORVEIL C                                      
210052021SCC/SHVU143/060000NEILSON FINANCIAL SERVICE SMART FAMSTARCOM WORLDWIDE LINEILSON FINANCIAL   NEILSON FINANCIAL   0000001STARCOM WORLDWIDE LISTARCOM WORLDWIDE LI                                      
210052021KAR/KENC013/010000KENCO DUO                          HAVAS MEDIA         JACOBS DOUWE EGBERTSJACOBS DOUWE EGBERTS0000069HAVAS MEDIA         HAVAS MEDIA                                               
210052021DRG/BARC066/030000BARCLAYS BARCLAYCARD BRAND         OMD GROUP LIMITED   BARCLAYCARD         BARCLAYCARD         0000115OMD GROUP LIMITED   OMD GROUP LIMITED                                         
210052021PCH/NISW309/030000NINTENDO POKEMON SNAP              THE7STARS UK LIMITEDNINTENDO OF EUROPE  NINTENDO OF EUROPE  0000025THE7STARS UK LIMITEDTHE7STARS UK LIMITED                                      
210052021APL/SMWP345/010005HATCHIMALS COLLEGGTIBLES (VIA)     VIACOM (SALES HSE)  VIACOM (SALES HSE)  VIACOM (SALES HSE)  0000007VIACOM (SALES HSE)  VIACOM (SALES HSE)                                        
210052021MCP/AAAM023/090000ACTION AID REGULAR GIVING SMS      HAVAS MEDIA         ACTION AID          ACTION AID          0000001HAVAS MEDIA         HAVAS MEDIA                                               
210052021VCM/VINT046/060000VINTED (BAR)                       STARCOM WORLDWIDE LIVINTED SAS          VINTED SAS          0000045STARCOM WORLDWIDE LIASTUS UK LIMITED                                          
210052021MCE/MMPO030/010000OJO CASINO                         ALL RESPONSE MEDIA LPLAY OJO            PLAY OJO            0000018MCCANN ERICKSON(CRE)ALL RESPONSE MEDIA L                                      
210052021PCH/INDE005/030000INDEED.CO.UK DRTV                  MEDIACOM DIRECT     INDEED              INDEED              0000015MEDIACOM DIRECT     MEDIACOM DIRECT                                           
210052021PCH/LADS017/030000TIER A LADBROKES SKY SPORTS NEWS   THE7STARS UK LIMITEDLADBROKES           LADBROKES           0000002THE7STARS UK LIMITEDTHE7STARS UK LIMITED                                      
210052021MRB/SIBR012/030000SIMBA SLEEP TV  (NBA)              WAKE THE BEAR LTD   SIMBA SLEEP LTD     SIMBA SLEEP LTD     0000116WAKE THE BEAR LTD   MIROMA INTERNATIONAL                                      
210052021PRR/PLTC855/030000PRETTY LITTLE THING                SPECIALIST WORKS    PRETTYLITTLETHING   PRETTYLITTLETHING   0000003HATCH CREATIVE LIMITSPECIALIST WORKS                                          
210052021MCE/SIMP010/010000SIMPLY HEALTH                      GOODSTUFF MEDIA     SIMPLYHEALTH GROUP  SIMPLYHEALTH GROUP  0000019GOODSTUFF MEDIA     GOODSTUFF MEDIA                                           
210052021HOG/BABR009/030000BRITISH AIRWAYS BRANDING 1         WAVEMAKER           BRITISH AIRWAYS PLC BRITISH AIRWAYS PLC 0000132WAVEMAKER           WAVEMAKER                                                 
210052021BBH/CASB075/030000TIER B CORAL BOOKMAKERS NON-LIVE   THE7STARS UK LIMITEDCORAL SPORT         CORAL SPORT         0000002BIG ALS CREATVE(CRE)THE7STARS UK LIMITED                                      
210052021SCC/SMPT036/090000NEILSON FINANCIAL SERVICE SMART FAMSTARCOM WORLDWIDE LINEILSON FINANCIAL   NEILSON FINANCIAL   0000001STARCOM WORLDWIDE LISTARCOM WORLDWIDE LI                                      
210052021SUP/SUMU003/020000SUM UP (MNE)                       ALL RESPONSE MEDIA LSUMUP PAYMENTS      SUMUP PAYMENTS      0000043TRAFFIC BUREAU (CRE)MEDIANEUTRAL LIMITED                                      
210052021ZYM/DABV07/1800000BORNER VITAL SLICER (TES)          ZESTIFY MEDIA LIMITEZESTIFY MEDIA       ZESTIFY MEDIA       0000001ZESTIFY MEDIA LIMITEZESTIFY MEDIA LIMITE                                      
210052021HHP/NOFA002/020000SYMANTEC NORTON 360                ALL RESPONSE MEDIA LSYMANTEC CORPORATIONSYMANTEC CORPORATION0000108HAPPY HOUR PROD(CRE)ALL RESPONSE MEDIA L                                      
210052021SHZ/MREC005/030000MORPHY RICHARDS DRTV               RUNNING TOTAL M(BUY)MORPHY RICHARDS     MORPHY RICHARDS     0000020RUNNING TOTAL M(BUY)TOTAL MEDIA LIMITED                                       
210052021IIB/AVSM054/010004SUPERMILK  HFSS (IRE)              CARAT IRELAND       GLANBIA             GLANBIA             0000067CARAT IRELAND       CARAT IRELAND                                             
210052021DTV/FPBB006/090000FOUR PAWS RG DRTV                  JOHN AYLING & ASSOCIFOUR PAWS           FOUR PAWS           0000001JOHN AYLING & ASSOCIJOHN AYLING & ASSOCI                                      
210052021SCC/HLQE001/090000HATTONS OF LONDON QUEENS 95TH BIRTHBYGRAVES BUSHELL VALHATTONS OF LONDON   HATTONS OF LONDON   0000022BYGRAVES BUSHELL VALMEDIA CAMPAIGN LIMIT                                      
210052021JML/FLHB001/030004JML FLAWLESS FACE (TEL)            SKY (TELESHOP)      SKY (TELESHOP)      SKY (TELESHOP)      0000002SKY (TELESHOP)      SKY (TELESHOP)                                            
210052021OCS/BHFS001/060000BRITISH HEART FOUNDATION PSMS      KITE FACTORY        BRITISH HEART FOUNDABRITISH HEART FOUNDA0000002KITE FACTORY        KITE FACTORY                                              
210052021MCL/DOGA008/030000DELIVEROO BRAND HFSS               INITIATIVE MEDIA LONDELIVEROO           DELIVEROO           0000017INITIATIVE MEDIA LONINITIATIVE MEDIA LON                                      
210052021MCE/SIMP007/020000SIMPLY HEALTH                      GOODSTUFF MEDIA     SIMPLYHEALTH GROUP  SIMPLYHEALTH GROUP  0000015GOODSTUFF MEDIA     GOODSTUFF MEDIA                                           
210052021MCE/MMPO044/010000OJO BINGO                          ALL RESPONSE MEDIA LPLAY OJO            PLAY OJO            0000003MCCANN ERICKSON(CRE)ALL RESPONSE MEDIA L                                      
210052021PCH/HFDM029/030000HELLOFRESH (MNE)                   GOODSTUFF MEDIA     GROCERY DELIVERY E-SGROCERY DELIVERY E-S0000009GOODSTUFF MEDIA     MEDIANEUTRAL LIMITED                                      
210052021DTV/WFRT001/030000WWF ADOPTIONS                      VIZEUM UK LIMITED   WWF                 WWF                 0000036VIZEUM UK LIMITED   VIZEUM UK LIMITED                                         
210052021DTV/RBLE011/090000ROYAL BRITISH LEGION LEGACY        JOHN AYLING & ASSOCIROYAL BRITISH LEGIONROYAL BRITISH LEGION0000004JOHN AYLING & ASSOCIJOHN AYLING & ASSOCI                                      
210052021DTV/WFEL001/030000WWF ADOPTIONS                      VIZEUM UK LIMITED   WWF                 WWF                 0000035VIZEUM UK LIMITED   VIZEUM UK LIMITED                                         
210052021JAV/TITY377/030004TOYOTA BRAND (IRE)                 JAVELIN GROUP       TOYOTA IRELAND      TOYOTA IRELAND      0000066JAVELIN GROUP       JAVELIN GROUP                                             
210052021PRR/PLTC856/030004PRETTY LITTLE THING (IRE)          SPECIALIST WORK(IRE)PRETTYLITTLETHING   PRETTYLITTLETHING   0000003SPECIALIST WORK(IRE)SPECIALIST WORK(IRE)                                      
210052021MRB/SIBR013/010000SIMBA SLEEP TV  (NBA)              WAKE THE BEAR LTD   SIMBA SLEEP LTD     SIMBA SLEEP LTD     0000107WAKE THE BEAR LTD   MIROMA INTERNATIONAL                                      
210052021EPF/TGGP002/030000GREATER GOOD                       EPERFORMANCE        GREATER GOOD BREWINGGREATER GOOD BREWING0000024EPERFORMANCE        EPERFORMANCE                                              
210052021PPL/PPLC036/030000PEOPLES POSTCODE LOTTERY BRAND AGL DENTSU AEGIS MANCHESPEOPLES POSTCODE LOTPEOPLES POSTCODE LOT0000012DENTSU AEGIS MANCHESAGL UK INVESTMENTS                                        
210052021RVT/DMCM49/1800000DORMEO MEMORY (TES)                ACCURATE MARKETING  DORMEO UK           DORMEO UK           0000001ACCURATE MARKETING  ACCURATE MARKETING                                        
210052021DTV/SSBT004/090004SIGHTSAVERS (IRE)                  JOHN AYLING & A(IRE)SIGHTSAVERS         SIGHTSAVERS         0000002JOHN AYLING & A(IRE)JOHN AYLING & A(IRE)                                      
210052021FAG/FAGE002/020004TOTAL GREEK YOGHURT 0% (IRE)       DENTSU AEGIS LE(IRE)FAGE                FAGE                0000100DENTSU AEGIS LE(IRE)DENTSU AEGIS LE(IRE)                                      
210052021SVM/ECHO002/010000ECHO PHARMACY SR (NBA)             JEBRI               METABOLIC HEALTHCAREMETABOLIC HEALTHCARE0000108JEBRI               ACTIVE INTERNATIONAL                                      
210052021WAG/SSUN008/030004SELECT SPECS 2 (TEL)               SKY (TELESHOP)      SKY (TELESHOP)      SKY (TELESHOP)      0000001SKY (TELESHOP)      SKY (TELESHOP)                                            
210052021SCC/RLTW502/060000ROYAL LONDON GROUP OVER 50 LIFE COVSPARK FOUNDRY       ROYAL LONDON MUTUAL ROYAL LONDON MUTUAL 0000127SPACE CITY (CRE)    SPARK FOUNDRY                                             
210052021BBH/LAPR063/030004LADBROKES (IRE)                    THE7STARS (IRE)     LADBROKES           LADBROKES           0000013THE7STARS (IRE)     THE7STARS (IRE)                                           
210052021PCH/EHAR020/010000EHARMONY DATING SITE               SPECIALIST WORKS    EHARMONY UK         EHARMONY UK         0000014SPECIALIST WORKS    SPECIALIST WORKS                                          
210052021WPN/ALNA045/060000AGE UK LOTTERY 3 DOGS              MEDIALAB GROUP      AGE UK              AGE UK              0000005MEDIALAB GROUP      MEDIALAB GROUP                                            
210052021WAL/GLDP742/090000PROMIS LIFE                        ALL RESPONSE MEDIA LPROMIS LIFE         PROMIS LIFE         0000034WALKER COMMUNICATIONHAVAS EDGE                                                
210052021GTB/HBNF650/020004HASBRO NERF ULTRA ELITE (IRE)      MEDIACOM DUBLIN     HASBRO UK           HASBRO UK           0000020MEDIACOM DUBLIN     MEDIACOM DUBLIN                                           
210052021HOG/NOGF858/020004BIRDS EYE GOODFELLAS (IRE)         ZENITHOPTIMEDIA IRE BIRDS EYE           BIRDS EYE           0000130ZENITHOPTIMEDIA IRE ZENITHOPTIMEDIA IRE                                       
210052021WNP/FSBK001/030000FREEMANS                           DENTSU AEGIS MANCHESFREEMANS            FREEMANS            0000067DENTSU AEGIS MANCHESDENTSU AEGIS MANCHES                                      
210052021SAS/VIBW002/030000VIVID IMAGINATIONS PHLAT/WUBBLE    GENERATION MEDIA LIMVIVID IMAGINATIONS  VIVID IMAGINATIONS  0000032GENERATION MEDIA LIMGENERATION MEDIA LIM                                      
210052021BRT/AQUA004/030000AQUABILITY                         ATTINGER JACK LIMITEAQUABILITY          AQUABILITY          0000024ATTINGER JACK LIMITEATTINGER JACK LIMITE                                      
210052021FWT/VFNW001/030004VODAFONE NETWORKS (IRE)            CARAT IRELAND       VODAFONE IRELAND    VODAFONE IRELAND    0000228CARAT IRELAND       CARAT IRELAND                                             
210052021DAA/OFCS019/010000OCEAN FINANCE CREDIT CARD          ALL RESPONSE NORTH  OCEAN FINANCE       OCEAN FINANCE       0000014ALL RESPONSE NORTH  ALL RESPONSE NORTH                                        
210052021WLI/WWFW027/030000WEIGHT WATCHERS DRTV               VIZEUM UK LIMITED   WEIGHT WATCHERS UK  WEIGHT WATCHERS UK  0000013VIZEUM UK LIMITED   VIZEUM UK LIMITED                                         
210052021MOE/MANS005/030000MANSCAPED                          MOSTLY MEDIA LIMITEDMANSCAPED INC       MANSCAPED INC       0000009MOSTLY MEDIA LIMITEDMOSTLY MEDIA LIMITED                                      
210052021ZYM/DABV21/1800000BORNER VITAL SLICER (TES)          ZESTIFY MEDIA LIMITEZESTIFY MEDIA       ZESTIFY MEDIA       0000001ZESTIFY MEDIA LIMITEZESTIFY MEDIA LIMITE                                      
210052021TNA/BRKE006/060000THE BROOKE CHARITY                 KITE FACTORY        BROOKE HOSPITAL FOR BROOKE HOSPITAL FOR 0000002KITE FACTORY        KITE FACTORY                                              
210052021TTB/TTRT023/030000TIMES RADIO GME                    GME MSIX (BUY)      NEWS UK & IRELAND   NEWS UK & IRELAND   0000092GME MSIX (BUY)      GROUPM ENTERTAINMENT                                      
210052021SCC/SPSU142/090000NEILSON FINANCIAL SERVICE SMART FAMSTARCOM WORLDWIDE LINEILSON FINANCIAL   NEILSON FINANCIAL   0000001STARCOM WORLDWIDE LISTARCOM WORLDWIDE LI                                      
210052021IIB/RKTM041/010004ROCKSHORE (IRE)                    PHD MEDIA IRELAND   DIAGEO              DIAGEO              0000032PHD MEDIA IRELAND   PHD MEDIA IRELAND                                         
210052021WWY/SKYB009/030000TIER A SKY BET SPORT SKY SPORTS NEWSKY BET             SKY BET             SKY BET             0000002SKY BET             SKY BET                                                   
210052021BON/BENE009/020004BENECOL (IRE)                      PHD MEDIA IRELAND   BENECOL             BENECOL             0000051PHD MEDIA IRELAND   PHD MEDIA IRELAND                                         
210052021SCC/WOEB004/010000WOWCHER                            MEDIA CAMPAIGN LIMITWOWCHER             WOWCHER             0000026MEDIA CAMPAIGN LIMITMEDIA CAMPAIGN LIMIT                                      
210052021ABF/PCNF001/060000PURE CREMATION                     HAVAS MEDIA         PURE CREMATION      PURE CREMATION      0000031HAVAS MEDIA         HAVAS MEDIA                                               
210052021WCR/KPMC018/010000MCCOYS                             STARCOM WORLDWIDE LIINTERSNACK LTD      INTERSNACK LTD      0000059STARCOM WORLDWIDE LISTARCOM WORLDWIDE LI                                      
210052021MOR/MELO064/020000MGA LOL REMIX OMG                  GENERATION MEDIA LIMMGA ENTERTAINMENT   MGA ENTERTAINMENT   0000085GENERATION MEDIA LIMGENERATION MEDIA LIM                                      
210052021CKC/NOWT035/030004NOW TV AWARDS RANGE (IRE)          MEDIACOM DUBLIN     SKY                 SKY                 0000242MEDIACOM DUBLIN     MEDIACOM DUBLIN                                           
210052021PCH/HFDM037/020000HELLOFRESH DRTV                    GOODSTUFF MEDIA     GROCERY DELIVERY E-SGROCERY DELIVERY E-S0000013GOODSTUFF MEDIA     GOODSTUFF MEDIA                                           
210052021EUR/SHCA007/020000EURO PRO SHARK CORDLESS            ALL RESPONSE MEDIA LEURO-PRO            EURO-PRO            0000013ALL RESPONSE MEDIA LALL RESPONSE MEDIA L                                      
210052021IIB/EBSM047/020004EBS MORTGAGES (IRE)                STARCOM IRELAND     EBS                 EBS                 0000038STARCOM IRELAND     STARCOM IRELAND                                           
210052021LSK/MANY010/030000BOUGHT BY MANY                     SPECIALIST WORKS    BOUGHT BY MANY LTD  BOUGHT BY MANY LTD  0000036SPECIALIST WORKS    SPECIALIST WORKS                                          
210052021BBH/AUET031/060000VW AUDI E TRON                     PHD MEDIA LIMITED   VOLKSWAGEN GROUP UK VOLKSWAGEN GROUP UK 0000042PHD MEDIA LIMITED   PHD MEDIA LIMITED                                         
210052021PLP/SIMP006/030000SIMPLICITY CREMATIONS              MEDIACOM BIRMIN(BUY)DIGNITY FUNERAL CAREDIGNITY FUNERAL CARE0000001IMD PLC (CRE)       MEDIACOM NORTH LIMIT                                      
210052021WLI/WWFA028/030000WEIGHT WATCHERS BRAND              VIZEUM UK LIMITED   WEIGHT WATCHERS UK  WEIGHT WATCHERS UK  0000015VIZEUM UK LIMITED   VIZEUM UK LIMITED                                         
210052021UTV/OCTO418/010000OCTOPUS ENERGY DIRECT              OCTOPUS ENERGY LTD  OCTOPUS ENERGY LTD  OCTOPUS ENERGY LTD  0000052OCTOPUS ENERGY LTD  OCTOPUS ENERGY LTD                                        
210052021BUR/TVIS003/030004VISION EXPRESS (IRE)               THE7STARS (IRE)     VISION EXPRESS IRE  VISION EXPRESS IRE  0000117THE7STARS (IRE)     THE7STARS (IRE)                                           
210052021PCH/VANA025/030000VANARAMA BRAND                     GOODSTUFF MEDIA     AUTORAMA UK LTD     AUTORAMA UK LTD     0000002GOODSTUFF MEDIA     GOODSTUFF MEDIA                                           
210052021SCC/SMPT032/090000NEILSON FINANCIAL SERVICE SMART FAMSTARCOM WORLDWIDE LINEILSON FINANCIAL   NEILSON FINANCIAL   0000001STARCOM WORLDWIDE LISTARCOM WORLDWIDE LI                                      
210052021BFE/NRGA001/030000BETFRED LOTTO                      BBJ&K LTD           BETFRED             BETFRED             0000004BBJ&K LTD           BBJ&K LTD                                                 
210052021MCL/DOKF014/010000DELIVEROO BRAND HFSS               INITIATIVE MEDIA LONDELIVEROO           DELIVEROO           0000019INITIATIVE MEDIA LONINITIATIVE MEDIA LON                                      
210052021PCH/RBEN025/020000RED BULL CARTOONS (BAR)            PHD MEDIA LIMITED   RED BULL            RED BULL            0000036PHD MEDIA LIMITED   FORTITUDE TRADING                                         
210052021JML/HYWR009/030000JML HYDRO POWER (TES)              MEDIA NETWORK       JML                 JML                 0000010MEDIA NETWORK       MEDIA NETWORK                                             
210052021BFE/BFGO103/030000BETFRED ENTS GA                    SPECIALIST WORKS    BETFRED             BETFRED             0000003SPECIALIST WORKS    SPECIALIST WORKS                                          
210052021APL/SMMP357/010004SPIN MASTER PAW PATROL MOTO PUPS (IGENERATION MEDI(IRE)SPINMASTER IRELAND  SPINMASTER IRELAND  0000022GENERATION MEDI(IRE)GENERATION MEDI(IRE)                                      
210052021RVE/TBRG050/020000TOMBOLA BRAND GME                  GME MEDIACOM NO(BUY)TOMBOLA ALDERNEY    TOMBOLA ALDERNEY    0000005GME MEDIACOM NO(BUY)GROUPM ENTERTAINMENT                                      
210052021MCP/AAGS003/090000ACTION AID CHILD SPONSORSHIP       HAVAS MEDIA         ACTION AID          ACTION AID          0000001HAVAS MEDIA         HAVAS MEDIA                                               
210052021CLD/NOOM017/010000NOOM ALLTIME                       ALL RESPONSE NORTH  NOOM                NOOM                0000001KOALA LIMITED       ALL RESPONSE NORTH                                        
210052021MTV/ABGB001/060005ABC MOUSE (VIA)                    VIACOM (SALES HSE)  VIACOM (SALES HSE)  VIACOM (SALES HSE)  0000002VIACOM (SALES HSE)  VIACOM (SALES HSE)                                        
210052021BLL/BZTP009/030000BAZUKA FOOTCARE                    BRAY LEINO LIMITED  D D D               D D D               0000081BRAY LEINO LIMI(CRE)BRAY LEINO LIMITED                                        
210052021SCC/WOEB004/010000WOWCHER ALL TIMES                  MEDIA CAMPAIGN LIMITWOWCHER             WOWCHER             0000014MEDIA CAMPAIGN LIMITMEDIA CAMPAIGN LIMIT                                      
210052021ABF/GHEN022/020000GO HENRY                           ALL RESPONSE NORTH  GOHENRY             GOHENRY             0000007ABF PICTURE LTD(CRE)ALL RESPONSE NORTH                                        
210052021BUR/TMDS754/030004MCDONALDS HAPPY MEAL SPONGEBOB (IREMEDIAWORKS IRELAND  MCDONALDS           MCDONALDS           0000017MEDIAWORKS IRELAND  MEDIAWORKS IRELAND                                        
210052021BRT/INDR001/060000OUT AND OUT INDOOR                 ATTINGER JACK LIMITEOUT & OUT ORIGINAL  OUT & OUT ORIGINAL  0000021ATTINGER JACK LIMITEATTINGER JACK LIMITE                                      
210052021GTB/HBSW655/020004HASBRO STAR WARS (IRE)             MEDIACOM DUBLIN     HASBRO UK           HASBRO UK           0000031MEDIACOM DUBLIN     MEDIACOM DUBLIN                                           
210052021BUR/TLEN011/030004P&G LENOR (IRE)                    SPARK FOUNDRY IRE   PROCTER & GAMBLE IREPROCTER & GAMBLE IRE0000069SPARK FOUNDRY IRE   SPARK FOUNDRY IRE                                         
210052021DAA/NRTR003/030000NORDIC TRACK (MNE)                 ALL RESPONSE NORTH  ICON HEALTH AND FITNICON HEALTH AND FITN0000021ALL RESPONSE NORTH  MEDIANEUTRAL LIMITED                                      
210052021BUR/TBLD011/030004P&G BOLD (IRE)                     SPARK FOUNDRY IRE   PROCTER & GAMBLE IREPROCTER & GAMBLE IRE0000064SPARK FOUNDRY IRE   SPARK FOUNDRY IRE                                         
210052021HNM/HMCU061/010004H&M SPRING KIDS (IRE)              THE7STARS (IRE)     H&M                 H&M                 0000048THE7STARS (IRE)     THE7STARS (IRE)                                           
210052021HUK/AZMP021/030004ALLIANZ BRAND DRTV (IRE)           MEDIACOM DUBLIN     ALLIANZ INS         ALLIANZ INS         0000017MEDIACOM DUBLIN     MEDIACOM DUBLIN                                           
210052021DES/LVCA331/010000LIVERPOOL VICTORIA MULTI PRODUCT DRINITIATIVE MEDIA LONLIVERPOOL VICTORIA FLIVERPOOL VICTORIA F0000006INITIATIVE MEDIA LONINITIATIVE MEDIA LON                                      
210052021JLN/USWT062/020000USWITCH BRAND (BAR)                ZENITHOPTIMEDIA LTD USWITCH             USWITCH             0000022ZENITHOPTIMEDIA LTD ASTUS UK LIMITED                                          
210052021ABF/PCFC001/060000PURE CREMATION                     HAVAS MEDIA         PURE CREMATION      PURE CREMATION      0000035HAVAS MEDIA         HAVAS MEDIA                                               
210052021VCC/COMP552/030000COMPARE THE MARKET SERVICE GME     GME WAVEMAKER (BUY) BISL                BISL                0000103VCCP LTD (CRE)      GROUPM ENTERTAINMENT                                      
210052021ECH/ECHE001/030000ECHELON FITNESS CONNECT BIKE       MEDIA NETWORK       ECHELON FITNESS MULTECHELON FITNESS MULT0000002MEDIA NETWORK       MEDIA NETWORK                                             
210052021ISD/SLIM003/030000VIBRAPOWER SLIM 2 (TEB)            MARK BROWN MEDIA LIMSKY (TELESHOP)      SKY (TELESHOP)      0000018MARK BROWN MEDIA LIMMARK BROWN MEDIA LIM                                      
210052021NOW/NYBK045/030000NEW YORK BAKERY GME                GME MEDIACOM (BUY)  MAPLE LEAF FOODS    MAPLE LEAF FOODS    0000126MEDIACOM HOLDINGS LIGROUPM ENTERTAINMENT                                      
210052021OCG/AUTO491/030000AUTOGLASS DRTV                     SPARK FOUNDRY       AUTOGLASS           AUTOGLASS           0000055SPARK FOUNDRY       SPARK FOUNDRY                                             
210052021BUR/TVIS012/020000VISION EXPRESS                     THE7STARS UK LIMITEDVISION EXPRESS UK   VISION EXPRESS UK   0000024THE7STARS UK LIMITEDTHE7STARS UK LIMITED                                      
210052021PCH/HFDM030/030000HELLOFRESH (MNE)                   GOODSTUFF MEDIA     GROCERY DELIVERY E-SGROCERY DELIVERY E-S0000004GOODSTUFF MEDIA     MEDIANEUTRAL LIMITED                                      
210052021PCH/CRAL007/030000ENTS CORAL HORSE RACING            THE7STARS UK LIMITEDCORAL SPORT         CORAL SPORT         0000006BBH (CRE)           THE7STARS UK LIMITED                                      
210052021ROY/RSGW005/060000RSPCA GIFTS IN WILL DRTV           JOHN AYLING & ASSOCIROYAL SOC PREVENTIONROYAL SOC PREVENTION0000006JOHN AYLING & ASSOCIJOHN AYLING & ASSOCI                                      
210052021JIN/BSOG009/030000BRIDGESTONE TYRES (DNE)            DISCOVERY(SALES HSE)DISCOVERY(SALES HSE)DISCOVERY(SALES HSE)0000001DISCOVERY(SALES HSE)DISCOVERY(SALES HSE)                                      
210052021SPW/ADUK076/030000ADIDAS BRAND                       MEDIACOM HOLDINGS LIADIDAS UK           ADIDAS UK           0000057MEDIACOM HOLDINGS LIMEDIACOM HOLDINGS LI                                      
210052021OGY/VODF239/020000VODAFONE BROADBAND (BAR)           CARAT LIMITED       VODAFONE GROUP      VODAFONE GROUP      0000022CARAT LIMITED       ASTUS UK LIMITED                                          
210052021RVE/TBBR055/020000TOMBOLA BRAND GME                  GME MEDIACOM NO(BUY)TOMBOLA ALDERNEY    TOMBOLA ALDERNEY    0000021GME MEDIACOM NO(BUY)GROUPM ENTERTAINMENT                                      
210052021CPD/AUDI134/030004AUDI ETRON (IRE)                   PHD MEDIA IRELAND   AUDI IRELAND        AUDI IRELAND        0000133PHD MEDIA IRELAND   PHD MEDIA IRELAND                                         
210052021JMS/SFBS001/030000STRIVE FOOTWEAR SANDALS            TV BUYING COMPANY   INTERNATIONAL FOOTCAINTERNATIONAL FOOTCA0000017TV BUYING COMPANY   TV BUYING COMPANY                                         
210052021VIN/RSPC003/090000RSPCA LEGACY                       JOHN AYLING & ASSOCIROYAL SOC PREVENTIONROYAL SOC PREVENTION0000001JOHN AYLING & ASSOCIJOHN AYLING & ASSOCI                                      
210052021VCM/VINT055/010000VINTED (BAR)                       STARCOM WORLDWIDE LIVINTED SAS          VINTED SAS          0000006STARCOM WORLDWIDE LIASTUS UK LIMITED                                          
210052021MOR/MENN130/020004MGA NA NA NA (IRE)                 GENERATION MEDI(IRE)MGA ENTERTAINMENT   MGA ENTERTAINMENT   0000076GENERATION MEDI(IRE)GENERATION MEDI(IRE)                                      
210052021TAG/HNIR094/030004HEINEKEN BRAND (IRE)               CARAT IRELAND       HEINEKEN IRELAND    HEINEKEN IRELAND    0000054CARAT IRELAND       CARAT IRELAND                                             
210052021MCP/AABR030/090000ACTION AID CHARITY REGULAR GIVING DHAVAS MEDIA         ACTION AID          ACTION AID          0000004HAVAS MEDIA         HAVAS MEDIA                                               
210052021CLD/CCEG006/030000COTSWOLDS FURNITURE DRTV           MINDSHARE DIREC(BUY)THE COTSWOLD COMPANYTHE COTSWOLD COMPANY0000074CREATURE LONDON(CRE)MINDSHARE MEDIA UK L                                      
210052021TOF/IMGC001/030000INTERNET MATTERS (HIS)             A&E TELE (SALES HSE)A&E TELE (SALES HSE)A&E TELE (SALES HSE)0000010A&E TELE (SALES HSE)A&E TELE (SALES HSE)                                      
210052021GNW/DYSN202/020000DYSON PERSONAL CARE                MINDSHARE MEDIA UK LDYSON               DYSON               0000162MINDSHARE MEDIA UK LMINDSHARE MEDIA UK L                                      
210052021HST/SCRP11/1800000HIGH STREET TV SLIM CYCLE DIRECT (THIGH STREET TV      HIGH STREET TV      HIGH STREET TV      0000001HIGH STREET TV      HIGH STREET TV                                            
210052021VCC/GODA050/010000GODADDY.COM DRTV                   VCCP MEDIA          GO DADDY EUROPE LIMIGO DADDY EUROPE LIMI0000016VCCP MEDIA          VCCP MEDIA                                                
210052021PMC/PRMF002/020004PUIG MILLIONS (IRE)                STARCOM IRELAND     PUIG                PUIG                0000014STARCOM IRELAND     STARCOM IRELAND                                           
210052021IRI/SSBR025/040000STAYSURE                           ALL RESPONSE MEDIA LSTAYSURE.CO.UK      STAYSURE.CO.UK      0000025IRIS LONDON (CRE)   ALL RESPONSE MEDIA L                                      
210052021PCH/NISW310/030000NINTENDO ANIMAL CROSSING GAMERS    THE7STARS UK LIMITEDNINTENDO OF EUROPE  NINTENDO OF EUROPE  0000045THE7STARS UK LIMITEDTHE7STARS UK LIMITED                                      
210052021HHP/SLLA505/030000SUNLIFE FUNERAL PLAN               MEDIALAB GROUP      SUNLIFE             SUNLIFE             0000011MEDIALAB GROUP      MEDIALAB GROUP                                            
210052021NMN/NUED005/030000NUMAN                              BOUNTIFUL COW (BUY) VIR HEALTH          VIR HEALTH          0000012BOUNTIFUL COW (BUY) THE7STARS UK LIMITED                                      
210052021TAG/AWIR852/020004AIRWICK BOTANICA (IRE)             ZENITHOPTIMEDIA IRE RECKITT BENCKISER   RECKITT BENCKISER   0000058ZENITHOPTIMEDIA IRE ZENITHOPTIMEDIA IRE                                       
210052021RBR/SHPO020/020000SHPOCK APP DRTV                    GOODSTUFF MEDIA     SHPOCK              SHPOCK              0000032GOODSTUFF MEDIA     GOODSTUFF MEDIA                                           
210052021ICF/BARR102/010000ICELAND HFSS                       THE7STARS UK LIMITEDICELAND FROZEN FOODSICELAND FROZEN FOODS0000020MEDIA SAGES LIMITED THE7STARS UK LIMITED                                      
210052021HST/SCRP04/1800000HIGH STREET TV SLIM CYCLE DIRECT (THIGH STREET TV      HIGH STREET TV      HIGH STREET TV      0000002HIGH STREET TV      HIGH STREET TV                                            
210052021SNQ/PUBR153/030000PURPLEBRICKS                       WAVEMAKER           NEW BROOM LIMITED   NEW BROOM LIMITED   0000002SNAP MEDIA SERVICES WAVEMAKER                                                 
210052021MUM/GOGS025/010000GOUSTO                             THE7STARS UK LIMITEDGOUSTO              GOUSTO              0000033M&C SAATCHI (CRE)   THE7STARS UK LIMITED                                      
210052021OGY/VODF238/020000VODAFONE BROADBAND (BAR)           CARAT LIMITED       VODAFONE GROUP      VODAFONE GROUP      0000016CARAT LIMITED       ASTUS UK LIMITED                                          
210052021TCS/SOHL001/030000SONS.CO.UK                         MOSTLY NORTH (BUY)  CAREFORSONS LIMITED CAREFORSONS LIMITED 0000011MOSTLY NORTH (BUY)  MOSTLY MEDIA LIMITED                                      
210052021SSC/DLCA042/030000DIRECT LINE CORE                   MEDIACOM HOLDINGS LIDIRECT LINE INS     DIRECT LINE INS     0000163M&C SAATCHI (CRE)   MEDIACOM HOLDINGS LI                                      
210052021HST/TRIT15/1800000HIGH STREET TV BION TRIM DIRECT (TEHIGH STREET TV      HIGH STREET TV      HIGH STREET TV      0000001HIGH STREET TV      HIGH STREET TV                                            
210052021SCC/WSSA001/020000WAYFAIR FURNITURE                  MCCUTCHEON NORVEIL CWAYFAIR STORES LTD  WAYFAIR STORES LTD  0000032THE GATE FILMS (CRE)MCCUTCHEON NORVEIL C                                      
210052021FTB/FMPM003/030000FINDMYPAST SR                      SMITHFIELD AGENCY   FINDMYPAST          FINDMYPAST          0000125SMITHFIELD AGENCY   ZENITHOPTIMEDIA LTD                                       
210052021GNW/DYSN192/020004DYSON FLOOR CARE (BAI)             MINDSHARE MEDIA IRE DYSON               DYSON               0000105MINDSHARE MEDIA IRE ACTIVE INTERNAT(IRE)                                      
210052021BRO/HARR032/030000HARRYS RAZORS                      GOODSTUFF MEDIA     HARRYS GROOMING     HARRYS GROOMING     0000001GOODSTUFF MEDIA     GOODSTUFF MEDIA                                           
210052021SCC/KARD001/030000ALIVECOR KARDIA MOBILE             MCCUTCHEON NORVEIL CALIVECOR INC        ALIVECOR INC        0000018MCCUTCHEON NORVEIL CMCCUTCHEON NORVEIL C                                      
210052021JML/FLHB001/030000JML FLAWLESS FACE (TES)            MEDIA NETWORK       JML                 JML                 0000010MEDIA NETWORK       MEDIA NETWORK                                             
210052021HST/RFTI01/0720004ROCK N FIT (TEL)                   SKY (TELESHOP)      SKY (TELESHOP)      SKY (TELESHOP)      0000001SKY (TELESHOP)      SKY (TELESHOP)                                            
210052021MCP/STCF006/090000SAVE THE CHILDREN INDIVIDUAL GIVINGMEDIACOM NORTH LIMITSAVE THE CHILDREN FUSAVE THE CHILDREN FU0000003MEDIACOM NORTH LIMITMEDIACOM NORTH LIMIT                                      
210052021HST/CUBP08/1800000HIGH STREET TV CUBII (TES)         HIGH STREET TV      HIGH STREET TV      HIGH STREET TV      0000001HIGH STREET TV      HIGH STREET TV                                            
210052021MCE/MMPO039/020000OJO BINGO                          ALL RESPONSE MEDIA LPLAY OJO            PLAY OJO            0000012MCCANN ERICKSON(CRE)ALL RESPONSE MEDIA L                                      
210052021IIB/EIRG037/040004EIRGRID (IRE)                      PHD MEDIA IRELAND   EIRGRID             EIRGRID             0000059PHD MEDIA IRELAND   PHD MEDIA IRELAND                                         
210052021PCH/ABNB003/030000AIR BNB GME                        GME ESSENCE (BUY)   AIRBNB INC          AIRBNB INC          0000031GME ESSENCE (BUY)   GROUPM ENTERTAINMENT                                      
210052021JML/HYWR009/030004HYDRO WONDER (TEL)                 SKY (TELESHOP)      SKY (TELESHOP)      SKY (TELESHOP)      0000002SKY (TELESHOP)      SKY (TELESHOP)                                            
210052021HOG/NEST186/030000NESTLE SMARTIES                    ZENITHOPTI NEST(BUY)NESTLE UK ROWNTREE  NESTLE SA           0000052ZENITHOPTIMEDIA LTD ZENITHOPTIMEDIA LTD                                       
210052021DTV/CPLC019/090000CATS PROTECTION SPONSORSHIP        JOHN AYLING & ASSOCICATS PROTECTION     CATS PROTECTION     0000001JOHN AYLING & ASSOCIJOHN AYLING & ASSOCI                                      
210052021ABF/PCGO003/020000PARCEL2GO                          ALL RESPONSE NORTH  PARCEL2GO.COM LTD   PARCEL2GO.COM LTD   0000164ALL RESPONSE NORTH  ALL RESPONSE NORTH                                        
210052021RVT/DMCM203/120000DORMEO MEMORY (TES)                ACCURATE MARKETING  DORMEO UK           DORMEO UK           0000002ACCURATE MARKETING  ACCURATE MARKETING                                        
210052021MCP/HFLM010/060000RSPCA LEGACY                       JOHN AYLING & ASSOCIROYAL SOC PREVENTIONROYAL SOC PREVENTION0000005JOHN AYLING & ASSOCIJOHN AYLING & ASSOCI                                      
210052021HOG/NEST145/030000NESTLE AERO                        ZENITHOPTI NEST(BUY)NESTLE UK ROWNTREE  NESTLE SA           0000065ZENITHOPTIMEDIA LTD ZENITHOPTIMEDIA LTD                                       
210052021HOM/UNIY537/030000TIER B UNIBET BOOKMAKERS SPORTS BETHAVAS MEDIA         UNIBET INTERNATIONALUNIBET INTERNATIONAL0000001HAVAS MEDIA         HAVAS MEDIA                                               
210052021SLH/CARS003/010004KEARY CARSTORE (IRE)               MEDIA BRANDS IR(BUY)KEARY MOTORS LIMITEDKEARY MOTORS LIMITED0000004MEDIA BRANDS IR(BUY)INITIATIVE MEDIA DUB                                      
210052021MCL/HSSS007/030000HOTTER SHOES SR                    DENTSU AEGIS MANCHESBEACONSFIELD FOOTWEABEACONSFIELD FOOTWEA0000184DENTSU AEGIS MANCHESDENTSU AEGIS MANCHES                                      
210052021HHP/SLTS204/020000SUNLIFE GOF                        MEDIALAB GROUP      SUNLIFE             SUNLIFE             0000002HAPPY HOUR PROD(CRE)MEDIALAB GROUP                                            
210052021BRT/CALF003/040000OUT AND OUT GARDEN                 ATTINGER JACK LIMITEOUT & OUT ORIGINAL  OUT & OUT ORIGINAL  0000002ATTINGER JACK LIMITEATTINGER JACK LIMITE                                      
210052021IGC/WRUK002/030004AMAZON WITHOUT REMORSE (IRE)       MEDIA BRANDS IR(BUY)AMAZON.CO.UK        AMAZON.CO.UK        0000028MEDIA BRANDS IR(BUY)INITIATIVE MEDIA DUB                                      
210052021AED/AVMB091/030000AVIVA MASTERBRAND                  ZENITHOPTIMEDIA LTD AVIVA               AVIVA               0000177ABBOTT MEAD VIC(CRE)ZENITHOPTIMEDIA LTD                                       
210052021APL/SMKS286/020000SPIN MASTER KINETIC SAND           GENERATION MEDIA LIMSPIN MASTER         SPIN MASTER         0000015GENERATION MEDIA LIMGENERATION MEDIA LIM                                      
210052021HHP/SLAP001/030000SUNLIFE GOF                        MEDIALAB GROUP      SUNLIFE             SUNLIFE             0000018HAPPY HOUR PROD(CRE)MEDIALAB GROUP                                            
210052021DCM/PROD003/010000PRODUCT MADNESS LIGHTNING LINK CASIDCMN MARKETING SOLUTPRODUCT MADNESS     PRODUCT MADNESS     0000050DCMN MARKETING SOLUTDCMN MARKETING SOLUT                                      
210052021ROT/EIRE011/010004EI RESIDENTIAL (IRE)               CARAT IRELAND       ELECTRIC IRELAND    ELECTRIC IRELAND    0000031CARAT IRELAND       CARAT IRELAND                                             
210052021JUF/FABL051/030000FABLETICS                          ALL RESPONSE MEDIA LTECHSTYLE           TECHSTYLE           0000027ALL RESPONSE MEDIA LALL RESPONSE MEDIA L                                      
210052021PRR/PLTC856/030004PRETTY LITTLE THINGS (VIA)         VIACOM (SALES HSE)  VIACOM (SALES HSE)  VIACOM (SALES HSE)  0000011VIACOM (SALES HSE)  VIACOM (SALES HSE)                                        
210052021PPL/PPLC037/030000PEOPLES POSTCODE LOTTERY BRAND AGL DENTSU AEGIS MANCHESPEOPLES POSTCODE LOTPEOPLES POSTCODE LOT0000022DENTSU AEGIS MANCHESAGL UK INVESTMENTS                                        
210052021QST/DNHA148/020004HARIBO STARMIX (IRE)               MINDSHARE MEDIA IRE HARIBO              HARIBO              0000021MINDSHARE MEDIA IRE MINDSHARE MEDIA IRE                                       
210052021CHF/STUD908/010000EXPRESS GIFTS                      MEDIACOM NORTH LIMITEXPRESS GIFTS LTD   EXPRESS GIFTS LTD   0000010THE GATE FILMS (CRE)MEDIACOM NORTH LIMIT                                      
210052021NSR/BHPP001/020000HARPIC                             ZENITHOPTI RECK(BUY)RECKITT BENCKISER   RECKITT BENCKISER   0000197TAG WORLDWIDE (CRE) ZENITHOPTIMEDIA LTD                                       
210052021NEA/FUNK002/020000FUNKO SNAPSIES                     GENERATION MEDIA LIMFUNKO LLC           FUNKO LLC           0000065GENERATION MEDIA LIMGENERATION MEDIA LIM                                      
210052021JML/HSCU003/180004JML HURRICANE SPINNER (TEL)        SKY (TELESHOP)      SKY (TELESHOP)      SKY (TELESHOP)      0000001SKY (TELESHOP)      SKY (TELESHOP)                                            
210052021PCH/EHAR025/010005EHARMONY (VIA)                     VIACOM (SALES HSE)  VIACOM (SALES HSE)  VIACOM (SALES HSE)  0000005VIACOM (SALES HSE)  VIACOM (SALES HSE)                                        
210052021WPN/PLDM031/060000PLAN UK DRTV (BAR)                 JOHN AYLING & ASSOCIPLAN INTERNATIONAL  PLAN INTERNATIONAL  0000001JOHN AYLING & ASSOCIASTUS UK LIMITED                                          
210052021DTV/SSBL003/040000SIGHT SAVERS PEAK                  JOHN AYLING & ASSOCISIGHTSAVERS         SIGHTSAVERS         0000002JOHN AYLING & ASSOCIJOHN AYLING & ASSOCI                                      
210052021MIF/SMAM063/020004SMA BRAND (IRE)                    MAXUS COMMS IRE     SMA                 SMA                 0000112MAXUS COMMS IRE     MAXUS COMMS IRE                                           
210052021AED/VMDR131/020000VIRGIN MEDIA ACQUISITIONS          OMD GROUP LTD (MGM) VIRGIN MEDIA        LIBERTY GLOBAL PLC  0000060BBH (CRE)           OMD GROUP LTD (MGM)                                       
210052021SCC/BADO101/030000BELLA AND DUKE                     ALL RESPONSE NORTH  BELLA & DUKE LIMITEDBELLA & DUKE LIMITED0000056ALL RESPONSE NORTH  ALL RESPONSE NORTH                                        
210052021WHG/WLLH044/030000ENTERTAINMENT WILLIAM HILL         WAVEMAKER           WILLIAM HILL        WILLIAM HILL        0000040WAVEMAKER           WAVEMAKER                                                 
210052021WPN/PLDM016/090000PLAN UK SPONSORSHIP                JOHN AYLING & ASSOCIPLAN INTERNATIONAL  PLAN INTERNATIONAL  0000006JOHN AYLING & ASSOCIJOHN AYLING & ASSOCI                                      
210052021PCH/HFDM034/010000HELLOFRESH (MNE)                   GOODSTUFF MEDIA     GROCERY DELIVERY E-SGROCERY DELIVERY E-S0000001GOODSTUFF MEDIA     MEDIANEUTRAL LIMITED                                      
210052021VCC/GODA035/010000GODADDY.COM DRTV                   VCCP MEDIA          GO DADDY EUROPE LIMIGO DADDY EUROPE LIMI0000018VCCP MEDIA          VCCP MEDIA                                                
210052021CWW/LORE138/020004L'OREAL PARIS MORE THAN SHAMPOO (IRMAXUS COMMS IRE     LOREAL              LOREAL              0000076MAXUS COMMS IRE     MAXUS COMMS IRE                                           
210052021DTV/CPWL013/090000CATS PROTECTION REGULAR GIVING DRTVJOHN AYLING & ASSOCICATS PROTECTION     CATS PROTECTION     0000002JOHN AYLING & ASSOCIJOHN AYLING & ASSOCI                                      
210052021PCH/HFDM038/030000HELLOFRESH DRTV                    GOODSTUFF MEDIA     GROCERY DELIVERY E-SGROCERY DELIVERY E-S0000020GOODSTUFF MEDIA     GOODSTUFF MEDIA                                           
210052021MUM/KFCC882/010000KFC CRAVEABLE CORE FAMILY          MINDSHARE MEDIA UK LKENTUCKY FRIED CHICKKENTUCKY FRIED CHICK0000023MINDSHARE MEDIA UK LMINDSHARE MEDIA UK L                                      
210052021HCL/ALLB008/030000ALL BIRDS SR                       ELECTRIC GLUE       ALLBIRDS            ALLBIRDS            0000054ELECTRIC GLUE       ELECTRIC GLUE                                             
210052021CLD/NOOM016/010000NOOM ALLTIME (MNE)                 ALL RESPONSE NORTH  NOOM                NOOM                0000004KOALA LIMITED       MEDIANEUTRAL LIMITED                                      
210052021GOS/REAS002/030000WELSH GOVERNMENT KEEPING WALES SAFEGOLLEY SLATER CARDIFWELSH GOVERNMENT    WELSH GOVERNMENT    0000004GOLLEY SLATER CARDIFGOLLEY SLATER CARDIF                                      
210052021WCR/MSMS091/010000MONEY SUPERMARKET ENERGY DRTV      MEDIACOM NORTH LIMITMONEYSUPERMARKET.COMMONEYSUPERMARKET.COM0000038MEDIACOM NORTH LIMITMEDIACOM NORTH LIMIT                                      
210052021SCC/SAME201/030000PHARMACARE SAMBUCOL (BAR)          VCCP MEDIA          PHARMACARE EUROPE   PHARMACARE EUROPE   0000001VCCP MEDIA          ASTUS UK LIMITED                                          
210052021PUC/MOSF017/030000PURE CREMATION                     HAVAS MEDIA         PURE CREMATION      PURE CREMATION      0000051HAVAS MEDIA         HAVAS MEDIA                                               
210052021BBH/CASB088/030000TIER A GS CORAL                    THE7STARS UK LIMITEDCORAL SPORT         CORAL SPORT         0000001ETV PRODUCTIONS(CRE)THE7STARS UK LIMITED                                      
210052021MCE/RBDT027/020000DETTOL PERSONAL CARE               ZENITHOPTI RECK(BUY)RECKITT BENCKISER   RECKITT BENCKISER   0000177ZENITHOPTIMEDIA(CRE)ZENITHOPTIMEDIA LTD                                       
210052021OGP/XLSM064/020000XLS MEDICAL (NBA)                  WAVEMAKER           OMEGA PHARMA        OMEGA PHARMA        0000075WAVEMAKER           ACTIVE INTERNATIONAL                                      
210052021ABF/ZLNW116/090000ZESTY LIFE                         SPECIALIST WORKS    ZESTYLIFE           ZESTYLIFE           0000001SPECIALIST WORKS    SPECIALIST WORKS                                          
210052021MCP/CAWR012/060000CHRISTIAN AID DRTV                 GOODSTUFF MEDIA     CHRISTIAN AID       CHRISTIAN AID       0000005GOODSTUFF MEDIA     GOODSTUFF MEDIA                                           
210052021SCC/WOEB007/010000WOWCHER ALL TIMES                  MEDIA CAMPAIGN LIMITWOWCHER             WOWCHER             0000002MEDIA CAMPAIGN LIMITMEDIA CAMPAIGN LIMIT                                      
210052021ABF/PCFC002/060000PURE CREMATION                     HAVAS MEDIA         PURE CREMATION      PURE CREMATION      0000017HAVAS MEDIA         HAVAS MEDIA                                               
210052021EUR/SHAH005/020000EURO PRO SHARK CORDED              ALL RESPONSE MEDIA LEURO-PRO            EURO-PRO            0000010ALL RESPONSE MEDIA LALL RESPONSE MEDIA L                                      
210052021TAG/MGGB107/030000MAGNUM PELE LUXE                   UNILEVER MIND (BUY) UNILEVER ICE CREAM &UNILEVER GROUP      0000299MINDSHARE MEDIA UK LMINDSHARE MEDIA UK L                                      
210052021ABF/GHEN023/030000GO HENRY (MNE)                     ALL RESPONSE NORTH  GOHENRY             GOHENRY             0000030ABF PICTURE LTD(CRE)MEDIANEUTRAL LIMITED                                      
210052021ROT/TESC502/010004TESCO SAYS (BAI)                   MINDSHARE MEDIA IRE TESCO IRELAND       TESCO PLC           0000075MINDSHARE MEDIA IRE MIROMA INTERNAT(IRE)                                      
210052021MCZ/PLAY001/020000OJO CASINO                         ALL RESPONSE MEDIA LPLAY OJO            PLAY OJO            0000006MCCANN ERICKSON(CRE)ALL RESPONSE MEDIA L                                      
210052021ABF/GHEN019/030000GO HENRY                           ALL RESPONSE NORTH  GOHENRY             GOHENRY             0000004ABF PICTURE LTD(CRE)ALL RESPONSE NORTH                                        
210052021MCE/JEAT140/010000JUST EAT BAU                       UM                  JUST EAT.CO.UK      JUST EAT.CO.UK      0000049UM                  UM                                                        
210052021OLI/BCPR003/030000BARCLAYS BARCLAYCARD DRTV          OMD GROUP LIMITED   BARCLAYCARD         BARCLAYCARD         0000041OMD GROUP LIMITED   OMD GROUP LIMITED                                         
210052021SCC/SPSU137/090000NEILSON FINANCIAL SERVICE SMART FAMSTARCOM WORLDWIDE LINEILSON FINANCIAL   NEILSON FINANCIAL   0000001STARCOM WORLDWIDE LISTARCOM WORLDWIDE LI                                      
210052021THA/FDTQ03/1800000THANE FLAVORSTONE DIAMOND (TES)    THANE               THANE               THANE               0000010THANE               THANE                                                     
210052021ASW/MNHS006/030000MANE HAIR TREATMENT                THE GROVE MEDIA     MANE UK LTD         MANE UK LTD         0000001THE GROVE MEDIA     THE GROVE MEDIA                                           
210052021SRQ/JAPL011/010000JANE PLAN DIET                     ALL RESPONSE MEDIA LJANE PLAN LIMITED   JANE PLAN LIMITED   0000011ALL RESPONSE MEDIA LALL RESPONSE MEDIA L                                      
210052021MCP/CAWR017/060000CHRISTIAN AID DRTV                 GOODSTUFF MEDIA     CHRISTIAN AID       CHRISTIAN AID       0000006GOODSTUFF MEDIA     GOODSTUFF MEDIA                                           
210052021FWT/STAR004/030004SAFEFOOD (IRE)                     PHD MEDIA IRELAND   SAFEFOOD            SAFEFOOD            0000048PHD MEDIA IRELAND   PHD MEDIA IRELAND                                         
210052021OPL/WFFG018/030004WILTSHIRE FARM FOODS (IRE)         MEDIA BRANDS IR(BUY)WILTSHIRE FARM FOODSWILTSHIRE FARM FOODS0000037MEDIA BRANDS IR(BUY)INITIATIVE MEDIA DUB                                      
210052021SSC/PGFD043/030004P&G FIXODENT (IRE)                 SPARK FOUNDRY IRE   PROCTER & GAMBLE IREPROCTER & GAMBLE IRE0000026SPARK FOUNDRY IRE   SPARK FOUNDRY IRE                                         
210052021TCS/VERI006/020000VERISURE INTERNATIONAL             VERISURE SERVICES UKVERISURE SERVICES UKVERISURE SERVICES UK0000541VERISURE SERVICES UKVERISURE SERVICES UK                                      
210052021WLI/WWBR035/030000WEIGHT WATCHERS DRTV               VIZEUM UK LIMITED   WEIGHT WATCHERS UK  WEIGHT WATCHERS UK  0000011VIZEUM UK LIMITED   VIZEUM UK LIMITED                                         
210052021PCH/HFDM033/010000HELLOFRESH.CO.UK                   GOODSTUFF MEDIA     GROCERY DELIVERY E-SGROCERY DELIVERY E-S0000007GOODSTUFF MEDIA     GOODSTUFF MEDIA                                           
210052021SSC/PGOB015/030000ORAL B PRO EXPERT PASTE            STARCOM WW (P&G)    PROCTER & GAMBLE UK PROCTER & GAMBLE UK 0000026STARCOM WW (P&G)    STARCOM WW (P&G)                                          
210052021HST/TRIT06/1800000HIGH STREET TV BION TRIM DIRECT (TEHIGH STREET TV      HIGH STREET TV      HIGH STREET TV      0000001HIGH STREET TV      HIGH STREET TV                                            
210052021PAC/KMTV001/040000KIP MCGRATH                        SPECIALIST WORKS    KIP MCGRATH LIMITED KIP MCGRATH LIMITED 0000013SPECIALIST WORKS    SPECIALIST WORKS                                          
210052021BUR/TLEN013/020000LENOR UNSTOPPABLE                  STARCOM WW (P&G)    PROCTER & GAMBLE UK PROCTER & GAMBLE UK 0000015GREY LONDON LTD(CRE)STARCOM WW (P&G)                                          
210052021PCH/HFDM033/010000HELLOFRESH (MNE)                   GOODSTUFF MEDIA     GROCERY DELIVERY E-SGROCERY DELIVERY E-S0000004GOODSTUFF MEDIA     MEDIANEUTRAL LIMITED                                      
210052021VCC/MULI431/020000MULLER LIGHT                       MEDIACOM HOLDINGS LIMULLER              MULLER              0000198MEDIACOM HOLDINGS LIMEDIACOM HOLDINGS LI                                      
210052021CWW/GARN058/020004L'OREAL HAIR FOOD (IRE)            MAXUS COMMS IRE     LOREAL              LOREAL              0000070MAXUS COMMS IRE     MAXUS COMMS IRE                                           
210052021WWY/SKYB010/030000TIER A SKY BET SPORTS              SKY BET             SKY BET             SKY BET             0000004SKY BET             SKY BET                                                   
210052021BTA/BETF600/030000BETFAIR CASINO                     MEDIACOM HOLDINGS LIPADDY POWER BETFAIR PADDY POWER BETFAIR 0000003MEDIACOM HOLDINGS LIMEDIACOM HOLDINGS LI                                      
210052021PPL/PPLC035/030000PEOPLES POSTCODE LOTTERY DRTV      DENTSU AEGIS MANCHESPEOPLES POSTCODE LOTPEOPLES POSTCODE LOT0000061PEOPLES POSTCOD(CRE)DENTSU AEGIS MANCHES                                      
210052021CAW/SVBO067/030004SUPERVALU VFI PI (IRE)             STARCOM IRELAND     SUPERVALU           MUSGRAVE GROUP      0000102STARCOM IRELAND     STARCOM IRELAND                                           
210052021HST/RKFT02/1800000HIGH STREET TV ROCK N FIT (TES)    HIGH STREET TV      HIGH STREET TV      HIGH STREET TV      0000001HIGH STREET TV      HIGH STREET TV                                            
210052021SCC/WOEG011/010000WOWCHER ALL TIMES                  MEDIA CAMPAIGN LIMITWOWCHER             WOWCHER             0000008MEDIA CAMPAIGN LIMITMEDIA CAMPAIGN LIMIT                                      
210052021TVY/TIMH003/060000TIM HOGARTH ANTIQUES               TV AGENCY LIMITED   TIM HOGARTH ANTIQUESTIM HOGARTH ANTIQUES0000057TV AGENCY LIMITED   TV AGENCY LIMITED                                         
210052021IIB/EBSM063/030004EBS MORTGAGES (IRE)                STARCOM IRELAND     EBS                 EBS                 0000090STARCOM IRELAND     STARCOM IRELAND                                           
210052021DTV/RBGW004/040000ROYAL BRITISH LEGION LOTTERY       JOHN AYLING & ASSOCIROYAL BRITISH LEGIONROYAL BRITISH LEGION0000006JOHN AYLING & ASSOCIJOHN AYLING & ASSOCI                                      
210052021KAR/LIDL207/020000LIDL PRICE COMPARISON              STARCOM WORLDWIDE LILIDL UK GMBH        LIDL UK GMBH        0000002STARCOM WORLDWIDE LISTARCOM WORLDWIDE LI                                      
210052021ARM/SNUK024/030000SNAPFISH                           A R M DIRECT LIMITEDSNAPFISH UK LTD     SNAPFISH UK LTD     0000034A R M DIRECT LIMITEDA R M DIRECT LIMITED                                      
210052021SSC/PGFY022/030004P&G FAIRY ADW (IRE)                SPARK FOUNDRY IRE   PROCTER & GAMBLE IREPROCTER & GAMBLE IRE0000082SPARK FOUNDRY IRE   SPARK FOUNDRY IRE                                         
210052021CHF/STUD897/030000EXPRESS GIFTS (BAR)                MEDIACOM NORTH LIMITEXPRESS GIFTS LTD   EXPRESS GIFTS LTD   0000057MEDIACOM NORTH LIMITASTUS UK LIMITED                                          
210052021GTB/HBSW655/020000HASBRO STAR WARS BRAND             MEDIACOM HOLDINGS LIHASBRO UK           HASBRO UK           0000025MEDIACOM HOLDINGS LIMEDIACOM HOLDINGS LI                                      
210052021PCH/TAIL005/030000TAILS.COM DRTV                     GOODSTUFF MEDIA     TAILSCO LIMITED     TAILSCO LIMITED     0000018GOODSTUFF MEDIA     GOODSTUFF MEDIA                                           
210052021BRO/WBAC051/010000WEBUYANYCAR.COM 2                  MEDIACOM NORTH LIMITCC AUTOMOTIVE GROUP CC AUTOMOTIVE GROUP 0000017BROTHERS AND SI(CRE)MEDIACOM NORTH LIMIT                                      
210052021DAA/DEAD014/010000DEAD HAPPY LIFE INSURANCE          ALL RESPONSE NORTH  DEAD HAPPY          DEAD HAPPY          0000066ALL RESPONSE NORTH  ALL RESPONSE NORTH                                        
210052021MCP/RSTD402/090000RSPCA SINGLE STAGE                 JOHN AYLING & ASSOCIROYAL SOC PREVENTIONROYAL SOC PREVENTION0000007JOHN AYLING & ASSOCIJOHN AYLING & ASSOCI                                      
210052021MKN/PEBI023/030000PELOTON TREAD                      ESSENCE MEDIA       PELOTON INTERACTIVE PELOTON INTERACTIVE 0000028ESSENCE MEDIA       ESSENCE MEDIA FIN PL                                      
210052021WHG/WLLH044/030000TIER A WILLIAM HILL SKY SPORTS NEWSWAVEMAKER           WILLIAM HILL        WILLIAM HILL        0000007WAVEMAKER           WAVEMAKER                                                 
210052021BRO/WBAC047/030000WE BUY ANY CAR DIRECT              WE BUY ANY CAR LIMITWE BUY ANY CAR LIMITWE BUY ANY CAR LIMIT0000012WE BUY ANY CAR LIMITWE BUY ANY CAR LIMIT                                      
210052021BUR/TFNB073/030000FAIRY NON BIO PLATINUM             STARCOM WW (P&G)    PROCTER & GAMBLE UK PROCTER & GAMBLE UK 0000021STARCOM WW (P&G)    STARCOM WW (P&G)                                          
210052021JML/HYRO002/030004JML HYDRO WONDER (BAI)             WAVEMAKER IRELAND   JML                 JML                 0000009WAVEMAKER IRELAND   ACTIVE INTERNAT(IRE)                                      
210052021VCC/COMP552/030000COMPARE THE MARKET SERVICE         WAVEMAKER           BISL                BISL                0000002VCCP LTD (CRE)      WAVEMAKER                                                 
210052021WAL/GLDP722/090000PROMIS LIFE                        ALL RESPONSE MEDIA LPROMIS LIFE         PROMIS LIFE         0000030WALKER COMMUNICATIONHAVAS EDGE                                                
210052021EGP/PEPM052/020000PEPSI MAX                          OMD GROUP LIMITED   PEPSICO INTERNATIONAPEPSI COLA INT      0000027ABBOTT MEAD VIC(CRE)OMD GROUP LIMITED                                         
210052021BUR/TTUI005/020000TUI UK TOY GME                     GME MEDIACOM (BUY)  TUI UK LTD          TUI UK LTD          0000138GME MEDIACOM (BUY)  GROUPM ENTERTAINMENT                                      
210052021HNB/IRTV126/030004HARVEY NORMAN TECH SPECIALISTS (IREHARVEY NORMAN       HARVEY NORMAN       HARVEY NORMAN       0000018HARVEY NORMAN       HARVEY NORMAN                                             
210052021HSL/HKGA222/030000HENKEL GENERIC (NBA)               TMS12 (BUY)         HENKEL              HENKEL              0000004TMS12 (BUY)         ACTIVE INTERNATIONAL                                      
210052021CLD/MOPI020/030000MOONPIG CARDS DRTV                 MEDIACOM NORTH LIMITALTERGRAPHICS       ALTERGRAPHICS       0000064MEDIACOM NORTH LIMITMEDIACOM NORTH LIMIT                                      
210052021PCH/EHAR026/010000EHARMONY DATING SITE               SPECIALIST WORKS    EHARMONY UK         EHARMONY UK         0000007SPECIALIST WORKS    SPECIALIST WORKS                                          
210052021CLD/MOPI022/010000MOONPIG CARDS DRTV                 MEDIACOM NORTH LIMITALTERGRAPHICS       ALTERGRAPHICS       0000046MEDIACOM NORTH LIMITMEDIACOM NORTH LIMIT                                      
210052021WKU/SAUK158/020000SAINSBURYS PM                      PHD MEDIA LIMITED   SAINSBURYS SUPERMARKJ SAINSBURYS        0000067PHD MEDIA LIMITED   PHD MEDIA LIMITED                                         
210052021EGP/SNCR155/020000MARS SNICKERS                      MEDIACOM HOLDINGS LIMASTERFOODS         MARS INCORPORATED   0000043MEDIACOM HOLDINGS LIMEDIACOM HOLDINGS LI                                      
210052021VCM/VINT054/020000VINTED (BAR)                       STARCOM WORLDWIDE LIVINTED SAS          VINTED SAS          0000006STARCOM WORLDWIDE LIASTUS UK LIMITED                                          
210052021SSC/PGVE010/020004P&G GILLETTE VENUS (IRE)           SPARK FOUNDRY IRE   PROCTER & GAMBLE IREPROCTER & GAMBLE IRE0000081SPARK FOUNDRY IRE   SPARK FOUNDRY IRE                                         
210052021BUR/TMDS770/030000MCDONALDS MCCAFE                   OMD GROUP LIMITED   MCDONALDS           MCDONALDS           0000112LEO BURNETT LDN(CRE)OMD GROUP LIMITED                                         
210052021BUR/TFNB072/030000FAIRY NON BIO BRAND EQUITY         STARCOM WW (P&G)    PROCTER & GAMBLE UK PROCTER & GAMBLE UK 0000022STARCOM WW (P&G)    STARCOM WW (P&G)                                          
210052021PCH/ABSN007/030000SONOS                              VIZEUM UK LIMITED   SONOS               SONOS               0000012IMD PLC (CRE)       VIZEUM UK LIMITED                                         
210052021EGP/PEPM052/020000PEPSI MAX OMNET                    OMD GROUP LIMITED   PEPSICO INTERNATIONAPEPSI COLA INT      0000014ABBOTT MEAD VIC(CRE)OMD GROUP LIMITED                                         
210052021BUR/TLDT076/020004LINDT EXCELLENCE (IRE)             MINDSHARE MEDIA IRE LINDT               LINDT               0000069MINDSHARE MEDIA IRE MINDSHARE MEDIA IRE                                       
210052021SMQ/SPBR006/010000ETSY BRAND                         PHD MEDIA LIMITED   ETSY INC            ETSY INC            0000030PHD MEDIA LIMITED   PHD MEDIA LIMITED                                         
210052021SCC/BSGD023/090000NEILSON FINANCIAL SERVICE BRITISH SSTARCOM WORLDWIDE LINEILSON FINANCIAL   NEILSON FINANCIAL   0000001STARCOM WORLDWIDE LISTARCOM WORLDWIDE LI                                      
210052021TAG/MTGB069/030004BIRRA MORETTI (IRE)                CARAT IRELAND       HEINEKEN IRELAND    HEINEKEN IRELAND    0000055CARAT IRELAND       CARAT IRELAND                                             
210052021WPP/EMMA021/020004EMMA MATTRESS (IRE)                MCCUTCHEON NORV(IRE)EMMA MATTRESS       EMMA MATTRESS       0000128MCCUTCHEON NORV(IRE)MCCUTCHEON NORV(IRE)                                      
210052021ASW/MNHS007/030000MANE HAIR TREATMENT                THE GROVE MEDIA     MANE UK LTD         MANE UK LTD         0000001THE GROVE MEDIA     THE GROVE MEDIA                                           
210052021JML/FLHB004/030000JML FINISHING TOUCH (BAR)          ALL RESPONSE MEDIA LJML                 JML                 0000011ALL RESPONSE MEDIA LACTIVE INTERNATIONAL                                      
210052021SSC/MEBR012/030000MERCEDES EQA OMNET                 OMD GROUP LIMITED   MERCEDES BENZ       MERCEDES BENZ       0000028OMD GROUP LIMITED   OMD GROUP LIMITED                                         
210052021HHN/SFKA072/010000SLIMFAST GME                       GME MINDSHARE (BUY) SLIMFAST FOODS LTD  SLIMFAST FOODS LTD  0000109MINDSHARE MEDIA UK LGROUPM ENTERTAINMENT                                      
210052021SCC/SPSU139/060000NEILSON FINANCIAL SERVICE SMART FAMSTARCOM WORLDWIDE LINEILSON FINANCIAL   NEILSON FINANCIAL   0000001STARCOM WORLDWIDE LISTARCOM WORLDWIDE LI                                      
210052021BKB/CLEA782/030000CLEARSCORE PEAK                    MEDIALAB GROUP      CLEAR SCORE TECHNOLOCLEAR SCORE TECHNOLO0000020MEDIALAB GROUP      MEDIALAB GROUP                                            
210052021MCL/DOCP027/010000DELIVEROO ON DEMAND CONVEINIENCE   INITIATIVE MEDIA LONDELIVEROO           DELIVEROO           0000004INITIATIVE MEDIA LONINITIATIVE MEDIA LON                                      
210052021TAG/BJIE003/020004BEN & JERRY'S ICE CREAM (IRE)      MINDSHARE MEDIA IRE UNILEVER IRELAND    UNILEVER GROUP      0000309MINDSHARE MEDIA IRE MINDSHARE MEDIA IRE                                       
210052021PCH/EHAR020/010005EHARMONY (VIA)                     VIACOM (SALES HSE)  VIACOM (SALES HSE)  VIACOM (SALES HSE)  0000004VIACOM (SALES HSE)  VIACOM (SALES HSE)                                        
210052021MCE/RBDT017/020000DETTOL LAUNDRY                     ZENITHOPTI RECK(BUY)RECKITT BENCKISER   RECKITT BENCKISER   0000043HOGARTH WORLDWI(CRE)ZENITHOPTIMEDIA LTD                                       
210052021CTV/WLHH006/030000WARNER LEISURE HOTELS DRTV         MEDIACOM LEEDS(BUY) BOURNE LEISURE      BOURNE LEISURE      0000069MEDIACOM LEEDS(BUY) MEDIACOM NORTH LIMIT                                      
210052021JLN/USWT063/020000USWITCH BRAND (BAR)                ZENITHOPTIMEDIA LTD USWITCH             USWITCH             0000017ZENITHOPTIMEDIA LTD ASTUS UK LIMITED                                          
210052021NMN/NUED002/030000NUMAN                              BOUNTIFUL COW (BUY) VIR HEALTH          VIR HEALTH          0000009BOUNTIFUL COW (BUY) THE7STARS UK LIMITED                                      
210052021DVN/VADD313/010000VAGISAN                            MEDIACOM NORTH LIMITDR AUGUST WOLFF GMBHDR AUGUST WOLFF GMBH0000039MEDIACOM NORTH LIMITMEDIACOM NORTH LIMIT                                      
210052021MCP/STCF003/090000SAVE THE CHILDREN INDIVIDUAL GIVINGMEDIACOM NORTH LIMITSAVE THE CHILDREN FUSAVE THE CHILDREN FU0000050MEDIACOM NORTH LIMITMEDIACOM NORTH LIMIT                                      
210052021WAL/GLDP745/040000PROMIS LIFE OFP                    ALL RESPONSE MEDIA LPROMIS LIFE         PROMIS LIFE         0000006WALKER COMMUNICATIONHAVAS EDGE                                                
210052021IIB/VOLK091/030004VW ID 4 (IRE)                      PHD MEDIA IRELAND   VOLKSWAGEN IRELAND  VOLKSWAGEN IRELAND  0000025PHD MEDIA IRELAND   PHD MEDIA IRELAND                                         
210052021RAT/PFFF101/020000INTERPLAY UK MY FAIRY GARDEN       BLM AZURE (BUY)     INTERPLAY           INTERPLAY           0000022BLM AZURE (BUY)     ARENA MEDIA                                               
210052021DTV/CPBP009/040000CATS PROTECTION LOTTERY            JOHN AYLING & ASSOCICATS PROTECTION     CATS PROTECTION     0000002JOHN AYLING & ASSOCIJOHN AYLING & ASSOCI                                      
210052021MBD/KGBU002/020004KERRYGOLD (IRE)                    OMD IRELAND         ORNUA CO-OPERATIVE LORNUA CO-OPERATIVE L0000032OMD IRELAND         OMD IRELAND                                               
210052021VIN/RSPC002/090000RSPCA LEGACY                       JOHN AYLING & ASSOCIROYAL SOC PREVENTIONROYAL SOC PREVENTION0000004JOHN AYLING & ASSOCIJOHN AYLING & ASSOCI                                      
210052021BEM/GACR001/030000DRAFTY.CO.UK                       MCCUTCHEON NORVEIL CDRAFTY              DRAFTY              0000042MCCUTCHEON NORVEIL CMCCUTCHEON NORVEIL C                                      
210052021SYZ/CCPA121/020000CHANEL COCO MADAMOISELLE PERFUME   MINDSHARE MEDIA UK LCHANEL              CHANEL              0000015MINDSHARE MEDIA UK LMINDSHARE MEDIA UK L                                      
210052021TAG/TOMO246/030000TESCO MOBILE DRTV                  MEDIACOM DIRECT     TESCO STORES        TESCO STORES        0000016TAG WORLDWIDE (CRE) MEDIACOM DIRECT                                           
210052021SSC/PGFD043/030000FIXODENT TOOTHPASTE                STARCOM WW (P&G)    PROCTER & GAMBLE UK PROCTER & GAMBLE UK 0000023STARCOM WW (P&G)    STARCOM WW (P&G)                                          
210052021BTA/BETF636/030000ENTERTAINMENT BETFAIR              MEDIACOM HOLDINGS LIPADDY POWER BETFAIR PADDY POWER BETFAIR 0000012MEDIACOM HOLDINGS LIMEDIACOM HOLDINGS LI                                      
210052021SCC/WOEB015/010000WOWCHER                            MEDIA CAMPAIGN LIMITWOWCHER             WOWCHER             0000019MEDIA CAMPAIGN LIMITMEDIA CAMPAIGN LIMIT                                      
210052021SCC/SHVU142/090000NEILSON FINANCIAL SERVICE SMART FAMSTARCOM WORLDWIDE LINEILSON FINANCIAL   NEILSON FINANCIAL   0000001STARCOM WORLDWIDE LISTARCOM WORLDWIDE LI                                      
210052021BRO/HARR033/030000HARRYS RAZORS (MNE)                GOODSTUFF MEDIA     HARRYS GROOMING     HARRYS GROOMING     0000029GOODSTUFF MEDIA     MEDIANEUTRAL LIMITED                                      
210052021SSC/DLBR021/030000DIRECT LINE CORE                   MEDIACOM HOLDINGS LIDIRECT LINE INS     DIRECT LINE INS     0000035M&C SAATCHI (CRE)   MEDIACOM HOLDINGS LI                                      
210052021MCE/MMPO046/020000OJO CASINO                         ALL RESPONSE MEDIA LPLAY OJO            PLAY OJO            0000033MCCANN ERICKSON(CRE)ALL RESPONSE MEDIA L                                      
210052021CHF/STUD891/010000EXPRESS GIFTS                      MEDIACOM NORTH LIMITEXPRESS GIFTS LTD   EXPRESS GIFTS LTD   0000005THE GATE FILMS (CRE)MEDIACOM NORTH LIMIT                                      
210052021DTV/SSEN035/090000SIGHT SAVERS DRTV                  JOHN AYLING & ASSOCISIGHTSAVERS         SIGHTSAVERS         0000005JOHN AYLING & ASSOCIJOHN AYLING & ASSOCI                                      
210052021TGW/BUZZ017/010000BUZZ BINGO (BAR)                   GATE WORLDWIDE LIMITBUZZ BINGO          BUZZ BINGO          0000010SHRIMP LTD (CRE)    ASTUS UK LIMITED                                          
210052021CNS/PDRS009/030000PARKDEAN HOLIDAY PARKS             DENTSU AEGIS LEEDS  PARKDEAN HOLIDAY PARPARKDEAN HOLIDAY PAR0000062CRAVENS LTD (CRE)   DENTSU AEGIS LEEDS                                        
210052021DTV/DIMB003/060000DIABETES UK MEMBERSHIP DRTV        JOHN AYLING & ASSOCIDIABETES UK         DIABETES UK         0000004JOHN AYLING & ASSOCIJOHN AYLING & ASSOCI                                      
210052021DAA/GOSH025/010000GREAT ORMOND HOSPITAL RESEARCH     ALL RESPONSE MEDIA LGREAT ORMOND STREET GREAT ORMOND STREET 0000017ALL RESPONSE MEDIA LALL RESPONSE MEDIA L                                      
210052021SCC/BADO101/010000BELLA AND DUKE                     ALL RESPONSE NORTH  BELLA & DUKE LIMITEDBELLA & DUKE LIMITED0000041ALL RESPONSE NORTH  ALL RESPONSE NORTH                                        
210052021TOF/IMPC003/030000SKY INTERNET MATTERS V3 (DNE)      DISCOVERY(SALES HSE)DISCOVERY(SALES HSE)DISCOVERY(SALES HSE)0000004DISCOVERY(SALES HSE)DISCOVERY(SALES HSE)                                      
210052021ISD/WDST01/1800000WONDERSTRIDER DIRECT (TES)         IDEAL SHOPPING      IDEAL SHOPPING      IDEAL SHOPPING      0000004IDEAL SHOPPING      IDEAL SHOPPING                                            
210052021DTV/BARL006/060000BARNADOS LOTTERY                   JOHN AYLING & ASSOCIBARNARDOS           BARNARDOS           0000001JOHN AYLING & ASSOCIJOHN AYLING & ASSOCI                                      
210052021BFF/MENT001/030000MENTRAU IAITH CYMRU CFT            MENTRAU IAITH CYMRU MENTRAU IAITH CYMRU MENTRAU IAITH CYMRU 0000005MENTRAU IAITH CYMRU MENTRAU IAITH CYMRU                                       
210052021BFE/GOPP001/030000ENTERTAINMENT BETFRED              SPECIALIST WORKS    BETFRED             BETFRED             0000002SPECIALIST WORKS    SPECIALIST WORKS                                          
210052021BRO/WBAC050/010000WEBUYANYCAR.COM 2                  MEDIACOM NORTH LIMITCC AUTOMOTIVE GROUP CC AUTOMOTIVE GROUP 0000017BROTHERS AND SI(CRE)MEDIACOM NORTH LIMIT                                      
210052021AED/SECU096/030000SEAT CUPRA                         PHD MEDIA LIMITED   SEAT UK             SEAT UK             0000154DLKW (CRE)          PHD MEDIA LIMITED                                         
210052021HIH/CALL001/010000HIHI                               REDWOOD ADVERTISING HIHI                HIHI                0000017REDWOOD ADVERTISING REDWOOD ADVERTISING                                       
210052021TTB/BANQ015/030004B&Q SPRING KITCHEN (IRE)           WAVEMAKER IRELAND   B&Q IRELAND         B&Q IRELAND         0000031WAVEMAKER IRELAND   WAVEMAKER IRELAND                                         
210052021VLL/RANA002/030000RANA PASTA (BAR)                   TOTAL MEDIA LIMITED GIOVANNI RANA       GIOVANNI RANA       0000133TOTAL MEDIA LIMITED FORTITUDE TRADING                                         
210052021MIF/PGOB571/030004P&G ORAL B POWER (IRE)             SPARK FOUNDRY IRE   PROCTER & GAMBLE IREPROCTER & GAMBLE IRE0000088SPARK FOUNDRY IRE   SPARK FOUNDRY IRE                                         
210052021OGP/BECD004/020000OMEGA BECONASE (NBA)               WAVEMAKER           OMEGA PHARMA        OMEGA PHARMA        0000048WAVEMAKER           ACTIVE INTERNATIONAL                                      
210052021JWT/SAGE004/010000SAGE                               MINDSHARE MEDIA UK LSAGE (UK) LTD       SAGE (UK) LTD       0000022MINDSHARE MEDIA UK LMINDSHARE MEDIA UK L                                      
210052021DTV/WPLR003/090000WORLD ANIMAL PROTECTION DRTV       JOHN AYLING & ASSOCIWAP                 WAP                 0000003JOHN AYLING & ASSOCIJOHN AYLING & ASSOCI                                      
210052021GTB/HBPD656/010004HASBRO PLAY DOH DRIZZY (IRE)       MEDIACOM DUBLIN     HASBRO UK           HASBRO UK           0000085MEDIACOM DUBLIN     MEDIACOM DUBLIN                                           
210052021AMV/MACM008/030000MACMILLAN CANCER SUPPORT WHATEVER IZENITHOPTIMEDIA LTD MACMILLAN CANCER RELMACMILLAN CANCER REL0000002ZENITHOPTIMEDIA LTD ZENITHOPTIMEDIA LTD                                       
210052021MCW/AMEX038/020000AMERICAN EXPRESS BRAND             UM                  AMERICAN EXPRESS EURAMERICAN EXPRESS EUR0000019UM                  UM                                                        
210052021HOG/PGOL547/010004P&G OLAY ANTI WRINKLE (IRE)        SPARK FOUNDRY IRE   PROCTER & GAMBLE IREPROCTER & GAMBLE IRE0000022SPARK FOUNDRY IRE   SPARK FOUNDRY IRE                                         
210052021ROY/RSGW004/060000RSPCA GIFTS IN WILL DRTV           JOHN AYLING & ASSOCIROYAL SOC PREVENTIONROYAL SOC PREVENTION0000001JOHN AYLING & ASSOCIJOHN AYLING & ASSOCI                                      
210052021TCS/ROSL008/030000ROSLAND CAPITAL BOOK OF GOLD       MEDIA CAMPAIGN LIMITROSLAND CAPITAL     ROSLAND CAPITAL     0000002MEDIA CAMPAIGN LIMITMEDIA CAMPAIGN LIMIT                                      
210052021RBR/SHDR001/030000SHPOCK APP DRTV                    GOODSTUFF MEDIA     SHPOCK              SHPOCK              0000023GOODSTUFF MEDIA     GOODSTUFF MEDIA                                           
210052021SCC/WOEB013/010000WOWCHER ALL TIMES                  MEDIA CAMPAIGN LIMITWOWCHER             WOWCHER             0000011MEDIA CAMPAIGN LIMITMEDIA CAMPAIGN LIMIT                                      
210052021RTN/FIVR002/010000FIVERR DRTV                        MEDIA AGENCY GROUP  FIVERR INTERNATIONALFIVERR INTERNATIONAL0000032MEDIA AGENCY GROUP  MEDIA AGENCY GROUP                                        
210052021AMV/SCGY399/020000SCA TENA LADY INCONTINENCE PADS    ZENITHOPTIMEDIA LTD SCA HYGIENE PRODUCTSSCA HYGIENE PRODUCTS0000082ABBOTT MEAD VIC(CRE)ZENITHOPTIMEDIA LTD                                       
210052021MTV/AAGB006/030005ADVENTURE ACADEMY (VIA)            VIACOM (SALES HSE)  VIACOM (SALES HSE)  VIACOM (SALES HSE)  0000003VIACOM (SALES HSE)  VIACOM (SALES HSE)                                        
210052021DSS/CONS002/030000CONSERVATORY INSULATIONS DRTV      AMS MEDIA NORTH(BUY)CONSERVATORY INSULATCONSERVATORY INSULAT0000012AMS MEDIA NORTH(BUY)AMS MEDIA GROUP LIMI                                      
210052021TVY/ETER022/030004ETORO (IRE)                        TV AGENCY LIMIT(IRE)ETORO (EUROPE) LTD  ETORO (EUROPE) LTD  0000202TV AGENCY LIMIT(IRE)TV AGENCY LIMIT(IRE)                                      
210052021WPP/GLDI087/010000GLASSES DIRECT                     MOSTLY MEDIA LIMITEDGLASSESDIRECT.CO.UK GLASSESDIRECT.CO.UK 0000018MOSTLY MEDIA LIMITEDMOSTLY MEDIA LIMITED                                      
210052021MXT/ZURU148/020000ZURU BUNCH O BALLOONS              GENERATION MEDIA LIMZURU                ZURU                0000077GENERATION MEDIA LIMGENERATION MEDIA LIM                                      
210052021IRI/BCBR010/030000CINCH                              MEDIACOM NORTH LIMITCINCH               CINCH               0000014MEDIACOM NORTH LIMITMEDIACOM NORTH LIMIT                                      
210052021EGW/PGSK027/030000PEUGEOT ELECTRIC                   MEDIACOM HOLDINGS LIPEUGEOT             PEUGEOT S.A.        0000137MEDIACOM HOLDINGS LIMEDIACOM HOLDINGS LI                                      
210052021TTB/GOOG001/030000GOOGLE CHROMEBOOK                  OMD GROUP LIMITED   GOOGLE UK           GOOGLE UK           0000242OMD GROUP LIMITED   OMD GROUP LIMITED                                         
210052021BRO/WBAC053/030000WE BUY ANY CAR DIRECT              WE BUY ANY CAR LIMITWE BUY ANY CAR LIMITWE BUY ANY CAR LIMIT0000008WE BUY ANY CAR LIMITWE BUY ANY CAR LIMIT                                      
210052021RVT/DMCM310/180000DORMEO MEMORY (TES)                ACCURATE MARKETING  DORMEO UK           DORMEO UK           0000003ACCURATE MARKETING  ACCURATE MARKETING                                        
210052021GRY/BKID013/020004BOI FINANCIAL WELLBEING (IRE)      CARAT IRELAND       BANK OF IRELAND     BANK OF IRELAND     0000087CARAT IRELAND       CARAT IRELAND                                             
210052021ROT/TESC503/030004TESCO VALUE (BAI)                  MINDSHARE MEDIA IRE TESCO IRELAND       TESCO PLC           0000155MINDSHARE MEDIA IRE MIROMA INTERNAT(IRE)                                      
210052021PAC/NVPN009/010000NORDVPN                            SPECIALIST WORKS    NORDVPN             NORDVPN             0000042SPECIALIST WORKS    SPECIALIST WORKS                                          
210052021BRO/HARR035/030000HARRYS RAZORS (MNE)                GOODSTUFF MEDIA     HARRYS GROOMING     HARRYS GROOMING     0000013GOODSTUFF MEDIA     MEDIANEUTRAL LIMITED                                      
210052021DES/LVCA330/030000LIVERPOOL VICTORIA MULTI PRODUCT   INITIATIVE MEDIA LONLIVERPOOL VICTORIA FLIVERPOOL VICTORIA F0000018INITIATIVE MEDIA LONINITIATIVE MEDIA LON                                      
210052021ABF/PCFC002/030000PURE CREMATION                     HAVAS MEDIA         PURE CREMATION      PURE CREMATION      0000010HAVAS MEDIA         HAVAS MEDIA                                               
210052021BRO/WBAC053/030000WEBUYANYCAR.COM 2                  MEDIACOM NORTH LIMITCC AUTOMOTIVE GROUP CC AUTOMOTIVE GROUP 0000029BROTHERS AND SI(CRE)MEDIACOM NORTH LIMIT                                      
210052021HST/RFTI02/0720004ROCK N FIT (TEL)                   SKY (TELESHOP)      SKY (TELESHOP)      SKY (TELESHOP)      0000001SKY (TELESHOP)      SKY (TELESHOP)                                            
210052021MLL/BLCL004/010000BAHLSEN CHOCO LEIBNIZ              MEDIACOM NORTH LIMITBAHLSEN             BAHLSEN             0000038CREATURE LONDON(CRE)MEDIACOM NORTH LIMIT                                      
210052021BKB/CLEA783/010000CLEARSCORE PEAK                    MEDIALAB GROUP      CLEAR SCORE TECHNOLOCLEAR SCORE TECHNOLO0000011MEDIALAB GROUP      MEDIALAB GROUP                                            
210052021SCC/SMGT032/060000NEILSON FINANCIAL SERVICE SMART FAMSTARCOM WORLDWIDE LINEILSON FINANCIAL   NEILSON FINANCIAL   0000001STARCOM WORLDWIDE LISTARCOM WORLDWIDE LI                                      
210052021AMV/SEBA188/030000SMART ENERGY                       PHD MEDIA LIMITED   SMART ENERGY GB     SMART ENERGY GB     0000091ABBOTT MEAD VIC(CRE)PHD MEDIA LIMITED                                         
210052021AMV/MACM016/060000MACMILLAN CANCER SUPPORT LEGACY    ZENITHOPTIMEDIA LTD MACMILLAN CANCER RELMACMILLAN CANCER REL0000004ZENITHOPTIMEDIA LTD ZENITHOPTIMEDIA LTD                                       
210052021WAG/SSDA002/030000SELECT SPECS GENERIC (TEB)         MARK BROWN MEDIA LIMSKY (TELESHOP)      SKY (TELESHOP)      0000005MARK BROWN MEDIA LIMMARK BROWN MEDIA LIM                                      
210052021WFA/WAYF049/020000WAYFAIR FURNITURE                  MCCUTCHEON NORVEIL CWAYFAIR STORES LTD  WAYFAIR STORES LTD  0000024THE GATE FILMS (CRE)MCCUTCHEON NORVEIL C                                      
210052021CIT/WSJF248/010000JUST FOR MEN                       ZENITHOPTIMEDIA LTD COMBE INTERNATIONAL COMBE INTERNATIONAL 0000028ZENITHOPTIMEDIA LTD ZENITHOPTIMEDIA LTD                                       
210052021JUF/FABL052/010000FABLETICS                          ALL RESPONSE MEDIA LTECHSTYLE           TECHSTYLE           0000049ALL RESPONSE MEDIA LALL RESPONSE MEDIA L                                      
210052021CHF/STUD910/010000EXPRESS GIFTS                      MEDIACOM NORTH LIMITEXPRESS GIFTS LTD   EXPRESS GIFTS LTD   0000009THE GATE FILMS (CRE)MEDIACOM NORTH LIMIT                                      
210052021CLD/NOOM027/030000NOOM ALLTIME (MNE)                 ALL RESPONSE NORTH  NOOM                NOOM                0000010KOALA LIMITED       MEDIANEUTRAL LIMITED                                      
210052021SMC/SDUK042/030000SMILE DIRECT CLUB                  BOUNTIFUL COW (BUY) SMILE DIRECT CLUB   SMILE DIRECT CLUB   0000016TAG WORLDWIDE (CRE) THE7STARS UK LIMITED                                      
210052021TTB/IMCT110/030000IMC TOYS CRY BABIES                GENERATION MEDIA LIMIMC TOYS UK LTD     IMC TOYS UK LTD     0000097GENERATION MEDIA LIMGENERATION MEDIA LIM                                      
210052021MCW/AMEX032/020000AMERICAN EXPRESS BRAND             UM                  AMERICAN EXPRESS EURAMERICAN EXPRESS EUR0000013UM                  UM                                                        
210052021NMN/NUBT007/030000NUMAN BT                           BOUNTIFUL COW (BUY) VIR HEALTH          VIR HEALTH          0000019BOUNTIFUL COW (BUY) THE7STARS UK LIMITED                                      
210052021APL/SMKS287/010004SPIN MASTER KINETIC SAND (IRE)     GENERATION MEDI(IRE)SPINMASTER IRELAND  SPINMASTER IRELAND  0000038GENERATION MEDI(IRE)GENERATION MEDI(IRE)                                      
210052021PCH/CRAL007/030000ENTS CORAL FOOTBALL                THE7STARS UK LIMITEDCORAL SPORT         CORAL SPORT         0000018ETV PRODUCTIONS(CRE)THE7STARS UK LIMITED                                      
210052021HOM/UNIC399/030000UNIBET CASINO                      HAVAS MEDIA         UNIBET INTERNATIONALUNIBET INTERNATIONAL0000085HAVAS MEDIA         HAVAS MEDIA                                               
210052021BVP/TGFT19/1800000TOTAL GYM FIT (TES)                BRAND DEVELOPERS    BRAND DEVELOPERS    BRAND DEVELOPERS    0000001BRAND DEVELOPERS    BRAND DEVELOPERS                                          
210052021THA/WCVT03/1800000THANE WONDERCORE SMART (TES)       THANE               THANE               THANE               0000002THANE               THANE                                                     
210052021DTV/WVSK003/090000WORLD VISION KEMA                  JOHN AYLING & ASSOCIWORLD VISION        WORLD VISION        0000006JOHN AYLING & ASSOCIJOHN AYLING & ASSOCI                                      
210052021TNI/JPST009/030000JANE PLAN DIET                     ALL RESPONSE MEDIA LJANE PLAN LIMITED   JANE PLAN LIMITED   0000014ALL RESPONSE MEDIA LALL RESPONSE MEDIA L                                      
210052021MCL/DOCP027/010000DELIVEROO BRAND HFSS               INITIATIVE MEDIA LONDELIVEROO           DELIVEROO           0000029INITIATIVE MEDIA LONINITIATIVE MEDIA LON                                      
210052021ACA/AIGB001/030004AIG YOUNG DRIVER INSURANCE (IRE)   MINDSHARE MEDIA IRE AIG                 AIG                 0000247MINDSHARE MEDIA IRE MINDSHARE MEDIA IRE                                       
210052021ABF/CGIQ003/030000CAR GURUS 1                        ALL RESPONSE NORTH  CARGURUS IRELAND    CARGURUS IRELAND    0000011ALL RESPONSE NORTH  ALL RESPONSE NORTH                                        
