00SKYPS01   08052021082047
01S4CU08052021
02060000Cyw                                                                   000000000Cyw                                               0000000000000FS  0805202131122099N
02080000Stwnsh Sadwrn                                                         000000000Stwnsh Sadwrn                                     0000000000000FS  0805202131122099N
02100000Ty Am Ddim                                                            000000000Ty Am Ddim                                        0000000000000FS  0805202131122099N
02110000Garejis: Dan y Bonet                                                  000000000Garejis: Dan y Bonet                              0000000000000FS  0805202131122099N
02113000Adre                                                                  000000000Adre                                              0000000000000FS  0805202131122099N
021200003 Lle                                                                 0000000003 Lle                                             0000000000000FS  0805202131122099N
02123000Bwyd Bach Shumana a Catrin                                            000000000Bwyd Bach Shumana a Catrin                        0000000000000FS  0805202131122099N
02130000Gwesty Aduniad                                                        000000000Gwesty Aduniad                                    0000000000000FS  0805202131122099N
02140000SEICLO: Giro d'Italia                                                 000000000SEICLO: Giro d'Italia                             0000000000000FS  0805202131122099N
02163000Cymry ar Gynfas                                                       000000000Cymry ar Gynfas                                   0000000000000FS  0805202131122099N
02170000Sgorio                                                                000000000Sgorio                                            0000000000000FS  0805202131122099N
02192500Newyddion a Chwaraeon                                                 000000000Newyddion a Chwaraeon                             0000000000000FS  0805202131122099N
02194500C'Mon Midffild                                                        000000000C'Mon Midffild                                    0000000000000FS  0805202131122099N
02203000Hwyl Y Noson Lawen                                                    000000000Hwyl Y Noson Lawen                                0000000000000FS  0805202131122099N
02210500SEICLO: Giro d'Italia                                                 000000000SEICLO: Giro d'Italia                             0000000000000FS  0805202131122099N
02214000Clwb Rygbi: Cwpan yr Enfys                                            000000000Clwb Rygbi: Cwpan yr Enfys                        0000000000000FS  0805202131122099N
02232500Standyp: Gwerthu Allan                                                000000000Standyp: Gwerthu Allan                            0000000000000FS  0805202131122099N
02240000Teleshopping                                                          000000000Teleshopping                                      0000000000000FS  0805202131122099N
02253000..programmes start at 06.00am                                         000000000..programmes start at 06.00am                     0000000000000FS  0805202131122099N
09    S4CU08052021000021
01S4CU09052021
02060000Cyw                                                                   000000000Cyw                                               0000000000000FS  0805202131122099N
02085000Penblwyddi Cyw                                                        000000000Penblwyddi Cyw                                    0000000000000FS  0805202131122099N
02090000FFIT Cymru                                                            000000000FFIT Cymru                                        0000000000000FS  0805202131122099N
02100000Iaith ar Daith                                                        000000000Iaith ar Daith                                    0000000000000FS  0805202131122099N
02110000Dechrau Canu Dechrau Canmol                                           000000000Dechrau Canu Dechrau Canmol                       0000000000000FS  0805202131122099N
02113000Ffilmiau Ddoe                                                         000000000Ffilmiau Ddoe                                     0000000000000FS  0805202131122099N
02120000Cerys Matthews a'r Goeden Faled                                       000000000Cerys Matthews a'r Goeden Faled                   0000000000000FS  0805202131122099N
02123000Pobol y Cwm Omnibws                                                   000000000Pobol y Cwm Omnibws                               0000000000000FS  0805202131122099N
02140000SEICLO: Giro d'Italia                                                 000000000SEICLO: Giro d'Italia                             0000000000000FS  0805202131122099N
02163000Chwaraeon y Dyn Bach                                                  000000000Chwaraeon y Dyn Bach                              0000000000000FS  0805202131122099N
02170000Ffermio                                                               000000000Ffermio                                           0000000000000FS  0805202131122099N
02173000Clwb Rygbi: Cwpan yr Enfys                                            000000000Clwb Rygbi: Cwpan yr Enfys                        0000000000000FS  0805202131122099N
02191500Newyddion a Chwaraeon                                                 000000000Newyddion a Chwaraeon                             0000000000000FS  0805202131122099N
02193000Dechrau Canu Dechrau Canmol                                           000000000Dechrau Canu Dechrau Canmol                       0000000000000FS  0805202131122099N
02200000Cynefin                                                               000000000Cynefin                                           0000000000000FS  0805202131122099N
02210000Clwb Rygbi: Super Rugby Aotearoa                                      000000000Clwb Rygbi: Super Rugby Aotearoa                  0000000000000FS  0805202131122099N
02220000SEICLO: Giro d'Italia                                                 000000000SEICLO: Giro d'Italia                             0000000000000FS  0805202131122099N
022230003 Lle                                                                 0000000003 Lle                                             0000000000000FS  0805202131122099N
02230000Cymru, Dad a Fi                                                       000000000Cymru, Dad a Fi                                   0000000000000FS  0805202131122099N
02233500..programmes start at 06.00am                                         000000000..programmes start at 06.00am                     0000000000000FS  0805202131122099N
02240000Teleshopping                                                          000000000Teleshopping                                      0000000000000FS  0805202131122099N
02253000..programmes start at 06.00am                                         000000000..programmes start at 06.00am                     0000000000000FS  0805202131122099N
09    S4CU09052021000024
01S4CU10052021
02060000Dolenni Cyw                                                           000000000Dolenni Cyw                                       0000000000000FS  0805202131122099N
02080000Dolenni Cyw                                                           000000000Dolenni Cyw                                       0000000000000FS  0805202131122099N
02100000Dolenni Cyw                                                           000000000Dolenni Cyw                                       0000000000000FS  0805202131122099N
02120000Newyddion S4C                                                         000000000Newyddion S4C                                     0000000000000FS  0805202131122099N
02120500Clwb Rygbi: Super Rugby Aotearoa                                      000000000Clwb Rygbi: Super Rugby Aotearoa                  0000000000000FS  0805202131122099N
02130000Prynhawn Da                                                           000000000Prynhawn Da                                       0000000000000FS  0805202131122099N
02135500Newyddion S4C                                                         000000000Newyddion S4C                                     0000000000000FS  0805202131122099N
02140000SEICLO: Giro d'Italia                                                 000000000SEICLO: Giro d'Italia                             0000000000000FS  0805202131122099N
02163000Peppa                                                                 000000000Peppa                                             0000000000000FS  0805202131122099N
02163500Sion y Chef                                                           000000000Sion y Chef                                       0000000000000FS  0805202131122099N
02164500Cacamwnci                                                             000000000Cacamwnci                                         0000000000000FS  0805202131122099N
02170000Stwnsh 12 - Dolenni Stwnsh                                            000000000Stwnsh 12 - Dolenni Stwnsh                        0000000000000FS  0805202131122099N
02180000Dau Gi Bach                                                           000000000Dau Gi Bach                                       0000000000000FS  0805202131122099N
02183000Welsh Whisperer: Ni'n Teithio Nawr                                    000000000Welsh Whisperer: Ni'n Teithio Nawr                0000000000000FS  0805202131122099N
02190000Heno                                                                  000000000Heno                                              0000000000000FS  0805202131122099N
02193000Newyddion S4C                                                         000000000Newyddion S4C                                     0000000000000FS  0805202131122099N
02200000Pobol y Cwm                                                           000000000Pobol y Cwm                                       0000000000000FS  0805202131122099N
02202500Garddio a Mwy                                                         000000000Garddio a Mwy                                     0000000000000FS  0805202131122099N
02205500Newyddion S4C                                                         000000000Newyddion S4C                                     0000000000000FS  0805202131122099N
02210000Ffermio                                                               000000000Ffermio                                           0000000000000FS  0805202131122099N
02213000SEICLO: Giro d'Italia                                                 000000000SEICLO: Giro d'Italia                             0000000000000FS  0805202131122099N
02220000Fferm Ffactor Selebs                                                  000000000Fferm Ffactor Selebs                              0000000000000FS  0805202131122099N
02230000Codi Pac                                                              000000000Codi Pac                                          0000000000000FS  0805202131122099N
02233500..programmes start at 06.00am                                         000000000..programmes start at 06.00am                     0000000000000FS  0805202131122099N
02240000Teleshopping                                                          000000000Teleshopping                                      0000000000000FS  0805202131122099N
02253000..programmes start at 06.00am                                         000000000..programmes start at 06.00am                     0000000000000FS  0805202131122099N
09    S4CU10052021000028
01S4CU11052021
02060000Dolenni Cyw                                                           000000000Dolenni Cyw                                       0000000000000FS  0805202131122099N
02080000Dolenni Cyw                                                           000000000Dolenni Cyw                                       0000000000000FS  0805202131122099N
02100000Dolenni Cyw                                                           000000000Dolenni Cyw                                       0000000000000FS  0805202131122099N
02120000Newyddion S4C                                                         000000000Newyddion S4C                                     0000000000000FS  0805202131122099N
02120500Codi Pac                                                              000000000Codi Pac                                          0000000000000FS  0805202131122099N
02123000Ffermio                                                               000000000Ffermio                                           0000000000000FS  0805202131122099N
02130000Prynhawn Da                                                           000000000Prynhawn Da                                       0000000000000FS  0805202131122099N
02135500Newyddion S4C                                                         000000000Newyddion S4C                                     0000000000000FS  0805202131122099N
02140000SEICLO: Giro d'Italia                                                 000000000SEICLO: Giro d'Italia                             0000000000000FS  0805202131122099N
02163000Blociau Rhif                                                          000000000Blociau Rhif                                      0000000000000FS  0805202131122099N
02163500Timpo                                                                 000000000Timpo                                             0000000000000FS  0805202131122099N
02164500Patrol Pawennau                                                       000000000Patrol Pawennau                                   0000000000000FS  0805202131122099N
02170000Stwnsh 12 - Dolenni Stwnsh                                            000000000Stwnsh 12 - Dolenni Stwnsh                        0000000000000FS  0805202131122099N
02180000Caru Siopa                                                            000000000Caru Siopa                                        0000000000000FS  0805202131122099N
02183000Rownd a Rownd                                                         000000000Rownd a Rownd                                     0000000000000FS  0805202131122099N
02190000Heno                                                                  000000000Heno                                              0000000000000FS  0805202131122099N
02193000Newyddion S4C                                                         000000000Newyddion S4C                                     0000000000000FS  0805202131122099N
02200000Pobol y Cwm                                                           000000000Pobol y Cwm                                       0000000000000FS  0805202131122099N
02202500Cymru, Dad a Fi                                                       000000000Cymru, Dad a Fi                                   0000000000000FS  0805202131122099N
02205500Newyddion S4C                                                         000000000Newyddion S4C                                     0000000000000FS  0805202131122099N
02210000FFIT Cymru                                                            000000000FFIT Cymru                                        0000000000000FS  0805202131122099N
02220000SEICLO: Giro d'Italia                                                 000000000SEICLO: Giro d'Italia                             0000000000000FS  0805202131122099N
02223000Egwyddor Pleser                                                       000000000Egwyddor Pleser                                   0000000000000FS  0805202131122099N
02234000..programmes start at 06.00am                                         000000000..programmes start at 06.00am                     0000000000000FS  0805202131122099N
02240000Teleshopping                                                          000000000Teleshopping                                      0000000000000FS  0805202131122099N
02253000..programmes start at 06.00am                                         000000000..programmes start at 06.00am                     0000000000000FS  0805202131122099N
09    S4CU11052021000028
01S4CU12052021
02060000Dolenni Cyw                                                           000000000Dolenni Cyw                                       0000000000000FS  0805202131122099N
02080000Dolenni Cyw                                                           000000000Dolenni Cyw                                       0000000000000FS  0805202131122099N
02100000Dolenni Cyw                                                           000000000Dolenni Cyw                                       0000000000000FS  0805202131122099N
02110000Dysgu gyda Cyw                                                        000000000Dysgu gyda Cyw                                    0000000000000FS  0805202131122099N
02120000Newyddion S4C                                                         000000000Newyddion S4C                                     0000000000000FS  0805202131122099N
02120500Bwyd Bach Shumana a Catrin                                            000000000Bwyd Bach Shumana a Catrin                        0000000000000FS  0805202131122099N
02123000Garddio a Mwy                                                         000000000Garddio a Mwy                                     0000000000000FS  0805202131122099N
02130000Prynhawn Da                                                           000000000Prynhawn Da                                       0000000000000FS  0805202131122099N
02135500Newyddion S4C                                                         000000000Newyddion S4C                                     0000000000000FS  0805202131122099N
02140000SEICLO: Giro d'Italia                                                 000000000SEICLO: Giro d'Italia                             0000000000000FS  0805202131122099N
02163000Bing                                                                  000000000Bing                                              0000000000000FS  0805202131122099N
02163500Sam Tân                                                               000000000Sam Tân                                           0000000000000FS  0805202131122099N
02164500Sigldigwt                                                             000000000Sigldigwt                                         0000000000000FS  0805202131122099N
02170000Stwnsh 12 - Dolenni Stwnsh                                            000000000Stwnsh 12 - Dolenni Stwnsh                        0000000000000FS  0805202131122099N
02180000Cymoedd Roy Noble                                                     000000000Cymoedd Roy Noble                                 0000000000000FS  0805202131122099N
02183000Cerys Matthews a'r Goeden Faled                                       000000000Cerys Matthews a'r Goeden Faled                   0000000000000FS  0805202131122099N
02190000Heno                                                                  000000000Heno                                              0000000000000FS  0805202131122099N
02193000Newyddion S4C                                                         000000000Newyddion S4C                                     0000000000000FS  0805202131122099N
02200000Pobol y Cwm                                                           000000000Pobol y Cwm                                       0000000000000FS  0805202131122099N
02202500Y Byd yn ei Le                                                        000000000Y Byd yn ei Le                                    0000000000000FS  0805202131122099N
02205500Newyddion S4C                                                         000000000Newyddion S4C                                     0000000000000FS  0805202131122099N
02210000Cymry ar Gynfas                                                       000000000Cymry ar Gynfas                                   0000000000000FS  0805202131122099N
02213000SEICLO: Giro d'Italia                                                 000000000SEICLO: Giro d'Italia                             0000000000000FS  0805202131122099N
02220000Mwy o Sgorio                                                          000000000Mwy o Sgorio                                      0000000000000FS  0805202131122099N
02223000FFIT Cymru                                                            000000000FFIT Cymru                                        0000000000000FS  0805202131122099N
02233500..programmes start at 06.00am                                         000000000..programmes start at 06.00am                     0000000000000FS  0805202131122099N
02240000Teleshopping                                                          000000000Teleshopping                                      0000000000000FS  0805202131122099N
02253000..programmes start at 06.00am                                         000000000..programmes start at 06.00am                     0000000000000FS  0805202131122099N
09    S4CU12052021000030
01S4CU13052021
02060000Dolenni Cyw                                                           000000000Dolenni Cyw                                       0000000000000FS  0805202131122099N
02080000Dolenni Cyw                                                           000000000Dolenni Cyw                                       0000000000000FS  0805202131122099N
02100000Dolenni Cyw                                                           000000000Dolenni Cyw                                       0000000000000FS  0805202131122099N
02120000Newyddion S4C                                                         000000000Newyddion S4C                                     0000000000000FS  0805202131122099N
02120500Adre                                                                  000000000Adre                                              0000000000000FS  0805202131122099N
02123000Heno                                                                  000000000Heno                                              0000000000000FS  0805202131122099N
02130000Prynhawn Da                                                           000000000Prynhawn Da                                       0000000000000FS  0805202131122099N
02135500Newyddion S4C                                                         000000000Newyddion S4C                                     0000000000000FS  0805202131122099N
02140000SEICLO: Giro d'Italia                                                 000000000SEICLO: Giro d'Italia                             0000000000000FS  0805202131122099N
02163000Blociau Rhif                                                          000000000Blociau Rhif                                      0000000000000FS  0805202131122099N
02163500Anifeiliaid Bach y Byd                                                000000000Anifeiliaid Bach y Byd                            0000000000000FS  0805202131122099N
02164500Patrol Pawennau                                                       000000000Patrol Pawennau                                   0000000000000FS  0805202131122099N
02170000Stwnsh 12 - Dolenni Stwnsh                                            000000000Stwnsh 12 - Dolenni Stwnsh                        0000000000000FS  0805202131122099N
02180000Cymry ar Gynfas                                                       000000000Cymry ar Gynfas                                   0000000000000FS  0805202131122099N
02183000Cymru, Dad a Fi                                                       000000000Cymru, Dad a Fi                                   0000000000000FS  0805202131122099N
02190000Heno                                                                  000000000Heno                                              0000000000000FS  0805202131122099N
02193000Newyddion S4C                                                         000000000Newyddion S4C                                     0000000000000FS  0805202131122099N
02200000Pobol y Cwm                                                           000000000Pobol y Cwm                                       0000000000000FS  0805202131122099N
02202500Rownd a Rownd                                                         000000000Rownd a Rownd                                     0000000000000FS  0805202131122099N
02205500Newyddion S4C                                                         000000000Newyddion S4C                                     0000000000000FS  0805202131122099N
02210000Terfysg yn y Bae                                                      000000000Terfysg yn y Bae                                  0000000000000FS  0805202131122099N
02220000SEICLO: Giro d'Italia                                                 000000000SEICLO: Giro d'Italia                             0000000000000FS  0805202131122099N
02223000Curadur                                                               000000000Curadur                                           0000000000000FS  0805202131122099N
02230000Gwesty Parc y Stradey                                                 000000000Gwesty Parc y Stradey                             0000000000000FS  0805202131122099N
02233500..programmes start at 06.00am                                         000000000..programmes start at 06.00am                     0000000000000FS  0805202131122099N
02240000Teleshopping                                                          000000000Teleshopping                                      0000000000000FS  0805202131122099N
02253000..programmes start at 06.00am                                         000000000..programmes start at 06.00am                     0000000000000FS  0805202131122099N
09    S4CU13052021000029
01S4CU14052021
02060000Dolenni Cyw                                                           000000000Dolenni Cyw                                       0000000000000FS  0805202131122099N
02080000Dolenni Cyw                                                           000000000Dolenni Cyw                                       0000000000000FS  0805202131122099N
02100000Dolenni Cyw                                                           000000000Dolenni Cyw                                       0000000000000FS  0805202131122099N
02120000Newyddion S4C                                                         000000000Newyddion S4C                                     0000000000000FS  0805202131122099N
02120500FFIT Cymru                                                            000000000FFIT Cymru                                        0000000000000FS  0805202131122099N
02130000Prynhawn Da                                                           000000000Prynhawn Da                                       0000000000000FS  0805202131122099N
02135500Newyddion S4C                                                         000000000Newyddion S4C                                     0000000000000FS  0805202131122099N
02140000SEICLO: Giro d'Italia                                                 000000000SEICLO: Giro d'Italia                             0000000000000FS  0805202131122099N
02163000Peppa                                                                 000000000Peppa                                             0000000000000FS  0805202131122099N
02163500Twt                                                                   000000000Twt                                               0000000000000FS  0805202131122099N
02164500Ahoi!                                                                 000000000Ahoi!                                             0000000000000FS  0805202131122099N
02170000Stwnsh 12 - Dolenni Stwnsh                                            000000000Stwnsh 12 - Dolenni Stwnsh                        0000000000000FS  0805202131122099N
02180000Trefi Gwyllt Iolo                                                     000000000Trefi Gwyllt Iolo                                 0000000000000FS  0805202131122099N
02183000Garddio a Mwy                                                         000000000Garddio a Mwy                                     0000000000000FS  0805202131122099N
02190000Heno                                                                  000000000Heno                                              0000000000000FS  0805202131122099N
02193000Newyddion S4C                                                         000000000Newyddion S4C                                     0000000000000FS  0805202131122099N
02200000Codi Hwyl America                                                     000000000Codi Hwyl America                                 0000000000000FS  0805202131122099N
02202500Welsh Whisperer: Ni'n Teithio Nawr                                    000000000Welsh Whisperer: Ni'n Teithio Nawr                0000000000000FS  0805202131122099N
02205500Newyddion S4C                                                         000000000Newyddion S4C                                     0000000000000FS  0805202131122099N
02210000Y Wal Goch                                                            000000000Y Wal Goch                                        0000000000000FS  0805202131122099N
02220000SEICLO: Giro d'Italia                                                 000000000SEICLO: Giro d'Italia                             0000000000000FS  0805202131122099N
02223000Noson Lawen                                                           000000000Noson Lawen                                       0000000000000FS  0805202131122099N
02233500..programmes start at 06.00am                                         000000000..programmes start at 06.00am                     0000000000000FS  0805202131122099N
02240000Teleshopping                                                          000000000Teleshopping                                      0000000000000FS  0805202131122099N
02253000..programmes start at 06.00am                                         000000000..programmes start at 06.00am                     0000000000000FS  0805202131122099N
09    S4CU14052021000027
99000189
