MADE20200723091700120025792030      PPL/PPLU015/030     0100000000PPL/PPLU015/030Peoples Postcode Lottery 2020071620200723                                        
MADE20200723091700120025793030      HKP/OPEN007/030     0200000000HKP/OPEN007/030Open University Branding 2020070120200731                                        
MADE20200723091700120025794030      CHI/BGBR692/030     0300000000CHI/BGBR692/030British Gas Home Installa2020070120200731                                        
MADE20200723091700120025795020      HHP/SLWP203/020     0400000000HHP/SLWP203/020Sunlife GOF              2020070620200724                                        
MADE20200723091700120025796010      MUD/ITGA003/010     0500000000MUD/ITGA003/010Itch SR                  2020070120200731                                        
MADE20200723091700120025797010      FTB/FMPA003/010     0600000000FTB/FMPA003/010FindMyPast SR            2020070620200731                                        
MADE20200723091700120025798030      REP/CPNS240/030     0700000000REP/CPNS240/030Co-op Over 50s DRTV      2020070120200731                                        
MADE20200723091700120025799020      HOG/GXSE965/020     0800000000HOG/GXSE965/020Sensodyne Brand          2020070620200726                                        
MADE20200723091700120025800090      DTV/SSYS003/090     0900000000DTV/SSYS003/090Sight Savers DRTV        2020070120200731                                        
MADE20200723093800220025801020      RVE/TBCO045/020     0100000000RVE/TBCO045/020Tombola DRTV             2020070120200731                                        
MADE20200723093800220025802020      MIF/SCPL280/020     0200000000MIF/SCPL280/020SCA Plenty Kitchen Towel 2020070620200726                                        
MADE20200723093800220025803020      HOG/GXCO978/020     0300000000HOG/GXCO978/020Corsodyl                 2020070620200726                                        
MADE20200723093800220025804040      AMV/BZBB298/040     0400000000AMV/BZBB298/040BT Broadband DRTV        2020071720200730                                        
MADE20200723093800220025805030      WLI/WWOM012/030     0500000000WLI/WWOM012/030Weight Watchers DRTV     2020071920200731                                        
MADE20200723093800220025806030      PGE/BEST006/030     0600000000PGE/BEST006/030Best Fiends Direct SR    2020070120200731                                        
MADE20200723093800220025807010      WPP/GLDI089/010     0700000000WPP/GLDI089/010Glasses Direct Shared Rew2020070120200731                                        
MADE20200723093800220025808060      SCC/BSVU135/060     0800000000SCC/BSVU135/060Neilson Financial Service2020070120200731                                        
MADE20200723093800220025809020      HOG/GXVO994/020     0900000000HOG/GXVO994/020Novartis Voltarol Medifac2020070620200726                                        
MADE20200723093800220025810020      AMV/ASJR281/020     1000000000AMV/ASJR281/020Asda Brand 2 HFSS (APX)  2020070620200731                                        
MADE20200723095503720025811010      HOG/GXPI951/010     0100000000HOG/GXPI951/010Pirinase Hayfever Relief 2020070620200726                                        
MADE20200723095503720025812020      HKX/VAVP003/020     0200000000HKX/VAVP003/020Vanish Pink Platinum     2020071320200726                                        
MADE20200723095503720025813030      HOG/HZSA471/030     0300000000HOG/HZSA471/030Heinz Summer Sauces      2020072320200731                                        
MADE20200723095503720025814020      HHP/SLWP203/020     0400000000HHP/SLWP203/020Sunlife GOF              2020070620200724                                        
MADE20200723095503720025815090      DTV/SSYS003/090     0500000000DTV/SSYS003/090Sight Savers DRTV        2020070120200731                                        
MADE20200723095503720025816010      HOG/BOOP368/010     0600000000HOG/BOOP368/010Boots Opticians          2020071020200730                                        
MADE20200723101900320025817020      HOG/GXSE965/020     0100000000HOG/GXSE965/020Sensodyne Brand          2020070620200726                                        
MADE20200723101900320025818030      MCM/CLEA800/030     0200000000MCM/CLEA800/030Clearscore Protect SR    2020070120200731                                        
MADE20200723101900320025819030      CHF/STUD787/030     0300000000CHF/STUD787/030Express Gifts            2020070120200731                                        
MADE20200723101900320025820030      IRI/HABR069/030     0400000000IRI/HABR069/030Haven Holidays DRTV      2020070820200731                                        
MADE20200723101900320025821030      FTB/FMPA001/030     0500000000FTB/FMPA001/030FindMyPast SR            2020070620200731                                        
MADE20200723101900320025822030      SKY/AWBS001/030     0600000000SKY/AWBS001/030Sky Now TV Entertainment 2020070120200731                                        
MADE20200723101900320025823020      HHP/SLWP203/020     0700000000HHP/SLWP203/020Sunlife GOF              2020070620200724                                        
MADE20200723101900320025824030      CTV/WLHH001/030     0800000000CTV/WLHH001/030Warner Leisure Hotels DRT2020072020200731                                        
MADE20200723101900320025825020      HOG/GXVO994/020     0900000000HOG/GXVO994/020Novartis Voltarol Medifac2020070620200726                                        
MADE20200723101900320025826030      GRY/PGPP638/030     1000000000GRY/PGPP638/030Pantene                  2020070120200731                                        
MADE20200723104503820025827030      SHT/DPMA064/030     0100000000SHT/DPMA064/030Disney Plus Take Disney W2020070120200731                                        
MADE20200723104503820025828030      AED/WABR245/030     0200000000AED/WABR245/030Waitrose Taste Cherry    2020072220200731                                        
MADE20200723104503820025829030      PCH/NISW168/030     0300000000PCH/NISW168/030Nintendo Animal Crossing 2020072020200731                                        
MADE20200723104503820025830040      IRI/SSBR023/040     0400000000IRI/SSBR023/040Staysure DRTV            2020072020200731                                        
MADE20200723104503820025831030      PGE/BEST002/030     0500000000PGE/BEST002/030Best Fiends Direct SR    2020070120200731                                        
MADE20200723104503820025832020      MCE/CPGT001/020     0600000000MCE/CPGT001/020Nestle Cereal Partners Re2020070620200726                                        
MADE20200723104503820025833060      SCC/BSVU135/060     0700000000SCC/BSVU135/060Neilson Financial Service2020070120200731                                        
MADE20200723104503820025834030      MIF/NEBU270/030     0800000000MIF/NEBU270/030Buxton Water             2020072020200731                                        
MADE20200723105603920025835060      SCC/RLPV602/060     0100000000SCC/RLPV602/060Royal London Group Over 52020070620200731                                        
MADE20200723105603920025836030      HOG/HZSA471/030     0200000000HOG/HZSA471/030Heinz Summer Sauces      2020072320200731                                        
MADE20200723105603920025837030      SKY/NWCI002/030     0300000000SKY/NWCI002/030Sky Now TV Movies DRTV   2020070120200731                                        
MADE20200723105603920025838030      GCH/KNBF005/030     0400000000GCH/KNBF005/030Gtech Air Ram            2020070620200726                                        
MADE20200723105603920025839030      WLI/WWOM012/030     0500000000WLI/WWOM012/030Weight Watchers DRTV     2020071920200731                                        
MADE20200723111600420025840020      VCC/TOSI369/020     0100000000VCC/TOSI369/020O2 Simo DRTV             2020070120200731                                        
MADE20200723111600420025841030      CKC/SKHD158/030     0200000000CKC/SKHD158/030Sky Broadband DRTV       2020070120200731                                        
MADE20200723111600420025842030      IRI/HABR070/030     0300000000IRI/HABR070/030Haven Holidays DRTV      2020070820200731                                        
MADE20200723111600420025843020      HHP/SLWP203/020     0400000000HHP/SLWP203/020Sunlife GOF              2020070620200724                                        
MADE20200723111600420025844010      WPP/GLDI087/010     0500000000WPP/GLDI087/010Glasses Direct Shared Rew2020070120200731                                        
MADE20200723111600420025845030      JML/JNRC026/030     0600000000JML/JNRC026/030JML Finishing Touch Brand2020070120200731                                        
MADE20200723111600420025846090      DTV/WVSK002/090     0700000000DTV/WVSK002/090World Vision Kema        2020070120200731                                        
MADE20200723111600420025847010      FTB/FMPA005/010     0800000000FTB/FMPA005/010FindMyPast SR            2020070620200731                                        
MADE20200723113500520025848010      RVE/TBCO042/010     0100000000RVE/TBCO042/010Tombola DRTV             2020070120200731                                        
MADE20200723113500520025849020      CLD/MOHE026/020     0200000000CLD/MOHE026/020Moonpig Cards DRTV       2020070320200730                                        
MADE20200723113500520025850030      CTV/WLHH001/030     0300000000CTV/WLHH001/030Warner Leisure Hotels DRT2020072020200731                                        
MADE20200723113500520025851030      REP/CPNS240/030     0400000000REP/CPNS240/030Co-op Over 50s DRTV      2020070120200731                                        
MADE20200723113500520025852030      OLI/LGFN740/030     0500000000OLI/LGFN740/030Legal & General Term Insu2020070120200731                                        
MADE20200723113500520025853010      MSX/GLAS003/010     0600000000MSX/GLAS003/010Mister Spex              2020070120200731                                        
MADE20200723113500520025854030      SKY/SOLP003/030     0700000000SKY/SOLP003/030Step One Clothing        2020070120200731                                        
MADE20200723113500520025855040      IRI/SSBR023/040     0800000000IRI/SSBR023/040Staysure DRTV            2020072020200731                                        
MADE20200723113500520025856030      SKY/AWBS001/030     0900000000SKY/AWBS001/030Sky Now TV Entertainment 2020070120200731                                        
MADE20200723113500520025857030      INF/CRIS002/030     1000000000INF/CRIS002/030Crisis Homeless Charity  2020070320200730                                        
MADE20200723113500520025858010      MUD/ITPH003/010     1100000000MUD/ITPH003/010Itch SR                  2020070120200731                                        
MADE20200723115504020025859090      DTV/WVSK002/090     0100000000DTV/WVSK002/090World Vision Kema        2020070120200731                                        
MADE20200723115504020025860030      IRI/HABR069/030     0200000000IRI/HABR069/030Haven Holidays DRTV      2020070820200731                                        
MADE20200723115504020025861020      HHP/SLWP203/020     0300000000HHP/SLWP203/020Sunlife GOF              2020070620200724                                        
MADE20200723115504020025862040      IRI/SSBR023/040     0400000000IRI/SSBR023/040Staysure DRTV            2020072020200731                                        
MADE20200723122000620025863030      DTV/WFRT001/030     0100000000DTV/WFRT001/030WWF Adoptions            2020070120200731                                        
MADE20200723122000620025864030      HOG/HZSA471/030     0200000000HOG/HZSA471/030Heinz Summer Sauces      2020072320200731                                        
MADE20200723122000620025865060      SCC/RLPT702/060     0300000000SCC/RLPT702/060Royal London Group Over 52020070620200731                                        
MADE20200723122000620025866020      VCC/TOHS366/020     0400000000VCC/TOHS366/020O2 Handsets              2020070120200731                                        
MADE20200723122000620025867030      MCM/KEYR797/030     0500000000MCM/KEYR797/030Key Retirement Solutions 2020070120200731                                        
MADE20200723122000620025868020      HKX/VACW012/020     0600000000HKX/VACW012/020Vanish Whites Washing Pow2020070120200731                                        
MADE20200723122000620025869030      CKC/SKHD158/030     0700000000CKC/SKHD158/030Sky Broadband DRTV       2020070120200731                                        
MADE20200723122000620025870030      BCL/AVER002/030     0800000000BCL/AVER002/030Aviva Equity Release     2020070120200731                                        
MADE20200723122000620025871020      RVE/TBCO045/020     0900000000RVE/TBCO045/020Tombola DRTV             2020070120200731                                        
MADE20200723124504120025872020      HHP/SLWP203/020     0100000000HHP/SLWP203/020Sunlife GOF              2020070620200724                                        
MADE20200723124504120025873030      SAA/CROL041/030     0200000000SAA/CROL041/030Coty Clairol             2020072020200731                                        
MADE20200723124504120025874040      PUC/MOSF001/040     0300000000PUC/MOSF001/040Pure Cremation           2020070120200731                                        
MADE20200723124504120025875030      GCH/KNBF005/030     0400000000GCH/KNBF005/030Gtech Air Ram            2020070620200726                                        
MADE20200723124504120025876020      VCC/TOSI369/020     0500000000VCC/TOSI369/020O2 Simo DRTV             2020070120200731                                        
MADE20200723124504120025877020      BUR/TALW558/020     0600000000BUR/TALW558/020Always Discreet Shero    2020071520200731                                        
MADE20200723124504120025878030      SKY/NWCI002/030     0700000000SKY/NWCI002/030Sky Now TV Movies DRTV   2020070120200731                                        
MADE20200723124504120025879040      IRI/SSBR023/040     0800000000IRI/SSBR023/040Staysure DRTV            2020072020200731                                        
MADE20200723124504120025880030      OPL/WFFD008/030     0900000000OPL/WFFD008/030Wiltshire Farm Foods DRTV2020070120200731                                        
MADE20200723124504120025881010      LYG/CPBR065/010     1000000000LYG/CPBR065/010Co-op SuperSaver (MNS)   2020071520200728                                        
MADE20200723125604220025882010      BDU/PBEE012/010     0100000000BDU/PBEE012/010Pension Bee              2020070120200731                                        
MADE20200723125604220025883030      AED/WABR245/030     0200000000AED/WABR245/030Waitrose Taste Cherry    2020072220200731                                        
MADE20200723125604220025884030      PPL/PPLU018/030     0300000000PPL/PPLU018/030Peoples Postcode Lottery 2020071620200723                                        
MADE20200723125604220025885090      DTV/WVSK002/090     0400000000DTV/WVSK002/090World Vision Kema        2020070120200731                                        
MADE20200723125604220025886020      HHP/SLWP203/020     0500000000HHP/SLWP203/020Sunlife GOF              2020070620200724                                        
MADE20200723131400720025887030      MLL/COAT001/030     0100000000MLL/COAT001/030CCS EU Transition        2020072020200731                                        
MADE20200723131400720025888020      TTB/SUNT351/020     0200000000TTB/SUNT351/020The Sun Superdays        2020072320200725                                        
MADE20200723131400720025889060      SCC/RLPV602/060     0300000000SCC/RLPV602/060Royal London Group Over 52020070620200731                                        
MADE20200723131400720025890040      PUC/MOSF001/040     0400000000PUC/MOSF001/040Pure Cremation           2020070120200731                                        
MADE20200723131400720025891010      RVE/TBCO042/010     0500000000RVE/TBCO042/010Tombola DRTV             2020070120200731                                        
MADE20200723131400720025892010      WPP/GLDI089/010     0600000000WPP/GLDI089/010Glasses Direct Shared Rew2020070120200731                                        
MADE20200723131400720025893020      VCC/TOHS366/020     0700000000VCC/TOHS366/020O2 Handsets              2020070120200731                                        
MADE20200723131400720025894030      CTV/WLHH001/030     0800000000CTV/WLHH001/030Warner Leisure Hotels DRT2020072020200731                                        
MADE20200723131400720025895030      MCM/KEYR796/030     0900000000MCM/KEYR796/030Key Retirement Solutions 2020070120200731                                        
MADE20200723131400720025896020      AMV/ASJR281/020     1000000000AMV/ASJR281/020Asda Brand 2 HFSS (APX)  2020070620200731                                        
MADE20200723133400820025897010      LYG/CPBR065/010     0100000000LYG/CPBR065/010Co-op SuperSaver (MNS)   2020071520200728                                        
MADE20200723133400820025898020      HHP/SLWP203/020     0200000000HHP/SLWP203/020Sunlife GOF              2020070620200724                                        
MADE20200723133400820025899030      GCH/KNBF005/030     0300000000GCH/KNBF005/030Gtech Air Ram            2020070620200726                                        
MADE20200723133400820025900030      SKY/AWBS001/030     0400000000SKY/AWBS001/030Sky Now TV Entertainment 2020070120200731                                        
MADE20200723133400820025901030      DTV/DECV006/030     0500000000DTV/DECV006/030Disasters Emergency Commi2020071520200728                                        
MADE20200723133400820025902010      TTB/GALA027/010     0600000000TTB/GALA027/010Galabingo DRTV           2020070120200731                                        
MADE20200723133400820025903010      WLI/WWOM014/010     0700000000WLI/WWOM014/010Weight Watchers DRTV     2020071920200731                                        
MADE20200723133400820025904030      JML/CHMX022/030     0800000000JML/CHMX022/030JML Chill Air Max (BAR)  2020070620200731                                        
MADE20200723133400820025905030      IRI/HABR070/030     0900000000IRI/HABR070/030Haven Holidays DRTV      2020070820200731                                        
MADE20200723133400820025906040      PUC/MOSF001/040     1000000000PUC/MOSF001/040Pure Cremation           2020070120200731                                        
MADE20200723133400820025907030      MCM/CLEA800/030     1100000000MCM/CLEA800/030Clearscore Protect SR    2020070120200731                                        
MADE20200723135604320025908010      BBU/PBEE008/010     0100000000BBU/PBEE008/010Pension Bee              2020070120200731                                        
MADE20200723135604320025909060      ATO/CRDG040/060     0200000000ATO/CRDG040/060Cancer Research Legacy   2020071320200731                                        
MADE20200723135604320025910040      IRI/SSBR023/040     0300000000IRI/SSBR023/040Staysure DRTV            2020072020200731                                        
MADE20200723135604320025911010      MUD/ITGA003/010     0400000000MUD/ITGA003/010Itch SR                  2020070120200731                                        
MADE20200723135604320025912040      AMV/BZBB318/040     0500000000AMV/BZBB318/040BT Broadband Sports DRTV 2020071720200730                                        
MADE20200723135604320025913020      HHP/SLWP203/020     0600000000HHP/SLWP203/020Sunlife GOF              2020070620200724                                        
MADE20200723141900920025914020      BBH/TCPD226/020     0100000000BBH/TCPD226/020Tesco APM (BAR)          2020072320200731                                        
MADE20200723141900920025915030      KAR/PLUS517/030     0200000000KAR/PLUS517/030BT PlusNet DRTV          2020071520200731                                        
MADE20200723141900920025916030      PPL/PPLU016/030     0300000000PPL/PPLU016/030Peoples Postcode Lottery 2020071620200723                                        
MADE20200723141900920025917030      IRI/HABR069/030     0400000000IRI/HABR069/030Haven Holidays DRTV      2020070820200731                                        
MADE20200723141900920025918020      BUR/TALW558/020     0500000000BUR/TALW558/020Always Discreet Shero    2020071520200731                                        
MADE20200723141900920025919020      HHP/SLWP203/020     0600000000HHP/SLWP203/020Sunlife GOF              2020070620200724                                        
MADE20200723141900920025920030      VTN/BPSS066/030     0700000000VTN/BPSS066/030BonPrix                  2020070120200731                                        
MADE20200723141900920025921030      HKP/OPEN008/030     0800000000HKP/OPEN008/030Open University Branding 2020070120200731                                        
MADE20200723141900920025922040      PUC/MOSF001/040     0900000000PUC/MOSF001/040Pure Cremation           2020070120200731                                        
MADE20200723141900920025923020      RVE/TBCO045/020     1000000000RVE/TBCO045/020Tombola DRTV             2020070120200731                                        
MADE20200723144404420025924090      DTV/WVSK002/090     0100000000DTV/WVSK002/090World Vision Kema        2020070120200731                                        
MADE20200723144404420025925030      PPL/PPLU015/030     0200000000PPL/PPLU015/030Peoples Postcode Lottery 2020071620200723                                        
MADE20200723144404420025926030      IRI/HABR070/030     0300000000IRI/HABR070/030Haven Holidays DRTV      2020070820200731                                        
MADE20200723144404420025927030      REP/CPNS240/030     0400000000REP/CPNS240/030Co-op Over 50s DRTV      2020070120200731                                        
MADE20200723144404420025928030      WLI/WWOM012/030     0500000000WLI/WWOM012/030Weight Watchers DRTV     2020071920200731                                        
MADE20200723144404420025929060      SCC/RLPT702/060     0600000000SCC/RLPT702/060Royal London Group Over 52020070620200731                                        
MADE20200723150501020025930020      HHP/SLWP203/020     0100000000HHP/SLWP203/020Sunlife GOF              2020070620200724                                        
MADE20200723150501020025931030      WLI/WWOM012/030     0200000000WLI/WWOM012/030Weight Watchers DRTV     2020071920200731                                        
MADE20200723150501020025932010      TTB/GALA027/010     0300000000TTB/GALA027/010Galabingo DRTV           2020070120200731                                        
MADE20200723150501020025933030      GCH/KNBF005/030     0400000000GCH/KNBF005/030Gtech Air Ram            2020070620200726                                        
MADE20200723150501020025934030      SCC/BSPS301/030     0500000000SCC/BSPS301/030Beagle Street            2020070120200731                                        
MADE20200723150501020025935030      DTV/DECV006/030     0600000000DTV/DECV006/030Disasters Emergency Commi2020071520200728                                        
MADE20200723150501020025936010      WPP/GLDI087/010     0700000000WPP/GLDI087/010Glasses Direct Shared Rew2020070120200731                                        
MADE20200723150501020025937030      PPL/PPLU018/030     0800000000PPL/PPLU018/030Peoples Postcode Lottery 2020071620200723                                        
MADE20200723150501020025938020      VCC/TOHS366/020     0900000000VCC/TOHS366/020O2 Handsets              2020070120200731                                        
MADE20200723150501020025939030      MCM/CLEA800/030     1000000000MCM/CLEA800/030Clearscore Protect SR    2020070120200731                                        
MADE20200723150501020025940020      GOC/DRTV074/020     1100000000GOC/DRTV074/020Go Compare DRTV          2020070620200731                                        
MADE20200723150501020025941010      BBU/PBEE006/010     1200000000BBU/PBEE006/010Pension Bee              2020070120200731                                        
MADE20200723152401120025942040      PUC/MOSF001/040     0100000000PUC/MOSF001/040Pure Cremation           2020070120200731                                        
MADE20200723152401120025943090      DTV/WVSK002/090     0200000000DTV/WVSK002/090World Vision Kema        2020070120200731                                        
MADE20200723152401120025944030      IRI/HABR069/030     0300000000IRI/HABR069/030Haven Holidays DRTV      2020070820200731                                        
MADE20200723152401120025945030      MUM/TBTF002/030     0400000000MUM/TBTF002/030Thinkbox TV              2020072120200731                                        
MADE20200723152401120025946060      SCC/RLPV602/060     0500000000SCC/RLPV602/060Royal London Group Over 52020070620200731                                        
MADE20200723152401120025947020      CLD/MOHE026/020     0600000000CLD/MOHE026/020Moonpig Cards DRTV       2020070320200730                                        
MADE20200723154504520025948030      GRY/PGPP638/030     0100000000GRY/PGPP638/030Pantene                  2020070120200731                                        
MADE20200723154504520025949040      PUC/MOSF001/040     0200000000PUC/MOSF001/040Pure Cremation           2020070120200731                                        
MADE20200723154504520025950020      HHP/SLWP203/020     0300000000HHP/SLWP203/020Sunlife GOF              2020070620200724                                        
MADE20200723154504520025951030      IRI/HABR070/030     0400000000IRI/HABR070/030Haven Holidays DRTV      2020070820200731                                        
MADE20200723154504520025952060      DTV/PDWI009/060     0500000000DTV/PDWI009/060PDSA Lottery DRTV        2020070120200731                                        
MADE20200723160601220025953030      AMV/MACM005/030     0100000000AMV/MACM005/030Macmillan Cancer Coffee N2020070620200731                                        
MADE20200723160601220025954030      WCR/MSMS066/030     0200000000WCR/MSMS066/030Money Supermarket GME    2020070120200731                                        
MADE20200723160601220025955040      DCO/YUMV001/040     0300000000DCO/YUMV001/040Lintbells                2020070120200731                                        
MADE20200723160601220025956020      VCC/TOHS366/020     0400000000VCC/TOHS366/020O2 Handsets              2020070120200731                                        
MADE20200723160601220025957030      JML/FTRC039/030     0500000000JML/FTRC039/030JML Finishing Touch Brand2020070120200731                                        
MADE20200723160601220025958030      IRI/HABR069/030     0600000000IRI/HABR069/030Haven Holidays DRTV      2020070820200731                                        
MADE20200723160601220025959030      WLI/WWOM012/030     0700000000WLI/WWOM012/030Weight Watchers DRTV     2020071920200731                                        
MADE20200723160601220025960060      SCC/SPSU063/060     0800000000SCC/SPSU063/060Neilson Financial Service2020070120200731                                        
MADE20200723164004620025961030      SSC/PGHS493/030     0100000000SSC/PGHS493/030Head & Shoulders Adults  2020070820200731                                        
MADE20200723164004620025962030      BCL/AVER002/030     0200000000BCL/AVER002/030Aviva Equity Release     2020070120200731                                        
MADE20200723164004620025963030      ATG/KNAK444/030     0300000000ATG/KNAK444/030Actegy Revitive (BAR)    2020070120200731                                        
MADE20200723164004620025964030      SKY/NWCI002/030     0400000000SKY/NWCI002/030Sky Now TV Movies DRTV   2020070120200731                                        
MADE20200723164004620025965060      SCC/BSPU135/060     0500000000SCC/BSPU135/060Neilson Financial Service2020070120200731                                        
MADE20200723164004620025966010      MUD/ITPH003/010     0600000000MUD/ITPH003/010Itch SR                  2020070120200731                                        
MADE20200723164004620025967030      HKP/OPEN007/030     0700000000HKP/OPEN007/030Open University Branding 2020070120200731                                        
MADE20200723164004620025968030      MCM/CLEA800/030     0800000000MCM/CLEA800/030Clearscore Protect SR    2020070120200731                                        
MADE20200723164004620025969020      BUR/TALW558/020     0900000000BUR/TALW558/020Always Discreet Shero    2020071520200731                                        
MADE20200723165104720025970030      DES/LVMC013/030     0100000000DES/LVMC013/030Liverpool Victoria Multi 2020071720200731                                        
MADE20200723165104720025971030      AWN/LLOY002/030     0200000000AWN/LLOY002/030Lloyds Pharmacy          2020071320200726                                        
MADE20200723165104720025972030      CHI/BGBR692/030     0300000000CHI/BGBR692/030British Gas Home Installa2020070120200731                                        
MADE20200723165104720025973030      PGE/BEST007/030     0400000000PGE/BEST007/030Best Fiends Direct SR    2020070120200731                                        
MADE20200723165104720025974030      AMV/BZBB300/030     0500000000AMV/BZBB300/030BT Broadband DRTV        2020071720200730                                        
MADE20200723165104720025975030      REP/CPNS240/030     0600000000REP/CPNS240/030Co-op Over 50s DRTV      2020070120200731                                        
MADE20200723171101320025976030      GNW/DYSN187/030     0100000000GNW/DYSN187/030Dyson Best Bits DRTV     2020071520200731                                        
MADE20200723171101320025977020      TTB/ENGI003/020     0200000000TTB/ENGI003/020Energizer Max            2020072020200731                                        
MADE20200723171101320025978010      WPP/GLDI089/010     0300000000WPP/GLDI089/010Glasses Direct Shared Rew2020070120200731                                        
MADE20200723171101320025979060      SCC/BSVU135/060     0400000000SCC/BSVU135/060Neilson Financial Service2020070120200731                                        
MADE20200723171101320025980060      MUM/TBTF001/060     0500000000MUM/TBTF001/060Thinkbox TV              2020072120200731                                        
MADE20200723172701420025981060      SCC/RLPT702/060     0100000000SCC/RLPT702/060Royal London Group Over 52020070620200731                                        
MADE20200723172701420025982030      GCH/KNBF005/030     0200000000GCH/KNBF005/030Gtech Air Ram            2020070620200726                                        
MADE20200723172701420025983030      SKY/AWBS001/030     0300000000SKY/AWBS001/030Sky Now TV Entertainment 2020070120200731                                        
MADE20200723172701420025984030      IRI/HABR070/030     0400000000IRI/HABR070/030Haven Holidays DRTV      2020070820200731                                        
MADE20200723172701420025985030      OPL/WFFD008/030     0500000000OPL/WFFD008/030Wiltshire Farm Foods DRTV2020070120200731                                        
MADE20200723174804820025986020      HSL/DBCS876/020     0100000000HSL/DBCS876/020ACDO Dr Beckmann         2020071320200731                                        
MADE20200723174804820025987010      BJL/MMST236/010     0200000000BJL/MMST236/010Music Magpie Store Tech  2020070120200731                                        
MADE20200723174804820025988020      HOG/GXCO978/020     0300000000HOG/GXCO978/020Corsodyl                 2020070620200726                                        
MADE20200723174804820025989020      KAR/LIDL116/020     0400000000KAR/LIDL116/020Lidl Price Comparison    2020071620200729                                        
MADE20200723174804820025990030      ATG/WOCL235/030     0500000000ATG/WOCL235/030Actegy Revitive (BAR)    2020070120200731                                        
MADE20200723174804820025991020      PCH/NISW170/020     0600000000PCH/NISW170/020Nintendo Switch 51 WW Gam2020072020200726                                        
MADE20200723174804820025992030      SSC/DLCA042/030     0700000000SSC/DLCA042/030Direct Line Core         2020070120200731                                        
MADE20200723174804820025993010      HOG/GXPI951/010     0800000000HOG/GXPI951/010Pirinase Hayfever Relief 2020070620200726                                        
MADE20200723174804820025994020      VCC/DOMN203/020     0900000000VCC/DOMN203/020Dominos Branding         2020072020200731                                        
MADE20200723181701520025995030      SSC/MEBR002/030     0100000000SSC/MEBR002/030Mercedes Online Showroom 2020070120200726                                        
MADE20200723181701520025996030      SNQ/PUBR145/030     0200000000SNQ/PUBR145/030Purplebricks GME         2020070120200726                                        
MADE20200723181701520025997030      AMZ/MMME001/030     0300000000AMZ/MMME001/030Amazon Brand Truths      2020072020200731                                        
MADE20200723181701520025998030      AMV/BZBB306/030     0400000000AMV/BZBB306/030BT Deals GME             2020071720200730                                        
MADE20200723181701520025999020      BBS/HOSK005/020     0500000000BBS/HOSK005/020Skippy Peanut Butter     2020072020200731                                        
MADE20200723181701520026000020      TAG/KTGB008/020     0600000000TAG/KTGB008/020L'Oreal Kerastase Blond A2020072020200731                                        
MADE20200723181701520026001030      FOL/AUDI101/030     0700000000FOL/AUDI101/030Amazon Audible           2020071120200731                                        
MADE20200723181701520026002030      AED/AAAA118/030     0800000000AED/AAAA118/030AA Branding (BAR)        2020071320200731                                        
MADE20200723181701520026003020      YRL/BUSC001/020     0900000000YRL/BUSC001/020Buscopan                 2020071320200731                                        
MADE20200723184004920026004030      CHI/RBNW025/030     0100000000CHI/RBNW025/030Natwest Brand            2020070420200724                                        
MADE20200723184004920026005010      MCE/SUDO019/010     0200000000MCE/SUDO019/010Sudocrem Brand           2020071320200726                                        
MADE20200723184004920026006015      YIG/TRIV139/015     0300000000YIG/TRIV139/015Trivago Hotel Comparison 2020071120200731                                        
MADE20200723184004920026007030      SSC/FIAT227/030     0400000000SSC/FIAT227/030Fiat 500                 2020072020200731                                        
MADE20200723184004920026008030      HOG/TIKT011/030     0500000000HOG/TIKT011/030TikTok                   2020070420200726                                        
MADE20200723184004920026009020      TAG/KTGB008/020     0600000000TAG/KTGB008/020L'Oreal Kerastase Blond A2020072020200731                                        
MADE20200723184004920026010015      YIG/TRIV139/015     0700000000YIG/TRIV139/015Trivago Hotel Comparison 2020071120200731                                        
MADE20200723184004920026011030      TTB/PAND088/030     0800000000TTB/PAND088/030Pandora Jewellery 3 For 22020072320200731                                        
MADE20200723184004920026012060      MLL/COAT002/060     0900000000MLL/COAT002/060CCS EU Transition        2020072020200731                                        
MADE20200723185901620026013030      GNW/DYSN185/030     0100000000GNW/DYSN185/030Dyson Personal Care GME  2020072020200731                                        
MADE20200723185901620026014030      AED/AAAA118/030     0200000000AED/AAAA118/030AA Branding (BAR)        2020071320200731                                        
MADE20200723185901620026015030      HKX/OUOU019/030     0300000000HKX/OUOU019/030Open University MCH      2020070120200731                                        
MADE20200723185901620026016030      INN/KIAM042/030     0400000000INN/KIAM042/030Kia Niro (NBA)           2020072020200731                                        
MADE20200723185901620026017020      HOG/GXSE965/020     0500000000HOG/GXSE965/020Sensodyne Brand          2020070620200726                                        
MADE20200723185901620026018030      MIF/NEBU270/030     0600000000MIF/NEBU270/030Buxton Water             2020072020200731                                        
MADE20200723185901620026019030      WCR/BSKY906/030     0700000000WCR/BSKY906/030Sky Mobile Text 2 Switch 2020070320200731                                        
MADE20200723185901620026020030      AMZ/MMFA001/030     0800000000AMZ/MMFA001/030Amazon Brand Truths      2020072020200731                                        
MADE20200723185901620026021030      XRO/XERO004/030     0900000000XRO/XERO004/030Xero                     2020070620200726                                        
MADE20200723185901620026022010      BJL/MMST236/010     1000000000BJL/MMST236/010Music Magpie Store Tech  2020070120200731                                        
MADE20200723191901720026023030      DRG/AMAL015/030     0100000000DRG/AMAL015/030Amazon Just Ask Alexa    2020072020200731                                        
MADE20200723191901720026024010      WCR/RAFR032/010     0200000000WCR/RAFR032/010CCS RAF Broad Appeal     2020072020200731                                        
MADE20200723191901720026025015      YIG/TRIV139/015     0300000000YIG/TRIV139/015Trivago Hotel Comparison 2020071120200731                                        
MADE20200723191901720026026030      HOG/TIKT011/030     0400000000HOG/TIKT011/030TikTok                   2020070420200726                                        
MADE20200723191901720026027030      LYG/TAYL006/030     0500000000LYG/TAYL006/030Taylors Coffee (BAR)     2020071320200731                                        
MADE20200723191901720026028030      ANO/CARE258/030     0600000000ANO/CARE258/030Cancer Research Appeal   2020072020200731                                        
MADE20200723191901720026029030      AED/AAAA118/030     0700000000AED/AAAA118/030AA Branding (BAR)        2020071320200731                                        
MADE20200723191901720026030030      FOL/AUDI101/030     0800000000FOL/AUDI101/030Amazon Audible           2020071120200731                                        
MADE20200723191901720026031020      TAG/KTGB008/020     0900000000TAG/KTGB008/020L'Oreal Kerastase Blond A2020072020200731                                        
MADE20200723191901720026032015      YIG/TRIV139/015     1000000000YIG/TRIV139/015Trivago Hotel Comparison 2020071120200731                                        
MADE20200723191901720026033030      WCR/MSMS066/030     1100000000WCR/MSMS066/030Money Supermarket GME    2020070120200731                                        
MADE20200723194005020026034030      DRG/AMAL015/030     0100000000DRG/AMAL015/030Amazon Just Ask Alexa    2020072020200731                                        
MADE20200723194005020026035010      VCC/COMP489/010     0200000000VCC/COMP489/010Compare the Market Servic2020070120200731                                        
MADE20200723194005020026036015      YIG/TRIV139/015     0300000000YIG/TRIV139/015Trivago Hotel Comparison 2020071120200731                                        
MADE20200723194005020026037030      FOL/AUDI101/030     0400000000FOL/AUDI101/030Amazon Audible           2020071120200731                                        
MADE20200723194005020026038020      TTB/SUNT351/020     0500000000TTB/SUNT351/020The Sun Superdays        2020072320200725                                        
MADE20200723194005020026039030      AED/AAAA118/030     0600000000AED/AAAA118/030AA Branding (BAR)        2020071320200731                                        
MADE20200723194005020026040020      TAG/KTGB008/020     0700000000TAG/KTGB008/020L'Oreal Kerastase Blond A2020072020200731                                        
MADE20200723194005020026041015      YIG/TRIV139/015     0800000000YIG/TRIV139/015Trivago Hotel Comparison 2020071120200731                                        
MADE20200723194005020026042010      BJL/MMST236/010     0900000000BJL/MMST236/010Music Magpie Store Tech  2020070120200731                                        
MADE20200723200501820026043030      HKX/OUOU019/030     0100000000HKX/OUOU019/030Open University MCH      2020070120200731                                        
MADE20200723200501820026044010      BJL/MMST236/010     0200000000BJL/MMST236/010Music Magpie Store Tech  2020070120200731                                        
MADE20200723200501820026045030      INN/KIAM042/030     0300000000INN/KIAM042/030Kia Niro (NBA)           2020072020200731                                        
MADE20200723200501820026046030      LYG/TAYL006/030     0400000000LYG/TAYL006/030Taylors Coffee (BAR)     2020071320200731                                        
MADE20200723200501820026047010      CME/DLRX015/010     0500000000CME/DLRX015/010Deliveroo Restaurants Are2020070120200731                                        
MADE20200723200501820026048010      VCC/COMP489/010     0600000000VCC/COMP489/010Compare the Market Servic2020070120200731                                        
MADE20200723200501820026049010      CKC/SKHD157/010     0700000000CKC/SKHD157/010Sky Mobile Network of Yea2020070320200731                                        
MADE20200723200501820026050020      HOM/HARI373/020     0800000000HOM/HARI373/020Harringtons Pet Food (BAR2020071320200726                                        
MADE20200723200501820026051030      ANO/CARE258/030     0900000000ANO/CARE258/030Cancer Research Appeal   2020072020200731                                        
MADE20200723200501820026052030      TTB/PAND088/030     1000000000TTB/PAND088/030Pandora Jewellery 3 For 22020072320200731                                        
MADE20200723200501820026053030      AED/AAAA118/030     1100000000AED/AAAA118/030AA Branding (BAR)        2020071320200731                                        
MADE20200723203201920026054030      NCA/HALF001/030     0100000000NCA/HALF001/030Halifax Brand GME        2020070620200731                                        
MADE20200723203201920026055030      GNW/DYSN185/030     0200000000GNW/DYSN185/030Dyson Personal Care GME  2020072020200731                                        
MADE20200723203201920026056030      SSC/DLBU041/030     0300000000SSC/DLBU041/030Direct Line DL4B Performa2020072020200726                                        
MADE20200723203201920026057030      AED/AAAA118/030     0400000000AED/AAAA118/030AA Branding (BAR)        2020071320200731                                        
MADE20200723203201920026058010      BJL/MMST236/010     0500000000BJL/MMST236/010Music Magpie Store Tech  2020070120200731                                        
MADE20200723203201920026059020      TTB/ENGI003/020     0600000000TTB/ENGI003/020Energizer Max            2020072020200731                                        
MADE20200723203201920026060030      SSC/FIAT227/030     0700000000SSC/FIAT227/030Fiat 500                 2020072020200731                                        
MADE20200723203201920026061030      DRG/AMAL015/030     0800000000DRG/AMAL015/030Amazon Just Ask Alexa    2020072020200731                                        
MADE20200723203201920026062030      VCC/COMP465/030     0900000000VCC/COMP465/030Compare the Market Distin2020070620200731                                        
MADE20200723205505120026063020      MCE/PRGO010/020     0100000000MCE/PRGO010/020Nestle Purina Gourmet    2020072020200731                                        
MADE20200723205505120026064020      CWW/LORE080/020     0200000000CWW/LORE080/020L'Oreal Elvive Colour Pro2020070620200731                                        
MADE20200723205505120026065030      CNO/TENT010/030     0300000000CNO/TENT010/030Enterprise Rent-A-Car Bra2020071320200731                                        
MADE20200723205505120026066030      WCR/BSKY906/030     0400000000WCR/BSKY906/030Sky Mobile Text 2 Switch 2020070320200731                                        
MADE20200723205505120026067020      TTB/SUNT351/020     0500000000TTB/SUNT351/020The Sun Superdays        2020072320200725                                        
MADE20200723205505120026068010      WCR/RAFR031/010     0600000000WCR/RAFR031/010CCS RAF Broad Appeal     2020072020200731                                        
MADE20200723205505120026069030      CHI/ARGO014/030     0700000000CHI/ARGO014/030Argos Brand 2            2020070920200731                                        
MADE20200723205505120026070020      GOC/BRND068/020     0800000000GOC/BRND068/020Go Compare Branding      2020070120200731                                        
MADE20200723205505120026071030      LYG/TAYL006/030     0900000000LYG/TAYL006/030Taylors Coffee (BAR)     2020071320200731                                        
MADE20200723205505120026072030      INN/KIAM042/030     1000000000INN/KIAM042/030Kia Niro (NBA)           2020072020200731                                        
MADE20200723211502020026073020      BJL/FOXY060/020     0100000000BJL/FOXY060/020Cashcade Foxy Bingo      2020070120200731                                        
MADE20200723211502020026074030      REP/TTYN223/030     0200000000REP/TTYN223/03021.co.uk Casino (MNE)    2020070120200731                                        
MADE20200723211502020026075030      LYG/TAYL006/030     0300000000LYG/TAYL006/030Taylors Coffee (BAR)     2020071320200731                                        
MADE20200723211502020026076030      AED/AAAA118/030     0400000000AED/AAAA118/030AA Branding (BAR)        2020071320200731                                        
MADE20200723211502020026077020      MCE/CPGT001/020     0500000000MCE/CPGT001/020Nestle Cereal Partners Re2020070620200726                                        
MADE20200723211502020026078020      VCC/DOMN203/020     0600000000VCC/DOMN203/020Dominos Branding         2020072020200731                                        
MADE20200723211502020026079030      DRG/AMAL015/030     0700000000DRG/AMAL015/030Amazon Just Ask Alexa    2020072020200731                                        
MADE20200723211502020026080020      TAG/KTGB008/020     0800000000TAG/KTGB008/020L'Oreal Kerastase Blond A2020072020200731                                        
MADE20200723211502020026081010      MIF/MORR821/010     0900000000MIF/MORR821/010Morrisons Offer 3 HFSS GM2020072020200725                                        
MADE20200723213502120026082020      TAG/VOGB022/020     0100000000TAG/VOGB022/020Volvo Hybrid Range GME   2020071320200726                                        
MADE20200723213502120026083010      VCC/COMP489/010     0200000000VCC/COMP489/010Compare the Market Servic2020070120200731                                        
MADE20200723213502120026084030      GNW/DYSN185/030     0300000000GNW/DYSN185/030Dyson Personal Care GME  2020072020200731                                        
MADE20200723213502120026085030      PCH/WLLH026/030     0400000000PCH/WLLH026/030William Hill Gaming (MNE)2020070120200731                                        
MADE20200723213502120026086020      BBH/TCPD226/020     0500000000BBH/TCPD226/020Tesco APM (BAR)          2020072320200731                                        
MADE20200723213502120026087030      AED/AAAA118/030     0600000000AED/AAAA118/030AA Branding (BAR)        2020071320200731                                        
MADE20200723213502120026088030      DRG/AMAL015/030     0700000000DRG/AMAL015/030Amazon Just Ask Alexa    2020072020200731                                        
MADE20200723213502120026089020      HOG/GXSE965/020     0800000000HOG/GXSE965/020Sensodyne Brand          2020070620200726                                        
MADE20200723213502120026090020      BJL/FOXY063/020     0900000000BJL/FOXY063/020Cashcade Foxy Games      2020070120200731                                        
MADE20200723215205220026091010      WCR/RAFR032/010     0100000000WCR/RAFR032/010CCS RAF Broad Appeal     2020072020200731                                        
MADE20200723215205220026092030      BBH/LAPR005/030     0200000000BBH/LAPR005/030Ladbrokes Casino         2020070120200731                                        
MADE20200723215205220026093010      HOG/GXPI951/010     0300000000HOG/GXPI951/010Pirinase Hayfever Relief 2020070620200726                                        
MADE20200723215205220026094030      TAG/TOGB307/030     0400000000TAG/TOGB307/030Toyota Hybrid GME        2020072020200726                                        
MADE20200723215205220026095060      JWT/ZSLA009/060     0500000000JWT/ZSLA009/060ZSL London Zoo (PRO)     2020072020200731                                        
MADE20200723215205220026096020      HOG/GXCO978/020     0600000000HOG/GXCO978/020Corsodyl                 2020070620200726                                        
MADE20200723215205220026097020      BJL/FOXY062/020     0700000000BJL/FOXY062/020Cashcade Foxy Bingo      2020070120200731                                        
MADE20200723221202220026098010      VCC/COMP489/010     0100000000VCC/COMP489/010Compare the Market Servic2020070120200731                                        
MADE20200723221202220026099020      TAG/VOGB022/020     0200000000TAG/VOGB022/020Volvo Hybrid Range GME   2020071320200726                                        
MADE20200723221202220026100020      BJL/FOXY063/020     0300000000BJL/FOXY063/020Cashcade Foxy Games      2020070120200731                                        
MADE20200723221202220026101020      HOG/GXVO994/020     0400000000HOG/GXVO994/020Novartis Voltarol Medifac2020070620200726                                        
MADE20200723221202220026102030      ALP/SOOW013/030     0500000000ALP/SOOW013/030Sofology (BAR)           2020070920200729                                        
MADE20200723221202220026103010      MUM/KFVA269/010     0600000000MUM/KFVA269/010KFC Disruptive Value     2020070620200731                                        
MADE20200723221202220026104020      AMV/ASJR281/020     0700000000AMV/ASJR281/020Asda Brand 2 HFSS (APX)  2020070620200731                                        
MADE20200723221202220026105030      DRG/AMAL015/030     0800000000DRG/AMAL015/030Amazon Just Ask Alexa    2020072020200731                                        
MADE20200723221202220026106030      FOW/SKYV275/030     0900000000FOW/SKYV275/030Sky Bet Vegas Prize Machi2020070120200723                                        
MADE20200723221202220026107020      HOG/GXSE965/020     1000000000HOG/GXSE965/020Sensodyne Brand          2020070620200726                                        
MADE20200723221202220026108030      NCA/HALF001/030     1100000000NCA/HALF001/030Halifax Brand GME        2020070620200731                                        
MADE20200723222602320026109030      JLN/USWT024/030     0100000000JLN/USWT024/030Uswitch Brand (BAR)      2020072020200731                                        
MADE20200723222602320026110030      AED/AAAA118/030     0200000000AED/AAAA118/030AA Branding (BAR)        2020071320200731                                        
MADE20200723222602320026111030      LYG/FVTR002/030     0300000000LYG/FVTR002/030Fever Tree (NBA)         2020071620200731                                        
MADE20200723222602320026112030      INN/KIAM042/030     0400000000INN/KIAM042/030Kia Niro (NBA)           2020072020200731                                        
MADE20200723222602320026113020      BBH/TCPD226/020     0500000000BBH/TCPD226/020Tesco APM (BAR)          2020072320200731                                        
MADE20200723222602320026114010      CME/DLRX014/010     0600000000CME/DLRX014/010Deliveroo Restaurants Are2020070120200731                                        
MADE20200723222602320026115030      GNW/DYSN185/030     0700000000GNW/DYSN185/030Dyson Personal Care GME  2020072020200731                                        
MADE20200723222602320026116030      WHG/WLLH005/030     0800000000WHG/WLLH005/030William Hill Gaming (MNE)2020070120200731                                        
MADE20200723222602320026117030      AMZ/MMFA001/030     0900000000AMZ/MMFA001/030Amazon Brand Truths      2020072020200731                                        
MADE20200723222602320026118030      LYG/TAYL006/030     1000000000LYG/TAYL006/030Taylors Coffee (BAR)     2020071320200731                                        
MADE20200723225602420026119030      JLN/USWT024/030     0100000000JLN/USWT024/030Uswitch Brand (BAR)      2020072020200731                                        
MADE20200723225602420026120030      AED/AAAA118/030     0200000000AED/AAAA118/030AA Branding (BAR)        2020071320200731                                        
MADE20200723225602420026121030      LYG/FVTR002/030     0300000000LYG/FVTR002/030Fever Tree (NBA)         2020071620200731                                        
MADE20200723225602420026122030      INN/KIAM042/030     0400000000INN/KIAM042/030Kia Niro (NBA)           2020072020200731                                        
MADE20200723225602420026123020      BBH/TCPD226/020     0500000000BBH/TCPD226/020Tesco APM (BAR)          2020072320200731                                        
MADE20200723225602420026124010      CME/DLRX019/010     0600000000CME/DLRX019/010Deliveroo Restaurants Are2020070120200731                                        
MADE20200723225602420026125030      GNW/DYSN185/030     0700000000GNW/DYSN185/030Dyson Personal Care GME  2020072020200731                                        
MADE20200723225602420026126030      WHG/WLLH005/030     0800000000WHG/WLLH005/030William Hill Gaming (MNE)2020070120200731                                        
MADE20200723225602420026127030      AMZ/MMME001/030     0900000000AMZ/MMME001/030Amazon Brand Truths      2020072020200731                                        
MADE20200723225602420026128030      LYG/TAYL006/030     1000000000LYG/TAYL006/030Taylors Coffee (BAR)     2020071320200731                                        
MADE20200723232202520026129030      JLN/USWT024/030     0100000000JLN/USWT024/030Uswitch Brand (BAR)      2020072020200731                                        
MADE20200723232202520026130030      LYG/FVTR002/030     0200000000LYG/FVTR002/030Fever Tree (NBA)         2020071620200731                                        
MADE20200723232202520026131030      PCH/LADS014/030     0300000000PCH/LADS014/030Entertainment Ladbrokes F2020070120200731                                        
MADE20200723232202520026132030      SSC/FIAT227/030     0400000000SSC/FIAT227/030Fiat 500                 2020072020200731                                        
MADE20200723232202520026133010      WCR/RAFR031/010     0500000000WCR/RAFR031/010CCS RAF Broad Appeal     2020072020200731                                        
MADE20200723232202520026134030      LYG/CPFD074/030     0600000000LYG/CPFD074/030Co-op Donate (MNS)       2020071520200731                                        
MADE20200723232202520026135060      MUM/TBTF001/060     0700000000MUM/TBTF001/060Thinkbox TV              2020072020200731                                        
MADE20200723232202520026136030      CNS/TTRD033/030     0800000000CNS/TTRD033/03032 Red Online Casino     2020070120200731                                        
MADE20200723232202520026137020      VCC/EAJT350/020     0900000000VCC/EAJT350/020EasyJet Flights          2020072120200731                                        
MADE20200723235502620026138020      TTB/GALA020/020     0100000000TTB/GALA020/020Galabingo.co.uk          2020070120200731                                        
MADE20200723235502620026139020      PCH/LADS013/020     0200000000PCH/LADS013/020Ladbrokes Casino         2020070120200731                                        
MADE20200723235502620026140060      YRL/VIAG007/060     0300000000YRL/VIAG007/060Pfizer Viagra (BAR)      2020071320200731                                        
MADE20200723235502620026141030      SSC/PGGL007/030     0400000000SSC/PGGL007/030Gillette Male Shavecare  2020070120200731                                        
MADE20200723235502620026142090      MCP/AAAM021/090     0500000000MCP/AAAM021/090Action Aid Regular Giving2020070120200731                                        
MADE20200723235502620026143030      BUC/PGCP003/030     0600000000BUC/PGCP003/030Seven Seas Cod Liver Oil 2020070120200731                                        
MADE20200723235502620026144020      MCM/ASSS987/020     0700000000MCM/ASSS987/020Aldi Core HFSS 4         2020071820200728                                        
MADE20200723242905320026145030      BBH/BBPR672/030     0100000000BBH/BBPR672/030Barclays Retail          2020070120200731                                        
MADE20200723242905320026146060      MLL/COAT002/060     0200000000MLL/COAT002/060CCS EU Transition        2020072020200731                                        
MADE20200723242905320026147010      MCE/MMPO011/010     0300000000MCE/MMPO011/010OJO Casino               2020070120200731                                        
MADE20200723242905320026148030      TTB/PAND088/030     0400000000TTB/PAND088/030Pandora Jewellery 3 For 22020072320200731                                        
MADE20200723242905320026149030      SAA/CROL041/030     0500000000SAA/CROL041/030Coty Clairol             2020072020200731                                        
MADE20200723242905320026150030      INN/KIAM042/030     0600000000INN/KIAM042/030Kia Niro (NBA)           2020072020200731                                        
MADE20200723242905320026151030      DRG/AMAL015/030     0700000000DRG/AMAL015/030Amazon Just Ask Alexa    2020072020200731                                        
MADE20200723242905320026152020      DAA/BABL007/020     0800000000DAA/BABL007/020Babbel                   2020070120200731                                        
MADE20200723242905320026153030      TTB/GALS010/030     0900000000TTB/GALS010/030Gala Spins               2020070120200731                                        
MADE20200723244902720026154030      SSC/PGHS493/030     0100000000SSC/PGHS493/030Head & Shoulders Adults  2020070820200731                                        
MADE20200723244902720026155030      HOG/RKSH466/030     0200000000HOG/RKSH466/030Scholl Aid               2020070620200726                                        
MADE20200723244902720026156030      SSC/FIAT227/030     0300000000SSC/FIAT227/030Fiat 500                 2020072020200731                                        
MADE20200723244902720026157030      SHT/DPMA068/030     0400000000SHT/DPMA068/030Disney Plus Take Disney W2020070120200731                                        
MADE20200723244902720026158030      MUM/TBTF002/030     0500000000MUM/TBTF002/030Thinkbox TV              2020072120200731                                        
MADE20200723244902720026159030      CNS/TTRD033/030     0600000000CNS/TTRD033/03032 Red Online Casino     2020070120200731                                        
MADE20200723244902720026160030      WCR/RAFR026/030     0700000000WCR/RAFR026/030CCS RAF Broad Appeal     2020072020200731                                        
MADE20200723250602820026161030      SKY/SOLP003/030     0100000000SKY/SOLP003/030Step One Clothing        2020070120200731                                        
MADE20200723250602820026162020      HKX/VAVP003/020     0200000000HKX/VAVP003/020Vanish Pink Platinum     2020071320200726                                        
MADE20200723250602820026163060      YRL/VIAG007/060     0300000000YRL/VIAG007/060Pfizer Viagra (BAR)      2020071320200731                                        
MADE20200723250602820026164030      MIF/NEBU270/030     0400000000MIF/NEBU270/030Buxton Water             2020072020200731                                        
MADE20200723250602820026165030      SHT/DPMA068/030     0500000000SHT/DPMA068/030Disney Plus              2020070120200731                                        
MADE20200723250602820026166020      MCE/MMPO028/020     0600000000MCE/MMPO028/020OJO Casino               2020070120200731                                        
MADE20200723250602820026167020      HKX/VACW012/020     0700000000HKX/VACW012/020Vanish Whites Washing Pow2020070120200731                                        
MADE20200723252705420026168020      TAG/CBGB758/020     0100000000TAG/CBGB758/020Cillit Bang              2020070120200731                                        
MADE20200723252705420026169020      SAA/RIMM884/020     0200000000SAA/RIMM884/020Rimmel Lash Scandaleyes  2020071520200731                                        
MADE20200723252705420026170020      WKU/BAUK038/020     0300000000WKU/BAUK038/020Babbel                   2020070120200731                                        
MADE20200723252705420026171030      CNS/TTRD033/030     0400000000CNS/TTRD033/03032 Red Online Casino     2020070120200731                                        
MADE20200723252705420026172030      SAA/CROL041/030     0500000000SAA/CROL041/030Coty Clairol             2020072020200731                                        
MADE20200723252705420026173060      MLL/COAT002/060     0600000000MLL/COAT002/060CCS EU Transition        2020072020200731                                        
MADE20200723254702920026174030      SSC/PGHS493/030     0100000000SSC/PGHS493/030Head & Shoulders Adults  2020070820200731                                        
MADE20200723254702920026175020      VCC/EAJT350/020     0200000000VCC/EAJT350/020EasyJet Flights          2020072120200731                                        
MADE20200723254702920026176030      TTB/PAND088/030     0300000000TTB/PAND088/030Pandora Jewellery 3 For 22020072320200731                                        
MADE20200723254702920026177030      FOW/SKYB873/030     0400000000FOW/SKYB873/030Entertainment Sky Bet Spo2020070120200731                                        
MADE20200723254702920026178010      CME/DLRX017/010     0500000000CME/DLRX017/010Deliveroo Restaurants Are2020070120200731                                        
MADE20200723254702920026179030      SHT/DPMA068/030     0600000000SHT/DPMA068/030Disney Plus Take Disney W2020070120200731                                        
MADE20200723254702920026180030      SKY/SOLP003/030     0700000000SKY/SOLP003/030Step One Clothing        2020070120200731                                        
MADE20200723254702920026181030      DRG/AMAL015/030     0800000000DRG/AMAL015/030Amazon Just Ask Alexa    2020072020200731                                        
MADE20200723254702920026182030      CNS/TTRD033/030     0900000000CNS/TTRD033/03032 Red Online Casino     2020070120200731                                        
MADE20200723254702920026183030      SSC/FIAT227/030     1000000000SSC/FIAT227/030Fiat 500                 2020072020200731                                        
MADE20200723260803020026184030      INN/KIAM042/030     0100000000INN/KIAM042/030Kia Niro (NBA)           2020072020200731                                        
MADE20200723260803020026185020      HKX/VACW012/020     0200000000HKX/VACW012/020Vanish Whites Washing Pow2020070120200731                                        
MADE20200723260803020026186030      HOG/RKSH466/030     0300000000HOG/RKSH466/030Scholl Aid               2020070620200726                                        
MADE20200723260803020026187020      TTB/ENGI003/020     0400000000TTB/ENGI003/020Energizer Max            2020072020200731                                        
MADE20200723260803020026188030      CNS/TTRD033/030     0500000000CNS/TTRD033/03032 Red Online Casino     2020070120200731                                        
MADE20200723260803020026189020      HKX/VAVP003/020     0600000000HKX/VAVP003/020Vanish Pink Platinum     2020071320200726                                        
MADE20200723260803020026190060      YRL/VIAG007/060     0700000000YRL/VIAG007/060Pfizer Viagra (BAR)      2020071320200731                                        
MADE20200723260803020026191030      BBH/BBPR672/030     0800000000BBH/BBPR672/030Barclays Retail          2020070120200731                                        
MADE20200723263405520026192020      TTB/GALA020/020     0100000000TTB/GALA020/020Galabingo.co.uk          2020070120200731                                        
MADE20200723263405520026193020      HOG/NOBE618/020     0200000000HOG/NOBE618/020Birds Eye Coated Fish NHF2020070620200731                                        
MADE20200723263405520026194020      DAA/BABL007/020     0300000000DAA/BABL007/020Babbel                   2020070120200731                                        
MADE20200723263405520026195030      MCE/SUDO017/030     0400000000MCE/SUDO017/030Sudocrem Brand           2020071320200726                                        
MADE20200723263405520026196020      TTB/SUNT351/020     0500000000TTB/SUNT351/020The Sun Superdays        2020072320200725                                        
MADE20200723263405520026197020      PCH/NISW170/020     0600000000PCH/NISW170/020Nintendo Switch 51 WW Gam2020072020200726                                        
MADE20200723263405520026198030      MUM/TBTF002/030     0700000000MUM/TBTF002/030Thinkbox TV              2020072120200731                                        
MADE20200723263405520026199020      HOG/NOBE621/020     0800000000HOG/NOBE621/020Birds Eye Pea Protein    2020071320200731                                        
MADE20200723263405520026200030      REP/LEOV237/030     0900000000REP/LEOV237/030Leo Vegas IPS (MNE)      2020070120200731                                        
MADE20200723263405520026201030      WCR/RAFR027/030     1000000000WCR/RAFR027/030CCS RAF Broad Appeal     2020072020200731                                        
MADE20200723265603120026202020      BJL/FOXY063/020     0100000000BJL/FOXY063/020Cashcade Foxy Games      2020070120200731                                        
MADE20200723265603120026203020      MCM/ASSS987/020     0200000000MCM/ASSS987/020Aldi Core HFSS 4         2020071820200728                                        
MADE20200723265603120026204030      BUR/TBLD006/030     0300000000BUR/TBLD006/030Bold Washing Powder      2020070120200731                                        
MADE20200723265603120026205020      BUR/TALW558/020     0400000000BUR/TALW558/020Always Discreet Shero    2020071520200731                                        
MADE20200723265603120026206030      BUR/TFLA184/030     0500000000BUR/TFLA184/030Flash H                  2020070120200731                                        
MADE20200723265603120026207030      SAA/CROL041/030     0600000000SAA/CROL041/030Coty Clairol             2020072020200731                                        
MADE20200723265603120026208030      CNS/TTRD033/030     0700000000CNS/TTRD033/03032 Red Online Casino     2020070120200731                                        
MADE20200723265603120026209030      EGP/PGFB044/030     0800000000EGP/PGFB044/030Febreze Refresher        2020070120200731                                        
MADE20200723265603120026210060      MLL/COAT002/060     0900000000MLL/COAT002/060CCS EU Transition        2020072020200731                                        
MADE20200723273003220026211030      SSC/PGGL007/030     0100000000SSC/PGGL007/030Gillette Male Shavecare  2020070120200731                                        
MADE20200723273003220026212030      AED/WABR244/030     0200000000AED/WABR244/030Waitrose Taste Wine      2020072220200731                                        
MADE20200723273003220026213030      SSC/PGHS493/030     0300000000SSC/PGHS493/030Head & Shoulders Adults  2020070820200731                                        
MADE20200723273003220026214030      VCC/CADM073/030     0400000000VCC/CADM073/030Cadbury Dairy Milk (BAR) 2020070620200726                                        
MADE20200723273003220026215030      BUC/PGCP003/030     0500000000BUC/PGCP003/030Seven Seas Cod Liver Oil 2020070120200731                                        
MADE20200723273003220026216030      MIF/NEBU270/030     0600000000MIF/NEBU270/030Buxton Water             2020072020200731                                        
MADE20200723273003220026217030      SHT/DPMA068/030     0700000000SHT/DPMA068/030Disney Plus Take Disney W2020070120200731                                        
MADE20200723273003220026218030      REC/PICA003/030     0800000000REC/PICA003/030Pink Casino (MNE)        2020070120200731                                        
MADE20200723273003220026219030      BUR/TLEN010/030     0900000000BUR/TLEN010/030Lenor Fabric Conditioner 2020070120200731                                        
MADE20200723275403320026220020      QST/DNHA083/020     0100000000QST/DNHA083/020Haribo Supermix          2020072020200731                                        
MADE20200723275403320026221020      BBH/TCPD226/020     0200000000BBH/TCPD226/020Tesco APM (BAR)          2020072320200731                                        
MADE20200723275403320026222020      MCE/CPGT001/020     0300000000MCE/CPGT001/020Nestle Cereal Partners Re2020070620200726                                        
MADE20200723275403320026223020      TTB/ENGI003/020     0400000000TTB/ENGI003/020Energizer Max            2020072020200731                                        
MADE20200723275403320026224030      CNS/TTRD033/030     0500000000CNS/TTRD033/03032 Red Online Casino     2020070120200731                                        
MADE20200723275403320026225020      WKU/BAUK038/020     0600000000WKU/BAUK038/020Babbel                   2020070120200731                                        
MADE20200723275403320026226020      HOG/NOBE618/020     0700000000HOG/NOBE618/020Birds Eye Coated Fish NHF2020070620200731                                        
MADE20200723275403320026227020      PCH/NISW170/020     0800000000PCH/NISW170/020Nintendo Switch 51 WW Gam2020072020200726                                        
MADE20200723275403320026228030      BUR/TFLA184/030     0900000000BUR/TFLA184/030Flash H                  2020070120200731                                        
MADE20200723275403320026229030      SHT/DPMA064/030     1000000000SHT/DPMA064/030Disney Plus              2020070120200731                                        
MADE20200723275403320026230020      HOG/NOBE621/020     1100000000HOG/NOBE621/020Birds Eye Pea Protein    2020071320200731                                        
MADE20200723275403320026231020      TTB/GALA026/020     1200000000TTB/GALA026/020Galabingo.co.uk          2020070120200731                                        
MADE20200723281605620026232010      WCR/RAFR032/010     0100000000WCR/RAFR032/010CCS RAF Broad Appeal     2020072020200731                                        
MADE20200723281605620026233060      MUM/TBTF001/060     0200000000MUM/TBTF001/060Thinkbox TV              2020072120200731                                        
MADE20200723281605620026234030      REP/SLOT238/030     0300000000REP/SLOT238/030Slotboss.co.uk (MNE)     2020070120200731                                        
MADE20200723281605620026235020      TTB/SUNT351/020     0400000000TTB/SUNT351/020The Sun Superdays        2020072320200725                                        
MADE20200723283603420026236030      SHT/DPMA064/030     0100000000SHT/DPMA064/030Disney Plus Take Disney W2020070120200731                                        
MADE20200723283603420026237030      MIF/NEBU270/030     0200000000MIF/NEBU270/030Buxton Water             2020072020200731                                        
MADE20200723283603420026238030      SKY/SOLP003/030     0300000000SKY/SOLP003/030Step One Clothing        2020070120200731                                        
MADE20200723283603420026239030      MCE/SUDO015/030     0400000000MCE/SUDO015/030Sudocrem Brand           2020071320200726                                        
MADE20200723291003520026240030      TTB/GALS010/030     0100000000TTB/GALS010/030Gala Spins               2020070120200731                                        
MADE20200723291003520026241010      CME/DLRX018/010     0200000000CME/DLRX018/010Deliveroo Restaurants Are2020070120200731                                        
MADE20200723291003520026242030      GNW/DYSN185/030     0300000000GNW/DYSN185/030Dyson Personal Care GME  2020072020200731                                        
MADE20200723291003520026243030      SKY/SOLP003/030     0400000000SKY/SOLP003/030Step One Clothing        2020070120200731                                        
MADE20200723291003520026244020      DAA/BABL007/020     0500000000DAA/BABL007/020Babbel                   2020070120200731                                        
MADE20200723293303620026245030      GRY/PGPP638/030     0100000000GRY/PGPP638/030Pantene                  2020070120200731                                        
MADE20200723293303620026246030      SSC/PWER010/030     0200000000SSC/PWER010/030Oral B Power             2020070120200731                                        
MADE20200723293303620026247030      HOG/PGOL507/030     0300000000HOG/PGOL507/030Olay                     2020070120200731                                        
MADE20200723293303620026248030      BUR/TBLD006/030     0400000000BUR/TBLD006/030Bold Washing Powder      2020070120200731                                        
MADE20200723295505720026249030      WCR/RAFR026/030     0100000000WCR/RAFR026/030CCS RAF Broad Appeal     2020072020200731                                        
MADE20200723295505720026250030      BUR/TFLA185/030     0200000000BUR/TFLA185/030Flash Q                  2020070120200731                                        
MADE20200723295505720026251030      MUM/TBTF002/030     0300000000MUM/TBTF002/030Thinkbox TV              2020072120200731                                        
MADE20200723295505720026252030      BUR/TLEN010/030     0400000000BUR/TLEN010/030Lenor Fabric Conditioner 2020070120200731                                        
