00SKYPS01   04052021020400
01POPP10052021
02060000GRIZZY AND THE LEMMINGS                                               000000000GRIZZY AND THE LEMMINGS                           0000000000000    0405202131122099N
02061000GRIZZY AND THE LEMMINGS                                               000000000GRIZZY AND THE LEMMINGS                           0000000000000    0405202131122099N
02062000GRIZZY AND THE LEMMINGS                                               000000000GRIZZY AND THE LEMMINGS                           0000000000000    0405202131122099N
02063000GRIZZY AND THE LEMMINGS                                               000000000GRIZZY AND THE LEMMINGS                           0000000000000    0405202131122099N
02064000GRIZZY AND THE LEMMINGS                                               000000000GRIZZY AND THE LEMMINGS                           0000000000000    0405202131122099N
02065000GRIZZY AND THE LEMMINGS                                               000000000GRIZZY AND THE LEMMINGS                           0000000000000    0405202131122099N
02070000DRAGON BALL SUPER                                                     000000000DRAGON BALL SUPER                                 0000000000000    0405202131122099N
02073100POKEMON                                                               000000000POKEMON                                           0000000000000    0405202131122099N
02080200POWER RANGERS BEAST MORPHERS                                          000000000POWER RANGERS BEAST MORPHERS                      0000000000000    0405202131122099N
02083000TOTAL DRAMARAMA                                                       000000000TOTAL DRAMARAMA                                   0000000000000    0405202131122099N
02084500TOTAL DRAMARAMA                                                       000000000TOTAL DRAMARAMA                                   0000000000000    0405202131122099N
02090000THE STRANGE CHORES                                                    000000000THE STRANGE CHORES                                0000000000000    0405202131122099N
02091500THE STRANGE CHORES                                                    000000000THE STRANGE CHORES                                0000000000000    0405202131122099N
02093000SPACE CHICKENS IN SPACE                                               000000000SPACE CHICKENS IN SPACE                           0000000000000    0405202131122099N
02094500SPACE CHICKENS IN SPACE                                               000000000SPACE CHICKENS IN SPACE                           0000000000000    0405202131122099N
02100000CUPCAKE & DINO: GENERAL SERVIC                                        000000000CUPCAKE & DINO: GENERAL SERVIC                    0000000000000    0405202131122099N
02101500CUPCAKE & DINO: GENERAL SERVIC                                        000000000CUPCAKE & DINO: GENERAL SERVIC                    0000000000000    0405202131122099N
02103000CARE BEARS: UNLOCK THE MAGIC                                          000000000CARE BEARS: UNLOCK THE MAGIC                      0000000000000    0405202131122099N
02104500CARE BEARS: UNLOCK THE MAGIC                                          000000000CARE BEARS: UNLOCK THE MAGIC                      0000000000000    0405202131122099N
02110000SADIE SPARKS                                                          000000000SADIE SPARKS                                      0000000000000    0405202131122099N
02111500SADIE SPARKS                                                          000000000SADIE SPARKS                                      0000000000000    0405202131122099N
02113000TROLLS: THE BEAT GOES ON!                                             000000000TROLLS: THE BEAT GOES ON!                         0000000000000    0405202131122099N
02114500TROLLS: THE BEAT GOES ON!                                             000000000TROLLS: THE BEAT GOES ON!                         0000000000000    0405202131122099N
02120000TROLLS: THE BEAT GOES ON!                                             000000000TROLLS: THE BEAT GOES ON!                         0000000000000    0405202131122099N
02121500TROLLS: THE BEAT GOES ON!                                             000000000TROLLS: THE BEAT GOES ON!                         0000000000000    0405202131122099N
0212300044 CATS                                                               00000000044 CATS                                           0000000000000    0405202131122099N
0212450044 CATS                                                               00000000044 CATS                                           0000000000000    0405202131122099N
0213000044 CATS                                                               00000000044 CATS                                           0000000000000    0405202131122099N
0213150044 CATS                                                               00000000044 CATS                                           0000000000000    0405202131122099N
02133000TALKING TOM AND FRIENDS                                               000000000TALKING TOM AND FRIENDS                           0000000000000    0405202131122099N
02134500TALKING TOM AND FRIENDS                                               000000000TALKING TOM AND FRIENDS                           0000000000000    0405202131122099N
02140000TALKING TOM AND FRIENDS                                               000000000TALKING TOM AND FRIENDS                           0000000000000    0405202131122099N
02141500TALKING TOM AND FRIENDS                                               000000000TALKING TOM AND FRIENDS                           0000000000000    0405202131122099N
02143000TALKING TOM AND FRIENDS                                               000000000TALKING TOM AND FRIENDS                           0000000000000    0405202131122099N
02144500TALKING TOM AND FRIENDS                                               000000000TALKING TOM AND FRIENDS                           0000000000000    0405202131122099N
02150000TOTAL DRAMARAMA                                                       000000000TOTAL DRAMARAMA                                   0000000000000    0405202131122099N
02151500TOTAL DRAMARAMA                                                       000000000TOTAL DRAMARAMA                                   0000000000000    0405202131122099N
0215300044 CATS                                                               00000000044 CATS                                           0000000000000    0405202131122099N
0215450044 CATS                                                               00000000044 CATS                                           0000000000000    0405202131122099N
02160000SPIRIT RIDING FREE                                                    000000000SPIRIT RIDING FREE                                0000000000000    0405202131122099N
02163100ALVINNN!!! AND THE CHIPMUNKS                                          000000000ALVINNN!!! AND THE CHIPMUNKS                      0000000000000    0405202131122099N
02164500ALVINNN!!! AND THE CHIPMUNKS                                          000000000ALVINNN!!! AND THE CHIPMUNKS                      0000000000000    0405202131122099N
02170000BIG TOP ACADEMY                                                       000000000BIG TOP ACADEMY                                   0000000000000    0405202131122099N
02173100POKEMON                                                               000000000POKEMON                                           0000000000000    0405202131122099N
02180200POWER RANGERS BEAST MORPHERS                                          000000000POWER RANGERS BEAST MORPHERS                      0000000000000    0405202131122099N
02183300DRAGON BALL SUPER                                                     000000000DRAGON BALL SUPER                                 0000000000000    0405202131122099N
02190000BAKUGAN: ARMORED ALLIANCE                                             000000000BAKUGAN: ARMORED ALLIANCE                         0000000000000    0405202131122099N
02191500BAKUGAN: ARMORED ALLIANCE                                             000000000BAKUGAN: ARMORED ALLIANCE                         0000000000000    0405202131122099N
02193000TROLLHUNTERS                                                          000000000TROLLHUNTERS                                      0000000000000    0405202131122099N
02200100TOTAL DRAMARAMA                                                       000000000TOTAL DRAMARAMA                                   0000000000000    0405202131122099N
02201500TOTAL DRAMARAMA                                                       000000000TOTAL DRAMARAMA                                   0000000000000    0405202131122099N
02203000TRANSFORMERS: CYBERVERSE                                              000000000TRANSFORMERS: CYBERVERSE                          0000000000000    0405202131122099N
02204500TRANSFORMERS: CYBERVERSE                                              000000000TRANSFORMERS: CYBERVERSE                          0000000000000    0405202131122099N
02210000ALVINNN!!! AND THE CHIPMUNKS                                          000000000ALVINNN!!! AND THE CHIPMUNKS                      0000000000000    0405202131122099N
02211500ALVINNN!!! AND THE CHIPMUNKS                                          000000000ALVINNN!!! AND THE CHIPMUNKS                      0000000000000    0405202131122099N
02213000ALVINNN!!! AND THE CHIPMUNKS                                          000000000ALVINNN!!! AND THE CHIPMUNKS                      0000000000000    0405202131122099N
02214500ALVINNN!!! AND THE CHIPMUNKS                                          000000000ALVINNN!!! AND THE CHIPMUNKS                      0000000000000    0405202131122099N
02220000TALKING TOM AND FRIENDS                                               000000000TALKING TOM AND FRIENDS                           0000000000000    0405202131122099N
02221500TALKING TOM AND FRIENDS                                               000000000TALKING TOM AND FRIENDS                           0000000000000    0405202131122099N
02223000TALKING TOM AND FRIENDS                                               000000000TALKING TOM AND FRIENDS                           0000000000000    0405202131122099N
02224500TALKING TOM AND FRIENDS                                               000000000TALKING TOM AND FRIENDS                           0000000000000    0405202131122099N
02230000TALKING TOM AND FRIENDS                                               000000000TALKING TOM AND FRIENDS                           0000000000000    0405202131122099N
02231500TALKING TOM AND FRIENDS                                               000000000TALKING TOM AND FRIENDS                           0000000000000    0405202131122099N
02233000TALKING TOM AND FRIENDS                                               000000000TALKING TOM AND FRIENDS                           0000000000000    0405202131122099N
02234500TALKING TOM AND FRIENDS                                               000000000TALKING TOM AND FRIENDS                           0000000000000    0405202131122099N
0224000044 CATS                                                               00000000044 CATS                                           0000000000000    0405202131122099N
0224120044 CATS                                                               00000000044 CATS                                           0000000000000    0405202131122099N
02242400ALVIN AND THE CHIPMUNKS                                               000000000ALVIN AND THE CHIPMUNKS                           0000000000000    0405202131122099N
02243600NATE IS LATE                                                          000000000NATE IS LATE                                      0000000000000    0405202131122099N
02244800LEGO CITY ADVENTURES                                                  000000000LEGO CITY ADVENTURES                              0000000000000    0405202131122099N
02250000LEGO FRIENDS: GIRLS ON A MISSI                                        000000000LEGO FRIENDS: GIRLS ON A MISSI                    0000000000000    0405202131122099N
02251200LEGO FRIENDS: GIRLS ON A MISSI                                        000000000LEGO FRIENDS: GIRLS ON A MISSI                    0000000000000    0405202131122099N
02252400LEGO FRIENDS: GIRLS ON A MISSI                                        000000000LEGO FRIENDS: GIRLS ON A MISSI                    0000000000000    0405202131122099N
02253600TROLLS: THE BEAT GOES ON!                                             000000000TROLLS: THE BEAT GOES ON!                         0000000000000    0405202131122099N
02254800TALKING TOM AND FRIENDS                                               000000000TALKING TOM AND FRIENDS                           0000000000000    0405202131122099N
02260000TALKING TOM AND FRIENDS                                               000000000TALKING TOM AND FRIENDS                           0000000000000    0405202131122099N
02261200TALKING TOM AND FRIENDS                                               000000000TALKING TOM AND FRIENDS                           0000000000000    0405202131122099N
02262400TALKING TOM AND FRIENDS                                               000000000TALKING TOM AND FRIENDS                           0000000000000    0405202131122099N
02263600BARBIE DREAMHOUSE ADVENTURES                                          000000000BARBIE DREAMHOUSE ADVENTURES                      0000000000000    0405202131122099N
02270000BARBIE DREAMHOUSE ADVENTURES                                          000000000BARBIE DREAMHOUSE ADVENTURES                      0000000000000    0405202131122099N
02272000COUNTERFEIT CAT                                                       000000000COUNTERFEIT CAT                                   0000000000000    0405202131122099N
02273200COUNTERFEIT CAT                                                       000000000COUNTERFEIT CAT                                   0000000000000    0405202131122099N
02274400COUNTERFEIT CAT                                                       000000000COUNTERFEIT CAT                                   0000000000000    0405202131122099N
02275600COUNTERFEIT CAT                                                       000000000COUNTERFEIT CAT                                   0000000000000    0405202131122099N
02280800CARE BEARS: UNLOCK THE MAGIC                                          000000000CARE BEARS: UNLOCK THE MAGIC                      0000000000000    0405202131122099N
02282000CARE BEARS: UNLOCK THE MAGIC                                          000000000CARE BEARS: UNLOCK THE MAGIC                      0000000000000    0405202131122099N
02283000TALKING TOM HEROES                                                    000000000TALKING TOM HEROES                                0000000000000    0405202131122099N
02284000TALKING TOM HEROES                                                    000000000TALKING TOM HEROES                                0000000000000    0405202131122099N
02285000POLLY POCKET                                                          000000000POLLY POCKET                                      0000000000000    0405202131122099N
02291200GRIZZY AND THE LEMMINGS                                               000000000GRIZZY AND THE LEMMINGS                           0000000000000    0405202131122099N
02292200GRIZZY AND THE LEMMINGS                                               000000000GRIZZY AND THE LEMMINGS                           0000000000000    0405202131122099N
02293000GRIZZY AND THE LEMMINGS                                               000000000GRIZZY AND THE LEMMINGS                           0000000000000    0405202131122099N
02294000GRIZZY AND THE LEMMINGS                                               000000000GRIZZY AND THE LEMMINGS                           0000000000000    0405202131122099N
02295000GRIZZY AND THE LEMMINGS                                               000000000GRIZZY AND THE LEMMINGS                           0000000000000    0405202131122099N
09SONYPOPP10052021000096
99000098
