SMCU20200723091700120025254030      PPL/PPLU015/030     0100000000PPL/PPLU015/030Peoples Postcode Lottery 2020071620200723                                        
SMCU20200723091700120025255030      HKP/OPEN007/030     0200000000HKP/OPEN007/030Open University Branding 2020070120200731                                        
SMCU20200723091700120025256030      CHI/BGBR692/030     0300000000CHI/BGBR692/030British Gas Home Installa2020070120200731                                        
SMCU20200723091700120025257020      HHP/SLWP203/020     0400000000HHP/SLWP203/020Sunlife GOF              2020070620200724                                        
SMCU20200723091700120025258010      MUD/ITGA003/010     0500000000MUD/ITGA003/010Itch SR                  2020070120200731                                        
SMCU20200723091700120025259010      FTB/FMPA003/010     0600000000FTB/FMPA003/010FindMyPast SR            2020070620200731                                        
SMCU20200723091700120025260030      REP/CPNS240/030     0700000000REP/CPNS240/030Co-op Over 50s DRTV      2020070120200731                                        
SMCU20200723091700120025261020      HOG/GXSE965/020     0800000000HOG/GXSE965/020Sensodyne Brand          2020070620200726                                        
SMCU20200723091700120025262090      DTV/SSYS003/090     0900000000DTV/SSYS003/090Sight Savers DRTV        2020070120200731                                        
SMCU20200723093800220025263020      RVE/TBCO045/020     0100000000RVE/TBCO045/020Tombola DRTV             2020070120200731                                        
SMCU20200723093800220025264020      MIF/SCPL280/020     0200000000MIF/SCPL280/020SCA Plenty Kitchen Towel 2020070620200726                                        
SMCU20200723093800220025265020      HOG/GXCO978/020     0300000000HOG/GXCO978/020Corsodyl                 2020070620200726                                        
SMCU20200723093800220025266040      AMV/BZBB298/040     0400000000AMV/BZBB298/040BT Broadband DRTV        2020071720200730                                        
SMCU20200723093800220025267030      WLI/WWOM012/030     0500000000WLI/WWOM012/030Weight Watchers DRTV     2020071920200731                                        
SMCU20200723093800220025268030      PGE/BEST006/030     0600000000PGE/BEST006/030Best Fiends Direct SR    2020070120200731                                        
SMCU20200723093800220025269010      WPP/GLDI089/010     0700000000WPP/GLDI089/010Glasses Direct Shared Rew2020070120200731                                        
SMCU20200723093800220025270060      SCC/BSVU135/060     0800000000SCC/BSVU135/060Neilson Financial Service2020070120200731                                        
SMCU20200723093800220025271020      HOG/GXVO994/020     0900000000HOG/GXVO994/020Novartis Voltarol Medifac2020070620200726                                        
SMCU20200723093800220025272020      AMV/ASJR281/020     1000000000AMV/ASJR281/020Asda Brand 2 HFSS (APX)  2020070620200731                                        
SMCU20200723095503720025273010      HOG/GXPI951/010     0100000000HOG/GXPI951/010Pirinase Hayfever Relief 2020070620200726                                        
SMCU20200723095503720025274020      HKX/VAVP003/020     0200000000HKX/VAVP003/020Vanish Pink Platinum     2020071320200726                                        
SMCU20200723095503720025275030      HOG/HZSA471/030     0300000000HOG/HZSA471/030Heinz Summer Sauces      2020072320200731                                        
SMCU20200723095503720025276020      HHP/SLWP203/020     0400000000HHP/SLWP203/020Sunlife GOF              2020070620200724                                        
SMCU20200723095503720025277090      DTV/SSYS003/090     0500000000DTV/SSYS003/090Sight Savers DRTV        2020070120200731                                        
SMCU20200723095503720025278010      HOG/BOOP368/010     0600000000HOG/BOOP368/010Boots Opticians          2020071020200730                                        
SMCU20200723101900320025279020      HOG/GXSE965/020     0100000000HOG/GXSE965/020Sensodyne Brand          2020070620200726                                        
SMCU20200723101900320025280030      MCM/CLEA800/030     0200000000MCM/CLEA800/030Clearscore Protect SR    2020070120200731                                        
SMCU20200723101900320025281030      CHF/STUD787/030     0300000000CHF/STUD787/030Express Gifts            2020070120200731                                        
SMCU20200723101900320025282030      IRI/HABR069/030     0400000000IRI/HABR069/030Haven Holidays DRTV      2020070820200731                                        
SMCU20200723101900320025283030      FTB/FMPA001/030     0500000000FTB/FMPA001/030FindMyPast SR            2020070620200731                                        
SMCU20200723101900320025284030      SKY/AWBS001/030     0600000000SKY/AWBS001/030Sky Now TV Entertainment 2020070120200731                                        
SMCU20200723101900320025285020      HHP/SLWP203/020     0700000000HHP/SLWP203/020Sunlife GOF              2020070620200724                                        
SMCU20200723101900320025286030      CTV/WLHH001/030     0800000000CTV/WLHH001/030Warner Leisure Hotels DRT2020072020200731                                        
SMCU20200723101900320025287020      HOG/GXVO994/020     0900000000HOG/GXVO994/020Novartis Voltarol Medifac2020070620200726                                        
SMCU20200723101900320025288030      GRY/PGPP638/030     1000000000GRY/PGPP638/030Pantene                  2020070120200731                                        
SMCU20200723104503820025289030      SHT/DPMA064/030     0100000000SHT/DPMA064/030Disney Plus Take Disney W2020070120200731                                        
SMCU20200723104503820025290030      AED/WABR245/030     0200000000AED/WABR245/030Waitrose Taste Cherry    2020072220200731                                        
SMCU20200723104503820025291030      PCH/NISW168/030     0300000000PCH/NISW168/030Nintendo Animal Crossing 2020072020200731                                        
SMCU20200723104503820025292040      IRI/SSBR023/040     0400000000IRI/SSBR023/040Staysure DRTV            2020072020200731                                        
SMCU20200723104503820025293030      PGE/BEST002/030     0500000000PGE/BEST002/030Best Fiends Direct SR    2020070120200731                                        
SMCU20200723104503820025294020      MCE/CPGT001/020     0600000000MCE/CPGT001/020Nestle Cereal Partners Re2020070620200726                                        
SMCU20200723104503820025295060      SCC/BSVU135/060     0700000000SCC/BSVU135/060Neilson Financial Service2020070120200731                                        
SMCU20200723104503820025296030      MIF/NEBU270/030     0800000000MIF/NEBU270/030Buxton Water             2020072020200731                                        
SMCU20200723105603920025297060      SCC/RLPV602/060     0100000000SCC/RLPV602/060Royal London Group Over 52020070620200731                                        
SMCU20200723105603920025298030      HOG/HZSA471/030     0200000000HOG/HZSA471/030Heinz Summer Sauces      2020072320200731                                        
SMCU20200723105603920025299030      SKY/NWCI002/030     0300000000SKY/NWCI002/030Sky Now TV Movies DRTV   2020070120200731                                        
SMCU20200723105603920025300030      GCH/KNBF005/030     0400000000GCH/KNBF005/030Gtech Air Ram            2020070620200726                                        
SMCU20200723105603920025301030      WLI/WWOM012/030     0500000000WLI/WWOM012/030Weight Watchers DRTV     2020071920200731                                        
SMCU20200723111600420025302020      VCC/TOSI369/020     0100000000VCC/TOSI369/020O2 Simo DRTV             2020070120200731                                        
SMCU20200723111600420025303030      CKC/SKHD158/030     0200000000CKC/SKHD158/030Sky Broadband DRTV       2020070120200731                                        
SMCU20200723111600420025304030      IRI/HABR070/030     0300000000IRI/HABR070/030Haven Holidays DRTV      2020070820200731                                        
SMCU20200723111600420025305020      HHP/SLWP203/020     0400000000HHP/SLWP203/020Sunlife GOF              2020070620200724                                        
SMCU20200723111600420025306010      WPP/GLDI087/010     0500000000WPP/GLDI087/010Glasses Direct Shared Rew2020070120200731                                        
SMCU20200723111600420025307030      JML/JNRC026/030     0600000000JML/JNRC026/030JML Finishing Touch Brand2020070120200731                                        
SMCU20200723111600420025308090      DTV/WVSK002/090     0700000000DTV/WVSK002/090World Vision Kema        2020070120200731                                        
SMCU20200723111600420025309010      FTB/FMPA005/010     0800000000FTB/FMPA005/010FindMyPast SR            2020070620200731                                        
SMCU20200723113500520025310010      RVE/TBCO042/010     0100000000RVE/TBCO042/010Tombola DRTV             2020070120200731                                        
SMCU20200723113500520025311020      CLD/MOHE026/020     0200000000CLD/MOHE026/020Moonpig Cards DRTV       2020070320200730                                        
SMCU20200723113500520025312030      CTV/WLHH001/030     0300000000CTV/WLHH001/030Warner Leisure Hotels DRT2020072020200731                                        
SMCU20200723113500520025313030      REP/CPNS240/030     0400000000REP/CPNS240/030Co-op Over 50s DRTV      2020070120200731                                        
SMCU20200723113500520025314030      OLI/LGFN740/030     0500000000OLI/LGFN740/030Legal & General Term Insu2020070120200731                                        
SMCU20200723113500520025315010      MSX/GLAS003/010     0600000000MSX/GLAS003/010Mister Spex              2020070120200731                                        
SMCU20200723113500520025316030      SKY/SOLP003/030     0700000000SKY/SOLP003/030Step One Clothing        2020070120200731                                        
SMCU20200723113500520025317040      IRI/SSBR023/040     0800000000IRI/SSBR023/040Staysure DRTV            2020072020200731                                        
SMCU20200723113500520025318030      SKY/AWBS001/030     0900000000SKY/AWBS001/030Sky Now TV Entertainment 2020070120200731                                        
SMCU20200723113500520025319030      INF/CRIS002/030     1000000000INF/CRIS002/030Crisis Homeless Charity  2020070320200730                                        
SMCU20200723113500520025320010      MUD/ITPH003/010     1100000000MUD/ITPH003/010Itch SR                  2020070120200731                                        
SMCU20200723115504020025321090      DTV/WVSK002/090     0100000000DTV/WVSK002/090World Vision Kema        2020070120200731                                        
SMCU20200723115504020025322030      IRI/HABR069/030     0200000000IRI/HABR069/030Haven Holidays DRTV      2020070820200731                                        
SMCU20200723115504020025323020      HHP/SLWP203/020     0300000000HHP/SLWP203/020Sunlife GOF              2020070620200724                                        
SMCU20200723115504020025324040      IRI/SSBR023/040     0400000000IRI/SSBR023/040Staysure DRTV            2020072020200731                                        
SMCU20200723122000620025325030      DTV/WFRT001/030     0100000000DTV/WFRT001/030WWF Adoptions            2020070120200731                                        
SMCU20200723122000620025326030      HOG/HZSA471/030     0200000000HOG/HZSA471/030Heinz Summer Sauces      2020072320200731                                        
SMCU20200723122000620025327060      SCC/RLPT702/060     0300000000SCC/RLPT702/060Royal London Group Over 52020070620200731                                        
SMCU20200723122000620025328020      VCC/TOHS366/020     0400000000VCC/TOHS366/020O2 Handsets              2020070120200731                                        
SMCU20200723122000620025329030      MCM/KEYR797/030     0500000000MCM/KEYR797/030Key Retirement Solutions 2020070120200731                                        
SMCU20200723122000620025330020      HKX/VACW012/020     0600000000HKX/VACW012/020Vanish Whites Washing Pow2020070120200731                                        
SMCU20200723122000620025331030      CKC/SKHD158/030     0700000000CKC/SKHD158/030Sky Broadband DRTV       2020070120200731                                        
SMCU20200723122000620025332030      BCL/AVER002/030     0800000000BCL/AVER002/030Aviva Equity Release     2020070120200731                                        
SMCU20200723122000620025333020      RVE/TBCO045/020     0900000000RVE/TBCO045/020Tombola DRTV             2020070120200731                                        
SMCU20200723124504120025334020      HHP/SLWP203/020     0100000000HHP/SLWP203/020Sunlife GOF              2020070620200724                                        
SMCU20200723124504120025335030      SAA/CROL041/030     0200000000SAA/CROL041/030Coty Clairol             2020072020200731                                        
SMCU20200723124504120025336040      PUC/MOSF001/040     0300000000PUC/MOSF001/040Pure Cremation           2020070120200731                                        
SMCU20200723124504120025337030      GCH/KNBF005/030     0400000000GCH/KNBF005/030Gtech Air Ram            2020070620200726                                        
SMCU20200723124504120025338020      VCC/TOSI369/020     0500000000VCC/TOSI369/020O2 Simo DRTV             2020070120200731                                        
SMCU20200723124504120025339020      BUR/TALW558/020     0600000000BUR/TALW558/020Always Discreet Shero    2020071520200731                                        
SMCU20200723124504120025340030      SKY/NWCI002/030     0700000000SKY/NWCI002/030Sky Now TV Movies DRTV   2020070120200731                                        
SMCU20200723124504120025341040      IRI/SSBR023/040     0800000000IRI/SSBR023/040Staysure DRTV            2020072020200731                                        
SMCU20200723124504120025342030      OPL/WFFD008/030     0900000000OPL/WFFD008/030Wiltshire Farm Foods DRTV2020070120200731                                        
SMCU20200723124504120025343010      LYG/CPBR065/010     1000000000LYG/CPBR065/010Co-op SuperSaver (MNS)   2020071520200728                                        
SMCU20200723125604220025344010      BDU/PBEE012/010     0100000000BDU/PBEE012/010Pension Bee              2020070120200731                                        
SMCU20200723125604220025345030      AED/WABR245/030     0200000000AED/WABR245/030Waitrose Taste Cherry    2020072220200731                                        
SMCU20200723125604220025346030      PPL/PPLU018/030     0300000000PPL/PPLU018/030Peoples Postcode Lottery 2020071620200723                                        
SMCU20200723125604220025347090      DTV/WVSK002/090     0400000000DTV/WVSK002/090World Vision Kema        2020070120200731                                        
SMCU20200723125604220025348020      HHP/SLWP203/020     0500000000HHP/SLWP203/020Sunlife GOF              2020070620200724                                        
SMCU20200723131400720025349030      MLL/COAT001/030     0100000000MLL/COAT001/030CCS EU Transition        2020072020200731                                        
SMCU20200723131400720025350020      TTB/SUNT351/020     0200000000TTB/SUNT351/020The Sun Superdays        2020072320200725                                        
SMCU20200723131400720025351060      SCC/RLPV602/060     0300000000SCC/RLPV602/060Royal London Group Over 52020070620200731                                        
SMCU20200723131400720025352040      PUC/MOSF001/040     0400000000PUC/MOSF001/040Pure Cremation           2020070120200731                                        
SMCU20200723131400720025353010      RVE/TBCO042/010     0500000000RVE/TBCO042/010Tombola DRTV             2020070120200731                                        
SMCU20200723131400720025354010      WPP/GLDI089/010     0600000000WPP/GLDI089/010Glasses Direct Shared Rew2020070120200731                                        
SMCU20200723131400720025355020      VCC/TOHS366/020     0700000000VCC/TOHS366/020O2 Handsets              2020070120200731                                        
SMCU20200723131400720025356030      CTV/WLHH001/030     0800000000CTV/WLHH001/030Warner Leisure Hotels DRT2020072020200731                                        
SMCU20200723131400720025357030      MCM/KEYR796/030     0900000000MCM/KEYR796/030Key Retirement Solutions 2020070120200731                                        
SMCU20200723131400720025358020      AMV/ASJR281/020     1000000000AMV/ASJR281/020Asda Brand 2 HFSS (APX)  2020070620200731                                        
SMCU20200723133400820025359010      LYG/CPBR065/010     0100000000LYG/CPBR065/010Co-op SuperSaver (MNS)   2020071520200728                                        
SMCU20200723133400820025360020      HHP/SLWP203/020     0200000000HHP/SLWP203/020Sunlife GOF              2020070620200724                                        
SMCU20200723133400820025361030      GCH/KNBF005/030     0300000000GCH/KNBF005/030Gtech Air Ram            2020070620200726                                        
SMCU20200723133400820025362030      SKY/AWBS001/030     0400000000SKY/AWBS001/030Sky Now TV Entertainment 2020070120200731                                        
SMCU20200723133400820025363030      DTV/DECV006/030     0500000000DTV/DECV006/030Disasters Emergency Commi2020071520200728                                        
SMCU20200723133400820025364010      TTB/GALA027/010     0600000000TTB/GALA027/010Galabingo DRTV           2020070120200731                                        
SMCU20200723133400820025365010      WLI/WWOM014/010     0700000000WLI/WWOM014/010Weight Watchers DRTV     2020071920200731                                        
SMCU20200723133400820025366030      JML/CHMX022/030     0800000000JML/CHMX022/030JML Chill Air Max (BAR)  2020070620200731                                        
SMCU20200723133400820025367030      IRI/HABR070/030     0900000000IRI/HABR070/030Haven Holidays DRTV      2020070820200731                                        
SMCU20200723133400820025368040      PUC/MOSF001/040     1000000000PUC/MOSF001/040Pure Cremation           2020070120200731                                        
SMCU20200723133400820025369030      MCM/CLEA800/030     1100000000MCM/CLEA800/030Clearscore Protect SR    2020070120200731                                        
SMCU20200723135604320025370010      BBU/PBEE008/010     0100000000BBU/PBEE008/010Pension Bee              2020070120200731                                        
SMCU20200723135604320025371060      ATO/CRDG040/060     0200000000ATO/CRDG040/060Cancer Research Legacy   2020071320200731                                        
SMCU20200723135604320025372040      IRI/SSBR023/040     0300000000IRI/SSBR023/040Staysure DRTV            2020072020200731                                        
SMCU20200723135604320025373010      MUD/ITGA003/010     0400000000MUD/ITGA003/010Itch SR                  2020070120200731                                        
SMCU20200723135604320025374040      AMV/BZBB318/040     0500000000AMV/BZBB318/040BT Broadband Sports DRTV 2020071720200730                                        
SMCU20200723135604320025375020      HHP/SLWP203/020     0600000000HHP/SLWP203/020Sunlife GOF              2020070620200724                                        
SMCU20200723141900920025376020      BBH/TCPD226/020     0100000000BBH/TCPD226/020Tesco APM (BAR)          2020072320200731                                        
SMCU20200723141900920025377030      KAR/PLUS517/030     0200000000KAR/PLUS517/030BT PlusNet DRTV          2020071520200731                                        
SMCU20200723141900920025378030      PPL/PPLU016/030     0300000000PPL/PPLU016/030Peoples Postcode Lottery 2020071620200723                                        
SMCU20200723141900920025379030      IRI/HABR069/030     0400000000IRI/HABR069/030Haven Holidays DRTV      2020070820200731                                        
SMCU20200723141900920025380020      BUR/TALW558/020     0500000000BUR/TALW558/020Always Discreet Shero    2020071520200731                                        
SMCU20200723141900920025381020      HHP/SLWP203/020     0600000000HHP/SLWP203/020Sunlife GOF              2020070620200724                                        
SMCU20200723141900920025382030      VTN/BPSS066/030     0700000000VTN/BPSS066/030BonPrix                  2020070120200731                                        
SMCU20200723141900920025383030      HKP/OPEN008/030     0800000000HKP/OPEN008/030Open University Branding 2020070120200731                                        
SMCU20200723141900920025384040      PUC/MOSF001/040     0900000000PUC/MOSF001/040Pure Cremation           2020070120200731                                        
SMCU20200723141900920025385020      RVE/TBCO045/020     1000000000RVE/TBCO045/020Tombola DRTV             2020070120200731                                        
SMCU20200723144404420025386090      DTV/WVSK002/090     0100000000DTV/WVSK002/090World Vision Kema        2020070120200731                                        
SMCU20200723144404420025387030      PPL/PPLU015/030     0200000000PPL/PPLU015/030Peoples Postcode Lottery 2020071620200723                                        
SMCU20200723144404420025388030      IRI/HABR070/030     0300000000IRI/HABR070/030Haven Holidays DRTV      2020070820200731                                        
SMCU20200723144404420025389030      REP/CPNS240/030     0400000000REP/CPNS240/030Co-op Over 50s DRTV      2020070120200731                                        
SMCU20200723144404420025390030      WLI/WWOM012/030     0500000000WLI/WWOM012/030Weight Watchers DRTV     2020071920200731                                        
SMCU20200723144404420025391060      SCC/RLPT702/060     0600000000SCC/RLPT702/060Royal London Group Over 52020070620200731                                        
SMCU20200723150501020025392020      HHP/SLWP203/020     0100000000HHP/SLWP203/020Sunlife GOF              2020070620200724                                        
SMCU20200723150501020025393030      WLI/WWOM012/030     0200000000WLI/WWOM012/030Weight Watchers DRTV     2020071920200731                                        
SMCU20200723150501020025394010      TTB/GALA027/010     0300000000TTB/GALA027/010Galabingo DRTV           2020070120200731                                        
SMCU20200723150501020025395030      GCH/KNBF005/030     0400000000GCH/KNBF005/030Gtech Air Ram            2020070620200726                                        
SMCU20200723150501020025396030      SCC/BSPS301/030     0500000000SCC/BSPS301/030Beagle Street            2020070120200731                                        
SMCU20200723150501020025397030      DTV/DECV006/030     0600000000DTV/DECV006/030Disasters Emergency Commi2020071520200728                                        
SMCU20200723150501020025398010      WPP/GLDI087/010     0700000000WPP/GLDI087/010Glasses Direct Shared Rew2020070120200731                                        
SMCU20200723150501020025399030      PPL/PPLU018/030     0800000000PPL/PPLU018/030Peoples Postcode Lottery 2020071620200723                                        
SMCU20200723150501020025400020      VCC/TOHS366/020     0900000000VCC/TOHS366/020O2 Handsets              2020070120200731                                        
SMCU20200723150501020025401030      MCM/CLEA800/030     1000000000MCM/CLEA800/030Clearscore Protect SR    2020070120200731                                        
SMCU20200723150501020025402020      GOC/DRTV074/020     1100000000GOC/DRTV074/020Go Compare DRTV          2020070620200731                                        
SMCU20200723150501020025403010      BBU/PBEE006/010     1200000000BBU/PBEE006/010Pension Bee              2020070120200731                                        
SMCU20200723152401120025404040      PUC/MOSF001/040     0100000000PUC/MOSF001/040Pure Cremation           2020070120200731                                        
SMCU20200723152401120025405090      DTV/WVSK002/090     0200000000DTV/WVSK002/090World Vision Kema        2020070120200731                                        
SMCU20200723152401120025406030      IRI/HABR069/030     0300000000IRI/HABR069/030Haven Holidays DRTV      2020070820200731                                        
SMCU20200723152401120025407030      MUM/TBTF002/030     0400000000MUM/TBTF002/030Thinkbox TV              2020072120200731                                        
SMCU20200723152401120025408060      SCC/RLPV602/060     0500000000SCC/RLPV602/060Royal London Group Over 52020070620200731                                        
SMCU20200723152401120025409020      CLD/MOHE026/020     0600000000CLD/MOHE026/020Moonpig Cards DRTV       2020070320200730                                        
SMCU20200723154504520025410030      GRY/PGPP638/030     0100000000GRY/PGPP638/030Pantene                  2020070120200731                                        
SMCU20200723154504520025411040      PUC/MOSF001/040     0200000000PUC/MOSF001/040Pure Cremation           2020070120200731                                        
SMCU20200723154504520025412020      HHP/SLWP203/020     0300000000HHP/SLWP203/020Sunlife GOF              2020070620200724                                        
SMCU20200723154504520025413030      IRI/HABR070/030     0400000000IRI/HABR070/030Haven Holidays DRTV      2020070820200731                                        
SMCU20200723154504520025414060      DTV/PDWI009/060     0500000000DTV/PDWI009/060PDSA Lottery DRTV        2020070120200731                                        
SMCU20200723160601220025415030      AMV/MACM005/030     0100000000AMV/MACM005/030Macmillan Cancer Coffee N2020070620200731                                        
SMCU20200723160601220025416030      WCR/MSMS066/030     0200000000WCR/MSMS066/030Money Supermarket GME    2020070120200731                                        
SMCU20200723160601220025417040      DCO/YUMV001/040     0300000000DCO/YUMV001/040Lintbells                2020070120200731                                        
SMCU20200723160601220025418020      VCC/TOHS366/020     0400000000VCC/TOHS366/020O2 Handsets              2020070120200731                                        
SMCU20200723160601220025419030      JML/FTRC039/030     0500000000JML/FTRC039/030JML Finishing Touch Brand2020070120200731                                        
SMCU20200723160601220025420030      IRI/HABR069/030     0600000000IRI/HABR069/030Haven Holidays DRTV      2020070820200731                                        
SMCU20200723160601220025421030      WLI/WWOM012/030     0700000000WLI/WWOM012/030Weight Watchers DRTV     2020071920200731                                        
SMCU20200723160601220025422060      SCC/SPSU063/060     0800000000SCC/SPSU063/060Neilson Financial Service2020070120200731                                        
SMCU20200723164004620025423030      SSC/PGHS493/030     0100000000SSC/PGHS493/030Head & Shoulders Adults  2020070820200731                                        
SMCU20200723164004620025424030      BCL/AVER002/030     0200000000BCL/AVER002/030Aviva Equity Release     2020070120200731                                        
SMCU20200723164004620025425030      ATG/KNAK444/030     0300000000ATG/KNAK444/030Actegy Revitive (BAR)    2020070120200731                                        
SMCU20200723164004620025426030      SKY/NWCI002/030     0400000000SKY/NWCI002/030Sky Now TV Movies DRTV   2020070120200731                                        
SMCU20200723164004620025427060      SCC/BSPU135/060     0500000000SCC/BSPU135/060Neilson Financial Service2020070120200731                                        
SMCU20200723164004620025428010      MUD/ITPH003/010     0600000000MUD/ITPH003/010Itch SR                  2020070120200731                                        
SMCU20200723164004620025429030      HKP/OPEN007/030     0700000000HKP/OPEN007/030Open University Branding 2020070120200731                                        
SMCU20200723164004620025430030      MCM/CLEA800/030     0800000000MCM/CLEA800/030Clearscore Protect SR    2020070120200731                                        
SMCU20200723164004620025431020      BUR/TALW558/020     0900000000BUR/TALW558/020Always Discreet Shero    2020071520200731                                        
SMCU20200723165104720025432030      DES/LVMC013/030     0100000000DES/LVMC013/030Liverpool Victoria Multi 2020071720200731                                        
SMCU20200723165104720025433030      AWN/LLOY002/030     0200000000AWN/LLOY002/030Lloyds Pharmacy          2020071320200726                                        
SMCU20200723165104720025434030      CHI/BGBR692/030     0300000000CHI/BGBR692/030British Gas Home Installa2020070120200731                                        
SMCU20200723165104720025435030      PGE/BEST007/030     0400000000PGE/BEST007/030Best Fiends Direct SR    2020070120200731                                        
SMCU20200723165104720025436030      AMV/BZBB300/030     0500000000AMV/BZBB300/030BT Broadband DRTV        2020071720200730                                        
SMCU20200723165104720025437030      REP/CPNS240/030     0600000000REP/CPNS240/030Co-op Over 50s DRTV      2020070120200731                                        
SMCU20200723171101320025438030      GNW/DYSN187/030     0100000000GNW/DYSN187/030Dyson Best Bits DRTV     2020071520200731                                        
SMCU20200723171101320025439020      TTB/ENGI003/020     0200000000TTB/ENGI003/020Energizer Max            2020072020200731                                        
SMCU20200723171101320025440010      WPP/GLDI089/010     0300000000WPP/GLDI089/010Glasses Direct Shared Rew2020070120200731                                        
SMCU20200723171101320025441060      SCC/BSVU135/060     0400000000SCC/BSVU135/060Neilson Financial Service2020070120200731                                        
SMCU20200723171101320025442060      MUM/TBTF001/060     0500000000MUM/TBTF001/060Thinkbox TV              2020072120200731                                        
SMCU20200723172701420025443060      SCC/RLPT702/060     0100000000SCC/RLPT702/060Royal London Group Over 52020070620200731                                        
SMCU20200723172701420025444030      GCH/KNBF005/030     0200000000GCH/KNBF005/030Gtech Air Ram            2020070620200726                                        
SMCU20200723172701420025445030      SKY/AWBS001/030     0300000000SKY/AWBS001/030Sky Now TV Entertainment 2020070120200731                                        
SMCU20200723172701420025446030      IRI/HABR070/030     0400000000IRI/HABR070/030Haven Holidays DRTV      2020070820200731                                        
SMCU20200723172701420025447030      OPL/WFFD008/030     0500000000OPL/WFFD008/030Wiltshire Farm Foods DRTV2020070120200731                                        
SMCU20200723174804820025448020      HSL/DBCS876/020     0100000000HSL/DBCS876/020ACDO Dr Beckmann         2020071320200731                                        
SMCU20200723174804820025449010      BJL/MMST236/010     0200000000BJL/MMST236/010Music Magpie Store Tech  2020070120200731                                        
SMCU20200723174804820025450020      HOG/GXCO978/020     0300000000HOG/GXCO978/020Corsodyl                 2020070620200726                                        
SMCU20200723174804820025451020      KAR/LIDL116/020     0400000000KAR/LIDL116/020Lidl Price Comparison    2020071620200729                                        
SMCU20200723174804820025452030      ATG/WOCL235/030     0500000000ATG/WOCL235/030Actegy Revitive (BAR)    2020070120200731                                        
SMCU20200723174804820025453020      PCH/NISW170/020     0600000000PCH/NISW170/020Nintendo Switch 51 WW Gam2020072020200726                                        
SMCU20200723174804820025454030      SSC/DLCA042/030     0700000000SSC/DLCA042/030Direct Line Core         2020070120200731                                        
SMCU20200723174804820025455010      HOG/GXPI951/010     0800000000HOG/GXPI951/010Pirinase Hayfever Relief 2020070620200726                                        
SMCU20200723174804820025456020      VCC/DOMN203/020     0900000000VCC/DOMN203/020Dominos Branding         2020072020200731                                        
SMCU20200723181701520025457030      SSC/MEBR002/030     0100000000SSC/MEBR002/030Mercedes Online Showroom 2020070120200726                                        
SMCU20200723181701520025458030      SNQ/PUBR145/030     0200000000SNQ/PUBR145/030Purplebricks GME         2020070120200726                                        
SMCU20200723181701520025459030      AMZ/MMME001/030     0300000000AMZ/MMME001/030Amazon Brand Truths      2020072020200731                                        
SMCU20200723181701520025460030      AMV/BZBB306/030     0400000000AMV/BZBB306/030BT Deals GME             2020071720200730                                        
SMCU20200723181701520025461020      BBS/HOSK005/020     0500000000BBS/HOSK005/020Skippy Peanut Butter     2020072020200731                                        
SMCU20200723181701520025462020      TAG/KTGB008/020     0600000000TAG/KTGB008/020L'Oreal Kerastase Blond A2020072020200731                                        
SMCU20200723181701520025463030      FOL/AUDI101/030     0700000000FOL/AUDI101/030Amazon Audible           2020071120200731                                        
SMCU20200723181701520025464030      AED/AAAA118/030     0800000000AED/AAAA118/030AA Branding (BAR)        2020071320200731                                        
SMCU20200723181701520025465020      YRL/BUSC001/020     0900000000YRL/BUSC001/020Buscopan                 2020071320200731                                        
SMCU20200723184004920025466030      CHI/RBNW025/030     0100000000CHI/RBNW025/030Natwest Brand            2020070420200724                                        
SMCU20200723184004920025467010      MCE/SUDO019/010     0200000000MCE/SUDO019/010Sudocrem Brand           2020071320200726                                        
SMCU20200723184004920025468015      YIG/TRIV139/015     0300000000YIG/TRIV139/015Trivago Hotel Comparison 2020071120200731                                        
SMCU20200723184004920025469030      SSC/FIAT227/030     0400000000SSC/FIAT227/030Fiat 500                 2020072020200731                                        
SMCU20200723184004920025470030      HOG/TIKT011/030     0500000000HOG/TIKT011/030TikTok                   2020070420200726                                        
SMCU20200723184004920025471020      TAG/KTGB008/020     0600000000TAG/KTGB008/020L'Oreal Kerastase Blond A2020072020200731                                        
SMCU20200723184004920025472015      YIG/TRIV139/015     0700000000YIG/TRIV139/015Trivago Hotel Comparison 2020071120200731                                        
SMCU20200723184004920025473030      TTB/PAND088/030     0800000000TTB/PAND088/030Pandora Jewellery 3 For 22020072320200731                                        
SMCU20200723184004920025474060      MLL/COAT002/060     0900000000MLL/COAT002/060CCS EU Transition        2020072020200731                                        
SMCU20200723185901620025475030      GNW/DYSN185/030     0100000000GNW/DYSN185/030Dyson Personal Care GME  2020072020200731                                        
SMCU20200723185901620025476030      AED/AAAA118/030     0200000000AED/AAAA118/030AA Branding (BAR)        2020071320200731                                        
SMCU20200723185901620025477030      HKX/OUOU019/030     0300000000HKX/OUOU019/030Open University MCH      2020070120200731                                        
SMCU20200723185901620025478030      INN/KIAM042/030     0400000000INN/KIAM042/030Kia Niro (NBA)           2020072020200731                                        
SMCU20200723185901620025479020      HOG/GXSE965/020     0500000000HOG/GXSE965/020Sensodyne Brand          2020070620200726                                        
SMCU20200723185901620025480030      MIF/NEBU270/030     0600000000MIF/NEBU270/030Buxton Water             2020072020200731                                        
SMCU20200723185901620025481030      WCR/BSKY906/030     0700000000WCR/BSKY906/030Sky Mobile Text 2 Switch 2020070320200731                                        
SMCU20200723185901620025482030      AMZ/MMFA001/030     0800000000AMZ/MMFA001/030Amazon Brand Truths      2020072020200731                                        
SMCU20200723185901620025483030      XRO/XERO004/030     0900000000XRO/XERO004/030Xero                     2020070620200726                                        
SMCU20200723185901620025484010      BJL/MMST236/010     1000000000BJL/MMST236/010Music Magpie Store Tech  2020070120200731                                        
SMCU20200723191901720025485030      DRG/AMAL015/030     0100000000DRG/AMAL015/030Amazon Just Ask Alexa    2020072020200731                                        
SMCU20200723191901720025486010      WCR/RAFR032/010     0200000000WCR/RAFR032/010CCS RAF Broad Appeal     2020072020200731                                        
SMCU20200723191901720025487015      YIG/TRIV139/015     0300000000YIG/TRIV139/015Trivago Hotel Comparison 2020071120200731                                        
SMCU20200723191901720025488030      HOG/TIKT011/030     0400000000HOG/TIKT011/030TikTok                   2020070420200726                                        
SMCU20200723191901720025489030      LYG/TAYL006/030     0500000000LYG/TAYL006/030Taylors Coffee (BAR)     2020071320200731                                        
SMCU20200723191901720025490030      ANO/CARE258/030     0600000000ANO/CARE258/030Cancer Research Appeal   2020072020200731                                        
SMCU20200723191901720025491030      AED/AAAA118/030     0700000000AED/AAAA118/030AA Branding (BAR)        2020071320200731                                        
SMCU20200723191901720025492030      FOL/AUDI101/030     0800000000FOL/AUDI101/030Amazon Audible           2020071120200731                                        
SMCU20200723191901720025493020      TAG/KTGB008/020     0900000000TAG/KTGB008/020L'Oreal Kerastase Blond A2020072020200731                                        
SMCU20200723191901720025494015      YIG/TRIV139/015     1000000000YIG/TRIV139/015Trivago Hotel Comparison 2020071120200731                                        
SMCU20200723191901720025495030      WCR/MSMS066/030     1100000000WCR/MSMS066/030Money Supermarket GME    2020070120200731                                        
SMCU20200723194005020025496030      DRG/AMAL015/030     0100000000DRG/AMAL015/030Amazon Just Ask Alexa    2020072020200731                                        
SMCU20200723194005020025497010      VCC/COMP489/010     0200000000VCC/COMP489/010Compare the Market Servic2020070120200731                                        
SMCU20200723194005020025498015      YIG/TRIV139/015     0300000000YIG/TRIV139/015Trivago Hotel Comparison 2020071120200731                                        
SMCU20200723194005020025499030      FOL/AUDI101/030     0400000000FOL/AUDI101/030Amazon Audible           2020071120200731                                        
SMCU20200723194005020025500020      TTB/SUNT351/020     0500000000TTB/SUNT351/020The Sun Superdays        2020072320200725                                        
SMCU20200723194005020025501030      AED/AAAA118/030     0600000000AED/AAAA118/030AA Branding (BAR)        2020071320200731                                        
SMCU20200723194005020025502020      TAG/KTGB008/020     0700000000TAG/KTGB008/020L'Oreal Kerastase Blond A2020072020200731                                        
SMCU20200723194005020025503015      YIG/TRIV139/015     0800000000YIG/TRIV139/015Trivago Hotel Comparison 2020071120200731                                        
SMCU20200723194005020025504010      BJL/MMST236/010     0900000000BJL/MMST236/010Music Magpie Store Tech  2020070120200731                                        
SMCU20200723200501820025505030      HKX/OUOU019/030     0100000000HKX/OUOU019/030Open University MCH      2020070120200731                                        
SMCU20200723200501820025506010      BJL/MMST236/010     0200000000BJL/MMST236/010Music Magpie Store Tech  2020070120200731                                        
SMCU20200723200501820025507030      INN/KIAM042/030     0300000000INN/KIAM042/030Kia Niro (NBA)           2020072020200731                                        
SMCU20200723200501820025508030      LYG/TAYL006/030     0400000000LYG/TAYL006/030Taylors Coffee (BAR)     2020071320200731                                        
SMCU20200723200501820025509010      CME/DLRX015/010     0500000000CME/DLRX015/010Deliveroo Restaurants Are2020070120200731                                        
SMCU20200723200501820025510010      VCC/COMP489/010     0600000000VCC/COMP489/010Compare the Market Servic2020070120200731                                        
SMCU20200723200501820025511010      CKC/SKHD157/010     0700000000CKC/SKHD157/010Sky Mobile Network of Yea2020070320200731                                        
SMCU20200723200501820025512020      HOM/HARI373/020     0800000000HOM/HARI373/020Harringtons Pet Food (BAR2020071320200726                                        
SMCU20200723200501820025513030      ANO/CARE258/030     0900000000ANO/CARE258/030Cancer Research Appeal   2020072020200731                                        
SMCU20200723200501820025514030      TTB/PAND088/030     1000000000TTB/PAND088/030Pandora Jewellery 3 For 22020072320200731                                        
SMCU20200723200501820025515030      AED/AAAA118/030     1100000000AED/AAAA118/030AA Branding (BAR)        2020071320200731                                        
SMCU20200723203201920025516030      NCA/HALF001/030     0100000000NCA/HALF001/030Halifax Brand GME        2020070620200731                                        
SMCU20200723203201920025517030      GNW/DYSN185/030     0200000000GNW/DYSN185/030Dyson Personal Care GME  2020072020200731                                        
SMCU20200723203201920025518030      SSC/DLBU041/030     0300000000SSC/DLBU041/030Direct Line DL4B Performa2020072020200726                                        
SMCU20200723203201920025519030      AED/AAAA118/030     0400000000AED/AAAA118/030AA Branding (BAR)        2020071320200731                                        
SMCU20200723203201920025520010      BJL/MMST236/010     0500000000BJL/MMST236/010Music Magpie Store Tech  2020070120200731                                        
SMCU20200723203201920025521020      TTB/ENGI003/020     0600000000TTB/ENGI003/020Energizer Max            2020072020200731                                        
SMCU20200723203201920025522030      SSC/FIAT227/030     0700000000SSC/FIAT227/030Fiat 500                 2020072020200731                                        
SMCU20200723203201920025523030      DRG/AMAL015/030     0800000000DRG/AMAL015/030Amazon Just Ask Alexa    2020072020200731                                        
SMCU20200723203201920025524030      VCC/COMP465/030     0900000000VCC/COMP465/030Compare the Market Distin2020070620200731                                        
SMCU20200723205505120025525020      MCE/PRGO010/020     0100000000MCE/PRGO010/020Nestle Purina Gourmet    2020072020200731                                        
SMCU20200723205505120025526020      CWW/LORE080/020     0200000000CWW/LORE080/020L'Oreal Elvive Colour Pro2020070620200731                                        
SMCU20200723205505120025527030      CNO/TENT010/030     0300000000CNO/TENT010/030Enterprise Rent-A-Car Bra2020071320200731                                        
SMCU20200723205505120025528030      WCR/BSKY906/030     0400000000WCR/BSKY906/030Sky Mobile Text 2 Switch 2020070320200731                                        
SMCU20200723205505120025529020      TTB/SUNT351/020     0500000000TTB/SUNT351/020The Sun Superdays        2020072320200725                                        
SMCU20200723205505120025530010      WCR/RAFR031/010     0600000000WCR/RAFR031/010CCS RAF Broad Appeal     2020072020200731                                        
SMCU20200723205505120025531030      CHI/ARGO014/030     0700000000CHI/ARGO014/030Argos Brand 2            2020070920200731                                        
SMCU20200723205505120025532020      GOC/BRND068/020     0800000000GOC/BRND068/020Go Compare Branding      2020070120200731                                        
SMCU20200723205505120025533030      LYG/TAYL006/030     0900000000LYG/TAYL006/030Taylors Coffee (BAR)     2020071320200731                                        
SMCU20200723205505120025534030      INN/KIAM042/030     1000000000INN/KIAM042/030Kia Niro (NBA)           2020072020200731                                        
SMCU20200723211502020025535020      BJL/FOXY060/020     0100000000BJL/FOXY060/020Cashcade Foxy Bingo      2020070120200731                                        
SMCU20200723211502020025536030      REP/TTYN223/030     0200000000REP/TTYN223/03021.co.uk Casino (MNE)    2020070120200731                                        
SMCU20200723211502020025537030      LYG/TAYL006/030     0300000000LYG/TAYL006/030Taylors Coffee (BAR)     2020071320200731                                        
SMCU20200723211502020025538030      AED/AAAA118/030     0400000000AED/AAAA118/030AA Branding (BAR)        2020071320200731                                        
SMCU20200723211502020025539020      MCE/CPGT001/020     0500000000MCE/CPGT001/020Nestle Cereal Partners Re2020070620200726                                        
SMCU20200723211502020025540020      VCC/DOMN203/020     0600000000VCC/DOMN203/020Dominos Branding         2020072020200731                                        
SMCU20200723211502020025541030      DRG/AMAL015/030     0700000000DRG/AMAL015/030Amazon Just Ask Alexa    2020072020200731                                        
SMCU20200723211502020025542020      TAG/KTGB008/020     0800000000TAG/KTGB008/020L'Oreal Kerastase Blond A2020072020200731                                        
SMCU20200723211502020025543010      MIF/MORR821/010     0900000000MIF/MORR821/010Morrisons Offer 3 HFSS GM2020072020200725                                        
SMCU20200723213502120025544020      TAG/VOGB022/020     0100000000TAG/VOGB022/020Volvo Hybrid Range GME   2020071320200726                                        
SMCU20200723213502120025545010      VCC/COMP489/010     0200000000VCC/COMP489/010Compare the Market Servic2020070120200731                                        
SMCU20200723213502120025546030      GNW/DYSN185/030     0300000000GNW/DYSN185/030Dyson Personal Care GME  2020072020200731                                        
SMCU20200723213502120025547030      PCH/WLLH026/030     0400000000PCH/WLLH026/030William Hill Gaming (MNE)2020070120200731                                        
SMCU20200723213502120025548020      BBH/TCPD226/020     0500000000BBH/TCPD226/020Tesco APM (BAR)          2020072320200731                                        
SMCU20200723213502120025549030      AED/AAAA118/030     0600000000AED/AAAA118/030AA Branding (BAR)        2020071320200731                                        
SMCU20200723213502120025550030      DRG/AMAL015/030     0700000000DRG/AMAL015/030Amazon Just Ask Alexa    2020072020200731                                        
SMCU20200723213502120025551020      HOG/GXSE965/020     0800000000HOG/GXSE965/020Sensodyne Brand          2020070620200726                                        
SMCU20200723213502120025552020      BJL/FOXY063/020     0900000000BJL/FOXY063/020Cashcade Foxy Games      2020070120200731                                        
SMCU20200723215205220025553010      WCR/RAFR032/010     0100000000WCR/RAFR032/010CCS RAF Broad Appeal     2020072020200731                                        
SMCU20200723215205220025554030      BBH/LAPR005/030     0200000000BBH/LAPR005/030Ladbrokes Casino         2020070120200731                                        
SMCU20200723215205220025555010      HOG/GXPI951/010     0300000000HOG/GXPI951/010Pirinase Hayfever Relief 2020070620200726                                        
SMCU20200723215205220025556030      TAG/TOGB307/030     0400000000TAG/TOGB307/030Toyota Hybrid GME        2020072020200726                                        
SMCU20200723215205220025557060      JWT/ZSLA009/060     0500000000JWT/ZSLA009/060ZSL London Zoo (PRO)     2020072020200731                                        
SMCU20200723215205220025558020      HOG/GXCO978/020     0600000000HOG/GXCO978/020Corsodyl                 2020070620200726                                        
SMCU20200723215205220025559020      BJL/FOXY062/020     0700000000BJL/FOXY062/020Cashcade Foxy Bingo      2020070120200731                                        
SMCU20200723221202220025560010      VCC/COMP489/010     0100000000VCC/COMP489/010Compare the Market Servic2020070120200731                                        
SMCU20200723221202220025561020      TAG/VOGB022/020     0200000000TAG/VOGB022/020Volvo Hybrid Range GME   2020071320200726                                        
SMCU20200723221202220025562020      BJL/FOXY063/020     0300000000BJL/FOXY063/020Cashcade Foxy Games      2020070120200731                                        
SMCU20200723221202220025563020      HOG/GXVO994/020     0400000000HOG/GXVO994/020Novartis Voltarol Medifac2020070620200726                                        
SMCU20200723221202220025564030      ALP/SOOW013/030     0500000000ALP/SOOW013/030Sofology (BAR)           2020070920200729                                        
SMCU20200723221202220025565010      MUM/KFVA269/010     0600000000MUM/KFVA269/010KFC Disruptive Value     2020070620200731                                        
SMCU20200723221202220025566020      AMV/ASJR281/020     0700000000AMV/ASJR281/020Asda Brand 2 HFSS (APX)  2020070620200731                                        
SMCU20200723221202220025567030      DRG/AMAL015/030     0800000000DRG/AMAL015/030Amazon Just Ask Alexa    2020072020200731                                        
SMCU20200723221202220025568030      FOW/SKYV275/030     0900000000FOW/SKYV275/030Sky Bet Vegas Prize Machi2020070120200723                                        
SMCU20200723221202220025569020      HOG/GXSE965/020     1000000000HOG/GXSE965/020Sensodyne Brand          2020070620200726                                        
SMCU20200723221202220025570030      NCA/HALF001/030     1100000000NCA/HALF001/030Halifax Brand GME        2020070620200731                                        
SMCU20200723222602320025571030      JLN/USWT024/030     0100000000JLN/USWT024/030Uswitch Brand (BAR)      2020072020200731                                        
SMCU20200723222602320025572030      AED/AAAA118/030     0200000000AED/AAAA118/030AA Branding (BAR)        2020071320200731                                        
SMCU20200723222602320025573030      LYG/FVTR002/030     0300000000LYG/FVTR002/030Fever Tree (NBA)         2020071620200731                                        
SMCU20200723222602320025574030      INN/KIAM042/030     0400000000INN/KIAM042/030Kia Niro (NBA)           2020072020200731                                        
SMCU20200723222602320025575020      BBH/TCPD226/020     0500000000BBH/TCPD226/020Tesco APM (BAR)          2020072320200731                                        
SMCU20200723222602320025576010      CME/DLRX014/010     0600000000CME/DLRX014/010Deliveroo Restaurants Are2020070120200731                                        
SMCU20200723222602320025577030      GNW/DYSN185/030     0700000000GNW/DYSN185/030Dyson Personal Care GME  2020072020200731                                        
SMCU20200723222602320025578030      WHG/WLLH005/030     0800000000WHG/WLLH005/030William Hill Gaming (MNE)2020070120200731                                        
SMCU20200723222602320025579030      AMZ/MMFA001/030     0900000000AMZ/MMFA001/030Amazon Brand Truths      2020072020200731                                        
SMCU20200723222602320025580030      LYG/TAYL006/030     1000000000LYG/TAYL006/030Taylors Coffee (BAR)     2020071320200731                                        
SMCU20200723225602420025581030      JLN/USWT024/030     0100000000JLN/USWT024/030Uswitch Brand (BAR)      2020072020200731                                        
SMCU20200723225602420025582030      AED/AAAA118/030     0200000000AED/AAAA118/030AA Branding (BAR)        2020071320200731                                        
SMCU20200723225602420025583030      LYG/FVTR002/030     0300000000LYG/FVTR002/030Fever Tree (NBA)         2020071620200731                                        
SMCU20200723225602420025584030      INN/KIAM042/030     0400000000INN/KIAM042/030Kia Niro (NBA)           2020072020200731                                        
SMCU20200723225602420025585020      BBH/TCPD226/020     0500000000BBH/TCPD226/020Tesco APM (BAR)          2020072320200731                                        
SMCU20200723225602420025586010      CME/DLRX019/010     0600000000CME/DLRX019/010Deliveroo Restaurants Are2020070120200731                                        
SMCU20200723225602420025587030      GNW/DYSN185/030     0700000000GNW/DYSN185/030Dyson Personal Care GME  2020072020200731                                        
SMCU20200723225602420025588030      WHG/WLLH005/030     0800000000WHG/WLLH005/030William Hill Gaming (MNE)2020070120200731                                        
SMCU20200723225602420025589030      AMZ/MMME001/030     0900000000AMZ/MMME001/030Amazon Brand Truths      2020072020200731                                        
SMCU20200723225602420025590030      LYG/TAYL006/030     1000000000LYG/TAYL006/030Taylors Coffee (BAR)     2020071320200731                                        
SMCU20200723232202520025591030      JLN/USWT024/030     0100000000JLN/USWT024/030Uswitch Brand (BAR)      2020072020200731                                        
SMCU20200723232202520025592030      LYG/FVTR002/030     0200000000LYG/FVTR002/030Fever Tree (NBA)         2020071620200731                                        
SMCU20200723232202520025593030      PCH/LADS014/030     0300000000PCH/LADS014/030Entertainment Ladbrokes F2020070120200731                                        
SMCU20200723232202520025594030      SSC/FIAT227/030     0400000000SSC/FIAT227/030Fiat 500                 2020072020200731                                        
SMCU20200723232202520025595010      WCR/RAFR031/010     0500000000WCR/RAFR031/010CCS RAF Broad Appeal     2020072020200731                                        
SMCU20200723232202520025596030      LYG/CPFD074/030     0600000000LYG/CPFD074/030Co-op Donate (MNS)       2020071520200731                                        
SMCU20200723232202520025597060      MUM/TBTF001/060     0700000000MUM/TBTF001/060Thinkbox TV              2020072020200731                                        
SMCU20200723232202520025598030      CNS/TTRD033/030     0800000000CNS/TTRD033/03032 Red Online Casino     2020070120200731                                        
SMCU20200723232202520025599020      VCC/EAJT350/020     0900000000VCC/EAJT350/020EasyJet Flights          2020072120200731                                        
SMCU20200723235502620025600020      TTB/GALA020/020     0100000000TTB/GALA020/020Galabingo.co.uk          2020070120200731                                        
SMCU20200723235502620025601020      PCH/LADS013/020     0200000000PCH/LADS013/020Ladbrokes Casino         2020070120200731                                        
SMCU20200723235502620025602060      YRL/VIAG007/060     0300000000YRL/VIAG007/060Pfizer Viagra (BAR)      2020071320200731                                        
SMCU20200723235502620025603030      SSC/PGGL007/030     0400000000SSC/PGGL007/030Gillette Male Shavecare  2020070120200731                                        
SMCU20200723235502620025604090      MCP/AAAM021/090     0500000000MCP/AAAM021/090Action Aid Regular Giving2020070120200731                                        
SMCU20200723235502620025605030      BUC/PGCP003/030     0600000000BUC/PGCP003/030Seven Seas Cod Liver Oil 2020070120200731                                        
SMCU20200723235502620025606020      MCM/ASSS987/020     0700000000MCM/ASSS987/020Aldi Core HFSS 4         2020071820200728                                        
SMCU20200723242905320025607030      BBH/BBPR672/030     0100000000BBH/BBPR672/030Barclays Retail          2020070120200731                                        
SMCU20200723242905320025608060      MLL/COAT002/060     0200000000MLL/COAT002/060CCS EU Transition        2020072020200731                                        
SMCU20200723242905320025609010      MCE/MMPO011/010     0300000000MCE/MMPO011/010OJO Casino               2020070120200731                                        
SMCU20200723242905320025610030      TTB/PAND088/030     0400000000TTB/PAND088/030Pandora Jewellery 3 For 22020072320200731                                        
SMCU20200723242905320025611030      SAA/CROL041/030     0500000000SAA/CROL041/030Coty Clairol             2020072020200731                                        
SMCU20200723242905320025612030      INN/KIAM042/030     0600000000INN/KIAM042/030Kia Niro (NBA)           2020072020200731                                        
SMCU20200723242905320025613030      DRG/AMAL015/030     0700000000DRG/AMAL015/030Amazon Just Ask Alexa    2020072020200731                                        
SMCU20200723242905320025614020      DAA/BABL007/020     0800000000DAA/BABL007/020Babbel                   2020070120200731                                        
SMCU20200723242905320025615030      TTB/GALS010/030     0900000000TTB/GALS010/030Gala Spins               2020070120200731                                        
SMCU20200723244902720025616030      SSC/PGHS493/030     0100000000SSC/PGHS493/030Head & Shoulders Adults  2020070820200731                                        
SMCU20200723244902720025617030      HOG/RKSH466/030     0200000000HOG/RKSH466/030Scholl Aid               2020070620200726                                        
SMCU20200723244902720025618030      SSC/FIAT227/030     0300000000SSC/FIAT227/030Fiat 500                 2020072020200731                                        
SMCU20200723244902720025619030      SHT/DPMA068/030     0400000000SHT/DPMA068/030Disney Plus Take Disney W2020070120200731                                        
SMCU20200723244902720025620030      MUM/TBTF002/030     0500000000MUM/TBTF002/030Thinkbox TV              2020072120200731                                        
SMCU20200723244902720025621030      CNS/TTRD033/030     0600000000CNS/TTRD033/03032 Red Online Casino     2020070120200731                                        
SMCU20200723244902720025622030      WCR/RAFR026/030     0700000000WCR/RAFR026/030CCS RAF Broad Appeal     2020072020200731                                        
SMCU20200723250602820025623030      SKY/SOLP003/030     0100000000SKY/SOLP003/030Step One Clothing        2020070120200731                                        
SMCU20200723250602820025624020      HKX/VAVP003/020     0200000000HKX/VAVP003/020Vanish Pink Platinum     2020071320200726                                        
SMCU20200723250602820025625060      YRL/VIAG007/060     0300000000YRL/VIAG007/060Pfizer Viagra (BAR)      2020071320200731                                        
SMCU20200723250602820025626030      MIF/NEBU270/030     0400000000MIF/NEBU270/030Buxton Water             2020072020200731                                        
SMCU20200723250602820025627030      SHT/DPMA068/030     0500000000SHT/DPMA068/030Disney Plus              2020070120200731                                        
SMCU20200723250602820025628020      MCE/MMPO028/020     0600000000MCE/MMPO028/020OJO Casino               2020070120200731                                        
SMCU20200723250602820025629020      HKX/VACW012/020     0700000000HKX/VACW012/020Vanish Whites Washing Pow2020070120200731                                        
SMCU20200723252705420025630020      TAG/CBGB758/020     0100000000TAG/CBGB758/020Cillit Bang              2020070120200731                                        
SMCU20200723252705420025631020      SAA/RIMM884/020     0200000000SAA/RIMM884/020Rimmel Lash Scandaleyes  2020071520200731                                        
SMCU20200723252705420025632020      WKU/BAUK038/020     0300000000WKU/BAUK038/020Babbel                   2020070120200731                                        
SMCU20200723252705420025633030      CNS/TTRD033/030     0400000000CNS/TTRD033/03032 Red Online Casino     2020070120200731                                        
SMCU20200723252705420025634030      SAA/CROL041/030     0500000000SAA/CROL041/030Coty Clairol             2020072020200731                                        
SMCU20200723252705420025635060      MLL/COAT002/060     0600000000MLL/COAT002/060CCS EU Transition        2020072020200731                                        
SMCU20200723254702920025636030      SSC/PGHS493/030     0100000000SSC/PGHS493/030Head & Shoulders Adults  2020070820200731                                        
SMCU20200723254702920025637020      VCC/EAJT350/020     0200000000VCC/EAJT350/020EasyJet Flights          2020072120200731                                        
SMCU20200723254702920025638030      TTB/PAND088/030     0300000000TTB/PAND088/030Pandora Jewellery 3 For 22020072320200731                                        
SMCU20200723254702920025639030      FOW/SKYB873/030     0400000000FOW/SKYB873/030Entertainment Sky Bet Spo2020070120200731                                        
SMCU20200723254702920025640010      CME/DLRX017/010     0500000000CME/DLRX017/010Deliveroo Restaurants Are2020070120200731                                        
SMCU20200723254702920025641030      SHT/DPMA068/030     0600000000SHT/DPMA068/030Disney Plus Take Disney W2020070120200731                                        
SMCU20200723254702920025642030      SKY/SOLP003/030     0700000000SKY/SOLP003/030Step One Clothing        2020070120200731                                        
SMCU20200723254702920025643030      DRG/AMAL015/030     0800000000DRG/AMAL015/030Amazon Just Ask Alexa    2020072020200731                                        
SMCU20200723254702920025644030      CNS/TTRD033/030     0900000000CNS/TTRD033/03032 Red Online Casino     2020070120200731                                        
SMCU20200723254702920025645030      SSC/FIAT227/030     1000000000SSC/FIAT227/030Fiat 500                 2020072020200731                                        
SMCU20200723260803020025646030      INN/KIAM042/030     0100000000INN/KIAM042/030Kia Niro (NBA)           2020072020200731                                        
SMCU20200723260803020025647020      HKX/VACW012/020     0200000000HKX/VACW012/020Vanish Whites Washing Pow2020070120200731                                        
SMCU20200723260803020025648030      HOG/RKSH466/030     0300000000HOG/RKSH466/030Scholl Aid               2020070620200726                                        
SMCU20200723260803020025649020      TTB/ENGI003/020     0400000000TTB/ENGI003/020Energizer Max            2020072020200731                                        
SMCU20200723260803020025650030      CNS/TTRD033/030     0500000000CNS/TTRD033/03032 Red Online Casino     2020070120200731                                        
SMCU20200723260803020025651020      HKX/VAVP003/020     0600000000HKX/VAVP003/020Vanish Pink Platinum     2020071320200726                                        
SMCU20200723260803020025652060      YRL/VIAG007/060     0700000000YRL/VIAG007/060Pfizer Viagra (BAR)      2020071320200731                                        
SMCU20200723260803020025653030      BBH/BBPR672/030     0800000000BBH/BBPR672/030Barclays Retail          2020070120200731                                        
SMCU20200723263405520025654020      TTB/GALA020/020     0100000000TTB/GALA020/020Galabingo.co.uk          2020070120200731                                        
SMCU20200723263405520025655020      HOG/NOBE618/020     0200000000HOG/NOBE618/020Birds Eye Coated Fish NHF2020070620200731                                        
SMCU20200723263405520025656020      DAA/BABL007/020     0300000000DAA/BABL007/020Babbel                   2020070120200731                                        
SMCU20200723263405520025657030      MCE/SUDO017/030     0400000000MCE/SUDO017/030Sudocrem Brand           2020071320200726                                        
SMCU20200723263405520025658020      TTB/SUNT351/020     0500000000TTB/SUNT351/020The Sun Superdays        2020072320200725                                        
SMCU20200723263405520025659020      PCH/NISW170/020     0600000000PCH/NISW170/020Nintendo Switch 51 WW Gam2020072020200726                                        
SMCU20200723263405520025660030      MUM/TBTF002/030     0700000000MUM/TBTF002/030Thinkbox TV              2020072120200731                                        
SMCU20200723263405520025661020      HOG/NOBE621/020     0800000000HOG/NOBE621/020Birds Eye Pea Protein    2020071320200731                                        
SMCU20200723263405520025662030      REP/LEOV237/030     0900000000REP/LEOV237/030Leo Vegas IPS (MNE)      2020070120200731                                        
SMCU20200723263405520025663030      WCR/RAFR027/030     1000000000WCR/RAFR027/030CCS RAF Broad Appeal     2020072020200731                                        
SMCU20200723265603120025664020      BJL/FOXY063/020     0100000000BJL/FOXY063/020Cashcade Foxy Games      2020070120200731                                        
SMCU20200723265603120025665020      MCM/ASSS987/020     0200000000MCM/ASSS987/020Aldi Core HFSS 4         2020071820200728                                        
SMCU20200723265603120025666030      BUR/TBLD006/030     0300000000BUR/TBLD006/030Bold Washing Powder      2020070120200731                                        
SMCU20200723265603120025667020      BUR/TALW558/020     0400000000BUR/TALW558/020Always Discreet Shero    2020071520200731                                        
SMCU20200723265603120025668030      BUR/TFLA184/030     0500000000BUR/TFLA184/030Flash H                  2020070120200731                                        
SMCU20200723265603120025669030      SAA/CROL041/030     0600000000SAA/CROL041/030Coty Clairol             2020072020200731                                        
SMCU20200723265603120025670030      CNS/TTRD033/030     0700000000CNS/TTRD033/03032 Red Online Casino     2020070120200731                                        
SMCU20200723265603120025671030      EGP/PGFB044/030     0800000000EGP/PGFB044/030Febreze Refresher        2020070120200731                                        
SMCU20200723265603120025672060      MLL/COAT002/060     0900000000MLL/COAT002/060CCS EU Transition        2020072020200731                                        
SMCU20200723273003220025673030      SSC/PGGL007/030     0100000000SSC/PGGL007/030Gillette Male Shavecare  2020070120200731                                        
SMCU20200723273003220025674030      AED/WABR244/030     0200000000AED/WABR244/030Waitrose Taste Wine      2020072220200731                                        
SMCU20200723273003220025675030      SSC/PGHS493/030     0300000000SSC/PGHS493/030Head & Shoulders Adults  2020070820200731                                        
SMCU20200723273003220025676030      VCC/CADM073/030     0400000000VCC/CADM073/030Cadbury Dairy Milk (BAR) 2020070620200726                                        
SMCU20200723273003220025677030      BUC/PGCP003/030     0500000000BUC/PGCP003/030Seven Seas Cod Liver Oil 2020070120200731                                        
SMCU20200723273003220025678030      MIF/NEBU270/030     0600000000MIF/NEBU270/030Buxton Water             2020072020200731                                        
SMCU20200723273003220025679030      SHT/DPMA068/030     0700000000SHT/DPMA068/030Disney Plus Take Disney W2020070120200731                                        
SMCU20200723273003220025680030      REC/PICA003/030     0800000000REC/PICA003/030Pink Casino (MNE)        2020070120200731                                        
SMCU20200723273003220025681030      BUR/TLEN010/030     0900000000BUR/TLEN010/030Lenor Fabric Conditioner 2020070120200731                                        
SMCU20200723275403320025682020      QST/DNHA083/020     0100000000QST/DNHA083/020Haribo Supermix          2020072020200731                                        
SMCU20200723275403320025683020      BBH/TCPD226/020     0200000000BBH/TCPD226/020Tesco APM (BAR)          2020072320200731                                        
SMCU20200723275403320025684020      MCE/CPGT001/020     0300000000MCE/CPGT001/020Nestle Cereal Partners Re2020070620200726                                        
SMCU20200723275403320025685020      TTB/ENGI003/020     0400000000TTB/ENGI003/020Energizer Max            2020072020200731                                        
SMCU20200723275403320025686030      CNS/TTRD033/030     0500000000CNS/TTRD033/03032 Red Online Casino     2020070120200731                                        
SMCU20200723275403320025687020      WKU/BAUK038/020     0600000000WKU/BAUK038/020Babbel                   2020070120200731                                        
SMCU20200723275403320025688020      HOG/NOBE618/020     0700000000HOG/NOBE618/020Birds Eye Coated Fish NHF2020070620200731                                        
SMCU20200723275403320025689020      PCH/NISW170/020     0800000000PCH/NISW170/020Nintendo Switch 51 WW Gam2020072020200726                                        
SMCU20200723275403320025690030      BUR/TFLA184/030     0900000000BUR/TFLA184/030Flash H                  2020070120200731                                        
SMCU20200723275403320025691030      SHT/DPMA064/030     1000000000SHT/DPMA064/030Disney Plus              2020070120200731                                        
SMCU20200723275403320025692020      HOG/NOBE621/020     1100000000HOG/NOBE621/020Birds Eye Pea Protein    2020071320200731                                        
SMCU20200723275403320025693020      TTB/GALA026/020     1200000000TTB/GALA026/020Galabingo.co.uk          2020070120200731                                        
SMCU20200723281605620025694010      WCR/RAFR032/010     0100000000WCR/RAFR032/010CCS RAF Broad Appeal     2020072020200731                                        
SMCU20200723281605620025695060      MUM/TBTF001/060     0200000000MUM/TBTF001/060Thinkbox TV              2020072120200731                                        
SMCU20200723281605620025696030      REP/SLOT238/030     0300000000REP/SLOT238/030Slotboss.co.uk (MNE)     2020070120200731                                        
SMCU20200723281605620025697020      TTB/SUNT351/020     0400000000TTB/SUNT351/020The Sun Superdays        2020072320200725                                        
SMCU20200723283603420025698030      SHT/DPMA064/030     0100000000SHT/DPMA064/030Disney Plus Take Disney W2020070120200731                                        
SMCU20200723283603420025699030      MIF/NEBU270/030     0200000000MIF/NEBU270/030Buxton Water             2020072020200731                                        
SMCU20200723283603420025700030      SKY/SOLP003/030     0300000000SKY/SOLP003/030Step One Clothing        2020070120200731                                        
SMCU20200723283603420025701030      MCE/SUDO015/030     0400000000MCE/SUDO015/030Sudocrem Brand           2020071320200726                                        
SMCU20200723291003520025702030      TTB/GALS010/030     0100000000TTB/GALS010/030Gala Spins               2020070120200731                                        
SMCU20200723291003520025703010      CME/DLRX018/010     0200000000CME/DLRX018/010Deliveroo Restaurants Are2020070120200731                                        
SMCU20200723291003520025704030      GNW/DYSN185/030     0300000000GNW/DYSN185/030Dyson Personal Care GME  2020072020200731                                        
SMCU20200723291003520025705030      SKY/SOLP003/030     0400000000SKY/SOLP003/030Step One Clothing        2020070120200731                                        
SMCU20200723291003520025706020      DAA/BABL007/020     0500000000DAA/BABL007/020Babbel                   2020070120200731                                        
SMCU20200723293303620025707030      GRY/PGPP638/030     0100000000GRY/PGPP638/030Pantene                  2020070120200731                                        
SMCU20200723293303620025708030      SSC/PWER010/030     0200000000SSC/PWER010/030Oral B Power             2020070120200731                                        
SMCU20200723293303620025709030      HOG/PGOL507/030     0300000000HOG/PGOL507/030Olay                     2020070120200731                                        
SMCU20200723293303620025710030      BUR/TBLD006/030     0400000000BUR/TBLD006/030Bold Washing Powder      2020070120200731                                        
SMCU20200723295505720025711030      WCR/RAFR026/030     0100000000WCR/RAFR026/030CCS RAF Broad Appeal     2020072020200731                                        
SMCU20200723295505720025712030      BUR/TFLA185/030     0200000000BUR/TFLA185/030Flash Q                  2020070120200731                                        
SMCU20200723295505720025713030      MUM/TBTF002/030     0300000000MUM/TBTF002/030Thinkbox TV              2020072120200731                                        
SMCU20200723295505720025714030      BUR/TLEN010/030     0400000000BUR/TLEN010/030Lenor Fabric Conditioner 2020070120200731                                        
