0ADAGDSCHED210430150225                                                                                                                                                                                                                                                    
3S4CD1210504075500840862555000000000A08530A0853000000654890000814419210501210530We Buy Any Car Direct              030000000000  0305V7994    BRO/WBAC047/030                                                                   000000000                                          CS00E0005912799         N07550000090+00000E
3S4CD1210504075530837467464000000000A02951B0013300000117290000818612210501210531Glasses Direct                     030000000000  0305W1068    WPP/GLDI110/030                                                                   000000000                                          CS00E0005912799         N07550000090+00000E
3S4CD1210504075600840062404000000000A08846B0098100000682200000820533210501210531FIVERR DRTV                        010000000000  0105V2304    RTN/FIVR002/010                                                                   000000000                                          CS00E0005912799         N07550000090+00000E
3S4CD1210504075610837442428000000000A06893B0001200000663280000818574210503210531My Tutor                           010000000000  0105E9310    ABF/MTHS002/010                                                                   000000000                                          CS00E0005912799         N07550000090+00000E
3S4CD1210504075620840738927000000000A06687B0130800000645420000815973210501210531Lebara SR (BAR)                    010000000000  0105V0677    PCH/SALE002/010                                                                   000000000                                          CS00E0005912799         N07550000090+00000E
3S4CD1210504095500840738928000000000A06687B0130800000645420000815973210501210531Lebara SR (BAR)                    010000000000  0105V0677    PCH/SALE002/010                                                                   000000000                                          CS00E0005912800         N09550000090+00000E
3S4CD1210504095510840755635000000000A06893B0001200000663280000818574210503210531My Tutor                           010000000000  0105E9310    ABF/MTHS002/010                                                                   000000000                                          CS00E0005912800         N09550000090+00000E
3S4CD1210504095520836806448000000000A02860B0012400000663710000817486210501210516Hotter Shoes SR                    030000000000  0305W4747    MCL/HSSS007/030                                                                   000000000                                          CS00E0005912800         N09550000090+00000E
3S4CD1210504095550836361248000000000A07605B0013800000509800000816420210501210530Barclays Barclaycard Brand         030000000000  0305W4775    DRG/BARC066/030                                                                   000000000                                          CS00E0005912800         N09550000090+00000E
3S4CD1210504095620840862556000000000A01734B0170700000695070000818000210502210531Money Supermarket Car GME          010000000000  0105W5845    WCR/MSMS089/010                                                                   000000000                                          CS00E0005912800         N09550000090+00000E
3S4CD1210504115500840865645000000000A01276B0057000000570210000818405210503210523Nurofen Body                       020000000000  0205W4642    MCE/RBNF014/020                                                                   000000000                                          CS00E0005912989         N11550000180+00000E
3S4CD1210504115520840865703000000000A02018B0008500000003530000815822210504210523BUPA DRTV                          030000000000  0305W5968    DIN/BUPA008/030                                                                   000000000                                          CS00E0005912989         N11550000180+00000E
3S4CD1210504115550840188011000000000A07358A0735800000623020000815980210501210531Peloton Direct SR                  030000000000  0305W2161    MKN/PEBI024/030                                                                   000000000                                          CS00E0005912989         N11550000180+00000E
3S4CD1210504115620840738929000000000A06687B0130800000645420000815973210501210531Lebara SR (BAR)                    010000000000  0105V0677    PCH/SALE002/010                                                                   000000000                                          CS00E0005912989         N11550000180+00000E
3S4CD1210504115630840626332000000000A01146B0031800000643420000821062210503210531Ocean Finance Loan Shared Reward   030000000000  0305W4163    ABF/OFMH007/030                                                                   000000000                                          CS00E0005912989         N11550000180+00000E
3S4CD1210504115700840197663000000000A02479B0020300000574310000817550210504210528Legal & General Term Insurance     030000000000  0305E4088    OLI/LGFN740/030                                                                   000000000                                          CS00E0005912989         N11550000180+00000E
3S4CD1210504115730840197664000000000A06809B0001200000518850000818573210503210531Just Fab                           030000000000  0305V2042    JUF/JFAB051/030                                                                   000000000                                          CS00E0005912989         N11550000180+00000E
3S4CD1210504120300840863118000000000A00546A0054600000189110000816737210503210531Hotels.com (BAR)                   020000000000  0205W1091    SDL/HOWW003/020                                                                   000000000                                          CS00E0005912801         N12030000090+00000E
3S4CD1210504120320840626486000000000A07629B0001200000650820000818876210503210531Parsley Box                        020000000000  0205W5894    GRF/PBCH001/020                                                                   000000000                                          CS00E0005912801         N12030000090+00000E
3S4CD1210504120340840739010000000000A06687B0130800000645420000815973210501210531Lebara SR (BAR)                    010000000000  0105V0677    PCH/SALE002/010                                                                   000000000                                          CS00E0005912801         N12030000090+00000E
3S4CD1210504120350840669281000000000A06893B0001200000663280000818574210503210531My Tutor                           010000000000  0105E9310    ABF/MTHS002/010                                                                   000000000                                          CS00E0005912801         N12030000090+00000E
3S4CD1210504120400840628977000000000A08221B0081100000646470000817745210501210531FindMyPast SR                      030000000000  0305W3957    FTB/FMPM003/030                                                                   000000000                                          CS00E0005912801         N12030000090+00000E
3S4CD1210504121730836511005000000000A02860B0012400000663710000817486210501210516Hotter Shoes SR                    030000000000  0305W4748    MCL/HSSS006/030                                                                   000000000                                          CS00C0005912802         N12173000060+00000C
3S4CD1210504121800840862768000000000A03653B0022200000200580000816586210501210531Intuit Quickbooks Brand            020000000000  0205W5409    WKU/QBUK015/020                                                                   000000000                                          CS00C0005912802         N12173000060+00000C
3S4CD1210504121820840738930000000000A06687B0130800000645420000815973210501210531Lebara SR (BAR)                    010000000000  0105V0677    PCH/SALE002/010                                                                   000000000                                          CS00C0005912802         N12173000060+00000C
3S4CD1210504124500840739157000000000A04813B0013300000322630000817725210503210516Oaktree Mobility                   030000000000  0305V9476    VEL/OTMA001/030                                                                   000000000                                          CS00C0005912804         N12450000180+00000C
3S4CD1210504124530840706082000000000A04629B0014500000656480000819527210501210531Confused Rewards                   010000000000  0105W5640    KAR/CONF131/010                                                                   000000000                                          CS00C0005912804         N12450000180+00000C
3S4CD1210504124540837505127000000000A02951B0013300000117290000818612210501210531Glasses Direct                     030000000000  0305W1068    WPP/GLDI110/030                                                                   000000000                                          CS00C0005912804         N12450000180+00000C
3S4CD1210504124610840626307000000000A07629B0001200000650820000818876210503210531Parsley Box                        020000000000  0205W5894    GRF/PBCH001/020                                                                   000000000                                          CS00C0005912804         N12450000180+00000C
3S4CD1210504124630840738931000000000A06687B0130800000645420000815973210501210531Lebara SR (BAR)                    010000000000  0105V0677    PCH/SALE002/010                                                                   000000000                                          CS00C0005912804         N12450000180+00000C
3S4CD1210504124640837465046000000000A06893B0001200000663280000818574210503210531My Tutor                           010000000000  0105E9310    ABF/MTHS002/010                                                                   000000000                                          CS00C0005912804         N12450000180+00000C
3S4CD1210504124650840621657000000000A00134B0144800000557830000817838210504210528Sunlife GOF                        030000000000  0305V8296    HHP/SLHS305/030                                                                   000000000                                          CS00C0005912804         N12450000180+00000C
3S4CD1210504124720840865702000000000A00091B0019100000542590000814802210501210531Ancestry Family History            020000000000  0205W4160    ANO/ANCY152/020                                                                   000000000                                          CS00C0005912804         N12450000180+00000C
3S4CD1210504124740836890252000000000A09087A0908700000688750000815904210501210531Verisure International             020000000000  0205W5751    TCS/VERI006/020                                                                   000000000                                          CS00C0005912804         N12450000180+00000C
3S4CD1210504130000836915125000000000A00134B0144800000557830000817838210504210528Sunlife GOF                        030000000000  0305V8297    HHP/SLLA006/030                                                                   000000000                                          CS00C0005912806         N13000000180+00000C
3S4CD1210504130030840865951000000000A06538A0653800000578010000818227210501210531Octopus Energy Direct              020000000000  0205W1415    UTV/OCTO417/020                                                                   000000000                                          CS00C0005912806         N13000000180+00000C
3S4CD1210504130050839023179000000000A07629B0001200000650820000818879210503210531Parsley Box                        030000000000  0305W0988    GRF/PBDI507/030                                                                   000000000                                          CS00C0005912806         N13000000180+00000C
3S4CD1210504130120840865701000000000A04455B0142600000294680000817010210501210531Ziffit.com                         010000000000  0105W0146    BMO/ZIFF003/010                                                                   000000000                                          CS00C0005912806         N13000000180+00000C
3S4CD1210504130130840738932000000000A06687B0130800000645420000815973210501210531Lebara SR (BAR)                    010000000000  0105V0677    PCH/SALE002/010                                                                   000000000                                          CS00C0005912806         N13000000180+00000C
3S4CD1210504130140840865700000000000A01632B0020300000003370000817710210504210531Weight Watchers DRTV               010000000000  0105W4528    WLI/WWBR036/010                                                                   000000000                                          CS00C0005912806         N13000000180+00000C
3S4CD1210504130150839027650000000000A05319B0001200000366710000816226210504210528Promis Life                        060000000000  0605E9095    WAL/GLDP738/060                                                                   000000000                                          CS00C0005912806         N13000000180+00000C
3S4CD1210504130250840865952000000000A06538A0653800000578010000818227210501210531Octopus Energy Direct              010000000000  0105W1417    UTV/OCTO418/010                                                                   000000000                                          CS00C0005912806         N13000000180+00000C
3S4CD1210504131000836660491000000000A07556B0017600000642860000815938210501210531Simply Cook Shared Reward          030000000000  0305V7836    VCC/SICO001/030                                                                   000000000                                          CS00E0005912805         N13100000090+00000E
3S4CD1210504131030840696219000000000A04629B0014500000656480000819527210501210531Confused Rewards                   010000000000  0105W5640    KAR/CONF131/010                                                                   000000000                                          CS00E0005912805         N13100000090+00000E
3S4CD1210504131040836660492000000000A00249B0082100000694860000817714210504210531Butchers Blink Cat Food Shared Rewa030000000000  0305W6219    KOA/BLNK100/030                                                                   000000000                                          CS00E0005912805         N13100000090+00000E
3S4CD1210504131110840625627000000000A01706B0021100000599390000818991210501210530Birds Eye Goodfellas               020000000000  0205W5976    HOG/NOGF858/020                                                                   000000000                                          CS00E0005912805         N13100000090+00000E
3S4CD1210504132500840863629000000000A01102B0116100000691800000819376210501210530Nestle Gold Blend Roastery         020000000000  0205W5030    MIF/NENS275/020                                                                   000000000                                          CS00E0005912807         N13250000090+00000E
3S4CD1210504132520836610204000000000A02860B0012400000663710000817486210501210516Hotter Shoes SR                    030000000000  0305W4747    MCL/HSSS007/030                                                                   000000000                                          CS00E0005912807         N13250000090+00000E
3S4CD1210504132550840738933000000000A06687B0130800000645420000815973210501210531Lebara SR (BAR)                    010000000000  0105V0677    PCH/SALE002/010                                                                   000000000                                          CS00E0005912807         N13250000090+00000E
3S4CD1210504132600840665983000000000A06893B0001200000663280000818574210503210531My Tutor                           010000000000  0105E9310    ABF/MTHS002/010                                                                   000000000                                          CS00E0005912807         N13250000090+00000E
3S4CD1210504132610840625630000000000A01706B0021100000599390000818991210501210530Birds Eye Goodfellas               020000000000  0205W5976    HOG/NOGF858/020                                                                   000000000                                          CS00E0005912807         N13250000090+00000E
3S4CD1210504134500840739159000000000A04813B0013300000322630000817725210503210516Oaktree Mobility                   030000000000  0305V9476    VEL/OTMA001/030                                                                   000000000                                          CS00C0005912808         N13450000180+00000C
3S4CD1210504134530840744148000000000A04455B0142600000294680000817016210501210531Ziffit.com                         010000000000  0105W0146    BMO/ZIFF003/010                                                                   000000000                                          CS00C0005912808         N13450000180+00000C
3S4CD1210504134540836942220000000000A02479B0020300000449050000817555210504210528Legal & General Over 50s Life Insur060000000000  0605V9556    OLI/LGTB005/060                                                                   000000000                                          CS00C0005912808         N13450000180+00000C
3S4CD1210504134640840625984000000000A07629B0001200000650820000818876210503210531Parsley Box                        020000000000  0205W5894    GRF/PBCH001/020                                                                   000000000                                          CS00C0005912808         N13450000180+00000C
3S4CD1210504134700840738934000000000A06687B0130800000645420000815973210501210531Lebara SR (BAR)                    010000000000  0105V0677    PCH/SALE002/010                                                                   000000000                                          CS00C0005912808         N13450000180+00000C
3S4CD1210504134710840754107000000000A06893B0001200000663280000818574210503210531My Tutor                           010000000000  0105E9310    ABF/MTHS002/010                                                                   000000000                                          CS00C0005912808         N13450000180+00000C
3S4CD1210504134720840862927000000000A08530A0853000000654890000814419210501210530We Buy Any Car Direct              010000000000  0105W4120    BRO/WBAC052/010                                                                   000000000                                          CS00C0005912808         N13450000180+00000C
3S4CD1210504134730836889603000000000A09087A0908700000688750000815904210501210531Verisure International             020000000000  0205W5751    TCS/VERI006/020                                                                   000000000                                          CS00C0005912808         N13450000180+00000C
3S4CD1210504134750840680232000000000A01734B0170700000695070000818000210502210531Money Supermarket Car GME          010000000000  0105W5845    WCR/MSMS089/010                                                                   000000000                                          CS00C0005912808         N13450000180+00000C
3S4CD1210504135500840864176000000000A01810B0011600000391910000814123210501210530Webuyanycar.com 2                  030000000000  0305W4119    BRO/WBAC048/030                                                                   000000000                                          CS00E0005912809         N13550000060+00000E
3S4CD1210504135530840625937000000000A07629B0001200000650820000818876210503210531Parsley Box                        020000000000  0205W5894    GRF/PBCH001/020                                                                   000000000                                          CS00E0005912809         N13550000060+00000E
3S4CD1210504135550840664057000000000A01632B0020300000003370000817710210504210531Weight Watchers DRTV               010000000000  0105W4907    WLI/WWPZ029/010                                                                   000000000                                          CS00E0005912809         N13550000060+00000E
3S4CD1210504140300840865122000000000A01734B0170700000695080000813692210502210522Money Supermarket Energy GME       020000000000  0205W5793    WCR/MSMS090/020                                                                   000000000                                          CS00E0005912810         N14030000060+00000E
3S4CD1210504140320836716326000000000A07556B0017600000642860000815938210501210531Simply Cook Shared Reward          010000000000  0105V7834    VCC/SICO002/010                                                                   000000000                                          CS00E0005912810         N14030000060+00000E
3S4CD1210504140330836716327000000000A00249B0082100000694860000817714210504210531Butchers Blink Cat Food Shared Rewa030000000000  0305W6219    KOA/BLNK100/030                                                                   000000000                                          CS00E0005912810         N14030000060+00000E
3S4CD1210504141845836912054000000000A04662B0144800000666850000816940210501210531Battersea Regular Giving           090000000000  0905W4627    DTV/BDTM003/090                                                                   000000000                                          CS00C0005912811         N14184500180+00000C
3S4CD1210504142015840864868000000000A03004B0019800000686140000818628210501210531Just Eat BAU                       010000000000  0105W1044    MCE/JEAT140/010                                                                   000000000                                          CS00C0005912811         N14184500180+00000C
3S4CD1210504142025836889664000000000A09087A0908700000688750000815904210501210531Verisure International             020000000000  0205W5751    TCS/VERI006/020                                                                   000000000                                          CS00C0005912811         N14184500180+00000C
3S4CD1210504142045840738935000000000A06687B0130800000645420000815973210501210531Lebara SR (BAR)                    010000000000  0105V0677    PCH/SALE002/010                                                                   000000000                                          CS00C0005912811         N14184500180+00000C
3S4CD1210504142055840747792000000000A08221B0081100000646470000817745210501210531FindMyPast SR                      030000000000  0305W3959    FTB/FMPM004/030                                                                   000000000                                          CS00C0005912811         N14184500180+00000C
3S4CD1210504142125840749231000000000A01706B0021100000599390000818991210501210530Birds Eye Goodfellas               020000000000  0205W5976    HOG/NOGF858/020                                                                   000000000                                          CS00C0005912811         N14184500180+00000C
3S4CD1210504143230837121604000000000A00134B0144800000557830000817838210504210528Sunlife GOF                        030000000000  0305W1131    HHP/SLAP001/030                                                                   000000000                                          CS00C0005912812         N14323000180+00000C
3S4CD1210504143300840864295000000000A01102B0116100000691800000819376210501210530Nestle Gold Blend Roastery         020000000000  0205W5030    MIF/NENS275/020                                                                   000000000                                          CS00C0005912812         N14323000180+00000C
3S4CD1210504143320840665984000000000A06893B0001200000663280000818574210503210531My Tutor                           010000000000  0105E9310    ABF/MTHS002/010                                                                   000000000                                          CS00C0005912812         N14323000180+00000C
3S4CD1210504143330840739161000000000A04813B0013300000322630000817725210503210516Oaktree Mobility                   030000000000  0305V9476    VEL/OTMA001/030                                                                   000000000                                          CS00C0005912812         N14323000180+00000C
3S4CD1210504143400840739011000000000A06687B0130800000645420000815973210501210531Lebara SR (BAR)                    010000000000  0105V0677    PCH/SALE002/010                                                                   000000000                                          CS00C0005912812         N14323000180+00000C
3S4CD1210504143410840747793000000000A08221B0081100000646470000817745210501210531FindMyPast SR                      030000000000  0305W3954    FTB/FMPP001/030                                                                   000000000                                          CS00C0005912812         N14323000180+00000C
3S4CD1210504143440840625549000000000A01706B0021100000599390000818991210501210530Birds Eye Goodfellas               020000000000  0205W5976    HOG/NOGF858/020                                                                   000000000                                          CS00C0005912812         N14323000180+00000C
3S4CD1210504143500836687177000000000A07358A0735800000623020000815980210501210531Peloton Direct SR                  030000000000  0305W2162    MKN/PEBI030/030                                                                   000000000                                          CS00C0005912812         N14323000180+00000C
3S4CD1210504144615840864987000000000A01102B0116100000691800000818992210501210530Nestle Gold Blend Roastery         020000000000  0205W5030    MIF/NENS275/020                                                                   000000000                                          CS00C0005912813         N14461500180+00000C
3S4CD1210504144635836688594000000000A07556B0017600000642860000815938210501210531Simply Cook Shared Reward          010000000000  0105V7834    VCC/SICO002/010                                                                   000000000                                          CS00C0005912813         N14461500180+00000C
3S4CD1210504144645840747794000000000A08221B0081100000646470000817745210501210531FindMyPast SR                      030000000000  0305W3955    FTB/FMPP002/030                                                                   000000000                                          CS00C0005912813         N14461500180+00000C
3S4CD1210504144715837498812000000000A04813B0013300000322630000817725210503210516Oaktree Mobility                   030000000000  0305V9476    VEL/OTMA001/030                                                                   000000000                                          CS00C0005912813         N14461500180+00000C
3S4CD1210504144745837460925000000000A00549B0011600000003700000814151210501210531Express Gifts                      010000000000  0105W1851    CHF/STUD890/010                                                                   000000000                                          CS00C0005912813         N14461500180+00000C
3S4CD1210504144755840739012000000000A06687B0130800000645420000815973210501210531Lebara SR (BAR)                    010000000000  0105V0677    PCH/SALE002/010                                                                   000000000                                          CS00C0005912813         N14461500180+00000C
3S4CD1210504144805840754105000000000A06893B0001200000663280000818574210503210531My Tutor                           010000000000  0105E9310    ABF/MTHS002/010                                                                   000000000                                          CS00C0005912813         N14461500180+00000C
3S4CD1210504144815836688595000000000A00249B0082100000694860000817714210504210531Butchers Blink Cat Food Shared Rewa030000000000  0305W6219    KOA/BLNK100/030                                                                   000000000                                          CS00C0005912813         N14461500180+00000C
3S4CD1210504144845840625604000000000A01706B0021100000599390000818991210501210530Birds Eye Goodfellas               020000000000  0205W5976    HOG/NOGF858/020                                                                   000000000                                          CS00C0005912813         N14461500180+00000C
3S4CD1210504144905840698602000000000A04629B0014500000656480000819527210501210531Confused Rewards                   010000000000  0105W5640    KAR/CONF131/010                                                                   000000000                                          CS00C0005912813         N14461500180+00000C
3S4CD1210504145500840865154000000000A01276B0057000000695660000819012210503210523Dettol Personal Care               020000000000  0205W5904    MCE/RBDT027/020                                                                   000000000                                          CS00E0005912814         N14550000090+00000E
3S4CD1210504145520837497321000000000A02951B0013300000117290000818612210501210531Glasses Direct                     030000000000  0305W1068    WPP/GLDI110/030                                                                   000000000                                          CS00E0005912814         N14550000090+00000E
3S4CD1210504145550840739013000000000A06687B0130800000645420000815973210501210531Lebara SR (BAR)                    010000000000  0105V0677    PCH/SALE002/010                                                                   000000000                                          CS00E0005912814         N14550000090+00000E
3S4CD1210504145600837459971000000000A06893B0001200000663280000818574210503210531My Tutor                           010000000000  0105E9310    ABF/MTHS002/010                                                                   000000000                                          CS00E0005912814         N14550000090+00000E
3S4CD1210504145610836889837000000000A09087A0908700000688750000815904210501210531Verisure International             020000000000  0205W5751    TCS/VERI006/020                                                                   000000000                                          CS00E0005912814         N14550000090+00000E
3S4CD1210504150300840865644000000000A00958B0012400000177680000821900210503210516Lloyds Pharmacy                    030000000000  0305W6027    AWN/LLOY018/030                                                                   000000000                                          CS00E0005912815         N15030000090+00000E
3S4CD1210504150330837458687000000000A06809B0001200000518830000820962210501210531Fabletics                          020000000000  0205W5063    JUF/FABL051/020                                                                   000000000                                          CS00E0005912815         N15030000090+00000E
3S4CD1210504150350840738936000000000A06687B0130800000645420000815973210501210531Lebara SR (BAR)                    010000000000  0105V0677    PCH/SALE002/010                                                                   000000000                                          CS00E0005912815         N15030000090+00000E
3S4CD1210504150400837494181000000000A08775B0144800000668520000818615210501210531Peoples Energy                     030000000000  0305V1203    IFN/PETV001/030                                                                   000000000                                          CS00E0005912815         N15030000090+00000E
3S4CD1210504151845836361288000000000A04739B0079100000545020000813892210501210516Welsh Government Student Finance   030000000000  0305W5092    GOS/SFMM007/030                                                                   000000000                                          CS00C0005912816         N15184500120+00000C
3S4CD1210504151915836889361000000000A09087A0908700000688750000815904210501210531Verisure International             020000000000  0205W5751    TCS/VERI006/020                                                                   000000000                                          CS00C0005912816         N15184500120+00000C
3S4CD1210504151935840754111000000000A06893B0001200000663280000818574210503210531My Tutor                           010000000000  0105E9310    ABF/MTHS002/010                                                                   000000000                                          CS00C0005912816         N15184500120+00000C
3S4CD1210504151945840738937000000000A06687B0130800000645420000815973210501210531Lebara SR (BAR)                    010000000000  0105V0677    PCH/SALE002/010                                                                   000000000                                          CS00C0005912816         N15184500120+00000C
3S4CD1210504151955840865434000000000A00957B0008500000658920000817242210501210531Liverpool Victoria Multi Product DR010000000000  0105W3908    DES/LVHO068/010                                                                   000000000                                          CS00C0005912816         N15184500120+00000C
3S4CD1210504152005837688472000000000A04601B0082100000694880000817638210501210509DuneLM DRTV                        010000000000  0105W4725    HOG/DULI005/010                                                                   000000000                                          CS00C0005912816         N15184500120+00000C
3S4CD1210504152015836730528000000000A00249B0082100000694860000817714210504210531Butchers Blink Cat Food Shared Rewa030000000000  0305W6219    KOA/BLNK100/030                                                                   000000000                                          CS00C0005912816         N15184500120+00000C
3S4CD1210504153230836580817000000000A02860B0012400000663710000817486210501210516Hotter Shoes SR                    030000000000  0305W4748    MCL/HSSS006/030                                                                   000000000                                          CS00C0005912817         N15323000120+00000C
3S4CD1210504153300840864143000000000A01103B0116100000055200000819374210503210509Nestle Bakers Complete Pet Food    020000000000  0205V9638    CWW/PURI002/020                                                                   000000000                                          CS00C0005912817         N15323000120+00000C
3S4CD1210504153320840626335000000000A01146B0031800000643420000821062210503210531Ocean Finance Loan Shared Reward   030000000000  0305W4163    ABF/OFMH007/030                                                                   000000000                                          CS00C0005912817         N15323000120+00000C
3S4CD1210504153350840739014000000000A06687B0130800000645420000815973210501210531Lebara SR (BAR)                    010000000000  0105V0677    PCH/SALE002/010                                                                   000000000                                          CS00C0005912817         N15323000120+00000C
3S4CD1210504153400840626040000000000A07629B0001200000650820000818876210503210531Parsley Box                        020000000000  0205W5894    GRF/PBCH001/020                                                                   000000000                                          CS00C0005912817         N15323000120+00000C
3S4CD1210504153420840697992000000000A04629B0014500000656480000819527210501210531Confused Rewards                   010000000000  0105W5640    KAR/CONF131/010                                                                   000000000                                          CS00C0005912817         N15323000120+00000C
3S4CD1210504154615836612282000000000A07556B0017600000642860000815938210501210531Simply Cook Shared Reward          010000000000  0105V7834    VCC/SICO002/010                                                                   000000000                                          CS00C0005912818         N15461500120+00000C
3S4CD1210504154625840863721000000000A01632B0020300000002530000817721210503210514Weight Watchers Brand              010000000000  0105W4528    WLI/WWBR036/010                                                                   000000000                                          CS00C0005912818         N15461500120+00000C
3S4CD1210504154635836612281000000000A07358A0735800000623020000815980210501210531Peloton Direct SR                  030000000000  0305W2161    MKN/PEBI024/030                                                                   000000000                                          CS00C0005912818         N15461500120+00000C
3S4CD1210504154705840738938000000000A06687B0130800000645420000815973210501210531Lebara SR (BAR)                    010000000000  0105V0677    PCH/SALE002/010                                                                   000000000                                          CS00C0005912818         N15461500120+00000C
3S4CD1210504154715840626041000000000A07629B0001200000650820000818876210503210531Parsley Box                        020000000000  0205W5894    GRF/PBCH001/020                                                                   000000000                                          CS00C0005912818         N15461500120+00000C
3S4CD1210504154735840669277000000000A06893B0001200000663280000818574210503210531My Tutor                           010000000000  0105E9310    ABF/MTHS002/010                                                                   000000000                                          CS00C0005912818         N15461500120+00000C
3S4CD1210504154745840864378000000000A07045B0017800000681050000819750210501210531Vinted (BAR)                       030000000000  0305W4544    VCM/VINT048/030                                                                   000000000                                          CS00C0005912818         N15461500120+00000C
3S4CD1210504155500840863259000000000A01102B0116100000691800000819376210501210530Nestle Gold Blend Roastery         020000000000  0205W5030    MIF/NENS275/020                                                                   000000000                                          CS00E0005912819         N15550000060+00000E
3S4CD1210504155520840739015000000000A06687B0130800000645420000815973210501210531Lebara SR (BAR)                    010000000000  0105V0677    PCH/SALE002/010                                                                   000000000                                          CS00E0005912819         N15550000060+00000E
3S4CD1210504155530836361270000000000A07605B0013800000509800000816420210501210530Barclays Barclaycard Brand         030000000000  0305W4775    DRG/BARC066/030                                                                   000000000                                          CS00E0005912819         N15550000060+00000E
3S4CD1210504165500836580825000000000A02860B0012400000663710000817486210501210516Hotter Shoes SR                    030000000000  0305W4747    MCL/HSSS007/030                                                                   000000000                                          CS00E0005912821         N16550000090+00000E
3S4CD1210504165530840863258000000000A03004B0019800000686140000818628210501210531Just Eat BAU                       030000000000  0305E6111    MCE/JEAT082/030                                                                   000000000                                          CS00E0005912821         N16550000090+00000E
3S4CD1210504165600840738939000000000A06687B0130800000645420000815973210501210531Lebara SR (BAR)                    010000000000  0105V0677    PCH/SALE002/010                                                                   000000000                                          CS00E0005912821         N16550000090+00000E
3S4CD1210504165610840662370000000000A00549B0011600000003700000814151210501210531Express Gifts                      010000000000  0105W5812    CHF/STUD898/010                                                                   000000000                                          CS00E0005912821         N16550000090+00000E
3S4CD1210504165620840755632000000000A06893B0001200000663280000818574210503210531My Tutor                           010000000000  0105E9310    ABF/MTHS002/010                                                                   000000000                                          CS00E0005912821         N16550000090+00000E
3S4CD1210504175800840865748000000000A00254B0005000000428130000818463210503210509Cadbury Dairy Milk (BAR)           030000000000  0305W5762    VCC/CADM119/030                                                                   000000000                                          CS00E0005914181         N17580000120+00000E
3S4CD1210504175830840700644000000000A04629B0014500000656480000819527210501210531Confused Rewards                   010000000000  0105W5640    KAR/CONF131/010                                                                   000000000                                          CS00E0005914181         N17580000120+00000E
3S4CD1210504175840840864282000000000A06538A0653800000578010000818227210501210531Octopus Energy Direct              020000000000  0205W1415    UTV/OCTO417/020                                                                   000000000                                          CS00E0005914181         N17580000120+00000E
3S4CD1210504175900840865435000000000A02951B0013300000117290000818612210501210531Glasses Direct                     010000000000  0105E2849    WPP/GLDI087/010                                                                   000000000                                          CS00E0005914181         N17580000120+00000E
3S4CD1210504175910840738940000000000A06687B0130800000645420000815973210501210531Lebara SR (BAR)                    010000000000  0105V0677    PCH/SALE002/010                                                                   000000000                                          CS00E0005914181         N17580000120+00000E
3S4CD1210504175920840609941000000000A00088B0019800000554110000822333210503210516American Express Brand             020000000000  0205W5790    MCW/AMEX033/020                                                                   000000000                                          CS00E0005914181         N17580000120+00000E
3S4CD1210504175940840744168000000000A04455B0142600000294680000817016210501210531Ziffit.com                         010000000000  0105W0146    BMO/ZIFF003/010                                                                   000000000                                          CS00E0005914181         N17580000120+00000E
3S4CD1210504175950840864283000000000A06538A0653800000578010000818227210501210531Octopus Energy Direct              010000000000  0105W1417    UTV/OCTO418/010                                                                   000000000                                          CS00E0005914181         N17580000120+00000E
3S4CD1210504181230840634186000000000A03222B0008500000592940000817805210503210531Amazon Just Ask Alexa              030000000000  0305W4322    DRG/AMAL115/030                                                                   000000000                                          CS00C0005912823         N18123000060+00000C
3S4CD1210504181300840747030000000000A03222B0008500000558260000817947210501210531Amazon Engage Prime                010000000000  0105W5854    AMZ/PRWR006/010                                                                   000000000                                          CS00C0005912823         N18123000060+00000C
3S4CD1210504181310840738941000000000A06687B0130800000645420000815973210501210531Lebara SR (BAR)                    010000000000  0105V0677    PCH/SALE002/010                                                                   000000000                                          CS00C0005912823         N18123000060+00000C
3S4CD1210504181320840865745000000000A01905B00178000000690400008185302105012105111 Million Unisex Fragrance         010000000000  0105W4818    PMC/PRMF001/010                                                                   000000000                                          CS00C0005912823         N18123000060+00000C
3S4CD1210504182000840865109000000000A04629B0014500000656480000816077210501210531Confused Rewards                   010000000000  0105W5640    KAR/CONF131/010                                                                   000000000                                          CS00E0005912824         N18200000060+00000E
3S4CD1210504182010840747237000000000A03222B0008500000558260000817947210501210531Amazon Engage Prime                010000000000  0105W5854    AMZ/PRWR006/010                                                                   000000000                                          CS00E0005912824         N18200000060+00000E
3S4CD1210504182020840739016000000000A06687B0130800000645420000815973210501210531Lebara SR (BAR)                    010000000000  0105V0677    PCH/SALE002/010                                                                   000000000                                          CS00E0005912824         N18200000060+00000E
3S4CD1210504182030836361275000000000A04739B0079100000545020000813892210501210516Welsh Government Student Finance   030000000000  0305W5092    GOS/SFMM007/030                                                                   000000000                                          CS00E0005912824         N18200000060+00000E
3S4CD1210504184500840741131000000000A03222B0008500000542240000818116210501210508Amazon Prime Video                 030000000000  0305W5376    IGC/WRUK002/030                                                                   000000000                                          CS00C0005912827         N18450000180+00000C
3S4CD1210504184530840864142000000000A01105B0116100000051770000821429210503210531Nestle Smarties                    030000000000  0305W5369    HOG/NEST186/030                                                                   000000000                                          CS00C0005912827         N18450000180+00000C
3S4CD1210504184600836705109000000000A02860B0012400000663710000817486210501210516Hotter Shoes SR                    030000000000  0305W4748    MCL/HSSS006/030                                                                   000000000                                          CS00C0005912827         N18450000180+00000C
3S4CD1210504184630836725721000000000A07358A0735800000623020000815980210501210531Peloton Direct SR                  030000000000  0305W2162    MKN/PEBI030/030                                                                   000000000                                          CS00C0005912827         N18450000180+00000C
3S4CD1210504184700840738942000000000A06687B0130800000645420000815973210501210531Lebara SR (BAR)                    010000000000  0105V0677    PCH/SALE002/010                                                                   000000000                                          CS00C0005912827         N18450000180+00000C
3S4CD1210504184710836725722000000000A07556B0017600000642860000815938210501210531Simply Cook Shared Reward          010000000000  0105V7834    VCC/SICO002/010                                                                   000000000                                          CS00C0005912827         N18450000180+00000C
3S4CD1210504184720840741132000000000A03222B0008500000542240000818116210501210508Amazon Prime Video                 010000000000  0105W5377    AMZ/PRWR005/010                                                                   000000000                                          CS00C0005912827         N18450000180+00000C
3S4CD1210504184730837158209000000000A09189B0183000000695000000817950210501210516Badoo Dating Site (BAR)            030000000000  0305W4949    PCH/BADH001/030                                                                   000000000                                          CS00C0005912827         N18450000180+00000C
3S4CD1210504185500838078468000000000A01276B0057000000650850000819001210503210530Airwick Electrical Essential Mist  020000000000  0205W5876    HKX/AWEM020/020                                                                   000000000                                          CS00E0005912828         N18550000150+00000E
3S4CD1210504185520838078469000000000A01276B0057000000118500000818653210503210523Harpic                             020000000000  0205E9712    NSR/BHPP001/020                                                                   000000000                                          CS00E0005912828         N18550000150+00000E
3S4CD1210504185540840744059000000000A04445B0017800000692010000818715210501210505Lidl Summer Trade Drive            020000000000  0205W5130    KAR/LIDL205/020                                                                   000000000                                          CS00E0005912828         N18550000150+00000E
3S4CD1210504185600838078470000000000A01905B00178000000690400008185302105012105111 Million Unisex Fragrance         010000000000  0105W4818    PMC/PRMF001/010                                                                   000000000                                          CS00E0005912828         N18550000150+00000E
3S4CD1210504185610840738943000000000A06687B0130800000645420000815973210501210531Lebara SR (BAR)                    010000000000  0105V0677    PCH/SALE002/010                                                                   000000000                                          CS00E0005912828         N18550000150+00000E
3S4CD1210504185620838078471000000000A01276B0057000000570210000818405210503210523Nurofen Body                       020000000000  0205W4642    MCE/RBNF014/020                                                                   000000000                                          CS00E0005912828         N18550000150+00000E
3S4CD1210504185640838078472000000000A04395B0012400000332940000815892210501210514Freemans                           030000000000  0305W5905    WNP/FSBK001/030                                                                   000000000                                          CS00E0005912828         N18550000150+00000E
3S4CD1210504185710838078467000000000A04113B0021100000691700000818784210501210518Rimmel Lasting Finish              020000000000  0205W3859    SAA/RIMM892/020                                                                   000000000                                          CS00E0005912828         N18550000150+00000E
3S4CD1210504191500838042473000000000A00467B0011100000685640000818556210503210530Kenco Duo                          010000000000  0105V9987    KAR/KENC013/010                                                                   000000000                                          CS00C0005912829         N19150000180+00000C
3S4CD1210504191510838111811000000000A03222B0008500000558260000817947210501210531Amazon Engage Prime                010000000000  0105W5854    AMZ/PRWR006/010                                                                   000000000                                          CS00C0005912829         N19150000180+00000C
3S4CD1210504191520840563018000000000A00942B0014500000303740000815701210503210523LG Electronics OLED TV             030000000000  0305W4469    BDE/LGEV001/030                                                                   000000000                                          CS00C0005912829         N19150000180+00000C
3S4CD1210504191550840744792000000000A08216B0013800000645850000816054210501210531Boehringer Frontline               020000000000  0205W4060    KRO/BIFL002/020                                                                   000000000                                          CS00C0005912829         N19150000180+00000C
3S4CD1210504191610840738944000000000A06687B0130800000645420000815973210501210531Lebara SR (BAR)                    010000000000  0105V0677    PCH/SALE002/010                                                                   000000000                                          CS00C0005912829         N19150000180+00000C
3S4CD1210504191620837130749000000000A07844B0008100000615990000817329210501210531Tide Business Banking              030000000000  0305V1785    GUS/TIDE018/030                                                                   000000000                                          CS00C0005912829         N19150000180+00000C
3S4CD1210504191650838151117000000000A01197B0011100000695510000818768210501210516Beefeater (BAR)                    030000000000  0305W4937    PNR/SPOL001/030                                                                   000000000                                          CS00C0005912829         N19150000180+00000C
3S4CD1210504191720840865490000000000A04492B0084000000622190000817986210501210531Cotswolds Furniture DRTV           030000000000  0305W5614    CLD/CCEG006/030                                                                   000000000                                          CS00C0005912829         N19150000180+00000C
3S4CD1210504191750837943977000000000A07801B0011600000608650000813696210501210531Cinch                              010000000000  0105V7983    IRI/BCBR013/010                                                                   000000000                                          CS00C0005912829         N19150000180+00000C
3S4CD1210504192500836685149000000000A07358A0735800000623020000815980210501210531Peloton Direct SR                  030000000000  0305W2161    MKN/PEBI024/030                                                                   000000000                                          CS00E0005912830         N19250000090+00000E
3S4CD1210504192530840747260000000000A03222B0008500000558260000817947210501210531Amazon Engage Prime                010000000000  0105W5854    AMZ/PRWR006/010                                                                   000000000                                          CS00E0005912830         N19250000090+00000E
3S4CD1210504192540840864876000000000A08530A0853000000654890000814419210501210530We Buy Any Car Direct              010000000000  0105W5280    BRO/WBAC051/010                                                                   000000000                                          CS00E0005912830         N19250000090+00000E
3S4CD1210504192550840739017000000000A06687B0130800000645420000815973210501210531Lebara SR (BAR)                    010000000000  0105V0677    PCH/SALE002/010                                                                   000000000                                          CS00E0005912830         N19250000090+00000E
3S4CD1210504192600836685148000000000A07556B0017600000642860000815938210501210531Simply Cook Shared Reward          010000000000  0105V7834    VCC/SICO002/010                                                                   000000000                                          CS00E0005912830         N19250000090+00000E
3S4CD1210504192610838956783000000000A01583B0021100000459360000818787210501210531Uswitch Brand (BAR)                020000000000  0205W5801    JLN/USWT061/020                                                                   000000000                                          CS00E0005912830         N19250000090+00000E
3S4CD1210504195500840623901000000000A00870B0019800000119720000817255210503210523J&J Aveeno                         020000000000  0205W5344    HOG/JHAV323/020                                                                   000000000                                          CS00E0005912831         N19550000090+00000E
3S4CD1210504195520837091766000000000A01867B0019400000222890000818746210501210509Youngs Gastro (BAR)                030000000000  0305V8783    QST/YOSF125/030                                                                   000000000                                          CS00E0005912831         N19550000090+00000E
3S4CD1210504195550837091765000000000A06312B0168000000660020000817288210501210531Simba Sleep TV  (NBA)              010000000000  0105W4035    MRB/SIBR013/010                                                                   000000000                                          CS00E0005912831         N19550000090+00000E
3S4CD1210504195600837091764000000000A07844B0008100000615990000817329210501210531Tide Business Banking              020000000000  0205V1786    GUS/TIDE019/020                                                                   000000000                                          CS00E0005912831         N19550000090+00000E
3S4CD1210504195620840691166000000000A04629B0014500000656480000819527210501210531Confused Rewards                   010000000000  0105W5640    KAR/CONF131/010                                                                   000000000                                          CS00E0005912831         N19550000090+00000E
3S4CD1210504201230838018705000000000A00824B0017800000507260000818690210501210531KP Nuts                            030000000000  0305W4283    SIG/KPNU003/030                                                                   000000000                                          CS00C0005912832         N20123000210+00000C
3S4CD1210504201300838018706000000000A01867B0019400000222890000818746210501210509Youngs Gastro (BAR)                010000000000  0105V8779    QST/YOSF127/010                                                                   000000000                                          CS00C0005912832         N20123000210+00000C
3S4CD1210504201310838374859000000000A08151B0170300000691810000818996210501210523Disney Plus Star Sustain           030000000000  0305W6167    SHT/DPMA319/030                                                                   000000000                                          CS00C0005912832         N20123000210+00000C
3S4CD1210504201340837097086000000000A08977B0082100000681770000816324210501210531Boomin Brand (MNE)                 030000000000  0305W3754    TTB/KFBM003/030                                                                   000000000                                          CS00C0005912832         N20123000210+00000C
3S4CD1210504201410836385484000000000A09010A0901000000683970000814156210501210515Bioinnovation Wales                030000000000  0305V8485    BIW/WELS001/030                                                                   000000000                                          CS00C0005912832         N20123000210+00000C
3S4CD1210504201440838366271000000000A01276B0057000000695660000819012210503210523Dettol Personal Care               020000000000  0205W5904    MCE/RBDT027/020                                                                   000000000                                          CS00C0005912832         N20123000210+00000C
3S4CD1210504201500840623823000000000A00870B0019800000119720000817255210503210523J&J Aveeno                         020000000000  0205W5344    HOG/JHAV323/020                                                                   000000000                                          CS00C0005912832         N20123000210+00000C
3S4CD1210504201520840692494000000000A04859B0014500000325780000819545210503210531Etsy                               010000000000  0105W6202    SMQ/SPBR006/010                                                                   000000000                                          CS00C0005912832         N20123000210+00000C
3S4CD1210504201530836877912000000000A00891B0011100000643310000817741210503210526Kia Electric (NBA)                 030000000000  0305W4438    INN/KIAM051/030                                                                   000000000                                          CS00C0005912832         N20123000210+00000C
3S4CD1210504202000838954261000000000A03222B0008500000632690000817934210501210523Amazon Core Proposition            020000000000  0205W6032    EGP/AMFU062/020                                                                   000000000                                          CS00E0005912833         N20200000180+00000E
3S4CD1210504202020840623902000000000A00870B0019800000119720000817255210503210523J&J Aveeno                         020000000000  0205W5344    HOG/JHAV323/020                                                                   000000000                                          CS00E0005912833         N20200000180+00000E
3S4CD1210504202040837097077000000000A01867B0019400000222890000818746210501210509Youngs Gastro (BAR)                030000000000  0305V8783    QST/YOSF125/030                                                                   000000000                                          CS00E0005912833         N20200000180+00000E
3S4CD1210504202110839232714000000000A09216B0133800000696310000819964210501210516Cancer Research Wales              030000000000  0305W5588    FRS/CRWW001/030                                                                   000000000                                          CS00E0005912833         N20200000180+00000E
3S4CD1210504202140837097078000000000A06312B0168000000660020000817288210501210531Simba Sleep TV  (NBA)              010000000000  0105W4035    MRB/SIBR013/010                                                                   000000000                                          CS00E0005912833         N20200000180+00000E
3S4CD1210504202150837097079000000000A07844B0008100000615990000817329210501210531Tide Business Banking              030000000000  0305V1785    GUS/TIDE018/030                                                                   000000000                                          CS00E0005912833         N20200000180+00000E
3S4CD1210504202220840565972000000000A00942B0014500000303740000815701210503210523LG Electronics OLED TV             030000000000  0305W4469    BDE/LGEV001/030                                                                   000000000                                          CS00E0005912833         N20200000180+00000E
3S4CD1210504202250840692495000000000A04629B0014500000656480000819527210501210531Confused Rewards                   010000000000  0105W5640    KAR/CONF131/010                                                                   000000000                                          CS00E0005912833         N20200000180+00000E
3S4CD1210504204000840744056000000000A04445B0017800000692010000818715210501210505Lidl Summer Trade Drive            020000000000  0205W5130    KAR/LIDL205/020                                                                   000000000                                          CS00C0005912834         N20400000060+00000C
3S4CD1210504204020835727758000000000A05385A0538500000693460000815126210501210514Menter Caerdydd                    030000000000  0305W6111    ORC/TAFC201/030                                                                   000000000                                          CS00C0005912834         N20400000060+00000C
3S4CD1210504204050840738945000000000A06687B0130800000645420000815973210501210531Lebara SR (BAR)                    010000000000  0105V0677    PCH/SALE002/010                                                                   000000000                                          CS00C0005912834         N20400000060+00000C
3S4CD1210504205000837091485000000000A01867B0019400000222890000818746210501210509Youngs Gastro (BAR)                030000000000  0305V8783    QST/YOSF125/030                                                                   000000000                                          CS00E0005912835         N20500000060+00000E
3S4CD1210504205030840738946000000000A06687B0130800000645420000815973210501210531Lebara SR (BAR)                    010000000000  0105V0677    PCH/SALE002/010                                                                   000000000                                          CS00E0005912835         N20500000060+00000E
3S4CD1210504205040840744057000000000A04445B0017800000692010000818715210501210505Lidl Summer Trade Drive            020000000000  0205W5130    KAR/LIDL205/020                                                                   000000000                                          CS00E0005912835         N20500000060+00000E
3S4CD1210504211500838029536000000000A03222B0008500000558260000817947210501210531Amazon Engage Prime                010000000000  0105W5854    AMZ/PRWR006/010                                                                   000000000                                          CS00C0005912837         N21150000180+00000C
3S4CD1210504211510838378219000000000A01276B0057000000010260000819000210501210531Finish Additives Washing Up Liquid 020000000000  0205W1097    TAG/FNGB794/020                                                                   000000000                                          CS00C0005912837         N21150000180+00000C
3S4CD1210504211530840744789000000000A08216B0013800000645850000816054210501210531Boehringer Frontline               020000000000  0205W4060    KRO/BIFL002/020                                                                   000000000                                          CS00C0005912837         N21150000180+00000C
3S4CD1210504211550838378220000000000A01276B0057000000053590000818404210503210531Gaviscon Dada                      020000000000  0205V4481    HKX/GADA008/020                                                                   000000000                                          CS00C0005912837         N21150000180+00000C
3S4CD1210504211610835727760000000000A05385A0538500000693460000815126210501210514Menter Caerdydd                    030000000000  0305W6111    ORC/TAFC201/030                                                                   000000000                                          CS00C0005912837         N21150000180+00000C
3S4CD1210504211640840738947000000000A06687B0130800000645420000815973210501210531Lebara SR (BAR)                    010000000000  0105V0677    PCH/SALE002/010                                                                   000000000                                          CS00C0005912837         N21150000180+00000C
3S4CD1210504211650838387358000000000A07801B0011600000608650000813696210501210531Cinch                              030000000000  0305V4447    IRI/BCBR010/030                                                                   000000000                                          CS00C0005912837         N21150000180+00000C
3S4CD1210504211720840742680000000000A03222B0008500000592940000817805210503210531Amazon Just Ask Alexa              030000000000  0305W4322    DRG/AMAL115/030                                                                   000000000                                          CS00C0005912837         N21150000180+00000C
3S4CD1210504211750837120553000000000A09189B0183000000695000000817950210501210516Badoo Dating Site (BAR)            010000000000  0105W4950    PCH/BADH001/010                                                                   000000000                                          CS00C0005912837         N21150000180+00000C
3S4CD1210504213000838035997000000000A03222B0008500000685340000817944210503210530Amazon Brand Truths Moment         030000000000  0305V9412    AMZ/MMBD002/030                                                                   000000000                                          CS00C0005912838         N21300000180+00000C
3S4CD1210504213030838384686000000000A01276B0057000000118500000818653210503210523Harpic                             020000000000  0205E9712    NSR/BHPP001/020                                                                   000000000                                          CS00C0005912838         N21300000180+00000C
3S4CD1210504213050838393679000000000A01867B0019400000222890000818746210501210509Youngs Gastro (BAR)                010000000000  0105V9547    QST/YOSF130/010                                                                   000000000                                          CS00C0005912838         N21300000180+00000C
3S4CD1210504213100839232718000000000A09216B0133800000696310000819964210501210516Cancer Research Wales              030000000000  0305W5588    FRS/CRWW001/030                                                                   000000000                                          CS00C0005912838         N21300000180+00000C
3S4CD1210504213130840742674000000000A03222B0008500000592940000817805210503210531Amazon Just Ask Alexa              030000000000  0305W4322    DRG/AMAL115/030                                                                   000000000                                          CS00C0005912838         N21300000180+00000C
3S4CD1210504213200838401948000000000A00299B0116100000003230000819005210503210531Nestle Shreddies Cereal            030000000000  0305W0709    MCE/CPSW702/030                                                                   000000000                                          CS00C0005912838         N21300000180+00000C
3S4CD1210504213230838149782000000000A01612B0005000000579700000818488210501210528Vodafone Voxi (BAR)                030000000000  0305W6077    OGY/VODF244/030                                                                   000000000                                          CS00C0005912838         N21300000180+00000C
3S4CD1210504214500838028777000000000A03222B0008500000632690000817934210501210523Amazon Core Proposition            020000000000  0205W6032    EGP/AMFU062/020                                                                   000000000                                          CS00C0005912839         N21450000180+00000C
3S4CD1210504214520836881167000000000A00891B0011100000643310000817741210503210526Kia Electric (NBA)                 030000000000  0305W4438    INN/KIAM051/030                                                                   000000000                                          CS00C0005912839         N21450000180+00000C
3S4CD1210504214550839231945000000000A09010A0901000000683970000814156210501210515Bioinnovation Wales                030000000000  0305V8485    BIW/WELS001/030                                                                   000000000                                          CS00C0005912839         N21450000180+00000C
3S4CD1210504214620838402483000000000A03004B0019800000686140000818628210501210531Just Eat BAU                       030000000000  0305W3877    MCE/JEAT144/030                                                                   000000000                                          CS00C0005912839         N21450000180+00000C
3S4CD1210504214650838386546000000000A00467B0011100000685640000818556210503210530Kenco Duo                          010000000000  0105V9986    KAR/KENC014/010                                                                   000000000                                          CS00C0005912839         N21450000180+00000C
3S4CD1210504214700840562928000000000A00942B0014500000303740000815701210503210523LG Electronics OLED TV             030000000000  0305W4469    BDE/LGEV001/030                                                                   000000000                                          CS00C0005912839         N21450000180+00000C
3S4CD1210504214730838028778000000000A00132B0021100000691780000818986210501210530Aviva Masterbrand                  030000000000  0305W4609    AED/AVMB091/030                                                                   000000000                                          CS00C0005912839         N21450000180+00000C
3S4CD1210504215500840865223000000000A02963B0014500000694660000817726210501210530Global Radio Brand                 040000000000  0405W5938    HNW/GLLE466/040                                                                   000000000                                          CS00E0005912840         N21550000090+00000E
3S4CD1210504215540840605638000000000A00870B0019800000119720000817255210503210523J&J Aveeno                         020000000000  0205W5344    HOG/JHAV323/020                                                                   000000000                                          CS00E0005912840         N21550000090+00000E
3S4CD1210504215600840738948000000000A06687B0130800000645420000815973210501210531Lebara SR (BAR)                    010000000000  0105V0677    PCH/SALE002/010                                                                   000000000                                          CS00E0005912840         N21550000090+00000E
3S4CD1210504215610840747252000000000A03222B0008500000558260000817947210501210531Amazon Engage Prime                010000000000  0105W5854    AMZ/PRWR006/010                                                                   000000000                                          CS00E0005912840         N21550000090+00000E
3S4CD1210504215620840694296000000000A04629B0014500000656480000819527210501210531Confused Rewards                   010000000000  0105W5640    KAR/CONF131/010                                                                   000000000                                          CS00E0005912840         N21550000090+00000E
3S4CD1210504221400840744743000000000A03222B0008500000632690000817934210501210523Amazon Core Proposition            020000000000  0205W6032    EGP/AMFU062/020                                                                   000000000                                          CS00C0005912841         N22140000150+00000C
3S4CD1210504221420836870713000000000A01291B0022200000656740000817091210501210530Renault Zoe OM                     030000000000  0305W4840    MIF/RAET577/030                                                                   000000000                                          CS00C0005912841         N22140000150+00000C
3S4CD1210504221450836361266000000000A04739B0079100000545020000813892210501210516Welsh Government Student Finance   030000000000  0305W5092    GOS/SFMM007/030                                                                   000000000                                          CS00C0005912841         N22140000150+00000C
3S4CD1210504221520840738949000000000A06687B0130800000645420000815973210501210531Lebara SR (BAR)                    010000000000  0105V0677    PCH/SALE002/010                                                                   000000000                                          CS00C0005912841         N22140000150+00000C
3S4CD1210504221530836528118000000000A00249B0082100000694860000817714210504210531Butchers Blink Cat Food Shared Rewa030000000000  0305W6219    KOA/BLNK100/030                                                                   000000000                                          CS00C0005912841         N22140000150+00000C
3S4CD1210504221600840573619000000000A08221B0081100000646470000817745210501210531FindMyPast SR                      030000000000  0305W3957    FTB/FMPM003/030                                                                   000000000                                          CS00C0005912841         N22140000150+00000C
3S4CD1210504222800836868763000000000A00891B0011100000643310000817741210503210526Kia Electric (NBA)                 030000000000  0305W4438    INN/KIAM051/030                                                                   000000000                                          CS00C0005912842         N22280000150+00000C
3S4CD1210504222830840744797000000000A08216B0013800000645850000816054210501210531Boehringer Frontline               020000000000  0205W4060    KRO/BIFL002/020                                                                   000000000                                          CS00C0005912842         N22280000150+00000C
3S4CD1210504222850840863292000000000A01905B00178000000690400008185302105012105111 Million Unisex Fragrance         010000000000  0105W4818    PMC/PRMF001/010                                                                   000000000                                          CS00C0005912842         N22280000150+00000C
3S4CD1210504222900836516847000000000A07556B0017600000642860000815938210501210531Simply Cook Shared Reward          010000000000  0105V7834    VCC/SICO002/010                                                                   000000000                                          CS00C0005912842         N22280000150+00000C
3S4CD1210504222910840738950000000000A06687B0130800000645420000815973210501210531Lebara SR (BAR)                    010000000000  0105V0677    PCH/SALE002/010                                                                   000000000                                          CS00C0005912842         N22280000150+00000C
3S4CD1210504222920836516846000000000A07358A0735800000623020000815980210501210531Peloton Direct SR                  030000000000  0305W2162    MKN/PEBI030/030                                                                   000000000                                          CS00C0005912842         N22280000150+00000C
3S4CD1210504222950840573621000000000A08221B0081100000646470000817745210501210531FindMyPast SR                      030000000000  0305W3959    FTB/FMPM004/030                                                                   000000000                                          CS00C0005912842         N22280000150+00000C
3S4CD1210504223020838950797000000000A03222B0008500000558260000817947210501210531Amazon Engage Prime                010000000000  0105W5854    AMZ/PRWR006/010                                                                   000000000                                          CS00C0005912842         N22280000150+00000C
3S4CD1210504224200840744798000000000A08216B0013800000645850000816054210501210531Boehringer Frontline               020000000000  0205W4060    KRO/BIFL002/020                                                                   000000000                                          CS00C0005912843         N22420000150+00000C
3S4CD1210504224220837053296000000000A06538A0653800000578010000818227210501210531Octopus Energy Direct              020000000000  0205W1415    UTV/OCTO417/020                                                                   000000000                                          CS00C0005912843         N22420000150+00000C
3S4CD1210504224240836506892000000000A02860B0012400000663710000817486210501210516Hotter Shoes SR                    030000000000  0305W4747    MCL/HSSS007/030                                                                   000000000                                          CS00C0005912843         N22420000150+00000C
3S4CD1210504224310840739018000000000A06687B0130800000645420000815973210501210531Lebara SR (BAR)                    010000000000  0105V0677    PCH/SALE002/010                                                                   000000000                                          CS00C0005912843         N22420000150+00000C
3S4CD1210504224320837067321000000000A06312B0168000000660020000817288210501210531Simba Sleep TV  (NBA)              030000000000  0305W4036    MRB/SIBR012/030                                                                   000000000                                          CS00C0005912843         N22420000150+00000C
3S4CD1210504224350837053297000000000A06538A0653800000578010000818227210501210531Octopus Energy Direct              010000000000  0105W1417    UTV/OCTO418/010                                                                   000000000                                          CS00C0005912843         N22420000150+00000C
3S4CD1210504224400836870711000000000A01291B0022200000656740000817091210501210530Renault Zoe OM                     030000000000  0305W4840    MIF/RAET577/030                                                                   000000000                                          CS00C0005912843         N22420000150+00000C
3S4CD1210504230000840865111000000000A05847B0014500000422460000816391210501210509Smart Energy                       040000000000  0405W5106    AMV/SEBA187/040                                                                   000000000                                          CS00E0005912845         N23000000090+00000E
3S4CD1210504230040840747235000000000A03222B0008500000558260000817947210501210531Amazon Engage Prime                010000000000  0105W5854    AMZ/PRWR006/010                                                                   000000000                                          CS00E0005912845         N23000000090+00000E
3S4CD1210504230050840738951000000000A06687B0130800000645420000815973210501210531Lebara SR (BAR)                    010000000000  0105V0677    PCH/SALE002/010                                                                   000000000                                          CS00E0005912845         N23000000090+00000E
3S4CD1210504230100836361254000000000A04739B0079100000545020000813892210501210516Welsh Government Student Finance   030000000000  0305W5092    GOS/SFMM007/030                                                                   000000000                                          CS00E0005912845         N23000000090+00000E
3S4CD1210504232500838959360000000000A01103B0116100000365210000819377210503210531Nestle Purina Gourmet              020000000000  0205W2799    MCE/PRGO007/020                                                                   000000000                                          CS00C0005912846         N23250000210+00000C
3S4CD1210504232520838054240000000000A04395B0012400000332940000815892210501210514Freemans                           030000000000  0305W5905    WNP/FSBK001/030                                                                   000000000                                          CS00C0005912846         N23250000210+00000C
3S4CD1210504232550840865110000000000A00254B0005000000428130000818463210503210509Cadbury Dairy Milk (BAR)           030000000000  0305W5762    VCC/CADM119/030                                                                   000000000                                          CS00C0005912846         N23250000210+00000C
3S4CD1210504232620840863689000000000A01905B00178000000690400008185302105012105111 Million Unisex Fragrance         010000000000  0105W4818    PMC/PRMF001/010                                                                   000000000                                          CS00C0005912846         N23250000210+00000C
3S4CD1210504232630836612346000000000A07358A0735800000623020000815980210501210531Peloton Direct SR                  030000000000  0305W2161    MKN/PEBI024/030                                                                   000000000                                          CS00C0005912846         N23250000210+00000C
3S4CD1210504232700840725928000000000A07045B0017800000681050000819750210501210531Vinted (BAR)                       030000000000  0305V8021    VCM/VINT007/030                                                                   000000000                                          CS00C0005912846         N23250000210+00000C
3S4CD1210504232730840863688000000000A01276B0057000000570210000818405210503210523Nurofen Body                       020000000000  0205W4642    MCE/RBNF014/020                                                                   000000000                                          CS00C0005912846         N23250000210+00000C
3S4CD1210504232750836612348000000000A07556B0017600000642860000815938210501210531Simply Cook Shared Reward          030000000000  0305V7836    VCC/SICO001/030                                                                   000000000                                          CS00C0005912846         N23250000210+00000C
3S4CD1210504232820838021378000000000A00467B0011100000685640000818556210503210530Kenco Duo                          010000000000  0105V9987    KAR/KENC013/010                                                                   000000000                                          CS00C0005912846         N23250000210+00000C
3S4CD1210504233500840725871000000000A03210B0012400000148810000815912210501210514Kaleidoscope Catalogue             030000000000  0305W5427    WNP/KSUA001/030                                                                   000000000                                          CS00E0005912847         N23350000240+00000E
3S4CD1210504233530840520047000000000A01865B0014500000041610000818082210501210531Enterprise Rent-A-Car Brand        020000000000  0205W5660    PCH/ENTP020/020                                                                   000000000                                          CS00E0005912847         N23350000240+00000E
3S4CD1210504233550840863691000000000A08216B0013800000645850000816054210501210531Boehringer Frontline               010000000000  0105W4365    KRO/BIFL003/010                                                                   000000000                                          CS00E0005912847         N23350000240+00000E
3S4CD1210504233600840863690000000000A01276B0057000000490090000818776210503210531Dettol Wipes                       020000000000  0205W4763    HOG/RKDT472/020                                                                   000000000                                          CS00E0005912847         N23350000240+00000E
3S4CD1210504233620840744913000000000A00700B0012400000383520000817001210501210516Halfords Brand (BAR)               030000000000  0305W3891    BJL/HALF003/030                                                                   000000000                                          CS00E0005912847         N23350000240+00000E
3S4CD1210504233650836361249000000000A04739B0079100000545020000813892210501210516Welsh Government Student Finance   030000000000  0305W5092    GOS/SFMM007/030                                                                   000000000                                          CS00E0005912847         N23350000240+00000E
3S4CD1210504233720840743742000000000A02556B0082100000569730000814569210501210531Taylors Coffee (BAR)               030000000000  0305W4703    LYG/TAYL009/030                                                                   000000000                                          CS00E0005912847         N23350000240+00000E
3S4CD1210504233750836519427000000000A02860B0012400000663710000817486210501210516Hotter Shoes SR                    030000000000  0305W4748    MCL/HSSS006/030                                                                   000000000                                          CS00E0005912847         N23350000240+00000E
3S4CD1210504233820840863692000000000A07480B0019400000600730000818752210501210509Fresh Pet (BAR)                    030000000000  0305B3517    CLD/FRPT002/030                                                                   000000000                                          CS00E0005912847         N23350000240+00000E
3S4CD1210504233850838021377000000000A07556B0017600000588430000818232210501210531Simply Cook                        010000000000  0105V7834    VCC/SICO002/010                                                                   000000000                                          CS00E0005912847         N23350000240+00000E
4000000276                                                                                                                                                                                                                                                                 
