0ADAGDSCHED2004A8122322                                                                                                                                                                                                                                                    
3ATNB1200412062800783040645000000000A08133A0813300000638810000738754200401200430Voke Shared Reward (BAR)           030000000000  0305D9258    HYH/VOKE001/030                                                                   000000000                                          CS00                    N06280000120+00000E
3ATNB1200412062830780430312000000000A04124B0084600000258720000739208200408200412Bensons for Beds                   030000000000  0305E2521    VCC/BSBD214/030                                                                   000000000                                          CS00                    N06280000120+00000E
3ATNB1200412062900777166045000000000A07794B0130800000608210000738640200401200430Itch SR                            030000000000  0305D6128    MUD/ITPH001/030                                                                   000000000                                          CS00                    N06280000120+00000E
3ATNB1200412062930782817565000000000A00648B0160500000039970000739820200401200430Corsodyl                           030000000000  0305E1922    HOG/GXCO638/030                                                                   000000000                                          CS00                    N06280000120+00000E
3ATNB1200412065800778904456000000000A00993B0011400000632320000738122200401200418Uncle Ben's Rice                   020000000000  0205D4902    AMV/MFUB154/020                                                                   000000000                                          CS00                    N06580000090+00000E
3ATNB1200412065820778904455000000000A00993B0011400000147260000738102200401200418Mars M&Ms                          020000000000  0205D9183    AMV/MCMM989/020                                                                   000000000                                          CS00                    N06580000090+00000E
3ATNB1200412065840783041944000000000A02951B0013300000621480000739924200401200430Glasses Direct Shared Reward       010000000000  0105D4989    WPP/GLDI082/010                                                                   000000000                                          CS00                    N06580000090+00000E
3ATNB1200412065850778909076000000000A00648B0160500000007640000739816200406200412Sensodyne Pronamel Toothpaste      020000000000  0205D8669    HOG/GXPR648/020                                                                   000000000                                          CS00                    N06580000090+00000E
3ATNB1200412065910778904454000000000A00993B0011400000321380000738133200401200418Pedigree Dog Food                  020000000000  0205S9165    AMV/MPPG536/020                                                                   000000000                                          CS00                    N06580000090+00000E
3ATNB1200412072800781472381000000000A00353B0005000000602680000739101200401200418Co-op Food (MNS)                   030000000000  0305E2693    LYG/CPBR061/030                                                                   000000000                                          CS00                    N07280000090+00000E
3ATNB1200412072830778924415000000000A01703B0017600000164230000740190200408200412DSG Group Branding G               040000000000  0405E2525    AMV/DNPP300/040                                                                   000000000                                          CS00                    N07280000090+00000E
3ATNB1200412072910782580462000000000A05622A0562200000632090000738790200408200430Best Fiends Direct SR              010000000000  0105D5223    PGE/BEST005/010                                                                   000000000                                          CS00                    N07280000090+00000E
3ATNB1200412072920779517213000000000A00360B0022200000047570000739247200406200426CCS Army                           010000000000  0105D9735    KAR/ARMY198/010                                                                   000000000                                          CS00                    N07280000090+00000E
3ATNB1200412075800778913381000000000A00993B0011400000147260000738102200401200418Mars M&Ms                          020000000000  0205D9183    AMV/MCMM989/020                                                                   000000000                                          CS00                    N07580000090+00000E
3ATNB1200412075820778913380000000000A00993B0011400000060750000738148200412200430Cesar Pet Food                     020000000000  0205D8589    AMV/MPCS533/020                                                                   000000000                                          CS00                    N07580000090+00000E
3ATNB1200412075840780453098000000000A01867B0019400000222890000739249200406200419Youngs Gastro (BAR)                010000000000  0105D5374    QST/YOGA061/010                                                                   000000000                                          CS00                    N07580000090+00000E
3ATNB1200412075850783058287000000000A03653B0022200000200580000737462200401200425Intuit Quickbooks Brand            020000000000  0205E2321    TGS/ITQB027/020                                                                   000000000                                          CS00                    N07580000090+00000E
3ATNB1200412075910778913382000000000A00993B0011400000632320000738122200401200418Uncle Ben's Rice                   020000000000  0205D4901    AMV/MFUB152/020                                                                   000000000                                          CS00                    N07580000090+00000E
3ATNB1200412085800782817228000000000A00870B0019800000392890000737563200401200426J&J Listerine Medifacts            020000000000  0205D7412    BUC/JJTC002/020                                                                   000000000                                          CS00                    N08580000120+00000E
3ATNB1200412085820780314842000000000A00568B0017800000016560000738759200401200412Ferrero Rocher                     020000000000  0205C8404    KRO/FRRC004/020                                                                   000000000                                          CS00                    N08580000120+00000E
3ATNB1200412085840783040647000000000A08133A0813300000638810000738754200401200430Voke Shared Reward (BAR)           030000000000  0305D9258    HYH/VOKE001/030                                                                   000000000                                          CS00                    N08580000120+00000E
3ATNB1200412085910781598592000000000A02775B0016700000099660000735913200401200430eHarmony Dating Site               010000000000  0105D3052    PCH/EHLO007/010                                                                   000000000                                          CS00                    N08580000120+00000E
3ATNB1200412085920783041949000000000A02951B0013300000621480000739924200401200430Glasses Direct Shared Reward       010000000000  0105D4989    WPP/GLDI082/010                                                                   000000000                                          CS00                    N08580000120+00000E
3ATNB1200412085930781741600000000000A01703B0017600000576980000740201200408200412DSG Group Branding D (APX)         030000000000  0305E2524    AMV/DNPP296/030                                                                   000000000                                          CS00                    N08580000120+00000E
3ATNB1200412092400778934371000000000A00993B0011400000017330000738124200401200418Mars Snickers                      020000000000  0205T9965    AMV/MCSN963/020                                                                   000000000                                          CS00                    N09240000300+00000E
3ATNB1200412092420782818631000000000A01799B0013800000270600000743652200406200412King.com Candy Crush               020000000000  0205E2079    HOG/KDCC357/020                                                                   000000000                                          CS00                    N09240000300+00000E
3ATNB1200412092440781791460000000000A01612B0005000000579700000739279200411200430Vodafone Voxi (BAR)                030000000000  0305E2734    OGY/VODF187/030                                                                   000000000                                          CS00                    N09240000300+00000E
3ATNB1200412092510778938293000000000A00959B0123600000368750000738037200406200430Lloyds Brand GME                   030000000000  0305E2254    AED/LLDS103/030                                                                   000000000                                          CS00                    N09240000300+00000E
3ATNB1200412092540778938296000000000A01770A0177000000611420000736041200401200414Sky VIP                            030000000000  0305D8818    SKY/VIJA601/030                                                                   000000000                                          CS00                    N09240000300+00000E
3ATNB1200412092610780453512000000000A05935B0017800000024390000739960200406200426Duracell Battery                   010000000000  0105E1569    HOG/DURA582/010                                                                   000000000                                          CS00                    N09240000300+00000E
3ATNB1200412092620783059438000000000A00648B0160500000385010000739814200406200426Sensodyne Brand                    020000000000  0205E2594    HOG/GXSE814/020                                                                   000000000                                          CS00                    N09240000300+00000E
3ATNB1200412092640783368359000000000A00239B0122200000642780000737792200401200426Compare the Market Service Distinct030000000000  0305D4200    VCC/COMP440/030                                                                   000000000                                          CS00                    N09240000300+00000E
3ATNB1200412092710781472371000000000A00353B0005000000602680000739102200401200418Co-op Food (MNS)                   010000000000  0105E2691    LYG/CPBR062/010                                                                   000000000                                          CS00                    N09240000300+00000E
3ATNB1200412092720780320656000000000A04113B0021100000476100000739034200401200412Lacoste Dual                       020000000000  0205E1814    HOG/CTLC013/020                                                                   000000000                                          CS00                    N09240000300+00000E
3ATNB1200412092740782582339000000000A05622A0562200000632090000738790200408200430Best Fiends Direct SR              010000000000  0105D5225    PGE/BEST004/010                                                                   000000000                                          CS00                    N09240000300+00000E
3ATNB1200412092750778938299000000000A00986B0008500000299460000738638200410200430Quorn Range Non-HFSS               020000000000  0205E1703    SIP/WOGR032/020                                                                   000000000                                          CS00                    N09240000300+00000E
3ATNB1200412092810782818632000000000A01332B0017800000604910000737281200401200430Samsung 5G                         030000000000  0305E1239    CCE/SSGS397/030                                                                   000000000                                          CS00                    N09240000300+00000E
3ATNB1200412092840778934372000000000A00993B0011400000321380000738133200401200418Pedigree Dog Food                  020000000000  0205S9165    AMV/MPPG536/020                                                                   000000000                                          CS00                    N09240000300+00000E
3ATNB1200412095400781747518000000000A03653B0022200000200580000737462200401200425Intuit Quickbooks Brand            020000000000  0205E2321    TGS/ITQB027/020                                                                   000000000                                          CS00                    N09540000290+00000C
3ATNB1200412095420780447113000000000A07914B0069700000619320000736425200403200419Home Instead Brand                 030000000000  0305C8091    EGP/HIRE004/030                                                                   000000000                                          CS00                    N09540000290+00000C
3ATNB1200412095450783365916000000000A00648B0160500000182050000739825200410200426Pirinase Hayfever Relief           020000000000  0205E2662    HOG/GXPI822/020                                                                   000000000                                          CS00                    N09540000290+00000C
3ATNB1200412095510778739090000000000A02167B0020300000510330000738569200406200426Capri Sun                          010000000000  0105B3769    TTB/CASU010/010                                                                   000000000                                          CS00                    N09540000290+00000C
3ATNB1200412095520783072180000000000A01706B0021100000594070000739421200401200412Birds Eye Aunt Bessies Non HFSS    020000000000  0205C9385    HOG/NOIG528/020                                                                   000000000                                          CS00                    N09540000290+00000C
3ATNB1200412095540783044276000000000A07827B0031800000610450000738728200401200430Go Henry                           030000000000  0305C2367    ABF/GHEN004/030                                                                   000000000                                          CS00                    N09540000290+00000C
3ATNB1200412095610783368779000000000A00360B0022200000047570000739247200406200426CCS Army                           010000000000  0105D9735    KAR/ARMY198/010                                                                   000000000                                          CS00                    N09540000290+00000C
3ATNB1200412095620783368897000000000A00957B0008500000002970000738258200401200430Liverpool Victoria Car Insurance DR030000000000  0305E1102    DES/LVMC006/030                                                                   000000000                                          CS00                    N09540000290+00000C
3ATNB1200412095650783368524000000000A00938B0165300000501990000737360200406200430Tresemme Keratin Smooth            020000000000  0205D7082    TAG/TSGB080/020                                                                   000000000                                          CS00                    N09540000290+00000C
3ATNB1200412095710778735482000000000A00648B0160500000007640000739817200406200412Sensodyne Pronamel Toothpaste      020000000000  0205D8669    HOG/GXPR648/020                                                                   000000000                                          CS00                    N09540000290+00000C
3ATNB1200412095730778845082000000000A04729B0123600000588260000738052200406200426Indeed.co.uk GME                   020000000000  0205E2494    DSS/INDD726/020                                                                   000000000                                          CS00                    N09540000290+00000C
3ATNB1200412095750778248781000000000A01471B0011400000639690000738056200401200415Tesco FLS (BAR)                    030000000000  0305E2687    BBH/TCPD126/030                                                                   000000000                                          CS00                    N09540000290+00000C
3ATNB1200412095820778729334000000000A00568B0017800000016560000738759200401200412Ferrero Rocher                     020000000000  0205C8404    KRO/FRRC004/020                                                                   000000000                                          CS00                    N09540000290+00000C
3ATNB1200412095840778592115000000000A01734B0170700000643150000738584200401200430Money Supermarket GME              010000000000  0105E2714    WCR/MSMS048/010                                                                   000000000                                          CS00                    N09540000290+00000C
3ATNB1200412102400778591952000000000A00008B00114000000225000007380512004062004193M Command Adhesive                030000000000  0305E1763    OLI/CMMW001/030                                                                   000000000                                          CS00                    N10240000240+00000C
3ATNB1200412102430783059347000000000A05264B0013100000631810000743900200409200430Facebook Portal                    030000000000  0305E2692    ANO/FACE006/030                                                                   000000000                                          CS00                    N10240000240+00000C
3ATNB1200412102500783072181000000000A01706B0021100000594070000739421200401200412Birds Eye Aunt Bessies Non HFSS    020000000000  0205C9385    HOG/NOIG528/020                                                                   000000000                                          CS00                    N10240000240+00000C
3ATNB1200412102520783044281000000000A07827B0031800000610450000738728200401200430Go Henry                           030000000000  0305C2367    ABF/GHEN004/030                                                                   000000000                                          CS00                    N10240000240+00000C
3ATNB1200412102550783366175000000000A04445B0017800000640200000737257200401200415Lidl Spring Range                  020000000000  0205E1618    KAR/LIDL103/020                                                                   000000000                                          CS00                    N10240000240+00000C
3ATNB1200412102610783368571000000000A00957B0008500000333010000742389200401200430Liverpool Victoria Home Insurance  030000000000  0305E1014    DES/LVHO018/030                                                                   000000000                                          CS00                    N10240000240+00000C
3ATNB1200412102640783365976000000000A05340B0123600000541930000738095200401200426Lucozade Energy GME                010000000000  0105E2648    AED/LZBR006/010                                                                   000000000                                          CS00                    N10240000240+00000C
3ATNB1200412102650778737785000000000A00648B0160500000039970000739820200401200430Corsodyl                           030000000000  0305E1922    HOG/GXCO638/030                                                                   000000000                                          CS00                    N10240000240+00000C
3ATNB1200412102720778731332000000000A00568B0017800000482770000738765200401200412Thorntons                          020000000000  0205E2051    KRO/FETH012/020                                                                   000000000                                          CS00                    N10240000240+00000C
3ATNB1200412102740783059187000000000A00993B0011400000060750000738148200412200430Cesar Pet Food                     020000000000  0205D8589    AMV/MPCS533/020                                                                   000000000                                          CS00                    N10240000240+00000C
3ATNB1200412105400782300746000000000A00938B0165300000565650000737369200406200430Domestos Davos                     010000000000  0105E1690    HOG/ULDM009/010                                                                   000000000                                          CS00                    N10540000270+00000C
3ATNB1200412105410778594549000000000A01734B0170700000643150000738584200401200430Money Supermarket GME              010000000000  0105E2714    WCR/MSMS048/010                                                                   000000000                                          CS00                    N10540000270+00000C
3ATNB1200412105420777186020000000000A07794B0130800000608210000738640200401200430Itch SR                            030000000000  0305D6129    MUD/ITGA001/030                                                                   000000000                                          CS00                    N10540000270+00000C
3ATNB1200412105450777184462000000000A08133A0813300000638810000738754200401200430Voke Shared Reward (BAR)           030000000000  0305D9258    HYH/VOKE001/030                                                                   000000000                                          CS00                    N10540000270+00000C
3ATNB1200412105520783071936000000000A01706B0021100000594070000739421200401200412Birds Eye Aunt Bessies Non HFSS    020000000000  0205C9385    HOG/NOIG528/020                                                                   000000000                                          CS00                    N10540000270+00000C
3ATNB1200412105540782577736000000000A05622A0562200000632090000738790200408200430Best Fiends Direct SR              010000000000  0105D5223    PGE/BEST005/010                                                                   000000000                                          CS00                    N10540000270+00000C
3ATNB1200412105550783366315000000000A00360B0022200000306600000737007200406200426CCS DWP Auto Enrollment            010000000000  0105U0383    NSA/DWPW018/010                                                                   000000000                                          CS00                    N10540000270+00000C
3ATNB1200412105600778239516000000000A04445B0017800000631920000743679200402200415Lidl Price Commitment              020000000000  0205D4833    KAR/LIDL085/020                                                                   000000000                                          CS00                    N10540000270+00000C
3ATNB1200412105620782806121000000000A01799B0013800000270600000743652200406200412King.com Candy Crush               020000000000  0205E2078    HOG/KDCC358/020                                                                   000000000                                          CS00                    N10540000270+00000C
3ATNB1200412105640783054030000000000A03653B0022200000200580000737507200401200425Intuit Quickbooks Brand            020000000000  0205E2321    TGS/ITQB027/020                                                                   000000000                                          CS00                    N10540000270+00000C
3ATNB1200412105700782300745000000000A00648B0160500000385010000739814200406200426Sensodyne Brand                    020000000000  0205E2594    HOG/GXSE814/020                                                                   000000000                                          CS00                    N10540000270+00000C
3ATNB1200412105720781744293000000000A01703B0017600000576950000740205200408200412DSG Group Branding F (APX)         030000000000  0305E2526    AMV/DNPP299/030                                                                   000000000                                          CS00                    N10540000270+00000C
3ATNB1200412105750782806122000000000A01332B0017800000604910000737281200401200430Samsung 5G                         030000000000  0305E1239    CCE/SSGS397/030                                                                   000000000                                          CS00                    N10540000270+00000C
3ATNB1200412105820780423460000000000A00508B0021100000500150000739446200401200419AEG Brand                          010000000000  0105D9665    COG/AEGN005/010                                                                   000000000                                          CS00                    N10540000270+00000C
3ATNB1200412112400782820387000000000A00870B0019800000392890000737563200401200426J&J Listerine Medifacts            020000000000  0205D7412    BUC/JJTC002/020                                                                   000000000                                          CS00                    N11240000270+00000C
3ATNB1200412112420778833078000000000A00490B0123600000480590000737934200401200419Ebay GME                           030000000000  0305E2310    MCE/EBAY032/030                                                                   000000000                                          CS00                    N11240000270+00000C
3ATNB1200412112450783359877000000000A05035B0001200000639860000739025200402200430Euro Pro Anti Hair Wrap            030000000000  0305D8029    EUR/SHAH005/030                                                                   000000000                                          CS00                    N11240000270+00000C
3ATNB1200412112520783059949000000000A00568B0017800000016560000738759200401200412Ferrero Rocher                     020000000000  0205C8404    KRO/FRRC004/020                                                                   000000000                                          CS00                    N11240000270+00000C
3ATNB1200412112540783359911000000000A00891B0011100000607830000739137200401200430Kia Niro (NBA)                     030000000000  0305E2556    INN/KIAM040/030                                                                   000000000                                          CS00                    N11240000270+00000C
3ATNB1200412112610783368336000000000A01145B0114200000051430000743131200403200430O2 Branding                        020000000000  0205E2482    VCC/TOBR341/020                                                                   000000000                                          CS00                    N11240000270+00000C
3ATNB1200412112630783359895000000000A05035B0001200000636910000739029200402200430Euro Pro Simba 2                   030000000000  0305E1012    EUR/SHCA002/030                                                                   000000000                                          CS00                    N11240000270+00000C
3ATNB1200412112700778833080000000000A00959B0123600000368750000738037200406200430Lloyds Brand GME                   030000000000  0305E2254    AED/LLDS103/030                                                                   000000000                                          CS00                    N11240000270+00000C
3ATNB1200412112730783359829000000000A00239B0122200000642780000737792200401200426Compare the Market Service Distinct030000000000  0305D4200    VCC/COMP440/030                                                                   000000000                                          CS00                    N11240000270+00000C
3ATNB1200412112800780461204000000000A01328B0014500000479170000738511200408200414Sainsburys TU Clothing             030000000000  0305E2560    WKU/SAUK111/030                                                                   000000000                                          CS00                    N11240000270+00000C
3ATNB1200412115400783055806000000000A05264B0013100000631810000743900200409200430Facebook Portal                    030000000000  0305E2692    ANO/FACE006/030                                                                   000000000                                          CS00                    N11540000330+00000C
3ATNB1200412115430778914359000000000A00360B0022200000047570000739247200406200426CCS Army                           010000000000  0105D9735    KAR/ARMY198/010                                                                   000000000                                          CS00                    N11540000330+00000C
3ATNB1200412115440783364936000000000A00648B0160500000182050000739825200410200426Pirinase Hayfever Relief           020000000000  0205E2662    HOG/GXPI822/020                                                                   000000000                                          CS00                    N11540000330+00000C
3ATNB1200412115500783367049000000000A00109B0014500000646150000743517200404200414Argos Sainsburys                   010000000000  0105E2567    WKU/SAUK110/010                                                                   000000000                                          CS00                    N11540000330+00000C
3ATNB1200412115510783056839000000000A00993B0011400000147260000738102200401200418Mars M&Ms                          020000000000  0205D9183    AMV/MCMM989/020                                                                   000000000                                          CS00                    N11540000330+00000C
3ATNB1200412115530782725897000000000A03848B0085000000609330000743600200411200413Gtech Hylite                       030000000000  0305E2607    GCH/HLRV003/030                                                                   000000000                                          CS00                    N11540000330+00000C
3ATNB1200412115600778914361000000000A01770A0177000000611420000736041200401200414Sky VIP                            030000000000  0305D8818    SKY/VIJA601/030                                                                   000000000                                          CS00                    N11540000330+00000C
3ATNB1200412115630781751462000000000A04159B0013800000645590000742599200406200430NFU Mutual Community Message Brand 030000000000  0305E2444    HHP/NFOD302/030                                                                   000000000                                          CS00                    N11540000330+00000C
3ATNB1200412115700783367237000000000A00891B0011100000607830000739137200401200430Kia Niro (NBA)                     030000000000  0305E2556    INN/KIAM040/030                                                                   000000000                                          CS00                    N11540000330+00000C
3ATNB1200412115730780308349000000000A04113B0021100000476100000739034200401200412Lacoste Dual                       020000000000  0205E1814    HOG/CTLC013/020                                                                   000000000                                          CS00                    N11540000330+00000C
3ATNB1200412115750783079708000000000A05622A0562200000632090000738790200408200430Best Fiends Direct SR              010000000000  0105D5225    PGE/BEST004/010                                                                   000000000                                          CS00                    N11540000330+00000C
3ATNB1200412115800782821012000000000A00648B0160500000039970000739820200401200430Corsodyl                           030000000000  0305E1922    HOG/GXCO638/030                                                                   000000000                                          CS00                    N11540000330+00000C
3ATNB1200412115830783056838000000000A00993B0011400000060750000738148200412200430Cesar Pet Food                     020000000000  0205D8589    AMV/MPCS533/020                                                                   000000000                                          CS00                    N11540000330+00000C
3ATNB1200412115850780456144000000000A01867B0019400000222890000739249200406200419Youngs Gastro (BAR)                010000000000  0105D5371    QST/YOGA065/010                                                                   000000000                                          CS00                    N11540000330+00000C
3ATNB1200412115900783364937000000000A05340B0123600000541930000738095200401200426Lucozade Energy GME                010000000000  0105E2648    AED/LZBR006/010                                                                   000000000                                          CS00                    N11540000330+00000C
3ATNB1200412115910778914364000000000A00986B0008500000299460000738638200410200430Quorn Range Non-HFSS               020000000000  0205E1703    SIP/WOGR032/020                                                                   000000000                                          CS00                    N11540000330+00000C
3ATNB1200412122400778839297000000000A01616B0013100000643240000738633200406200419Volvo Hybrid Range                 030000000000  0305E2485    TAG/VOGB017/030                                                                   000000000                                          CS00                    N12240000300+00000C
3ATNB1200412122430782818487000000000A00870B0019800000327380000737553200401200430J&J Listerine Total Care Mouthwash 020000000000  0205D8898    HOG/JJLI258/020                                                                   000000000                                          CS00                    N12240000300+00000C
3ATNB1200412122450778913014000000000A01703B0017600000576950000740206200408200412DSG Group Branding F (APX)         030000000000  0305E2526    AMV/DNPP299/030                                                                   000000000                                          CS00                    N12240000300+00000C
3ATNB1200412122520781735166000000000A05035B0001200000643690000739630200401200414Euro Pro Air Grill                 030000000000  0305E1013    EUR/NJGL001/030                                                                   000000000                                          CS00                    N12240000300+00000C
3ATNB1200412122550778893324000000000A00490B0123600000480590000737934200401200419Ebay GME                           030000000000  0305E2310    MCE/EBAY032/030                                                                   000000000                                          CS00                    N12240000300+00000C
3ATNB1200412122620782821259000000000A01332B0017800000604910000737281200401200430Samsung 5G                         030000000000  0305E1239    CCE/SSGS397/030                                                                   000000000                                          CS00                    N12240000300+00000C
3ATNB1200412122650778864155000000000A04729B0123600000588260000738052200406200426Indeed.co.uk GME                   020000000000  0205E2494    DSS/INDD726/020                                                                   000000000                                          CS00                    N12240000300+00000C
3ATNB1200412122710781472482000000000A00353B0005000000602680000739101200401200418Co-op Food (MNS)                   030000000000  0305E2693    LYG/CPBR061/030                                                                   000000000                                          CS00                    N12240000300+00000C
3ATNB1200412122740777189255000000000A08133A0813300000638810000738754200401200430Voke Shared Reward (BAR)           030000000000  0305D9258    HYH/VOKE001/030                                                                   000000000                                          CS00                    N12240000300+00000C
3ATNB1200412122810782725898000000000A03848B0085000000609330000743600200411200413Gtech Hylite                       030000000000  0305E2607    GCH/HLRV003/030                                                                   000000000                                          CS00                    N12240000300+00000C
3ATNB1200412122840780267125000000000A01565B0165300000008320000737581200401200412Pot Noodle                         020000000000  0205E1276    AED/UNPN285/020                                                                   000000000                                          CS00                    N12240000300+00000C
3ATNB1200412125400777412806000000000A00891B0011100000607830000739137200401200430Kia Niro (NBA)                     030000000000  0305E2556    INN/KIAM040/030                                                                   000000000                                          CS00                    N12540000240+00000C
3ATNB1200412125430777436009000000000A01770A0177000000611420000736041200401200414Sky VIP                            060000000000  0605D9274    SKY/VIJA702/060                                                                   000000000                                          CS00                    N12540000240+00000C
3ATNB1200412125530783041777000000000A00360B0022200000645000000743567200406200419CCS Coronavirus Stay At Home       030000000000  0305E2257    MLL/DHCV048/030                                                                   000000000                                          CS00                    N12540000240+00000C
3ATNB1200412125600778780618000000000A00959B0123600000368750000738029200406200430Lloyds Brand GME                   030000000000  0305E2254    AED/LLDS103/030                                                                   000000000                                          CS00                    N12540000240+00000C
3ATNB1200412125630782819669000000000A01328B0014500000479170000738511200408200414Sainsburys TU Clothing             030000000000  0305E2560    WKU/SAUK111/030                                                                   000000000                                          CS00                    N12540000240+00000C
3ATNB1200412125700782725900000000000A03848B0085000000609330000743600200411200413Gtech Hylite                       030000000000  0305E2607    GCH/HLRV003/030                                                                   000000000                                          CS00                    N12540000240+00000C
3ATNB1200412125730783367046000000000A01145B0114200000051430000739275200401200430O2 Branding                        010000000000  0105E1705    VCC/TOBR338/010                                                                   000000000                                          CS00                    N12540000240+00000C
3ATNB1200412125740782810117000000000A00870B0019800000392890000737563200401200426J&J Listerine Medifacts            020000000000  0205D7412    BUC/JJTC002/020                                                                   000000000                                          CS00                    N12540000240+00000C
3ATNB1200412132400778780768000000000A01616B0013100000643240000738633200406200419Volvo Hybrid Range                 030000000000  0305E2484    TAG/VOGB015/030                                                                   000000000                                          CS00                    N13240000300+00000C
3ATNB1200412132430783055807000000000A05264B0013100000631810000743900200409200430Facebook Portal                    030000000000  0305E2692    ANO/FACE006/030                                                                   000000000                                          CS00                    N13240000300+00000C
3ATNB1200412132500783072182000000000A01706B0021100000594070000739421200401200412Birds Eye Aunt Bessies Non HFSS    020000000000  0205C9385    HOG/NOIG528/020                                                                   000000000                                          CS00                    N13240000300+00000C
3ATNB1200412132520783055808000000000A03653B0022200000200580000737501200401200425Intuit Quickbooks Brand            020000000000  0205E2321    TGS/ITQB027/020                                                                   000000000                                          CS00                    N13240000300+00000C
3ATNB1200412132540777899180000000000A01338B0011600000615110000735525200401200430Save the Children Individual Giving090000000000  0905C5861    STC/STPN935/090                                                                   000000000                                          CS00                    N13240000300+00000C
3ATNB1200412132710782577735000000000A05622A0562200000632090000738790200408200430Best Fiends Direct SR              010000000000  0105D5223    PGE/BEST005/010                                                                   000000000                                          CS00                    N13240000300+00000C
3ATNB1200412132720783041779000000000A00360B0022200000645000000743567200406200419CCS Coronavirus Stay At Home       030000000000  0305E2257    MLL/DHCV048/030                                                                   000000000                                          CS00                    N13240000300+00000C
3ATNB1200412132750783364935000000000A05340B0123600000541930000738095200401200426Lucozade Energy GME                010000000000  0105E2648    AED/LZBR006/010                                                                   000000000                                          CS00                    N13240000300+00000C
3ATNB1200412132800780286292000000000A01867B0019400000222890000739240200406200419Youngs Gastro (BAR)                030000000000  0305E0649    QST/YOGA082/030                                                                   000000000                                          CS00                    N13240000300+00000C
3ATNB1200412132830778336770000000000A01734B0011600000030940000735361200401200430Money Supermarket DRTV             010000000000  0105E2713    WCR/MSMS049/010                                                                   000000000                                          CS00                    N13240000300+00000C
3ATNB1200412132840780256499000000000A01565B0165300000043110000737578200401200412Colmans Sauces                     020000000000  0205E0884    AED/UNCM287/020                                                                   000000000                                          CS00                    N13240000300+00000C
3ATNB1200412135400782817686000000000A01799B0013800000270600000743652200406200412King.com Candy Crush               020000000000  0205E2079    HOG/KDCC357/020                                                                   000000000                                          CS00                    N13540000300+00000C
3ATNB1200412135420782817687000000000A01332B0017800000604910000737281200401200430Samsung 5G                         030000000000  0305E1239    CCE/SSGS397/030                                                                   000000000                                          CS00                    N13540000300+00000C
3ATNB1200412135450783366283000000000A00648B0160500000182050000739825200410200426Pirinase Hayfever Relief           020000000000  0205E2662    HOG/GXPI822/020                                                                   000000000                                          CS00                    N13540000300+00000C
3ATNB1200412135510783059936000000000A00993B0011400000147260000738102200401200418Mars M&Ms                          020000000000  0205D9183    AMV/MCMM989/020                                                                   000000000                                          CS00                    N13540000300+00000C
3ATNB1200412135530783059937000000000A00993B0011400000060750000738148200412200430Cesar Pet Food                     020000000000  0205D8589    AMV/MPCS533/020                                                                   000000000                                          CS00                    N13540000300+00000C
3ATNB1200412135550783368680000000000A00239B0122200000642780000737792200401200426Compare the Market Service Distinct030000000000  0305D4200    VCC/COMP440/030                                                                   000000000                                          CS00                    N13540000300+00000C
3ATNB1200412135620783366124000000000A04445B0017800000631920000743676200402200415Lidl Price Commitment              020000000000  0205D4833    KAR/LIDL085/020                                                                   000000000                                          CS00                    N13540000300+00000C
3ATNB1200412135640782820422000000000A00648B0160500000039970000739820200401200430Corsodyl                           030000000000  0305E1922    HOG/GXCO638/030                                                                   000000000                                          CS00                    N13540000300+00000C
3ATNB1200412135710783044301000000000A07827B0031800000610450000738728200401200430Go Henry                           030000000000  0305C2367    ABF/GHEN004/030                                                                   000000000                                          CS00                    N13540000300+00000C
3ATNB1200412135740783072183000000000A01706B0021100000594070000739421200401200412Birds Eye Aunt Bessies Non HFSS    020000000000  0205C9385    HOG/NOIG528/020                                                                   000000000                                          CS00                    N13540000300+00000C
3ATNB1200412135800777435982000000000A01770A0177000000611420000736041200401200414Sky VIP                            060000000000  0605D9274    SKY/VIJA702/060                                                                   000000000                                          CS00                    N13540000300+00000C
3ATNB1200412142400782816453000000000A00870B0019800000327380000737553200401200430J&J Listerine Total Care Mouthwash 020000000000  0205D8898    HOG/JJLI258/020                                                                   000000000                                          CS00                    N14240000260+00000E
3ATNB1200412142420782816494000000000A01328B0014500000479170000738511200408200414Sainsburys TU Clothing             030000000000  0305E2560    WKU/SAUK111/030                                                                   000000000                                          CS00                    N14240000260+00000E
3ATNB1200412142450777455110000000000A02818B0009000000102690000738931200401200430The Brooke Charity                 090000000000  0905D0520    GOO/ALWL024/090                                                                   000000000                                          CS00                    N14240000260+00000E
3ATNB1200412142620783072184000000000A01706B0021100000594070000739421200401200412Birds Eye Aunt Bessies Non HFSS    020000000000  0205C9385    HOG/NOIG528/020                                                                   000000000                                          CS00                    N14240000260+00000E
3ATNB1200412142640783368649000000000A00360B0022200000306600000737007200406200426CCS DWP Auto Enrollment            010000000000  0105U0383    NSA/DWPW018/010                                                                   000000000                                          CS00                    N14240000260+00000E
3ATNB1200412142650777187084000000000A07794B0130800000608210000738640200401200430Itch SR                            030000000000  0305D6128    MUD/ITPH001/030                                                                   000000000                                          CS00                    N14240000260+00000E
3ATNB1200412142720777157375000000000A08133A0813300000638810000738754200401200430Voke Shared Reward (BAR)           030000000000  0305D9258    HYH/VOKE001/030                                                                   000000000                                          CS00                    N14240000260+00000E
3ATNB1200412142750778793583000000000A00938B0165300000598720000737393200401200412Comfort Megatron                   030000000000  0305E1264    OGY/LECO501/030                                                                   000000000                                          CS00                    N14240000260+00000E
3ATNB1200412145400783059193000000000A05264B0013100000631810000743900200409200430Facebook Portal                    030000000000  0305E2692    ANO/FACE006/030                                                                   000000000                                          CS00                    N14540000300+00000E
3ATNB1200412145430783060601000000000A00568B0017800000016560000738759200401200412Ferrero Rocher                     020000000000  0205C8404    KRO/FRRC004/020                                                                   000000000                                          CS00                    N14540000300+00000E
3ATNB1200412145450783359862000000000A01471B0011400000639690000738056200401200415Tesco FLS (BAR)                    030000000000  0305E2688    BBH/TCPD122/030                                                                   000000000                                          CS00                    N14540000300+00000E
3ATNB1200412145520783359855000000000A00490B0123600000480590000737934200401200419Ebay GME                           030000000000  0305E2310    MCE/EBAY032/030                                                                   000000000                                          CS00                    N14540000300+00000E
3ATNB1200412145550783060602000000000A00648B0160500000007640000739817200406200412Sensodyne Pronamel Toothpaste      020000000000  0205D8669    HOG/GXPR648/020                                                                   000000000                                          CS00                    N14540000300+00000E
3ATNB1200412145610783359879000000000A05035B0001200000639860000739025200402200430Euro Pro Anti Hair Wrap            030000000000  0305D8030    EUR/SHAH004/030                                                                   000000000                                          CS00                    N14540000300+00000E
3ATNB1200412145640783359899000000000A05035B0001200000636910000739029200402200430Euro Pro Simba 2                   030000000000  0305E1012    EUR/SHCA002/030                                                                   000000000                                          CS00                    N14540000300+00000E
3ATNB1200412145710778043915000000000A02951B0013300000621480000739924200401200430Glasses Direct Shared Reward       030000000000  0305D4990    WPP/GLDI081/030                                                                   000000000                                          CS00                    N14540000300+00000E
3ATNB1200412145740780339034000000000A04629B0014500000315130000738913200401200430Confused.com Motor and Home        010000000000  0105E1991    KAR/CONF104/010                                                                   000000000                                          CS00                    N14540000300+00000E
3ATNB1200412145750783368569000000000A00549B0011600000003700000735219200401200419Express Gifts                      010000000000  0105D9628    CHF/STUD757/010                                                                   000000000                                          CS00                    N14540000300+00000E
3ATNB1200412145800777436029000000000A01770A0177000000611420000736041200401200414Sky VIP                            060000000000  0605D9274    SKY/VIJA702/060                                                                   000000000                                          CS00                    N14540000300+00000E
3ATNB1200412152400779374522000000000A01276B0057000000118500000739007200401200412Harpic                             010000000000  0105B3045    TAG/HPGB590/010                                                                   000000000                                          CS00                    N15240000240+00000C
3ATNB1200412152410777412812000000000A00891B0011100000607830000739137200401200430Kia Niro (NBA)                     030000000000  0305E2556    INN/KIAM040/030                                                                   000000000                                          CS00                    N15240000240+00000C
3ATNB1200412152440783041780000000000A00360B0022200000645000000743567200406200419CCS Coronavirus Stay At Home       030000000000  0305E2257    MLL/DHCV048/030                                                                   000000000                                          CS00                    N15240000240+00000C
3ATNB1200412152510778780648000000000A00959B0123600000368750000738029200406200430Lloyds Brand GME                   030000000000  0305E2254    AED/LLDS103/030                                                                   000000000                                          CS00                    N15240000240+00000C
3ATNB1200412152540782816247000000000A01799B0013800000270600000743652200406200412King.com Candy Crush               020000000000  0205E2078    HOG/KDCC358/020                                                                   000000000                                          CS00                    N15240000240+00000C
3ATNB1200412152600782816248000000000A01332B0017800000604910000737281200401200430Samsung 5G                         030000000000  0305E1239    CCE/SSGS397/030                                                                   000000000                                          CS00                    N15240000240+00000C
3ATNB1200412152630780279015000000000A01867B0019400000222890000739240200406200419Youngs Gastro (BAR)                030000000000  0305D5375    QST/YOGA060/030                                                                   000000000                                          CS00                    N15240000240+00000C
3ATNB1200412152700782725902000000000A03848B0085000000609330000743600200411200413Gtech Hylite                       030000000000  0305E2607    GCH/HLRV003/030                                                                   000000000                                          CS00                    N15240000240+00000C
3ATNB1200412152730783367047000000000A00109B0014500000646150000743506200404200414Argos Sainsburys                   010000000000  0105E2568    WKU/SAUK112/010                                                                   000000000                                          CS00                    N15240000240+00000C
3ATNB1200412152740782810118000000000A00870B0019800000392890000737563200401200426J&J Listerine Medifacts            020000000000  0205D7412    BUC/JJTC002/020                                                                   000000000                                          CS00                    N15240000240+00000C
3ATNB1200412155400777435976000000000A01770A0177000000611420000736041200401200414Sky VIP                            060000000000  0605D9274    SKY/VIJA702/060                                                                   000000000                                          CS00                    N15540000200+00000E
3ATNB1200412155500783055803000000000A03653B0022200000200580000737501200401200425Intuit Quickbooks Brand            020000000000  0205E2321    TGS/ITQB027/020                                                                   000000000                                          CS00                    N15540000200+00000E
3ATNB1200412155520783041781000000000A00360B0022200000645000000743567200406200419CCS Coronavirus Stay At Home       030000000000  0305E2257    MLL/DHCV048/030                                                                   000000000                                          CS00                    N15540000200+00000E
3ATNB1200412155550781472486000000000A00353B0005000000602680000739101200401200418Co-op Food (MNS)                   030000000000  0305E2693    LYG/CPBR061/030                                                                   000000000                                          CS00                    N15540000200+00000E
3ATNB1200412155620783072185000000000A01706B0021100000594070000739421200401200412Birds Eye Aunt Bessies Non HFSS    020000000000  0205C9385    HOG/NOIG528/020                                                                   000000000                                          CS00                    N15540000200+00000E
3ATNB1200412155640782577727000000000A05622A0562200000632090000738790200408200430Best Fiends Direct SR              010000000000  0105D5225    PGE/BEST004/010                                                                   000000000                                          CS00                    N15540000200+00000E
3ATNB1200412155650783364933000000000A05340B0123600000541930000738095200401200426Lucozade Energy GME                010000000000  0105E2648    AED/LZBR006/010                                                                   000000000                                          CS00                    N15540000200+00000E
3ATNB1200412155700782820853000000000A00870B0019800000327380000737553200401200430J&J Listerine Total Care Mouthwash 020000000000  0205D8898    HOG/JJLI258/020                                                                   000000000                                          CS00                    N15540000200+00000E
3ATNB1200412162400782300772000000000A00938B0165300000008360000737522200406200426Surf                               020000000000  0205E2458    TAG/SFGB033/020                                                                   000000000                                          CS00                    N16240000330+00000E
3ATNB1200412162420782806123000000000A01328B0014500000479170000738511200408200414Sainsburys TU Clothing             030000000000  0305E2560    WKU/SAUK111/030                                                                   000000000                                          CS00                    N16240000330+00000E
3ATNB1200412162450778049122000000000A02951B0013300000621480000739924200401200430Glasses Direct Shared Reward       010000000000  0105D4989    WPP/GLDI082/010                                                                   000000000                                          CS00                    N16240000330+00000E
3ATNB1200412162500778093579000000000A01370B0009000000041800000738879200401200430Sight Savers DRTV                  090000000000  0905Q1646    DTV/SSAI025/090                                                                   000000000                                          CS00                    N16240000330+00000E
3ATNB1200412162630782300771000000000A00648B0160500000039970000739820200401200430Corsodyl                           030000000000  0305E1922    HOG/GXCO638/030                                                                   000000000                                          CS00                    N16240000330+00000E
3ATNB1200412162700777158239000000000A07794B0130800000608210000738640200401200430Itch SR                            030000000000  0305D6129    MUD/ITGA001/030                                                                   000000000                                          CS00                    N16240000330+00000E
3ATNB1200412162730783054031000000000A00568B0017800000016560000738759200401200412Ferrero Rocher                     020000000000  0205C8404    KRO/FRRC004/020                                                                   000000000                                          CS00                    N16240000330+00000E
3ATNB1200412162750783056574000000000A05264B0013100000631810000743900200409200430Facebook Portal                    030000000000  0305E2692    ANO/FACE006/030                                                                   000000000                                          CS00                    N16240000330+00000E
3ATNB1200412162820783040651000000000A08133A0813300000638810000738754200401200430Voke Shared Reward (BAR)           030000000000  0305D9258    HYH/VOKE001/030                                                                   000000000                                          CS00                    N16240000330+00000E
3ATNB1200412162850781444810000000000A01703B0017600000164230000740189200408200412DSG Group Branding G               040000000000  0405E2525    AMV/DNPP300/040                                                                   000000000                                          CS00                    N16240000330+00000E
3ATNB1200412165400777412775000000000A00891B0011100000607830000739137200401200430Kia Niro (NBA)                     030000000000  0305E2556    INN/KIAM040/030                                                                   000000000                                          CS00                    N16540000270+00000E
3ATNB1200412165430783057145000000000A00993B0011400000147260000738102200401200418Mars M&Ms                          020000000000  0205D9183    AMV/MCMM989/020                                                                   000000000                                          CS00                    N16540000270+00000E
3ATNB1200412165450782630663000000000A02818B0009000000102690000738931200401200430The Brooke Charity                 090000000000  0905D0520    GOO/ALWL024/090                                                                   000000000                                          CS00                    N16540000270+00000E
3ATNB1200412165620779369371000000000A01276B0057000000118500000739007200401200412Harpic                             010000000000  0105B3045    TAG/HPGB590/010                                                                   000000000                                          CS00                    N16540000270+00000E
3ATNB1200412165630783041782000000000A00360B0022200000645000000743567200406200419CCS Coronavirus Stay At Home       030000000000  0305E2257    MLL/DHCV048/030                                                                   000000000                                          CS00                    N16540000270+00000E
3ATNB1200412165700778894034000000000A00648B0160500000039970000739819200401200430Corsodyl                           030000000000  0305E1922    HOG/GXCO638/030                                                                   000000000                                          CS00                    N16540000270+00000E
3ATNB1200412165730777435993000000000A01770A0177000000611420000736041200401200414Sky VIP                            060000000000  0605D9274    SKY/VIJA702/060                                                                   000000000                                          CS00                    N16540000270+00000E
3ATNB1200412172400782816325000000000A01799B0013800000270600000743652200406200412King.com Candy Crush               020000000000  0205E2079    HOG/KDCC357/020                                                                   000000000                                          CS00                    N17240000240+00000C
3ATNB1200412172420781404387000000000A00938B0165300000602800000737504200401200430CIF Hello Beautful                 010000000000  0105E0926    HOG/ULCI011/010                                                                   000000000                                          CS00                    N17240000240+00000C
3ATNB1200412172430783365994000000000A00648B0160500000182050000739825200410200426Pirinase Hayfever Relief           020000000000  0205E2662    HOG/GXPI822/020                                                                   000000000                                          CS00                    N17240000240+00000C
3ATNB1200412172450778802803000000000A01770A0177000000646270000743571200406200419Sky Premium Trolls                 030000000000  0305E2600    SKY/PVRA603/030                                                                   000000000                                          CS00                    N17240000240+00000C
3ATNB1200412172520783072186000000000A01706B0021100000594070000739421200401200412Birds Eye Aunt Bessies Non HFSS    020000000000  0205C9385    HOG/NOIG528/020                                                                   000000000                                          CS00                    N17240000240+00000C
3ATNB1200412172540783044312000000000A07827B0031800000610450000738728200401200430Go Henry                           030000000000  0305C2367    ABF/GHEN004/030                                                                   000000000                                          CS00                    N17240000240+00000C
3ATNB1200412172610777899194000000000A01338B0011600000615110000735525200401200430Save the Children Individual Giving090000000000  0905C7039    RAW/SIBL279/090                                                                   000000000                                          CS00                    N17240000240+00000C
3ATNB1200412172740779560635000000000A00648B0160500000007640000739817200406200412Sensodyne Pronamel Toothpaste      020000000000  0205D8669    HOG/GXPR648/020                                                                   000000000                                          CS00                    N17240000240+00000C
3ATNB1200412175400782267488000000000A01565B0165300000008320000737581200401200412Pot Noodle                         020000000000  0205E1276    AED/UNPN285/020                                                                   000000000                                          CS00                    N17540000300+00000E
3ATNB1200412175420782669607000000000A01332B0017800000604910000737281200401200430Samsung 5G                         030000000000  0305E1239    CCE/SSGS397/030                                                                   000000000                                          CS00                    N17540000300+00000E
3ATNB1200412175450782670867000000000A00254B0005000000437540000742504200401200412Cadbury Easter (BAR)               010000000000  0105E1951    VCC/CAEA101/010                                                                   000000000                                          CS00                    N17540000300+00000E
3ATNB1200412175500783058998000000000A00648B0160500000039970000739820200401200430Corsodyl                           030000000000  0305E1922    HOG/GXCO638/030                                                                   000000000                                          CS00                    N17540000300+00000E
3ATNB1200412175530778962519000000000A00986B0008500000299460000738638200410200430Quorn Range Non-HFSS               020000000000  0205E1703    SIP/WOGR032/020                                                                   000000000                                          CS00                    N17540000300+00000E
3ATNB1200412175550782670695000000000A00360B0022200000645000000743567200406200419CCS Coronavirus Stay At Home       030000000000  0305E2257    MLL/DHCV048/030                                                                   000000000                                          CS00                    N17540000300+00000E
3ATNB1200412175620783058997000000000A01328B0014500000479170000737665200408200414Sainsburys TU Clothing             030000000000  0305E2560    WKU/SAUK111/030                                                                   000000000                                          CS00                    N17540000300+00000E
3ATNB1200412175650783058821000000000A05264B0013100000631810000743900200409200430Facebook Portal                    030000000000  0305E2692    ANO/FACE006/030                                                                   000000000                                          CS00                    N17540000300+00000E
3ATNB1200412175720782290613000000000A01339B0021100000121450000739417200406200426SCA Cushelle                       020000000000  0205E2251    MIF/SCCU279/020                                                                   000000000                                          CS00                    N17540000300+00000E
3ATNB1200412175740782683442000000000A01684B0005000000632940000739193200401200430Kelloggs Multibrand AGL (NBA)      030000000000  0305D5135    BUR/TMTB003/030                                                                   000000000                                          CS00                    N17540000300+00000E
3ATNB1200412175810778054656000000000A02951B0013300000621480000739924200401200430Glasses Direct Shared Reward       010000000000  0105D4989    WPP/GLDI082/010                                                                   000000000                                          CS00                    N17540000300+00000E
3ATNB1200412175820782670868000000000A00254B0005000000437540000742504200401200412Cadbury Easter (BAR)               010000000000  0105E2055    VCC/CAEA102/010                                                                   000000000                                          CS00                    N17540000300+00000E
3ATNB1200412175830782289378000000000A00111B0005000000591720000739096200401200412Arla Lurpak (NBA)                  030000000000  0305D9845    WKU/LUUK230/030                                                                   000000000                                          CS00                    N17540000300+00000E
3ATNB1200412182400781718878000000000A01703B0017600000576950000740205200408200412DSG Group Branding F (APX)         030000000000  0305E2526    AMV/DNPP299/030                                                                   000000000                                          CS00                    N18240000330+00000C
3ATNB1200412182430778962138000000000A01867B0019400000222890000739249200406200419Youngs Gastro (BAR)                030000000000  0305E0649    QST/YOGA082/030                                                                   000000000                                          CS00                    N18240000330+00000C
3ATNB1200412182500782252286000000000A07256B0084900000617250000736199200406200430Tata Global Beverages Core Tea Bran030000000000  0305C7682    SFO/TETE001/030                                                                   000000000                                          CS00                    N18240000330+00000C
3ATNB1200412182530778938485000000000A00568B0017800000016560000738759200401200412Ferrero Rocher                     020000000000  0205C8404    KRO/FRRC004/020                                                                   000000000                                          CS00                    N18240000330+00000C
3ATNB1200412182550778938486000000000A00938B0165300000602800000737504200401200430CIF Hello Beautful                 010000000000  0105E2414    HOG/ULCF005/010                                                                   000000000                                          CS00                    N18240000330+00000C
3ATNB1200412182600778880914000000000A04729B0123600000588260000738052200406200426Indeed.co.uk GME                   020000000000  0205E2494    DSS/INDD726/020                                                                   000000000                                          CS00                    N18240000330+00000C
3ATNB1200412182620783368264000000000A00360B0022200000047570000736964200406200426CCS Army                           010000000000  0105D9735    KAR/ARMY198/010                                                                   000000000                                          CS00                    N18240000330+00000C
3ATNB1200412182630783375085000000000A04629B0014500000315130000738913200401200430Confused.com Motor and Home        010000000000  0105E1991    KAR/CONF104/010                                                                   000000000                                          CS00                    N18240000330+00000C
3ATNB1200412182640778962136000000000A01565B0165300000043110000737578200401200412Colmans Sauces                     020000000000  0205E0884    AED/UNCM287/020                                                                   000000000                                          CS00                    N18240000330+00000C
3ATNB1200412182700783029691000000000A00891B0011100000607830000739137200401200430Kia Niro (NBA)                     030000000000  0305E2556    INN/KIAM040/030                                                                   000000000                                          CS00                    N18240000330+00000C
3ATNB1200412182730782579337000000000A05622A0562200000632090000738790200408200430Best Fiends Direct SR              030000000000  0305D5222    PGE/BEST002/030                                                                   000000000                                          CS00                    N18240000330+00000C
3ATNB1200412182800780262760000000000A00938B0165300000008360000737522200406200426Surf                               020000000000  0205E2458    TAG/SFGB033/020                                                                   000000000                                          CS00                    N18240000330+00000C
3ATNB1200412182820782262379000000000A00938B0165300000501990000737360200406200430Tresemme Keratin Smooth            020000000000  0205D7082    TAG/TSGB080/020                                                                   000000000                                          CS00                    N18240000330+00000C
3ATNB1200412182840782270170000000000A00164B0005000000635160000739097200406200426Beiersdorf Nivea Q10 Face (MNS)    010000000000  0105D8102    BUR/TNVA002/010                                                                   000000000                                          CS00                    N18240000330+00000C
3ATNB1200412182850782298185000000000A00648B0160500000039970000739819200401200430Corsodyl                           030000000000  0305E1922    HOG/GXCO638/030                                                                   000000000                                          CS00                    N18240000330+00000C
3ATNB1200412182920778962137000000000A01776B0165300000636520000737342200401200426Magnum Han Solo                    010000000000  0105E0739    TAG/MGGB093/010                                                                   000000000                                          CS00                    N18240000330+00000C
3ATNB1200412185400778876783000000000A01616B0013100000643240000738633200406200419Volvo Hybrid Range                 030000000000  0305E2485    TAG/VOGB017/030                                                                   000000000                                          CS00                    N18540000300+00000C
3ATNB1200412185430781472545000000000A00353B0005000000602680000739101200401200418Co-op Food (MNS)                   030000000000  0305E2693    LYG/CPBR061/030                                                                   000000000                                          CS00                    N18540000300+00000C
3ATNB1200412185500778930525000000000A00568B0017800000482770000738765200401200412Thorntons                          020000000000  0205E2051    KRO/FETH012/020                                                                   000000000                                          CS00                    N18540000300+00000C
3ATNB1200412185520778930526000000000A00938B0165300000565650000737369200406200430Domestos Davos                     010000000000  0105E1690    HOG/ULDM009/010                                                                   000000000                                          CS00                    N18540000300+00000C
3ATNB1200412185530778930524000000000A00648B0160500000007640000739816200406200412Sensodyne Pronamel Toothpaste      020000000000  0205D8669    HOG/GXPR648/020                                                                   000000000                                          CS00                    N18540000300+00000C
3ATNB1200412185550778962498000000000A01770A0177000000646270000743571200406200419Sky Premium Trolls                 030000000000  0305E2600    SKY/PVRA603/030                                                                   000000000                                          CS00                    N18540000300+00000C
3ATNB1200412185620778962499000000000A03653B0022200000200580000737462200401200425Intuit Quickbooks Brand            020000000000  0205E2321    TGS/ITQB027/020                                                                   000000000                                          CS00                    N18540000300+00000C
3ATNB1200412185640778962497000000000A01703B0017600000164220000740187200408200412DSG Group Branding F               030000000000  0305E2526    AMV/DNPP299/030                                                                   000000000                                          CS00                    N18540000300+00000C
3ATNB1200412185710778949815000000000A00986B0008500000299460000738638200410200430Quorn Range Non-HFSS               020000000000  0205E1703    SIP/WOGR032/020                                                                   000000000                                          CS00                    N18540000300+00000C
3ATNB1200412185730780261787000000000A00938B0165300000598720000737393200401200412Comfort Megatron                   030000000000  0305E1264    OGY/LECO501/030                                                                   000000000                                          CS00                    N18540000300+00000C
3ATNB1200412185800782298657000000000A00111B0005000000591720000739096200401200412Arla Lurpak (NBA)                  030000000000  0305D9845    WKU/LUUK230/030                                                                   000000000                                          CS00                    N18540000300+00000C
3ATNB1200412185830780231053000000000A00895B0123500000601980000738462200401200430Andrex GME                         030000000000  0305D1427    JWT/KIAN256/030                                                                   000000000                                          CS00                    N18540000300+00000C
3ATNB1200412192400782161487000000000A00258B0020300000579590000739144200401200430Camelot TNL (BAR)                  030000000000  0305E2515    AED/CMNL480/030                                                                   000000000                                          CS00                    N19240000300+00000C
3ATNB1200412192430780266971000000000A01776B0165300000636520000737342200401200426Magnum Han Solo                    010000000000  0105E0739    TAG/MGGB093/010                                                                   000000000                                          CS00                    N19240000300+00000C
3ATNB1200412192440783030727000000000A05264B0013100000631810000743900200409200430Facebook Portal                    030000000000  0305E2692    ANO/FACE006/030                                                                   000000000                                          CS00                    N19240000300+00000C
3ATNB1200412192510778937249000000000A01867B0019400000222890000739240200406200419Youngs Gastro (BAR)                030000000000  0305D5375    QST/YOGA060/030                                                                   000000000                                          CS00                    N19240000300+00000C
3ATNB1200412192540782269791000000000A00938B0165300000501990000737360200406200430Tresemme Keratin Smooth            020000000000  0205D7082    TAG/TSGB080/020                                                                   000000000                                          CS00                    N19240000300+00000C
3ATNB1200412192600782292235000000000A01339B0021100000121450000739417200406200426SCA Cushelle                       020000000000  0205E2251    MIF/SCCU279/020                                                                   000000000                                          CS00                    N19240000300+00000C
3ATNB1200412192620782299193000000000A01370B0009000000336530000742227200401200430Sight Savers Peak                  040000000000  0405B7322    DTV/SSBL002/040                                                                   000000000                                          CS00                    N19240000300+00000C
3ATNB1200412192700782269792000000000A00938B0165300000008360000737522200406200426Surf                               020000000000  0205E2458    TAG/SFGB033/020                                                                   000000000                                          CS00                    N19240000300+00000C
3ATNB1200412192720781730380000000000A00013B0069700000132900000738429200403200416AG Barr Rubicon                    030000000000  0305E2417    RBR/RUBI001/030                                                                   000000000                                          CS00                    N19240000300+00000C
3ATNB1200412192750778846390000000000A00360B0022200000306600000737006200406200426CCS DWP Auto Enrollment            010000000000  0105U0383    NSA/DWPW018/010                                                                   000000000                                          CS00                    N19240000300+00000C
3ATNB1200412192800782590521000000000A01612B0005000000501110000743527200401200430Vodafone Network (BAR)             040000000000  0405E2559    OGY/VODF186/040                                                                   000000000                                          CS00                    N19240000300+00000C
3ATNB1200412192840782269790000000000A01565B0165300000008320000737581200401200412Pot Noodle                         020000000000  0205E1276    AED/UNPN285/020                                                                   000000000                                          CS00                    N19240000300+00000C
3ATNB1200412195400782161488000000000A00258B0020300000579590000739144200401200430Camelot TNL (BAR)                  030000000000  0305E2515    AED/CMNL480/030                                                                   000000000                                          CS00                    N19540000270+00000C
3ATNB1200412195430778239402000000000A00239B0122200000642780000737792200401200426Compare the Market Service Distinct030000000000  0305D4200    VCC/COMP440/030                                                                   000000000                                          CS00                    N19540000270+00000C
3ATNB1200412195500777159434000000000A05622A0562200000632090000738790200408200430Best Fiends Direct SR              030000000000  0305D5216    PGE/BEST001/030                                                                   000000000                                          CS00                    N19540000270+00000C
3ATNB1200412195530783029602000000000A05264B0013100000631810000743900200409200430Facebook Portal                    030000000000  0305E2692    ANO/FACE006/030                                                                   000000000                                          CS00                    N19540000270+00000C
3ATNB1200412195600778905210000000000A00568B0017800000016560000738759200401200412Ferrero Rocher                     020000000000  0205C8404    KRO/FRRC004/020                                                                   000000000                                          CS00                    N19540000270+00000C
3ATNB1200412195620778836815000000000A01616B0013100000643240000738633200406200419Volvo Hybrid Range                 030000000000  0305E2483    TAG/VOGB019/030                                                                   000000000                                          CS00                    N19540000270+00000C
3ATNB1200412195650782641965000000000A00490B0011400000646310000743622200408200430Ebay Trolls 2                      040000000000  0405E2627    MCE/EBAY035/040                                                                   000000000                                          CS00                    N19540000270+00000C
3ATNB1200412195730782816340000000000A01799B0013800000270600000743652200406200412King.com Candy Crush               020000000000  0205E2078    HOG/KDCC358/020                                                                   000000000                                          CS00                    N19540000270+00000C
3ATNB1200412195750778905209000000000A00648B0160500000007640000739816200406200412Sensodyne Pronamel Toothpaste      020000000000  0205D8669    HOG/GXPR648/020                                                                   000000000                                          CS00                    N19540000270+00000C
3ATNB1200412195810780266577000000000A01565B0165300000043110000740103200406200412Colmans Sauces                     020000000000  0205E0884    AED/UNCM287/020                                                                   000000000                                          CS00                    N19540000270+00000C
3ATNB1200412202400782161492000000000A00258B0020300000579590000739144200401200430Camelot TNL (BAR)                  030000000000  0305E2515    AED/CMNL480/030                                                                   000000000                                          CS00                    N20240000330+00000E
3ATNB1200412202430778737691000000000A00986B0008500000299460000738638200410200430Quorn Range Non-HFSS               020000000000  0205E1703    SIP/WOGR032/020                                                                   000000000                                          CS00                    N20240000330+00000E
3ATNB1200412202450780446593000000000A01328B0014500000479170000737665200408200414Sainsburys TU Clothing             030000000000  0305E2560    WKU/SAUK111/030                                                                   000000000                                          CS00                    N20240000330+00000E
3ATNB1200412202520778951367000000000A00568B0017800000482770000738765200401200412Thorntons                          020000000000  0205E2051    KRO/FETH012/020                                                                   000000000                                          CS00                    N20240000330+00000E
3ATNB1200412202540778963055000000000A00959B0123600000368750000738029200406200430Lloyds Brand GME                   030000000000  0305E2254    AED/LLDS103/030                                                                   000000000                                          CS00                    N20240000330+00000E
3ATNB1200412202610778963060000000000A01867B0019400000222890000739240200406200419Youngs Gastro (BAR)                030000000000  0305E0649    QST/YOGA082/030                                                                   000000000                                          CS00                    N20240000330+00000E
3ATNB1200412202640782267753000000000A00938B0165300000008360000737522200406200426Surf                               020000000000  0205E2458    TAG/SFGB033/020                                                                   000000000                                          CS00                    N20240000330+00000E
3ATNB1200412202700782267752000000000A00938B0165300000501990000737360200406200430Tresemme Keratin Smooth            020000000000  0205D7082    TAG/TSGB080/020                                                                   000000000                                          CS00                    N20240000330+00000E
3ATNB1200412202720778963058000000000A01770A0177000000611420000736041200401200414Sky VIP                            030000000000  0305D8818    SKY/VIJA601/030                                                                   000000000                                          CS00                    N20240000330+00000E
3ATNB1200412202750782267751000000000A01565B0165300000008320000737581200401200412Pot Noodle                         020000000000  0205E1276    AED/UNPN285/020                                                                   000000000                                          CS00                    N20240000330+00000E
3ATNB1200412202810778951369000000000A00648B0160500000385010000739813200406200426Sensodyne Brand                    020000000000  0205E2594    HOG/GXSE814/020                                                                   000000000                                          CS00                    N20240000330+00000E
3ATNB1200412202830782290576000000000A01684B0005000000632940000739193200401200430Kelloggs Multibrand AGL (NBA)      030000000000  0305D5132    BUR/TMTB001/030                                                                   000000000                                          CS00                    N20240000330+00000E
3ATNB1200412202900778735823000000000A01703B0017600000576980000740202200408200412DSG Group Branding D (APX)         030000000000  0305E2524    AMV/DNPP296/030                                                                   000000000                                          CS00                    N20240000330+00000E
3ATNB1200412205400778248672000000000A01471B0011400000639690000738056200401200415Tesco FLS (BAR)                    030000000000  0305E2687    BBH/TCPD126/030                                                                   000000000                                          CS00                    N20540000330+00000E
3ATNB1200412205430782664422000000000A01332B0017800000604910000737280200401200430Samsung 5G                         030000000000  0305E1239    CCE/SSGS397/030                                                                   000000000                                          CS00                    N20540000330+00000E
3ATNB1200412205500782672119000000000A00254B0005000000437540000742504200401200412Cadbury Easter (BAR)               010000000000  0105E1951    VCC/CAEA101/010                                                                   000000000                                          CS00                    N20540000330+00000E
3ATNB1200412205510783055805000000000A03653B0022200000200580000737501200401200425Intuit Quickbooks Brand            020000000000  0205E2321    TGS/ITQB027/020                                                                   000000000                                          CS00                    N20540000330+00000E
3ATNB1200412205530782444842000000000A01776B0165300000636520000737346200401200426Magnum Han Solo                    020000000000  0205E0738    TAG/MGGB092/020                                                                   000000000                                          CS00                    N20540000330+00000E
3ATNB1200412205550780424255000000000A00360B0022200000047570000739247200406200426CCS Army                           010000000000  0105D9735    KAR/ARMY198/010                                                                   000000000                                          CS00                    N20540000330+00000E
3ATNB1200412205600783367042000000000A01770A0177000000646270000743571200406200419Sky Premium Trolls                 030000000000  0305E2600    SKY/PVRA603/030                                                                   000000000                                          CS00                    N20540000330+00000E
3ATNB1200412205630783059082000000000A00870B0019800000327380000737553200401200430J&J Listerine Total Care Mouthwash 020000000000  0205D8898    HOG/JJLI258/020                                                                   000000000                                          CS00                    N20540000330+00000E
3ATNB1200412205650780455553000000000A07914B0069700000619320000736428200403200419Home Instead Brand                 030000000000  0305C8091    EGP/HIRE004/030                                                                   000000000                                          CS00                    N20540000330+00000E
3ATNB1200412205720780320527000000000A01339B0021100000121450000739417200406200426SCA Cushelle                       020000000000  0205E2251    MIF/SCCU279/020                                                                   000000000                                          CS00                    N20540000330+00000E
3ATNB1200412205740782793131000000000A01867B0019400000222890000739249200406200419Youngs Gastro (BAR)                030000000000  0305D5375    QST/YOGA060/030                                                                   000000000                                          CS00                    N20540000330+00000E
3ATNB1200412205810782664423000000000A01612B0005000000501110000743527200401200430Vodafone Network (BAR)             020000000000  0205E2235    OGY/VODF185/020                                                                   000000000                                          CS00                    N20540000330+00000E
3ATNB1200412205830782672120000000000A00254B0005000000437540000742504200401200412Cadbury Easter (BAR)               010000000000  0105E1952    VCC/CAEA103/010                                                                   000000000                                          CS00                    N20540000330+00000E
3ATNB1200412205840780315105000000000A00111B0005000000590060000739094200406200412Arla Masterbrand (NBA)             020000000000  0205E1767    TAG/ARUK026/020                                                                   000000000                                          CS00                    N20540000330+00000E
3ATNB1200412205900778735560000000000A01703B0017600000576950000740206200408200412DSG Group Branding F (APX)         030000000000  0305E2526    AMV/DNPP299/030                                                                   000000000                                          CS00                    N20540000330+00000E
3ATNB1200412212400778835719000000000A04729B0123600000588260000738052200406200426Indeed.co.uk GME                   020000000000  0205E2494    DSS/INDD726/020                                                                   000000000                                          CS00                    N21240000270+00000C
3ATNB1200412212420782269984000000000A00938B0165300000008360000737522200406200426Surf                               020000000000  0205E2458    TAG/SFGB033/020                                                                   000000000                                          CS00                    N21240000270+00000C
3ATNB1200412212440783030729000000000A05264B0013100000631810000743900200409200430Facebook Portal                    030000000000  0305E2692    ANO/FACE006/030                                                                   000000000                                          CS00                    N21240000270+00000C
3ATNB1200412212510781546745000000000A00258B0020300000579590000739146200401200430Camelot TNL (BAR)                  030000000000  0305E2515    AED/CMNL480/030                                                                   000000000                                          CS00                    N21240000270+00000C
3ATNB1200412212540783056840000000000A00993B0011400000147260000738102200401200418Mars M&Ms                          020000000000  0205D9183    AMV/MCMM989/020                                                                   000000000                                          CS00                    N21240000270+00000C
3ATNB1200412212600782269985000000000A00938B0165300000501990000737360200406200430Tresemme Keratin Smooth            020000000000  0205D7082    TAG/TSGB080/020                                                                   000000000                                          CS00                    N21240000270+00000C
3ATNB1200412212620778862180000000000A05340B0123600000541930000738095200401200426Lucozade Energy GME                020000000000  0205E2650    AED/LZBR005/020                                                                   000000000                                          CS00                    N21240000270+00000C
3ATNB1200412212640781605249000000000A00239B0122200000642780000737792200401200426Compare the Market Service Distinct030000000000  0305D4200    VCC/COMP440/030                                                                   000000000                                          CS00                    N21240000270+00000C
3ATNB1200412212710782279614000000000A00278B0008500000000370000737556200406200426Carlsberg Lager                    030000000000  0305E1516    FOL/CARD105/030                                                                   000000000                                          CS00                    N21240000270+00000C
3ATNB1200412212740782160727000000000A00285B0019100000037970000739722200401200430Cashcade Foxy Bingo                030000000000  0305E1188    BJL/FOXY047/030                                                                   000000000                                          CS00                    N21240000270+00000C
3ATNB1200412212810782269983000000000A01565B0165300000043110000740103200406200412Colmans Sauces                     020000000000  0205E0884    AED/UNCM287/020                                                                   000000000                                          CS00                    N21240000270+00000C
3ATNB1200412215400778845920000000000A00959B0123600000368750000738029200406200430Lloyds Brand GME                   030000000000  0305E2254    AED/LLDS103/030                                                                   000000000                                          CS00                    N21540000330+00000C
3ATNB1200412215430782161489000000000A00258B0020300000579590000739144200401200430Camelot TNL (BAR)                  030000000000  0305E2515    AED/CMNL480/030                                                                   000000000                                          CS00                    N21540000330+00000C
3ATNB1200412215500780259834000000000A00938B0165300000598720000737393200401200412Comfort Megatron                   030000000000  0305E1264    OGY/LECO501/030                                                                   000000000                                          CS00                    N21540000330+00000C
3ATNB1200412215530783029605000000000A05264B0013100000631810000743900200409200430Facebook Portal                    030000000000  0305E2692    ANO/FACE006/030                                                                   000000000                                          CS00                    N21540000330+00000C
3ATNB1200412215600778882981000000000A05340B0123600000541930000738095200401200426Lucozade Energy GME                010000000000  0105E2648    AED/LZBR006/010                                                                   000000000                                          CS00                    N21540000330+00000C
